{"contracts/gasRouter.sol":{"GasStation":{"abi":[{"inputs":[{"internalType":"address","name":"_pyth","type":"address"},{"internalType":"bytes32","name":"_cfxUsdFeedId","type":"bytes32"}],"stateMutability":"nonpayable","type":"constructor"},{"inputs":[],"name":"InvalidShortString","type":"error"},{"inputs":[{"internalType":"string","name":"str","type":"string"}],"name":"StringTooLong","type":"error"},{"anonymous":false,"inputs":[],"name":"EIP712DomainChanged","type":"event"},{"anonymous":false,"inputs":[{"indexed":true,"internalType":"address","name":"user","type":"address"},{"indexed":true,"internalType":"address","name":"relayer","type":"address"},{"indexed":true,"internalType":"address","name":"tokenAddress","type":"address"},{"indexed":false,"internalType":"uint256","name":"tokenAmount","type":"uint256"},{"indexed":false,"internalType":"uint256","name":"cfxAmount","type":"uint256"},{"indexed":false,"internalType":"uint256","name":"relayerFee","type":"uint256"}],"name":"MetaSwapped","type":"event"},{"anonymous":false,"inputs":[{"indexed":true,"internalType":"address","name":"previousOwner","type":"address"},{"indexed":true,"internalType":"address","name":"newOwner","type":"address"}],"name":"OwnershipTransferred","type":"event"},{"anonymous":false,"inputs":[{"indexed":false,"internalType":"uint256","name":"newFeePercent","type":"uint256"}],"name":"RelayerFeeUpdated","type":"event"},{"anonymous":false,"inputs":[{"indexed":true,"internalType":"address","name":"tokenAddress","type":"address"},{"indexed":false,"internalType":"string","name":"ticker","type":"string"},{"indexed":false,"internalType":"bytes32","name":"feedId","type":"bytes32"}],"name":"TokenAdded","type":"event"},{"inputs":[],"name":"MAX_CFX_PER_SWAP","outputs":[{"internalType":"uint256","name":"","type":"uint256"}],"stateMutability":"view","type":"function"},{"inputs":[{"internalType":"address","name":"tokenAddress","type":"address"},{"internalType":"string","name":"ticker","type":"string"},{"internalType":"bytes32","name":"feedId","type":"bytes32"}],"name":"addToken","outputs":[],"stateMutability":"nonpayable","type":"function"},{"inputs":[],"name":"cfxUsdFeedId","outputs":[{"internalType":"bytes32","name":"","type":"bytes32"}],"stateMutability":"view","type":"function"},{"inputs":[],"name":"depositCfx","outputs":[],"stateMutability":"payable","type":"function"},{"inputs":[],"name":"eip712Domain","outputs":[{"internalType":"bytes1","name":"fields","type":"bytes1"},{"internalType":"string","name":"name","type":"string"},{"internalType":"string","name":"version","type":"string"},{"internalType":"uint256","name":"chainId","type":"uint256"},{"internalType":"address","name":"verifyingContract","type":"address"},{"internalType":"bytes32","name":"salt","type":"bytes32"},{"internalType":"uint256[]","name":"extensions","type":"uint256[]"}],"stateMutability":"view","type":"function"},{"inputs":[{"internalType":"address","name":"tokenAddress","type":"address"},{"internalType":"uint256","name":"amount","type":"uint256"}],"name":"estimateCfxOut","outputs":[{"internalType":"uint256","name":"cfxAmount","type":"uint256"},{"internalType":"uint256","name":"relayerFee","type":"uint256"},{"internalType":"uint256","name":"userAmount","type":"uint256"}],"stateMutability":"view","type":"function"},{"inputs":[],"name":"getSupportedTokens","outputs":[{"components":[{"internalType":"address","name":"tokenAddress","type":"address"},{"internalType":"string","name":"ticker","type":"string"},{"internalType":"bytes32","name":"feedId","type":"bytes32"}],"internalType":"struct GasStation.TokenInfo[]","name":"","type":"tuple[]"}],"stateMutability":"view","type":"function"},{"inputs":[{"internalType":"address","name":"user","type":"address"},{"internalType":"address","name":"tokenAddress","type":"address"},{"internalType":"uint256","name":"amount","type":"uint256"},{"internalType":"uint256","name":"deadline","type":"uint256"},{"internalType":"bytes","name":"signature","type":"bytes"},{"internalType":"bytes[]","name":"updateData","type":"bytes[]"},{"internalType":"uint32","name":"maxAge","type":"uint32"}],"name":"metaSwap","outputs":[],"stateMutability":"payable","type":"function"},{"inputs":[{"internalType":"address","name":"","type":"address"}],"name":"nonces","outputs":[{"internalType":"uint256","name":"","type":"uint256"}],"stateMutability":"view","type":"function"},{"inputs":[],"name":"owner","outputs":[{"internalType":"address","name":"","type":"address"}],"stateMutability":"view","type":"function"},{"inputs":[],"name":"pyth","outputs":[{"internalType":"contract IPyth","name":"","type":"address"}],"stateMutability":"view","type":"function"},{"inputs":[],"name":"relayerFeePercent","outputs":[{"internalType":"uint256","name":"","type":"uint256"}],"stateMutability":"view","type":"function"},{"inputs":[],"name":"renounceOwnership","outputs":[],"stateMutability":"nonpayable","type":"function"},{"inputs":[{"internalType":"uint256","name":"_feePercent","type":"uint256"}],"name":"setRelayerFee","outputs":[],"stateMutability":"nonpayable","type":"function"},{"inputs":[{"internalType":"uint256","name":"","type":"uint256"}],"name":"supportedTokens","outputs":[{"internalType":"address","name":"tokenAddress","type":"address"},{"internalType":"string","name":"ticker","type":"string"},{"internalType":"bytes32","name":"feedId","type":"bytes32"}],"stateMutability":"view","type":"function"},{"inputs":[{"internalType":"address","name":"","type":"address"}],"name":"tokenFeedIds","outputs":[{"internalType":"bytes32","name":"","type":"bytes32"}],"stateMutability":"view","type":"function"},{"inputs":[{"internalType":"address","name":"","type":"address"}],"name":"tokenTickers","outputs":[{"internalType":"string","name":"","type":"string"}],"stateMutability":"view","type":"function"},{"inputs":[{"internalType":"address","name":"newOwner","type":"address"}],"name":"transferOwnership","outputs":[],"stateMutability":"nonpayable","type":"function"},{"inputs":[{"internalType":"uint256","name":"amount","type":"uint256"}],"name":"withdrawCfx","outputs":[],"stateMutability":"nonpayable","type":"function"},{"inputs":[{"internalType":"address","name":"tokenAddress","type":"address"},{"internalType":"uint256","name":"amount","type":"uint256"}],"name":"withdrawToken","outputs":[],"stateMutability":"nonpayable","type":"function"}],"evm":{"bytecode":{"linkReferences":{},"object":"6101a034620002af576001600160401b0362002ae5601f38829003908101601f191684019083821185831017620002b45780859160409485948552833981010312620002af5782516001600160a01b039384821691829003620002af57602080910151928051916200007183620002ca565b600a8352808301956923b0b9a9ba30ba34b7b760b11b875282516200009681620002ca565b60018152603160f81b83820190815260008054336001600160a01b0319821681178355919b167f8be0079c531659141344cd1fd0a4f28419497f9722a3daafe3b4186f6b6457e08c80a360018055620000ef86620002e6565b98610120998a526200010183620004c3565b96610140978852519020918260e0525190209061010099828b524660a052855192858401927f8b73c3c69bb8fe3d512ecc4cf759cc79239f7b179b0ffacaa9a75d522b39400f84528785015260608401524660808401523060a084015260a0835260c0830193838510908511176200029b5750828552815190206080523060c05260326008558515620002665750508415620002325750610160928352610180938452519361246c958662000679873960805186611fba015260a05186612085015260c05186611f84015260e051866120090152518561202f01525184610d1e01525183610d470152518281816101150152818161073a0152818161077e015281816107dc01528181610867015281816108ec01526113650152518181816102ae015281816108aa01526113c60152f35b606491519062461bcd60e51b82526004820152600f60248201526e1a5b9d985b1a590819995959081a59608a1b6044820152fd5b61010470707974682061646472657373207a65726f60781b9160649462461bcd60e51b855260c4820152601160e48201520152fd5b634e487b7160e01b81526041600452602490fd5b600080fd5b634e487b7160e01b600052604160045260246000fd5b604081019081106001600160401b03821117620002b457604052565b805160209081811015620003835750601f8251116200032257808251920151908083106200031357501790565b82600019910360031b1b161790565b90604051809263305a27a960e01b82528060048301528251908160248401526000935b82851062000369575050604492506000838284010152601f80199101168101030190fd5b848101820151868601604401529381019385935062000345565b906001600160401b038211620002b457600254926001938481811c91168015620004b8575b83821014620004a257601f811162000468575b5081601f8411600114620003fc5750928293918392600094620003f0575b50501b916000199060031b1c19161760025560ff90565b015192503880620003d9565b919083601f198116600260005284600020946000905b888383106200044d575050501062000433575b505050811b0160025560ff90565b015160001960f88460031b161c1916905538808062000425565b85870151885590960195948501948793509081019062000412565b600260005284601f84600020920160051c820191601f860160051c015b82811062000495575050620003bb565b6000815501859062000485565b634e487b7160e01b600052602260045260246000fd5b90607f1690620003a8565b8051602091908281101562000553575090601f825111620004f257808251920151908083106200031357501790565b90604051809263305a27a960e01b82528060048301528251908160248401526000935b82851062000539575050604492506000838284010152601f80199101168101030190fd5b848101820151868601604401529381019385935062000515565b6001600160401b038111620002b4576003928354926001938481811c911680156200066d575b83821014620004a257601f811162000634575b5081601f8411600114620005cb5750928293918392600094620005bf575b50501b9160001990841b1c191617905560ff90565b015192503880620005aa565b919083601f1981168760005284600020946000905b8883831062000619575050501062000600575b505050811b01905560ff90565b015160001983861b60f8161c19169055388080620005f3565b858701518855909601959485019487935090810190620005e0565b8560005284601f84600020920160051c820191601f860160051c015b828110620006605750506200058c565b6000815501859062000650565b90607f16906200057956fe60c0604052600436101561001257600080fd5b600060a05260003560e01c806311dfca5d146114a957806331e2a65c146114845780635f5443a514611324578063715018a6146112c557806378af1d5514610ede5780637ecebe0014610ea257806383302a6f14610e1457806384b0196e14610d065780638da5cb5b14610cdd57806391f1221814610ca15780639e281a9814610c1d578063a275d6661461050f578063c625562614610497578063c9325d6c14610439578063d3c7c2c7146102d1578063e83d086f14610294578063ef1774a214610274578063f2fde38b146101a7578063f6954a131461014d5763f98d06f0146100fd57600080fd5b346101475760a05180600319360112610144576040517f00000000000000000000000000000000000000000000000000000000000000006001600160a01b03168152602090f35b80fd5b60a05180fd5b60a051806003193601126101445761016361171a565b341561016f5760a05180f35b60405162461bcd60e51b815260206004820152601060248201526f04d757374206465706f736974203e20360841b6044820152606490fd5b34610147576020366003190112610147576101c061151f565b6101c861171a565b6001600160a01b0390811690811561022057600054826bffffffffffffffffffffffff60a01b821617600055167f8be0079c531659141344cd1fd0a4f28419497f9722a3daafe3b4186f6b6457e0600080a360a05180f35b60405162461bcd60e51b815260206004820152602660248201527f4f776e61626c653a206e6577206f776e657220697320746865207a65726f206160448201526564647265737360d01b6064820152608490fd5b346101475760a05180600319360112610144576020600854604051908152f35b346101475760a051806003193601126101445760206040517f00000000000000000000000000000000000000000000000000000000000000008152f35b346101475760a05180600319360112610144576004546001600160401b038111610423576040519060209061030b828260051b01846116f9565b8083528183019081600460a051527f8a35acfbc15ff81a39ae7d344fd709f28e8600b4aa8c65c6b64bfe7fe36bd19b60a051915b8383106103ca5750505050604051918083019381845251809452604083019360408160051b850101929160a051955b82871061037b5785850386f35b909192938280600192603f19898203018552875190848060a01b0382511681526040806103b48585015160608088870152850190611562565b930151910152960192019601959291909261036e565b6003866001926040999899516103df816116c3565b848060a01b038654168152604051610404816103fd81898b0161162d565b03826116f9565b838201526002860154604082015281520192019201919095949561033f565b634e487b7160e01b600052604160045260246000fd5b34610147576020366003190112610147576001600160a01b0361045a61151f565b1660a0515260066020526104936103fd61047f604060a051206040519283809261162d565b604051918291602083526020830190611562565b0390f35b3461014757602036600319011261014757600435600454811015610147576104be906115a2565b5060018060a01b038154166002604051926104e7846104e0816001850161162d565b03856116f9565b01546105056040519384938452606060208501526060840190611562565b9060408301520390f35b60e03660031901126101475761052361151f565b6024356001600160a01b0381169003610147576084356001600160401b03811161014757610555903690600401611535565b906001600160401b0360a435116101475736602360a435011215610147576001600160401b0360a43560040135116101475736602460a4356004013560051b60a4350101116101475763ffffffff60c4351660c43503610147576105b7611b84565b6064354211610be45760a080516024356001600160a01b0316905260056020525160409020546105e89015156119ef565b60018060a01b03831660a051526007602052604060a051205491604051927f07f6f794c7fcb551753890b40c47e50ca6b3742713f342e7827073a27f687f46602085015260018060a01b038516604085015260018060a01b03602435166060850152604435608085015260a084015260643560c084015260c083528260e08101106001600160401b0360e085011117610b03576106be6106c49260428560e06106cc97016040526020815191012061069e611f81565b906040519161190160f01b83526002830152602282015220923691611943565b90611eba565b919091611da0565b6001600160a01b03828116911603610bab5760a080516001600160a01b038316905260076020525160408120805490916000198214610b94575060010190556040519063d47eed4560e01b82526020828061073660a43560040135602460a4350160048401611a33565b03817f00000000000000000000000000000000000000000000000000000000000000006001600160a01b03165afa918215610ac05760a05192610b60575b50813410610b1b577f00000000000000000000000000000000000000000000000000000000000000006001600160a01b03163b1561014757604051631df3cbc560e31b815260a05181806107d760a43560040135602460a4350160048401611a33565b0381867f00000000000000000000000000000000000000000000000000000000000000006001600160a01b03165af18015610ac057610aec575b5060018060a01b036024351660a051526005602052604060a05120546040516080818061086363052571af60e51b9586835260c435906004840190929163ffffffff6020916040840195845216910152565b03817f00000000000000000000000000000000000000000000000000000000000000006001600160a01b03165afa908115610ac05760a05191610acd575b506040519182527f0000000000000000000000000000000000000000000000000000000000000000600483015260c43563ffffffff1660248301526080826044816001600160a01b037f0000000000000000000000000000000000000000000000000000000000000000165afa908115610ac05761092e9260a05192610a8f575b50604435602435612128565b61271061093d60085483611b2e565b04926109498483611b77565b914710610a4a57604051906323b872dd60e01b602083015260018060a01b038416602483015230604483015260443560648301526064825260a082018281106001600160401b03821117610423576040526109c9916109b3906024356001600160a01b0316611bda565b6109bd83856120ab565b84610a3b575b34611b77565b80610a2b575b5060408051604435815260208101929092528101929092526001600160a01b036024358116923392909116907f6efced4ed44fb06eaed2ffec26c5392c1b03a2ba58ca72e7af5b738826cd4cec90606090a46001805560a05180f35b610a3590336120ab565b836109cf565b610a4585336120ab565b6109c3565b60405162461bcd60e51b815260206004820152601c60248201527f496e73756666696369656e742043465820696e20636f6e7472616374000000006044820152606490fd5b610ab291925060803d608011610ab9575b610aaa81836116f9565b810190611ac2565b9085610922565b503d610aa0565b6040513d60a051823e3d90fd5b610ae6915060803d608011610ab957610aaa81836116f9565b846108a1565b6001600160401b038111610b035760405282610811565b634e487b7160e01b60a051526041600452602460a051fd5b60405162461bcd60e51b815260206004820152601c60248201527f496e73756666696369656e7420507974682075706461746520666565000000006044820152606490fd5b9091506020813d602011610b8c575b81610b7c602093836116f9565b8101031261014757519082610774565b3d9150610b6f565b634e487b7160e01b9052601160045260a051602490fd5b60405162461bcd60e51b8152602060048201526011602482015270496e76616c6964207369676e617475726560781b6044820152606490fd5b60405162461bcd60e51b815260206004820152601160248201527014da59db985d1d5c9948195e1c1a5c9959607a1b6044820152606490fd5b3461014757604036600319011261014757610c3661151f565b610c3e61171a565b610c46611b84565b60405163a9059cbb60e01b602082015233602482015260243560448201526044815260808101918183106001600160401b03841117610b0357604092909252610c97916001600160a01b0316611bda565b6001805560a05180f35b34610147576020366003190112610147576001600160a01b03610cc261151f565b1660a0515260056020526020604060a0512054604051908152f35b346101475760a0518060031936011261014457546040516001600160a01b039091168152602090f35b346101475760a0518060031936011261014457610d427f0000000000000000000000000000000000000000000000000000000000000000611772565b610d6b7f000000000000000000000000000000000000000000000000000000000000000061186e565b6040516020808201928284106001600160401b03851117610b03579181610dc58594610db7979660405260a0518452604051978897600f60f81b895260e0858a015260e0890190611562565b908782036040890152611562565b9146606087015230608087015260a05160a087015285830360c0870152519182815201929160a0515b828110610dfd57505050500390f35b835185528695509381019392810192600101610dee565b3461014757602036600319011261014757600435610e3061171a565b6103e88111610e6e576020817f33e1d5145944d624b86865712fc54c442cdfdeebf537007cb7809bccb0126da592600855604051908152a160a05180f35b60405162461bcd60e51b815260206004820152600c60248201526b08ccaca40e8dede40d0d2ced60a31b6044820152606490fd5b34610147576020366003190112610147576001600160a01b03610ec361151f565b1660a0515260076020526020604060a0512054604051908152f35b3461014757606036600319011261014757610ef761151f565b60248035916001600160401b039283811161014757610f1a903690600401611535565b9091604435610f2761171a565b801561128f576001600160a01b03918216948515611253578560a0515260209260058452604060a05120546112195760405190610f63826116c3565b878252610f71368789611943565b908583019182526040830190858252600454680100000000000000008110156111ec57610fa9906001608052600181016004556115a2565b9490946112035751166bffffffffffffffffffffffff60a01b845416178355608051830191519182518b81116111ec57610fed81610fe784546115f3565b8461197a565b60a051938894601f831160011461117e5750600294829160a05192611173575b50508160011b916000199060031b1c19161790555b519101558560a051526005835260a051826040822055600684526040812097851161115f57505061105d8361105788546115f3565b8861197a565b60a05195601f84116001146110dc57837f7ee5b861ad236224c1fb776c839c3959f7a0903d4e4dcde63306821c6ff60aa2969760a051916110d1575b508460011b906000198660031b1c19161790555b6110c46040519485946040865260408601916119ce565b918301520390a260a05180f35b905085013588611099565b80875260a051838120608051601f1987169990925b8a811061114a5750867f7ee5b861ad236224c1fb776c839c3959f7a0903d4e4dcde63306821c6ff60aa2999a10611130575b505084811b0190556110ad565b870135600019600388901b60f8161c191690558880611123565b888201358355918301919086019086016110f1565b634e487b7160e01b9052604160045260a051fd5b015190508d8061100d565b92939484601f198416945260a051918a83209294608051955b8c8282106111d85750509084600298979695949392106111bf575b505050811b019055611022565b015160001960f88460031b161c191690558d80806111b2565b838501518655948701949384019301611197565b85634e487b7160e01b60a05152604160045260a051fd5b85634e487b7160e01b60a0515260a05180600452fd5b60405162461bcd60e51b81526004810185905260138184015272151bdad95b88185b1c9958591e481859191959606a1b6044820152606490fd5b60649060156040519162461bcd60e51b83526020600484015282015274496e76616c696420746f6b656e206164647265737360581b6044820152fd5b60405162461bcd60e51b815260206004820152600f818701526e125b9d985b1a590819995959081251608a1b6044820152606490fd5b346101475760a05180600319360112610144576112e061171a565b60a05180546001600160a01b03198116825581906001600160a01b03167f8be0079c531659141344cd1fd0a4f28419497f9722a3daafe3b4186f6b6457e08280a380f35b346101475760403660031901126101475761133d61151f565b60018060a01b0380821660a051526005602052604060a0512054906113638215156119ef565b7f00000000000000000000000000000000000000000000000000000000000000001690604051926396834ad360e01b9182855260048501526080938481602481875afa928315610ac057859160a05194611465575b5060246040518096819382527f000000000000000000000000000000000000000000000000000000000000000060048301525afa928315610ac05761140b9460a05194611446575b505060243590612128565b61271061141a60085483611b2e565b04906104936114298383611b77565b604051938493846040919493926060820195825260208201520152565b61145d929450803d10610ab957610aaa81836116f9565b918480611400565b61147d919450823d8411610ab957610aaa81836116f9565b92866113b8565b346101475760a05180600319360112610144576020604051678ac7230489e800008152f35b3461151a57602036600319011261151a576004356114c561171a565b6114cd611b84565b8047106114de57610c9790336120ab565b60405162461bcd60e51b8152602060048201526014602482015273496e73756666696369656e742062616c616e636560601b6044820152606490fd5b600080fd5b600435906001600160a01b038216820361151a57565b9181601f8401121561151a578235916001600160401b03831161151a576020838186019501011161151a57565b919082519283825260005b84811061158e575050826000602080949584010152601f8019910116010190565b60208183018101518483018201520161156d565b6004548110156115dd576003906004600052027f8a35acfbc15ff81a39ae7d344fd709f28e8600b4aa8c65c6b64bfe7fe36bd19b0190600090565b634e487b7160e01b600052603260045260246000fd5b90600182811c92168015611623575b602083101461160d57565b634e487b7160e01b600052602260045260246000fd5b91607f1691611602565b906000929180549161163e836115f3565b9182825260019384811690816000146116a05750600114611660575b50505050565b90919394506000526020928360002092846000945b83861061168c57505050500101903880808061165a565b805485870183015294019385908201611675565b9294505050602093945060ff191683830152151560051b0101903880808061165a565b606081019081106001600160401b0382111761042357604052565b604081019081106001600160401b0382111761042357604052565b90601f801991011681019081106001600160401b0382111761042357604052565b6000546001600160a01b0316330361172e57565b606460405162461bcd60e51b815260206004820152602060248201527f4f776e61626c653a2063616c6c6572206973206e6f7420746865206f776e65726044820152fd5b60ff81146117b05760ff811690601f821161179e5760405191611794836116de565b8252602082015290565b604051632cd44ac360e21b8152600490fd5b506040516002548160006117c3836115f3565b8083529260019081811690811561184c57506001146117ed575b506117ea925003826116f9565b90565b6002600090815291507f405787fa12a823e0f2b7631cc41b3ba8828b3321ca811111fa75cd3aa3bb5ace5b84831061183157506117ea9350508101602001386117dd565b81935090816020925483858901015201910190918492611818565b9050602092506117ea94915060ff191682840152151560051b820101386117dd565b60ff81146118905760ff811690601f821161179e5760405191611794836116de565b506040516003548160006118a3836115f3565b8083529260019081811690811561184c57506001146118c957506117ea925003826116f9565b6003600090815291507fc2575a0e9e593c00f959f8c92f12db2869c3395a3b0502d05e2516446f71f85b5b84831061190d57506117ea9350508101602001386117dd565b819350908160209254838589010152019101909184926118f4565b6001600160401b03811161042357601f01601f191660200190565b92919261194f82611928565b9161195d60405193846116f9565b82948184528183011161151a578281602093846000960137010152565b90601f811161198857505050565b600091825260208220906020601f850160051c830194106119c4575b601f0160051c01915b8281106119b957505050565b8181556001016119ad565b90925082906119a4565b908060209392818452848401376000828201840152601f01601f1916010190565b156119f657565b60405162461bcd60e51b8152602060048201526015602482015274151bdad95b881b9bdd081dda1a5d195b1a5cdd1959605a1b6044820152606490fd5b9160208181850182865252604084019360408360051b82010194846000925b858410611a63575050505050505090565b90919293949596603f198282030184528735601e198436030181121561151a5783018681019190356001600160401b03811161151a57803603831361151a57611ab1889283926001956119ce565b990194019401929594939190611a52565b9081608091031261151a57604051906001600160401b0360808301818111848210176104235760405281518060070b810361151a5783526020820151908116810361151a5760208301526040810151908160030b820361151a5760609160408401520151606082015290565b81810292918115918404141715611b4157565b634e487b7160e01b600052601160045260246000fd5b8115611b61570490565b634e487b7160e01b600052601260045260246000fd5b91908203918211611b4157565b600260015414611b95576002600155565b60405162461bcd60e51b815260206004820152601f60248201527f5265656e7472616e637947756172643a207265656e7472616e742063616c6c006044820152606490fd5b60018060a01b031690611c39604051611bf2816116de565b6020938482527f5361666545524332303a206c6f772d6c6576656c2063616c6c206661696c6564858301526000808587829751910182855af1611c33611cd3565b91611d03565b805191821591848315611cab575b505050905015611c545750565b6084906040519062461bcd60e51b82526004820152602a60248201527f5361666545524332303a204552433230206f7065726174696f6e20646964206e6044820152691bdd081cdd58d8d9595960b21b6064820152fd5b919381809450010312611ccf57820151908115158203610144575080388084611c47565b5080fd5b3d15611cfe573d90611ce482611928565b91611cf260405193846116f9565b82523d6000602084013e565b606090565b91929015611d655750815115611d17575090565b3b15611d205790565b60405162461bcd60e51b815260206004820152601d60248201527f416464726573733a2063616c6c20746f206e6f6e2d636f6e74726163740000006044820152606490fd5b825190915015611d785750805190602001fd5b60405162461bcd60e51b815260206004820152908190611d9c906024830190611562565b0390fd5b6005811015611ea45780611db15750565b60018103611dfe5760405162461bcd60e51b815260206004820152601860248201527f45434453413a20696e76616c6964207369676e617475726500000000000000006044820152606490fd5b60028103611e4b5760405162461bcd60e51b815260206004820152601f60248201527f45434453413a20696e76616c6964207369676e6174757265206c656e677468006044820152606490fd5b600314611e5457565b60405162461bcd60e51b815260206004820152602260248201527f45434453413a20696e76616c6964207369676e6174757265202773272076616c604482015261756560f01b6064820152608490fd5b634e487b7160e01b600052602160045260246000fd5b906041815114600014611ee857611ee4916020820151906060604084015193015160001a90611ef2565b9091565b5050600090600290565b9291907f7fffffffffffffffffffffffffffffff5d576e7357a4501ddfe92f46681b20a08311611f755791608094939160ff602094604051948552168484015260408301526060820152600093849182805260015afa15611f685781516001600160a01b03811615611f62579190565b50600190565b50604051903d90823e3d90fd5b50505050600090600390565b307f00000000000000000000000000000000000000000000000000000000000000006001600160a01b03161480612082575b15611fdc577f000000000000000000000000000000000000000000000000000000000000000090565b60405160208101907f8b73c3c69bb8fe3d512ecc4cf759cc79239f7b179b0ffacaa9a75d522b39400f82527f000000000000000000000000000000000000000000000000000000000000000060408201527f000000000000000000000000000000000000000000000000000000000000000060608201524660808201523060a082015260a0815260c081018181106001600160401b038211176104235760405251902090565b507f00000000000000000000000000000000000000000000000000000000000000004614611fb3565b600080809381935af16120bc611cd3565b50156120c457565b60405162461bcd60e51b815260206004820152601360248201527210d196081d1c985b9cd9995c8819985a5b1959606a1b6044820152606490fd5b60030b637fffffff198114611b415760000390565b63ffffffff16604d8111611b4157600a0a90565b909193929360009081815160070b13156123fb5781865160070b13156123c257831561238f576040805163313ce56760e01b815290966004956020959192909186908290899082906001600160a01b03165afa90811561238557859161234a575b508884015160030b91858312156122fc576121d56121be6121b860ff936001600160401b038099511690611b2e565b946120ff565b936121cf63ffffffff958616612114565b90611b2e565b9116604d81116122e957906121ed91600a0a90611b57565b928883015160030b92858412156122a857916122136121cf9261221995945116936120ff565b16612114565b91670de0b6b3a76400009182810292818404149015171561229557509061223f91611b57565b93678ac7230489e80000851161225457505050565b5162461bcd60e51b815291820152601860248201527f45786365656473206d6178204346582070657220737761700000000000000000604482015260649150fd5b634e487b7160e01b815260118552602490fd5b60648888808d519262461bcd60e51b845283015260248201527f556e657870656374656420706f736974697665206578706f20666f72204346586044820152fd5b634e487b7160e01b865260118852602486fd5b895162461bcd60e51b8152808901889052602260248201527f556e657870656374656420706f736974697665206578706f20666f7220746f6b60448201526132b760f11b6064820152608490fd5b90508581813d831161237e575b61236181836116f9565b8101031261237a575160ff8116810361237a5738612189565b8480fd5b503d612357565b89513d87823e3d90fd5b60405162461bcd60e51b815260206004820152600b60248201526a416d6f756e74207a65726f60a81b6044820152606490fd5b60405162461bcd60e51b8152602060048201526011602482015270496e76616c69642043465820707269636560781b6044820152606490fd5b60405162461bcd60e51b8152602060048201526013602482015272496e76616c696420746f6b656e20707269636560681b6044820152606490fdfea2646970667358221220642deca9e2da3f2b31d6db6de9c40cb869009b2514e858c3c03fbefa3eef134664736f6c63430008140033","opcodes":"PUSH2 0x1A0 CALLVALUE PUSH3 0x2AF JUMPI PUSH1 0x1 PUSH1 0x1 PUSH1 0x40 SHL SUB PUSH3 0x2AE5 PUSH1 0x1F CODESIZE DUP3 SWAP1 SUB SWAP1 DUP2 ADD PUSH1 0x1F NOT AND DUP5 ADD SWAP1 DUP4 DUP3 GT DUP6 DUP4 LT OR PUSH3 0x2B4 JUMPI DUP1 DUP6 SWAP2 PUSH1 0x40 SWAP5 DUP6 SWAP5 DUP6 MSTORE DUP4 CODECOPY DUP2 ADD SUB SLT PUSH3 0x2AF JUMPI DUP3 MLOAD PUSH1 0x1 PUSH1 0x1 PUSH1 0xA0 SHL SUB SWAP4 DUP5 DUP3 AND SWAP2 DUP3 SWAP1 SUB PUSH3 0x2AF JUMPI PUSH1 0x20 DUP1 SWAP2 ADD MLOAD SWAP3 DUP1 MLOAD SWAP2 PUSH3 0x71 DUP4 PUSH3 0x2CA JUMP JUMPDEST PUSH1 0xA DUP4 MSTORE DUP1 DUP4 ADD SWAP6 PUSH10 0x23B0B9A9BA30BA34B7B7 PUSH1 0xB1 SHL DUP8 MSTORE DUP3 MLOAD PUSH3 0x96 DUP2 PUSH3 0x2CA JUMP JUMPDEST PUSH1 0x1 DUP2 MSTORE PUSH1 0x31 PUSH1 0xF8 SHL DUP4 DUP3 ADD SWAP1 DUP2 MSTORE PUSH1 0x0 DUP1 SLOAD CALLER PUSH1 0x1 PUSH1 0x1 PUSH1 0xA0 SHL SUB NOT DUP3 AND DUP2 OR DUP4 SSTORE SWAP2 SWAP12 AND PUSH32 0x8BE0079C531659141344CD1FD0A4F28419497F9722A3DAAFE3B4186F6B6457E0 DUP13 DUP1 LOG3 PUSH1 0x1 DUP1 SSTORE PUSH3 0xEF DUP7 PUSH3 0x2E6 JUMP JUMPDEST SWAP9 PUSH2 0x120 SWAP10 DUP11 MSTORE PUSH3 0x101 DUP4 PUSH3 0x4C3 JUMP JUMPDEST SWAP7 PUSH2 0x140 SWAP8 DUP9 MSTORE MLOAD SWAP1 KECCAK256 SWAP2 DUP3 PUSH1 0xE0 MSTORE MLOAD SWAP1 KECCAK256 SWAP1 PUSH2 0x100 SWAP10 DUP3 DUP12 MSTORE CHAINID PUSH1 0xA0 MSTORE DUP6 MLOAD SWAP3 DUP6 DUP5 ADD SWAP3 PUSH32 0x8B73C3C69BB8FE3D512ECC4CF759CC79239F7B179B0FFACAA9A75D522B39400F DUP5 MSTORE DUP8 DUP6 ADD MSTORE PUSH1 0x60 DUP5 ADD MSTORE CHAINID PUSH1 0x80 DUP5 ADD MSTORE ADDRESS PUSH1 0xA0 DUP5 ADD MSTORE PUSH1 0xA0 DUP4 MSTORE PUSH1 0xC0 DUP4 ADD SWAP4 DUP4 DUP6 LT SWAP1 DUP6 GT OR PUSH3 0x29B JUMPI POP DUP3 DUP6 MSTORE DUP2 MLOAD SWAP1 KECCAK256 PUSH1 0x80 MSTORE ADDRESS PUSH1 0xC0 MSTORE PUSH1 0x32 PUSH1 0x8 SSTORE DUP6 ISZERO PUSH3 0x266 JUMPI POP POP DUP5 ISZERO PUSH3 0x232 JUMPI POP PUSH2 0x160 SWAP3 DUP4 MSTORE PUSH2 0x180 SWAP4 DUP5 MSTORE MLOAD SWAP4 PUSH2 0x246C SWAP6 DUP7 PUSH3 0x679 DUP8 CODECOPY PUSH1 0x80 MLOAD DUP7 PUSH2 0x1FBA ADD MSTORE PUSH1 0xA0 MLOAD DUP7 PUSH2 0x2085 ADD MSTORE PUSH1 0xC0 MLOAD DUP7 PUSH2 0x1F84 ADD MSTORE PUSH1 0xE0 MLOAD DUP7 PUSH2 0x2009 ADD MSTORE MLOAD DUP6 PUSH2 0x202F ADD MSTORE MLOAD DUP5 PUSH2 0xD1E ADD MSTORE MLOAD DUP4 PUSH2 0xD47 ADD MSTORE MLOAD DUP3 DUP2 DUP2 PUSH2 0x115 ADD MSTORE DUP2 DUP2 PUSH2 0x73A ADD MSTORE DUP2 DUP2 PUSH2 0x77E ADD MSTORE DUP2 DUP2 PUSH2 0x7DC ADD MSTORE DUP2 DUP2 PUSH2 0x867 ADD MSTORE DUP2 DUP2 PUSH2 0x8EC ADD MSTORE PUSH2 0x1365 ADD MSTORE MLOAD DUP2 DUP2 DUP2 PUSH2 0x2AE ADD MSTORE DUP2 DUP2 PUSH2 0x8AA ADD MSTORE PUSH2 0x13C6 ADD MSTORE RETURN JUMPDEST PUSH1 0x64 SWAP2 MLOAD SWAP1 PUSH3 0x461BCD PUSH1 0xE5 SHL DUP3 MSTORE PUSH1 0x4 DUP3 ADD MSTORE PUSH1 0xF PUSH1 0x24 DUP3 ADD MSTORE PUSH15 0x1A5B9D985B1A590819995959081A59 PUSH1 0x8A SHL PUSH1 0x44 DUP3 ADD MSTORE REVERT JUMPDEST PUSH2 0x104 PUSH17 0x707974682061646472657373207A65726F PUSH1 0x78 SHL SWAP2 PUSH1 0x64 SWAP5 PUSH3 0x461BCD PUSH1 0xE5 SHL DUP6 MSTORE PUSH1 0xC4 DUP3 ADD MSTORE PUSH1 0x11 PUSH1 0xE4 DUP3 ADD MSTORE ADD MSTORE REVERT JUMPDEST PUSH4 0x4E487B71 PUSH1 0xE0 SHL DUP2 MSTORE PUSH1 0x41 PUSH1 0x4 MSTORE PUSH1 0x24 SWAP1 REVERT JUMPDEST PUSH1 0x0 DUP1 REVERT JUMPDEST PUSH4 0x4E487B71 PUSH1 0xE0 SHL PUSH1 0x0 MSTORE PUSH1 0x41 PUSH1 0x4 MSTORE PUSH1 0x24 PUSH1 0x0 REVERT JUMPDEST PUSH1 0x40 DUP2 ADD SWAP1 DUP2 LT PUSH1 0x1 PUSH1 0x1 PUSH1 0x40 SHL SUB DUP3 GT OR PUSH3 0x2B4 JUMPI PUSH1 0x40 MSTORE JUMP JUMPDEST DUP1 MLOAD PUSH1 0x20 SWAP1 DUP2 DUP2 LT ISZERO PUSH3 0x383 JUMPI POP PUSH1 0x1F DUP3 MLOAD GT PUSH3 0x322 JUMPI DUP1 DUP3 MLOAD SWAP3 ADD MLOAD SWAP1 DUP1 DUP4 LT PUSH3 0x313 JUMPI POP OR SWAP1 JUMP JUMPDEST DUP3 PUSH1 0x0 NOT SWAP2 SUB PUSH1 0x3 SHL SHL AND OR SWAP1 JUMP JUMPDEST SWAP1 PUSH1 0x40 MLOAD DUP1 SWAP3 PUSH4 0x305A27A9 PUSH1 0xE0 SHL DUP3 MSTORE DUP1 PUSH1 0x4 DUP4 ADD MSTORE DUP3 MLOAD SWAP1 DUP2 PUSH1 0x24 DUP5 ADD MSTORE PUSH1 0x0 SWAP4 JUMPDEST DUP3 DUP6 LT PUSH3 0x369 JUMPI POP POP PUSH1 0x44 SWAP3 POP PUSH1 0x0 DUP4 DUP3 DUP5 ADD ADD MSTORE PUSH1 0x1F DUP1 NOT SWAP2 ADD AND DUP2 ADD SUB ADD SWAP1 REVERT JUMPDEST DUP5 DUP2 ADD DUP3 ADD MLOAD DUP7 DUP7 ADD PUSH1 0x44 ADD MSTORE SWAP4 DUP2 ADD SWAP4 DUP6 SWAP4 POP PUSH3 0x345 JUMP JUMPDEST SWAP1 PUSH1 0x1 PUSH1 0x1 PUSH1 0x40 SHL SUB DUP3 GT PUSH3 0x2B4 JUMPI PUSH1 0x2 SLOAD SWAP3 PUSH1 0x1 SWAP4 DUP5 DUP2 DUP2 SHR SWAP2 AND DUP1 ISZERO PUSH3 0x4B8 JUMPI JUMPDEST DUP4 DUP3 LT EQ PUSH3 0x4A2 JUMPI PUSH1 0x1F DUP2 GT PUSH3 0x468 JUMPI JUMPDEST POP DUP2 PUSH1 0x1F DUP5 GT PUSH1 0x1 EQ PUSH3 0x3FC JUMPI POP SWAP3 DUP3 SWAP4 SWAP2 DUP4 SWAP3 PUSH1 0x0 SWAP5 PUSH3 0x3F0 JUMPI JUMPDEST POP POP SHL SWAP2 PUSH1 0x0 NOT SWAP1 PUSH1 0x3 SHL SHR NOT AND OR PUSH1 0x2 SSTORE PUSH1 0xFF SWAP1 JUMP JUMPDEST ADD MLOAD SWAP3 POP CODESIZE DUP1 PUSH3 0x3D9 JUMP JUMPDEST SWAP2 SWAP1 DUP4 PUSH1 0x1F NOT DUP2 AND PUSH1 0x2 PUSH1 0x0 MSTORE DUP5 PUSH1 0x0 KECCAK256 SWAP5 PUSH1 0x0 SWAP1 JUMPDEST DUP9 DUP4 DUP4 LT PUSH3 0x44D JUMPI POP POP POP LT PUSH3 0x433 JUMPI JUMPDEST POP POP POP DUP2 SHL ADD PUSH1 0x2 SSTORE PUSH1 0xFF SWAP1 JUMP JUMPDEST ADD MLOAD PUSH1 0x0 NOT PUSH1 0xF8 DUP5 PUSH1 0x3 SHL AND SHR NOT AND SWAP1 SSTORE CODESIZE DUP1 DUP1 PUSH3 0x425 JUMP JUMPDEST DUP6 DUP8 ADD MLOAD DUP9 SSTORE SWAP1 SWAP7 ADD SWAP6 SWAP5 DUP6 ADD SWAP5 DUP8 SWAP4 POP SWAP1 DUP2 ADD SWAP1 PUSH3 0x412 JUMP JUMPDEST PUSH1 0x2 PUSH1 0x0 MSTORE DUP5 PUSH1 0x1F DUP5 PUSH1 0x0 KECCAK256 SWAP3 ADD PUSH1 0x5 SHR DUP3 ADD SWAP2 PUSH1 0x1F DUP7 ADD PUSH1 0x5 SHR ADD JUMPDEST DUP3 DUP2 LT PUSH3 0x495 JUMPI POP POP PUSH3 0x3BB JUMP JUMPDEST PUSH1 0x0 DUP2 SSTORE ADD DUP6 SWAP1 PUSH3 0x485 JUMP JUMPDEST PUSH4 0x4E487B71 PUSH1 0xE0 SHL PUSH1 0x0 MSTORE PUSH1 0x22 PUSH1 0x4 MSTORE PUSH1 0x24 PUSH1 0x0 REVERT JUMPDEST SWAP1 PUSH1 0x7F AND SWAP1 PUSH3 0x3A8 JUMP JUMPDEST DUP1 MLOAD PUSH1 0x20 SWAP2 SWAP1 DUP3 DUP2 LT ISZERO PUSH3 0x553 JUMPI POP SWAP1 PUSH1 0x1F DUP3 MLOAD GT PUSH3 0x4F2 JUMPI DUP1 DUP3 MLOAD SWAP3 ADD MLOAD SWAP1 DUP1 DUP4 LT PUSH3 0x313 JUMPI POP OR SWAP1 JUMP JUMPDEST SWAP1 PUSH1 0x40 MLOAD DUP1 SWAP3 PUSH4 0x305A27A9 PUSH1 0xE0 SHL DUP3 MSTORE DUP1 PUSH1 0x4 DUP4 ADD MSTORE DUP3 MLOAD SWAP1 DUP2 PUSH1 0x24 DUP5 ADD MSTORE PUSH1 0x0 SWAP4 JUMPDEST DUP3 DUP6 LT PUSH3 0x539 JUMPI POP POP PUSH1 0x44 SWAP3 POP PUSH1 0x0 DUP4 DUP3 DUP5 ADD ADD MSTORE PUSH1 0x1F DUP1 NOT SWAP2 ADD AND DUP2 ADD SUB ADD SWAP1 REVERT JUMPDEST DUP5 DUP2 ADD DUP3 ADD MLOAD DUP7 DUP7 ADD PUSH1 0x44 ADD MSTORE SWAP4 DUP2 ADD SWAP4 DUP6 SWAP4 POP PUSH3 0x515 JUMP JUMPDEST PUSH1 0x1 PUSH1 0x1 PUSH1 0x40 SHL SUB DUP2 GT PUSH3 0x2B4 JUMPI PUSH1 0x3 SWAP3 DUP4 SLOAD SWAP3 PUSH1 0x1 SWAP4 DUP5 DUP2 DUP2 SHR SWAP2 AND DUP1 ISZERO PUSH3 0x66D JUMPI JUMPDEST DUP4 DUP3 LT EQ PUSH3 0x4A2 JUMPI PUSH1 0x1F DUP2 GT PUSH3 0x634 JUMPI JUMPDEST POP DUP2 PUSH1 0x1F DUP5 GT PUSH1 0x1 EQ PUSH3 0x5CB JUMPI POP SWAP3 DUP3 SWAP4 SWAP2 DUP4 SWAP3 PUSH1 0x0 SWAP5 PUSH3 0x5BF JUMPI JUMPDEST POP POP SHL SWAP2 PUSH1 0x0 NOT SWAP1 DUP5 SHL SHR NOT AND OR SWAP1 SSTORE PUSH1 0xFF SWAP1 JUMP JUMPDEST ADD MLOAD SWAP3 POP CODESIZE DUP1 PUSH3 0x5AA JUMP JUMPDEST SWAP2 SWAP1 DUP4 PUSH1 0x1F NOT DUP2 AND DUP8 PUSH1 0x0 MSTORE DUP5 PUSH1 0x0 KECCAK256 SWAP5 PUSH1 0x0 SWAP1 JUMPDEST DUP9 DUP4 DUP4 LT PUSH3 0x619 JUMPI POP POP POP LT PUSH3 0x600 JUMPI JUMPDEST POP POP POP DUP2 SHL ADD SWAP1 SSTORE PUSH1 0xFF SWAP1 JUMP JUMPDEST ADD MLOAD PUSH1 0x0 NOT DUP4 DUP7 SHL PUSH1 0xF8 AND SHR NOT AND SWAP1 SSTORE CODESIZE DUP1 DUP1 PUSH3 0x5F3 JUMP JUMPDEST DUP6 DUP8 ADD MLOAD DUP9 SSTORE SWAP1 SWAP7 ADD SWAP6 SWAP5 DUP6 ADD SWAP5 DUP8 SWAP4 POP SWAP1 DUP2 ADD SWAP1 PUSH3 0x5E0 JUMP JUMPDEST DUP6 PUSH1 0x0 MSTORE DUP5 PUSH1 0x1F DUP5 PUSH1 0x0 KECCAK256 SWAP3 ADD PUSH1 0x5 SHR DUP3 ADD SWAP2 PUSH1 0x1F DUP7 ADD PUSH1 0x5 SHR ADD JUMPDEST DUP3 DUP2 LT PUSH3 0x660 JUMPI POP POP PUSH3 0x58C JUMP JUMPDEST PUSH1 0x0 DUP2 SSTORE ADD DUP6 SWAP1 PUSH3 0x650 JUMP JUMPDEST SWAP1 PUSH1 0x7F AND SWAP1 PUSH3 0x579 JUMP INVALID PUSH1 0xC0 PUSH1 0x40 MSTORE PUSH1 0x4 CALLDATASIZE LT ISZERO PUSH2 0x12 JUMPI PUSH1 0x0 DUP1 REVERT JUMPDEST PUSH1 0x0 PUSH1 0xA0 MSTORE PUSH1 0x0 CALLDATALOAD PUSH1 0xE0 SHR DUP1 PUSH4 0x11DFCA5D EQ PUSH2 0x14A9 JUMPI DUP1 PUSH4 0x31E2A65C EQ PUSH2 0x1484 JUMPI DUP1 PUSH4 0x5F5443A5 EQ PUSH2 0x1324 JUMPI DUP1 PUSH4 0x715018A6 EQ PUSH2 0x12C5 JUMPI DUP1 PUSH4 0x78AF1D55 EQ PUSH2 0xEDE JUMPI DUP1 PUSH4 0x7ECEBE00 EQ PUSH2 0xEA2 JUMPI DUP1 PUSH4 0x83302A6F EQ PUSH2 0xE14 JUMPI DUP1 PUSH4 0x84B0196E EQ PUSH2 0xD06 JUMPI DUP1 PUSH4 0x8DA5CB5B EQ PUSH2 0xCDD JUMPI DUP1 PUSH4 0x91F12218 EQ PUSH2 0xCA1 JUMPI DUP1 PUSH4 0x9E281A98 EQ PUSH2 0xC1D JUMPI DUP1 PUSH4 0xA275D666 EQ PUSH2 0x50F JUMPI DUP1 PUSH4 0xC6255626 EQ PUSH2 0x497 JUMPI DUP1 PUSH4 0xC9325D6C EQ PUSH2 0x439 JUMPI DUP1 PUSH4 0xD3C7C2C7 EQ PUSH2 0x2D1 JUMPI DUP1 PUSH4 0xE83D086F EQ PUSH2 0x294 JUMPI DUP1 PUSH4 0xEF1774A2 EQ PUSH2 0x274 JUMPI DUP1 PUSH4 0xF2FDE38B EQ PUSH2 0x1A7 JUMPI DUP1 PUSH4 0xF6954A13 EQ PUSH2 0x14D JUMPI PUSH4 0xF98D06F0 EQ PUSH2 0xFD JUMPI PUSH1 0x0 DUP1 REVERT JUMPDEST CALLVALUE PUSH2 0x147 JUMPI PUSH1 0xA0 MLOAD DUP1 PUSH1 0x3 NOT CALLDATASIZE ADD SLT PUSH2 0x144 JUMPI PUSH1 0x40 MLOAD PUSH32 0x0 PUSH1 0x1 PUSH1 0x1 PUSH1 0xA0 SHL SUB AND DUP2 MSTORE PUSH1 0x20 SWAP1 RETURN JUMPDEST DUP1 REVERT JUMPDEST PUSH1 0xA0 MLOAD DUP1 REVERT JUMPDEST PUSH1 0xA0 MLOAD DUP1 PUSH1 0x3 NOT CALLDATASIZE ADD SLT PUSH2 0x144 JUMPI PUSH2 0x163 PUSH2 0x171A JUMP JUMPDEST CALLVALUE ISZERO PUSH2 0x16F JUMPI PUSH1 0xA0 MLOAD DUP1 RETURN JUMPDEST PUSH1 0x40 MLOAD PUSH3 0x461BCD PUSH1 0xE5 SHL DUP2 MSTORE PUSH1 0x20 PUSH1 0x4 DUP3 ADD MSTORE PUSH1 0x10 PUSH1 0x24 DUP3 ADD MSTORE PUSH16 0x4D757374206465706F736974203E203 PUSH1 0x84 SHL PUSH1 0x44 DUP3 ADD MSTORE PUSH1 0x64 SWAP1 REVERT JUMPDEST CALLVALUE PUSH2 0x147 JUMPI PUSH1 0x20 CALLDATASIZE PUSH1 0x3 NOT ADD SLT PUSH2 0x147 JUMPI PUSH2 0x1C0 PUSH2 0x151F JUMP JUMPDEST PUSH2 0x1C8 PUSH2 0x171A JUMP JUMPDEST PUSH1 0x1 PUSH1 0x1 PUSH1 0xA0 SHL SUB SWAP1 DUP2 AND SWAP1 DUP2 ISZERO PUSH2 0x220 JUMPI PUSH1 0x0 SLOAD DUP3 PUSH12 0xFFFFFFFFFFFFFFFFFFFFFFFF PUSH1 0xA0 SHL DUP3 AND OR PUSH1 0x0 SSTORE AND PUSH32 0x8BE0079C531659141344CD1FD0A4F28419497F9722A3DAAFE3B4186F6B6457E0 PUSH1 0x0 DUP1 LOG3 PUSH1 0xA0 MLOAD DUP1 RETURN JUMPDEST PUSH1 0x40 MLOAD PUSH3 0x461BCD PUSH1 0xE5 SHL DUP2 MSTORE PUSH1 0x20 PUSH1 0x4 DUP3 ADD MSTORE PUSH1 0x26 PUSH1 0x24 DUP3 ADD MSTORE PUSH32 0x4F776E61626C653A206E6577206F776E657220697320746865207A65726F2061 PUSH1 0x44 DUP3 ADD MSTORE PUSH6 0x646472657373 PUSH1 0xD0 SHL PUSH1 0x64 DUP3 ADD MSTORE PUSH1 0x84 SWAP1 REVERT JUMPDEST CALLVALUE PUSH2 0x147 JUMPI PUSH1 0xA0 MLOAD DUP1 PUSH1 0x3 NOT CALLDATASIZE ADD SLT PUSH2 0x144 JUMPI PUSH1 0x20 PUSH1 0x8 SLOAD PUSH1 0x40 MLOAD SWAP1 DUP2 MSTORE RETURN JUMPDEST CALLVALUE PUSH2 0x147 JUMPI PUSH1 0xA0 MLOAD DUP1 PUSH1 0x3 NOT CALLDATASIZE ADD SLT PUSH2 0x144 JUMPI PUSH1 0x20 PUSH1 0x40 MLOAD PUSH32 0x0 DUP2 MSTORE RETURN JUMPDEST CALLVALUE PUSH2 0x147 JUMPI PUSH1 0xA0 MLOAD DUP1 PUSH1 0x3 NOT CALLDATASIZE ADD SLT PUSH2 0x144 JUMPI PUSH1 0x4 SLOAD PUSH1 0x1 PUSH1 0x1 PUSH1 0x40 SHL SUB DUP2 GT PUSH2 0x423 JUMPI PUSH1 0x40 MLOAD SWAP1 PUSH1 0x20 SWAP1 PUSH2 0x30B DUP3 DUP3 PUSH1 0x5 SHL ADD DUP5 PUSH2 0x16F9 JUMP JUMPDEST DUP1 DUP4 MSTORE DUP2 DUP4 ADD SWAP1 DUP2 PUSH1 0x4 PUSH1 0xA0 MLOAD MSTORE PUSH32 0x8A35ACFBC15FF81A39AE7D344FD709F28E8600B4AA8C65C6B64BFE7FE36BD19B PUSH1 0xA0 MLOAD SWAP2 JUMPDEST DUP4 DUP4 LT PUSH2 0x3CA JUMPI POP POP POP POP PUSH1 0x40 MLOAD SWAP2 DUP1 DUP4 ADD SWAP4 DUP2 DUP5 MSTORE MLOAD DUP1 SWAP5 MSTORE PUSH1 0x40 DUP4 ADD SWAP4 PUSH1 0x40 DUP2 PUSH1 0x5 SHL DUP6 ADD ADD SWAP3 SWAP2 PUSH1 0xA0 MLOAD SWAP6 JUMPDEST DUP3 DUP8 LT PUSH2 0x37B JUMPI DUP6 DUP6 SUB DUP7 RETURN JUMPDEST SWAP1 SWAP2 SWAP3 SWAP4 DUP3 DUP1 PUSH1 0x1 SWAP3 PUSH1 0x3F NOT DUP10 DUP3 SUB ADD DUP6 MSTORE DUP8 MLOAD SWAP1 DUP5 DUP1 PUSH1 0xA0 SHL SUB DUP3 MLOAD AND DUP2 MSTORE PUSH1 0x40 DUP1 PUSH2 0x3B4 DUP6 DUP6 ADD MLOAD PUSH1 0x60 DUP1 DUP9 DUP8 ADD MSTORE DUP6 ADD SWAP1 PUSH2 0x1562 JUMP JUMPDEST SWAP4 ADD MLOAD SWAP2 ADD MSTORE SWAP7 ADD SWAP3 ADD SWAP7 ADD SWAP6 SWAP3 SWAP2 SWAP1 SWAP3 PUSH2 0x36E JUMP JUMPDEST PUSH1 0x3 DUP7 PUSH1 0x1 SWAP3 PUSH1 0x40 SWAP10 SWAP9 SWAP10 MLOAD PUSH2 0x3DF DUP2 PUSH2 0x16C3 JUMP JUMPDEST DUP5 DUP1 PUSH1 0xA0 SHL SUB DUP7 SLOAD AND DUP2 MSTORE PUSH1 0x40 MLOAD PUSH2 0x404 DUP2 PUSH2 0x3FD DUP2 DUP10 DUP12 ADD PUSH2 0x162D JUMP JUMPDEST SUB DUP3 PUSH2 0x16F9 JUMP JUMPDEST DUP4 DUP3 ADD MSTORE PUSH1 0x2 DUP7 ADD SLOAD PUSH1 0x40 DUP3 ADD MSTORE DUP2 MSTORE ADD SWAP3 ADD SWAP3 ADD SWAP2 SWAP1 SWAP6 SWAP5 SWAP6 PUSH2 0x33F JUMP JUMPDEST PUSH4 0x4E487B71 PUSH1 0xE0 SHL PUSH1 0x0 MSTORE PUSH1 0x41 PUSH1 0x4 MSTORE PUSH1 0x24 PUSH1 0x0 REVERT JUMPDEST CALLVALUE PUSH2 0x147 JUMPI PUSH1 0x20 CALLDATASIZE PUSH1 0x3 NOT ADD SLT PUSH2 0x147 JUMPI PUSH1 0x1 PUSH1 0x1 PUSH1 0xA0 SHL SUB PUSH2 0x45A PUSH2 0x151F JUMP JUMPDEST AND PUSH1 0xA0 MLOAD MSTORE PUSH1 0x6 PUSH1 0x20 MSTORE PUSH2 0x493 PUSH2 0x3FD PUSH2 0x47F PUSH1 0x40 PUSH1 0xA0 MLOAD KECCAK256 PUSH1 0x40 MLOAD SWAP3 DUP4 DUP1 SWAP3 PUSH2 0x162D JUMP JUMPDEST PUSH1 0x40 MLOAD SWAP2 DUP3 SWAP2 PUSH1 0x20 DUP4 MSTORE PUSH1 0x20 DUP4 ADD SWAP1 PUSH2 0x1562 JUMP JUMPDEST SUB SWAP1 RETURN JUMPDEST CALLVALUE PUSH2 0x147 JUMPI PUSH1 0x20 CALLDATASIZE PUSH1 0x3 NOT ADD SLT PUSH2 0x147 JUMPI PUSH1 0x4 CALLDATALOAD PUSH1 0x4 SLOAD DUP2 LT ISZERO PUSH2 0x147 JUMPI PUSH2 0x4BE SWAP1 PUSH2 0x15A2 JUMP JUMPDEST POP PUSH1 0x1 DUP1 PUSH1 0xA0 SHL SUB DUP2 SLOAD AND PUSH1 0x2 PUSH1 0x40 MLOAD SWAP3 PUSH2 0x4E7 DUP5 PUSH2 0x4E0 DUP2 PUSH1 0x1 DUP6 ADD PUSH2 0x162D JUMP JUMPDEST SUB DUP6 PUSH2 0x16F9 JUMP JUMPDEST ADD SLOAD PUSH2 0x505 PUSH1 0x40 MLOAD SWAP4 DUP5 SWAP4 DUP5 MSTORE PUSH1 0x60 PUSH1 0x20 DUP6 ADD MSTORE PUSH1 0x60 DUP5 ADD SWAP1 PUSH2 0x1562 JUMP JUMPDEST SWAP1 PUSH1 0x40 DUP4 ADD MSTORE SUB SWAP1 RETURN JUMPDEST PUSH1 0xE0 CALLDATASIZE PUSH1 0x3 NOT ADD SLT PUSH2 0x147 JUMPI PUSH2 0x523 PUSH2 0x151F JUMP JUMPDEST PUSH1 0x24 CALLDATALOAD PUSH1 0x1 PUSH1 0x1 PUSH1 0xA0 SHL SUB DUP2 AND SWAP1 SUB PUSH2 0x147 JUMPI PUSH1 0x84 CALLDATALOAD PUSH1 0x1 PUSH1 0x1 PUSH1 0x40 SHL SUB DUP2 GT PUSH2 0x147 JUMPI PUSH2 0x555 SWAP1 CALLDATASIZE SWAP1 PUSH1 0x4 ADD PUSH2 0x1535 JUMP JUMPDEST SWAP1 PUSH1 0x1 PUSH1 0x1 PUSH1 0x40 SHL SUB PUSH1 0xA4 CALLDATALOAD GT PUSH2 0x147 JUMPI CALLDATASIZE PUSH1 0x23 PUSH1 0xA4 CALLDATALOAD ADD SLT ISZERO PUSH2 0x147 JUMPI PUSH1 0x1 PUSH1 0x1 PUSH1 0x40 SHL SUB PUSH1 0xA4 CALLDATALOAD PUSH1 0x4 ADD CALLDATALOAD GT PUSH2 0x147 JUMPI CALLDATASIZE PUSH1 0x24 PUSH1 0xA4 CALLDATALOAD PUSH1 0x4 ADD CALLDATALOAD PUSH1 0x5 SHL PUSH1 0xA4 CALLDATALOAD ADD ADD GT PUSH2 0x147 JUMPI PUSH4 0xFFFFFFFF PUSH1 0xC4 CALLDATALOAD AND PUSH1 0xC4 CALLDATALOAD SUB PUSH2 0x147 JUMPI PUSH2 0x5B7 PUSH2 0x1B84 JUMP JUMPDEST PUSH1 0x64 CALLDATALOAD TIMESTAMP GT PUSH2 0xBE4 JUMPI PUSH1 0xA0 DUP1 MLOAD PUSH1 0x24 CALLDATALOAD PUSH1 0x1 PUSH1 0x1 PUSH1 0xA0 SHL SUB AND SWAP1 MSTORE PUSH1 0x5 PUSH1 0x20 MSTORE MLOAD PUSH1 0x40 SWAP1 KECCAK256 SLOAD PUSH2 0x5E8 SWAP1 ISZERO ISZERO PUSH2 0x19EF JUMP JUMPDEST PUSH1 0x1 DUP1 PUSH1 0xA0 SHL SUB DUP4 AND PUSH1 0xA0 MLOAD MSTORE PUSH1 0x7 PUSH1 0x20 MSTORE PUSH1 0x40 PUSH1 0xA0 MLOAD KECCAK256 SLOAD SWAP2 PUSH1 0x40 MLOAD SWAP3 PUSH32 0x7F6F794C7FCB551753890B40C47E50CA6B3742713F342E7827073A27F687F46 PUSH1 0x20 DUP6 ADD MSTORE PUSH1 0x1 DUP1 PUSH1 0xA0 SHL SUB DUP6 AND PUSH1 0x40 DUP6 ADD MSTORE PUSH1 0x1 DUP1 PUSH1 0xA0 SHL SUB PUSH1 0x24 CALLDATALOAD AND PUSH1 0x60 DUP6 ADD MSTORE PUSH1 0x44 CALLDATALOAD PUSH1 0x80 DUP6 ADD MSTORE PUSH1 0xA0 DUP5 ADD MSTORE PUSH1 0x64 CALLDATALOAD PUSH1 0xC0 DUP5 ADD MSTORE PUSH1 0xC0 DUP4 MSTORE DUP3 PUSH1 0xE0 DUP2 ADD LT PUSH1 0x1 PUSH1 0x1 PUSH1 0x40 SHL SUB PUSH1 0xE0 DUP6 ADD GT OR PUSH2 0xB03 JUMPI PUSH2 0x6BE PUSH2 0x6C4 SWAP3 PUSH1 0x42 DUP6 PUSH1 0xE0 PUSH2 0x6CC SWAP8 ADD PUSH1 0x40 MSTORE PUSH1 0x20 DUP2 MLOAD SWAP2 ADD KECCAK256 PUSH2 0x69E PUSH2 0x1F81 JUMP JUMPDEST SWAP1 PUSH1 0x40 MLOAD SWAP2 PUSH2 0x1901 PUSH1 0xF0 SHL DUP4 MSTORE PUSH1 0x2 DUP4 ADD MSTORE PUSH1 0x22 DUP3 ADD MSTORE KECCAK256 SWAP3 CALLDATASIZE SWAP2 PUSH2 0x1943 JUMP JUMPDEST SWAP1 PUSH2 0x1EBA JUMP JUMPDEST SWAP2 SWAP1 SWAP2 PUSH2 0x1DA0 JUMP JUMPDEST PUSH1 0x1 PUSH1 0x1 PUSH1 0xA0 SHL SUB DUP3 DUP2 AND SWAP2 AND SUB PUSH2 0xBAB JUMPI PUSH1 0xA0 DUP1 MLOAD PUSH1 0x1 PUSH1 0x1 PUSH1 0xA0 SHL SUB DUP4 AND SWAP1 MSTORE PUSH1 0x7 PUSH1 0x20 MSTORE MLOAD PUSH1 0x40 DUP2 KECCAK256 DUP1 SLOAD SWAP1 SWAP2 PUSH1 0x0 NOT DUP3 EQ PUSH2 0xB94 JUMPI POP PUSH1 0x1 ADD SWAP1 SSTORE PUSH1 0x40 MLOAD SWAP1 PUSH4 0xD47EED45 PUSH1 0xE0 SHL DUP3 MSTORE PUSH1 0x20 DUP3 DUP1 PUSH2 0x736 PUSH1 0xA4 CALLDATALOAD PUSH1 0x4 ADD CALLDATALOAD PUSH1 0x24 PUSH1 0xA4 CALLDATALOAD ADD PUSH1 0x4 DUP5 ADD PUSH2 0x1A33 JUMP JUMPDEST SUB DUP2 PUSH32 0x0 PUSH1 0x1 PUSH1 0x1 PUSH1 0xA0 SHL SUB AND GAS STATICCALL SWAP2 DUP3 ISZERO PUSH2 0xAC0 JUMPI PUSH1 0xA0 MLOAD SWAP3 PUSH2 0xB60 JUMPI JUMPDEST POP DUP2 CALLVALUE LT PUSH2 0xB1B JUMPI PUSH32 0x0 PUSH1 0x1 PUSH1 0x1 PUSH1 0xA0 SHL SUB AND EXTCODESIZE ISZERO PUSH2 0x147 JUMPI PUSH1 0x40 MLOAD PUSH4 0x1DF3CBC5 PUSH1 0xE3 SHL DUP2 MSTORE PUSH1 0xA0 MLOAD DUP2 DUP1 PUSH2 0x7D7 PUSH1 0xA4 CALLDATALOAD PUSH1 0x4 ADD CALLDATALOAD PUSH1 0x24 PUSH1 0xA4 CALLDATALOAD ADD PUSH1 0x4 DUP5 ADD PUSH2 0x1A33 JUMP JUMPDEST SUB DUP2 DUP7 PUSH32 0x0 PUSH1 0x1 PUSH1 0x1 PUSH1 0xA0 SHL SUB AND GAS CALL DUP1 ISZERO PUSH2 0xAC0 JUMPI PUSH2 0xAEC JUMPI JUMPDEST POP PUSH1 0x1 DUP1 PUSH1 0xA0 SHL SUB PUSH1 0x24 CALLDATALOAD AND PUSH1 0xA0 MLOAD MSTORE PUSH1 0x5 PUSH1 0x20 MSTORE PUSH1 0x40 PUSH1 0xA0 MLOAD KECCAK256 SLOAD PUSH1 0x40 MLOAD PUSH1 0x80 DUP2 DUP1 PUSH2 0x863 PUSH4 0x52571AF PUSH1 0xE5 SHL SWAP6 DUP7 DUP4 MSTORE PUSH1 0xC4 CALLDATALOAD SWAP1 PUSH1 0x4 DUP5 ADD SWAP1 SWAP3 SWAP2 PUSH4 0xFFFFFFFF PUSH1 0x20 SWAP2 PUSH1 0x40 DUP5 ADD SWAP6 DUP5 MSTORE AND SWAP2 ADD MSTORE JUMP JUMPDEST SUB DUP2 PUSH32 0x0 PUSH1 0x1 PUSH1 0x1 PUSH1 0xA0 SHL SUB AND GAS STATICCALL SWAP1 DUP2 ISZERO PUSH2 0xAC0 JUMPI PUSH1 0xA0 MLOAD SWAP2 PUSH2 0xACD JUMPI JUMPDEST POP PUSH1 0x40 MLOAD SWAP2 DUP3 MSTORE PUSH32 0x0 PUSH1 0x4 DUP4 ADD MSTORE PUSH1 0xC4 CALLDATALOAD PUSH4 0xFFFFFFFF AND PUSH1 0x24 DUP4 ADD MSTORE PUSH1 0x80 DUP3 PUSH1 0x44 DUP2 PUSH1 0x1 PUSH1 0x1 PUSH1 0xA0 SHL SUB PUSH32 0x0 AND GAS STATICCALL SWAP1 DUP2 ISZERO PUSH2 0xAC0 JUMPI PUSH2 0x92E SWAP3 PUSH1 0xA0 MLOAD SWAP3 PUSH2 0xA8F JUMPI JUMPDEST POP PUSH1 0x44 CALLDATALOAD PUSH1 0x24 CALLDATALOAD PUSH2 0x2128 JUMP JUMPDEST PUSH2 0x2710 PUSH2 0x93D PUSH1 0x8 SLOAD DUP4 PUSH2 0x1B2E JUMP JUMPDEST DIV SWAP3 PUSH2 0x949 DUP5 DUP4 PUSH2 0x1B77 JUMP JUMPDEST SWAP2 SELFBALANCE LT PUSH2 0xA4A JUMPI PUSH1 0x40 MLOAD SWAP1 PUSH4 0x23B872DD PUSH1 0xE0 SHL PUSH1 0x20 DUP4 ADD MSTORE PUSH1 0x1 DUP1 PUSH1 0xA0 SHL SUB DUP5 AND PUSH1 0x24 DUP4 ADD MSTORE ADDRESS PUSH1 0x44 DUP4 ADD MSTORE PUSH1 0x44 CALLDATALOAD PUSH1 0x64 DUP4 ADD MSTORE PUSH1 0x64 DUP3 MSTORE PUSH1 0xA0 DUP3 ADD DUP3 DUP2 LT PUSH1 0x1 PUSH1 0x1 PUSH1 0x40 SHL SUB DUP3 GT OR PUSH2 0x423 JUMPI PUSH1 0x40 MSTORE PUSH2 0x9C9 SWAP2 PUSH2 0x9B3 SWAP1 PUSH1 0x24 CALLDATALOAD PUSH1 0x1 PUSH1 0x1 PUSH1 0xA0 SHL SUB AND PUSH2 0x1BDA JUMP JUMPDEST PUSH2 0x9BD DUP4 DUP6 PUSH2 0x20AB JUMP JUMPDEST DUP5 PUSH2 0xA3B JUMPI JUMPDEST CALLVALUE PUSH2 0x1B77 JUMP JUMPDEST DUP1 PUSH2 0xA2B JUMPI JUMPDEST POP PUSH1 0x40 DUP1 MLOAD PUSH1 0x44 CALLDATALOAD DUP2 MSTORE PUSH1 0x20 DUP2 ADD SWAP3 SWAP1 SWAP3 MSTORE DUP2 ADD SWAP3 SWAP1 SWAP3 MSTORE PUSH1 0x1 PUSH1 0x1 PUSH1 0xA0 SHL SUB PUSH1 0x24 CALLDATALOAD DUP2 AND SWAP3 CALLER SWAP3 SWAP1 SWAP2 AND SWAP1 PUSH32 0x6EFCED4ED44FB06EAED2FFEC26C5392C1B03A2BA58CA72E7AF5B738826CD4CEC SWAP1 PUSH1 0x60 SWAP1 LOG4 PUSH1 0x1 DUP1 SSTORE PUSH1 0xA0 MLOAD DUP1 RETURN JUMPDEST PUSH2 0xA35 SWAP1 CALLER PUSH2 0x20AB JUMP JUMPDEST DUP4 PUSH2 0x9CF JUMP JUMPDEST PUSH2 0xA45 DUP6 CALLER PUSH2 0x20AB JUMP JUMPDEST PUSH2 0x9C3 JUMP JUMPDEST PUSH1 0x40 MLOAD PUSH3 0x461BCD PUSH1 0xE5 SHL DUP2 MSTORE PUSH1 0x20 PUSH1 0x4 DUP3 ADD MSTORE PUSH1 0x1C PUSH1 0x24 DUP3 ADD MSTORE PUSH32 0x496E73756666696369656E742043465820696E20636F6E747261637400000000 PUSH1 0x44 DUP3 ADD MSTORE PUSH1 0x64 SWAP1 REVERT JUMPDEST PUSH2 0xAB2 SWAP2 SWAP3 POP PUSH1 0x80 RETURNDATASIZE PUSH1 0x80 GT PUSH2 0xAB9 JUMPI JUMPDEST PUSH2 0xAAA DUP2 DUP4 PUSH2 0x16F9 JUMP JUMPDEST DUP2 ADD SWAP1 PUSH2 0x1AC2 JUMP JUMPDEST SWAP1 DUP6 PUSH2 0x922 JUMP JUMPDEST POP RETURNDATASIZE PUSH2 0xAA0 JUMP JUMPDEST PUSH1 0x40 MLOAD RETURNDATASIZE PUSH1 0xA0 MLOAD DUP3 RETURNDATACOPY RETURNDATASIZE SWAP1 REVERT JUMPDEST PUSH2 0xAE6 SWAP2 POP PUSH1 0x80 RETURNDATASIZE PUSH1 0x80 GT PUSH2 0xAB9 JUMPI PUSH2 0xAAA DUP2 DUP4 PUSH2 0x16F9 JUMP JUMPDEST DUP5 PUSH2 0x8A1 JUMP JUMPDEST PUSH1 0x1 PUSH1 0x1 PUSH1 0x40 SHL SUB DUP2 GT PUSH2 0xB03 JUMPI PUSH1 0x40 MSTORE DUP3 PUSH2 0x811 JUMP JUMPDEST PUSH4 0x4E487B71 PUSH1 0xE0 SHL PUSH1 0xA0 MLOAD MSTORE PUSH1 0x41 PUSH1 0x4 MSTORE PUSH1 0x24 PUSH1 0xA0 MLOAD REVERT JUMPDEST PUSH1 0x40 MLOAD PUSH3 0x461BCD PUSH1 0xE5 SHL DUP2 MSTORE PUSH1 0x20 PUSH1 0x4 DUP3 ADD MSTORE PUSH1 0x1C PUSH1 0x24 DUP3 ADD MSTORE PUSH32 0x496E73756666696369656E742050797468207570646174652066656500000000 PUSH1 0x44 DUP3 ADD MSTORE PUSH1 0x64 SWAP1 REVERT JUMPDEST SWAP1 SWAP2 POP PUSH1 0x20 DUP2 RETURNDATASIZE PUSH1 0x20 GT PUSH2 0xB8C JUMPI JUMPDEST DUP2 PUSH2 0xB7C PUSH1 0x20 SWAP4 DUP4 PUSH2 0x16F9 JUMP JUMPDEST DUP2 ADD SUB SLT PUSH2 0x147 JUMPI MLOAD SWAP1 DUP3 PUSH2 0x774 JUMP JUMPDEST RETURNDATASIZE SWAP2 POP PUSH2 0xB6F JUMP JUMPDEST PUSH4 0x4E487B71 PUSH1 0xE0 SHL SWAP1 MSTORE PUSH1 0x11 PUSH1 0x4 MSTORE PUSH1 0xA0 MLOAD PUSH1 0x24 SWAP1 REVERT JUMPDEST PUSH1 0x40 MLOAD PUSH3 0x461BCD PUSH1 0xE5 SHL DUP2 MSTORE PUSH1 0x20 PUSH1 0x4 DUP3 ADD MSTORE PUSH1 0x11 PUSH1 0x24 DUP3 ADD MSTORE PUSH17 0x496E76616C6964207369676E6174757265 PUSH1 0x78 SHL PUSH1 0x44 DUP3 ADD MSTORE PUSH1 0x64 SWAP1 REVERT JUMPDEST PUSH1 0x40 MLOAD PUSH3 0x461BCD PUSH1 0xE5 SHL DUP2 MSTORE PUSH1 0x20 PUSH1 0x4 DUP3 ADD MSTORE PUSH1 0x11 PUSH1 0x24 DUP3 ADD MSTORE PUSH17 0x14DA59DB985D1D5C9948195E1C1A5C9959 PUSH1 0x7A SHL PUSH1 0x44 DUP3 ADD MSTORE PUSH1 0x64 SWAP1 REVERT JUMPDEST CALLVALUE PUSH2 0x147 JUMPI PUSH1 0x40 CALLDATASIZE PUSH1 0x3 NOT ADD SLT PUSH2 0x147 JUMPI PUSH2 0xC36 PUSH2 0x151F JUMP JUMPDEST PUSH2 0xC3E PUSH2 0x171A JUMP JUMPDEST PUSH2 0xC46 PUSH2 0x1B84 JUMP JUMPDEST PUSH1 0x40 MLOAD PUSH4 0xA9059CBB PUSH1 0xE0 SHL PUSH1 0x20 DUP3 ADD MSTORE CALLER PUSH1 0x24 DUP3 ADD MSTORE PUSH1 0x24 CALLDATALOAD PUSH1 0x44 DUP3 ADD MSTORE PUSH1 0x44 DUP2 MSTORE PUSH1 0x80 DUP2 ADD SWAP2 DUP2 DUP4 LT PUSH1 0x1 PUSH1 0x1 PUSH1 0x40 SHL SUB DUP5 GT OR PUSH2 0xB03 JUMPI PUSH1 0x40 SWAP3 SWAP1 SWAP3 MSTORE PUSH2 0xC97 SWAP2 PUSH1 0x1 PUSH1 0x1 PUSH1 0xA0 SHL SUB AND PUSH2 0x1BDA JUMP JUMPDEST PUSH1 0x1 DUP1 SSTORE PUSH1 0xA0 MLOAD DUP1 RETURN JUMPDEST CALLVALUE PUSH2 0x147 JUMPI PUSH1 0x20 CALLDATASIZE PUSH1 0x3 NOT ADD SLT PUSH2 0x147 JUMPI PUSH1 0x1 PUSH1 0x1 PUSH1 0xA0 SHL SUB PUSH2 0xCC2 PUSH2 0x151F JUMP JUMPDEST AND PUSH1 0xA0 MLOAD MSTORE PUSH1 0x5 PUSH1 0x20 MSTORE PUSH1 0x20 PUSH1 0x40 PUSH1 0xA0 MLOAD KECCAK256 SLOAD PUSH1 0x40 MLOAD SWAP1 DUP2 MSTORE RETURN JUMPDEST CALLVALUE PUSH2 0x147 JUMPI PUSH1 0xA0 MLOAD DUP1 PUSH1 0x3 NOT CALLDATASIZE ADD SLT PUSH2 0x144 JUMPI SLOAD PUSH1 0x40 MLOAD PUSH1 0x1 PUSH1 0x1 PUSH1 0xA0 SHL SUB SWAP1 SWAP2 AND DUP2 MSTORE PUSH1 0x20 SWAP1 RETURN JUMPDEST CALLVALUE PUSH2 0x147 JUMPI PUSH1 0xA0 MLOAD DUP1 PUSH1 0x3 NOT CALLDATASIZE ADD SLT PUSH2 0x144 JUMPI PUSH2 0xD42 PUSH32 0x0 PUSH2 0x1772 JUMP JUMPDEST PUSH2 0xD6B PUSH32 0x0 PUSH2 0x186E JUMP JUMPDEST PUSH1 0x40 MLOAD PUSH1 0x20 DUP1 DUP3 ADD SWAP3 DUP3 DUP5 LT PUSH1 0x1 PUSH1 0x1 PUSH1 0x40 SHL SUB DUP6 GT OR PUSH2 0xB03 JUMPI SWAP2 DUP2 PUSH2 0xDC5 DUP6 SWAP5 PUSH2 0xDB7 SWAP8 SWAP7 PUSH1 0x40 MSTORE PUSH1 0xA0 MLOAD DUP5 MSTORE PUSH1 0x40 MLOAD SWAP8 DUP9 SWAP8 PUSH1 0xF PUSH1 0xF8 SHL DUP10 MSTORE PUSH1 0xE0 DUP6 DUP11 ADD MSTORE PUSH1 0xE0 DUP10 ADD SWAP1 PUSH2 0x1562 JUMP JUMPDEST SWAP1 DUP8 DUP3 SUB PUSH1 0x40 DUP10 ADD MSTORE PUSH2 0x1562 JUMP JUMPDEST SWAP2 CHAINID PUSH1 0x60 DUP8 ADD MSTORE ADDRESS PUSH1 0x80 DUP8 ADD MSTORE PUSH1 0xA0 MLOAD PUSH1 0xA0 DUP8 ADD MSTORE DUP6 DUP4 SUB PUSH1 0xC0 DUP8 ADD MSTORE MLOAD SWAP2 DUP3 DUP2 MSTORE ADD SWAP3 SWAP2 PUSH1 0xA0 MLOAD JUMPDEST DUP3 DUP2 LT PUSH2 0xDFD JUMPI POP POP POP POP SUB SWAP1 RETURN JUMPDEST DUP4 MLOAD DUP6 MSTORE DUP7 SWAP6 POP SWAP4 DUP2 ADD SWAP4 SWAP3 DUP2 ADD SWAP3 PUSH1 0x1 ADD PUSH2 0xDEE JUMP JUMPDEST CALLVALUE PUSH2 0x147 JUMPI PUSH1 0x20 CALLDATASIZE PUSH1 0x3 NOT ADD SLT PUSH2 0x147 JUMPI PUSH1 0x4 CALLDATALOAD PUSH2 0xE30 PUSH2 0x171A JUMP JUMPDEST PUSH2 0x3E8 DUP2 GT PUSH2 0xE6E JUMPI PUSH1 0x20 DUP2 PUSH32 0x33E1D5145944D624B86865712FC54C442CDFDEEBF537007CB7809BCCB0126DA5 SWAP3 PUSH1 0x8 SSTORE PUSH1 0x40 MLOAD SWAP1 DUP2 MSTORE LOG1 PUSH1 0xA0 MLOAD DUP1 RETURN JUMPDEST PUSH1 0x40 MLOAD PUSH3 0x461BCD PUSH1 0xE5 SHL DUP2 MSTORE PUSH1 0x20 PUSH1 0x4 DUP3 ADD MSTORE PUSH1 0xC PUSH1 0x24 DUP3 ADD MSTORE PUSH12 0x8CCACA40E8DEDE40D0D2CED PUSH1 0xA3 SHL PUSH1 0x44 DUP3 ADD MSTORE PUSH1 0x64 SWAP1 REVERT JUMPDEST CALLVALUE PUSH2 0x147 JUMPI PUSH1 0x20 CALLDATASIZE PUSH1 0x3 NOT ADD SLT PUSH2 0x147 JUMPI PUSH1 0x1 PUSH1 0x1 PUSH1 0xA0 SHL SUB PUSH2 0xEC3 PUSH2 0x151F JUMP JUMPDEST AND PUSH1 0xA0 MLOAD MSTORE PUSH1 0x7 PUSH1 0x20 MSTORE PUSH1 0x20 PUSH1 0x40 PUSH1 0xA0 MLOAD KECCAK256 SLOAD PUSH1 0x40 MLOAD SWAP1 DUP2 MSTORE RETURN JUMPDEST CALLVALUE PUSH2 0x147 JUMPI PUSH1 0x60 CALLDATASIZE PUSH1 0x3 NOT ADD SLT PUSH2 0x147 JUMPI PUSH2 0xEF7 PUSH2 0x151F JUMP JUMPDEST PUSH1 0x24 DUP1 CALLDATALOAD SWAP2 PUSH1 0x1 PUSH1 0x1 PUSH1 0x40 SHL SUB SWAP3 DUP4 DUP2 GT PUSH2 0x147 JUMPI PUSH2 0xF1A SWAP1 CALLDATASIZE SWAP1 PUSH1 0x4 ADD PUSH2 0x1535 JUMP JUMPDEST SWAP1 SWAP2 PUSH1 0x44 CALLDATALOAD PUSH2 0xF27 PUSH2 0x171A JUMP JUMPDEST DUP1 ISZERO PUSH2 0x128F JUMPI PUSH1 0x1 PUSH1 0x1 PUSH1 0xA0 SHL SUB SWAP2 DUP3 AND SWAP5 DUP6 ISZERO PUSH2 0x1253 JUMPI DUP6 PUSH1 0xA0 MLOAD MSTORE PUSH1 0x20 SWAP3 PUSH1 0x5 DUP5 MSTORE PUSH1 0x40 PUSH1 0xA0 MLOAD KECCAK256 SLOAD PUSH2 0x1219 JUMPI PUSH1 0x40 MLOAD SWAP1 PUSH2 0xF63 DUP3 PUSH2 0x16C3 JUMP JUMPDEST DUP8 DUP3 MSTORE PUSH2 0xF71 CALLDATASIZE DUP8 DUP10 PUSH2 0x1943 JUMP JUMPDEST SWAP1 DUP6 DUP4 ADD SWAP2 DUP3 MSTORE PUSH1 0x40 DUP4 ADD SWAP1 DUP6 DUP3 MSTORE PUSH1 0x4 SLOAD PUSH9 0x10000000000000000 DUP2 LT ISZERO PUSH2 0x11EC JUMPI PUSH2 0xFA9 SWAP1 PUSH1 0x1 PUSH1 0x80 MSTORE PUSH1 0x1 DUP2 ADD PUSH1 0x4 SSTORE PUSH2 0x15A2 JUMP JUMPDEST SWAP5 SWAP1 SWAP5 PUSH2 0x1203 JUMPI MLOAD AND PUSH12 0xFFFFFFFFFFFFFFFFFFFFFFFF PUSH1 0xA0 SHL DUP5 SLOAD AND OR DUP4 SSTORE PUSH1 0x80 MLOAD DUP4 ADD SWAP2 MLOAD SWAP2 DUP3 MLOAD DUP12 DUP2 GT PUSH2 0x11EC JUMPI PUSH2 0xFED DUP2 PUSH2 0xFE7 DUP5 SLOAD PUSH2 0x15F3 JUMP JUMPDEST DUP5 PUSH2 0x197A JUMP JUMPDEST PUSH1 0xA0 MLOAD SWAP4 DUP9 SWAP5 PUSH1 0x1F DUP4 GT PUSH1 0x1 EQ PUSH2 0x117E JUMPI POP PUSH1 0x2 SWAP5 DUP3 SWAP2 PUSH1 0xA0 MLOAD SWAP3 PUSH2 0x1173 JUMPI JUMPDEST POP POP DUP2 PUSH1 0x1 SHL SWAP2 PUSH1 0x0 NOT SWAP1 PUSH1 0x3 SHL SHR NOT AND OR SWAP1 SSTORE JUMPDEST MLOAD SWAP2 ADD SSTORE DUP6 PUSH1 0xA0 MLOAD MSTORE PUSH1 0x5 DUP4 MSTORE PUSH1 0xA0 MLOAD DUP3 PUSH1 0x40 DUP3 KECCAK256 SSTORE PUSH1 0x6 DUP5 MSTORE PUSH1 0x40 DUP2 KECCAK256 SWAP8 DUP6 GT PUSH2 0x115F JUMPI POP POP PUSH2 0x105D DUP4 PUSH2 0x1057 DUP9 SLOAD PUSH2 0x15F3 JUMP JUMPDEST DUP9 PUSH2 0x197A JUMP JUMPDEST PUSH1 0xA0 MLOAD SWAP6 PUSH1 0x1F DUP5 GT PUSH1 0x1 EQ PUSH2 0x10DC JUMPI DUP4 PUSH32 0x7EE5B861AD236224C1FB776C839C3959F7A0903D4E4DCDE63306821C6FF60AA2 SWAP7 SWAP8 PUSH1 0xA0 MLOAD SWAP2 PUSH2 0x10D1 JUMPI JUMPDEST POP DUP5 PUSH1 0x1 SHL SWAP1 PUSH1 0x0 NOT DUP7 PUSH1 0x3 SHL SHR NOT AND OR SWAP1 SSTORE JUMPDEST PUSH2 0x10C4 PUSH1 0x40 MLOAD SWAP5 DUP6 SWAP5 PUSH1 0x40 DUP7 MSTORE PUSH1 0x40 DUP7 ADD SWAP2 PUSH2 0x19CE JUMP JUMPDEST SWAP2 DUP4 ADD MSTORE SUB SWAP1 LOG2 PUSH1 0xA0 MLOAD DUP1 RETURN JUMPDEST SWAP1 POP DUP6 ADD CALLDATALOAD DUP9 PUSH2 0x1099 JUMP JUMPDEST DUP1 DUP8 MSTORE PUSH1 0xA0 MLOAD DUP4 DUP2 KECCAK256 PUSH1 0x80 MLOAD PUSH1 0x1F NOT DUP8 AND SWAP10 SWAP1 SWAP3 JUMPDEST DUP11 DUP2 LT PUSH2 0x114A JUMPI POP DUP7 PUSH32 0x7EE5B861AD236224C1FB776C839C3959F7A0903D4E4DCDE63306821C6FF60AA2 SWAP10 SWAP11 LT PUSH2 0x1130 JUMPI JUMPDEST POP POP DUP5 DUP2 SHL ADD SWAP1 SSTORE PUSH2 0x10AD JUMP JUMPDEST DUP8 ADD CALLDATALOAD PUSH1 0x0 NOT PUSH1 0x3 DUP9 SWAP1 SHL PUSH1 0xF8 AND SHR NOT AND SWAP1 SSTORE DUP9 DUP1 PUSH2 0x1123 JUMP JUMPDEST DUP9 DUP3 ADD CALLDATALOAD DUP4 SSTORE SWAP2 DUP4 ADD SWAP2 SWAP1 DUP7 ADD SWAP1 DUP7 ADD PUSH2 0x10F1 JUMP JUMPDEST PUSH4 0x4E487B71 PUSH1 0xE0 SHL SWAP1 MSTORE PUSH1 0x41 PUSH1 0x4 MSTORE PUSH1 0xA0 MLOAD REVERT JUMPDEST ADD MLOAD SWAP1 POP DUP14 DUP1 PUSH2 0x100D JUMP JUMPDEST SWAP3 SWAP4 SWAP5 DUP5 PUSH1 0x1F NOT DUP5 AND SWAP5 MSTORE PUSH1 0xA0 MLOAD SWAP2 DUP11 DUP4 KECCAK256 SWAP3 SWAP5 PUSH1 0x80 MLOAD SWAP6 JUMPDEST DUP13 DUP3 DUP3 LT PUSH2 0x11D8 JUMPI POP POP SWAP1 DUP5 PUSH1 0x2 SWAP9 SWAP8 SWAP7 SWAP6 SWAP5 SWAP4 SWAP3 LT PUSH2 0x11BF JUMPI JUMPDEST POP POP POP DUP2 SHL ADD SWAP1 SSTORE PUSH2 0x1022 JUMP JUMPDEST ADD MLOAD PUSH1 0x0 NOT PUSH1 0xF8 DUP5 PUSH1 0x3 SHL AND SHR NOT AND SWAP1 SSTORE DUP14 DUP1 DUP1 PUSH2 0x11B2 JUMP JUMPDEST DUP4 DUP6 ADD MLOAD DUP7 SSTORE SWAP5 DUP8 ADD SWAP5 SWAP4 DUP5 ADD SWAP4 ADD PUSH2 0x1197 JUMP JUMPDEST DUP6 PUSH4 0x4E487B71 PUSH1 0xE0 SHL PUSH1 0xA0 MLOAD MSTORE PUSH1 0x41 PUSH1 0x4 MSTORE PUSH1 0xA0 MLOAD REVERT JUMPDEST DUP6 PUSH4 0x4E487B71 PUSH1 0xE0 SHL PUSH1 0xA0 MLOAD MSTORE PUSH1 0xA0 MLOAD DUP1 PUSH1 0x4 MSTORE REVERT JUMPDEST PUSH1 0x40 MLOAD PUSH3 0x461BCD PUSH1 0xE5 SHL DUP2 MSTORE PUSH1 0x4 DUP2 ADD DUP6 SWAP1 MSTORE PUSH1 0x13 DUP2 DUP5 ADD MSTORE PUSH19 0x151BDAD95B88185B1C9958591E481859191959 PUSH1 0x6A SHL PUSH1 0x44 DUP3 ADD MSTORE PUSH1 0x64 SWAP1 REVERT JUMPDEST PUSH1 0x64 SWAP1 PUSH1 0x15 PUSH1 0x40 MLOAD SWAP2 PUSH3 0x461BCD PUSH1 0xE5 SHL DUP4 MSTORE PUSH1 0x20 PUSH1 0x4 DUP5 ADD MSTORE DUP3 ADD MSTORE PUSH21 0x496E76616C696420746F6B656E2061646472657373 PUSH1 0x58 SHL PUSH1 0x44 DUP3 ADD MSTORE REVERT JUMPDEST PUSH1 0x40 MLOAD PUSH3 0x461BCD PUSH1 0xE5 SHL DUP2 MSTORE PUSH1 0x20 PUSH1 0x4 DUP3 ADD MSTORE PUSH1 0xF DUP2 DUP8 ADD MSTORE PUSH15 0x125B9D985B1A590819995959081251 PUSH1 0x8A SHL PUSH1 0x44 DUP3 ADD MSTORE PUSH1 0x64 SWAP1 REVERT JUMPDEST CALLVALUE PUSH2 0x147 JUMPI PUSH1 0xA0 MLOAD DUP1 PUSH1 0x3 NOT CALLDATASIZE ADD SLT PUSH2 0x144 JUMPI PUSH2 0x12E0 PUSH2 0x171A JUMP JUMPDEST PUSH1 0xA0 MLOAD DUP1 SLOAD PUSH1 0x1 PUSH1 0x1 PUSH1 0xA0 SHL SUB NOT DUP2 AND DUP3 SSTORE DUP2 SWAP1 PUSH1 0x1 PUSH1 0x1 PUSH1 0xA0 SHL SUB AND PUSH32 0x8BE0079C531659141344CD1FD0A4F28419497F9722A3DAAFE3B4186F6B6457E0 DUP3 DUP1 LOG3 DUP1 RETURN JUMPDEST CALLVALUE PUSH2 0x147 JUMPI PUSH1 0x40 CALLDATASIZE PUSH1 0x3 NOT ADD SLT PUSH2 0x147 JUMPI PUSH2 0x133D PUSH2 0x151F JUMP JUMPDEST PUSH1 0x1 DUP1 PUSH1 0xA0 SHL SUB DUP1 DUP3 AND PUSH1 0xA0 MLOAD MSTORE PUSH1 0x5 PUSH1 0x20 MSTORE PUSH1 0x40 PUSH1 0xA0 MLOAD KECCAK256 SLOAD SWAP1 PUSH2 0x1363 DUP3 ISZERO ISZERO PUSH2 0x19EF JUMP JUMPDEST PUSH32 0x0 AND SWAP1 PUSH1 0x40 MLOAD SWAP3 PUSH4 0x96834AD3 PUSH1 0xE0 SHL SWAP2 DUP3 DUP6 MSTORE PUSH1 0x4 DUP6 ADD MSTORE PUSH1 0x80 SWAP4 DUP5 DUP2 PUSH1 0x24 DUP2 DUP8 GAS STATICCALL SWAP3 DUP4 ISZERO PUSH2 0xAC0 JUMPI DUP6 SWAP2 PUSH1 0xA0 MLOAD SWAP5 PUSH2 0x1465 JUMPI JUMPDEST POP PUSH1 0x24 PUSH1 0x40 MLOAD DUP1 SWAP7 DUP2 SWAP4 DUP3 MSTORE PUSH32 0x0 PUSH1 0x4 DUP4 ADD MSTORE GAS STATICCALL SWAP3 DUP4 ISZERO PUSH2 0xAC0 JUMPI PUSH2 0x140B SWAP5 PUSH1 0xA0 MLOAD SWAP5 PUSH2 0x1446 JUMPI JUMPDEST POP POP PUSH1 0x24 CALLDATALOAD SWAP1 PUSH2 0x2128 JUMP JUMPDEST PUSH2 0x2710 PUSH2 0x141A PUSH1 0x8 SLOAD DUP4 PUSH2 0x1B2E JUMP JUMPDEST DIV SWAP1 PUSH2 0x493 PUSH2 0x1429 DUP4 DUP4 PUSH2 0x1B77 JUMP JUMPDEST PUSH1 0x40 MLOAD SWAP4 DUP5 SWAP4 DUP5 PUSH1 0x40 SWAP2 SWAP5 SWAP4 SWAP3 PUSH1 0x60 DUP3 ADD SWAP6 DUP3 MSTORE PUSH1 0x20 DUP3 ADD MSTORE ADD MSTORE JUMP JUMPDEST PUSH2 0x145D SWAP3 SWAP5 POP DUP1 RETURNDATASIZE LT PUSH2 0xAB9 JUMPI PUSH2 0xAAA DUP2 DUP4 PUSH2 0x16F9 JUMP JUMPDEST SWAP2 DUP5 DUP1 PUSH2 0x1400 JUMP JUMPDEST PUSH2 0x147D SWAP2 SWAP5 POP DUP3 RETURNDATASIZE DUP5 GT PUSH2 0xAB9 JUMPI PUSH2 0xAAA DUP2 DUP4 PUSH2 0x16F9 JUMP JUMPDEST SWAP3 DUP7 PUSH2 0x13B8 JUMP JUMPDEST CALLVALUE PUSH2 0x147 JUMPI PUSH1 0xA0 MLOAD DUP1 PUSH1 0x3 NOT CALLDATASIZE ADD SLT PUSH2 0x144 JUMPI PUSH1 0x20 PUSH1 0x40 MLOAD PUSH8 0x8AC7230489E80000 DUP2 MSTORE RETURN JUMPDEST CALLVALUE PUSH2 0x151A JUMPI PUSH1 0x20 CALLDATASIZE PUSH1 0x3 NOT ADD SLT PUSH2 0x151A JUMPI PUSH1 0x4 CALLDATALOAD PUSH2 0x14C5 PUSH2 0x171A JUMP JUMPDEST PUSH2 0x14CD PUSH2 0x1B84 JUMP JUMPDEST DUP1 SELFBALANCE LT PUSH2 0x14DE JUMPI PUSH2 0xC97 SWAP1 CALLER PUSH2 0x20AB JUMP JUMPDEST PUSH1 0x40 MLOAD PUSH3 0x461BCD PUSH1 0xE5 SHL DUP2 MSTORE PUSH1 0x20 PUSH1 0x4 DUP3 ADD MSTORE PUSH1 0x14 PUSH1 0x24 DUP3 ADD MSTORE PUSH20 0x496E73756666696369656E742062616C616E6365 PUSH1 0x60 SHL PUSH1 0x44 DUP3 ADD MSTORE PUSH1 0x64 SWAP1 REVERT JUMPDEST PUSH1 0x0 DUP1 REVERT JUMPDEST PUSH1 0x4 CALLDATALOAD SWAP1 PUSH1 0x1 PUSH1 0x1 PUSH1 0xA0 SHL SUB DUP3 AND DUP3 SUB PUSH2 0x151A JUMPI JUMP JUMPDEST SWAP2 DUP2 PUSH1 0x1F DUP5 ADD SLT ISZERO PUSH2 0x151A JUMPI DUP3 CALLDATALOAD SWAP2 PUSH1 0x1 PUSH1 0x1 PUSH1 0x40 SHL SUB DUP4 GT PUSH2 0x151A JUMPI PUSH1 0x20 DUP4 DUP2 DUP7 ADD SWAP6 ADD ADD GT PUSH2 0x151A JUMPI JUMP JUMPDEST SWAP2 SWAP1 DUP3 MLOAD SWAP3 DUP4 DUP3 MSTORE PUSH1 0x0 JUMPDEST DUP5 DUP2 LT PUSH2 0x158E JUMPI POP POP DUP3 PUSH1 0x0 PUSH1 0x20 DUP1 SWAP5 SWAP6 DUP5 ADD ADD MSTORE PUSH1 0x1F DUP1 NOT SWAP2 ADD AND ADD ADD SWAP1 JUMP JUMPDEST PUSH1 0x20 DUP2 DUP4 ADD DUP2 ADD MLOAD DUP5 DUP4 ADD DUP3 ADD MSTORE ADD PUSH2 0x156D JUMP JUMPDEST PUSH1 0x4 SLOAD DUP2 LT ISZERO PUSH2 0x15DD JUMPI PUSH1 0x3 SWAP1 PUSH1 0x4 PUSH1 0x0 MSTORE MUL PUSH32 0x8A35ACFBC15FF81A39AE7D344FD709F28E8600B4AA8C65C6B64BFE7FE36BD19B ADD SWAP1 PUSH1 0x0 SWAP1 JUMP JUMPDEST PUSH4 0x4E487B71 PUSH1 0xE0 SHL PUSH1 0x0 MSTORE PUSH1 0x32 PUSH1 0x4 MSTORE PUSH1 0x24 PUSH1 0x0 REVERT JUMPDEST SWAP1 PUSH1 0x1 DUP3 DUP2 SHR SWAP3 AND DUP1 ISZERO PUSH2 0x1623 JUMPI JUMPDEST PUSH1 0x20 DUP4 LT EQ PUSH2 0x160D JUMPI JUMP JUMPDEST PUSH4 0x4E487B71 PUSH1 0xE0 SHL PUSH1 0x0 MSTORE PUSH1 0x22 PUSH1 0x4 MSTORE PUSH1 0x24 PUSH1 0x0 REVERT JUMPDEST SWAP2 PUSH1 0x7F AND SWAP2 PUSH2 0x1602 JUMP JUMPDEST SWAP1 PUSH1 0x0 SWAP3 SWAP2 DUP1 SLOAD SWAP2 PUSH2 0x163E DUP4 PUSH2 0x15F3 JUMP JUMPDEST SWAP2 DUP3 DUP3 MSTORE PUSH1 0x1 SWAP4 DUP5 DUP2 AND SWAP1 DUP2 PUSH1 0x0 EQ PUSH2 0x16A0 JUMPI POP PUSH1 0x1 EQ PUSH2 0x1660 JUMPI JUMPDEST POP POP POP POP JUMP JUMPDEST SWAP1 SWAP2 SWAP4 SWAP5 POP PUSH1 0x0 MSTORE PUSH1 0x20 SWAP3 DUP4 PUSH1 0x0 KECCAK256 SWAP3 DUP5 PUSH1 0x0 SWAP5 JUMPDEST DUP4 DUP7 LT PUSH2 0x168C JUMPI POP POP POP POP ADD ADD SWAP1 CODESIZE DUP1 DUP1 DUP1 PUSH2 0x165A JUMP JUMPDEST DUP1 SLOAD DUP6 DUP8 ADD DUP4 ADD MSTORE SWAP5 ADD SWAP4 DUP6 SWAP1 DUP3 ADD PUSH2 0x1675 JUMP JUMPDEST SWAP3 SWAP5 POP POP POP PUSH1 0x20 SWAP4 SWAP5 POP PUSH1 0xFF NOT AND DUP4 DUP4 ADD MSTORE ISZERO ISZERO PUSH1 0x5 SHL ADD ADD SWAP1 CODESIZE DUP1 DUP1 DUP1 PUSH2 0x165A JUMP JUMPDEST PUSH1 0x60 DUP2 ADD SWAP1 DUP2 LT PUSH1 0x1 PUSH1 0x1 PUSH1 0x40 SHL SUB DUP3 GT OR PUSH2 0x423 JUMPI PUSH1 0x40 MSTORE JUMP JUMPDEST PUSH1 0x40 DUP2 ADD SWAP1 DUP2 LT PUSH1 0x1 PUSH1 0x1 PUSH1 0x40 SHL SUB DUP3 GT OR PUSH2 0x423 JUMPI PUSH1 0x40 MSTORE JUMP JUMPDEST SWAP1 PUSH1 0x1F DUP1 NOT SWAP2 ADD AND DUP2 ADD SWAP1 DUP2 LT PUSH1 0x1 PUSH1 0x1 PUSH1 0x40 SHL SUB DUP3 GT OR PUSH2 0x423 JUMPI PUSH1 0x40 MSTORE JUMP JUMPDEST PUSH1 0x0 SLOAD PUSH1 0x1 PUSH1 0x1 PUSH1 0xA0 SHL SUB AND CALLER SUB PUSH2 0x172E JUMPI JUMP JUMPDEST PUSH1 0x64 PUSH1 0x40 MLOAD PUSH3 0x461BCD PUSH1 0xE5 SHL DUP2 MSTORE PUSH1 0x20 PUSH1 0x4 DUP3 ADD MSTORE PUSH1 0x20 PUSH1 0x24 DUP3 ADD MSTORE PUSH32 0x4F776E61626C653A2063616C6C6572206973206E6F7420746865206F776E6572 PUSH1 0x44 DUP3 ADD MSTORE REVERT JUMPDEST PUSH1 0xFF DUP2 EQ PUSH2 0x17B0 JUMPI PUSH1 0xFF DUP2 AND SWAP1 PUSH1 0x1F DUP3 GT PUSH2 0x179E JUMPI PUSH1 0x40 MLOAD SWAP2 PUSH2 0x1794 DUP4 PUSH2 0x16DE JUMP JUMPDEST DUP3 MSTORE PUSH1 0x20 DUP3 ADD MSTORE SWAP1 JUMP JUMPDEST PUSH1 0x40 MLOAD PUSH4 0x2CD44AC3 PUSH1 0xE2 SHL DUP2 MSTORE PUSH1 0x4 SWAP1 REVERT JUMPDEST POP PUSH1 0x40 MLOAD PUSH1 0x2 SLOAD DUP2 PUSH1 0x0 PUSH2 0x17C3 DUP4 PUSH2 0x15F3 JUMP JUMPDEST DUP1 DUP4 MSTORE SWAP3 PUSH1 0x1 SWAP1 DUP2 DUP2 AND SWAP1 DUP2 ISZERO PUSH2 0x184C JUMPI POP PUSH1 0x1 EQ PUSH2 0x17ED JUMPI JUMPDEST POP PUSH2 0x17EA SWAP3 POP SUB DUP3 PUSH2 0x16F9 JUMP JUMPDEST SWAP1 JUMP JUMPDEST PUSH1 0x2 PUSH1 0x0 SWAP1 DUP2 MSTORE SWAP2 POP PUSH32 0x405787FA12A823E0F2B7631CC41B3BA8828B3321CA811111FA75CD3AA3BB5ACE JUMPDEST DUP5 DUP4 LT PUSH2 0x1831 JUMPI POP PUSH2 0x17EA SWAP4 POP POP DUP2 ADD PUSH1 0x20 ADD CODESIZE PUSH2 0x17DD JUMP JUMPDEST DUP2 SWAP4 POP SWAP1 DUP2 PUSH1 0x20 SWAP3 SLOAD DUP4 DUP6 DUP10 ADD ADD MSTORE ADD SWAP2 ADD SWAP1 SWAP2 DUP5 SWAP3 PUSH2 0x1818 JUMP JUMPDEST SWAP1 POP PUSH1 0x20 SWAP3 POP PUSH2 0x17EA SWAP5 SWAP2 POP PUSH1 0xFF NOT AND DUP3 DUP5 ADD MSTORE ISZERO ISZERO PUSH1 0x5 SHL DUP3 ADD ADD CODESIZE PUSH2 0x17DD JUMP JUMPDEST PUSH1 0xFF DUP2 EQ PUSH2 0x1890 JUMPI PUSH1 0xFF DUP2 AND SWAP1 PUSH1 0x1F DUP3 GT PUSH2 0x179E JUMPI PUSH1 0x40 MLOAD SWAP2 PUSH2 0x1794 DUP4 PUSH2 0x16DE JUMP JUMPDEST POP PUSH1 0x40 MLOAD PUSH1 0x3 SLOAD DUP2 PUSH1 0x0 PUSH2 0x18A3 DUP4 PUSH2 0x15F3 JUMP JUMPDEST DUP1 DUP4 MSTORE SWAP3 PUSH1 0x1 SWAP1 DUP2 DUP2 AND SWAP1 DUP2 ISZERO PUSH2 0x184C JUMPI POP PUSH1 0x1 EQ PUSH2 0x18C9 JUMPI POP PUSH2 0x17EA SWAP3 POP SUB DUP3 PUSH2 0x16F9 JUMP JUMPDEST PUSH1 0x3 PUSH1 0x0 SWAP1 DUP2 MSTORE SWAP2 POP PUSH32 0xC2575A0E9E593C00F959F8C92F12DB2869C3395A3B0502D05E2516446F71F85B JUMPDEST DUP5 DUP4 LT PUSH2 0x190D JUMPI POP PUSH2 0x17EA SWAP4 POP POP DUP2 ADD PUSH1 0x20 ADD CODESIZE PUSH2 0x17DD JUMP JUMPDEST DUP2 SWAP4 POP SWAP1 DUP2 PUSH1 0x20 SWAP3 SLOAD DUP4 DUP6 DUP10 ADD ADD MSTORE ADD SWAP2 ADD SWAP1 SWAP2 DUP5 SWAP3 PUSH2 0x18F4 JUMP JUMPDEST PUSH1 0x1 PUSH1 0x1 PUSH1 0x40 SHL SUB DUP2 GT PUSH2 0x423 JUMPI PUSH1 0x1F ADD PUSH1 0x1F NOT AND PUSH1 0x20 ADD SWAP1 JUMP JUMPDEST SWAP3 SWAP2 SWAP3 PUSH2 0x194F DUP3 PUSH2 0x1928 JUMP JUMPDEST SWAP2 PUSH2 0x195D PUSH1 0x40 MLOAD SWAP4 DUP5 PUSH2 0x16F9 JUMP JUMPDEST DUP3 SWAP5 DUP2 DUP5 MSTORE DUP2 DUP4 ADD GT PUSH2 0x151A JUMPI DUP3 DUP2 PUSH1 0x20 SWAP4 DUP5 PUSH1 0x0 SWAP7 ADD CALLDATACOPY ADD ADD MSTORE JUMP JUMPDEST SWAP1 PUSH1 0x1F DUP2 GT PUSH2 0x1988 JUMPI POP POP POP JUMP JUMPDEST PUSH1 0x0 SWAP2 DUP3 MSTORE PUSH1 0x20 DUP3 KECCAK256 SWAP1 PUSH1 0x20 PUSH1 0x1F DUP6 ADD PUSH1 0x5 SHR DUP4 ADD SWAP5 LT PUSH2 0x19C4 JUMPI JUMPDEST PUSH1 0x1F ADD PUSH1 0x5 SHR ADD SWAP2 JUMPDEST DUP3 DUP2 LT PUSH2 0x19B9 JUMPI POP POP POP JUMP JUMPDEST DUP2 DUP2 SSTORE PUSH1 0x1 ADD PUSH2 0x19AD JUMP JUMPDEST SWAP1 SWAP3 POP DUP3 SWAP1 PUSH2 0x19A4 JUMP JUMPDEST SWAP1 DUP1 PUSH1 0x20 SWAP4 SWAP3 DUP2 DUP5 MSTORE DUP5 DUP5 ADD CALLDATACOPY PUSH1 0x0 DUP3 DUP3 ADD DUP5 ADD MSTORE PUSH1 0x1F ADD PUSH1 0x1F NOT AND ADD ADD SWAP1 JUMP JUMPDEST ISZERO PUSH2 0x19F6 JUMPI JUMP JUMPDEST PUSH1 0x40 MLOAD PUSH3 0x461BCD PUSH1 0xE5 SHL DUP2 MSTORE PUSH1 0x20 PUSH1 0x4 DUP3 ADD MSTORE PUSH1 0x15 PUSH1 0x24 DUP3 ADD MSTORE PUSH21 0x151BDAD95B881B9BDD081DDA1A5D195B1A5CDD1959 PUSH1 0x5A SHL PUSH1 0x44 DUP3 ADD MSTORE PUSH1 0x64 SWAP1 REVERT JUMPDEST SWAP2 PUSH1 0x20 DUP2 DUP2 DUP6 ADD DUP3 DUP7 MSTORE MSTORE PUSH1 0x40 DUP5 ADD SWAP4 PUSH1 0x40 DUP4 PUSH1 0x5 SHL DUP3 ADD ADD SWAP5 DUP5 PUSH1 0x0 SWAP3 JUMPDEST DUP6 DUP5 LT PUSH2 0x1A63 JUMPI POP POP POP POP POP POP POP SWAP1 JUMP JUMPDEST SWAP1 SWAP2 SWAP3 SWAP4 SWAP5 SWAP6 SWAP7 PUSH1 0x3F NOT DUP3 DUP3 SUB ADD DUP5 MSTORE DUP8 CALLDATALOAD PUSH1 0x1E NOT DUP5 CALLDATASIZE SUB ADD DUP2 SLT ISZERO PUSH2 0x151A JUMPI DUP4 ADD DUP7 DUP2 ADD SWAP2 SWAP1 CALLDATALOAD PUSH1 0x1 PUSH1 0x1 PUSH1 0x40 SHL SUB DUP2 GT PUSH2 0x151A JUMPI DUP1 CALLDATASIZE SUB DUP4 SGT PUSH2 0x151A JUMPI PUSH2 0x1AB1 DUP9 SWAP3 DUP4 SWAP3 PUSH1 0x1 SWAP6 PUSH2 0x19CE JUMP JUMPDEST SWAP10 ADD SWAP5 ADD SWAP5 ADD SWAP3 SWAP6 SWAP5 SWAP4 SWAP2 SWAP1 PUSH2 0x1A52 JUMP JUMPDEST SWAP1 DUP2 PUSH1 0x80 SWAP2 SUB SLT PUSH2 0x151A JUMPI PUSH1 0x40 MLOAD SWAP1 PUSH1 0x1 PUSH1 0x1 PUSH1 0x40 SHL SUB PUSH1 0x80 DUP4 ADD DUP2 DUP2 GT DUP5 DUP3 LT OR PUSH2 0x423 JUMPI PUSH1 0x40 MSTORE DUP2 MLOAD DUP1 PUSH1 0x7 SIGNEXTEND DUP2 SUB PUSH2 0x151A JUMPI DUP4 MSTORE PUSH1 0x20 DUP3 ADD MLOAD SWAP1 DUP2 AND DUP2 SUB PUSH2 0x151A JUMPI PUSH1 0x20 DUP4 ADD MSTORE PUSH1 0x40 DUP2 ADD MLOAD SWAP1 DUP2 PUSH1 0x3 SIGNEXTEND DUP3 SUB PUSH2 0x151A JUMPI PUSH1 0x60 SWAP2 PUSH1 0x40 DUP5 ADD MSTORE ADD MLOAD PUSH1 0x60 DUP3 ADD MSTORE SWAP1 JUMP JUMPDEST DUP2 DUP2 MUL SWAP3 SWAP2 DUP2 ISZERO SWAP2 DUP5 DIV EQ OR ISZERO PUSH2 0x1B41 JUMPI JUMP JUMPDEST PUSH4 0x4E487B71 PUSH1 0xE0 SHL PUSH1 0x0 MSTORE PUSH1 0x11 PUSH1 0x4 MSTORE PUSH1 0x24 PUSH1 0x0 REVERT JUMPDEST DUP2 ISZERO PUSH2 0x1B61 JUMPI DIV SWAP1 JUMP JUMPDEST PUSH4 0x4E487B71 PUSH1 0xE0 SHL PUSH1 0x0 MSTORE PUSH1 0x12 PUSH1 0x4 MSTORE PUSH1 0x24 PUSH1 0x0 REVERT JUMPDEST SWAP2 SWAP1 DUP3 SUB SWAP2 DUP3 GT PUSH2 0x1B41 JUMPI JUMP JUMPDEST PUSH1 0x2 PUSH1 0x1 SLOAD EQ PUSH2 0x1B95 JUMPI PUSH1 0x2 PUSH1 0x1 SSTORE JUMP JUMPDEST PUSH1 0x40 MLOAD PUSH3 0x461BCD PUSH1 0xE5 SHL DUP2 MSTORE PUSH1 0x20 PUSH1 0x4 DUP3 ADD MSTORE PUSH1 0x1F PUSH1 0x24 DUP3 ADD MSTORE PUSH32 0x5265656E7472616E637947756172643A207265656E7472616E742063616C6C00 PUSH1 0x44 DUP3 ADD MSTORE PUSH1 0x64 SWAP1 REVERT JUMPDEST PUSH1 0x1 DUP1 PUSH1 0xA0 SHL SUB AND SWAP1 PUSH2 0x1C39 PUSH1 0x40 MLOAD PUSH2 0x1BF2 DUP2 PUSH2 0x16DE JUMP JUMPDEST PUSH1 0x20 SWAP4 DUP5 DUP3 MSTORE PUSH32 0x5361666545524332303A206C6F772D6C6576656C2063616C6C206661696C6564 DUP6 DUP4 ADD MSTORE PUSH1 0x0 DUP1 DUP6 DUP8 DUP3 SWAP8 MLOAD SWAP2 ADD DUP3 DUP6 GAS CALL PUSH2 0x1C33 PUSH2 0x1CD3 JUMP JUMPDEST SWAP2 PUSH2 0x1D03 JUMP JUMPDEST DUP1 MLOAD SWAP2 DUP3 ISZERO SWAP2 DUP5 DUP4 ISZERO PUSH2 0x1CAB JUMPI JUMPDEST POP POP POP SWAP1 POP ISZERO PUSH2 0x1C54 JUMPI POP JUMP JUMPDEST PUSH1 0x84 SWAP1 PUSH1 0x40 MLOAD SWAP1 PUSH3 0x461BCD PUSH1 0xE5 SHL DUP3 MSTORE PUSH1 0x4 DUP3 ADD MSTORE PUSH1 0x2A PUSH1 0x24 DUP3 ADD MSTORE PUSH32 0x5361666545524332303A204552433230206F7065726174696F6E20646964206E PUSH1 0x44 DUP3 ADD MSTORE PUSH10 0x1BDD081CDD58D8D95959 PUSH1 0xB2 SHL PUSH1 0x64 DUP3 ADD MSTORE REVERT JUMPDEST SWAP2 SWAP4 DUP2 DUP1 SWAP5 POP ADD SUB SLT PUSH2 0x1CCF JUMPI DUP3 ADD MLOAD SWAP1 DUP2 ISZERO ISZERO DUP3 SUB PUSH2 0x144 JUMPI POP DUP1 CODESIZE DUP1 DUP5 PUSH2 0x1C47 JUMP JUMPDEST POP DUP1 REVERT JUMPDEST RETURNDATASIZE ISZERO PUSH2 0x1CFE JUMPI RETURNDATASIZE SWAP1 PUSH2 0x1CE4 DUP3 PUSH2 0x1928 JUMP JUMPDEST SWAP2 PUSH2 0x1CF2 PUSH1 0x40 MLOAD SWAP4 DUP5 PUSH2 0x16F9 JUMP JUMPDEST DUP3 MSTORE RETURNDATASIZE PUSH1 0x0 PUSH1 0x20 DUP5 ADD RETURNDATACOPY JUMP JUMPDEST PUSH1 0x60 SWAP1 JUMP JUMPDEST SWAP2 SWAP3 SWAP1 ISZERO PUSH2 0x1D65 JUMPI POP DUP2 MLOAD ISZERO PUSH2 0x1D17 JUMPI POP SWAP1 JUMP JUMPDEST EXTCODESIZE ISZERO PUSH2 0x1D20 JUMPI SWAP1 JUMP JUMPDEST PUSH1 0x40 MLOAD PUSH3 0x461BCD PUSH1 0xE5 SHL DUP2 MSTORE PUSH1 0x20 PUSH1 0x4 DUP3 ADD MSTORE PUSH1 0x1D PUSH1 0x24 DUP3 ADD MSTORE PUSH32 0x416464726573733A2063616C6C20746F206E6F6E2D636F6E7472616374000000 PUSH1 0x44 DUP3 ADD MSTORE PUSH1 0x64 SWAP1 REVERT JUMPDEST DUP3 MLOAD SWAP1 SWAP2 POP ISZERO PUSH2 0x1D78 JUMPI POP DUP1 MLOAD SWAP1 PUSH1 0x20 ADD REVERT JUMPDEST PUSH1 0x40 MLOAD PUSH3 0x461BCD PUSH1 0xE5 SHL DUP2 MSTORE PUSH1 0x20 PUSH1 0x4 DUP3 ADD MSTORE SWAP1 DUP2 SWAP1 PUSH2 0x1D9C SWAP1 PUSH1 0x24 DUP4 ADD SWAP1 PUSH2 0x1562 JUMP JUMPDEST SUB SWAP1 REVERT JUMPDEST PUSH1 0x5 DUP2 LT ISZERO PUSH2 0x1EA4 JUMPI DUP1 PUSH2 0x1DB1 JUMPI POP JUMP JUMPDEST PUSH1 0x1 DUP2 SUB PUSH2 0x1DFE JUMPI PUSH1 0x40 MLOAD PUSH3 0x461BCD PUSH1 0xE5 SHL DUP2 MSTORE PUSH1 0x20 PUSH1 0x4 DUP3 ADD MSTORE PUSH1 0x18 PUSH1 0x24 DUP3 ADD MSTORE PUSH32 0x45434453413A20696E76616C6964207369676E61747572650000000000000000 PUSH1 0x44 DUP3 ADD MSTORE PUSH1 0x64 SWAP1 REVERT JUMPDEST PUSH1 0x2 DUP2 SUB PUSH2 0x1E4B JUMPI PUSH1 0x40 MLOAD PUSH3 0x461BCD PUSH1 0xE5 SHL DUP2 MSTORE PUSH1 0x20 PUSH1 0x4 DUP3 ADD MSTORE PUSH1 0x1F PUSH1 0x24 DUP3 ADD MSTORE PUSH32 0x45434453413A20696E76616C6964207369676E6174757265206C656E67746800 PUSH1 0x44 DUP3 ADD MSTORE PUSH1 0x64 SWAP1 REVERT JUMPDEST PUSH1 0x3 EQ PUSH2 0x1E54 JUMPI JUMP JUMPDEST PUSH1 0x40 MLOAD PUSH3 0x461BCD PUSH1 0xE5 SHL DUP2 MSTORE PUSH1 0x20 PUSH1 0x4 DUP3 ADD MSTORE PUSH1 0x22 PUSH1 0x24 DUP3 ADD MSTORE PUSH32 0x45434453413A20696E76616C6964207369676E6174757265202773272076616C PUSH1 0x44 DUP3 ADD MSTORE PUSH2 0x7565 PUSH1 0xF0 SHL PUSH1 0x64 DUP3 ADD MSTORE PUSH1 0x84 SWAP1 REVERT JUMPDEST PUSH4 0x4E487B71 PUSH1 0xE0 SHL PUSH1 0x0 MSTORE PUSH1 0x21 PUSH1 0x4 MSTORE PUSH1 0x24 PUSH1 0x0 REVERT JUMPDEST SWAP1 PUSH1 0x41 DUP2 MLOAD EQ PUSH1 0x0 EQ PUSH2 0x1EE8 JUMPI PUSH2 0x1EE4 SWAP2 PUSH1 0x20 DUP3 ADD MLOAD SWAP1 PUSH1 0x60 PUSH1 0x40 DUP5 ADD MLOAD SWAP4 ADD MLOAD PUSH1 0x0 BYTE SWAP1 PUSH2 0x1EF2 JUMP JUMPDEST SWAP1 SWAP2 JUMP JUMPDEST POP POP PUSH1 0x0 SWAP1 PUSH1 0x2 SWAP1 JUMP JUMPDEST SWAP3 SWAP2 SWAP1 PUSH32 0x7FFFFFFFFFFFFFFFFFFFFFFFFFFFFFFF5D576E7357A4501DDFE92F46681B20A0 DUP4 GT PUSH2 0x1F75 JUMPI SWAP2 PUSH1 0x80 SWAP5 SWAP4 SWAP2 PUSH1 0xFF PUSH1 0x20 SWAP5 PUSH1 0x40 MLOAD SWAP5 DUP6 MSTORE AND DUP5 DUP5 ADD MSTORE PUSH1 0x40 DUP4 ADD MSTORE PUSH1 0x60 DUP3 ADD MSTORE PUSH1 0x0 SWAP4 DUP5 SWAP2 DUP3 DUP1 MSTORE PUSH1 0x1 GAS STATICCALL ISZERO PUSH2 0x1F68 JUMPI DUP2 MLOAD PUSH1 0x1 PUSH1 0x1 PUSH1 0xA0 SHL SUB DUP2 AND ISZERO PUSH2 0x1F62 JUMPI SWAP2 SWAP1 JUMP JUMPDEST POP PUSH1 0x1 SWAP1 JUMP JUMPDEST POP PUSH1 0x40 MLOAD SWAP1 RETURNDATASIZE SWAP1 DUP3 RETURNDATACOPY RETURNDATASIZE SWAP1 REVERT JUMPDEST POP POP POP POP PUSH1 0x0 SWAP1 PUSH1 0x3 SWAP1 JUMP JUMPDEST ADDRESS PUSH32 0x0 PUSH1 0x1 PUSH1 0x1 PUSH1 0xA0 SHL SUB AND EQ DUP1 PUSH2 0x2082 JUMPI JUMPDEST ISZERO PUSH2 0x1FDC JUMPI PUSH32 0x0 SWAP1 JUMP JUMPDEST PUSH1 0x40 MLOAD PUSH1 0x20 DUP2 ADD SWAP1 PUSH32 0x8B73C3C69BB8FE3D512ECC4CF759CC79239F7B179B0FFACAA9A75D522B39400F DUP3 MSTORE PUSH32 0x0 PUSH1 0x40 DUP3 ADD MSTORE PUSH32 0x0 PUSH1 0x60 DUP3 ADD MSTORE CHAINID PUSH1 0x80 DUP3 ADD MSTORE ADDRESS PUSH1 0xA0 DUP3 ADD MSTORE PUSH1 0xA0 DUP2 MSTORE PUSH1 0xC0 DUP2 ADD DUP2 DUP2 LT PUSH1 0x1 PUSH1 0x1 PUSH1 0x40 SHL SUB DUP3 GT OR PUSH2 0x423 JUMPI PUSH1 0x40 MSTORE MLOAD SWAP1 KECCAK256 SWAP1 JUMP JUMPDEST POP PUSH32 0x0 CHAINID EQ PUSH2 0x1FB3 JUMP JUMPDEST PUSH1 0x0 DUP1 DUP1 SWAP4 DUP2 SWAP4 GAS CALL PUSH2 0x20BC PUSH2 0x1CD3 JUMP JUMPDEST POP ISZERO PUSH2 0x20C4 JUMPI JUMP JUMPDEST PUSH1 0x40 MLOAD PUSH3 0x461BCD PUSH1 0xE5 SHL DUP2 MSTORE PUSH1 0x20 PUSH1 0x4 DUP3 ADD MSTORE PUSH1 0x13 PUSH1 0x24 DUP3 ADD MSTORE PUSH19 0x10D196081D1C985B9CD9995C8819985A5B1959 PUSH1 0x6A SHL PUSH1 0x44 DUP3 ADD MSTORE PUSH1 0x64 SWAP1 REVERT JUMPDEST PUSH1 0x3 SIGNEXTEND PUSH4 0x7FFFFFFF NOT DUP2 EQ PUSH2 0x1B41 JUMPI PUSH1 0x0 SUB SWAP1 JUMP JUMPDEST PUSH4 0xFFFFFFFF AND PUSH1 0x4D DUP2 GT PUSH2 0x1B41 JUMPI PUSH1 0xA EXP SWAP1 JUMP JUMPDEST SWAP1 SWAP2 SWAP4 SWAP3 SWAP4 PUSH1 0x0 SWAP1 DUP2 DUP2 MLOAD PUSH1 0x7 SIGNEXTEND SGT ISZERO PUSH2 0x23FB JUMPI DUP2 DUP7 MLOAD PUSH1 0x7 SIGNEXTEND SGT ISZERO PUSH2 0x23C2 JUMPI DUP4 ISZERO PUSH2 0x238F JUMPI PUSH1 0x40 DUP1 MLOAD PUSH4 0x313CE567 PUSH1 0xE0 SHL DUP2 MSTORE SWAP1 SWAP7 PUSH1 0x4 SWAP6 PUSH1 0x20 SWAP6 SWAP2 SWAP3 SWAP1 SWAP2 DUP7 SWAP1 DUP3 SWAP1 DUP10 SWAP1 DUP3 SWAP1 PUSH1 0x1 PUSH1 0x1 PUSH1 0xA0 SHL SUB AND GAS STATICCALL SWAP1 DUP2 ISZERO PUSH2 0x2385 JUMPI DUP6 SWAP2 PUSH2 0x234A JUMPI JUMPDEST POP DUP9 DUP5 ADD MLOAD PUSH1 0x3 SIGNEXTEND SWAP2 DUP6 DUP4 SLT ISZERO PUSH2 0x22FC JUMPI PUSH2 0x21D5 PUSH2 0x21BE PUSH2 0x21B8 PUSH1 0xFF SWAP4 PUSH1 0x1 PUSH1 0x1 PUSH1 0x40 SHL SUB DUP1 SWAP10 MLOAD AND SWAP1 PUSH2 0x1B2E JUMP JUMPDEST SWAP5 PUSH2 0x20FF JUMP JUMPDEST SWAP4 PUSH2 0x21CF PUSH4 0xFFFFFFFF SWAP6 DUP7 AND PUSH2 0x2114 JUMP JUMPDEST SWAP1 PUSH2 0x1B2E JUMP JUMPDEST SWAP2 AND PUSH1 0x4D DUP2 GT PUSH2 0x22E9 JUMPI SWAP1 PUSH2 0x21ED SWAP2 PUSH1 0xA EXP SWAP1 PUSH2 0x1B57 JUMP JUMPDEST SWAP3 DUP9 DUP4 ADD MLOAD PUSH1 0x3 SIGNEXTEND SWAP3 DUP6 DUP5 SLT ISZERO PUSH2 0x22A8 JUMPI SWAP2 PUSH2 0x2213 PUSH2 0x21CF SWAP3 PUSH2 0x2219 SWAP6 SWAP5 MLOAD AND SWAP4 PUSH2 0x20FF JUMP JUMPDEST AND PUSH2 0x2114 JUMP JUMPDEST SWAP2 PUSH8 0xDE0B6B3A7640000 SWAP2 DUP3 DUP2 MUL SWAP3 DUP2 DUP5 DIV EQ SWAP1 ISZERO OR ISZERO PUSH2 0x2295 JUMPI POP SWAP1 PUSH2 0x223F SWAP2 PUSH2 0x1B57 JUMP JUMPDEST SWAP4 PUSH8 0x8AC7230489E80000 DUP6 GT PUSH2 0x2254 JUMPI POP POP POP JUMP JUMPDEST MLOAD PUSH3 0x461BCD PUSH1 0xE5 SHL DUP2 MSTORE SWAP2 DUP3 ADD MSTORE PUSH1 0x18 PUSH1 0x24 DUP3 ADD MSTORE PUSH32 0x45786365656473206D6178204346582070657220737761700000000000000000 PUSH1 0x44 DUP3 ADD MSTORE PUSH1 0x64 SWAP2 POP REVERT JUMPDEST PUSH4 0x4E487B71 PUSH1 0xE0 SHL DUP2 MSTORE PUSH1 0x11 DUP6 MSTORE PUSH1 0x24 SWAP1 REVERT JUMPDEST PUSH1 0x64 DUP9 DUP9 DUP1 DUP14 MLOAD SWAP3 PUSH3 0x461BCD PUSH1 0xE5 SHL DUP5 MSTORE DUP4 ADD MSTORE PUSH1 0x24 DUP3 ADD MSTORE PUSH32 0x556E657870656374656420706F736974697665206578706F20666F7220434658 PUSH1 0x44 DUP3 ADD MSTORE REVERT JUMPDEST PUSH4 0x4E487B71 PUSH1 0xE0 SHL DUP7 MSTORE PUSH1 0x11 DUP9 MSTORE PUSH1 0x24 DUP7 REVERT JUMPDEST DUP10 MLOAD PUSH3 0x461BCD PUSH1 0xE5 SHL DUP2 MSTORE DUP1 DUP10 ADD DUP9 SWAP1 MSTORE PUSH1 0x22 PUSH1 0x24 DUP3 ADD MSTORE PUSH32 0x556E657870656374656420706F736974697665206578706F20666F7220746F6B PUSH1 0x44 DUP3 ADD MSTORE PUSH2 0x32B7 PUSH1 0xF1 SHL PUSH1 0x64 DUP3 ADD MSTORE PUSH1 0x84 SWAP1 REVERT JUMPDEST SWAP1 POP DUP6 DUP2 DUP2 RETURNDATASIZE DUP4 GT PUSH2 0x237E JUMPI JUMPDEST PUSH2 0x2361 DUP2 DUP4 PUSH2 0x16F9 JUMP JUMPDEST DUP2 ADD SUB SLT PUSH2 0x237A JUMPI MLOAD PUSH1 0xFF DUP2 AND DUP2 SUB PUSH2 0x237A JUMPI CODESIZE PUSH2 0x2189 JUMP JUMPDEST DUP5 DUP1 REVERT JUMPDEST POP RETURNDATASIZE PUSH2 0x2357 JUMP JUMPDEST DUP10 MLOAD RETURNDATASIZE DUP8 DUP3 RETURNDATACOPY RETURNDATASIZE SWAP1 REVERT JUMPDEST PUSH1 0x40 MLOAD PUSH3 0x461BCD PUSH1 0xE5 SHL DUP2 MSTORE PUSH1 0x20 PUSH1 0x4 DUP3 ADD MSTORE PUSH1 0xB PUSH1 0x24 DUP3 ADD MSTORE PUSH11 0x416D6F756E74207A65726F PUSH1 0xA8 SHL PUSH1 0x44 DUP3 ADD MSTORE PUSH1 0x64 SWAP1 REVERT JUMPDEST PUSH1 0x40 MLOAD PUSH3 0x461BCD PUSH1 0xE5 SHL DUP2 MSTORE PUSH1 0x20 PUSH1 0x4 DUP3 ADD MSTORE PUSH1 0x11 PUSH1 0x24 DUP3 ADD MSTORE PUSH17 0x496E76616C696420434658207072696365 PUSH1 0x78 SHL PUSH1 0x44 DUP3 ADD MSTORE PUSH1 0x64 SWAP1 REVERT JUMPDEST PUSH1 0x40 MLOAD PUSH3 0x461BCD PUSH1 0xE5 SHL DUP2 MSTORE PUSH1 0x20 PUSH1 0x4 DUP3 ADD MSTORE PUSH1 0x13 PUSH1 0x24 DUP3 ADD MSTORE PUSH19 0x496E76616C696420746F6B656E207072696365 PUSH1 0x68 SHL PUSH1 0x44 DUP3 ADD MSTORE PUSH1 0x64 SWAP1 REVERT INVALID LOG2 PUSH5 0x6970667358 0x22 SLT KECCAK256 PUSH5 0x2DECA9E2DA EXTCODEHASH 0x2B BALANCE 0xD6 0xDB PUSH14 0xE9C40CB869009B2514E858C3C03F 0xBE STATICCALL RETURNDATACOPY 0xEF SGT CHAINID PUSH5 0x736F6C6343 STOP ADDMOD EQ STOP CALLER "},"methodIdentifiers":{"MAX_CFX_PER_SWAP()":"31e2a65c","addToken(address,string,bytes32)":"78af1d55","cfxUsdFeedId()":"e83d086f","depositCfx()":"f6954a13","eip712Domain()":"84b0196e","estimateCfxOut(address,uint256)":"5f5443a5","getSupportedTokens()":"d3c7c2c7","metaSwap(address,address,uint256,uint256,bytes,bytes[],uint32)":"a275d666","nonces(address)":"7ecebe00","owner()":"8da5cb5b","pyth()":"f98d06f0","relayerFeePercent()":"ef1774a2","renounceOwnership()":"715018a6","setRelayerFee(uint256)":"83302a6f","supportedTokens(uint256)":"c6255626","tokenFeedIds(address)":"91f12218","tokenTickers(address)":"c9325d6c","transferOwnership(address)":"f2fde38b","withdrawCfx(uint256)":"11dfca5d","withdrawToken(address,uint256)":"9e281a98"}}}}}