{
  "_format": "hh3-artifact-1",
  "contractName": "EspaceBridge",
  "sourceName": "contracts/NftBridge.sol",
  "abi": [
    {
      "inputs": [
        {
          "internalType": "address",
          "name": "_endpoint",
          "type": "address"
        },
        {
          "internalType": "address",
          "name": "_originalNFT",
          "type": "address"
        }
      ],
      "stateMutability": "nonpayable",
      "type": "constructor"
    },
    {
      "inputs": [
        {
          "internalType": "address",
          "name": "owner",
          "type": "address"
        }
      ],
      "name": "OwnableInvalidOwner",
      "type": "error"
    },
    {
      "inputs": [
        {
          "internalType": "address",
          "name": "account",
          "type": "address"
        }
      ],
      "name": "OwnableUnauthorizedAccount",
      "type": "error"
    },
    {
      "inputs": [],
      "name": "ReentrancyGuardReentrantCall",
      "type": "error"
    },
    {
      "anonymous": false,
      "inputs": [
        {
          "indexed": true,
          "internalType": "address",
          "name": "recipient",
          "type": "address"
        },
        {
          "indexed": false,
          "internalType": "uint16",
          "name": "srcChainId",
          "type": "uint16"
        },
        {
          "indexed": false,
          "internalType": "address",
          "name": "srcAddress",
          "type": "address"
        },
        {
          "indexed": false,
          "internalType": "uint256",
          "name": "tokenId",
          "type": "uint256"
        }
      ],
      "name": "BridgeIn",
      "type": "event"
    },
    {
      "anonymous": false,
      "inputs": [
        {
          "indexed": true,
          "internalType": "address",
          "name": "sender",
          "type": "address"
        },
        {
          "indexed": false,
          "internalType": "uint16",
          "name": "dstChainId",
          "type": "uint16"
        },
        {
          "indexed": false,
          "internalType": "address",
          "name": "dstAddress",
          "type": "address"
        },
        {
          "indexed": false,
          "internalType": "uint256",
          "name": "tokenId",
          "type": "uint256"
        },
        {
          "indexed": false,
          "internalType": "string",
          "name": "tokenURI",
          "type": "string"
        }
      ],
      "name": "BridgeOut",
      "type": "event"
    },
    {
      "anonymous": false,
      "inputs": [
        {
          "indexed": true,
          "internalType": "address",
          "name": "previousOwner",
          "type": "address"
        },
        {
          "indexed": true,
          "internalType": "address",
          "name": "newOwner",
          "type": "address"
        }
      ],
      "name": "OwnershipTransferred",
      "type": "event"
    },
    {
      "inputs": [
        {
          "internalType": "uint16",
          "name": "_dstChainId",
          "type": "uint16"
        },
        {
          "internalType": "bytes",
          "name": "_dstContractBytes",
          "type": "bytes"
        },
        {
          "internalType": "uint256",
          "name": "_tokenId",
          "type": "uint256"
        },
        {
          "internalType": "address",
          "name": "_recipient",
          "type": "address"
        },
        {
          "internalType": "bytes",
          "name": "_adapterParams",
          "type": "bytes"
        }
      ],
      "name": "bridgeOut",
      "outputs": [],
      "stateMutability": "payable",
      "type": "function"
    },
    {
      "inputs": [],
      "name": "endpoint",
      "outputs": [
        {
          "internalType": "contract ILayerZeroEndpoint",
          "name": "",
          "type": "address"
        }
      ],
      "stateMutability": "view",
      "type": "function"
    },
    {
      "inputs": [
        {
          "internalType": "uint256",
          "name": "",
          "type": "uint256"
        }
      ],
      "name": "locked",
      "outputs": [
        {
          "internalType": "bool",
          "name": "",
          "type": "bool"
        }
      ],
      "stateMutability": "view",
      "type": "function"
    },
    {
      "inputs": [
        {
          "internalType": "uint16",
          "name": "_srcChainId",
          "type": "uint16"
        },
        {
          "internalType": "bytes",
          "name": "_srcAddress",
          "type": "bytes"
        },
        {
          "internalType": "uint64",
          "name": "",
          "type": "uint64"
        },
        {
          "internalType": "bytes",
          "name": "_payload",
          "type": "bytes"
        }
      ],
      "name": "lzReceive",
      "outputs": [],
      "stateMutability": "nonpayable",
      "type": "function"
    },
    {
      "inputs": [],
      "name": "originalNFT",
      "outputs": [
        {
          "internalType": "contract IERC721",
          "name": "",
          "type": "address"
        }
      ],
      "stateMutability": "view",
      "type": "function"
    },
    {
      "inputs": [],
      "name": "owner",
      "outputs": [
        {
          "internalType": "address",
          "name": "",
          "type": "address"
        }
      ],
      "stateMutability": "view",
      "type": "function"
    },
    {
      "inputs": [
        {
          "internalType": "uint256",
          "name": "tokenId",
          "type": "uint256"
        },
        {
          "internalType": "address",
          "name": "to",
          "type": "address"
        }
      ],
      "name": "ownerWithdrawToken",
      "outputs": [],
      "stateMutability": "nonpayable",
      "type": "function"
    },
    {
      "inputs": [],
      "name": "renounceOwnership",
      "outputs": [],
      "stateMutability": "nonpayable",
      "type": "function"
    },
    {
      "inputs": [
        {
          "internalType": "uint16",
          "name": "_dstChainId",
          "type": "uint16"
        },
        {
          "internalType": "bytes",
          "name": "_remote",
          "type": "bytes"
        }
      ],
      "name": "setTrustedRemote",
      "outputs": [],
      "stateMutability": "nonpayable",
      "type": "function"
    },
    {
      "inputs": [
        {
          "internalType": "address",
          "name": "newOwner",
          "type": "address"
        }
      ],
      "name": "transferOwnership",
      "outputs": [],
      "stateMutability": "nonpayable",
      "type": "function"
    },
    {
      "inputs": [
        {
          "internalType": "uint16",
          "name": "",
          "type": "uint16"
        }
      ],
      "name": "trustedRemoteLookup",
      "outputs": [
        {
          "internalType": "bytes",
          "name": "",
          "type": "bytes"
        }
      ],
      "stateMutability": "view",
      "type": "function"
    }
  ],
  "bytecode": "0x608060405234801561000f575f5ffd5b5060405161139e38038061139e83398101604081905261002e916100fc565b338061005357604051631e4fbdf760e01b81525f600482015260240160405180910390fd5b61005c81610092565b5060018055600280546001600160a01b039384166001600160a01b0319918216179091556003805492909316911617905561012d565b5f80546001600160a01b038381166001600160a01b0319831681178455604051919092169283917f8be0079c531659141344cd1fd0a4f28419497f9722a3daafe3b4186f6b6457e09190a35050565b80516001600160a01b03811681146100f7575f5ffd5b919050565b5f5f6040838503121561010d575f5ffd5b610116836100e1565b9150610124602084016100e1565b90509250929050565b6112648061013a5f395ff3fe608060405260043610610099575f3560e01c80638da5cb5b116100625780638da5cb5b14610159578063ae49994514610175578063b45a3c0e14610188578063c8705cb4146101c6578063eb8d72b7146101e5578063f2fde38b14610204575f5ffd5b80621d35671461009d5780631d3d81d6146100be5780635e280f11146100fa578063715018a6146101195780637533d7881461012d575b5f5ffd5b3480156100a8575f5ffd5b506100bc6100b7366004610b97565b610223565b005b3480156100c9575f5ffd5b506003546100dd906001600160a01b031681565b6040516001600160a01b0390911681526020015b60405180910390f35b348015610105575f5ffd5b506002546100dd906001600160a01b031681565b348015610124575f5ffd5b506100bc610576565b348015610138575f5ffd5b5061014c610147366004610c35565b610589565b6040516100f19190610c83565b348015610164575f5ffd5b505f546001600160a01b03166100dd565b6100bc610183366004610ca9565b610620565b348015610193575f5ffd5b506101b66101a2366004610d44565b60056020525f908152604090205460ff1681565b60405190151581526020016100f1565b3480156101d1575f5ffd5b506100bc6101e0366004610d5b565b61083a565b3480156101f0575f5ffd5b506100bc6101ff366004610d89565b610913565b34801561020f575f5ffd5b506100bc61021e366004610dd8565b61093e565b6002546001600160a01b031633146102825760405162461bcd60e51b815260206004820152601760248201527f43616c6c6572206d75737420626520656e64706f696e7400000000000000000060448201526064015b60405180910390fd5b61ffff86165f908152600460205260408120805461029f90610df3565b80601f01602080910402602001604051908101604052809291908181526020018280546102cb90610df3565b80156103165780601f106102ed57610100808354040283529160200191610316565b820191905f5260205f20905b8154815290600101906020018083116102f957829003601f168201915b5050505050905080515f1415801561034b57508585604051610339929190610e2b565b60405180910390208180519060200120145b61038c5760405162461bcd60e51b815260206004820152601260248201527114995b5bdd19481b9bdd081d1c9d5cdd195960721b6044820152606401610279565b5f808061039b85870187610eb1565b9550509450505092508260ff16600203610517575f8281526005602052604090205460ff166103ff5760405162461bcd60e51b815260206004820152601060248201526f151bdad95b881b9bdd081b1bd8dad95960821b6044820152606401610279565b5f8281526005602052604090819020805460ff1916905560035490516323b872dd60e01b81523060048201526001600160a01b03838116602483015260448201859052909116906323b872dd906064015f604051808303815f87803b158015610466575f5ffd5b505af1158015610478573d5f5f3e3d5ffd5b50505050806001600160a01b03167fd220bf7adb48dae5527b8029580cce298eb31a7c366db0529f162801abe745a08b6104e68c8c8080601f0160208091040260200160405190810160405280939291908181526020018383808284375f9201919091525061097b92505050565b6040805161ffff90931683526001600160a01b039091166020830152810185905260600160405180910390a261056a565b60405162461bcd60e51b815260206004820152602260248201527f556e737570706f7274656420616374696f6e206f6e2045737061636542726964604482015261676560f01b6064820152608401610279565b50505050505050505050565b61057e6109c8565b6105875f6109f4565b565b60046020525f9081526040902080546105a190610df3565b80601f01602080910402602001604051908101604052809291908181526020018280546105cd90610df3565b80156106185780601f106105ef57610100808354040283529160200191610618565b820191905f5260205f20905b8154815290600101906020018083116105fb57829003601f168201915b505050505081565b610628610a43565b6001600160a01b03831661066e5760405162461bcd60e51b815260206004820152600d60248201526c109859081c9958da5c1a595b9d609a1b6044820152606401610279565b6003546040516323b872dd60e01b8152336004820152306024820152604481018690526001600160a01b03909116906323b872dd906064015f604051808303815f87803b1580156106bd575f5ffd5b505af11580156106cf573d5f5f3e3d5ffd5b5050505f858152600560205260408120805460ff1916600117905590506106f585610a6d565b6003546040519192506001915f9161072591849184916001600160a01b03909116908b9088908c90602001610f7d565b60408051601f198184030181529082905260025462c5803160e81b83529092506001600160a01b03169063c5803100903490610773908e908e908e90889033905f908f908f90600401610ff9565b5f604051808303818588803b15801561078a575f5ffd5b505af115801561079c573d5f5f3e3d5ffd5b5050505050336001600160a01b03167f80948bf8a2eff045c8ff2ddfe9a271d2031cefc17f3ad9c8aefedd34b8ee038a8b61080b8c8c8080601f0160208091040260200160405190810160405280939291908181526020018383808284375f9201919091525061097b92505050565b8a8760405161081d9493929190611063565b60405180910390a250505061083160018055565b50505050505050565b6108426109c8565b5f8281526005602052604090205460ff166108925760405162461bcd60e51b815260206004820152601060248201526f151bdad95b881b9bdd081b1bd8dad95960821b6044820152606401610279565b5f8281526005602052604090819020805460ff1916905560035490516323b872dd60e01b81523060048201526001600160a01b03838116602483015260448201859052909116906323b872dd906064015f604051808303815f87803b1580156108f9575f5ffd5b505af115801561090b573d5f5f3e3d5ffd5b505050505050565b61091b6109c8565b61ffff83165f9081526004602052604090206109388284836110e9565b50505050565b6109466109c8565b6001600160a01b03811661096f57604051631e4fbdf760e01b81525f6004820152602401610279565b610978816109f4565b50565b5f6014825110156109c05760405162461bcd60e51b815260206004820152600f60248201526e189e5d195cc81d1bdbc81cda1bdc9d608a1b6044820152606401610279565b506014015190565b5f546001600160a01b031633146105875760405163118cdaa760e01b8152336004820152602401610279565b5f80546001600160a01b038381166001600160a01b0319831681178455604051919092169283917f8be0079c531659141344cd1fd0a4f28419497f9722a3daafe3b4186f6b6457e09190a35050565b600260015403610a6657604051633ee5aeb560e01b815260040160405180910390fd5b6002600155565b600354604051602481018390526060915f9182916001600160a01b03169060440160408051601f198184030181529181526020820180516001600160e01b031663c87b56dd60e01b17905251610ac391906111a3565b5f60405180830381855afa9150503d805f8114610afb576040519150601f19603f3d011682016040523d82523d5f602084013e610b00565b606091505b509150915081610b2057505060408051602081019091525f815292915050565b80806020019051810190610b3491906111b9565b949350505050565b803561ffff81168114610b4d575f5ffd5b919050565b5f5f83601f840112610b62575f5ffd5b50813567ffffffffffffffff811115610b79575f5ffd5b602083019150836020828501011115610b90575f5ffd5b9250929050565b5f5f5f5f5f5f60808789031215610bac575f5ffd5b610bb587610b3c565b9550602087013567ffffffffffffffff811115610bd0575f5ffd5b610bdc89828a01610b52565b909650945050604087013567ffffffffffffffff81168114610bfc575f5ffd5b9250606087013567ffffffffffffffff811115610c17575f5ffd5b610c2389828a01610b52565b979a9699509497509295939492505050565b5f60208284031215610c45575f5ffd5b610c4e82610b3c565b9392505050565b5f81518084528060208401602086015e5f602082860101526020601f19601f83011685010191505092915050565b602081525f610c4e6020830184610c55565b6001600160a01b0381168114610978575f5ffd5b5f5f5f5f5f5f5f60a0888a031215610cbf575f5ffd5b610cc888610b3c565b9650602088013567ffffffffffffffff811115610ce3575f5ffd5b610cef8a828b01610b52565b909750955050604088013593506060880135610d0a81610c95565b9250608088013567ffffffffffffffff811115610d25575f5ffd5b610d318a828b01610b52565b989b979a50959850939692959293505050565b5f60208284031215610d54575f5ffd5b5035919050565b5f5f60408385031215610d6c575f5ffd5b823591506020830135610d7e81610c95565b809150509250929050565b5f5f5f60408486031215610d9b575f5ffd5b610da484610b3c565b9250602084013567ffffffffffffffff811115610dbf575f5ffd5b610dcb86828701610b52565b9497909650939450505050565b5f60208284031215610de8575f5ffd5b8135610c4e81610c95565b600181811c90821680610e0757607f821691505b602082108103610e2557634e487b7160e01b5f52602260045260245ffd5b50919050565b818382375f9101908152919050565b8035610b4d81610c95565b634e487b7160e01b5f52604160045260245ffd5b604051601f8201601f1916810167ffffffffffffffff81118282101715610e8257610e82610e45565b604052919050565b5f67ffffffffffffffff821115610ea357610ea3610e45565b50601f01601f191660200190565b5f5f5f5f5f5f60c08789031215610ec6575f5ffd5b863560ff81168114610ed6575f5ffd5b9550610ee460208801610b3c565b94506040870135610ef481610c95565b935060608701359250608087013567ffffffffffffffff811115610f16575f5ffd5b8701601f81018913610f26575f5ffd5b8035610f39610f3482610e8a565b610e59565b8181528a6020838501011115610f4d575f5ffd5b816020840160208301375f60208383010152809450505050610f7160a08801610e3a565b90509295509295509295565b60ff8716815261ffff8616602082015260018060a01b038516604082015283606082015260c060808201525f610fb660c0830185610c55565b905060018060a01b03831660a0830152979650505050505050565b81835281816020850137505f828201602090810191909152601f909101601f19169091010190565b61ffff8916815260c060208201525f61101660c08301898b610fd1565b82810360408401526110288189610c55565b6001600160a01b0388811660608601528716608085015283810360a08501529050611054818587610fd1565b9b9a5050505050505050505050565b61ffff8516815260018060a01b0384166020820152826040820152608060608201525f6110936080830184610c55565b9695505050505050565b601f8211156110e457805f5260205f20601f840160051c810160208510156110c25750805b601f840160051c820191505b818110156110e1575f81556001016110ce565b50505b505050565b67ffffffffffffffff83111561110157611101610e45565b6111158361110f8354610df3565b8361109d565b5f601f841160018114611146575f851561112f5750838201355b5f19600387901b1c1916600186901b1783556110e1565b5f83815260208120601f198716915b828110156111755786850135825560209485019460019092019101611155565b5086821015611191575f1960f88860031b161c19848701351681555b505060018560011b0183555050505050565b5f82518060208501845e5f920191825250919050565b5f602082840312156111c9575f5ffd5b815167ffffffffffffffff8111156111df575f5ffd5b8201601f810184136111ef575f5ffd5b80516111fd610f3482610e8a565b818152856020838501011115611211575f5ffd5b8160208401602083015e5f9181016020019190915294935050505056fea26469706673582212206abe92840546b9431b539a1ceb471903a8ac804df7e1cf1cfedd988f7155e2cd64736f6c634300081c0033",
  "linkReferences": {},
  "deployedLinkReferences": {},
  "immutableReferences": {},
  "inputSourceName": "project/contracts/NftBridge.sol",
  "buildInfoId": "solc-0_8_28-ef55f6a56589ab2145c44557013081fbd09c2712"
}