{
  "_format": "hh3-artifact-1",
  "contractName": "ImageMintNFT",
  "sourceName": "contracts/MintNft.sol",
  "abi": [
    {
      "inputs": [],
      "stateMutability": "nonpayable",
      "type": "constructor"
    },
    {
      "inputs": [
        {
          "internalType": "address",
          "name": "sender",
          "type": "address"
        },
        {
          "internalType": "uint256",
          "name": "tokenId",
          "type": "uint256"
        },
        {
          "internalType": "address",
          "name": "owner",
          "type": "address"
        }
      ],
      "name": "ERC721IncorrectOwner",
      "type": "error"
    },
    {
      "inputs": [
        {
          "internalType": "address",
          "name": "operator",
          "type": "address"
        },
        {
          "internalType": "uint256",
          "name": "tokenId",
          "type": "uint256"
        }
      ],
      "name": "ERC721InsufficientApproval",
      "type": "error"
    },
    {
      "inputs": [
        {
          "internalType": "address",
          "name": "approver",
          "type": "address"
        }
      ],
      "name": "ERC721InvalidApprover",
      "type": "error"
    },
    {
      "inputs": [
        {
          "internalType": "address",
          "name": "operator",
          "type": "address"
        }
      ],
      "name": "ERC721InvalidOperator",
      "type": "error"
    },
    {
      "inputs": [
        {
          "internalType": "address",
          "name": "owner",
          "type": "address"
        }
      ],
      "name": "ERC721InvalidOwner",
      "type": "error"
    },
    {
      "inputs": [
        {
          "internalType": "address",
          "name": "receiver",
          "type": "address"
        }
      ],
      "name": "ERC721InvalidReceiver",
      "type": "error"
    },
    {
      "inputs": [
        {
          "internalType": "address",
          "name": "sender",
          "type": "address"
        }
      ],
      "name": "ERC721InvalidSender",
      "type": "error"
    },
    {
      "inputs": [
        {
          "internalType": "uint256",
          "name": "tokenId",
          "type": "uint256"
        }
      ],
      "name": "ERC721NonexistentToken",
      "type": "error"
    },
    {
      "inputs": [
        {
          "internalType": "address",
          "name": "owner",
          "type": "address"
        }
      ],
      "name": "OwnableInvalidOwner",
      "type": "error"
    },
    {
      "inputs": [
        {
          "internalType": "address",
          "name": "account",
          "type": "address"
        }
      ],
      "name": "OwnableUnauthorizedAccount",
      "type": "error"
    },
    {
      "anonymous": false,
      "inputs": [
        {
          "indexed": true,
          "internalType": "address",
          "name": "owner",
          "type": "address"
        },
        {
          "indexed": true,
          "internalType": "address",
          "name": "approved",
          "type": "address"
        },
        {
          "indexed": true,
          "internalType": "uint256",
          "name": "tokenId",
          "type": "uint256"
        }
      ],
      "name": "Approval",
      "type": "event"
    },
    {
      "anonymous": false,
      "inputs": [
        {
          "indexed": true,
          "internalType": "address",
          "name": "owner",
          "type": "address"
        },
        {
          "indexed": true,
          "internalType": "address",
          "name": "operator",
          "type": "address"
        },
        {
          "indexed": false,
          "internalType": "bool",
          "name": "approved",
          "type": "bool"
        }
      ],
      "name": "ApprovalForAll",
      "type": "event"
    },
    {
      "anonymous": false,
      "inputs": [
        {
          "indexed": true,
          "internalType": "address",
          "name": "previousOwner",
          "type": "address"
        },
        {
          "indexed": true,
          "internalType": "address",
          "name": "newOwner",
          "type": "address"
        }
      ],
      "name": "OwnershipTransferred",
      "type": "event"
    },
    {
      "anonymous": false,
      "inputs": [
        {
          "indexed": true,
          "internalType": "address",
          "name": "from",
          "type": "address"
        },
        {
          "indexed": true,
          "internalType": "address",
          "name": "to",
          "type": "address"
        },
        {
          "indexed": true,
          "internalType": "uint256",
          "name": "tokenId",
          "type": "uint256"
        }
      ],
      "name": "Transfer",
      "type": "event"
    },
    {
      "inputs": [
        {
          "internalType": "address",
          "name": "to",
          "type": "address"
        },
        {
          "internalType": "uint256",
          "name": "tokenId",
          "type": "uint256"
        }
      ],
      "name": "approve",
      "outputs": [],
      "stateMutability": "nonpayable",
      "type": "function"
    },
    {
      "inputs": [
        {
          "internalType": "address",
          "name": "owner",
          "type": "address"
        }
      ],
      "name": "balanceOf",
      "outputs": [
        {
          "internalType": "uint256",
          "name": "",
          "type": "uint256"
        }
      ],
      "stateMutability": "view",
      "type": "function"
    },
    {
      "inputs": [
        {
          "internalType": "uint256",
          "name": "tokenId",
          "type": "uint256"
        }
      ],
      "name": "exists",
      "outputs": [
        {
          "internalType": "bool",
          "name": "",
          "type": "bool"
        }
      ],
      "stateMutability": "view",
      "type": "function"
    },
    {
      "inputs": [
        {
          "internalType": "uint256",
          "name": "tokenId",
          "type": "uint256"
        }
      ],
      "name": "getApproved",
      "outputs": [
        {
          "internalType": "address",
          "name": "",
          "type": "address"
        }
      ],
      "stateMutability": "view",
      "type": "function"
    },
    {
      "inputs": [
        {
          "internalType": "address",
          "name": "owner",
          "type": "address"
        },
        {
          "internalType": "address",
          "name": "operator",
          "type": "address"
        }
      ],
      "name": "isApprovedForAll",
      "outputs": [
        {
          "internalType": "bool",
          "name": "",
          "type": "bool"
        }
      ],
      "stateMutability": "view",
      "type": "function"
    },
    {
      "inputs": [
        {
          "internalType": "string",
          "name": "_name",
          "type": "string"
        },
        {
          "internalType": "string",
          "name": "_cid",
          "type": "string"
        }
      ],
      "name": "mintNFT",
      "outputs": [],
      "stateMutability": "nonpayable",
      "type": "function"
    },
    {
      "inputs": [],
      "name": "name",
      "outputs": [
        {
          "internalType": "string",
          "name": "",
          "type": "string"
        }
      ],
      "stateMutability": "view",
      "type": "function"
    },
    {
      "inputs": [],
      "name": "nextTokenId",
      "outputs": [
        {
          "internalType": "uint256",
          "name": "",
          "type": "uint256"
        }
      ],
      "stateMutability": "view",
      "type": "function"
    },
    {
      "inputs": [],
      "name": "owner",
      "outputs": [
        {
          "internalType": "address",
          "name": "",
          "type": "address"
        }
      ],
      "stateMutability": "view",
      "type": "function"
    },
    {
      "inputs": [
        {
          "internalType": "uint256",
          "name": "tokenId",
          "type": "uint256"
        }
      ],
      "name": "ownerOf",
      "outputs": [
        {
          "internalType": "address",
          "name": "",
          "type": "address"
        }
      ],
      "stateMutability": "view",
      "type": "function"
    },
    {
      "inputs": [],
      "name": "renounceOwnership",
      "outputs": [],
      "stateMutability": "nonpayable",
      "type": "function"
    },
    {
      "inputs": [
        {
          "internalType": "address",
          "name": "from",
          "type": "address"
        },
        {
          "internalType": "address",
          "name": "to",
          "type": "address"
        },
        {
          "internalType": "uint256",
          "name": "tokenId",
          "type": "uint256"
        }
      ],
      "name": "safeTransferFrom",
      "outputs": [],
      "stateMutability": "nonpayable",
      "type": "function"
    },
    {
      "inputs": [
        {
          "internalType": "address",
          "name": "from",
          "type": "address"
        },
        {
          "internalType": "address",
          "name": "to",
          "type": "address"
        },
        {
          "internalType": "uint256",
          "name": "tokenId",
          "type": "uint256"
        },
        {
          "internalType": "bytes",
          "name": "data",
          "type": "bytes"
        }
      ],
      "name": "safeTransferFrom",
      "outputs": [],
      "stateMutability": "nonpayable",
      "type": "function"
    },
    {
      "inputs": [
        {
          "internalType": "address",
          "name": "operator",
          "type": "address"
        },
        {
          "internalType": "bool",
          "name": "approved",
          "type": "bool"
        }
      ],
      "name": "setApprovalForAll",
      "outputs": [],
      "stateMutability": "nonpayable",
      "type": "function"
    },
    {
      "inputs": [
        {
          "internalType": "bytes4",
          "name": "interfaceId",
          "type": "bytes4"
        }
      ],
      "name": "supportsInterface",
      "outputs": [
        {
          "internalType": "bool",
          "name": "",
          "type": "bool"
        }
      ],
      "stateMutability": "view",
      "type": "function"
    },
    {
      "inputs": [],
      "name": "symbol",
      "outputs": [
        {
          "internalType": "string",
          "name": "",
          "type": "string"
        }
      ],
      "stateMutability": "view",
      "type": "function"
    },
    {
      "inputs": [
        {
          "internalType": "uint256",
          "name": "",
          "type": "uint256"
        }
      ],
      "name": "tokenMetadata",
      "outputs": [
        {
          "internalType": "string",
          "name": "name",
          "type": "string"
        },
        {
          "internalType": "string",
          "name": "cid",
          "type": "string"
        }
      ],
      "stateMutability": "view",
      "type": "function"
    },
    {
      "inputs": [
        {
          "internalType": "uint256",
          "name": "tokenId",
          "type": "uint256"
        }
      ],
      "name": "tokenURI",
      "outputs": [
        {
          "internalType": "string",
          "name": "",
          "type": "string"
        }
      ],
      "stateMutability": "view",
      "type": "function"
    },
    {
      "inputs": [
        {
          "internalType": "address",
          "name": "from",
          "type": "address"
        },
        {
          "internalType": "address",
          "name": "to",
          "type": "address"
        },
        {
          "internalType": "uint256",
          "name": "tokenId",
          "type": "uint256"
        }
      ],
      "name": "transferFrom",
      "outputs": [],
      "stateMutability": "nonpayable",
      "type": "function"
    },
    {
      "inputs": [
        {
          "internalType": "address",
          "name": "newOwner",
          "type": "address"
        }
      ],
      "name": "transferOwnership",
      "outputs": [],
      "stateMutability": "nonpayable",
      "type": "function"
    }
  ],
  "bytecode": "0x608060405234801561000f575f5ffd5b50336040518060400160405280600c81526020016b125b5859d9535a5b9d13919560a21b81525060405180604001604052806005815260200164125353919560da1b815250815f90816100629190610197565b50600161006f8282610197565b5050506001600160a01b03811661009f57604051631e4fbdf760e01b81525f600482015260240160405180910390fd5b6100a8816100ae565b50610251565b600680546001600160a01b038381166001600160a01b0319831681179093556040519116919082907f8be0079c531659141344cd1fd0a4f28419497f9722a3daafe3b4186f6b6457e0905f90a35050565b634e487b7160e01b5f52604160045260245ffd5b600181811c9082168061012757607f821691505b60208210810361014557634e487b7160e01b5f52602260045260245ffd5b50919050565b601f82111561019257805f5260205f20601f840160051c810160208510156101705750805b601f840160051c820191505b8181101561018f575f815560010161017c565b50505b505050565b81516001600160401b038111156101b0576101b06100ff565b6101c4816101be8454610113565b8461014b565b6020601f8211600181146101f6575f83156101df5750848201515b5f19600385901b1c1916600184901b17845561018f565b5f84815260208120601f198516915b828110156102255787850151825560209485019460019092019101610205565b508482101561024257868401515f19600387901b60f8161c191681555b50505050600190811b01905550565b6114278061025e5f395ff3fe608060405234801561000f575f5ffd5b5060043610610127575f3560e01c8063715018a6116100a9578063b88d4fde1161006e578063b88d4fde1461028a578063c87b56dd1461029d578063e9605544146102b0578063e985e9c5146102c3578063f2fde38b146102d6575f5ffd5b8063715018a61461024d57806375794a3c146102555780638da5cb5b1461025e57806395d89b411461026f578063a22cb46514610277575f5ffd5b806342842e0e116100ef57806342842e0e146101bb5780634f558e79146101ce5780636352211e146101f85780636914db601461020b57806370a082311461022c575f5ffd5b806301ffc9a71461012b57806306fdde0314610153578063081812fc14610168578063095ea7b31461019357806323b872dd146101a8575b5f5ffd5b61013e610139366004610eeb565b6102e9565b60405190151581526020015b60405180910390f35b61015b61033a565b60405161014a9190610f3b565b61017b610176366004610f4d565b6103c9565b6040516001600160a01b03909116815260200161014a565b6101a66101a1366004610f7f565b6103f0565b005b6101a66101b6366004610fa7565b6103ff565b6101a66101c9366004610fa7565b61048d565b61013e6101dc366004610f4d565b5f908152600260205260409020546001600160a01b0316151590565b61017b610206366004610f4d565b6104ac565b61021e610219366004610f4d565b6104b6565b60405161014a929190610fe1565b61023f61023a36600461100e565b6105dd565b60405190815260200161014a565b6101a6610622565b61023f60075481565b6006546001600160a01b031661017b565b61015b610635565b6101a6610285366004611027565b610644565b6101a66102983660046110eb565b61064f565b61015b6102ab366004610f4d565b610667565b6101a66102be366004611180565b610827565b61013e6102d13660046111e5565b610894565b6101a66102e436600461100e565b6108c1565b5f6001600160e01b031982166380ac58cd60e01b148061031957506001600160e01b03198216635b5e139f60e01b145b8061033457506301ffc9a760e01b6001600160e01b03198316145b92915050565b60605f805461034890611216565b80601f016020809104026020016040519081016040528092919081815260200182805461037490611216565b80156103bf5780601f10610396576101008083540402835291602001916103bf565b820191905f5260205f20905b8154815290600101906020018083116103a257829003601f168201915b5050505050905090565b5f6103d3826108fe565b505f828152600460205260409020546001600160a01b0316610334565b6103fb828233610936565b5050565b6001600160a01b03821661042d57604051633250574960e11b81525f60048201526024015b60405180910390fd5b5f610439838333610943565b9050836001600160a01b0316816001600160a01b031614610487576040516364283d7b60e01b81526001600160a01b0380861660048301526024820184905282166044820152606401610424565b50505050565b6104a783838360405180602001604052805f81525061064f565b505050565b5f610334826108fe565b60086020525f90815260409020805481906104d090611216565b80601f01602080910402602001604051908101604052809291908181526020018280546104fc90611216565b80156105475780601f1061051e57610100808354040283529160200191610547565b820191905f5260205f20905b81548152906001019060200180831161052a57829003601f168201915b50505050509080600101805461055c90611216565b80601f016020809104026020016040519081016040528092919081815260200182805461058890611216565b80156105d35780601f106105aa576101008083540402835291602001916105d3565b820191905f5260205f20905b8154815290600101906020018083116105b657829003601f168201915b5050505050905082565b5f6001600160a01b038216610607576040516322718ad960e21b81525f6004820152602401610424565b506001600160a01b03165f9081526003602052604090205490565b61062a610a35565b6106335f610a62565b565b60606001805461034890611216565b6103fb338383610ab3565b61065a8484846103ff565b6104873385858585610b51565b5f818152600260205260409020546060906001600160a01b03166106c45760405162461bcd60e51b8152602060048201526014602482015273151bdad95b88191bd95cc81b9bdd08195e1a5cdd60621b6044820152606401610424565b5f8281526008602052604080822081518083019092528054829082906106e990611216565b80601f016020809104026020016040519081016040528092919081815260200182805461071590611216565b80156107605780601f1061073757610100808354040283529160200191610760565b820191905f5260205f20905b81548152906001019060200180831161074357829003601f168201915b5050505050815260200160018201805461077990611216565b80601f01602080910402602001604051908101604052809291908181526020018280546107a590611216565b80156107f05780601f106107c7576101008083540402835291602001916107f0565b820191905f5260205f20905b8154815290600101906020018083116107d357829003601f168201915b50505050508152505090508060200151604051602001610810919061124e565b604051602081830303815290604052915050919050565b6007546108343382610c79565b60408051808201825284815260208082018590525f8481526008909152919091208151819061086390826112bb565b506020820151600182019061087890826112bb565b50506007805491505f61088a83611376565b9190505550505050565b6001600160a01b039182165f90815260056020908152604080832093909416825291909152205460ff1690565b6108c9610a35565b6001600160a01b0381166108f257604051631e4fbdf760e01b81525f6004820152602401610424565b6108fb81610a62565b50565b5f818152600260205260408120546001600160a01b03168061033457604051637e27328960e01b815260048101849052602401610424565b6104a78383836001610c92565b5f828152600260205260408120546001600160a01b039081169083161561096f5761096f818486610d96565b6001600160a01b038116156109a95761098a5f855f5f610c92565b6001600160a01b0381165f90815260036020526040902080545f190190555b6001600160a01b038516156109d7576001600160a01b0385165f908152600360205260409020805460010190555b5f8481526002602052604080822080546001600160a01b0319166001600160a01b0389811691821790925591518793918516917fddf252ad1be2c89b69c2b068fc378daa952ba7f163c4a11628f55a4df523b3ef91a4949350505050565b6006546001600160a01b031633146106335760405163118cdaa760e01b8152336004820152602401610424565b600680546001600160a01b038381166001600160a01b0319831681179093556040519116919082907f8be0079c531659141344cd1fd0a4f28419497f9722a3daafe3b4186f6b6457e0905f90a35050565b6001600160a01b038216610ae557604051630b61174360e31b81526001600160a01b0383166004820152602401610424565b6001600160a01b038381165f81815260056020908152604080832094871680845294825291829020805460ff191686151590811790915591519182527f17307eab39ab6107e8899845ad3d59bd9653f200f220920489ca2b5937696c31910160405180910390a3505050565b6001600160a01b0383163b15610c7257604051630a85bd0160e11b81526001600160a01b0384169063150b7a0290610b9390889088908790879060040161139a565b6020604051808303815f875af1925050508015610bcd575060408051601f3d908101601f19168201909252610bca918101906113d6565b60015b610c34573d808015610bfa576040519150601f19603f3d011682016040523d82523d5f602084013e610bff565b606091505b5080515f03610c2c57604051633250574960e11b81526001600160a01b0385166004820152602401610424565b805160208201fd5b6001600160e01b03198116630a85bd0160e11b14610c7057604051633250574960e11b81526001600160a01b0385166004820152602401610424565b505b5050505050565b6103fb828260405180602001604052805f815250610dfa565b8080610ca657506001600160a01b03821615155b15610d67575f610cb5846108fe565b90506001600160a01b03831615801590610ce15750826001600160a01b0316816001600160a01b031614155b8015610cf45750610cf28184610894565b155b15610d1d5760405163a9fbf51f60e01b81526001600160a01b0384166004820152602401610424565b8115610d655783856001600160a01b0316826001600160a01b03167f8c5be1e5ebec7d5bd14f71427d1e84f3dd0314c0f7b2291e5b200ac8c7c3b92560405160405180910390a45b505b50505f90815260046020526040902080546001600160a01b0319166001600160a01b0392909216919091179055565b610da1838383610e11565b6104a7576001600160a01b038316610dcf57604051637e27328960e01b815260048101829052602401610424565b60405163177e802f60e01b81526001600160a01b038316600482015260248101829052604401610424565b610e048383610e75565b6104a7335f858585610b51565b5f6001600160a01b03831615801590610e6d5750826001600160a01b0316846001600160a01b03161480610e4a5750610e4a8484610894565b80610e6d57505f828152600460205260409020546001600160a01b038481169116145b949350505050565b6001600160a01b038216610e9e57604051633250574960e11b81525f6004820152602401610424565b5f610eaa83835f610943565b90506001600160a01b038116156104a7576040516339e3563760e11b81525f6004820152602401610424565b6001600160e01b0319811681146108fb575f5ffd5b5f60208284031215610efb575f5ffd5b8135610f0681610ed6565b9392505050565b5f81518084528060208401602086015e5f602082860101526020601f19601f83011685010191505092915050565b602081525f610f066020830184610f0d565b5f60208284031215610f5d575f5ffd5b5035919050565b80356001600160a01b0381168114610f7a575f5ffd5b919050565b5f5f60408385031215610f90575f5ffd5b610f9983610f64565b946020939093013593505050565b5f5f5f60608486031215610fb9575f5ffd5b610fc284610f64565b9250610fd060208501610f64565b929592945050506040919091013590565b604081525f610ff36040830185610f0d565b82810360208401526110058185610f0d565b95945050505050565b5f6020828403121561101e575f5ffd5b610f0682610f64565b5f5f60408385031215611038575f5ffd5b61104183610f64565b915060208301358015158114611055575f5ffd5b809150509250929050565b634e487b7160e01b5f52604160045260245ffd5b5f5f67ffffffffffffffff84111561108e5761108e611060565b50604051601f19601f85018116603f0116810181811067ffffffffffffffff821117156110bd576110bd611060565b6040528381529050808284018510156110d4575f5ffd5b838360208301375f60208583010152509392505050565b5f5f5f5f608085870312156110fe575f5ffd5b61110785610f64565b935061111560208601610f64565b925060408501359150606085013567ffffffffffffffff811115611137575f5ffd5b8501601f81018713611147575f5ffd5b61115687823560208401611074565b91505092959194509250565b5f82601f830112611171575f5ffd5b610f0683833560208501611074565b5f5f60408385031215611191575f5ffd5b823567ffffffffffffffff8111156111a7575f5ffd5b6111b385828601611162565b925050602083013567ffffffffffffffff8111156111cf575f5ffd5b6111db85828601611162565b9150509250929050565b5f5f604083850312156111f6575f5ffd5b6111ff83610f64565b915061120d60208401610f64565b90509250929050565b600181811c9082168061122a57607f821691505b60208210810361124857634e487b7160e01b5f52602260045260245ffd5b50919050565b66697066733a2f2f60c81b81525f82518060208501600785015e5f920160070191825250919050565b601f8211156104a757805f5260205f20601f840160051c8101602085101561129c5750805b601f840160051c820191505b81811015610c72575f81556001016112a8565b815167ffffffffffffffff8111156112d5576112d5611060565b6112e9816112e38454611216565b84611277565b6020601f82116001811461131b575f83156113045750848201515b5f19600385901b1c1916600184901b178455610c72565b5f84815260208120601f198516915b8281101561134a578785015182556020948501946001909201910161132a565b508482101561136757868401515f19600387901b60f8161c191681555b50505050600190811b01905550565b5f6001820161139357634e487b7160e01b5f52601160045260245ffd5b5060010190565b6001600160a01b03858116825284166020820152604081018390526080606082018190525f906113cc90830184610f0d565b9695505050505050565b5f602082840312156113e6575f5ffd5b8151610f0681610ed656fea264697066735822122030b06cc2c347c7ede94f682a6fc53746a64d6a54bcb4e22ad4c413b2e34a49fd64736f6c634300081c0033",
  "linkReferences": {},
  "deployedLinkReferences": {},
  "immutableReferences": {},
  "inputSourceName": "project/contracts/MintNft.sol",
  "buildInfoId": "solc-0_8_28-6f994471fdd4a49c0d7f9d8918461ad18eb7c0ba"
}