{"contracts/Quiz.sol":{"QuizCraftArena":{"abi":[{"anonymous":false,"inputs":[{"indexed":true,"internalType":"uint256","name":"lobbyId","type":"uint256"},{"indexed":false,"internalType":"address[]","name":"leaderboard","type":"address[]"}],"name":"LeaderboardSet","type":"event"},{"anonymous":false,"inputs":[{"indexed":true,"internalType":"uint256","name":"lobbyId","type":"uint256"}],"name":"LobbyCancelled","type":"event"},{"anonymous":false,"inputs":[{"indexed":true,"internalType":"uint256","name":"lobbyId","type":"uint256"},{"indexed":false,"internalType":"address","name":"winner","type":"address"},{"indexed":false,"internalType":"uint256","name":"prize","type":"uint256"}],"name":"LobbyCompleted","type":"event"},{"anonymous":false,"inputs":[{"indexed":true,"internalType":"uint256","name":"lobbyId","type":"uint256"},{"indexed":false,"internalType":"string","name":"name","type":"string"},{"indexed":false,"internalType":"string","name":"category","type":"string"},{"indexed":false,"internalType":"uint256","name":"entryFee","type":"uint256"},{"indexed":false,"internalType":"uint256","name":"maxPlayers","type":"uint256"},{"indexed":false,"internalType":"address","name":"creator","type":"address"}],"name":"LobbyCreated","type":"event"},{"anonymous":false,"inputs":[{"indexed":true,"internalType":"address","name":"previousOwner","type":"address"},{"indexed":true,"internalType":"address","name":"newOwner","type":"address"}],"name":"OwnershipTransferred","type":"event"},{"anonymous":false,"inputs":[{"indexed":true,"internalType":"uint256","name":"lobbyId","type":"uint256"},{"indexed":false,"internalType":"address","name":"player","type":"address"}],"name":"PlayerJoined","type":"event"},{"anonymous":false,"inputs":[{"indexed":true,"internalType":"uint256","name":"lobbyId","type":"uint256"},{"indexed":false,"internalType":"address[]","name":"players","type":"address[]"},{"indexed":false,"internalType":"uint256[]","name":"scores","type":"uint256[]"}],"name":"ScoresSubmitted","type":"event"},{"inputs":[],"name":"LOBBY_TIMEOUT","outputs":[{"internalType":"uint256","name":"","type":"uint256"}],"stateMutability":"view","type":"function"},{"inputs":[{"internalType":"string","name":"_name","type":"string"},{"internalType":"string","name":"_category","type":"string"},{"internalType":"uint256","name":"_entryFee","type":"uint256"},{"internalType":"uint256","name":"_maxPlayers","type":"uint256"}],"name":"createLobby","outputs":[{"internalType":"uint256","name":"","type":"uint256"}],"stateMutability":"nonpayable","type":"function"},{"inputs":[{"internalType":"uint256","name":"_lobbyId","type":"uint256"},{"internalType":"address","name":"_winner","type":"address"}],"name":"executeWinnerPayout","outputs":[],"stateMutability":"nonpayable","type":"function"},{"inputs":[{"internalType":"uint256","name":"_lobbyId","type":"uint256"}],"name":"getLobbyResult","outputs":[{"internalType":"enum QuizCraftArena.LobbyStatus","name":"","type":"uint8"},{"internalType":"address","name":"","type":"address"},{"internalType":"uint256","name":"","type":"uint256"}],"stateMutability":"view","type":"function"},{"inputs":[{"internalType":"uint256","name":"_lobbyId","type":"uint256"}],"name":"getPlayersInLobby","outputs":[{"internalType":"address[]","name":"","type":"address[]"}],"stateMutability":"view","type":"function"},{"inputs":[{"internalType":"uint256","name":"_lobbyId","type":"uint256"},{"internalType":"address","name":"_player","type":"address"}],"name":"isPlayerInLobby","outputs":[{"internalType":"bool","name":"","type":"bool"}],"stateMutability":"view","type":"function"},{"inputs":[{"internalType":"uint256","name":"_lobbyId","type":"uint256"}],"name":"joinLobby","outputs":[],"stateMutability":"payable","type":"function"},{"inputs":[{"internalType":"uint256","name":"","type":"uint256"}],"name":"leaderboardSet","outputs":[{"internalType":"bool","name":"","type":"bool"}],"stateMutability":"view","type":"function"},{"inputs":[{"internalType":"uint256","name":"","type":"uint256"}],"name":"lobbies","outputs":[{"internalType":"uint256","name":"id","type":"uint256"},{"internalType":"string","name":"name","type":"string"},{"internalType":"string","name":"category","type":"string"},{"internalType":"uint256","name":"entryFee","type":"uint256"},{"internalType":"uint256","name":"playerCount","type":"uint256"},{"internalType":"uint256","name":"maxPlayers","type":"uint256"},{"internalType":"uint256","name":"prizePool","type":"uint256"},{"internalType":"uint256","name":"createdAt","type":"uint256"},{"internalType":"enum QuizCraftArena.LobbyStatus","name":"status","type":"uint8"},{"internalType":"enum QuizCraftArena.DistributionStatus","name":"distribution","type":"uint8"},{"internalType":"address","name":"winner","type":"address"},{"internalType":"address","name":"creator","type":"address"}],"stateMutability":"view","type":"function"},{"inputs":[{"internalType":"uint256","name":"","type":"uint256"},{"internalType":"uint256","name":"","type":"uint256"}],"name":"lobbyLeaderboard","outputs":[{"internalType":"address","name":"","type":"address"}],"stateMutability":"view","type":"function"},{"inputs":[],"name":"nextLobbyId","outputs":[{"internalType":"uint256","name":"","type":"uint256"}],"stateMutability":"view","type":"function"},{"inputs":[],"name":"owner","outputs":[{"internalType":"address","name":"","type":"address"}],"stateMutability":"view","type":"function"},{"inputs":[{"internalType":"uint256","name":"","type":"uint256"},{"internalType":"address","name":"","type":"address"}],"name":"playerScores","outputs":[{"internalType":"uint256","name":"","type":"uint256"}],"stateMutability":"view","type":"function"},{"inputs":[],"name":"renounceOwnership","outputs":[],"stateMutability":"nonpayable","type":"function"},{"inputs":[{"internalType":"address","name":"newOwner","type":"address"}],"name":"transferOwnership","outputs":[],"stateMutability":"nonpayable","type":"function"},{"inputs":[{"internalType":"contract IERC20","name":"_token","type":"address"},{"internalType":"address","name":"_to","type":"address"}],"name":"withdrawERC20","outputs":[],"stateMutability":"nonpayable","type":"function"},{"stateMutability":"payable","type":"receive"}],"evm":{"bytecode":{"linkReferences":{},"object":"60806040523480156200001157600080fd5b5060016000819055506200003a6200002e6200004060201b60201c565b6200004860201b60201c565b6200010e565b600033905090565b6000600160009054906101000a900473ffffffffffffffffffffffffffffffffffffffff16905081600160006101000a81548173ffffffffffffffffffffffffffffffffffffffff021916908373ffffffffffffffffffffffffffffffffffffffff1602179055508173ffffffffffffffffffffffffffffffffffffffff168173ffffffffffffffffffffffffffffffffffffffff167f8be0079c531659141344cd1fd0a4f28419497f9722a3daafe3b4186f6b6457e060405160405180910390a35050565b612da6806200011e6000396000f3fe6080604052600436106100f65760003560e01c80638da5cb5b1161008a578063c309b1e311610059578063c309b1e3146103b2578063d85cdcb6146103dd578063e9173b3a1461041a578063f2fde38b1461043657610136565b80638da5cb5b146102f45780638e9be6f61461031f5780639456fbcc1461035e578063a16353bf1461038757610136565b80636e8fb4c6116100c65780636e8fb4c61461021b578063715018a614610263578063729f767d1461027a578063869bb51b146102b757610136565b8062200e271461013b5780630cc46ba7146101785780632a14ebb4146101a1578063559ab8cc146101de57610136565b36610136576040517f08c379a000000000000000000000000000000000000000000000000000000000815260040161012d9061196f565b60405180910390fd5b600080fd5b34801561014757600080fd5b50610162600480360381019061015d9190611a37565b61045f565b60405161016f9190611a86565b60405180910390f35b34801561018457600080fd5b5061019f600480360381019061019a9190611a37565b610484565b005b3480156101ad57600080fd5b506101c860048036038101906101c39190611be7565b610904565b6040516101d59190611a86565b60405180910390f35b3480156101ea57600080fd5b5061020560048036038101906102009190611a37565b610b92565b6040516102129190611ca1565b60405180910390f35b34801561022757600080fd5b50610242600480360381019061023d9190611cbc565b610c58565b60405161025a9c9b9a99989796959493929190611e2e565b60405180910390f35b34801561026f57600080fd5b50610278610e22565b005b34801561028657600080fd5b506102a1600480360381019061029c9190611cbc565b610e36565b6040516102ae9190611ca1565b60405180910390f35b3480156102c357600080fd5b506102de60048036038101906102d99190611ef6565b610e56565b6040516102eb9190611f36565b60405180910390f35b34801561030057600080fd5b50610309610ea4565b6040516103169190611f36565b60405180910390f35b34801561032b57600080fd5b5061034660048036038101906103419190611cbc565b610ece565b60405161035593929190611f51565b60405180910390f35b34801561036a57600080fd5b5061038560048036038101906103809190611fc6565b61100e565b005b34801561039357600080fd5b5061039c61115b565b6040516103a99190611a86565b60405180910390f35b3480156103be57600080fd5b506103c7611161565b6040516103d49190611a86565b60405180910390f35b3480156103e957600080fd5b5061040460048036038101906103ff9190611cbc565b611167565b60405161041191906120c4565b60405180910390f35b610434600480360381019061042f9190611cbc565b611251565b005b34801561044257600080fd5b5061045d600480360381019061045891906120e6565b611645565b005b6003602052816000526040600020602052806000526040600020600091509150505481565b61048c6116c9565b8160065481106104d1576040517f08c379a00000000000000000000000000000000000000000000000000000000081526004016104c89061215f565b60405180910390fd5b8260026000828152602001908152602001600020600b0160009054906101000a900473ffffffffffffffffffffffffffffffffffffffff1673ffffffffffffffffffffffffffffffffffffffff163373ffffffffffffffffffffffffffffffffffffffff1614610576576040517f08c379a000000000000000000000000000000000000000000000000000000000815260040161056d906121f1565b60405180910390fd5b6000600260008681526020019081526020016000209050600260048111156105a1576105a0611d60565b5b8160080160009054906101000a900460ff1660048111156105c5576105c4611d60565b5b14610605576040517f08c379a00000000000000000000000000000000000000000000000000000000081526004016105fc9061225d565b60405180910390fd5b61060f8585610b92565b61064e576040517f08c379a0000000000000000000000000000000000000000000000000000000008152600401610645906122c9565b60405180910390fd5b6000600181111561066257610661611d60565b5b8160080160019054906101000a900460ff16600181111561068657610685611d60565b5b146106c6576040517f08c379a00000000000000000000000000000000000000000000000000000000081526004016106bd90612335565b60405180910390fd5b61012c81600701546106d89190612384565b42101561071a576040517f08c379a000000000000000000000000000000000000000000000000000000000815260040161071190612426565b60405180910390fd5b60038160080160006101000a81548160ff0219169083600481111561074257610741611d60565b5b02179055508381600a0160006101000a81548173ffffffffffffffffffffffffffffffffffffffff021916908373ffffffffffffffffffffffffffffffffffffffff16021790555060018160080160016101000a81548160ff021916908360018111156107b2576107b1611d60565b5b021790555060008160060154905060008111610803576040517f08c379a00000000000000000000000000000000000000000000000000000000081526004016107fa90612492565b60405180910390fd5b6000826006018190555060008573ffffffffffffffffffffffffffffffffffffffff1682604051610833906124e3565b60006040518083038185875af1925050503d8060008114610870576040519150601f19603f3d011682016040523d82523d6000602084013e610875565b606091505b50509050806108b9576040517f08c379a00000000000000000000000000000000000000000000000000000000081526004016108b090612544565b60405180910390fd5b867f5d36374a8d1a6cae8e46381aea50cae98b85e5ede9e10916d26179527900e52087846040516108eb929190612564565b60405180910390a25050505050610900611719565b5050565b600080855111610949576040517f08c379a0000000000000000000000000000000000000000000000000000000008152600401610940906125d9565b60405180910390fd5b600084511161098d576040517f08c379a000000000000000000000000000000000000000000000000000000000815260040161098490612645565b60405180910390fd5b600083116109d0576040517f08c379a00000000000000000000000000000000000000000000000000000000081526004016109c7906126b1565b60405180910390fd5b6001821180156109e15750600a8211155b610a20576040517f08c379a0000000000000000000000000000000000000000000000000000000008152600401610a179061271d565b60405180910390fd5b600060066000815480929190610a359061273d565b919050559050600060026000838152602001908152602001600020905081816000018190555086816001019080519060200190610a7392919061186f565b5085816002019080519060200190610a8c92919061186f565b5084816003018190555083816005018190555042816007018190555060008160080160006101000a81548160ff02191690836004811115610ad057610acf611d60565b5b021790555060008160080160016101000a81548160ff02191690836001811115610afd57610afc611d60565b5b02179055503381600b0160006101000a81548173ffffffffffffffffffffffffffffffffffffffff021916908373ffffffffffffffffffffffffffffffffffffffff160217905550817f0e2b64f820c6349ce53d20faa9c7eba7858ae3c3ea29cc7fbf30c50fffcf31708888888833604051610b7d959493929190612786565b60405180910390a28192505050949350505050565b60008060026000858152602001908152602001600020600901905060005b8180549050811015610c4b578373ffffffffffffffffffffffffffffffffffffffff16828281548110610be657610be56127e7565b5b9060005260206000200160009054906101000a900473ffffffffffffffffffffffffffffffffffffffff1673ffffffffffffffffffffffffffffffffffffffff161415610c3857600192505050610c52565b8080610c439061273d565b915050610bb0565b5060009150505b92915050565b6002602052806000526040600020600091509050806000015490806001018054610c8190612845565b80601f0160208091040260200160405190810160405280929190818152602001828054610cad90612845565b8015610cfa5780601f10610ccf57610100808354040283529160200191610cfa565b820191906000526020600020905b815481529060010190602001808311610cdd57829003601f168201915b505050505090806002018054610d0f90612845565b80601f0160208091040260200160405190810160405280929190818152602001828054610d3b90612845565b8015610d885780601f10610d5d57610100808354040283529160200191610d88565b820191906000526020600020905b815481529060010190602001808311610d6b57829003601f168201915b5050505050908060030154908060040154908060050154908060060154908060070154908060080160009054906101000a900460ff16908060080160019054906101000a900460ff169080600a0160009054906101000a900473ffffffffffffffffffffffffffffffffffffffff169080600b0160009054906101000a900473ffffffffffffffffffffffffffffffffffffffff1690508c565b610e2a611723565b610e3460006117a1565b565b60056020528060005260406000206000915054906101000a900460ff1681565b60046020528160005260406000208181548110610e7257600080fd5b906000526020600020016000915091509054906101000a900473ffffffffffffffffffffffffffffffffffffffff1681565b6000600160009054906101000a900473ffffffffffffffffffffffffffffffffffffffff16905090565b6000806000836006548110610f18576040517f08c379a0000000000000000000000000000000000000000000000000000000008152600401610f0f9061215f565b60405180910390fd5b600060026000878152602001908152602001600020905061012c8160070154610f419190612384565b42101580610f84575060036004811115610f5e57610f5d611d60565b5b8160080160009054906101000a900460ff166004811115610f8257610f81611d60565b5b145b610fc3576040517f08c379a0000000000000000000000000000000000000000000000000000000008152600401610fba906128c3565b60405180910390fd5b8060080160009054906101000a900460ff1681600a0160009054906101000a900473ffffffffffffffffffffffffffffffffffffffff16826006015494509450945050509193909250565b611016611723565b60008273ffffffffffffffffffffffffffffffffffffffff166370a08231306040518263ffffffff1660e01b81526004016110519190611f36565b602060405180830381865afa15801561106e573d6000803e3d6000fd5b505050506040513d601f19601f8201168201806040525081019061109291906128f8565b9050600081116110d7576040517f08c379a00000000000000000000000000000000000000000000000000000000081526004016110ce90612971565b60405180910390fd5b8273ffffffffffffffffffffffffffffffffffffffff1663a9059cbb83836040518363ffffffff1660e01b8152600401611112929190612564565b6020604051808303816000875af1158015611131573d6000803e3d6000fd5b505050506040513d601f19601f8201168201806040525081019061115591906129bd565b50505050565b61012c81565b60065481565b60608160065481106111ae576040517f08c379a00000000000000000000000000000000000000000000000000000000081526004016111a59061215f565b60405180910390fd5b6002600084815260200190815260200160002060090180548060200260200160405190810160405280929190818152602001828054801561124457602002820191906000526020600020905b8160009054906101000a900473ffffffffffffffffffffffffffffffffffffffff1673ffffffffffffffffffffffffffffffffffffffff16815260200190600101908083116111fa575b5050505050915050919050565b6112596116c9565b80600654811061129e576040517f08c379a00000000000000000000000000000000000000000000000000000000081526004016112959061215f565b60405180910390fd5b6000600260008481526020019081526020016000209050600060048111156112c9576112c8611d60565b5b8160080160009054906101000a900460ff1660048111156112ed576112ec611d60565b5b148061132e57506001600481111561130857611307611d60565b5b8160080160009054906101000a900460ff16600481111561132c5761132b611d60565b5b145b61136d576040517f08c379a000000000000000000000000000000000000000000000000000000000815260040161136490612a36565b60405180910390fd5b806003015434146113b3576040517f08c379a00000000000000000000000000000000000000000000000000000000081526004016113aa90612aa2565b60405180910390fd5b8060050154816009018054905010611400576040517f08c379a00000000000000000000000000000000000000000000000000000000081526004016113f790612b0e565b60405180910390fd5b61012c81600701546114129190612384565b421115611454576040517f08c379a000000000000000000000000000000000000000000000000000000000815260040161144b90612b7a565b60405180910390fd5b80600b0160009054906101000a900473ffffffffffffffffffffffffffffffffffffffff1673ffffffffffffffffffffffffffffffffffffffff163373ffffffffffffffffffffffffffffffffffffffff1614156114e7576040517f08c379a00000000000000000000000000000000000000000000000000000000081526004016114de90612be6565b60405180910390fd5b80600901339080600181540180825580915050600190039060005260206000200160009091909190916101000a81548173ffffffffffffffffffffffffffffffffffffffff021916908373ffffffffffffffffffffffffffffffffffffffff1602179055508060040160008154809291906115619061273d565b91905055503481600601600082825461157a9190612384565b92505081905550827f87969bc7faf902221a147b95ceba76e011c5efb0339a0a8ee7a2bb82d9cfbbd6336040516115b19190611f36565b60405180910390a26001816009018054905014156115f75760018160080160006101000a81548160ff021916908360048111156115f1576115f0611d60565b5b02179055505b8060050154816009018054905014156116385760028160080160006101000a81548160ff0219169083600481111561163257611631611d60565b5b02179055505b5050611642611719565b50565b61164d611723565b600073ffffffffffffffffffffffffffffffffffffffff168173ffffffffffffffffffffffffffffffffffffffff1614156116bd576040517f08c379a00000000000000000000000000000000000000000000000000000000081526004016116b490612c78565b60405180910390fd5b6116c6816117a1565b50565b6002600054141561170f576040517f08c379a000000000000000000000000000000000000000000000000000000000815260040161170690612ce4565b60405180910390fd5b6002600081905550565b6001600081905550565b61172b611867565b73ffffffffffffffffffffffffffffffffffffffff16611749610ea4565b73ffffffffffffffffffffffffffffffffffffffff161461179f576040517f08c379a000000000000000000000000000000000000000000000000000000000815260040161179690612d50565b60405180910390fd5b565b6000600160009054906101000a900473ffffffffffffffffffffffffffffffffffffffff16905081600160006101000a81548173ffffffffffffffffffffffffffffffffffffffff021916908373ffffffffffffffffffffffffffffffffffffffff1602179055508173ffffffffffffffffffffffffffffffffffffffff168173ffffffffffffffffffffffffffffffffffffffff167f8be0079c531659141344cd1fd0a4f28419497f9722a3daafe3b4186f6b6457e060405160405180910390a35050565b600033905090565b82805461187b90612845565b90600052602060002090601f01602090048101928261189d57600085556118e4565b82601f106118b657805160ff19168380011785556118e4565b828001600101855582156118e4579182015b828111156118e35782518255916020019190600101906118c8565b5b5090506118f191906118f5565b5090565b5b8082111561190e5760008160009055506001016118f6565b5090565b600082825260208201905092915050565b7f446f206e6f742073656e6420455448206469726563746c790000000000000000600082015250565b6000611959601883611912565b915061196482611923565b602082019050919050565b600060208201905081810360008301526119888161194c565b9050919050565b6000604051905090565b600080fd5b600080fd5b6000819050919050565b6119b6816119a3565b81146119c157600080fd5b50565b6000813590506119d3816119ad565b92915050565b600073ffffffffffffffffffffffffffffffffffffffff82169050919050565b6000611a04826119d9565b9050919050565b611a14816119f9565b8114611a1f57600080fd5b50565b600081359050611a3181611a0b565b92915050565b60008060408385031215611a4e57611a4d611999565b5b6000611a5c858286016119c4565b9250506020611a6d85828601611a22565b9150509250929050565b611a80816119a3565b82525050565b6000602082019050611a9b6000830184611a77565b92915050565b600080fd5b600080fd5b6000601f19601f8301169050919050565b7f4e487b7100000000000000000000000000000000000000000000000000000000600052604160045260246000fd5b611af482611aab565b810181811067ffffffffffffffff82111715611b1357611b12611abc565b5b80604052505050565b6000611b2661198f565b9050611b328282611aeb565b919050565b600067ffffffffffffffff821115611b5257611b51611abc565b5b611b5b82611aab565b9050602081019050919050565b82818337600083830152505050565b6000611b8a611b8584611b37565b611b1c565b905082815260208101848484011115611ba657611ba5611aa6565b5b611bb1848285611b68565b509392505050565b600082601f830112611bce57611bcd611aa1565b5b8135611bde848260208601611b77565b91505092915050565b60008060008060808587031215611c0157611c00611999565b5b600085013567ffffffffffffffff811115611c1f57611c1e61199e565b5b611c2b87828801611bb9565b945050602085013567ffffffffffffffff811115611c4c57611c4b61199e565b5b611c5887828801611bb9565b9350506040611c69878288016119c4565b9250506060611c7a878288016119c4565b91505092959194509250565b60008115159050919050565b611c9b81611c86565b82525050565b6000602082019050611cb66000830184611c92565b92915050565b600060208284031215611cd257611cd1611999565b5b6000611ce0848285016119c4565b91505092915050565b600081519050919050565b60005b83811015611d12578082015181840152602081019050611cf7565b83811115611d21576000848401525b50505050565b6000611d3282611ce9565b611d3c8185611912565b9350611d4c818560208601611cf4565b611d5581611aab565b840191505092915050565b7f4e487b7100000000000000000000000000000000000000000000000000000000600052602160045260246000fd5b60058110611da057611d9f611d60565b5b50565b6000819050611db182611d8f565b919050565b6000611dc182611da3565b9050919050565b611dd181611db6565b82525050565b60028110611de857611de7611d60565b5b50565b6000819050611df982611dd7565b919050565b6000611e0982611deb565b9050919050565b611e1981611dfe565b82525050565b611e28816119f9565b82525050565b600061018082019050611e44600083018f611a77565b8181036020830152611e56818e611d27565b90508181036040830152611e6a818d611d27565b9050611e79606083018c611a77565b611e86608083018b611a77565b611e9360a083018a611a77565b611ea060c0830189611a77565b611ead60e0830188611a77565b611ebb610100830187611dc8565b611ec9610120830186611e10565b611ed7610140830185611e1f565b611ee5610160830184611e1f565b9d9c50505050505050505050505050565b60008060408385031215611f0d57611f0c611999565b5b6000611f1b858286016119c4565b9250506020611f2c858286016119c4565b9150509250929050565b6000602082019050611f4b6000830184611e1f565b92915050565b6000606082019050611f666000830186611dc8565b611f736020830185611e1f565b611f806040830184611a77565b949350505050565b6000611f93826119f9565b9050919050565b611fa381611f88565b8114611fae57600080fd5b50565b600081359050611fc081611f9a565b92915050565b60008060408385031215611fdd57611fdc611999565b5b6000611feb85828601611fb1565b9250506020611ffc85828601611a22565b9150509250929050565b600081519050919050565b600082825260208201905092915050565b6000819050602082019050919050565b61203b816119f9565b82525050565b600061204d8383612032565b60208301905092915050565b6000602082019050919050565b600061207182612006565b61207b8185612011565b935061208683612022565b8060005b838110156120b757815161209e8882612041565b97506120a983612059565b92505060018101905061208a565b5085935050505092915050565b600060208201905081810360008301526120de8184612066565b905092915050565b6000602082840312156120fc576120fb611999565b5b600061210a84828501611a22565b91505092915050565b7f4c6f62627920646f6573206e6f74206578697374000000000000000000000000600082015250565b6000612149601483611912565b915061215482612113565b602082019050919050565b600060208201905081810360008301526121788161213c565b9050919050565b7f4f6e6c79206c6f6262792063726561746f722063616e2065786563757465207460008201527f6869730000000000000000000000000000000000000000000000000000000000602082015250565b60006121db602383611912565b91506121e68261217f565b604082019050919050565b6000602082019050818103600083015261220a816121ce565b9050919050565b7f4c6f626279206e6f7420696e2070726f67726573730000000000000000000000600082015250565b6000612247601583611912565b915061225282612211565b602082019050919050565b600060208201905081810360008301526122768161223a565b9050919050565b7f57696e6e6572206e6f7420696e2074686973206c6f6262790000000000000000600082015250565b60006122b3601883611912565b91506122be8261227d565b602082019050919050565b600060208201905081810360008301526122e2816122a6565b9050919050565b7f416c726561647920646973747269627574656400000000000000000000000000600082015250565b600061231f601383611912565b915061232a826122e9565b602082019050919050565b6000602082019050818103600083015261234e81612312565b9050919050565b7f4e487b7100000000000000000000000000000000000000000000000000000000600052601160045260246000fd5b600061238f826119a3565b915061239a836119a3565b9250827fffffffffffffffffffffffffffffffffffffffffffffffffffffffffffffffff038211156123cf576123ce612355565b5b828201905092915050565b7f4c6f626279206e6f742065787069726564207965740000000000000000000000600082015250565b6000612410601583611912565b915061241b826123da565b602082019050919050565b6000602082019050818103600083015261243f81612403565b9050919050565b7f4e6f207072697a6520746f206469737472696275746500000000000000000000600082015250565b600061247c601683611912565b915061248782612446565b602082019050919050565b600060208201905081810360008301526124ab8161246f565b9050919050565b600081905092915050565b50565b60006124cd6000836124b2565b91506124d8826124bd565b600082019050919050565b60006124ee826124c0565b9150819050919050565b7f5072697a65207472616e73666572206661696c65640000000000000000000000600082015250565b600061252e601583611912565b9150612539826124f8565b602082019050919050565b6000602082019050818103600083015261255d81612521565b9050919050565b60006040820190506125796000830185611e1f565b6125866020830184611a77565b9392505050565b7f4c6f626279206e616d652063616e6e6f7420626520656d707479000000000000600082015250565b60006125c3601a83611912565b91506125ce8261258d565b602082019050919050565b600060208201905081810360008301526125f2816125b6565b9050919050565b7f43617465676f72792063616e6e6f7420626520656d7074790000000000000000600082015250565b600061262f601883611912565b915061263a826125f9565b602082019050919050565b6000602082019050818103600083015261265e81612622565b9050919050565b7f456e74727920666565206d7573742062652067726561746572207468616e2030600082015250565b600061269b602083611912565b91506126a682612665565b602082019050919050565b600060208201905081810360008301526126ca8161268e565b9050919050565b7f496e76616c6964206d617820706c617965727300000000000000000000000000600082015250565b6000612707601383611912565b9150612712826126d1565b602082019050919050565b60006020820190508181036000830152612736816126fa565b9050919050565b6000612748826119a3565b91507fffffffffffffffffffffffffffffffffffffffffffffffffffffffffffffffff82141561277b5761277a612355565b5b600182019050919050565b600060a08201905081810360008301526127a08188611d27565b905081810360208301526127b48187611d27565b90506127c36040830186611a77565b6127d06060830185611a77565b6127dd6080830184611e1f565b9695505050505050565b7f4e487b7100000000000000000000000000000000000000000000000000000000600052603260045260246000fd5b7f4e487b7100000000000000000000000000000000000000000000000000000000600052602260045260246000fd5b6000600282049050600182168061285d57607f821691505b6020821081141561287157612870612816565b5b50919050565b7f526573756c7473206e6f7420617661696c61626c652079657400000000000000600082015250565b60006128ad601983611912565b91506128b882612877565b602082019050919050565b600060208201905081810360008301526128dc816128a0565b9050919050565b6000815190506128f2816119ad565b92915050565b60006020828403121561290e5761290d611999565b5b600061291c848285016128e3565b91505092915050565b7f4e6f20746f6b656e7320746f2077697468647261770000000000000000000000600082015250565b600061295b601583611912565b915061296682612925565b602082019050919050565b6000602082019050818103600083015261298a8161294e565b9050919050565b61299a81611c86565b81146129a557600080fd5b50565b6000815190506129b781612991565b92915050565b6000602082840312156129d3576129d2611999565b5b60006129e1848285016129a8565b91505092915050565b7f4c6f626279206e6f74206f70656e000000000000000000000000000000000000600082015250565b6000612a20600e83611912565b9150612a2b826129ea565b602082019050919050565b60006020820190508181036000830152612a4f81612a13565b9050919050565b7f496e636f727265637420656e7472792066656500000000000000000000000000600082015250565b6000612a8c601383611912565b9150612a9782612a56565b602082019050919050565b60006020820190508181036000830152612abb81612a7f565b9050919050565b7f4c6f6262792066756c6c00000000000000000000000000000000000000000000600082015250565b6000612af8600a83611912565b9150612b0382612ac2565b602082019050919050565b60006020820190508181036000830152612b2781612aeb565b9050919050565b7f4c6f626279206578706972656400000000000000000000000000000000000000600082015250565b6000612b64600d83611912565b9150612b6f82612b2e565b602082019050919050565b60006020820190508181036000830152612b9381612b57565b9050919050565b7f43726561746f722063616e6e6f74206a6f696e2074686973206c6f6262790000600082015250565b6000612bd0601e83611912565b9150612bdb82612b9a565b602082019050919050565b60006020820190508181036000830152612bff81612bc3565b9050919050565b7f4f776e61626c653a206e6577206f776e657220697320746865207a65726f206160008201527f6464726573730000000000000000000000000000000000000000000000000000602082015250565b6000612c62602683611912565b9150612c6d82612c06565b604082019050919050565b60006020820190508181036000830152612c9181612c55565b9050919050565b7f5265656e7472616e637947756172643a207265656e7472616e742063616c6c00600082015250565b6000612cce601f83611912565b9150612cd982612c98565b602082019050919050565b60006020820190508181036000830152612cfd81612cc1565b9050919050565b7f4f776e61626c653a2063616c6c6572206973206e6f7420746865206f776e6572600082015250565b6000612d3a602083611912565b9150612d4582612d04565b602082019050919050565b60006020820190508181036000830152612d6981612d2d565b905091905056fea26469706673582212207469c0f6fffbb88026b3c09005027bb10f0a4b3d603e9e21ec9b8f06387b310364736f6c634300080a0033","opcodes":"PUSH1 0x80 PUSH1 0x40 MSTORE CALLVALUE DUP1 ISZERO PUSH3 0x11 JUMPI PUSH1 0x0 DUP1 REVERT JUMPDEST POP PUSH1 0x1 PUSH1 0x0 DUP2 SWAP1 SSTORE POP PUSH3 0x3A PUSH3 0x2E PUSH3 0x40 PUSH1 0x20 SHL PUSH1 0x20 SHR JUMP JUMPDEST PUSH3 0x48 PUSH1 0x20 SHL PUSH1 0x20 SHR JUMP JUMPDEST PUSH3 0x10E JUMP JUMPDEST PUSH1 0x0 CALLER SWAP1 POP SWAP1 JUMP JUMPDEST PUSH1 0x0 PUSH1 0x1 PUSH1 0x0 SWAP1 SLOAD SWAP1 PUSH2 0x100 EXP SWAP1 DIV PUSH20 0xFFFFFFFFFFFFFFFFFFFFFFFFFFFFFFFFFFFFFFFF AND SWAP1 POP DUP2 PUSH1 0x1 PUSH1 0x0 PUSH2 0x100 EXP DUP2 SLOAD DUP2 PUSH20 0xFFFFFFFFFFFFFFFFFFFFFFFFFFFFFFFFFFFFFFFF MUL NOT AND SWAP1 DUP4 PUSH20 0xFFFFFFFFFFFFFFFFFFFFFFFFFFFFFFFFFFFFFFFF AND MUL OR SWAP1 SSTORE POP DUP2 PUSH20 0xFFFFFFFFFFFFFFFFFFFFFFFFFFFFFFFFFFFFFFFF AND DUP2 PUSH20 0xFFFFFFFFFFFFFFFFFFFFFFFFFFFFFFFFFFFFFFFF AND PUSH32 0x8BE0079C531659141344CD1FD0A4F28419497F9722A3DAAFE3B4186F6B6457E0 PUSH1 0x40 MLOAD PUSH1 0x40 MLOAD DUP1 SWAP2 SUB SWAP1 LOG3 POP POP JUMP JUMPDEST PUSH2 0x2DA6 DUP1 PUSH3 0x11E PUSH1 0x0 CODECOPY PUSH1 0x0 RETURN INVALID PUSH1 0x80 PUSH1 0x40 MSTORE PUSH1 0x4 CALLDATASIZE LT PUSH2 0xF6 JUMPI PUSH1 0x0 CALLDATALOAD PUSH1 0xE0 SHR DUP1 PUSH4 0x8DA5CB5B GT PUSH2 0x8A JUMPI DUP1 PUSH4 0xC309B1E3 GT PUSH2 0x59 JUMPI DUP1 PUSH4 0xC309B1E3 EQ PUSH2 0x3B2 JUMPI DUP1 PUSH4 0xD85CDCB6 EQ PUSH2 0x3DD JUMPI DUP1 PUSH4 0xE9173B3A EQ PUSH2 0x41A JUMPI DUP1 PUSH4 0xF2FDE38B EQ PUSH2 0x436 JUMPI PUSH2 0x136 JUMP JUMPDEST DUP1 PUSH4 0x8DA5CB5B EQ PUSH2 0x2F4 JUMPI DUP1 PUSH4 0x8E9BE6F6 EQ PUSH2 0x31F JUMPI DUP1 PUSH4 0x9456FBCC EQ PUSH2 0x35E JUMPI DUP1 PUSH4 0xA16353BF EQ PUSH2 0x387 JUMPI PUSH2 0x136 JUMP JUMPDEST DUP1 PUSH4 0x6E8FB4C6 GT PUSH2 0xC6 JUMPI DUP1 PUSH4 0x6E8FB4C6 EQ PUSH2 0x21B JUMPI DUP1 PUSH4 0x715018A6 EQ PUSH2 0x263 JUMPI DUP1 PUSH4 0x729F767D EQ PUSH2 0x27A JUMPI DUP1 PUSH4 0x869BB51B EQ PUSH2 0x2B7 JUMPI PUSH2 0x136 JUMP JUMPDEST DUP1 PUSH3 0x200E27 EQ PUSH2 0x13B JUMPI DUP1 PUSH4 0xCC46BA7 EQ PUSH2 0x178 JUMPI DUP1 PUSH4 0x2A14EBB4 EQ PUSH2 0x1A1 JUMPI DUP1 PUSH4 0x559AB8CC EQ PUSH2 0x1DE JUMPI PUSH2 0x136 JUMP JUMPDEST CALLDATASIZE PUSH2 0x136 JUMPI PUSH1 0x40 MLOAD PUSH32 0x8C379A000000000000000000000000000000000000000000000000000000000 DUP2 MSTORE PUSH1 0x4 ADD PUSH2 0x12D SWAP1 PUSH2 0x196F JUMP JUMPDEST PUSH1 0x40 MLOAD DUP1 SWAP2 SUB SWAP1 REVERT JUMPDEST PUSH1 0x0 DUP1 REVERT JUMPDEST CALLVALUE DUP1 ISZERO PUSH2 0x147 JUMPI PUSH1 0x0 DUP1 REVERT JUMPDEST POP PUSH2 0x162 PUSH1 0x4 DUP1 CALLDATASIZE SUB DUP2 ADD SWAP1 PUSH2 0x15D SWAP2 SWAP1 PUSH2 0x1A37 JUMP JUMPDEST PUSH2 0x45F JUMP JUMPDEST PUSH1 0x40 MLOAD PUSH2 0x16F SWAP2 SWAP1 PUSH2 0x1A86 JUMP JUMPDEST PUSH1 0x40 MLOAD DUP1 SWAP2 SUB SWAP1 RETURN JUMPDEST CALLVALUE DUP1 ISZERO PUSH2 0x184 JUMPI PUSH1 0x0 DUP1 REVERT JUMPDEST POP PUSH2 0x19F PUSH1 0x4 DUP1 CALLDATASIZE SUB DUP2 ADD SWAP1 PUSH2 0x19A SWAP2 SWAP1 PUSH2 0x1A37 JUMP JUMPDEST PUSH2 0x484 JUMP JUMPDEST STOP JUMPDEST CALLVALUE DUP1 ISZERO PUSH2 0x1AD JUMPI PUSH1 0x0 DUP1 REVERT JUMPDEST POP PUSH2 0x1C8 PUSH1 0x4 DUP1 CALLDATASIZE SUB DUP2 ADD SWAP1 PUSH2 0x1C3 SWAP2 SWAP1 PUSH2 0x1BE7 JUMP JUMPDEST PUSH2 0x904 JUMP JUMPDEST PUSH1 0x40 MLOAD PUSH2 0x1D5 SWAP2 SWAP1 PUSH2 0x1A86 JUMP JUMPDEST PUSH1 0x40 MLOAD DUP1 SWAP2 SUB SWAP1 RETURN JUMPDEST CALLVALUE DUP1 ISZERO PUSH2 0x1EA JUMPI PUSH1 0x0 DUP1 REVERT JUMPDEST POP PUSH2 0x205 PUSH1 0x4 DUP1 CALLDATASIZE SUB DUP2 ADD SWAP1 PUSH2 0x200 SWAP2 SWAP1 PUSH2 0x1A37 JUMP JUMPDEST PUSH2 0xB92 JUMP JUMPDEST PUSH1 0x40 MLOAD PUSH2 0x212 SWAP2 SWAP1 PUSH2 0x1CA1 JUMP JUMPDEST PUSH1 0x40 MLOAD DUP1 SWAP2 SUB SWAP1 RETURN JUMPDEST CALLVALUE DUP1 ISZERO PUSH2 0x227 JUMPI PUSH1 0x0 DUP1 REVERT JUMPDEST POP PUSH2 0x242 PUSH1 0x4 DUP1 CALLDATASIZE SUB DUP2 ADD SWAP1 PUSH2 0x23D SWAP2 SWAP1 PUSH2 0x1CBC JUMP JUMPDEST PUSH2 0xC58 JUMP JUMPDEST PUSH1 0x40 MLOAD PUSH2 0x25A SWAP13 SWAP12 SWAP11 SWAP10 SWAP9 SWAP8 SWAP7 SWAP6 SWAP5 SWAP4 SWAP3 SWAP2 SWAP1 PUSH2 0x1E2E JUMP JUMPDEST PUSH1 0x40 MLOAD DUP1 SWAP2 SUB SWAP1 RETURN JUMPDEST CALLVALUE DUP1 ISZERO PUSH2 0x26F JUMPI PUSH1 0x0 DUP1 REVERT JUMPDEST POP PUSH2 0x278 PUSH2 0xE22 JUMP JUMPDEST STOP JUMPDEST CALLVALUE DUP1 ISZERO PUSH2 0x286 JUMPI PUSH1 0x0 DUP1 REVERT JUMPDEST POP PUSH2 0x2A1 PUSH1 0x4 DUP1 CALLDATASIZE SUB DUP2 ADD SWAP1 PUSH2 0x29C SWAP2 SWAP1 PUSH2 0x1CBC JUMP JUMPDEST PUSH2 0xE36 JUMP JUMPDEST PUSH1 0x40 MLOAD PUSH2 0x2AE SWAP2 SWAP1 PUSH2 0x1CA1 JUMP JUMPDEST PUSH1 0x40 MLOAD DUP1 SWAP2 SUB SWAP1 RETURN JUMPDEST CALLVALUE DUP1 ISZERO PUSH2 0x2C3 JUMPI PUSH1 0x0 DUP1 REVERT JUMPDEST POP PUSH2 0x2DE PUSH1 0x4 DUP1 CALLDATASIZE SUB DUP2 ADD SWAP1 PUSH2 0x2D9 SWAP2 SWAP1 PUSH2 0x1EF6 JUMP JUMPDEST PUSH2 0xE56 JUMP JUMPDEST PUSH1 0x40 MLOAD PUSH2 0x2EB SWAP2 SWAP1 PUSH2 0x1F36 JUMP JUMPDEST PUSH1 0x40 MLOAD DUP1 SWAP2 SUB SWAP1 RETURN JUMPDEST CALLVALUE DUP1 ISZERO PUSH2 0x300 JUMPI PUSH1 0x0 DUP1 REVERT JUMPDEST POP PUSH2 0x309 PUSH2 0xEA4 JUMP JUMPDEST PUSH1 0x40 MLOAD PUSH2 0x316 SWAP2 SWAP1 PUSH2 0x1F36 JUMP JUMPDEST PUSH1 0x40 MLOAD DUP1 SWAP2 SUB SWAP1 RETURN JUMPDEST CALLVALUE DUP1 ISZERO PUSH2 0x32B JUMPI PUSH1 0x0 DUP1 REVERT JUMPDEST POP PUSH2 0x346 PUSH1 0x4 DUP1 CALLDATASIZE SUB DUP2 ADD SWAP1 PUSH2 0x341 SWAP2 SWAP1 PUSH2 0x1CBC JUMP JUMPDEST PUSH2 0xECE JUMP JUMPDEST PUSH1 0x40 MLOAD PUSH2 0x355 SWAP4 SWAP3 SWAP2 SWAP1 PUSH2 0x1F51 JUMP JUMPDEST PUSH1 0x40 MLOAD DUP1 SWAP2 SUB SWAP1 RETURN JUMPDEST CALLVALUE DUP1 ISZERO PUSH2 0x36A JUMPI PUSH1 0x0 DUP1 REVERT JUMPDEST POP PUSH2 0x385 PUSH1 0x4 DUP1 CALLDATASIZE SUB DUP2 ADD SWAP1 PUSH2 0x380 SWAP2 SWAP1 PUSH2 0x1FC6 JUMP JUMPDEST PUSH2 0x100E JUMP JUMPDEST STOP JUMPDEST CALLVALUE DUP1 ISZERO PUSH2 0x393 JUMPI PUSH1 0x0 DUP1 REVERT JUMPDEST POP PUSH2 0x39C PUSH2 0x115B JUMP JUMPDEST PUSH1 0x40 MLOAD PUSH2 0x3A9 SWAP2 SWAP1 PUSH2 0x1A86 JUMP JUMPDEST PUSH1 0x40 MLOAD DUP1 SWAP2 SUB SWAP1 RETURN JUMPDEST CALLVALUE DUP1 ISZERO PUSH2 0x3BE JUMPI PUSH1 0x0 DUP1 REVERT JUMPDEST POP PUSH2 0x3C7 PUSH2 0x1161 JUMP JUMPDEST PUSH1 0x40 MLOAD PUSH2 0x3D4 SWAP2 SWAP1 PUSH2 0x1A86 JUMP JUMPDEST PUSH1 0x40 MLOAD DUP1 SWAP2 SUB SWAP1 RETURN JUMPDEST CALLVALUE DUP1 ISZERO PUSH2 0x3E9 JUMPI PUSH1 0x0 DUP1 REVERT JUMPDEST POP PUSH2 0x404 PUSH1 0x4 DUP1 CALLDATASIZE SUB DUP2 ADD SWAP1 PUSH2 0x3FF SWAP2 SWAP1 PUSH2 0x1CBC JUMP JUMPDEST PUSH2 0x1167 JUMP JUMPDEST PUSH1 0x40 MLOAD PUSH2 0x411 SWAP2 SWAP1 PUSH2 0x20C4 JUMP JUMPDEST PUSH1 0x40 MLOAD DUP1 SWAP2 SUB SWAP1 RETURN JUMPDEST PUSH2 0x434 PUSH1 0x4 DUP1 CALLDATASIZE SUB DUP2 ADD SWAP1 PUSH2 0x42F SWAP2 SWAP1 PUSH2 0x1CBC JUMP JUMPDEST PUSH2 0x1251 JUMP JUMPDEST STOP JUMPDEST CALLVALUE DUP1 ISZERO PUSH2 0x442 JUMPI PUSH1 0x0 DUP1 REVERT JUMPDEST POP PUSH2 0x45D PUSH1 0x4 DUP1 CALLDATASIZE SUB DUP2 ADD SWAP1 PUSH2 0x458 SWAP2 SWAP1 PUSH2 0x20E6 JUMP JUMPDEST PUSH2 0x1645 JUMP JUMPDEST STOP JUMPDEST PUSH1 0x3 PUSH1 0x20 MSTORE DUP2 PUSH1 0x0 MSTORE PUSH1 0x40 PUSH1 0x0 KECCAK256 PUSH1 0x20 MSTORE DUP1 PUSH1 0x0 MSTORE PUSH1 0x40 PUSH1 0x0 KECCAK256 PUSH1 0x0 SWAP2 POP SWAP2 POP POP SLOAD DUP2 JUMP JUMPDEST PUSH2 0x48C PUSH2 0x16C9 JUMP JUMPDEST DUP2 PUSH1 0x6 SLOAD DUP2 LT PUSH2 0x4D1 JUMPI PUSH1 0x40 MLOAD PUSH32 0x8C379A000000000000000000000000000000000000000000000000000000000 DUP2 MSTORE PUSH1 0x4 ADD PUSH2 0x4C8 SWAP1 PUSH2 0x215F JUMP JUMPDEST PUSH1 0x40 MLOAD DUP1 SWAP2 SUB SWAP1 REVERT JUMPDEST DUP3 PUSH1 0x2 PUSH1 0x0 DUP3 DUP2 MSTORE PUSH1 0x20 ADD SWAP1 DUP2 MSTORE PUSH1 0x20 ADD PUSH1 0x0 KECCAK256 PUSH1 0xB ADD PUSH1 0x0 SWAP1 SLOAD SWAP1 PUSH2 0x100 EXP SWAP1 DIV PUSH20 0xFFFFFFFFFFFFFFFFFFFFFFFFFFFFFFFFFFFFFFFF AND PUSH20 0xFFFFFFFFFFFFFFFFFFFFFFFFFFFFFFFFFFFFFFFF AND CALLER PUSH20 0xFFFFFFFFFFFFFFFFFFFFFFFFFFFFFFFFFFFFFFFF AND EQ PUSH2 0x576 JUMPI PUSH1 0x40 MLOAD PUSH32 0x8C379A000000000000000000000000000000000000000000000000000000000 DUP2 MSTORE PUSH1 0x4 ADD PUSH2 0x56D SWAP1 PUSH2 0x21F1 JUMP JUMPDEST PUSH1 0x40 MLOAD DUP1 SWAP2 SUB SWAP1 REVERT JUMPDEST PUSH1 0x0 PUSH1 0x2 PUSH1 0x0 DUP7 DUP2 MSTORE PUSH1 0x20 ADD SWAP1 DUP2 MSTORE PUSH1 0x20 ADD PUSH1 0x0 KECCAK256 SWAP1 POP PUSH1 0x2 PUSH1 0x4 DUP2 GT ISZERO PUSH2 0x5A1 JUMPI PUSH2 0x5A0 PUSH2 0x1D60 JUMP JUMPDEST JUMPDEST DUP2 PUSH1 0x8 ADD PUSH1 0x0 SWAP1 SLOAD SWAP1 PUSH2 0x100 EXP SWAP1 DIV PUSH1 0xFF AND PUSH1 0x4 DUP2 GT ISZERO PUSH2 0x5C5 JUMPI PUSH2 0x5C4 PUSH2 0x1D60 JUMP JUMPDEST JUMPDEST EQ PUSH2 0x605 JUMPI PUSH1 0x40 MLOAD PUSH32 0x8C379A000000000000000000000000000000000000000000000000000000000 DUP2 MSTORE PUSH1 0x4 ADD PUSH2 0x5FC SWAP1 PUSH2 0x225D JUMP JUMPDEST PUSH1 0x40 MLOAD DUP1 SWAP2 SUB SWAP1 REVERT JUMPDEST PUSH2 0x60F DUP6 DUP6 PUSH2 0xB92 JUMP JUMPDEST PUSH2 0x64E JUMPI PUSH1 0x40 MLOAD PUSH32 0x8C379A000000000000000000000000000000000000000000000000000000000 DUP2 MSTORE PUSH1 0x4 ADD PUSH2 0x645 SWAP1 PUSH2 0x22C9 JUMP JUMPDEST PUSH1 0x40 MLOAD DUP1 SWAP2 SUB SWAP1 REVERT JUMPDEST PUSH1 0x0 PUSH1 0x1 DUP2 GT ISZERO PUSH2 0x662 JUMPI PUSH2 0x661 PUSH2 0x1D60 JUMP JUMPDEST JUMPDEST DUP2 PUSH1 0x8 ADD PUSH1 0x1 SWAP1 SLOAD SWAP1 PUSH2 0x100 EXP SWAP1 DIV PUSH1 0xFF AND PUSH1 0x1 DUP2 GT ISZERO PUSH2 0x686 JUMPI PUSH2 0x685 PUSH2 0x1D60 JUMP JUMPDEST JUMPDEST EQ PUSH2 0x6C6 JUMPI PUSH1 0x40 MLOAD PUSH32 0x8C379A000000000000000000000000000000000000000000000000000000000 DUP2 MSTORE PUSH1 0x4 ADD PUSH2 0x6BD SWAP1 PUSH2 0x2335 JUMP JUMPDEST PUSH1 0x40 MLOAD DUP1 SWAP2 SUB SWAP1 REVERT JUMPDEST PUSH2 0x12C DUP2 PUSH1 0x7 ADD SLOAD PUSH2 0x6D8 SWAP2 SWAP1 PUSH2 0x2384 JUMP JUMPDEST TIMESTAMP LT ISZERO PUSH2 0x71A JUMPI PUSH1 0x40 MLOAD PUSH32 0x8C379A000000000000000000000000000000000000000000000000000000000 DUP2 MSTORE PUSH1 0x4 ADD PUSH2 0x711 SWAP1 PUSH2 0x2426 JUMP JUMPDEST PUSH1 0x40 MLOAD DUP1 SWAP2 SUB SWAP1 REVERT JUMPDEST PUSH1 0x3 DUP2 PUSH1 0x8 ADD PUSH1 0x0 PUSH2 0x100 EXP DUP2 SLOAD DUP2 PUSH1 0xFF MUL NOT AND SWAP1 DUP4 PUSH1 0x4 DUP2 GT ISZERO PUSH2 0x742 JUMPI PUSH2 0x741 PUSH2 0x1D60 JUMP JUMPDEST JUMPDEST MUL OR SWAP1 SSTORE POP DUP4 DUP2 PUSH1 0xA ADD PUSH1 0x0 PUSH2 0x100 EXP DUP2 SLOAD DUP2 PUSH20 0xFFFFFFFFFFFFFFFFFFFFFFFFFFFFFFFFFFFFFFFF MUL NOT AND SWAP1 DUP4 PUSH20 0xFFFFFFFFFFFFFFFFFFFFFFFFFFFFFFFFFFFFFFFF AND MUL OR SWAP1 SSTORE POP PUSH1 0x1 DUP2 PUSH1 0x8 ADD PUSH1 0x1 PUSH2 0x100 EXP DUP2 SLOAD DUP2 PUSH1 0xFF MUL NOT AND SWAP1 DUP4 PUSH1 0x1 DUP2 GT ISZERO PUSH2 0x7B2 JUMPI PUSH2 0x7B1 PUSH2 0x1D60 JUMP JUMPDEST JUMPDEST MUL OR SWAP1 SSTORE POP PUSH1 0x0 DUP2 PUSH1 0x6 ADD SLOAD SWAP1 POP PUSH1 0x0 DUP2 GT PUSH2 0x803 JUMPI PUSH1 0x40 MLOAD PUSH32 0x8C379A000000000000000000000000000000000000000000000000000000000 DUP2 MSTORE PUSH1 0x4 ADD PUSH2 0x7FA SWAP1 PUSH2 0x2492 JUMP JUMPDEST PUSH1 0x40 MLOAD DUP1 SWAP2 SUB SWAP1 REVERT JUMPDEST PUSH1 0x0 DUP3 PUSH1 0x6 ADD DUP2 SWAP1 SSTORE POP PUSH1 0x0 DUP6 PUSH20 0xFFFFFFFFFFFFFFFFFFFFFFFFFFFFFFFFFFFFFFFF AND DUP3 PUSH1 0x40 MLOAD PUSH2 0x833 SWAP1 PUSH2 0x24E3 JUMP JUMPDEST PUSH1 0x0 PUSH1 0x40 MLOAD DUP1 DUP4 SUB DUP2 DUP6 DUP8 GAS CALL SWAP3 POP POP POP RETURNDATASIZE DUP1 PUSH1 0x0 DUP2 EQ PUSH2 0x870 JUMPI PUSH1 0x40 MLOAD SWAP2 POP PUSH1 0x1F NOT PUSH1 0x3F RETURNDATASIZE ADD AND DUP3 ADD PUSH1 0x40 MSTORE RETURNDATASIZE DUP3 MSTORE RETURNDATASIZE PUSH1 0x0 PUSH1 0x20 DUP5 ADD RETURNDATACOPY PUSH2 0x875 JUMP JUMPDEST PUSH1 0x60 SWAP2 POP JUMPDEST POP POP SWAP1 POP DUP1 PUSH2 0x8B9 JUMPI PUSH1 0x40 MLOAD PUSH32 0x8C379A000000000000000000000000000000000000000000000000000000000 DUP2 MSTORE PUSH1 0x4 ADD PUSH2 0x8B0 SWAP1 PUSH2 0x2544 JUMP JUMPDEST PUSH1 0x40 MLOAD DUP1 SWAP2 SUB SWAP1 REVERT JUMPDEST DUP7 PUSH32 0x5D36374A8D1A6CAE8E46381AEA50CAE98B85E5EDE9E10916D26179527900E520 DUP8 DUP5 PUSH1 0x40 MLOAD PUSH2 0x8EB SWAP3 SWAP2 SWAP1 PUSH2 0x2564 JUMP JUMPDEST PUSH1 0x40 MLOAD DUP1 SWAP2 SUB SWAP1 LOG2 POP POP POP POP POP PUSH2 0x900 PUSH2 0x1719 JUMP JUMPDEST POP POP JUMP JUMPDEST PUSH1 0x0 DUP1 DUP6 MLOAD GT PUSH2 0x949 JUMPI PUSH1 0x40 MLOAD PUSH32 0x8C379A000000000000000000000000000000000000000000000000000000000 DUP2 MSTORE PUSH1 0x4 ADD PUSH2 0x940 SWAP1 PUSH2 0x25D9 JUMP JUMPDEST PUSH1 0x40 MLOAD DUP1 SWAP2 SUB SWAP1 REVERT JUMPDEST PUSH1 0x0 DUP5 MLOAD GT PUSH2 0x98D JUMPI PUSH1 0x40 MLOAD PUSH32 0x8C379A000000000000000000000000000000000000000000000000000000000 DUP2 MSTORE PUSH1 0x4 ADD PUSH2 0x984 SWAP1 PUSH2 0x2645 JUMP JUMPDEST PUSH1 0x40 MLOAD DUP1 SWAP2 SUB SWAP1 REVERT JUMPDEST PUSH1 0x0 DUP4 GT PUSH2 0x9D0 JUMPI PUSH1 0x40 MLOAD PUSH32 0x8C379A000000000000000000000000000000000000000000000000000000000 DUP2 MSTORE PUSH1 0x4 ADD PUSH2 0x9C7 SWAP1 PUSH2 0x26B1 JUMP JUMPDEST PUSH1 0x40 MLOAD DUP1 SWAP2 SUB SWAP1 REVERT JUMPDEST PUSH1 0x1 DUP3 GT DUP1 ISZERO PUSH2 0x9E1 JUMPI POP PUSH1 0xA DUP3 GT ISZERO JUMPDEST PUSH2 0xA20 JUMPI PUSH1 0x40 MLOAD PUSH32 0x8C379A000000000000000000000000000000000000000000000000000000000 DUP2 MSTORE PUSH1 0x4 ADD PUSH2 0xA17 SWAP1 PUSH2 0x271D JUMP JUMPDEST PUSH1 0x40 MLOAD DUP1 SWAP2 SUB SWAP1 REVERT JUMPDEST PUSH1 0x0 PUSH1 0x6 PUSH1 0x0 DUP2 SLOAD DUP1 SWAP3 SWAP2 SWAP1 PUSH2 0xA35 SWAP1 PUSH2 0x273D JUMP JUMPDEST SWAP2 SWAP1 POP SSTORE SWAP1 POP PUSH1 0x0 PUSH1 0x2 PUSH1 0x0 DUP4 DUP2 MSTORE PUSH1 0x20 ADD SWAP1 DUP2 MSTORE PUSH1 0x20 ADD PUSH1 0x0 KECCAK256 SWAP1 POP DUP2 DUP2 PUSH1 0x0 ADD DUP2 SWAP1 SSTORE POP DUP7 DUP2 PUSH1 0x1 ADD SWAP1 DUP1 MLOAD SWAP1 PUSH1 0x20 ADD SWAP1 PUSH2 0xA73 SWAP3 SWAP2 SWAP1 PUSH2 0x186F JUMP JUMPDEST POP DUP6 DUP2 PUSH1 0x2 ADD SWAP1 DUP1 MLOAD SWAP1 PUSH1 0x20 ADD SWAP1 PUSH2 0xA8C SWAP3 SWAP2 SWAP1 PUSH2 0x186F JUMP JUMPDEST POP DUP5 DUP2 PUSH1 0x3 ADD DUP2 SWAP1 SSTORE POP DUP4 DUP2 PUSH1 0x5 ADD DUP2 SWAP1 SSTORE POP TIMESTAMP DUP2 PUSH1 0x7 ADD DUP2 SWAP1 SSTORE POP PUSH1 0x0 DUP2 PUSH1 0x8 ADD PUSH1 0x0 PUSH2 0x100 EXP DUP2 SLOAD DUP2 PUSH1 0xFF MUL NOT AND SWAP1 DUP4 PUSH1 0x4 DUP2 GT ISZERO PUSH2 0xAD0 JUMPI PUSH2 0xACF PUSH2 0x1D60 JUMP JUMPDEST JUMPDEST MUL OR SWAP1 SSTORE POP PUSH1 0x0 DUP2 PUSH1 0x8 ADD PUSH1 0x1 PUSH2 0x100 EXP DUP2 SLOAD DUP2 PUSH1 0xFF MUL NOT AND SWAP1 DUP4 PUSH1 0x1 DUP2 GT ISZERO PUSH2 0xAFD JUMPI PUSH2 0xAFC PUSH2 0x1D60 JUMP JUMPDEST JUMPDEST MUL OR SWAP1 SSTORE POP CALLER DUP2 PUSH1 0xB ADD PUSH1 0x0 PUSH2 0x100 EXP DUP2 SLOAD DUP2 PUSH20 0xFFFFFFFFFFFFFFFFFFFFFFFFFFFFFFFFFFFFFFFF MUL NOT AND SWAP1 DUP4 PUSH20 0xFFFFFFFFFFFFFFFFFFFFFFFFFFFFFFFFFFFFFFFF AND MUL OR SWAP1 SSTORE POP DUP2 PUSH32 0xE2B64F820C6349CE53D20FAA9C7EBA7858AE3C3EA29CC7FBF30C50FFFCF3170 DUP9 DUP9 DUP9 DUP9 CALLER PUSH1 0x40 MLOAD PUSH2 0xB7D SWAP6 SWAP5 SWAP4 SWAP3 SWAP2 SWAP1 PUSH2 0x2786 JUMP JUMPDEST PUSH1 0x40 MLOAD DUP1 SWAP2 SUB SWAP1 LOG2 DUP2 SWAP3 POP POP POP SWAP5 SWAP4 POP POP POP POP JUMP JUMPDEST PUSH1 0x0 DUP1 PUSH1 0x2 PUSH1 0x0 DUP6 DUP2 MSTORE PUSH1 0x20 ADD SWAP1 DUP2 MSTORE PUSH1 0x20 ADD PUSH1 0x0 KECCAK256 PUSH1 0x9 ADD SWAP1 POP PUSH1 0x0 JUMPDEST DUP2 DUP1 SLOAD SWAP1 POP DUP2 LT ISZERO PUSH2 0xC4B JUMPI DUP4 PUSH20 0xFFFFFFFFFFFFFFFFFFFFFFFFFFFFFFFFFFFFFFFF AND DUP3 DUP3 DUP2 SLOAD DUP2 LT PUSH2 0xBE6 JUMPI PUSH2 0xBE5 PUSH2 0x27E7 JUMP JUMPDEST JUMPDEST SWAP1 PUSH1 0x0 MSTORE PUSH1 0x20 PUSH1 0x0 KECCAK256 ADD PUSH1 0x0 SWAP1 SLOAD SWAP1 PUSH2 0x100 EXP SWAP1 DIV PUSH20 0xFFFFFFFFFFFFFFFFFFFFFFFFFFFFFFFFFFFFFFFF AND PUSH20 0xFFFFFFFFFFFFFFFFFFFFFFFFFFFFFFFFFFFFFFFF AND EQ ISZERO PUSH2 0xC38 JUMPI PUSH1 0x1 SWAP3 POP POP POP PUSH2 0xC52 JUMP JUMPDEST DUP1 DUP1 PUSH2 0xC43 SWAP1 PUSH2 0x273D JUMP JUMPDEST SWAP2 POP POP PUSH2 0xBB0 JUMP JUMPDEST POP PUSH1 0x0 SWAP2 POP POP JUMPDEST SWAP3 SWAP2 POP POP JUMP JUMPDEST PUSH1 0x2 PUSH1 0x20 MSTORE DUP1 PUSH1 0x0 MSTORE PUSH1 0x40 PUSH1 0x0 KECCAK256 PUSH1 0x0 SWAP2 POP SWAP1 POP DUP1 PUSH1 0x0 ADD SLOAD SWAP1 DUP1 PUSH1 0x1 ADD DUP1 SLOAD PUSH2 0xC81 SWAP1 PUSH2 0x2845 JUMP JUMPDEST DUP1 PUSH1 0x1F ADD PUSH1 0x20 DUP1 SWAP2 DIV MUL PUSH1 0x20 ADD PUSH1 0x40 MLOAD SWAP1 DUP2 ADD PUSH1 0x40 MSTORE DUP1 SWAP3 SWAP2 SWAP1 DUP2 DUP2 MSTORE PUSH1 0x20 ADD DUP3 DUP1 SLOAD PUSH2 0xCAD SWAP1 PUSH2 0x2845 JUMP JUMPDEST DUP1 ISZERO PUSH2 0xCFA JUMPI DUP1 PUSH1 0x1F LT PUSH2 0xCCF JUMPI PUSH2 0x100 DUP1 DUP4 SLOAD DIV MUL DUP4 MSTORE SWAP2 PUSH1 0x20 ADD SWAP2 PUSH2 0xCFA JUMP JUMPDEST DUP3 ADD SWAP2 SWAP1 PUSH1 0x0 MSTORE PUSH1 0x20 PUSH1 0x0 KECCAK256 SWAP1 JUMPDEST DUP2 SLOAD DUP2 MSTORE SWAP1 PUSH1 0x1 ADD SWAP1 PUSH1 0x20 ADD DUP1 DUP4 GT PUSH2 0xCDD JUMPI DUP3 SWAP1 SUB PUSH1 0x1F AND DUP3 ADD SWAP2 JUMPDEST POP POP POP POP POP SWAP1 DUP1 PUSH1 0x2 ADD DUP1 SLOAD PUSH2 0xD0F SWAP1 PUSH2 0x2845 JUMP JUMPDEST DUP1 PUSH1 0x1F ADD PUSH1 0x20 DUP1 SWAP2 DIV MUL PUSH1 0x20 ADD PUSH1 0x40 MLOAD SWAP1 DUP2 ADD PUSH1 0x40 MSTORE DUP1 SWAP3 SWAP2 SWAP1 DUP2 DUP2 MSTORE PUSH1 0x20 ADD DUP3 DUP1 SLOAD PUSH2 0xD3B SWAP1 PUSH2 0x2845 JUMP JUMPDEST DUP1 ISZERO PUSH2 0xD88 JUMPI DUP1 PUSH1 0x1F LT PUSH2 0xD5D JUMPI PUSH2 0x100 DUP1 DUP4 SLOAD DIV MUL DUP4 MSTORE SWAP2 PUSH1 0x20 ADD SWAP2 PUSH2 0xD88 JUMP JUMPDEST DUP3 ADD SWAP2 SWAP1 PUSH1 0x0 MSTORE PUSH1 0x20 PUSH1 0x0 KECCAK256 SWAP1 JUMPDEST DUP2 SLOAD DUP2 MSTORE SWAP1 PUSH1 0x1 ADD SWAP1 PUSH1 0x20 ADD DUP1 DUP4 GT PUSH2 0xD6B JUMPI DUP3 SWAP1 SUB PUSH1 0x1F AND DUP3 ADD SWAP2 JUMPDEST POP POP POP POP POP SWAP1 DUP1 PUSH1 0x3 ADD SLOAD SWAP1 DUP1 PUSH1 0x4 ADD SLOAD SWAP1 DUP1 PUSH1 0x5 ADD SLOAD SWAP1 DUP1 PUSH1 0x6 ADD SLOAD SWAP1 DUP1 PUSH1 0x7 ADD SLOAD SWAP1 DUP1 PUSH1 0x8 ADD PUSH1 0x0 SWAP1 SLOAD SWAP1 PUSH2 0x100 EXP SWAP1 DIV PUSH1 0xFF AND SWAP1 DUP1 PUSH1 0x8 ADD PUSH1 0x1 SWAP1 SLOAD SWAP1 PUSH2 0x100 EXP SWAP1 DIV PUSH1 0xFF AND SWAP1 DUP1 PUSH1 0xA ADD PUSH1 0x0 SWAP1 SLOAD SWAP1 PUSH2 0x100 EXP SWAP1 DIV PUSH20 0xFFFFFFFFFFFFFFFFFFFFFFFFFFFFFFFFFFFFFFFF AND SWAP1 DUP1 PUSH1 0xB ADD PUSH1 0x0 SWAP1 SLOAD SWAP1 PUSH2 0x100 EXP SWAP1 DIV PUSH20 0xFFFFFFFFFFFFFFFFFFFFFFFFFFFFFFFFFFFFFFFF AND SWAP1 POP DUP13 JUMP JUMPDEST PUSH2 0xE2A PUSH2 0x1723 JUMP JUMPDEST PUSH2 0xE34 PUSH1 0x0 PUSH2 0x17A1 JUMP JUMPDEST JUMP JUMPDEST PUSH1 0x5 PUSH1 0x20 MSTORE DUP1 PUSH1 0x0 MSTORE PUSH1 0x40 PUSH1 0x0 KECCAK256 PUSH1 0x0 SWAP2 POP SLOAD SWAP1 PUSH2 0x100 EXP SWAP1 DIV PUSH1 0xFF AND DUP2 JUMP JUMPDEST PUSH1 0x4 PUSH1 0x20 MSTORE DUP2 PUSH1 0x0 MSTORE PUSH1 0x40 PUSH1 0x0 KECCAK256 DUP2 DUP2 SLOAD DUP2 LT PUSH2 0xE72 JUMPI PUSH1 0x0 DUP1 REVERT JUMPDEST SWAP1 PUSH1 0x0 MSTORE PUSH1 0x20 PUSH1 0x0 KECCAK256 ADD PUSH1 0x0 SWAP2 POP SWAP2 POP SWAP1 SLOAD SWAP1 PUSH2 0x100 EXP SWAP1 DIV PUSH20 0xFFFFFFFFFFFFFFFFFFFFFFFFFFFFFFFFFFFFFFFF AND DUP2 JUMP JUMPDEST PUSH1 0x0 PUSH1 0x1 PUSH1 0x0 SWAP1 SLOAD SWAP1 PUSH2 0x100 EXP SWAP1 DIV PUSH20 0xFFFFFFFFFFFFFFFFFFFFFFFFFFFFFFFFFFFFFFFF AND SWAP1 POP SWAP1 JUMP JUMPDEST PUSH1 0x0 DUP1 PUSH1 0x0 DUP4 PUSH1 0x6 SLOAD DUP2 LT PUSH2 0xF18 JUMPI PUSH1 0x40 MLOAD PUSH32 0x8C379A000000000000000000000000000000000000000000000000000000000 DUP2 MSTORE PUSH1 0x4 ADD PUSH2 0xF0F SWAP1 PUSH2 0x215F JUMP JUMPDEST PUSH1 0x40 MLOAD DUP1 SWAP2 SUB SWAP1 REVERT JUMPDEST PUSH1 0x0 PUSH1 0x2 PUSH1 0x0 DUP8 DUP2 MSTORE PUSH1 0x20 ADD SWAP1 DUP2 MSTORE PUSH1 0x20 ADD PUSH1 0x0 KECCAK256 SWAP1 POP PUSH2 0x12C DUP2 PUSH1 0x7 ADD SLOAD PUSH2 0xF41 SWAP2 SWAP1 PUSH2 0x2384 JUMP JUMPDEST TIMESTAMP LT ISZERO DUP1 PUSH2 0xF84 JUMPI POP PUSH1 0x3 PUSH1 0x4 DUP2 GT ISZERO PUSH2 0xF5E JUMPI PUSH2 0xF5D PUSH2 0x1D60 JUMP JUMPDEST JUMPDEST DUP2 PUSH1 0x8 ADD PUSH1 0x0 SWAP1 SLOAD SWAP1 PUSH2 0x100 EXP SWAP1 DIV PUSH1 0xFF AND PUSH1 0x4 DUP2 GT ISZERO PUSH2 0xF82 JUMPI PUSH2 0xF81 PUSH2 0x1D60 JUMP JUMPDEST JUMPDEST EQ JUMPDEST PUSH2 0xFC3 JUMPI PUSH1 0x40 MLOAD PUSH32 0x8C379A000000000000000000000000000000000000000000000000000000000 DUP2 MSTORE PUSH1 0x4 ADD PUSH2 0xFBA SWAP1 PUSH2 0x28C3 JUMP JUMPDEST PUSH1 0x40 MLOAD DUP1 SWAP2 SUB SWAP1 REVERT JUMPDEST DUP1 PUSH1 0x8 ADD PUSH1 0x0 SWAP1 SLOAD SWAP1 PUSH2 0x100 EXP SWAP1 DIV PUSH1 0xFF AND DUP2 PUSH1 0xA ADD PUSH1 0x0 SWAP1 SLOAD SWAP1 PUSH2 0x100 EXP SWAP1 DIV PUSH20 0xFFFFFFFFFFFFFFFFFFFFFFFFFFFFFFFFFFFFFFFF AND DUP3 PUSH1 0x6 ADD SLOAD SWAP5 POP SWAP5 POP SWAP5 POP POP POP SWAP2 SWAP4 SWAP1 SWAP3 POP JUMP JUMPDEST PUSH2 0x1016 PUSH2 0x1723 JUMP JUMPDEST PUSH1 0x0 DUP3 PUSH20 0xFFFFFFFFFFFFFFFFFFFFFFFFFFFFFFFFFFFFFFFF AND PUSH4 0x70A08231 ADDRESS PUSH1 0x40 MLOAD DUP3 PUSH4 0xFFFFFFFF AND PUSH1 0xE0 SHL DUP2 MSTORE PUSH1 0x4 ADD PUSH2 0x1051 SWAP2 SWAP1 PUSH2 0x1F36 JUMP JUMPDEST PUSH1 0x20 PUSH1 0x40 MLOAD DUP1 DUP4 SUB DUP2 DUP7 GAS STATICCALL ISZERO DUP1 ISZERO PUSH2 0x106E JUMPI RETURNDATASIZE PUSH1 0x0 DUP1 RETURNDATACOPY RETURNDATASIZE PUSH1 0x0 REVERT JUMPDEST POP POP POP POP PUSH1 0x40 MLOAD RETURNDATASIZE PUSH1 0x1F NOT PUSH1 0x1F DUP3 ADD AND DUP3 ADD DUP1 PUSH1 0x40 MSTORE POP DUP2 ADD SWAP1 PUSH2 0x1092 SWAP2 SWAP1 PUSH2 0x28F8 JUMP JUMPDEST SWAP1 POP PUSH1 0x0 DUP2 GT PUSH2 0x10D7 JUMPI PUSH1 0x40 MLOAD PUSH32 0x8C379A000000000000000000000000000000000000000000000000000000000 DUP2 MSTORE PUSH1 0x4 ADD PUSH2 0x10CE SWAP1 PUSH2 0x2971 JUMP JUMPDEST PUSH1 0x40 MLOAD DUP1 SWAP2 SUB SWAP1 REVERT JUMPDEST DUP3 PUSH20 0xFFFFFFFFFFFFFFFFFFFFFFFFFFFFFFFFFFFFFFFF AND PUSH4 0xA9059CBB DUP4 DUP4 PUSH1 0x40 MLOAD DUP4 PUSH4 0xFFFFFFFF AND PUSH1 0xE0 SHL DUP2 MSTORE PUSH1 0x4 ADD PUSH2 0x1112 SWAP3 SWAP2 SWAP1 PUSH2 0x2564 JUMP JUMPDEST PUSH1 0x20 PUSH1 0x40 MLOAD DUP1 DUP4 SUB DUP2 PUSH1 0x0 DUP8 GAS CALL ISZERO DUP1 ISZERO PUSH2 0x1131 JUMPI RETURNDATASIZE PUSH1 0x0 DUP1 RETURNDATACOPY RETURNDATASIZE PUSH1 0x0 REVERT JUMPDEST POP POP POP POP PUSH1 0x40 MLOAD RETURNDATASIZE PUSH1 0x1F NOT PUSH1 0x1F DUP3 ADD AND DUP3 ADD DUP1 PUSH1 0x40 MSTORE POP DUP2 ADD SWAP1 PUSH2 0x1155 SWAP2 SWAP1 PUSH2 0x29BD JUMP JUMPDEST POP POP POP POP JUMP JUMPDEST PUSH2 0x12C DUP2 JUMP JUMPDEST PUSH1 0x6 SLOAD DUP2 JUMP JUMPDEST PUSH1 0x60 DUP2 PUSH1 0x6 SLOAD DUP2 LT PUSH2 0x11AE JUMPI PUSH1 0x40 MLOAD PUSH32 0x8C379A000000000000000000000000000000000000000000000000000000000 DUP2 MSTORE PUSH1 0x4 ADD PUSH2 0x11A5 SWAP1 PUSH2 0x215F JUMP JUMPDEST PUSH1 0x40 MLOAD DUP1 SWAP2 SUB SWAP1 REVERT JUMPDEST PUSH1 0x2 PUSH1 0x0 DUP5 DUP2 MSTORE PUSH1 0x20 ADD SWAP1 DUP2 MSTORE PUSH1 0x20 ADD PUSH1 0x0 KECCAK256 PUSH1 0x9 ADD DUP1 SLOAD DUP1 PUSH1 0x20 MUL PUSH1 0x20 ADD PUSH1 0x40 MLOAD SWAP1 DUP2 ADD PUSH1 0x40 MSTORE DUP1 SWAP3 SWAP2 SWAP1 DUP2 DUP2 MSTORE PUSH1 0x20 ADD DUP3 DUP1 SLOAD DUP1 ISZERO PUSH2 0x1244 JUMPI PUSH1 0x20 MUL DUP3 ADD SWAP2 SWAP1 PUSH1 0x0 MSTORE PUSH1 0x20 PUSH1 0x0 KECCAK256 SWAP1 JUMPDEST DUP2 PUSH1 0x0 SWAP1 SLOAD SWAP1 PUSH2 0x100 EXP SWAP1 DIV PUSH20 0xFFFFFFFFFFFFFFFFFFFFFFFFFFFFFFFFFFFFFFFF AND PUSH20 0xFFFFFFFFFFFFFFFFFFFFFFFFFFFFFFFFFFFFFFFF AND DUP2 MSTORE PUSH1 0x20 ADD SWAP1 PUSH1 0x1 ADD SWAP1 DUP1 DUP4 GT PUSH2 0x11FA JUMPI JUMPDEST POP POP POP POP POP SWAP2 POP POP SWAP2 SWAP1 POP JUMP JUMPDEST PUSH2 0x1259 PUSH2 0x16C9 JUMP JUMPDEST DUP1 PUSH1 0x6 SLOAD DUP2 LT PUSH2 0x129E JUMPI PUSH1 0x40 MLOAD PUSH32 0x8C379A000000000000000000000000000000000000000000000000000000000 DUP2 MSTORE PUSH1 0x4 ADD PUSH2 0x1295 SWAP1 PUSH2 0x215F JUMP JUMPDEST PUSH1 0x40 MLOAD DUP1 SWAP2 SUB SWAP1 REVERT JUMPDEST PUSH1 0x0 PUSH1 0x2 PUSH1 0x0 DUP5 DUP2 MSTORE PUSH1 0x20 ADD SWAP1 DUP2 MSTORE PUSH1 0x20 ADD PUSH1 0x0 KECCAK256 SWAP1 POP PUSH1 0x0 PUSH1 0x4 DUP2 GT ISZERO PUSH2 0x12C9 JUMPI PUSH2 0x12C8 PUSH2 0x1D60 JUMP JUMPDEST JUMPDEST DUP2 PUSH1 0x8 ADD PUSH1 0x0 SWAP1 SLOAD SWAP1 PUSH2 0x100 EXP SWAP1 DIV PUSH1 0xFF AND PUSH1 0x4 DUP2 GT ISZERO PUSH2 0x12ED JUMPI PUSH2 0x12EC PUSH2 0x1D60 JUMP JUMPDEST JUMPDEST EQ DUP1 PUSH2 0x132E JUMPI POP PUSH1 0x1 PUSH1 0x4 DUP2 GT ISZERO PUSH2 0x1308 JUMPI PUSH2 0x1307 PUSH2 0x1D60 JUMP JUMPDEST JUMPDEST DUP2 PUSH1 0x8 ADD PUSH1 0x0 SWAP1 SLOAD SWAP1 PUSH2 0x100 EXP SWAP1 DIV PUSH1 0xFF AND PUSH1 0x4 DUP2 GT ISZERO PUSH2 0x132C JUMPI PUSH2 0x132B PUSH2 0x1D60 JUMP JUMPDEST JUMPDEST EQ JUMPDEST PUSH2 0x136D JUMPI PUSH1 0x40 MLOAD PUSH32 0x8C379A000000000000000000000000000000000000000000000000000000000 DUP2 MSTORE PUSH1 0x4 ADD PUSH2 0x1364 SWAP1 PUSH2 0x2A36 JUMP JUMPDEST PUSH1 0x40 MLOAD DUP1 SWAP2 SUB SWAP1 REVERT JUMPDEST DUP1 PUSH1 0x3 ADD SLOAD CALLVALUE EQ PUSH2 0x13B3 JUMPI PUSH1 0x40 MLOAD PUSH32 0x8C379A000000000000000000000000000000000000000000000000000000000 DUP2 MSTORE PUSH1 0x4 ADD PUSH2 0x13AA SWAP1 PUSH2 0x2AA2 JUMP JUMPDEST PUSH1 0x40 MLOAD DUP1 SWAP2 SUB SWAP1 REVERT JUMPDEST DUP1 PUSH1 0x5 ADD SLOAD DUP2 PUSH1 0x9 ADD DUP1 SLOAD SWAP1 POP LT PUSH2 0x1400 JUMPI PUSH1 0x40 MLOAD PUSH32 0x8C379A000000000000000000000000000000000000000000000000000000000 DUP2 MSTORE PUSH1 0x4 ADD PUSH2 0x13F7 SWAP1 PUSH2 0x2B0E JUMP JUMPDEST PUSH1 0x40 MLOAD DUP1 SWAP2 SUB SWAP1 REVERT JUMPDEST PUSH2 0x12C DUP2 PUSH1 0x7 ADD SLOAD PUSH2 0x1412 SWAP2 SWAP1 PUSH2 0x2384 JUMP JUMPDEST TIMESTAMP GT ISZERO PUSH2 0x1454 JUMPI PUSH1 0x40 MLOAD PUSH32 0x8C379A000000000000000000000000000000000000000000000000000000000 DUP2 MSTORE PUSH1 0x4 ADD PUSH2 0x144B SWAP1 PUSH2 0x2B7A JUMP JUMPDEST PUSH1 0x40 MLOAD DUP1 SWAP2 SUB SWAP1 REVERT JUMPDEST DUP1 PUSH1 0xB ADD PUSH1 0x0 SWAP1 SLOAD SWAP1 PUSH2 0x100 EXP SWAP1 DIV PUSH20 0xFFFFFFFFFFFFFFFFFFFFFFFFFFFFFFFFFFFFFFFF AND PUSH20 0xFFFFFFFFFFFFFFFFFFFFFFFFFFFFFFFFFFFFFFFF AND CALLER PUSH20 0xFFFFFFFFFFFFFFFFFFFFFFFFFFFFFFFFFFFFFFFF AND EQ ISZERO PUSH2 0x14E7 JUMPI PUSH1 0x40 MLOAD PUSH32 0x8C379A000000000000000000000000000000000000000000000000000000000 DUP2 MSTORE PUSH1 0x4 ADD PUSH2 0x14DE SWAP1 PUSH2 0x2BE6 JUMP JUMPDEST PUSH1 0x40 MLOAD DUP1 SWAP2 SUB SWAP1 REVERT JUMPDEST DUP1 PUSH1 0x9 ADD CALLER SWAP1 DUP1 PUSH1 0x1 DUP2 SLOAD ADD DUP1 DUP3 SSTORE DUP1 SWAP2 POP POP PUSH1 0x1 SWAP1 SUB SWAP1 PUSH1 0x0 MSTORE PUSH1 0x20 PUSH1 0x0 KECCAK256 ADD PUSH1 0x0 SWAP1 SWAP2 SWAP1 SWAP2 SWAP1 SWAP2 PUSH2 0x100 EXP DUP2 SLOAD DUP2 PUSH20 0xFFFFFFFFFFFFFFFFFFFFFFFFFFFFFFFFFFFFFFFF MUL NOT AND SWAP1 DUP4 PUSH20 0xFFFFFFFFFFFFFFFFFFFFFFFFFFFFFFFFFFFFFFFF AND MUL OR SWAP1 SSTORE POP DUP1 PUSH1 0x4 ADD PUSH1 0x0 DUP2 SLOAD DUP1 SWAP3 SWAP2 SWAP1 PUSH2 0x1561 SWAP1 PUSH2 0x273D JUMP JUMPDEST SWAP2 SWAP1 POP SSTORE POP CALLVALUE DUP2 PUSH1 0x6 ADD PUSH1 0x0 DUP3 DUP3 SLOAD PUSH2 0x157A SWAP2 SWAP1 PUSH2 0x2384 JUMP JUMPDEST SWAP3 POP POP DUP2 SWAP1 SSTORE POP DUP3 PUSH32 0x87969BC7FAF902221A147B95CEBA76E011C5EFB0339A0A8EE7A2BB82D9CFBBD6 CALLER PUSH1 0x40 MLOAD PUSH2 0x15B1 SWAP2 SWAP1 PUSH2 0x1F36 JUMP JUMPDEST PUSH1 0x40 MLOAD DUP1 SWAP2 SUB SWAP1 LOG2 PUSH1 0x1 DUP2 PUSH1 0x9 ADD DUP1 SLOAD SWAP1 POP EQ ISZERO PUSH2 0x15F7 JUMPI PUSH1 0x1 DUP2 PUSH1 0x8 ADD PUSH1 0x0 PUSH2 0x100 EXP DUP2 SLOAD DUP2 PUSH1 0xFF MUL NOT AND SWAP1 DUP4 PUSH1 0x4 DUP2 GT ISZERO PUSH2 0x15F1 JUMPI PUSH2 0x15F0 PUSH2 0x1D60 JUMP JUMPDEST JUMPDEST MUL OR SWAP1 SSTORE POP JUMPDEST DUP1 PUSH1 0x5 ADD SLOAD DUP2 PUSH1 0x9 ADD DUP1 SLOAD SWAP1 POP EQ ISZERO PUSH2 0x1638 JUMPI PUSH1 0x2 DUP2 PUSH1 0x8 ADD PUSH1 0x0 PUSH2 0x100 EXP DUP2 SLOAD DUP2 PUSH1 0xFF MUL NOT AND SWAP1 DUP4 PUSH1 0x4 DUP2 GT ISZERO PUSH2 0x1632 JUMPI PUSH2 0x1631 PUSH2 0x1D60 JUMP JUMPDEST JUMPDEST MUL OR SWAP1 SSTORE POP JUMPDEST POP POP PUSH2 0x1642 PUSH2 0x1719 JUMP JUMPDEST POP JUMP JUMPDEST PUSH2 0x164D PUSH2 0x1723 JUMP JUMPDEST PUSH1 0x0 PUSH20 0xFFFFFFFFFFFFFFFFFFFFFFFFFFFFFFFFFFFFFFFF AND DUP2 PUSH20 0xFFFFFFFFFFFFFFFFFFFFFFFFFFFFFFFFFFFFFFFF AND EQ ISZERO PUSH2 0x16BD JUMPI PUSH1 0x40 MLOAD PUSH32 0x8C379A000000000000000000000000000000000000000000000000000000000 DUP2 MSTORE PUSH1 0x4 ADD PUSH2 0x16B4 SWAP1 PUSH2 0x2C78 JUMP JUMPDEST PUSH1 0x40 MLOAD DUP1 SWAP2 SUB SWAP1 REVERT JUMPDEST PUSH2 0x16C6 DUP2 PUSH2 0x17A1 JUMP JUMPDEST POP JUMP JUMPDEST PUSH1 0x2 PUSH1 0x0 SLOAD EQ ISZERO PUSH2 0x170F JUMPI PUSH1 0x40 MLOAD PUSH32 0x8C379A000000000000000000000000000000000000000000000000000000000 DUP2 MSTORE PUSH1 0x4 ADD PUSH2 0x1706 SWAP1 PUSH2 0x2CE4 JUMP JUMPDEST PUSH1 0x40 MLOAD DUP1 SWAP2 SUB SWAP1 REVERT JUMPDEST PUSH1 0x2 PUSH1 0x0 DUP2 SWAP1 SSTORE POP JUMP JUMPDEST PUSH1 0x1 PUSH1 0x0 DUP2 SWAP1 SSTORE POP JUMP JUMPDEST PUSH2 0x172B PUSH2 0x1867 JUMP JUMPDEST PUSH20 0xFFFFFFFFFFFFFFFFFFFFFFFFFFFFFFFFFFFFFFFF AND PUSH2 0x1749 PUSH2 0xEA4 JUMP JUMPDEST PUSH20 0xFFFFFFFFFFFFFFFFFFFFFFFFFFFFFFFFFFFFFFFF AND EQ PUSH2 0x179F JUMPI PUSH1 0x40 MLOAD PUSH32 0x8C379A000000000000000000000000000000000000000000000000000000000 DUP2 MSTORE PUSH1 0x4 ADD PUSH2 0x1796 SWAP1 PUSH2 0x2D50 JUMP JUMPDEST PUSH1 0x40 MLOAD DUP1 SWAP2 SUB SWAP1 REVERT JUMPDEST JUMP JUMPDEST PUSH1 0x0 PUSH1 0x1 PUSH1 0x0 SWAP1 SLOAD SWAP1 PUSH2 0x100 EXP SWAP1 DIV PUSH20 0xFFFFFFFFFFFFFFFFFFFFFFFFFFFFFFFFFFFFFFFF AND SWAP1 POP DUP2 PUSH1 0x1 PUSH1 0x0 PUSH2 0x100 EXP DUP2 SLOAD DUP2 PUSH20 0xFFFFFFFFFFFFFFFFFFFFFFFFFFFFFFFFFFFFFFFF MUL NOT AND SWAP1 DUP4 PUSH20 0xFFFFFFFFFFFFFFFFFFFFFFFFFFFFFFFFFFFFFFFF AND MUL OR SWAP1 SSTORE POP DUP2 PUSH20 0xFFFFFFFFFFFFFFFFFFFFFFFFFFFFFFFFFFFFFFFF AND DUP2 PUSH20 0xFFFFFFFFFFFFFFFFFFFFFFFFFFFFFFFFFFFFFFFF AND PUSH32 0x8BE0079C531659141344CD1FD0A4F28419497F9722A3DAAFE3B4186F6B6457E0 PUSH1 0x40 MLOAD PUSH1 0x40 MLOAD DUP1 SWAP2 SUB SWAP1 LOG3 POP POP JUMP JUMPDEST PUSH1 0x0 CALLER SWAP1 POP SWAP1 JUMP JUMPDEST DUP3 DUP1 SLOAD PUSH2 0x187B SWAP1 PUSH2 0x2845 JUMP JUMPDEST SWAP1 PUSH1 0x0 MSTORE PUSH1 0x20 PUSH1 0x0 KECCAK256 SWAP1 PUSH1 0x1F ADD PUSH1 0x20 SWAP1 DIV DUP2 ADD SWAP3 DUP3 PUSH2 0x189D JUMPI PUSH1 0x0 DUP6 SSTORE PUSH2 0x18E4 JUMP JUMPDEST DUP3 PUSH1 0x1F LT PUSH2 0x18B6 JUMPI DUP1 MLOAD PUSH1 0xFF NOT AND DUP4 DUP1 ADD OR DUP6 SSTORE PUSH2 0x18E4 JUMP JUMPDEST DUP3 DUP1 ADD PUSH1 0x1 ADD DUP6 SSTORE DUP3 ISZERO PUSH2 0x18E4 JUMPI SWAP2 DUP3 ADD JUMPDEST DUP3 DUP2 GT ISZERO PUSH2 0x18E3 JUMPI DUP3 MLOAD DUP3 SSTORE SWAP2 PUSH1 0x20 ADD SWAP2 SWAP1 PUSH1 0x1 ADD SWAP1 PUSH2 0x18C8 JUMP JUMPDEST JUMPDEST POP SWAP1 POP PUSH2 0x18F1 SWAP2 SWAP1 PUSH2 0x18F5 JUMP JUMPDEST POP SWAP1 JUMP JUMPDEST JUMPDEST DUP1 DUP3 GT ISZERO PUSH2 0x190E JUMPI PUSH1 0x0 DUP2 PUSH1 0x0 SWAP1 SSTORE POP PUSH1 0x1 ADD PUSH2 0x18F6 JUMP JUMPDEST POP SWAP1 JUMP JUMPDEST PUSH1 0x0 DUP3 DUP3 MSTORE PUSH1 0x20 DUP3 ADD SWAP1 POP SWAP3 SWAP2 POP POP JUMP JUMPDEST PUSH32 0x446F206E6F742073656E6420455448206469726563746C790000000000000000 PUSH1 0x0 DUP3 ADD MSTORE POP JUMP JUMPDEST PUSH1 0x0 PUSH2 0x1959 PUSH1 0x18 DUP4 PUSH2 0x1912 JUMP JUMPDEST SWAP2 POP PUSH2 0x1964 DUP3 PUSH2 0x1923 JUMP JUMPDEST PUSH1 0x20 DUP3 ADD SWAP1 POP SWAP2 SWAP1 POP JUMP JUMPDEST PUSH1 0x0 PUSH1 0x20 DUP3 ADD SWAP1 POP DUP2 DUP2 SUB PUSH1 0x0 DUP4 ADD MSTORE PUSH2 0x1988 DUP2 PUSH2 0x194C JUMP JUMPDEST SWAP1 POP SWAP2 SWAP1 POP JUMP JUMPDEST PUSH1 0x0 PUSH1 0x40 MLOAD SWAP1 POP SWAP1 JUMP JUMPDEST PUSH1 0x0 DUP1 REVERT JUMPDEST PUSH1 0x0 DUP1 REVERT JUMPDEST PUSH1 0x0 DUP2 SWAP1 POP SWAP2 SWAP1 POP JUMP JUMPDEST PUSH2 0x19B6 DUP2 PUSH2 0x19A3 JUMP JUMPDEST DUP2 EQ PUSH2 0x19C1 JUMPI PUSH1 0x0 DUP1 REVERT JUMPDEST POP JUMP JUMPDEST PUSH1 0x0 DUP2 CALLDATALOAD SWAP1 POP PUSH2 0x19D3 DUP2 PUSH2 0x19AD JUMP JUMPDEST SWAP3 SWAP2 POP POP JUMP JUMPDEST PUSH1 0x0 PUSH20 0xFFFFFFFFFFFFFFFFFFFFFFFFFFFFFFFFFFFFFFFF DUP3 AND SWAP1 POP SWAP2 SWAP1 POP JUMP JUMPDEST PUSH1 0x0 PUSH2 0x1A04 DUP3 PUSH2 0x19D9 JUMP JUMPDEST SWAP1 POP SWAP2 SWAP1 POP JUMP JUMPDEST PUSH2 0x1A14 DUP2 PUSH2 0x19F9 JUMP JUMPDEST DUP2 EQ PUSH2 0x1A1F JUMPI PUSH1 0x0 DUP1 REVERT JUMPDEST POP JUMP JUMPDEST PUSH1 0x0 DUP2 CALLDATALOAD SWAP1 POP PUSH2 0x1A31 DUP2 PUSH2 0x1A0B JUMP JUMPDEST SWAP3 SWAP2 POP POP JUMP JUMPDEST PUSH1 0x0 DUP1 PUSH1 0x40 DUP4 DUP6 SUB SLT ISZERO PUSH2 0x1A4E JUMPI PUSH2 0x1A4D PUSH2 0x1999 JUMP JUMPDEST JUMPDEST PUSH1 0x0 PUSH2 0x1A5C DUP6 DUP3 DUP7 ADD PUSH2 0x19C4 JUMP JUMPDEST SWAP3 POP POP PUSH1 0x20 PUSH2 0x1A6D DUP6 DUP3 DUP7 ADD PUSH2 0x1A22 JUMP JUMPDEST SWAP2 POP POP SWAP3 POP SWAP3 SWAP1 POP JUMP JUMPDEST PUSH2 0x1A80 DUP2 PUSH2 0x19A3 JUMP JUMPDEST DUP3 MSTORE POP POP JUMP JUMPDEST PUSH1 0x0 PUSH1 0x20 DUP3 ADD SWAP1 POP PUSH2 0x1A9B PUSH1 0x0 DUP4 ADD DUP5 PUSH2 0x1A77 JUMP JUMPDEST SWAP3 SWAP2 POP POP JUMP JUMPDEST PUSH1 0x0 DUP1 REVERT JUMPDEST PUSH1 0x0 DUP1 REVERT JUMPDEST PUSH1 0x0 PUSH1 0x1F NOT PUSH1 0x1F DUP4 ADD AND SWAP1 POP SWAP2 SWAP1 POP JUMP JUMPDEST PUSH32 0x4E487B7100000000000000000000000000000000000000000000000000000000 PUSH1 0x0 MSTORE PUSH1 0x41 PUSH1 0x4 MSTORE PUSH1 0x24 PUSH1 0x0 REVERT JUMPDEST PUSH2 0x1AF4 DUP3 PUSH2 0x1AAB JUMP JUMPDEST DUP2 ADD DUP2 DUP2 LT PUSH8 0xFFFFFFFFFFFFFFFF DUP3 GT OR ISZERO PUSH2 0x1B13 JUMPI PUSH2 0x1B12 PUSH2 0x1ABC JUMP JUMPDEST JUMPDEST DUP1 PUSH1 0x40 MSTORE POP POP POP JUMP JUMPDEST PUSH1 0x0 PUSH2 0x1B26 PUSH2 0x198F JUMP JUMPDEST SWAP1 POP PUSH2 0x1B32 DUP3 DUP3 PUSH2 0x1AEB JUMP JUMPDEST SWAP2 SWAP1 POP JUMP JUMPDEST PUSH1 0x0 PUSH8 0xFFFFFFFFFFFFFFFF DUP3 GT ISZERO PUSH2 0x1B52 JUMPI PUSH2 0x1B51 PUSH2 0x1ABC JUMP JUMPDEST JUMPDEST PUSH2 0x1B5B DUP3 PUSH2 0x1AAB JUMP JUMPDEST SWAP1 POP PUSH1 0x20 DUP2 ADD SWAP1 POP SWAP2 SWAP1 POP JUMP JUMPDEST DUP3 DUP2 DUP4 CALLDATACOPY PUSH1 0x0 DUP4 DUP4 ADD MSTORE POP POP POP JUMP JUMPDEST PUSH1 0x0 PUSH2 0x1B8A PUSH2 0x1B85 DUP5 PUSH2 0x1B37 JUMP JUMPDEST PUSH2 0x1B1C JUMP JUMPDEST SWAP1 POP DUP3 DUP2 MSTORE PUSH1 0x20 DUP2 ADD DUP5 DUP5 DUP5 ADD GT ISZERO PUSH2 0x1BA6 JUMPI PUSH2 0x1BA5 PUSH2 0x1AA6 JUMP JUMPDEST JUMPDEST PUSH2 0x1BB1 DUP5 DUP3 DUP6 PUSH2 0x1B68 JUMP JUMPDEST POP SWAP4 SWAP3 POP POP POP JUMP JUMPDEST PUSH1 0x0 DUP3 PUSH1 0x1F DUP4 ADD SLT PUSH2 0x1BCE JUMPI PUSH2 0x1BCD PUSH2 0x1AA1 JUMP JUMPDEST JUMPDEST DUP2 CALLDATALOAD PUSH2 0x1BDE DUP5 DUP3 PUSH1 0x20 DUP7 ADD PUSH2 0x1B77 JUMP JUMPDEST SWAP2 POP POP SWAP3 SWAP2 POP POP JUMP JUMPDEST PUSH1 0x0 DUP1 PUSH1 0x0 DUP1 PUSH1 0x80 DUP6 DUP8 SUB SLT ISZERO PUSH2 0x1C01 JUMPI PUSH2 0x1C00 PUSH2 0x1999 JUMP JUMPDEST JUMPDEST PUSH1 0x0 DUP6 ADD CALLDATALOAD PUSH8 0xFFFFFFFFFFFFFFFF DUP2 GT ISZERO PUSH2 0x1C1F JUMPI PUSH2 0x1C1E PUSH2 0x199E JUMP JUMPDEST JUMPDEST PUSH2 0x1C2B DUP8 DUP3 DUP9 ADD PUSH2 0x1BB9 JUMP JUMPDEST SWAP5 POP POP PUSH1 0x20 DUP6 ADD CALLDATALOAD PUSH8 0xFFFFFFFFFFFFFFFF DUP2 GT ISZERO PUSH2 0x1C4C JUMPI PUSH2 0x1C4B PUSH2 0x199E JUMP JUMPDEST JUMPDEST PUSH2 0x1C58 DUP8 DUP3 DUP9 ADD PUSH2 0x1BB9 JUMP JUMPDEST SWAP4 POP POP PUSH1 0x40 PUSH2 0x1C69 DUP8 DUP3 DUP9 ADD PUSH2 0x19C4 JUMP JUMPDEST SWAP3 POP POP PUSH1 0x60 PUSH2 0x1C7A DUP8 DUP3 DUP9 ADD PUSH2 0x19C4 JUMP JUMPDEST SWAP2 POP POP SWAP3 SWAP6 SWAP2 SWAP5 POP SWAP3 POP JUMP JUMPDEST PUSH1 0x0 DUP2 ISZERO ISZERO SWAP1 POP SWAP2 SWAP1 POP JUMP JUMPDEST PUSH2 0x1C9B DUP2 PUSH2 0x1C86 JUMP JUMPDEST DUP3 MSTORE POP POP JUMP JUMPDEST PUSH1 0x0 PUSH1 0x20 DUP3 ADD SWAP1 POP PUSH2 0x1CB6 PUSH1 0x0 DUP4 ADD DUP5 PUSH2 0x1C92 JUMP JUMPDEST SWAP3 SWAP2 POP POP JUMP JUMPDEST PUSH1 0x0 PUSH1 0x20 DUP3 DUP5 SUB SLT ISZERO PUSH2 0x1CD2 JUMPI PUSH2 0x1CD1 PUSH2 0x1999 JUMP JUMPDEST JUMPDEST PUSH1 0x0 PUSH2 0x1CE0 DUP5 DUP3 DUP6 ADD PUSH2 0x19C4 JUMP JUMPDEST SWAP2 POP POP SWAP3 SWAP2 POP POP JUMP JUMPDEST PUSH1 0x0 DUP2 MLOAD SWAP1 POP SWAP2 SWAP1 POP JUMP JUMPDEST PUSH1 0x0 JUMPDEST DUP4 DUP2 LT ISZERO PUSH2 0x1D12 JUMPI DUP1 DUP3 ADD MLOAD DUP2 DUP5 ADD MSTORE PUSH1 0x20 DUP2 ADD SWAP1 POP PUSH2 0x1CF7 JUMP JUMPDEST DUP4 DUP2 GT ISZERO PUSH2 0x1D21 JUMPI PUSH1 0x0 DUP5 DUP5 ADD MSTORE JUMPDEST POP POP POP POP JUMP JUMPDEST PUSH1 0x0 PUSH2 0x1D32 DUP3 PUSH2 0x1CE9 JUMP JUMPDEST PUSH2 0x1D3C DUP2 DUP6 PUSH2 0x1912 JUMP JUMPDEST SWAP4 POP PUSH2 0x1D4C DUP2 DUP6 PUSH1 0x20 DUP7 ADD PUSH2 0x1CF4 JUMP JUMPDEST PUSH2 0x1D55 DUP2 PUSH2 0x1AAB JUMP JUMPDEST DUP5 ADD SWAP2 POP POP SWAP3 SWAP2 POP POP JUMP JUMPDEST PUSH32 0x4E487B7100000000000000000000000000000000000000000000000000000000 PUSH1 0x0 MSTORE PUSH1 0x21 PUSH1 0x4 MSTORE PUSH1 0x24 PUSH1 0x0 REVERT JUMPDEST PUSH1 0x5 DUP2 LT PUSH2 0x1DA0 JUMPI PUSH2 0x1D9F PUSH2 0x1D60 JUMP JUMPDEST JUMPDEST POP JUMP JUMPDEST PUSH1 0x0 DUP2 SWAP1 POP PUSH2 0x1DB1 DUP3 PUSH2 0x1D8F JUMP JUMPDEST SWAP2 SWAP1 POP JUMP JUMPDEST PUSH1 0x0 PUSH2 0x1DC1 DUP3 PUSH2 0x1DA3 JUMP JUMPDEST SWAP1 POP SWAP2 SWAP1 POP JUMP JUMPDEST PUSH2 0x1DD1 DUP2 PUSH2 0x1DB6 JUMP JUMPDEST DUP3 MSTORE POP POP JUMP JUMPDEST PUSH1 0x2 DUP2 LT PUSH2 0x1DE8 JUMPI PUSH2 0x1DE7 PUSH2 0x1D60 JUMP JUMPDEST JUMPDEST POP JUMP JUMPDEST PUSH1 0x0 DUP2 SWAP1 POP PUSH2 0x1DF9 DUP3 PUSH2 0x1DD7 JUMP JUMPDEST SWAP2 SWAP1 POP JUMP JUMPDEST PUSH1 0x0 PUSH2 0x1E09 DUP3 PUSH2 0x1DEB JUMP JUMPDEST SWAP1 POP SWAP2 SWAP1 POP JUMP JUMPDEST PUSH2 0x1E19 DUP2 PUSH2 0x1DFE JUMP JUMPDEST DUP3 MSTORE POP POP JUMP JUMPDEST PUSH2 0x1E28 DUP2 PUSH2 0x19F9 JUMP JUMPDEST DUP3 MSTORE POP POP JUMP JUMPDEST PUSH1 0x0 PUSH2 0x180 DUP3 ADD SWAP1 POP PUSH2 0x1E44 PUSH1 0x0 DUP4 ADD DUP16 PUSH2 0x1A77 JUMP JUMPDEST DUP2 DUP2 SUB PUSH1 0x20 DUP4 ADD MSTORE PUSH2 0x1E56 DUP2 DUP15 PUSH2 0x1D27 JUMP JUMPDEST SWAP1 POP DUP2 DUP2 SUB PUSH1 0x40 DUP4 ADD MSTORE PUSH2 0x1E6A DUP2 DUP14 PUSH2 0x1D27 JUMP JUMPDEST SWAP1 POP PUSH2 0x1E79 PUSH1 0x60 DUP4 ADD DUP13 PUSH2 0x1A77 JUMP JUMPDEST PUSH2 0x1E86 PUSH1 0x80 DUP4 ADD DUP12 PUSH2 0x1A77 JUMP JUMPDEST PUSH2 0x1E93 PUSH1 0xA0 DUP4 ADD DUP11 PUSH2 0x1A77 JUMP JUMPDEST PUSH2 0x1EA0 PUSH1 0xC0 DUP4 ADD DUP10 PUSH2 0x1A77 JUMP JUMPDEST PUSH2 0x1EAD PUSH1 0xE0 DUP4 ADD DUP9 PUSH2 0x1A77 JUMP JUMPDEST PUSH2 0x1EBB PUSH2 0x100 DUP4 ADD DUP8 PUSH2 0x1DC8 JUMP JUMPDEST PUSH2 0x1EC9 PUSH2 0x120 DUP4 ADD DUP7 PUSH2 0x1E10 JUMP JUMPDEST PUSH2 0x1ED7 PUSH2 0x140 DUP4 ADD DUP6 PUSH2 0x1E1F JUMP JUMPDEST PUSH2 0x1EE5 PUSH2 0x160 DUP4 ADD DUP5 PUSH2 0x1E1F JUMP JUMPDEST SWAP14 SWAP13 POP POP POP POP POP POP POP POP POP POP POP POP POP JUMP JUMPDEST PUSH1 0x0 DUP1 PUSH1 0x40 DUP4 DUP6 SUB SLT ISZERO PUSH2 0x1F0D JUMPI PUSH2 0x1F0C PUSH2 0x1999 JUMP JUMPDEST JUMPDEST PUSH1 0x0 PUSH2 0x1F1B DUP6 DUP3 DUP7 ADD PUSH2 0x19C4 JUMP JUMPDEST SWAP3 POP POP PUSH1 0x20 PUSH2 0x1F2C DUP6 DUP3 DUP7 ADD PUSH2 0x19C4 JUMP JUMPDEST SWAP2 POP POP SWAP3 POP SWAP3 SWAP1 POP JUMP JUMPDEST PUSH1 0x0 PUSH1 0x20 DUP3 ADD SWAP1 POP PUSH2 0x1F4B PUSH1 0x0 DUP4 ADD DUP5 PUSH2 0x1E1F JUMP JUMPDEST SWAP3 SWAP2 POP POP JUMP JUMPDEST PUSH1 0x0 PUSH1 0x60 DUP3 ADD SWAP1 POP PUSH2 0x1F66 PUSH1 0x0 DUP4 ADD DUP7 PUSH2 0x1DC8 JUMP JUMPDEST PUSH2 0x1F73 PUSH1 0x20 DUP4 ADD DUP6 PUSH2 0x1E1F JUMP JUMPDEST PUSH2 0x1F80 PUSH1 0x40 DUP4 ADD DUP5 PUSH2 0x1A77 JUMP JUMPDEST SWAP5 SWAP4 POP POP POP POP JUMP JUMPDEST PUSH1 0x0 PUSH2 0x1F93 DUP3 PUSH2 0x19F9 JUMP JUMPDEST SWAP1 POP SWAP2 SWAP1 POP JUMP JUMPDEST PUSH2 0x1FA3 DUP2 PUSH2 0x1F88 JUMP JUMPDEST DUP2 EQ PUSH2 0x1FAE JUMPI PUSH1 0x0 DUP1 REVERT JUMPDEST POP JUMP JUMPDEST PUSH1 0x0 DUP2 CALLDATALOAD SWAP1 POP PUSH2 0x1FC0 DUP2 PUSH2 0x1F9A JUMP JUMPDEST SWAP3 SWAP2 POP POP JUMP JUMPDEST PUSH1 0x0 DUP1 PUSH1 0x40 DUP4 DUP6 SUB SLT ISZERO PUSH2 0x1FDD JUMPI PUSH2 0x1FDC PUSH2 0x1999 JUMP JUMPDEST JUMPDEST PUSH1 0x0 PUSH2 0x1FEB DUP6 DUP3 DUP7 ADD PUSH2 0x1FB1 JUMP JUMPDEST SWAP3 POP POP PUSH1 0x20 PUSH2 0x1FFC DUP6 DUP3 DUP7 ADD PUSH2 0x1A22 JUMP JUMPDEST SWAP2 POP POP SWAP3 POP SWAP3 SWAP1 POP JUMP JUMPDEST PUSH1 0x0 DUP2 MLOAD SWAP1 POP SWAP2 SWAP1 POP JUMP JUMPDEST PUSH1 0x0 DUP3 DUP3 MSTORE PUSH1 0x20 DUP3 ADD SWAP1 POP SWAP3 SWAP2 POP POP JUMP JUMPDEST PUSH1 0x0 DUP2 SWAP1 POP PUSH1 0x20 DUP3 ADD SWAP1 POP SWAP2 SWAP1 POP JUMP JUMPDEST PUSH2 0x203B DUP2 PUSH2 0x19F9 JUMP JUMPDEST DUP3 MSTORE POP POP JUMP JUMPDEST PUSH1 0x0 PUSH2 0x204D DUP4 DUP4 PUSH2 0x2032 JUMP JUMPDEST PUSH1 0x20 DUP4 ADD SWAP1 POP SWAP3 SWAP2 POP POP JUMP JUMPDEST PUSH1 0x0 PUSH1 0x20 DUP3 ADD SWAP1 POP SWAP2 SWAP1 POP JUMP JUMPDEST PUSH1 0x0 PUSH2 0x2071 DUP3 PUSH2 0x2006 JUMP JUMPDEST PUSH2 0x207B DUP2 DUP6 PUSH2 0x2011 JUMP JUMPDEST SWAP4 POP PUSH2 0x2086 DUP4 PUSH2 0x2022 JUMP JUMPDEST DUP1 PUSH1 0x0 JUMPDEST DUP4 DUP2 LT ISZERO PUSH2 0x20B7 JUMPI DUP2 MLOAD PUSH2 0x209E DUP9 DUP3 PUSH2 0x2041 JUMP JUMPDEST SWAP8 POP PUSH2 0x20A9 DUP4 PUSH2 0x2059 JUMP JUMPDEST SWAP3 POP POP PUSH1 0x1 DUP2 ADD SWAP1 POP PUSH2 0x208A JUMP JUMPDEST POP DUP6 SWAP4 POP POP POP POP SWAP3 SWAP2 POP POP JUMP JUMPDEST PUSH1 0x0 PUSH1 0x20 DUP3 ADD SWAP1 POP DUP2 DUP2 SUB PUSH1 0x0 DUP4 ADD MSTORE PUSH2 0x20DE DUP2 DUP5 PUSH2 0x2066 JUMP JUMPDEST SWAP1 POP SWAP3 SWAP2 POP POP JUMP JUMPDEST PUSH1 0x0 PUSH1 0x20 DUP3 DUP5 SUB SLT ISZERO PUSH2 0x20FC JUMPI PUSH2 0x20FB PUSH2 0x1999 JUMP JUMPDEST JUMPDEST PUSH1 0x0 PUSH2 0x210A DUP5 DUP3 DUP6 ADD PUSH2 0x1A22 JUMP JUMPDEST SWAP2 POP POP SWAP3 SWAP2 POP POP JUMP JUMPDEST PUSH32 0x4C6F62627920646F6573206E6F74206578697374000000000000000000000000 PUSH1 0x0 DUP3 ADD MSTORE POP JUMP JUMPDEST PUSH1 0x0 PUSH2 0x2149 PUSH1 0x14 DUP4 PUSH2 0x1912 JUMP JUMPDEST SWAP2 POP PUSH2 0x2154 DUP3 PUSH2 0x2113 JUMP JUMPDEST PUSH1 0x20 DUP3 ADD SWAP1 POP SWAP2 SWAP1 POP JUMP JUMPDEST PUSH1 0x0 PUSH1 0x20 DUP3 ADD SWAP1 POP DUP2 DUP2 SUB PUSH1 0x0 DUP4 ADD MSTORE PUSH2 0x2178 DUP2 PUSH2 0x213C JUMP JUMPDEST SWAP1 POP SWAP2 SWAP1 POP JUMP JUMPDEST PUSH32 0x4F6E6C79206C6F6262792063726561746F722063616E20657865637574652074 PUSH1 0x0 DUP3 ADD MSTORE PUSH32 0x6869730000000000000000000000000000000000000000000000000000000000 PUSH1 0x20 DUP3 ADD MSTORE POP JUMP JUMPDEST PUSH1 0x0 PUSH2 0x21DB PUSH1 0x23 DUP4 PUSH2 0x1912 JUMP JUMPDEST SWAP2 POP PUSH2 0x21E6 DUP3 PUSH2 0x217F JUMP JUMPDEST PUSH1 0x40 DUP3 ADD SWAP1 POP SWAP2 SWAP1 POP JUMP JUMPDEST PUSH1 0x0 PUSH1 0x20 DUP3 ADD SWAP1 POP DUP2 DUP2 SUB PUSH1 0x0 DUP4 ADD MSTORE PUSH2 0x220A DUP2 PUSH2 0x21CE JUMP JUMPDEST SWAP1 POP SWAP2 SWAP1 POP JUMP JUMPDEST PUSH32 0x4C6F626279206E6F7420696E2070726F67726573730000000000000000000000 PUSH1 0x0 DUP3 ADD MSTORE POP JUMP JUMPDEST PUSH1 0x0 PUSH2 0x2247 PUSH1 0x15 DUP4 PUSH2 0x1912 JUMP JUMPDEST SWAP2 POP PUSH2 0x2252 DUP3 PUSH2 0x2211 JUMP JUMPDEST PUSH1 0x20 DUP3 ADD SWAP1 POP SWAP2 SWAP1 POP JUMP JUMPDEST PUSH1 0x0 PUSH1 0x20 DUP3 ADD SWAP1 POP DUP2 DUP2 SUB PUSH1 0x0 DUP4 ADD MSTORE PUSH2 0x2276 DUP2 PUSH2 0x223A JUMP JUMPDEST SWAP1 POP SWAP2 SWAP1 POP JUMP JUMPDEST PUSH32 0x57696E6E6572206E6F7420696E2074686973206C6F6262790000000000000000 PUSH1 0x0 DUP3 ADD MSTORE POP JUMP JUMPDEST PUSH1 0x0 PUSH2 0x22B3 PUSH1 0x18 DUP4 PUSH2 0x1912 JUMP JUMPDEST SWAP2 POP PUSH2 0x22BE DUP3 PUSH2 0x227D JUMP JUMPDEST PUSH1 0x20 DUP3 ADD SWAP1 POP SWAP2 SWAP1 POP JUMP JUMPDEST PUSH1 0x0 PUSH1 0x20 DUP3 ADD SWAP1 POP DUP2 DUP2 SUB PUSH1 0x0 DUP4 ADD MSTORE PUSH2 0x22E2 DUP2 PUSH2 0x22A6 JUMP JUMPDEST SWAP1 POP SWAP2 SWAP1 POP JUMP JUMPDEST PUSH32 0x416C726561647920646973747269627574656400000000000000000000000000 PUSH1 0x0 DUP3 ADD MSTORE POP JUMP JUMPDEST PUSH1 0x0 PUSH2 0x231F PUSH1 0x13 DUP4 PUSH2 0x1912 JUMP JUMPDEST SWAP2 POP PUSH2 0x232A DUP3 PUSH2 0x22E9 JUMP JUMPDEST PUSH1 0x20 DUP3 ADD SWAP1 POP SWAP2 SWAP1 POP JUMP JUMPDEST PUSH1 0x0 PUSH1 0x20 DUP3 ADD SWAP1 POP DUP2 DUP2 SUB PUSH1 0x0 DUP4 ADD MSTORE PUSH2 0x234E DUP2 PUSH2 0x2312 JUMP JUMPDEST SWAP1 POP SWAP2 SWAP1 POP JUMP JUMPDEST PUSH32 0x4E487B7100000000000000000000000000000000000000000000000000000000 PUSH1 0x0 MSTORE PUSH1 0x11 PUSH1 0x4 MSTORE PUSH1 0x24 PUSH1 0x0 REVERT JUMPDEST PUSH1 0x0 PUSH2 0x238F DUP3 PUSH2 0x19A3 JUMP JUMPDEST SWAP2 POP PUSH2 0x239A DUP4 PUSH2 0x19A3 JUMP JUMPDEST SWAP3 POP DUP3 PUSH32 0xFFFFFFFFFFFFFFFFFFFFFFFFFFFFFFFFFFFFFFFFFFFFFFFFFFFFFFFFFFFFFFFF SUB DUP3 GT ISZERO PUSH2 0x23CF JUMPI PUSH2 0x23CE PUSH2 0x2355 JUMP JUMPDEST JUMPDEST DUP3 DUP3 ADD SWAP1 POP SWAP3 SWAP2 POP POP JUMP JUMPDEST PUSH32 0x4C6F626279206E6F742065787069726564207965740000000000000000000000 PUSH1 0x0 DUP3 ADD MSTORE POP JUMP JUMPDEST PUSH1 0x0 PUSH2 0x2410 PUSH1 0x15 DUP4 PUSH2 0x1912 JUMP JUMPDEST SWAP2 POP PUSH2 0x241B DUP3 PUSH2 0x23DA JUMP JUMPDEST PUSH1 0x20 DUP3 ADD SWAP1 POP SWAP2 SWAP1 POP JUMP JUMPDEST PUSH1 0x0 PUSH1 0x20 DUP3 ADD SWAP1 POP DUP2 DUP2 SUB PUSH1 0x0 DUP4 ADD MSTORE PUSH2 0x243F DUP2 PUSH2 0x2403 JUMP JUMPDEST SWAP1 POP SWAP2 SWAP1 POP JUMP JUMPDEST PUSH32 0x4E6F207072697A6520746F206469737472696275746500000000000000000000 PUSH1 0x0 DUP3 ADD MSTORE POP JUMP JUMPDEST PUSH1 0x0 PUSH2 0x247C PUSH1 0x16 DUP4 PUSH2 0x1912 JUMP JUMPDEST SWAP2 POP PUSH2 0x2487 DUP3 PUSH2 0x2446 JUMP JUMPDEST PUSH1 0x20 DUP3 ADD SWAP1 POP SWAP2 SWAP1 POP JUMP JUMPDEST PUSH1 0x0 PUSH1 0x20 DUP3 ADD SWAP1 POP DUP2 DUP2 SUB PUSH1 0x0 DUP4 ADD MSTORE PUSH2 0x24AB DUP2 PUSH2 0x246F JUMP JUMPDEST SWAP1 POP SWAP2 SWAP1 POP JUMP JUMPDEST PUSH1 0x0 DUP2 SWAP1 POP SWAP3 SWAP2 POP POP JUMP JUMPDEST POP JUMP JUMPDEST PUSH1 0x0 PUSH2 0x24CD PUSH1 0x0 DUP4 PUSH2 0x24B2 JUMP JUMPDEST SWAP2 POP PUSH2 0x24D8 DUP3 PUSH2 0x24BD JUMP JUMPDEST PUSH1 0x0 DUP3 ADD SWAP1 POP SWAP2 SWAP1 POP JUMP JUMPDEST PUSH1 0x0 PUSH2 0x24EE DUP3 PUSH2 0x24C0 JUMP JUMPDEST SWAP2 POP DUP2 SWAP1 POP SWAP2 SWAP1 POP JUMP JUMPDEST PUSH32 0x5072697A65207472616E73666572206661696C65640000000000000000000000 PUSH1 0x0 DUP3 ADD MSTORE POP JUMP JUMPDEST PUSH1 0x0 PUSH2 0x252E PUSH1 0x15 DUP4 PUSH2 0x1912 JUMP JUMPDEST SWAP2 POP PUSH2 0x2539 DUP3 PUSH2 0x24F8 JUMP JUMPDEST PUSH1 0x20 DUP3 ADD SWAP1 POP SWAP2 SWAP1 POP JUMP JUMPDEST PUSH1 0x0 PUSH1 0x20 DUP3 ADD SWAP1 POP DUP2 DUP2 SUB PUSH1 0x0 DUP4 ADD MSTORE PUSH2 0x255D DUP2 PUSH2 0x2521 JUMP JUMPDEST SWAP1 POP SWAP2 SWAP1 POP JUMP JUMPDEST PUSH1 0x0 PUSH1 0x40 DUP3 ADD SWAP1 POP PUSH2 0x2579 PUSH1 0x0 DUP4 ADD DUP6 PUSH2 0x1E1F JUMP JUMPDEST PUSH2 0x2586 PUSH1 0x20 DUP4 ADD DUP5 PUSH2 0x1A77 JUMP JUMPDEST SWAP4 SWAP3 POP POP POP JUMP JUMPDEST PUSH32 0x4C6F626279206E616D652063616E6E6F7420626520656D707479000000000000 PUSH1 0x0 DUP3 ADD MSTORE POP JUMP JUMPDEST PUSH1 0x0 PUSH2 0x25C3 PUSH1 0x1A DUP4 PUSH2 0x1912 JUMP JUMPDEST SWAP2 POP PUSH2 0x25CE DUP3 PUSH2 0x258D JUMP JUMPDEST PUSH1 0x20 DUP3 ADD SWAP1 POP SWAP2 SWAP1 POP JUMP JUMPDEST PUSH1 0x0 PUSH1 0x20 DUP3 ADD SWAP1 POP DUP2 DUP2 SUB PUSH1 0x0 DUP4 ADD MSTORE PUSH2 0x25F2 DUP2 PUSH2 0x25B6 JUMP JUMPDEST SWAP1 POP SWAP2 SWAP1 POP JUMP JUMPDEST PUSH32 0x43617465676F72792063616E6E6F7420626520656D7074790000000000000000 PUSH1 0x0 DUP3 ADD MSTORE POP JUMP JUMPDEST PUSH1 0x0 PUSH2 0x262F PUSH1 0x18 DUP4 PUSH2 0x1912 JUMP JUMPDEST SWAP2 POP PUSH2 0x263A DUP3 PUSH2 0x25F9 JUMP JUMPDEST PUSH1 0x20 DUP3 ADD SWAP1 POP SWAP2 SWAP1 POP JUMP JUMPDEST PUSH1 0x0 PUSH1 0x20 DUP3 ADD SWAP1 POP DUP2 DUP2 SUB PUSH1 0x0 DUP4 ADD MSTORE PUSH2 0x265E DUP2 PUSH2 0x2622 JUMP JUMPDEST SWAP1 POP SWAP2 SWAP1 POP JUMP JUMPDEST PUSH32 0x456E74727920666565206D7573742062652067726561746572207468616E2030 PUSH1 0x0 DUP3 ADD MSTORE POP JUMP JUMPDEST PUSH1 0x0 PUSH2 0x269B PUSH1 0x20 DUP4 PUSH2 0x1912 JUMP JUMPDEST SWAP2 POP PUSH2 0x26A6 DUP3 PUSH2 0x2665 JUMP JUMPDEST PUSH1 0x20 DUP3 ADD SWAP1 POP SWAP2 SWAP1 POP JUMP JUMPDEST PUSH1 0x0 PUSH1 0x20 DUP3 ADD SWAP1 POP DUP2 DUP2 SUB PUSH1 0x0 DUP4 ADD MSTORE PUSH2 0x26CA DUP2 PUSH2 0x268E JUMP JUMPDEST SWAP1 POP SWAP2 SWAP1 POP JUMP JUMPDEST PUSH32 0x496E76616C6964206D617820706C617965727300000000000000000000000000 PUSH1 0x0 DUP3 ADD MSTORE POP JUMP JUMPDEST PUSH1 0x0 PUSH2 0x2707 PUSH1 0x13 DUP4 PUSH2 0x1912 JUMP JUMPDEST SWAP2 POP PUSH2 0x2712 DUP3 PUSH2 0x26D1 JUMP JUMPDEST PUSH1 0x20 DUP3 ADD SWAP1 POP SWAP2 SWAP1 POP JUMP JUMPDEST PUSH1 0x0 PUSH1 0x20 DUP3 ADD SWAP1 POP DUP2 DUP2 SUB PUSH1 0x0 DUP4 ADD MSTORE PUSH2 0x2736 DUP2 PUSH2 0x26FA JUMP JUMPDEST SWAP1 POP SWAP2 SWAP1 POP JUMP JUMPDEST PUSH1 0x0 PUSH2 0x2748 DUP3 PUSH2 0x19A3 JUMP JUMPDEST SWAP2 POP PUSH32 0xFFFFFFFFFFFFFFFFFFFFFFFFFFFFFFFFFFFFFFFFFFFFFFFFFFFFFFFFFFFFFFFF DUP3 EQ ISZERO PUSH2 0x277B JUMPI PUSH2 0x277A PUSH2 0x2355 JUMP JUMPDEST JUMPDEST PUSH1 0x1 DUP3 ADD SWAP1 POP SWAP2 SWAP1 POP JUMP JUMPDEST PUSH1 0x0 PUSH1 0xA0 DUP3 ADD SWAP1 POP DUP2 DUP2 SUB PUSH1 0x0 DUP4 ADD MSTORE PUSH2 0x27A0 DUP2 DUP9 PUSH2 0x1D27 JUMP JUMPDEST SWAP1 POP DUP2 DUP2 SUB PUSH1 0x20 DUP4 ADD MSTORE PUSH2 0x27B4 DUP2 DUP8 PUSH2 0x1D27 JUMP JUMPDEST SWAP1 POP PUSH2 0x27C3 PUSH1 0x40 DUP4 ADD DUP7 PUSH2 0x1A77 JUMP JUMPDEST PUSH2 0x27D0 PUSH1 0x60 DUP4 ADD DUP6 PUSH2 0x1A77 JUMP JUMPDEST PUSH2 0x27DD PUSH1 0x80 DUP4 ADD DUP5 PUSH2 0x1E1F JUMP JUMPDEST SWAP7 SWAP6 POP POP POP POP POP POP JUMP JUMPDEST PUSH32 0x4E487B7100000000000000000000000000000000000000000000000000000000 PUSH1 0x0 MSTORE PUSH1 0x32 PUSH1 0x4 MSTORE PUSH1 0x24 PUSH1 0x0 REVERT JUMPDEST PUSH32 0x4E487B7100000000000000000000000000000000000000000000000000000000 PUSH1 0x0 MSTORE PUSH1 0x22 PUSH1 0x4 MSTORE PUSH1 0x24 PUSH1 0x0 REVERT JUMPDEST PUSH1 0x0 PUSH1 0x2 DUP3 DIV SWAP1 POP PUSH1 0x1 DUP3 AND DUP1 PUSH2 0x285D JUMPI PUSH1 0x7F DUP3 AND SWAP2 POP JUMPDEST PUSH1 0x20 DUP3 LT DUP2 EQ ISZERO PUSH2 0x2871 JUMPI PUSH2 0x2870 PUSH2 0x2816 JUMP JUMPDEST JUMPDEST POP SWAP2 SWAP1 POP JUMP JUMPDEST PUSH32 0x526573756C7473206E6F7420617661696C61626C652079657400000000000000 PUSH1 0x0 DUP3 ADD MSTORE POP JUMP JUMPDEST PUSH1 0x0 PUSH2 0x28AD PUSH1 0x19 DUP4 PUSH2 0x1912 JUMP JUMPDEST SWAP2 POP PUSH2 0x28B8 DUP3 PUSH2 0x2877 JUMP JUMPDEST PUSH1 0x20 DUP3 ADD SWAP1 POP SWAP2 SWAP1 POP JUMP JUMPDEST PUSH1 0x0 PUSH1 0x20 DUP3 ADD SWAP1 POP DUP2 DUP2 SUB PUSH1 0x0 DUP4 ADD MSTORE PUSH2 0x28DC DUP2 PUSH2 0x28A0 JUMP JUMPDEST SWAP1 POP SWAP2 SWAP1 POP JUMP JUMPDEST PUSH1 0x0 DUP2 MLOAD SWAP1 POP PUSH2 0x28F2 DUP2 PUSH2 0x19AD JUMP JUMPDEST SWAP3 SWAP2 POP POP JUMP JUMPDEST PUSH1 0x0 PUSH1 0x20 DUP3 DUP5 SUB SLT ISZERO PUSH2 0x290E JUMPI PUSH2 0x290D PUSH2 0x1999 JUMP JUMPDEST JUMPDEST PUSH1 0x0 PUSH2 0x291C DUP5 DUP3 DUP6 ADD PUSH2 0x28E3 JUMP JUMPDEST SWAP2 POP POP SWAP3 SWAP2 POP POP JUMP JUMPDEST PUSH32 0x4E6F20746F6B656E7320746F2077697468647261770000000000000000000000 PUSH1 0x0 DUP3 ADD MSTORE POP JUMP JUMPDEST PUSH1 0x0 PUSH2 0x295B PUSH1 0x15 DUP4 PUSH2 0x1912 JUMP JUMPDEST SWAP2 POP PUSH2 0x2966 DUP3 PUSH2 0x2925 JUMP JUMPDEST PUSH1 0x20 DUP3 ADD SWAP1 POP SWAP2 SWAP1 POP JUMP JUMPDEST PUSH1 0x0 PUSH1 0x20 DUP3 ADD SWAP1 POP DUP2 DUP2 SUB PUSH1 0x0 DUP4 ADD MSTORE PUSH2 0x298A DUP2 PUSH2 0x294E JUMP JUMPDEST SWAP1 POP SWAP2 SWAP1 POP JUMP JUMPDEST PUSH2 0x299A DUP2 PUSH2 0x1C86 JUMP JUMPDEST DUP2 EQ PUSH2 0x29A5 JUMPI PUSH1 0x0 DUP1 REVERT JUMPDEST POP JUMP JUMPDEST PUSH1 0x0 DUP2 MLOAD SWAP1 POP PUSH2 0x29B7 DUP2 PUSH2 0x2991 JUMP JUMPDEST SWAP3 SWAP2 POP POP JUMP JUMPDEST PUSH1 0x0 PUSH1 0x20 DUP3 DUP5 SUB SLT ISZERO PUSH2 0x29D3 JUMPI PUSH2 0x29D2 PUSH2 0x1999 JUMP JUMPDEST JUMPDEST PUSH1 0x0 PUSH2 0x29E1 DUP5 DUP3 DUP6 ADD PUSH2 0x29A8 JUMP JUMPDEST SWAP2 POP POP SWAP3 SWAP2 POP POP JUMP JUMPDEST PUSH32 0x4C6F626279206E6F74206F70656E000000000000000000000000000000000000 PUSH1 0x0 DUP3 ADD MSTORE POP JUMP JUMPDEST PUSH1 0x0 PUSH2 0x2A20 PUSH1 0xE DUP4 PUSH2 0x1912 JUMP JUMPDEST SWAP2 POP PUSH2 0x2A2B DUP3 PUSH2 0x29EA JUMP JUMPDEST PUSH1 0x20 DUP3 ADD SWAP1 POP SWAP2 SWAP1 POP JUMP JUMPDEST PUSH1 0x0 PUSH1 0x20 DUP3 ADD SWAP1 POP DUP2 DUP2 SUB PUSH1 0x0 DUP4 ADD MSTORE PUSH2 0x2A4F DUP2 PUSH2 0x2A13 JUMP JUMPDEST SWAP1 POP SWAP2 SWAP1 POP JUMP JUMPDEST PUSH32 0x496E636F727265637420656E7472792066656500000000000000000000000000 PUSH1 0x0 DUP3 ADD MSTORE POP JUMP JUMPDEST PUSH1 0x0 PUSH2 0x2A8C PUSH1 0x13 DUP4 PUSH2 0x1912 JUMP JUMPDEST SWAP2 POP PUSH2 0x2A97 DUP3 PUSH2 0x2A56 JUMP JUMPDEST PUSH1 0x20 DUP3 ADD SWAP1 POP SWAP2 SWAP1 POP JUMP JUMPDEST PUSH1 0x0 PUSH1 0x20 DUP3 ADD SWAP1 POP DUP2 DUP2 SUB PUSH1 0x0 DUP4 ADD MSTORE PUSH2 0x2ABB DUP2 PUSH2 0x2A7F JUMP JUMPDEST SWAP1 POP SWAP2 SWAP1 POP JUMP JUMPDEST PUSH32 0x4C6F6262792066756C6C00000000000000000000000000000000000000000000 PUSH1 0x0 DUP3 ADD MSTORE POP JUMP JUMPDEST PUSH1 0x0 PUSH2 0x2AF8 PUSH1 0xA DUP4 PUSH2 0x1912 JUMP JUMPDEST SWAP2 POP PUSH2 0x2B03 DUP3 PUSH2 0x2AC2 JUMP JUMPDEST PUSH1 0x20 DUP3 ADD SWAP1 POP SWAP2 SWAP1 POP JUMP JUMPDEST PUSH1 0x0 PUSH1 0x20 DUP3 ADD SWAP1 POP DUP2 DUP2 SUB PUSH1 0x0 DUP4 ADD MSTORE PUSH2 0x2B27 DUP2 PUSH2 0x2AEB JUMP JUMPDEST SWAP1 POP SWAP2 SWAP1 POP JUMP JUMPDEST PUSH32 0x4C6F626279206578706972656400000000000000000000000000000000000000 PUSH1 0x0 DUP3 ADD MSTORE POP JUMP JUMPDEST PUSH1 0x0 PUSH2 0x2B64 PUSH1 0xD DUP4 PUSH2 0x1912 JUMP JUMPDEST SWAP2 POP PUSH2 0x2B6F DUP3 PUSH2 0x2B2E JUMP JUMPDEST PUSH1 0x20 DUP3 ADD SWAP1 POP SWAP2 SWAP1 POP JUMP JUMPDEST PUSH1 0x0 PUSH1 0x20 DUP3 ADD SWAP1 POP DUP2 DUP2 SUB PUSH1 0x0 DUP4 ADD MSTORE PUSH2 0x2B93 DUP2 PUSH2 0x2B57 JUMP JUMPDEST SWAP1 POP SWAP2 SWAP1 POP JUMP JUMPDEST PUSH32 0x43726561746F722063616E6E6F74206A6F696E2074686973206C6F6262790000 PUSH1 0x0 DUP3 ADD MSTORE POP JUMP JUMPDEST PUSH1 0x0 PUSH2 0x2BD0 PUSH1 0x1E DUP4 PUSH2 0x1912 JUMP JUMPDEST SWAP2 POP PUSH2 0x2BDB DUP3 PUSH2 0x2B9A JUMP JUMPDEST PUSH1 0x20 DUP3 ADD SWAP1 POP SWAP2 SWAP1 POP JUMP JUMPDEST PUSH1 0x0 PUSH1 0x20 DUP3 ADD SWAP1 POP DUP2 DUP2 SUB PUSH1 0x0 DUP4 ADD MSTORE PUSH2 0x2BFF DUP2 PUSH2 0x2BC3 JUMP JUMPDEST SWAP1 POP SWAP2 SWAP1 POP JUMP JUMPDEST PUSH32 0x4F776E61626C653A206E6577206F776E657220697320746865207A65726F2061 PUSH1 0x0 DUP3 ADD MSTORE PUSH32 0x6464726573730000000000000000000000000000000000000000000000000000 PUSH1 0x20 DUP3 ADD MSTORE POP JUMP JUMPDEST PUSH1 0x0 PUSH2 0x2C62 PUSH1 0x26 DUP4 PUSH2 0x1912 JUMP JUMPDEST SWAP2 POP PUSH2 0x2C6D DUP3 PUSH2 0x2C06 JUMP JUMPDEST PUSH1 0x40 DUP3 ADD SWAP1 POP SWAP2 SWAP1 POP JUMP JUMPDEST PUSH1 0x0 PUSH1 0x20 DUP3 ADD SWAP1 POP DUP2 DUP2 SUB PUSH1 0x0 DUP4 ADD MSTORE PUSH2 0x2C91 DUP2 PUSH2 0x2C55 JUMP JUMPDEST SWAP1 POP SWAP2 SWAP1 POP JUMP JUMPDEST PUSH32 0x5265656E7472616E637947756172643A207265656E7472616E742063616C6C00 PUSH1 0x0 DUP3 ADD MSTORE POP JUMP JUMPDEST PUSH1 0x0 PUSH2 0x2CCE PUSH1 0x1F DUP4 PUSH2 0x1912 JUMP JUMPDEST SWAP2 POP PUSH2 0x2CD9 DUP3 PUSH2 0x2C98 JUMP JUMPDEST PUSH1 0x20 DUP3 ADD SWAP1 POP SWAP2 SWAP1 POP JUMP JUMPDEST PUSH1 0x0 PUSH1 0x20 DUP3 ADD SWAP1 POP DUP2 DUP2 SUB PUSH1 0x0 DUP4 ADD MSTORE PUSH2 0x2CFD DUP2 PUSH2 0x2CC1 JUMP JUMPDEST SWAP1 POP SWAP2 SWAP1 POP JUMP JUMPDEST PUSH32 0x4F776E61626C653A2063616C6C6572206973206E6F7420746865206F776E6572 PUSH1 0x0 DUP3 ADD MSTORE POP JUMP JUMPDEST PUSH1 0x0 PUSH2 0x2D3A PUSH1 0x20 DUP4 PUSH2 0x1912 JUMP JUMPDEST SWAP2 POP PUSH2 0x2D45 DUP3 PUSH2 0x2D04 JUMP JUMPDEST PUSH1 0x20 DUP3 ADD SWAP1 POP SWAP2 SWAP1 POP JUMP JUMPDEST PUSH1 0x0 PUSH1 0x20 DUP3 ADD SWAP1 POP DUP2 DUP2 SUB PUSH1 0x0 DUP4 ADD MSTORE PUSH2 0x2D69 DUP2 PUSH2 0x2D2D JUMP JUMPDEST SWAP1 POP SWAP2 SWAP1 POP JUMP INVALID LOG2 PUSH5 0x6970667358 0x22 SLT KECCAK256 PUSH21 0x69C0F6FFFBB88026B3C09005027BB10F0A4B3D603E SWAP15 0x21 0xEC SWAP12 DUP16 MOD CODESIZE PUSH28 0x310364736F6C634300080A0033000000000000000000000000000000 "},"methodIdentifiers":{"LOBBY_TIMEOUT()":"a16353bf","createLobby(string,string,uint256,uint256)":"2a14ebb4","executeWinnerPayout(uint256,address)":"0cc46ba7","getLobbyResult(uint256)":"8e9be6f6","getPlayersInLobby(uint256)":"d85cdcb6","isPlayerInLobby(uint256,address)":"559ab8cc","joinLobby(uint256)":"e9173b3a","leaderboardSet(uint256)":"729f767d","lobbies(uint256)":"6e8fb4c6","lobbyLeaderboard(uint256,uint256)":"869bb51b","nextLobbyId()":"c309b1e3","owner()":"8da5cb5b","playerScores(uint256,address)":"00200e27","renounceOwnership()":"715018a6","transferOwnership(address)":"f2fde38b","withdrawERC20(address,address)":"9456fbcc"}}}}}