{
  "_format": "hh3-artifact-1",
  "contractName": "TokenTransferDelegate",
  "sourceName": "contracts/TokenTransferDelegate.sol",
  "abi": [
    {
      "inputs": [],
      "name": "ECDSAInvalidSignature",
      "type": "error"
    },
    {
      "inputs": [
        {
          "internalType": "uint256",
          "name": "length",
          "type": "uint256"
        }
      ],
      "name": "ECDSAInvalidSignatureLength",
      "type": "error"
    },
    {
      "inputs": [
        {
          "internalType": "bytes32",
          "name": "s",
          "type": "bytes32"
        }
      ],
      "name": "ECDSAInvalidSignatureS",
      "type": "error"
    },
    {
      "anonymous": false,
      "inputs": [
        {
          "indexed": true,
          "internalType": "uint256",
          "name": "nonce",
          "type": "uint256"
        },
        {
          "components": [
            {
              "internalType": "address",
              "name": "to",
              "type": "address"
            },
            {
              "internalType": "uint256",
              "name": "value",
              "type": "uint256"
            },
            {
              "internalType": "bytes",
              "name": "data",
              "type": "bytes"
            }
          ],
          "indexed": false,
          "internalType": "struct TokenTransferDelegate.Call[]",
          "name": "calls",
          "type": "tuple[]"
        }
      ],
      "name": "BatchExecuted",
      "type": "event"
    },
    {
      "anonymous": false,
      "inputs": [
        {
          "indexed": true,
          "internalType": "address",
          "name": "executor",
          "type": "address"
        },
        {
          "indexed": false,
          "internalType": "address",
          "name": "to",
          "type": "address"
        },
        {
          "indexed": false,
          "internalType": "uint256",
          "name": "value",
          "type": "uint256"
        },
        {
          "indexed": false,
          "internalType": "bytes",
          "name": "data",
          "type": "bytes"
        }
      ],
      "name": "CallExecuted",
      "type": "event"
    },
    {
      "inputs": [
        {
          "components": [
            {
              "internalType": "address",
              "name": "to",
              "type": "address"
            },
            {
              "internalType": "uint256",
              "name": "value",
              "type": "uint256"
            },
            {
              "internalType": "bytes",
              "name": "data",
              "type": "bytes"
            }
          ],
          "internalType": "struct TokenTransferDelegate.Call[]",
          "name": "calls",
          "type": "tuple[]"
        }
      ],
      "name": "execute",
      "outputs": [],
      "stateMutability": "payable",
      "type": "function"
    },
    {
      "inputs": [
        {
          "components": [
            {
              "internalType": "address",
              "name": "to",
              "type": "address"
            },
            {
              "internalType": "uint256",
              "name": "value",
              "type": "uint256"
            },
            {
              "internalType": "bytes",
              "name": "data",
              "type": "bytes"
            }
          ],
          "internalType": "struct TokenTransferDelegate.Call[]",
          "name": "calls",
          "type": "tuple[]"
        },
        {
          "internalType": "bytes",
          "name": "signature",
          "type": "bytes"
        }
      ],
      "name": "execute",
      "outputs": [],
      "stateMutability": "payable",
      "type": "function"
    },
    {
      "inputs": [],
      "name": "nonce",
      "outputs": [
        {
          "internalType": "uint256",
          "name": "",
          "type": "uint256"
        }
      ],
      "stateMutability": "view",
      "type": "function"
    }
  ],
  "bytecode": "0x6080604052348015600e575f5ffd5b50610a398061001c5f395ff3fe608060405260043610610033575f3560e01c80633f707e6b146100375780636171d1c91461004c578063affed0e01461005f575b5f5ffd5b61004a61004536600461068c565b610085565b005b61004a61005a3660046106cb565b6100db565b34801561006a575f5ffd5b506100735f5481565b60405190815260200160405180910390f35b3330146100cd5760405162461bcd60e51b8152602060048201526011602482015270496e76616c696420617574686f7269747960781b60448201526064015b60405180910390fd5b6100d782826102ab565b5050565b60605f5b848110156101a257818686838181106100fa576100fa610764565b905060200281019061010c9190610778565b61011a9060208101906107b1565b87878481811061012c5761012c610764565b905060200281019061013e9190610778565b6020013588888581811061015457610154610764565b90506020028101906101669190610778565b6101749060408101906107d1565b60405160200161018895949392919061082b565b60408051601f1981840301815291905291506001016100df565b505f5f54826040516020016101b892919061086c565b6040516020818303038152906040528051906020012090505f610207827f19457468657265756d205369676e6564204d6573736167653a0a3332000000005f908152601c91909152603c902090565b90505f6102498287878080601f0160208091040260200160405190810160405280939291908181526020018383808284375f9201919091525061033f92505050565b90506001600160a01b03811630146102975760405162461bcd60e51b8152602060048201526011602482015270496e76616c6964207369676e617475726560781b60448201526064016100c4565b6102a188886102ab565b5050505050505050565b5f8054908190806102bb83610885565b909155505f90505b828110156102ff576102f78484838181106102e0576102e0610764565b90506020028101906102f29190610778565b610367565b6001016102c3565b50807f280bb3599696acbf79fb8ffcde81a57337b52500f789600fbb1cff9b4cbaba3984846040516103329291906108d1565b60405180910390a2505050565b5f5f5f5f61034d868661047b565b92509250925061035d82826104c4565b5090949350505050565b5f61037560208301836107b1565b6001600160a01b0316602083013561039060408501856107d1565b60405161039e9291906109af565b5f6040518083038185875af1925050503d805f81146103d8576040519150601f19603f3d011682016040523d82523d5f602084013e6103dd565b606091505b505090508061041e5760405162461bcd60e51b815260206004820152600d60248201526c10d85b1b081c995d995c9d1959609a1b60448201526064016100c4565b307fed7e8f919df9cc0d0ad8b4057d084ebf319b630564d5da283e14751adc931f3a61044d60208501856107b1565b602085013561045f60408701876107d1565b60405161046f94939291906109be565b60405180910390a25050565b5f5f5f83516041036104b2576020840151604085015160608601515f1a6104a48882858561057c565b9550955095505050506104bd565b505081515f91506002905b9250925092565b5f8260038111156104d7576104d76109ef565b036104e0575050565b60018260038111156104f4576104f46109ef565b036105125760405163f645eedf60e01b815260040160405180910390fd5b6002826003811115610526576105266109ef565b036105475760405163fce698f760e01b8152600481018290526024016100c4565b600382600381111561055b5761055b6109ef565b036100d7576040516335e2f38360e21b8152600481018290526024016100c4565b5f80807f7fffffffffffffffffffffffffffffff5d576e7357a4501ddfe92f46681b20a08411156105b557505f9150600390508261063a565b604080515f808252602082018084528a905260ff891692820192909252606081018790526080810186905260019060a0016020604051602081039080840390855afa158015610606573d5f5f3e3d5ffd5b5050604051601f1901519150506001600160a01b03811661063157505f92506001915082905061063a565b92505f91508190505b9450945094915050565b5f5f83601f840112610654575f5ffd5b50813567ffffffffffffffff81111561066b575f5ffd5b6020830191508360208260051b8501011115610685575f5ffd5b9250929050565b5f5f6020838503121561069d575f5ffd5b823567ffffffffffffffff8111156106b3575f5ffd5b6106bf85828601610644565b90969095509350505050565b5f5f5f5f604085870312156106de575f5ffd5b843567ffffffffffffffff8111156106f4575f5ffd5b61070087828801610644565b909550935050602085013567ffffffffffffffff81111561071f575f5ffd5b8501601f8101871361072f575f5ffd5b803567ffffffffffffffff811115610745575f5ffd5b876020828401011115610756575f5ffd5b949793965060200194505050565b634e487b7160e01b5f52603260045260245ffd5b5f8235605e1983360301811261078c575f5ffd5b9190910192915050565b80356001600160a01b03811681146107ac575f5ffd5b919050565b5f602082840312156107c1575f5ffd5b6107ca82610796565b9392505050565b5f5f8335601e198436030181126107e6575f5ffd5b83018035915067ffffffffffffffff821115610800575f5ffd5b602001915036819003821315610685575f5ffd5b5f81518060208401855e5f93019283525090919050565b5f6108368288610814565b6bffffffffffffffffffffffff198760601b168152856014820152838560348301375f9301603401928352509095945050505050565b8281525f61087d6020830184610814565b949350505050565b5f600182016108a257634e487b7160e01b5f52601160045260245ffd5b5060010190565b81835281816020850137505f828201602090810191909152601f909101601f19169091010190565b602080825281018290525f6040600584901b830181019083018583605e1936839003015b878210156109a257868503603f190184528235818112610913575f5ffd5b89016001600160a01b0361092682610796565b168652602081013560208701526040810135601e19823603018112610949575f5ffd5b0160208101903567ffffffffffffffff811115610964575f5ffd5b803603821315610972575f5ffd5b606060408801526109876060880182846108a9565b965050506020830192506020840193506001820191506108f5565b5092979650505050505050565b818382375f9101908152919050565b60018060a01b0385168152836020820152606060408201525f6109e56060830184866108a9565b9695505050505050565b634e487b7160e01b5f52602160045260245ffdfea26469706673582212203bcf3273af61529bc665fef34e53c9a56165aea40603028a50adb7b237b7df8e64736f6c634300081c0033",
  "linkReferences": {},
  "deployedLinkReferences": {},
  "immutableReferences": {},
  "inputSourceName": "project/contracts/TokenTransferDelegate.sol",
  "buildInfoId": "solc-0_8_28-da5408015e3d0cf22f7a5acb28c654cbeb9849cf"
}