{
  "_format": "hh3-artifact-1",
  "contractName": "BaseWrappedBridge",
  "sourceName": "contracts/NftBridge.sol",
  "abi": [
    {
      "inputs": [
        {
          "internalType": "string",
          "name": "name_",
          "type": "string"
        },
        {
          "internalType": "string",
          "name": "symbol_",
          "type": "string"
        },
        {
          "internalType": "address",
          "name": "_endpoint",
          "type": "address"
        }
      ],
      "stateMutability": "nonpayable",
      "type": "constructor"
    },
    {
      "inputs": [
        {
          "internalType": "address",
          "name": "sender",
          "type": "address"
        },
        {
          "internalType": "uint256",
          "name": "tokenId",
          "type": "uint256"
        },
        {
          "internalType": "address",
          "name": "owner",
          "type": "address"
        }
      ],
      "name": "ERC721IncorrectOwner",
      "type": "error"
    },
    {
      "inputs": [
        {
          "internalType": "address",
          "name": "operator",
          "type": "address"
        },
        {
          "internalType": "uint256",
          "name": "tokenId",
          "type": "uint256"
        }
      ],
      "name": "ERC721InsufficientApproval",
      "type": "error"
    },
    {
      "inputs": [
        {
          "internalType": "address",
          "name": "approver",
          "type": "address"
        }
      ],
      "name": "ERC721InvalidApprover",
      "type": "error"
    },
    {
      "inputs": [
        {
          "internalType": "address",
          "name": "operator",
          "type": "address"
        }
      ],
      "name": "ERC721InvalidOperator",
      "type": "error"
    },
    {
      "inputs": [
        {
          "internalType": "address",
          "name": "owner",
          "type": "address"
        }
      ],
      "name": "ERC721InvalidOwner",
      "type": "error"
    },
    {
      "inputs": [
        {
          "internalType": "address",
          "name": "receiver",
          "type": "address"
        }
      ],
      "name": "ERC721InvalidReceiver",
      "type": "error"
    },
    {
      "inputs": [
        {
          "internalType": "address",
          "name": "sender",
          "type": "address"
        }
      ],
      "name": "ERC721InvalidSender",
      "type": "error"
    },
    {
      "inputs": [
        {
          "internalType": "uint256",
          "name": "tokenId",
          "type": "uint256"
        }
      ],
      "name": "ERC721NonexistentToken",
      "type": "error"
    },
    {
      "inputs": [
        {
          "internalType": "address",
          "name": "owner",
          "type": "address"
        }
      ],
      "name": "OwnableInvalidOwner",
      "type": "error"
    },
    {
      "inputs": [
        {
          "internalType": "address",
          "name": "account",
          "type": "address"
        }
      ],
      "name": "OwnableUnauthorizedAccount",
      "type": "error"
    },
    {
      "inputs": [],
      "name": "ReentrancyGuardReentrantCall",
      "type": "error"
    },
    {
      "anonymous": false,
      "inputs": [
        {
          "indexed": true,
          "internalType": "address",
          "name": "owner",
          "type": "address"
        },
        {
          "indexed": true,
          "internalType": "address",
          "name": "approved",
          "type": "address"
        },
        {
          "indexed": true,
          "internalType": "uint256",
          "name": "tokenId",
          "type": "uint256"
        }
      ],
      "name": "Approval",
      "type": "event"
    },
    {
      "anonymous": false,
      "inputs": [
        {
          "indexed": true,
          "internalType": "address",
          "name": "owner",
          "type": "address"
        },
        {
          "indexed": true,
          "internalType": "address",
          "name": "operator",
          "type": "address"
        },
        {
          "indexed": false,
          "internalType": "bool",
          "name": "approved",
          "type": "bool"
        }
      ],
      "name": "ApprovalForAll",
      "type": "event"
    },
    {
      "anonymous": false,
      "inputs": [
        {
          "indexed": true,
          "internalType": "address",
          "name": "previousOwner",
          "type": "address"
        },
        {
          "indexed": true,
          "internalType": "address",
          "name": "newOwner",
          "type": "address"
        }
      ],
      "name": "OwnershipTransferred",
      "type": "event"
    },
    {
      "anonymous": false,
      "inputs": [
        {
          "indexed": true,
          "internalType": "address",
          "name": "from",
          "type": "address"
        },
        {
          "indexed": true,
          "internalType": "address",
          "name": "to",
          "type": "address"
        },
        {
          "indexed": true,
          "internalType": "uint256",
          "name": "tokenId",
          "type": "uint256"
        }
      ],
      "name": "Transfer",
      "type": "event"
    },
    {
      "anonymous": false,
      "inputs": [
        {
          "indexed": true,
          "internalType": "address",
          "name": "owner",
          "type": "address"
        },
        {
          "indexed": false,
          "internalType": "uint256",
          "name": "wrappedTokenId",
          "type": "uint256"
        },
        {
          "indexed": false,
          "internalType": "uint16",
          "name": "destChainId",
          "type": "uint16"
        },
        {
          "indexed": false,
          "internalType": "address",
          "name": "destContract",
          "type": "address"
        },
        {
          "indexed": false,
          "internalType": "uint256",
          "name": "originTokenId",
          "type": "uint256"
        }
      ],
      "name": "WrappedBurned",
      "type": "event"
    },
    {
      "anonymous": false,
      "inputs": [
        {
          "indexed": true,
          "internalType": "address",
          "name": "recipient",
          "type": "address"
        },
        {
          "indexed": false,
          "internalType": "uint16",
          "name": "srcChainId",
          "type": "uint16"
        },
        {
          "indexed": false,
          "internalType": "address",
          "name": "srcContract",
          "type": "address"
        },
        {
          "indexed": false,
          "internalType": "uint256",
          "name": "originTokenId",
          "type": "uint256"
        },
        {
          "indexed": false,
          "internalType": "uint256",
          "name": "wrappedTokenId",
          "type": "uint256"
        },
        {
          "indexed": false,
          "internalType": "string",
          "name": "tokenURI",
          "type": "string"
        }
      ],
      "name": "WrappedMinted",
      "type": "event"
    },
    {
      "inputs": [
        {
          "internalType": "address",
          "name": "to",
          "type": "address"
        },
        {
          "internalType": "uint256",
          "name": "tokenId",
          "type": "uint256"
        }
      ],
      "name": "approve",
      "outputs": [],
      "stateMutability": "nonpayable",
      "type": "function"
    },
    {
      "inputs": [
        {
          "internalType": "address",
          "name": "owner",
          "type": "address"
        }
      ],
      "name": "balanceOf",
      "outputs": [
        {
          "internalType": "uint256",
          "name": "",
          "type": "uint256"
        }
      ],
      "stateMutability": "view",
      "type": "function"
    },
    {
      "inputs": [
        {
          "internalType": "uint16",
          "name": "_dstChainId",
          "type": "uint16"
        },
        {
          "internalType": "bytes",
          "name": "_dstContractBytes",
          "type": "bytes"
        },
        {
          "internalType": "uint256",
          "name": "_wrappedTokenId",
          "type": "uint256"
        },
        {
          "internalType": "bytes",
          "name": "_adapterParams",
          "type": "bytes"
        }
      ],
      "name": "bridgeBack",
      "outputs": [],
      "stateMutability": "payable",
      "type": "function"
    },
    {
      "inputs": [
        {
          "internalType": "bytes32",
          "name": "",
          "type": "bytes32"
        }
      ],
      "name": "bridgedToWrapped",
      "outputs": [
        {
          "internalType": "uint256",
          "name": "",
          "type": "uint256"
        }
      ],
      "stateMutability": "view",
      "type": "function"
    },
    {
      "inputs": [],
      "name": "endpoint",
      "outputs": [
        {
          "internalType": "contract ILayerZeroEndpoint",
          "name": "",
          "type": "address"
        }
      ],
      "stateMutability": "view",
      "type": "function"
    },
    {
      "inputs": [
        {
          "internalType": "uint256",
          "name": "tokenId",
          "type": "uint256"
        }
      ],
      "name": "getApproved",
      "outputs": [
        {
          "internalType": "address",
          "name": "",
          "type": "address"
        }
      ],
      "stateMutability": "view",
      "type": "function"
    },
    {
      "inputs": [
        {
          "internalType": "address",
          "name": "owner",
          "type": "address"
        },
        {
          "internalType": "address",
          "name": "operator",
          "type": "address"
        }
      ],
      "name": "isApprovedForAll",
      "outputs": [
        {
          "internalType": "bool",
          "name": "",
          "type": "bool"
        }
      ],
      "stateMutability": "view",
      "type": "function"
    },
    {
      "inputs": [
        {
          "internalType": "uint16",
          "name": "_srcChainId",
          "type": "uint16"
        },
        {
          "internalType": "bytes",
          "name": "_srcAddress",
          "type": "bytes"
        },
        {
          "internalType": "uint64",
          "name": "",
          "type": "uint64"
        },
        {
          "internalType": "bytes",
          "name": "_payload",
          "type": "bytes"
        }
      ],
      "name": "lzReceive",
      "outputs": [],
      "stateMutability": "nonpayable",
      "type": "function"
    },
    {
      "inputs": [],
      "name": "name",
      "outputs": [
        {
          "internalType": "string",
          "name": "",
          "type": "string"
        }
      ],
      "stateMutability": "view",
      "type": "function"
    },
    {
      "inputs": [],
      "name": "nextTokenId",
      "outputs": [
        {
          "internalType": "uint256",
          "name": "",
          "type": "uint256"
        }
      ],
      "stateMutability": "view",
      "type": "function"
    },
    {
      "inputs": [],
      "name": "owner",
      "outputs": [
        {
          "internalType": "address",
          "name": "",
          "type": "address"
        }
      ],
      "stateMutability": "view",
      "type": "function"
    },
    {
      "inputs": [
        {
          "internalType": "uint256",
          "name": "tokenId",
          "type": "uint256"
        }
      ],
      "name": "ownerOf",
      "outputs": [
        {
          "internalType": "address",
          "name": "",
          "type": "address"
        }
      ],
      "stateMutability": "view",
      "type": "function"
    },
    {
      "inputs": [],
      "name": "renounceOwnership",
      "outputs": [],
      "stateMutability": "nonpayable",
      "type": "function"
    },
    {
      "inputs": [
        {
          "internalType": "address",
          "name": "from",
          "type": "address"
        },
        {
          "internalType": "address",
          "name": "to",
          "type": "address"
        },
        {
          "internalType": "uint256",
          "name": "tokenId",
          "type": "uint256"
        }
      ],
      "name": "safeTransferFrom",
      "outputs": [],
      "stateMutability": "nonpayable",
      "type": "function"
    },
    {
      "inputs": [
        {
          "internalType": "address",
          "name": "from",
          "type": "address"
        },
        {
          "internalType": "address",
          "name": "to",
          "type": "address"
        },
        {
          "internalType": "uint256",
          "name": "tokenId",
          "type": "uint256"
        },
        {
          "internalType": "bytes",
          "name": "data",
          "type": "bytes"
        }
      ],
      "name": "safeTransferFrom",
      "outputs": [],
      "stateMutability": "nonpayable",
      "type": "function"
    },
    {
      "inputs": [
        {
          "internalType": "address",
          "name": "operator",
          "type": "address"
        },
        {
          "internalType": "bool",
          "name": "approved",
          "type": "bool"
        }
      ],
      "name": "setApprovalForAll",
      "outputs": [],
      "stateMutability": "nonpayable",
      "type": "function"
    },
    {
      "inputs": [
        {
          "internalType": "uint16",
          "name": "_srcChainId",
          "type": "uint16"
        },
        {
          "internalType": "bytes",
          "name": "_srcContract",
          "type": "bytes"
        }
      ],
      "name": "setTrustedRemote",
      "outputs": [],
      "stateMutability": "nonpayable",
      "type": "function"
    },
    {
      "inputs": [
        {
          "internalType": "bytes4",
          "name": "interfaceId",
          "type": "bytes4"
        }
      ],
      "name": "supportsInterface",
      "outputs": [
        {
          "internalType": "bool",
          "name": "",
          "type": "bool"
        }
      ],
      "stateMutability": "view",
      "type": "function"
    },
    {
      "inputs": [],
      "name": "symbol",
      "outputs": [
        {
          "internalType": "string",
          "name": "",
          "type": "string"
        }
      ],
      "stateMutability": "view",
      "type": "function"
    },
    {
      "inputs": [
        {
          "internalType": "uint256",
          "name": "tokenId",
          "type": "uint256"
        }
      ],
      "name": "tokenURI",
      "outputs": [
        {
          "internalType": "string",
          "name": "",
          "type": "string"
        }
      ],
      "stateMutability": "view",
      "type": "function"
    },
    {
      "inputs": [
        {
          "internalType": "address",
          "name": "from",
          "type": "address"
        },
        {
          "internalType": "address",
          "name": "to",
          "type": "address"
        },
        {
          "internalType": "uint256",
          "name": "tokenId",
          "type": "uint256"
        }
      ],
      "name": "transferFrom",
      "outputs": [],
      "stateMutability": "nonpayable",
      "type": "function"
    },
    {
      "inputs": [
        {
          "internalType": "address",
          "name": "newOwner",
          "type": "address"
        }
      ],
      "name": "transferOwnership",
      "outputs": [],
      "stateMutability": "nonpayable",
      "type": "function"
    },
    {
      "inputs": [
        {
          "internalType": "uint16",
          "name": "",
          "type": "uint16"
        }
      ],
      "name": "trustedRemoteLookup",
      "outputs": [
        {
          "internalType": "bytes",
          "name": "",
          "type": "bytes"
        }
      ],
      "stateMutability": "view",
      "type": "function"
    },
    {
      "inputs": [
        {
          "internalType": "uint256",
          "name": "",
          "type": "uint256"
        }
      ],
      "name": "wrappedOriginInfo",
      "outputs": [
        {
          "internalType": "uint16",
          "name": "originChain",
          "type": "uint16"
        },
        {
          "internalType": "address",
          "name": "originContract",
          "type": "address"
        },
        {
          "internalType": "uint256",
          "name": "originTokenId",
          "type": "uint256"
        }
      ],
      "stateMutability": "view",
      "type": "function"
    },
    {
      "inputs": [
        {
          "internalType": "uint256",
          "name": "",
          "type": "uint256"
        }
      ],
      "name": "wrappedToOriginKey",
      "outputs": [
        {
          "internalType": "bytes32",
          "name": "",
          "type": "bytes32"
        }
      ],
      "stateMutability": "view",
      "type": "function"
    }
  ],
  "bytecode": "0x60806040526001600d55348015610014575f5ffd5b506040516121f83803806121f8833981016040819052610033916101a3565b3383835f61004183826102ac565b50600161004e82826102ac565b5050506001600160a01b03811661007e57604051631e4fbdf760e01b81525f600482015260240160405180910390fd5b610087816100b5565b506001600755600880546001600160a01b0319166001600160a01b0392909216919091179055506103669050565b600680546001600160a01b038381166001600160a01b0319831681179093556040519116919082907f8be0079c531659141344cd1fd0a4f28419497f9722a3daafe3b4186f6b6457e0905f90a35050565b634e487b7160e01b5f52604160045260245ffd5b5f82601f830112610129575f5ffd5b81516001600160401b0381111561014257610142610106565b604051601f8201601f19908116603f011681016001600160401b038111828210171561017057610170610106565b604052818152838201602001851015610187575f5ffd5b8160208501602083015e5f918101602001919091529392505050565b5f5f5f606084860312156101b5575f5ffd5b83516001600160401b038111156101ca575f5ffd5b6101d68682870161011a565b602086015190945090506001600160401b038111156101f3575f5ffd5b6101ff8682870161011a565b604086015190935090506001600160a01b038116811461021d575f5ffd5b809150509250925092565b600181811c9082168061023c57607f821691505b60208210810361025a57634e487b7160e01b5f52602260045260245ffd5b50919050565b601f8211156102a757805f5260205f20601f840160051c810160208510156102855750805b601f840160051c820191505b818110156102a4575f8155600101610291565b50505b505050565b81516001600160401b038111156102c5576102c5610106565b6102d9816102d38454610228565b84610260565b6020601f82116001811461030b575f83156102f45750848201515b5f19600385901b1c1916600184901b1784556102a4565b5f84815260208120601f198516915b8281101561033a578785015182556020948501946001909201910161031a565b508482101561035757868401515f19600387901b60f8161c191681555b50505050600190811b01905550565b611e85806103735f395ff3fe608060405260043610610160575f3560e01c80637533d788116100cd578063b451d0e411610087578063c87b56dd11610062578063c87b56dd14610469578063e985e9c514610488578063eb8d72b7146104a7578063f2fde38b146104c6575f5ffd5b8063b451d0e4146103af578063b697c2c11461041f578063b88d4fde1461044a575f5ffd5b80637533d7881461031857806375794a3c146103375780638da5cb5b1461034c57806395d89b4114610369578063a22cb4651461037d578063ab33be5e1461039c575f5ffd5b806342842e0e1161011e57806342842e0e1461024f5780635e280f111461026e5780636235faf31461028d5780636352211e146102c657806370a08231146102e5578063715018a614610304575f5ffd5b80621d35671461016457806301ffc9a71461018557806306fdde03146101b9578063081812fc146101da578063095ea7b31461021157806323b872dd14610230575b5f5ffd5b34801561016f575f5ffd5b5061018361017e3660046116f6565b6104e5565b005b348015610190575f5ffd5b506101a461019f3660046117a6565b61086d565b60405190151581526020015b60405180910390f35b3480156101c4575f5ffd5b506101cd6108be565b6040516101b091906117ef565b3480156101e5575f5ffd5b506101f96101f4366004611801565b61094d565b6040516001600160a01b0390911681526020016101b0565b34801561021c575f5ffd5b5061018361022b36600461182c565b610974565b34801561023b575f5ffd5b5061018361024a366004611856565b610983565b34801561025a575f5ffd5b50610183610269366004611856565b610a0c565b348015610279575f5ffd5b506008546101f9906001600160a01b031681565b348015610298575f5ffd5b506102b86102a7366004611801565b600a6020525f908152604090205481565b6040519081526020016101b0565b3480156102d1575f5ffd5b506101f96102e0366004611801565b610a2b565b3480156102f0575f5ffd5b506102b86102ff366004611894565b610a35565b34801561030f575f5ffd5b50610183610a7a565b348015610323575f5ffd5b506101cd6103323660046118af565b610a8d565b348015610342575f5ffd5b506102b8600d5481565b348015610357575f5ffd5b506006546001600160a01b03166101f9565b348015610374575f5ffd5b506101cd610b24565b348015610388575f5ffd5b506101836103973660046118c8565b610b33565b6101836103aa366004611903565b610b3e565b3480156103ba575f5ffd5b506103f76103c9366004611801565b600c6020525f90815260409020805460019091015461ffff8216916201000090046001600160a01b03169083565b6040805161ffff90941684526001600160a01b039092166020840152908201526060016101b0565b34801561042a575f5ffd5b506102b8610439366004611801565b600b6020525f908152604090205481565b348015610455575f5ffd5b506101836104643660046119f5565b610d99565b348015610474575f5ffd5b506101cd610483366004611801565b610db1565b348015610493575f5ffd5b506101a46104a2366004611a6f565b610e22565b3480156104b2575f5ffd5b506101836104c1366004611a9b565b610e4f565b3480156104d1575f5ffd5b506101836104e0366004611894565b610e74565b6008546001600160a01b031633146105445760405162461bcd60e51b815260206004820152601760248201527f43616c6c6572206d75737420626520656e64706f696e7400000000000000000060448201526064015b60405180910390fd5b61ffff86165f908152600960205260408120805461056190611ae9565b80601f016020809104026020016040519081016040528092919081815260200182805461058d90611ae9565b80156105d85780601f106105af576101008083540402835291602001916105d8565b820191905f5260205f20905b8154815290600101906020018083116105bb57829003601f168201915b5050505050905080515f1415801561060d575085856040516105fb929190611b21565b60405180910390208180519060200120145b61064e5760405162461bcd60e51b815260206004820152601260248201527114995b5bdd19481b9bdd081d1c9d5cdd195960721b604482015260640161053b565b5f8080808080610660888a018a611b3b565b9550955095509550955095508560ff16600103610806576040516001600160f01b031960f087901b1660208201526bffffffffffffffffffffffff19606086901b166022820152603681018490525f9060560160408051601f1981840301815291815281516020928301205f818152600a909352912054909150156107195760405162461bcd60e51b815260206004820152600f60248201526e105b1c9958591e48189c9a5919d959608a1b604482015260640161053b565b600d80545f918261072983611bd9565b909155505f838152600a60209081526040808320849055838352600b8252808320869055805160608101825261ffff808d1682526001600160a01b03808d168386019081528385018d8152888852600c9096529390952091518254935190951662010000026001600160b01b03199093169416939093171782555160019091015590506107b68382610eb1565b826001600160a01b03167f03d2390d0f7d401d5310f20791598efba31c0d7c6664d52b42d37ef797df3a1188888885896040516107f7959493929190611bfd565b60405180910390a2505061085e565b60405162461bcd60e51b815260206004820152602760248201527f556e737570706f7274656420616374696f6e206f6e20426173655772617070656044820152666442726964676560c81b606482015260840161053b565b50505050505050505050505050565b5f6001600160e01b031982166380ac58cd60e01b148061089d57506001600160e01b03198216635b5e139f60e01b145b806108b857506301ffc9a760e01b6001600160e01b03198316145b92915050565b60605f80546108cc90611ae9565b80601f01602080910402602001604051908101604052809291908181526020018280546108f890611ae9565b80156109435780601f1061091a57610100808354040283529160200191610943565b820191905f5260205f20905b81548152906001019060200180831161092657829003601f168201915b5050505050905090565b5f61095782610eca565b505f828152600460205260409020546001600160a01b03166108b8565b61097f828233610f02565b5050565b6001600160a01b0382166109ac57604051633250574960e11b81525f600482015260240161053b565b5f6109b8838333610f0f565b9050836001600160a01b0316816001600160a01b031614610a06576040516364283d7b60e01b81526001600160a01b038086166004830152602482018490528216604482015260640161053b565b50505050565b610a2683838360405180602001604052805f815250610d99565b505050565b5f6108b882610eca565b5f6001600160a01b038216610a5f576040516322718ad960e21b81525f600482015260240161053b565b506001600160a01b03165f9081526003602052604090205490565b610a82611001565b610a8b5f61102e565b565b60096020525f908152604090208054610aa590611ae9565b80601f0160208091040260200160405190810160405280929190818152602001828054610ad190611ae9565b8015610b1c5780601f10610af357610100808354040283529160200191610b1c565b820191905f5260205f20905b815481529060010190602001808311610aff57829003601f168201915b505050505081565b6060600180546108cc90611ae9565b61097f33838361107f565b610b4661111d565b33610b5084610a2b565b6001600160a01b031614610b925760405162461bcd60e51b81526020600482015260096024820152682737ba1037bbb732b960b91b604482015260640161053b565b5f838152600c60209081526040918290208251606081018452815461ffff811682526201000090046001600160a01b031692810183905260019091015492810192909252610c155760405162461bcd60e51b815260206004820152601060248201526f13dc9a59da5b881b9bdd08199bdd5b9960821b604482015260640161053b565b610c1e84611147565b80516020808301516040808501518151600294810185905261ffff909516858301526001600160a01b039283166060860152608085015260c060a085018190525f60e0808701829052339287018390528351808803909101815261010087019384905260085462c5803160e81b9094529495929093169263c5803100923492610cb6928f928f928f928a928f908f9061010401611c66565b5f604051808303818588803b158015610ccd575f5ffd5b505af1158015610cdf573d5f5f3e3d5ffd5b5050505050336001600160a01b03167fcace3e9328560284167febbf693a2b3feea41607bf29f1d9f4700af457bf2561878b610d4f8c8c8080601f0160208091040260200160405190810160405280939291908181526020018383808284375f9201919091525061117f92505050565b604080890151815194855261ffff90931660208501526001600160a01b0390911690830152606082015260800160405180910390a2505050610d916001600755565b505050505050565b610da4848484610983565b610a0633858585856111cc565b6060610dbc82610eca565b505f610dd260408051602081019091525f815290565b90505f815111610df05760405180602001604052805f815250610e1b565b80610dfa846112f2565b604051602001610e0b929190611ce7565b6040516020818303038152906040525b9392505050565b6001600160a01b039182165f90815260056020908152604080832093909416825291909152205460ff1690565b610e57611001565b61ffff83165f908152600960205260409020610a06828483611d3f565b610e7c611001565b6001600160a01b038116610ea557604051631e4fbdf760e01b81525f600482015260240161053b565b610eae8161102e565b50565b61097f828260405180602001604052805f815250611381565b5f818152600260205260408120546001600160a01b0316806108b857604051637e27328960e01b81526004810184905260240161053b565b610a268383836001611398565b5f828152600260205260408120546001600160a01b0390811690831615610f3b57610f3b81848661149c565b6001600160a01b03811615610f7557610f565f855f5f611398565b6001600160a01b0381165f90815260036020526040902080545f190190555b6001600160a01b03851615610fa3576001600160a01b0385165f908152600360205260409020805460010190555b5f8481526002602052604080822080546001600160a01b0319166001600160a01b0389811691821790925591518793918516917fddf252ad1be2c89b69c2b068fc378daa952ba7f163c4a11628f55a4df523b3ef91a4949350505050565b6006546001600160a01b03163314610a8b5760405163118cdaa760e01b815233600482015260240161053b565b600680546001600160a01b038381166001600160a01b0319831681179093556040519116919082907f8be0079c531659141344cd1fd0a4f28419497f9722a3daafe3b4186f6b6457e0905f90a35050565b6001600160a01b0382166110b157604051630b61174360e31b81526001600160a01b038316600482015260240161053b565b6001600160a01b038381165f81815260056020908152604080832094871680845294825291829020805460ff191686151590811790915591519182527f17307eab39ab6107e8899845ad3d59bd9653f200f220920489ca2b5937696c31910160405180910390a3505050565b60026007540361114057604051633ee5aeb560e01b815260040160405180910390fd5b6002600755565b5f6111535f835f610f0f565b90506001600160a01b03811661097f57604051637e27328960e01b81526004810183905260240161053b565b5f6014825110156111c45760405162461bcd60e51b815260206004820152600f60248201526e189e5d195cc81d1bdbc81cda1bdc9d608a1b604482015260640161053b565b506014015190565b6001600160a01b0383163b156112eb57604051630a85bd0160e11b81526001600160a01b0384169063150b7a029061120e908890889087908790600401611df8565b6020604051808303815f875af1925050508015611248575060408051601f3d908101601f1916820190925261124591810190611e34565b60015b6112af573d808015611275576040519150601f19603f3d011682016040523d82523d5f602084013e61127a565b606091505b5080515f036112a757604051633250574960e11b81526001600160a01b038516600482015260240161053b565b805160208201fd5b6001600160e01b03198116630a85bd0160e11b14610d9157604051633250574960e11b81526001600160a01b038516600482015260240161053b565b5050505050565b60605f6112fe83611500565b60010190505f816001600160401b0381111561131c5761131c61196c565b6040519080825280601f01601f191660200182016040528015611346576020820181803683370190505b5090508181016020015b5f19016f181899199a1a9b1b9c1cb0b131b232b360811b600a86061a8153600a850494508461135057509392505050565b61138b83836115d7565b610a26335f8585856111cc565b80806113ac57506001600160a01b03821615155b1561146d575f6113bb84610eca565b90506001600160a01b038316158015906113e75750826001600160a01b0316816001600160a01b031614155b80156113fa57506113f88184610e22565b155b156114235760405163a9fbf51f60e01b81526001600160a01b038416600482015260240161053b565b811561146b5783856001600160a01b0316826001600160a01b03167f8c5be1e5ebec7d5bd14f71427d1e84f3dd0314c0f7b2291e5b200ac8c7c3b92560405160405180910390a45b505b50505f90815260046020526040902080546001600160a01b0319166001600160a01b0392909216919091179055565b6114a7838383611638565b610a26576001600160a01b0383166114d557604051637e27328960e01b81526004810182905260240161053b565b60405163177e802f60e01b81526001600160a01b03831660048201526024810182905260440161053b565b5f8072184f03e93ff9f4daa797ed6e38ed64bf6a1f0160401b831061153e5772184f03e93ff9f4daa797ed6e38ed64bf6a1f0160401b830492506040015b6d04ee2d6d415b85acef8100000000831061156a576d04ee2d6d415b85acef8100000000830492506020015b662386f26fc10000831061158857662386f26fc10000830492506010015b6305f5e10083106115a0576305f5e100830492506008015b61271083106115b457612710830492506004015b606483106115c6576064830492506002015b600a83106108b85760010192915050565b6001600160a01b03821661160057604051633250574960e11b81525f600482015260240161053b565b5f61160c83835f610f0f565b90506001600160a01b03811615610a26576040516339e3563760e11b81525f600482015260240161053b565b5f6001600160a01b038316158015906116945750826001600160a01b0316846001600160a01b0316148061167157506116718484610e22565b8061169457505f828152600460205260409020546001600160a01b038481169116145b949350505050565b803561ffff811681146116ad575f5ffd5b919050565b5f5f83601f8401126116c2575f5ffd5b5081356001600160401b038111156116d8575f5ffd5b6020830191508360208285010111156116ef575f5ffd5b9250929050565b5f5f5f5f5f5f6080878903121561170b575f5ffd5b6117148761169c565b955060208701356001600160401b0381111561172e575f5ffd5b61173a89828a016116b2565b90965094505060408701356001600160401b0381168114611759575f5ffd5b925060608701356001600160401b03811115611773575f5ffd5b61177f89828a016116b2565b979a9699509497509295939492505050565b6001600160e01b031981168114610eae575f5ffd5b5f602082840312156117b6575f5ffd5b8135610e1b81611791565b5f81518084528060208401602086015e5f602082860101526020601f19601f83011685010191505092915050565b602081525f610e1b60208301846117c1565b5f60208284031215611811575f5ffd5b5035919050565b6001600160a01b0381168114610eae575f5ffd5b5f5f6040838503121561183d575f5ffd5b823561184881611818565b946020939093013593505050565b5f5f5f60608486031215611868575f5ffd5b833561187381611818565b9250602084013561188381611818565b929592945050506040919091013590565b5f602082840312156118a4575f5ffd5b8135610e1b81611818565b5f602082840312156118bf575f5ffd5b610e1b8261169c565b5f5f604083850312156118d9575f5ffd5b82356118e481611818565b9150602083013580151581146118f8575f5ffd5b809150509250929050565b5f5f5f5f5f5f60808789031215611918575f5ffd5b6119218761169c565b955060208701356001600160401b0381111561193b575f5ffd5b61194789828a016116b2565b9096509450506040870135925060608701356001600160401b03811115611773575f5ffd5b634e487b7160e01b5f52604160045260245ffd5b5f5f6001600160401b038411156119995761199961196c565b50604051601f19601f85018116603f011681018181106001600160401b03821117156119c7576119c761196c565b6040528381529050808284018510156119de575f5ffd5b838360208301375f60208583010152509392505050565b5f5f5f5f60808587031215611a08575f5ffd5b8435611a1381611818565b93506020850135611a2381611818565b92506040850135915060608501356001600160401b03811115611a44575f5ffd5b8501601f81018713611a54575f5ffd5b611a6387823560208401611980565b91505092959194509250565b5f5f60408385031215611a80575f5ffd5b8235611a8b81611818565b915060208301356118f881611818565b5f5f5f60408486031215611aad575f5ffd5b611ab68461169c565b925060208401356001600160401b03811115611ad0575f5ffd5b611adc868287016116b2565b9497909650939450505050565b600181811c90821680611afd57607f821691505b602082108103611b1b57634e487b7160e01b5f52602260045260245ffd5b50919050565b818382375f9101908152919050565b80356116ad81611818565b5f5f5f5f5f5f60c08789031215611b50575f5ffd5b863560ff81168114611b60575f5ffd5b9550611b6e6020880161169c565b94506040870135611b7e81611818565b93506060870135925060808701356001600160401b03811115611b9f575f5ffd5b8701601f81018913611baf575f5ffd5b611bbe89823560208401611980565b925050611bcd60a08801611b30565b90509295509295509295565b5f60018201611bf657634e487b7160e01b5f52601160045260245ffd5b5060010190565b61ffff8616815260018060a01b038516602082015283604082015282606082015260a060808201525f611c3360a08301846117c1565b979650505050505050565b81835281816020850137505f828201602090810191909152601f909101601f19169091010190565b61ffff8916815260c060208201525f611c8360c08301898b611c3e565b8281036040840152611c9581896117c1565b6001600160a01b0388811660608601528716608085015283810360a08501529050611cc1818587611c3e565b9b9a5050505050505050505050565b5f81518060208401855e5f93019283525090919050565b5f611694611cf58386611cd0565b84611cd0565b601f821115610a2657805f5260205f20601f840160051c81016020851015611d205750805b601f840160051c820191505b818110156112eb575f8155600101611d2c565b6001600160401b03831115611d5657611d5661196c565b611d6a83611d648354611ae9565b83611cfb565b5f601f841160018114611d9b575f8515611d845750838201355b5f19600387901b1c1916600186901b1783556112eb565b5f83815260208120601f198716915b82811015611dca5786850135825560209485019460019092019101611daa565b5086821015611de6575f1960f88860031b161c19848701351681555b505060018560011b0183555050505050565b6001600160a01b03858116825284166020820152604081018390526080606082018190525f90611e2a908301846117c1565b9695505050505050565b5f60208284031215611e44575f5ffd5b8151610e1b8161179156fea264697066735822122034a6b5e2ef86707f6ead86b60d2f62851a890cb364bd5270597a390fe2d9685364736f6c634300081c0033",
  "linkReferences": {},
  "deployedLinkReferences": {},
  "immutableReferences": {},
  "inputSourceName": "project/contracts/NftBridge.sol",
  "buildInfoId": "solc-0_8_28-90805f4cdaf4c0da8a951fa7fa684f6c2ad069f2"
}