{
  "_format": "hh3-artifact-1",
  "contractName": "BaseWrappedBridge",
  "sourceName": "contracts/NftBridge.sol",
  "abi": [
    {
      "inputs": [
        {
          "internalType": "string",
          "name": "name_",
          "type": "string"
        },
        {
          "internalType": "string",
          "name": "symbol_",
          "type": "string"
        },
        {
          "internalType": "address",
          "name": "_endpoint",
          "type": "address"
        },
        {
          "internalType": "address",
          "name": "_delegate",
          "type": "address"
        }
      ],
      "stateMutability": "nonpayable",
      "type": "constructor"
    },
    {
      "inputs": [
        {
          "internalType": "address",
          "name": "sender",
          "type": "address"
        },
        {
          "internalType": "uint256",
          "name": "tokenId",
          "type": "uint256"
        },
        {
          "internalType": "address",
          "name": "owner",
          "type": "address"
        }
      ],
      "name": "ERC721IncorrectOwner",
      "type": "error"
    },
    {
      "inputs": [
        {
          "internalType": "address",
          "name": "operator",
          "type": "address"
        },
        {
          "internalType": "uint256",
          "name": "tokenId",
          "type": "uint256"
        }
      ],
      "name": "ERC721InsufficientApproval",
      "type": "error"
    },
    {
      "inputs": [
        {
          "internalType": "address",
          "name": "approver",
          "type": "address"
        }
      ],
      "name": "ERC721InvalidApprover",
      "type": "error"
    },
    {
      "inputs": [
        {
          "internalType": "address",
          "name": "operator",
          "type": "address"
        }
      ],
      "name": "ERC721InvalidOperator",
      "type": "error"
    },
    {
      "inputs": [
        {
          "internalType": "address",
          "name": "owner",
          "type": "address"
        }
      ],
      "name": "ERC721InvalidOwner",
      "type": "error"
    },
    {
      "inputs": [
        {
          "internalType": "address",
          "name": "receiver",
          "type": "address"
        }
      ],
      "name": "ERC721InvalidReceiver",
      "type": "error"
    },
    {
      "inputs": [
        {
          "internalType": "address",
          "name": "sender",
          "type": "address"
        }
      ],
      "name": "ERC721InvalidSender",
      "type": "error"
    },
    {
      "inputs": [
        {
          "internalType": "uint256",
          "name": "tokenId",
          "type": "uint256"
        }
      ],
      "name": "ERC721NonexistentToken",
      "type": "error"
    },
    {
      "inputs": [],
      "name": "InvalidDelegate",
      "type": "error"
    },
    {
      "inputs": [],
      "name": "InvalidEndpointCall",
      "type": "error"
    },
    {
      "inputs": [],
      "name": "LzTokenUnavailable",
      "type": "error"
    },
    {
      "inputs": [
        {
          "internalType": "uint32",
          "name": "eid",
          "type": "uint32"
        }
      ],
      "name": "NoPeer",
      "type": "error"
    },
    {
      "inputs": [
        {
          "internalType": "uint256",
          "name": "msgValue",
          "type": "uint256"
        }
      ],
      "name": "NotEnoughNative",
      "type": "error"
    },
    {
      "inputs": [
        {
          "internalType": "address",
          "name": "addr",
          "type": "address"
        }
      ],
      "name": "OnlyEndpoint",
      "type": "error"
    },
    {
      "inputs": [
        {
          "internalType": "uint32",
          "name": "eid",
          "type": "uint32"
        },
        {
          "internalType": "bytes32",
          "name": "sender",
          "type": "bytes32"
        }
      ],
      "name": "OnlyPeer",
      "type": "error"
    },
    {
      "inputs": [
        {
          "internalType": "address",
          "name": "owner",
          "type": "address"
        }
      ],
      "name": "OwnableInvalidOwner",
      "type": "error"
    },
    {
      "inputs": [
        {
          "internalType": "address",
          "name": "account",
          "type": "address"
        }
      ],
      "name": "OwnableUnauthorizedAccount",
      "type": "error"
    },
    {
      "inputs": [],
      "name": "ReentrancyGuardReentrantCall",
      "type": "error"
    },
    {
      "inputs": [
        {
          "internalType": "address",
          "name": "token",
          "type": "address"
        }
      ],
      "name": "SafeERC20FailedOperation",
      "type": "error"
    },
    {
      "anonymous": false,
      "inputs": [
        {
          "indexed": true,
          "internalType": "address",
          "name": "owner",
          "type": "address"
        },
        {
          "indexed": true,
          "internalType": "address",
          "name": "approved",
          "type": "address"
        },
        {
          "indexed": true,
          "internalType": "uint256",
          "name": "tokenId",
          "type": "uint256"
        }
      ],
      "name": "Approval",
      "type": "event"
    },
    {
      "anonymous": false,
      "inputs": [
        {
          "indexed": true,
          "internalType": "address",
          "name": "owner",
          "type": "address"
        },
        {
          "indexed": true,
          "internalType": "address",
          "name": "operator",
          "type": "address"
        },
        {
          "indexed": false,
          "internalType": "bool",
          "name": "approved",
          "type": "bool"
        }
      ],
      "name": "ApprovalForAll",
      "type": "event"
    },
    {
      "anonymous": false,
      "inputs": [
        {
          "indexed": true,
          "internalType": "address",
          "name": "previousOwner",
          "type": "address"
        },
        {
          "indexed": true,
          "internalType": "address",
          "name": "newOwner",
          "type": "address"
        }
      ],
      "name": "OwnershipTransferred",
      "type": "event"
    },
    {
      "anonymous": false,
      "inputs": [
        {
          "indexed": false,
          "internalType": "uint32",
          "name": "eid",
          "type": "uint32"
        },
        {
          "indexed": false,
          "internalType": "bytes32",
          "name": "peer",
          "type": "bytes32"
        }
      ],
      "name": "PeerSet",
      "type": "event"
    },
    {
      "anonymous": false,
      "inputs": [
        {
          "indexed": true,
          "internalType": "address",
          "name": "from",
          "type": "address"
        },
        {
          "indexed": true,
          "internalType": "address",
          "name": "to",
          "type": "address"
        },
        {
          "indexed": true,
          "internalType": "uint256",
          "name": "tokenId",
          "type": "uint256"
        }
      ],
      "name": "Transfer",
      "type": "event"
    },
    {
      "anonymous": false,
      "inputs": [
        {
          "indexed": true,
          "internalType": "address",
          "name": "owner",
          "type": "address"
        },
        {
          "indexed": false,
          "internalType": "uint256",
          "name": "wrappedTokenId",
          "type": "uint256"
        },
        {
          "indexed": false,
          "internalType": "uint32",
          "name": "destEid",
          "type": "uint32"
        },
        {
          "indexed": false,
          "internalType": "address",
          "name": "destContract",
          "type": "address"
        },
        {
          "indexed": false,
          "internalType": "uint256",
          "name": "originTokenId",
          "type": "uint256"
        }
      ],
      "name": "WrappedBurned",
      "type": "event"
    },
    {
      "anonymous": false,
      "inputs": [
        {
          "indexed": true,
          "internalType": "address",
          "name": "recipient",
          "type": "address"
        },
        {
          "indexed": false,
          "internalType": "uint32",
          "name": "srcEid",
          "type": "uint32"
        },
        {
          "indexed": false,
          "internalType": "address",
          "name": "srcContract",
          "type": "address"
        },
        {
          "indexed": false,
          "internalType": "uint256",
          "name": "originTokenId",
          "type": "uint256"
        },
        {
          "indexed": false,
          "internalType": "uint256",
          "name": "wrappedTokenId",
          "type": "uint256"
        },
        {
          "indexed": false,
          "internalType": "string",
          "name": "tokenURI",
          "type": "string"
        }
      ],
      "name": "WrappedMinted",
      "type": "event"
    },
    {
      "inputs": [
        {
          "components": [
            {
              "internalType": "uint32",
              "name": "srcEid",
              "type": "uint32"
            },
            {
              "internalType": "bytes32",
              "name": "sender",
              "type": "bytes32"
            },
            {
              "internalType": "uint64",
              "name": "nonce",
              "type": "uint64"
            }
          ],
          "internalType": "struct Origin",
          "name": "origin",
          "type": "tuple"
        }
      ],
      "name": "allowInitializePath",
      "outputs": [
        {
          "internalType": "bool",
          "name": "",
          "type": "bool"
        }
      ],
      "stateMutability": "view",
      "type": "function"
    },
    {
      "inputs": [
        {
          "internalType": "address",
          "name": "to",
          "type": "address"
        },
        {
          "internalType": "uint256",
          "name": "tokenId",
          "type": "uint256"
        }
      ],
      "name": "approve",
      "outputs": [],
      "stateMutability": "nonpayable",
      "type": "function"
    },
    {
      "inputs": [
        {
          "internalType": "address",
          "name": "owner",
          "type": "address"
        }
      ],
      "name": "balanceOf",
      "outputs": [
        {
          "internalType": "uint256",
          "name": "",
          "type": "uint256"
        }
      ],
      "stateMutability": "view",
      "type": "function"
    },
    {
      "inputs": [
        {
          "internalType": "uint32",
          "name": "_dstEid",
          "type": "uint32"
        },
        {
          "internalType": "uint256",
          "name": "_wrappedTokenId",
          "type": "uint256"
        },
        {
          "internalType": "address",
          "name": "_recipient",
          "type": "address"
        },
        {
          "internalType": "bytes",
          "name": "_options",
          "type": "bytes"
        }
      ],
      "name": "bridgeBack",
      "outputs": [
        {
          "components": [
            {
              "internalType": "bytes32",
              "name": "guid",
              "type": "bytes32"
            },
            {
              "internalType": "uint64",
              "name": "nonce",
              "type": "uint64"
            },
            {
              "components": [
                {
                  "internalType": "uint256",
                  "name": "nativeFee",
                  "type": "uint256"
                },
                {
                  "internalType": "uint256",
                  "name": "lzTokenFee",
                  "type": "uint256"
                }
              ],
              "internalType": "struct MessagingFee",
              "name": "fee",
              "type": "tuple"
            }
          ],
          "internalType": "struct MessagingReceipt",
          "name": "receipt",
          "type": "tuple"
        }
      ],
      "stateMutability": "payable",
      "type": "function"
    },
    {
      "inputs": [
        {
          "internalType": "bytes32",
          "name": "",
          "type": "bytes32"
        }
      ],
      "name": "bridgedToWrapped",
      "outputs": [
        {
          "internalType": "uint256",
          "name": "",
          "type": "uint256"
        }
      ],
      "stateMutability": "view",
      "type": "function"
    },
    {
      "inputs": [],
      "name": "endpoint",
      "outputs": [
        {
          "internalType": "contract ILayerZeroEndpointV2",
          "name": "",
          "type": "address"
        }
      ],
      "stateMutability": "view",
      "type": "function"
    },
    {
      "inputs": [
        {
          "internalType": "uint256",
          "name": "tokenId",
          "type": "uint256"
        }
      ],
      "name": "getApproved",
      "outputs": [
        {
          "internalType": "address",
          "name": "",
          "type": "address"
        }
      ],
      "stateMutability": "view",
      "type": "function"
    },
    {
      "inputs": [
        {
          "internalType": "address",
          "name": "owner",
          "type": "address"
        },
        {
          "internalType": "address",
          "name": "operator",
          "type": "address"
        }
      ],
      "name": "isApprovedForAll",
      "outputs": [
        {
          "internalType": "bool",
          "name": "",
          "type": "bool"
        }
      ],
      "stateMutability": "view",
      "type": "function"
    },
    {
      "inputs": [
        {
          "components": [
            {
              "internalType": "uint32",
              "name": "srcEid",
              "type": "uint32"
            },
            {
              "internalType": "bytes32",
              "name": "sender",
              "type": "bytes32"
            },
            {
              "internalType": "uint64",
              "name": "nonce",
              "type": "uint64"
            }
          ],
          "internalType": "struct Origin",
          "name": "",
          "type": "tuple"
        },
        {
          "internalType": "bytes",
          "name": "",
          "type": "bytes"
        },
        {
          "internalType": "address",
          "name": "_sender",
          "type": "address"
        }
      ],
      "name": "isComposeMsgSender",
      "outputs": [
        {
          "internalType": "bool",
          "name": "",
          "type": "bool"
        }
      ],
      "stateMutability": "view",
      "type": "function"
    },
    {
      "inputs": [
        {
          "components": [
            {
              "internalType": "uint32",
              "name": "srcEid",
              "type": "uint32"
            },
            {
              "internalType": "bytes32",
              "name": "sender",
              "type": "bytes32"
            },
            {
              "internalType": "uint64",
              "name": "nonce",
              "type": "uint64"
            }
          ],
          "internalType": "struct Origin",
          "name": "_origin",
          "type": "tuple"
        },
        {
          "internalType": "bytes32",
          "name": "_guid",
          "type": "bytes32"
        },
        {
          "internalType": "bytes",
          "name": "_message",
          "type": "bytes"
        },
        {
          "internalType": "address",
          "name": "_executor",
          "type": "address"
        },
        {
          "internalType": "bytes",
          "name": "_extraData",
          "type": "bytes"
        }
      ],
      "name": "lzReceive",
      "outputs": [],
      "stateMutability": "payable",
      "type": "function"
    },
    {
      "inputs": [],
      "name": "name",
      "outputs": [
        {
          "internalType": "string",
          "name": "",
          "type": "string"
        }
      ],
      "stateMutability": "view",
      "type": "function"
    },
    {
      "inputs": [
        {
          "internalType": "uint32",
          "name": "",
          "type": "uint32"
        },
        {
          "internalType": "bytes32",
          "name": "",
          "type": "bytes32"
        }
      ],
      "name": "nextNonce",
      "outputs": [
        {
          "internalType": "uint64",
          "name": "nonce",
          "type": "uint64"
        }
      ],
      "stateMutability": "view",
      "type": "function"
    },
    {
      "inputs": [],
      "name": "nextTokenId",
      "outputs": [
        {
          "internalType": "uint256",
          "name": "",
          "type": "uint256"
        }
      ],
      "stateMutability": "view",
      "type": "function"
    },
    {
      "inputs": [],
      "name": "oAppVersion",
      "outputs": [
        {
          "internalType": "uint64",
          "name": "senderVersion",
          "type": "uint64"
        },
        {
          "internalType": "uint64",
          "name": "receiverVersion",
          "type": "uint64"
        }
      ],
      "stateMutability": "pure",
      "type": "function"
    },
    {
      "inputs": [],
      "name": "owner",
      "outputs": [
        {
          "internalType": "address",
          "name": "",
          "type": "address"
        }
      ],
      "stateMutability": "view",
      "type": "function"
    },
    {
      "inputs": [
        {
          "internalType": "uint256",
          "name": "tokenId",
          "type": "uint256"
        }
      ],
      "name": "ownerOf",
      "outputs": [
        {
          "internalType": "address",
          "name": "",
          "type": "address"
        }
      ],
      "stateMutability": "view",
      "type": "function"
    },
    {
      "inputs": [
        {
          "internalType": "uint32",
          "name": "eid",
          "type": "uint32"
        }
      ],
      "name": "peers",
      "outputs": [
        {
          "internalType": "bytes32",
          "name": "peer",
          "type": "bytes32"
        }
      ],
      "stateMutability": "view",
      "type": "function"
    },
    {
      "inputs": [
        {
          "internalType": "uint32",
          "name": "_dstEid",
          "type": "uint32"
        },
        {
          "internalType": "uint256",
          "name": "_wrappedTokenId",
          "type": "uint256"
        },
        {
          "internalType": "address",
          "name": "_recipient",
          "type": "address"
        },
        {
          "internalType": "bytes",
          "name": "_options",
          "type": "bytes"
        }
      ],
      "name": "quoteBridgeBack",
      "outputs": [
        {
          "components": [
            {
              "internalType": "uint256",
              "name": "nativeFee",
              "type": "uint256"
            },
            {
              "internalType": "uint256",
              "name": "lzTokenFee",
              "type": "uint256"
            }
          ],
          "internalType": "struct MessagingFee",
          "name": "fee",
          "type": "tuple"
        }
      ],
      "stateMutability": "view",
      "type": "function"
    },
    {
      "inputs": [],
      "name": "renounceOwnership",
      "outputs": [],
      "stateMutability": "nonpayable",
      "type": "function"
    },
    {
      "inputs": [
        {
          "internalType": "address",
          "name": "from",
          "type": "address"
        },
        {
          "internalType": "address",
          "name": "to",
          "type": "address"
        },
        {
          "internalType": "uint256",
          "name": "tokenId",
          "type": "uint256"
        }
      ],
      "name": "safeTransferFrom",
      "outputs": [],
      "stateMutability": "nonpayable",
      "type": "function"
    },
    {
      "inputs": [
        {
          "internalType": "address",
          "name": "from",
          "type": "address"
        },
        {
          "internalType": "address",
          "name": "to",
          "type": "address"
        },
        {
          "internalType": "uint256",
          "name": "tokenId",
          "type": "uint256"
        },
        {
          "internalType": "bytes",
          "name": "data",
          "type": "bytes"
        }
      ],
      "name": "safeTransferFrom",
      "outputs": [],
      "stateMutability": "nonpayable",
      "type": "function"
    },
    {
      "inputs": [
        {
          "internalType": "address",
          "name": "operator",
          "type": "address"
        },
        {
          "internalType": "bool",
          "name": "approved",
          "type": "bool"
        }
      ],
      "name": "setApprovalForAll",
      "outputs": [],
      "stateMutability": "nonpayable",
      "type": "function"
    },
    {
      "inputs": [
        {
          "internalType": "address",
          "name": "_delegate",
          "type": "address"
        }
      ],
      "name": "setDelegate",
      "outputs": [],
      "stateMutability": "nonpayable",
      "type": "function"
    },
    {
      "inputs": [
        {
          "internalType": "uint32",
          "name": "_eid",
          "type": "uint32"
        },
        {
          "internalType": "bytes32",
          "name": "_peer",
          "type": "bytes32"
        }
      ],
      "name": "setPeer",
      "outputs": [],
      "stateMutability": "nonpayable",
      "type": "function"
    },
    {
      "inputs": [
        {
          "internalType": "bytes4",
          "name": "interfaceId",
          "type": "bytes4"
        }
      ],
      "name": "supportsInterface",
      "outputs": [
        {
          "internalType": "bool",
          "name": "",
          "type": "bool"
        }
      ],
      "stateMutability": "view",
      "type": "function"
    },
    {
      "inputs": [],
      "name": "symbol",
      "outputs": [
        {
          "internalType": "string",
          "name": "",
          "type": "string"
        }
      ],
      "stateMutability": "view",
      "type": "function"
    },
    {
      "inputs": [
        {
          "internalType": "uint256",
          "name": "tokenId",
          "type": "uint256"
        }
      ],
      "name": "tokenURI",
      "outputs": [
        {
          "internalType": "string",
          "name": "",
          "type": "string"
        }
      ],
      "stateMutability": "view",
      "type": "function"
    },
    {
      "inputs": [
        {
          "internalType": "address",
          "name": "from",
          "type": "address"
        },
        {
          "internalType": "address",
          "name": "to",
          "type": "address"
        },
        {
          "internalType": "uint256",
          "name": "tokenId",
          "type": "uint256"
        }
      ],
      "name": "transferFrom",
      "outputs": [],
      "stateMutability": "nonpayable",
      "type": "function"
    },
    {
      "inputs": [
        {
          "internalType": "address",
          "name": "newOwner",
          "type": "address"
        }
      ],
      "name": "transferOwnership",
      "outputs": [],
      "stateMutability": "nonpayable",
      "type": "function"
    },
    {
      "inputs": [
        {
          "internalType": "uint256",
          "name": "",
          "type": "uint256"
        }
      ],
      "name": "wrappedOriginInfo",
      "outputs": [
        {
          "internalType": "uint32",
          "name": "originEid",
          "type": "uint32"
        },
        {
          "internalType": "address",
          "name": "originContract",
          "type": "address"
        },
        {
          "internalType": "uint256",
          "name": "originTokenId",
          "type": "uint256"
        }
      ],
      "stateMutability": "view",
      "type": "function"
    },
    {
      "inputs": [
        {
          "internalType": "uint256",
          "name": "",
          "type": "uint256"
        }
      ],
      "name": "wrappedToOriginKey",
      "outputs": [
        {
          "internalType": "bytes32",
          "name": "",
          "type": "bytes32"
        }
      ],
      "stateMutability": "view",
      "type": "function"
    }
  ],
  "bytecode": "0x60a06040526001600c55348015610014575f5ffd5b5060405161296b38038061296b83398101604081905261003391610231565b838383838181806001600160a01b03811661006757604051631e4fbdf760e01b81525f600482015260240160405180910390fd5b6100708161012a565b506001600160a01b03808316608052811661009e57604051632d618d8160e21b815260040160405180910390fd5b60805160405163ca5eb5e160e01b81526001600160a01b0383811660048301529091169063ca5eb5e1906024015f604051808303815f87803b1580156100e2575f5ffd5b505af11580156100f4573d5f5f3e3d5ffd5b5050505050505050816002908161010b919061033a565b506003610118828261033a565b50506001600855506103f49350505050565b5f80546001600160a01b038381166001600160a01b0319831681178455604051919092169283917f8be0079c531659141344cd1fd0a4f28419497f9722a3daafe3b4186f6b6457e09190a35050565b634e487b7160e01b5f52604160045260245ffd5b5f82601f83011261019c575f5ffd5b81516001600160401b038111156101b5576101b5610179565b604051601f8201601f19908116603f011681016001600160401b03811182821017156101e3576101e3610179565b6040528181528382016020018510156101fa575f5ffd5b8160208501602083015e5f918101602001919091529392505050565b80516001600160a01b038116811461022c575f5ffd5b919050565b5f5f5f5f60808587031215610244575f5ffd5b84516001600160401b03811115610259575f5ffd5b6102658782880161018d565b602087015190955090506001600160401b03811115610282575f5ffd5b61028e8782880161018d565b93505061029d60408601610216565b91506102ab60608601610216565b905092959194509250565b600181811c908216806102ca57607f821691505b6020821081036102e857634e487b7160e01b5f52602260045260245ffd5b50919050565b601f82111561033557805f5260205f20601f840160051c810160208510156103135750805b601f840160051c820191505b81811015610332575f815560010161031f565b50505b505050565b81516001600160401b0381111561035357610353610179565b6103678161036184546102b6565b846102ee565b6020601f821160018114610399575f83156103825750848201515b5f19600385901b1c1916600184901b178455610332565b5f84815260208120601f198516915b828110156103c857878501518255602094850194600190920191016103a8565b50848210156103e557868401515f19600387901b60f8161c191681555b50505050600190811b01905550565b6080516125356104365f395f818161036f0152818161078601528181610cf401528181611283015281816113ed015281816118fb01526119b201526125355ff3fe6080604052600436106101d0575f3560e01c8063715018a6116100fd578063b697c2c111610092578063ca5eb5e111610062578063ca5eb5e1146105f1578063e985e9c514610610578063f2fde38b1461062f578063ff7bd03d1461064e575f5ffd5b8063b697c2c11461055d578063b88d4fde14610588578063bb0b6a53146105a7578063c87b56dd146105d2575f5ffd5b80638da5cb5b116100cd5780638da5cb5b1461049857806395d89b41146104b4578063a22cb465146104c8578063b451d0e4146104e7575f5ffd5b8063715018a61461040857806375794a3c1461041c5780637d25a05e1461043157806382413eac1461046a575f5ffd5b806330a11b7c116101735780635e280f11116101435780635e280f111461035e5780636235faf3146103915780636352211e146103ca57806370a08231146103e9575f5ffd5b806330a11b7c146102d45780633400288b146102f457806342842e0e146103135780634d242cec14610332575f5ffd5b8063095ea7b3116101ae578063095ea7b31461026057806313137d651461028157806317442b701461029457806323b872dd146102b5575f5ffd5b806301ffc9a7146101d457806306fdde0314610208578063081812fc14610229575b5f5ffd5b3480156101df575f5ffd5b506101f36101ee366004611ca5565b61066d565b60405190151581526020015b60405180910390f35b348015610213575f5ffd5b5061021c6106be565b6040516101ff9190611cee565b348015610234575f5ffd5b50610248610243366004611d00565b61074e565b6040516001600160a01b0390911681526020016101ff565b34801561026b575f5ffd5b5061027f61027a366004611d2b565b610775565b005b61027f61028f366004611daf565b610784565b34801561029f575f5ffd5b50604080516001815260026020820152016101ff565b3480156102c0575f5ffd5b5061027f6102cf366004611e49565b610844565b6102e76102e2366004611e9f565b6108cd565b6040516101ff9190611f0a565b3480156102ff575f5ffd5b5061027f61030e366004611f4b565b610aca565b34801561031e575f5ffd5b5061027f61032d366004611e49565b610adc565b34801561033d575f5ffd5b5061035161034c366004611e9f565b610afb565b6040516101ff9190611f65565b348015610369575f5ffd5b506102487f000000000000000000000000000000000000000000000000000000000000000081565b34801561039c575f5ffd5b506103bc6103ab366004611d00565b60096020525f908152604090205481565b6040519081526020016101ff565b3480156103d5575f5ffd5b506102486103e4366004611d00565b610bc8565b3480156103f4575f5ffd5b506103bc610403366004611f7c565b610bd2565b348015610413575f5ffd5b5061027f610c17565b348015610427575f5ffd5b506103bc600c5481565b34801561043c575f5ffd5b5061045261044b366004611f4b565b5f92915050565b6040516001600160401b0390911681526020016101ff565b348015610475575f5ffd5b506101f3610484366004611f97565b6001600160a01b0381163014949350505050565b3480156104a3575f5ffd5b505f546001600160a01b0316610248565b3480156104bf575f5ffd5b5061021c610c2a565b3480156104d3575f5ffd5b5061027f6104e2366004611ff9565b610c39565b3480156104f2575f5ffd5b50610533610501366004611d00565b600b6020525f90815260409020805460019091015463ffffffff82169164010000000090046001600160a01b03169083565b6040805163ffffffff90941684526001600160a01b039092166020840152908201526060016101ff565b348015610568575f5ffd5b506103bc610577366004611d00565b600a6020525f908152604090205481565b348015610593575f5ffd5b5061027f6105a23660046120bd565b610c44565b3480156105b2575f5ffd5b506103bc6105c1366004612137565b60016020525f908152604090205481565b3480156105dd575f5ffd5b5061021c6105ec366004611d00565b610c5c565b3480156105fc575f5ffd5b5061027f61060b366004611f7c565b610ccd565b34801561061b575f5ffd5b506101f361062a366004612150565b610d4e565b34801561063a575f5ffd5b5061027f610649366004611f7c565b610d7b565b348015610659575f5ffd5b506101f361066836600461217c565b610db8565b5f6001600160e01b031982166380ac58cd60e01b148061069d57506001600160e01b03198216635b5e139f60e01b145b806106b857506301ffc9a760e01b6001600160e01b03198316145b92915050565b6060600280546106cd90612196565b80601f01602080910402602001604051908101604052809291908181526020018280546106f990612196565b80156107445780601f1061071b57610100808354040283529160200191610744565b820191905f5260205f20905b81548152906001019060200180831161072757829003601f168201915b5050505050905090565b5f61075882610dec565b505f828152600660205260409020546001600160a01b03166106b8565b610780828233610e24565b5050565b7f00000000000000000000000000000000000000000000000000000000000000006001600160a01b031633146107d4576040516391ac5e4f60e01b81523360048201526024015b60405180910390fd5b602087018035906107ee906107e9908a612137565b610e31565b1461082c576108006020880188612137565b60405163309afaf360e21b815263ffffffff9091166004820152602088013560248201526044016107cb565b61083b87878787878787610e6c565b50505050505050565b6001600160a01b03821661086d57604051633250574960e11b81525f60048201526024016107cb565b5f6108798383336110fe565b9050836001600160a01b0316816001600160a01b0316146108c7576040516364283d7b60e01b81526001600160a01b03808616600483015260248201849052821660448201526064016107cb565b50505050565b6108d5611c50565b6108dd6111f0565b336108e786610bc8565b6001600160a01b0316146109295760405162461bcd60e51b81526020600482015260096024820152682737ba1037bbb732b960b91b60448201526064016107cb565b5f858152600b60209081526040918290208251606081018452815463ffffffff8116825264010000000090046001600160a01b0316928101839052600190910154928101929092526109b05760405162461bcd60e51b815260206004820152601060248201526f13dc9a59da5b881b9bdd08199bdd5b9960821b60448201526064016107cb565b6109b98661121a565b5f600290505f81835f0151846020015185604001518a6040516020016109e39594939291906121c8565b60408051601f198184030181526020601f89018190048102840181019092528783529250610a46918b918491908a908a90819084018382808284375f92018290525060408051808201909152348152602081019190915292503391506112529050565b63ffffffff8a165f81815260016020908152604091829020548783015183518e8152928301949094526001600160a01b03168183015260608101929092525191955033917f71da29e3bf0405121243f4513168731263f957f4c3cb52a47b78314b4b741db29181900360800190a2505050610ac16001600855565b95945050505050565b610ad2611358565b6107808282611384565b610af683838360405180602001604052805f815250610c44565b505050565b604080518082019091525f80825260208201525f858152600b602090815260408083208151606081018352815463ffffffff81168083526401000000009091046001600160a01b0316828601819052600190930154828501819052935191956002959094610b6f94879490928d91016121c8565b60408051601f198184030181526020601f89018190048102840181019092528783529250610bbb918b918491908a908a90819084018382808284375f92018290525092506113d8915050565b9998505050505050505050565b5f6106b882610dec565b5f6001600160a01b038216610bfc576040516322718ad960e21b81525f60048201526024016107cb565b506001600160a01b03165f9081526005602052604090205490565b610c1f611358565b610c285f6114ad565b565b6060600380546106cd90612196565b6107803383836114fc565b610c4f848484610844565b6108c7338585858561159a565b6060610c6782610dec565b505f610c7d60408051602081019091525f815290565b90505f815111610c9b5760405180602001604052805f815250610cc6565b80610ca5846116c1565b604051602001610cb6929190612224565b6040516020818303038152906040525b9392505050565b610cd5611358565b60405163ca5eb5e160e01b81526001600160a01b0382811660048301527f0000000000000000000000000000000000000000000000000000000000000000169063ca5eb5e1906024015f604051808303815f87803b158015610d35575f5ffd5b505af1158015610d47573d5f5f3e3d5ffd5b5050505050565b6001600160a01b039182165f90815260076020908152604080832093909416825291909152205460ff1690565b610d83611358565b6001600160a01b038116610dac57604051631e4fbdf760e01b81525f60048201526024016107cb565b610db5816114ad565b50565b5f602082018035906001908390610dcf9086612137565b63ffffffff16815260208101919091526040015f20541492915050565b5f818152600460205260408120546001600160a01b0316806106b857604051637e27328960e01b8152600481018490526024016107cb565b610af68383836001611750565b63ffffffff81165f90815260016020526040812054806106b85760405163f6ff4fb760e01b815263ffffffff841660048201526024016107cb565b602087018035906001905f90610e82908b612137565b63ffffffff1663ffffffff1681526020019081526020015f205414610edb5760405162461bcd60e51b815260206004820152600f60248201526e29b2b73232b9103737ba103832b2b960891b60448201526064016107cb565b5f8080808080610eed8a8c018c612243565b9550955095509550955095508560ff16600103611097576040516001600160e01b031960e087901b1660208201526bffffffffffffffffffffffff19606086901b166024820152603881018490525f9060580160408051601f1981840301815291815281516020928301205f818152600990935291205490915015610fa65760405162461bcd60e51b815260206004820152600f60248201526e105b1c9958591e48189c9a5919d959608a1b60448201526064016107cb565b600c80545f9182610fb6836122e1565b909155505f838152600960209081526040808320849055838352600a8252808320869055805160608101825263ffffffff808d1682526001600160a01b03808d168386019081528385018d8152888852600b90965293909520915182549351909516640100000000026001600160c01b03199093169416939093171782555160019091015590506110478382611854565b826001600160a01b03167f7f861a0414c2b1474f7761b7f3e2f562c1e04ba0961e4b43fdc4bd1684ea20ac8888888589604051611088959493929190612305565b60405180910390a250506110ef565b60405162461bcd60e51b815260206004820152602760248201527f556e737570706f7274656420616374696f6e206f6e20426173655772617070656044820152666442726964676560c81b60648201526084016107cb565b50505050505050505050505050565b5f828152600460205260408120546001600160a01b039081169083161561112a5761112a81848661186d565b6001600160a01b03811615611164576111455f855f5f611750565b6001600160a01b0381165f90815260056020526040902080545f190190555b6001600160a01b03851615611192576001600160a01b0385165f908152600560205260409020805460010190555b5f8481526004602052604080822080546001600160a01b0319166001600160a01b0389811691821790925591518793918516917fddf252ad1be2c89b69c2b068fc378daa952ba7f163c4a11628f55a4df523b3ef91a4949350505050565b60026008540361121357604051633ee5aeb560e01b815260040160405180910390fd5b6002600855565b5f6112265f835f6110fe565b90506001600160a01b03811661078057604051637e27328960e01b8152600481018390526024016107cb565b61125a611c50565b5f611267845f01516118d1565b6020850151909150156112815761128184602001516118f8565b7f00000000000000000000000000000000000000000000000000000000000000006001600160a01b0316632637a450826040518060a001604052808b63ffffffff1681526020016112d18c610e31565b81526020018a81526020018981526020015f8960200151111515815250866040518463ffffffff1660e01b815260040161130c92919061233d565b60806040518083038185885af1158015611328573d5f5f3e3d5ffd5b50505050506040513d601f19601f8201168201806040525081019061134d9190612401565b979650505050505050565b5f546001600160a01b03163314610c285760405163118cdaa760e01b81523360048201526024016107cb565b63ffffffff82165f81815260016020908152604091829020849055815192835282018390527f238399d427b947898edb290f5ff0f9109849b1c3ba196a42e35f00c50a54b98b910160405180910390a15050565b604080518082019091525f80825260208201527f00000000000000000000000000000000000000000000000000000000000000006001600160a01b031663ddc28c586040518060a001604052808863ffffffff16815260200161143a89610e31565b8152602001878152602001868152602001851515815250306040518363ffffffff1660e01b815260040161146f92919061233d565b6040805180830381865afa158015611489573d5f5f3e3d5ffd5b505050506040513d601f19601f82011682018060405250810190610ac19190612473565b5f80546001600160a01b038381166001600160a01b0319831681178455604051919092169283917f8be0079c531659141344cd1fd0a4f28419497f9722a3daafe3b4186f6b6457e09190a35050565b6001600160a01b03821661152e57604051630b61174360e31b81526001600160a01b03831660048201526024016107cb565b6001600160a01b038381165f81815260076020908152604080832094871680845294825291829020805460ff191686151590811790915591519182527f17307eab39ab6107e8899845ad3d59bd9653f200f220920489ca2b5937696c31910160405180910390a3505050565b6001600160a01b0383163b15610d4757604051630a85bd0160e11b81526001600160a01b0384169063150b7a02906115dc90889088908790879060040161248d565b6020604051808303815f875af1925050508015611616575060408051601f3d908101601f19168201909252611613918101906124c9565b60015b61167d573d808015611643576040519150601f19603f3d011682016040523d82523d5f602084013e611648565b606091505b5080515f0361167557604051633250574960e11b81526001600160a01b03851660048201526024016107cb565b805160208201fd5b6001600160e01b03198116630a85bd0160e11b146116b957604051633250574960e11b81526001600160a01b03851660048201526024016107cb565b505050505050565b60605f6116cd836119d7565b60010190505f816001600160401b038111156116eb576116eb612034565b6040519080825280601f01601f191660200182016040528015611715576020820181803683370190505b5090508181016020015b5f19016f181899199a1a9b1b9c1cb0b131b232b360811b600a86061a8153600a850494508461171f57509392505050565b808061176457506001600160a01b03821615155b15611825575f61177384610dec565b90506001600160a01b0383161580159061179f5750826001600160a01b0316816001600160a01b031614155b80156117b257506117b08184610d4e565b155b156117db5760405163a9fbf51f60e01b81526001600160a01b03841660048201526024016107cb565b81156118235783856001600160a01b0316826001600160a01b03167f8c5be1e5ebec7d5bd14f71427d1e84f3dd0314c0f7b2291e5b200ac8c7c3b92560405160405180910390a45b505b50505f90815260066020526040902080546001600160a01b0319166001600160a01b0392909216919091179055565b610780828260405180602001604052805f815250611aae565b611878838383611ac5565b610af6576001600160a01b0383166118a657604051637e27328960e01b8152600481018290526024016107cb565b60405163177e802f60e01b81526001600160a01b0383166004820152602481018290526044016107cb565b5f8134146118f4576040516304fb820960e51b81523460048201526024016107cb565b5090565b5f7f00000000000000000000000000000000000000000000000000000000000000006001600160a01b031663e4fe1d946040518163ffffffff1660e01b8152600401602060405180830381865afa158015611955573d5f5f3e3d5ffd5b505050506040513d601f19601f8201168201806040525081019061197991906124e4565b90506001600160a01b0381166119a2576040516329b99a9560e11b815260040160405180910390fd5b6107806001600160a01b038216337f000000000000000000000000000000000000000000000000000000000000000085611b29565b5f8072184f03e93ff9f4daa797ed6e38ed64bf6a1f0160401b8310611a155772184f03e93ff9f4daa797ed6e38ed64bf6a1f0160401b830492506040015b6d04ee2d6d415b85acef81000000008310611a41576d04ee2d6d415b85acef8100000000830492506020015b662386f26fc100008310611a5f57662386f26fc10000830492506010015b6305f5e1008310611a77576305f5e100830492506008015b6127108310611a8b57612710830492506004015b60648310611a9d576064830492506002015b600a83106106b85760010192915050565b611ab88383611b83565b610af6335f85858561159a565b5f6001600160a01b03831615801590611b215750826001600160a01b0316846001600160a01b03161480611afe5750611afe8484610d4e565b80611b2157505f828152600660205260409020546001600160a01b038481169116145b949350505050565b604080516001600160a01b0385811660248301528416604482015260648082018490528251808303909101815260849091019091526020810180516001600160e01b03166323b872dd60e01b1790526108c7908590611be4565b6001600160a01b038216611bac57604051633250574960e11b81525f60048201526024016107cb565b5f611bb883835f6110fe565b90506001600160a01b03811615610af6576040516339e3563760e11b81525f60048201526024016107cb565b5f5f60205f8451602086015f885af180611c03576040513d5f823e3d81fd5b50505f513d91508115611c1a578060011415611c27565b6001600160a01b0384163b155b156108c757604051635274afe760e01b81526001600160a01b03851660048201526024016107cb565b60405180606001604052805f81526020015f6001600160401b03168152602001611c8b60405180604001604052805f81526020015f81525090565b905290565b6001600160e01b031981168114610db5575f5ffd5b5f60208284031215611cb5575f5ffd5b8135610cc681611c90565b5f81518084528060208401602086015e5f602082860101526020601f19601f83011685010191505092915050565b602081525f610cc66020830184611cc0565b5f60208284031215611d10575f5ffd5b5035919050565b6001600160a01b0381168114610db5575f5ffd5b5f5f60408385031215611d3c575f5ffd5b8235611d4781611d17565b946020939093013593505050565b5f60608284031215611d65575f5ffd5b50919050565b5f5f83601f840112611d7b575f5ffd5b5081356001600160401b03811115611d91575f5ffd5b602083019150836020828501011115611da8575f5ffd5b9250929050565b5f5f5f5f5f5f5f60e0888a031215611dc5575f5ffd5b611dcf8989611d55565b96506060880135955060808801356001600160401b03811115611df0575f5ffd5b611dfc8a828b01611d6b565b90965094505060a0880135611e1081611d17565b925060c08801356001600160401b03811115611e2a575f5ffd5b611e368a828b01611d6b565b989b979a50959850939692959293505050565b5f5f5f60608486031215611e5b575f5ffd5b8335611e6681611d17565b92506020840135611e7681611d17565b929592945050506040919091013590565b803563ffffffff81168114611e9a575f5ffd5b919050565b5f5f5f5f5f60808688031215611eb3575f5ffd5b611ebc86611e87565b9450602086013593506040860135611ed381611d17565b925060608601356001600160401b03811115611eed575f5ffd5b611ef988828901611d6b565b969995985093965092949392505050565b5f608082019050825182526001600160401b0360208401511660208301526040830151611f44604084018280518252602090810151910152565b5092915050565b5f5f60408385031215611f5c575f5ffd5b611d4783611e87565b8151815260208083015190820152604081016106b8565b5f60208284031215611f8c575f5ffd5b8135610cc681611d17565b5f5f5f5f60a08587031215611faa575f5ffd5b611fb48686611d55565b935060608501356001600160401b03811115611fce575f5ffd5b611fda87828801611d6b565b9094509250506080850135611fee81611d17565b939692955090935050565b5f5f6040838503121561200a575f5ffd5b823561201581611d17565b915060208301358015158114612029575f5ffd5b809150509250929050565b634e487b7160e01b5f52604160045260245ffd5b5f5f6001600160401b0384111561206157612061612034565b50604051601f19601f85018116603f011681018181106001600160401b038211171561208f5761208f612034565b6040528381529050808284018510156120a6575f5ffd5b838360208301375f60208583010152509392505050565b5f5f5f5f608085870312156120d0575f5ffd5b84356120db81611d17565b935060208501356120eb81611d17565b92506040850135915060608501356001600160401b0381111561210c575f5ffd5b8501601f8101871361211c575f5ffd5b61212b87823560208401612048565b91505092959194509250565b5f60208284031215612147575f5ffd5b610cc682611e87565b5f5f60408385031215612161575f5ffd5b823561216c81611d17565b9150602083013561202981611d17565b5f6060828403121561218c575f5ffd5b610cc68383611d55565b600181811c908216806121aa57607f821691505b602082108103611d6557634e487b7160e01b5f52602260045260245ffd5b60ff95909516855263ffffffff9390931660208501526001600160a01b039182166040850152606084015260c0608084018190525f908401521660a082015260e00190565b5f81518060208401855e5f93019283525090919050565b5f611b21612232838661220d565b8461220d565b8035611e9a81611d17565b5f5f5f5f5f5f60c08789031215612258575f5ffd5b863560ff81168114612268575f5ffd5b955061227660208801611e87565b9450604087013561228681611d17565b93506060870135925060808701356001600160401b038111156122a7575f5ffd5b8701601f810189136122b7575f5ffd5b6122c689823560208401612048565b9250506122d560a08801612238565b90509295509295509295565b5f600182016122fe57634e487b7160e01b5f52601160045260245ffd5b5060010190565b63ffffffff8616815260018060a01b038516602082015283604082015282606082015260a060808201525f61134d60a0830184611cc0565b6040815263ffffffff8351166040820152602083015160608201525f604084015160a0608084015261237260e0840182611cc0565b90506060850151603f198483030160a085015261238f8282611cc0565b60809690960151151560c08501525050506001600160a01b039190911660209091015290565b5f604082840312156123c5575f5ffd5b604080519081016001600160401b03811182821017156123e7576123e7612034565b604052825181526020928301519281019290925250919050565b5f6080828403128015612412575f5ffd5b50604051606081016001600160401b038111828210171561243557612435612034565b6040528251815260208301516001600160401b0381168114612455575f5ffd5b602082015261246784604085016123b5565b60408201529392505050565b5f60408284031215612483575f5ffd5b610cc683836123b5565b6001600160a01b03858116825284166020820152604081018390526080606082018190525f906124bf90830184611cc0565b9695505050505050565b5f602082840312156124d9575f5ffd5b8151610cc681611c90565b5f602082840312156124f4575f5ffd5b8151610cc681611d1756fea26469706673582212205bb825d1b251017c8476a08f18b6b005477afdb652a2454f9a80ffcbe0a71dca64736f6c634300081c0033",
  "linkReferences": {},
  "deployedLinkReferences": {},
  "immutableReferences": {
    "60": [
      {
        "length": 32,
        "start": 879
      },
      {
        "length": 32,
        "start": 1926
      },
      {
        "length": 32,
        "start": 3316
      },
      {
        "length": 32,
        "start": 4739
      },
      {
        "length": 32,
        "start": 5101
      },
      {
        "length": 32,
        "start": 6395
      },
      {
        "length": 32,
        "start": 6578
      }
    ]
  },
  "inputSourceName": "project/contracts/NftBridge.sol",
  "buildInfoId": "solc-0_8_28-a26cace67fa9bfa85522d178000acea281c69337"
}