{
  "_format": "hh-sol-artifact-1",
  "contractName": "GameStateManager",
  "sourceName": "contracts/GameStateManager.sol",
  "abi": [
    {
      "inputs": [
        {
          "internalType": "address payable",
          "name": "_creditsContract",
          "type": "address"
        }
      ],
      "stateMutability": "nonpayable",
      "type": "constructor"
    },
    {
      "anonymous": false,
      "inputs": [
        {
          "indexed": true,
          "internalType": "address",
          "name": "player",
          "type": "address"
        },
        {
          "indexed": false,
          "internalType": "uint256",
          "name": "stardust",
          "type": "uint256"
        },
        {
          "indexed": false,
          "internalType": "uint256",
          "name": "stardustPerSecond",
          "type": "uint256"
        },
        {
          "indexed": false,
          "internalType": "uint256",
          "name": "timestamp",
          "type": "uint256"
        }
      ],
      "name": "GameStateSaved",
      "type": "event"
    },
    {
      "anonymous": false,
      "inputs": [
        {
          "indexed": true,
          "internalType": "address",
          "name": "previousOwner",
          "type": "address"
        },
        {
          "indexed": true,
          "internalType": "address",
          "name": "newOwner",
          "type": "address"
        }
      ],
      "name": "OwnershipTransferred",
      "type": "event"
    },
    {
      "anonymous": false,
      "inputs": [
        {
          "indexed": true,
          "internalType": "address",
          "name": "player",
          "type": "address"
        },
        {
          "indexed": false,
          "internalType": "uint256",
          "name": "timestamp",
          "type": "uint256"
        }
      ],
      "name": "PlayerRegistered",
      "type": "event"
    },
    {
      "anonymous": false,
      "inputs": [
        {
          "indexed": true,
          "internalType": "address",
          "name": "player",
          "type": "address"
        },
        {
          "indexed": false,
          "internalType": "uint256",
          "name": "level",
          "type": "uint256"
        },
        {
          "indexed": false,
          "internalType": "uint256",
          "name": "timestamp",
          "type": "uint256"
        }
      ],
      "name": "PrestigeActivated",
      "type": "event"
    },
    {
      "anonymous": false,
      "inputs": [
        {
          "indexed": true,
          "internalType": "address",
          "name": "player",
          "type": "address"
        },
        {
          "indexed": false,
          "internalType": "string",
          "name": "upgradeId",
          "type": "string"
        },
        {
          "indexed": false,
          "internalType": "uint256",
          "name": "level",
          "type": "uint256"
        },
        {
          "indexed": false,
          "internalType": "uint256",
          "name": "cost",
          "type": "uint256"
        },
        {
          "indexed": false,
          "internalType": "string",
          "name": "costType",
          "type": "string"
        },
        {
          "indexed": false,
          "internalType": "uint256",
          "name": "timestamp",
          "type": "uint256"
        }
      ],
      "name": "UpgradePurchased",
      "type": "event"
    },
    {
      "inputs": [],
      "name": "activatePrestige",
      "outputs": [],
      "stateMutability": "nonpayable",
      "type": "function"
    },
    {
      "inputs": [
        {
          "internalType": "string",
          "name": "upgradeId",
          "type": "string"
        },
        {
          "internalType": "string",
          "name": "name",
          "type": "string"
        },
        {
          "internalType": "uint256",
          "name": "baseCost",
          "type": "uint256"
        },
        {
          "internalType": "uint256",
          "name": "costMultiplier",
          "type": "uint256"
        },
        {
          "internalType": "uint256",
          "name": "stardustPerClick",
          "type": "uint256"
        },
        {
          "internalType": "uint256",
          "name": "stardustPerSecond",
          "type": "uint256"
        },
        {
          "internalType": "string",
          "name": "costType",
          "type": "string"
        }
      ],
      "name": "addUpgrade",
      "outputs": [],
      "stateMutability": "nonpayable",
      "type": "function"
    },
    {
      "inputs": [],
      "name": "creditsContract",
      "outputs": [
        {
          "internalType": "contract StarMinerCredits",
          "name": "",
          "type": "address"
        }
      ],
      "stateMutability": "view",
      "type": "function"
    },
    {
      "inputs": [
        {
          "internalType": "address",
          "name": "player",
          "type": "address"
        }
      ],
      "name": "getPlayerState",
      "outputs": [
        {
          "components": [
            {
              "internalType": "uint256",
              "name": "stardust",
              "type": "uint256"
            },
            {
              "internalType": "uint256",
              "name": "stardustPerClick",
              "type": "uint256"
            },
            {
              "internalType": "uint256",
              "name": "stardustPerSecond",
              "type": "uint256"
            },
            {
              "internalType": "uint256",
              "name": "totalClicks",
              "type": "uint256"
            },
            {
              "internalType": "uint256",
              "name": "lastUpdateTime",
              "type": "uint256"
            },
            {
              "internalType": "uint256",
              "name": "prestigeLevel",
              "type": "uint256"
            },
            {
              "internalType": "bool",
              "name": "isActive",
              "type": "bool"
            }
          ],
          "internalType": "struct GameStateManager.PlayerState",
          "name": "state",
          "type": "tuple"
        },
        {
          "internalType": "uint256",
          "name": "idleRewards",
          "type": "uint256"
        },
        {
          "internalType": "string[]",
          "name": "achievements",
          "type": "string[]"
        }
      ],
      "stateMutability": "view",
      "type": "function"
    },
    {
      "inputs": [
        {
          "internalType": "address",
          "name": "player",
          "type": "address"
        }
      ],
      "name": "getPlayerStats",
      "outputs": [
        {
          "internalType": "uint256",
          "name": "totalStardustEarnedAmount",
          "type": "uint256"
        },
        {
          "internalType": "uint256",
          "name": "totalCreditsSpentAmount",
          "type": "uint256"
        },
        {
          "internalType": "uint256",
          "name": "totalClicksAmount",
          "type": "uint256"
        },
        {
          "internalType": "uint256",
          "name": "totalPlayTimeAmount",
          "type": "uint256"
        },
        {
          "internalType": "uint256",
          "name": "highestStardustPerSecondAmount",
          "type": "uint256"
        },
        {
          "internalType": "uint256",
          "name": "prestigeCountAmount",
          "type": "uint256"
        },
        {
          "internalType": "uint256",
          "name": "achievementsUnlocked",
          "type": "uint256"
        }
      ],
      "stateMutability": "view",
      "type": "function"
    },
    {
      "inputs": [
        {
          "internalType": "address",
          "name": "player",
          "type": "address"
        }
      ],
      "name": "getPlayerUpgrades",
      "outputs": [
        {
          "internalType": "string[]",
          "name": "upgradeIds",
          "type": "string[]"
        },
        {
          "internalType": "uint256[]",
          "name": "levels",
          "type": "uint256[]"
        }
      ],
      "stateMutability": "view",
      "type": "function"
    },
    {
      "inputs": [
        {
          "internalType": "string",
          "name": "upgradeId",
          "type": "string"
        },
        {
          "internalType": "address",
          "name": "player",
          "type": "address"
        }
      ],
      "name": "getUpgradeCost",
      "outputs": [
        {
          "internalType": "uint256",
          "name": "",
          "type": "uint256"
        }
      ],
      "stateMutability": "view",
      "type": "function"
    },
    {
      "inputs": [
        {
          "internalType": "address",
          "name": "",
          "type": "address"
        }
      ],
      "name": "highestStardustPerSecond",
      "outputs": [
        {
          "internalType": "uint256",
          "name": "",
          "type": "uint256"
        }
      ],
      "stateMutability": "view",
      "type": "function"
    },
    {
      "inputs": [],
      "name": "owner",
      "outputs": [
        {
          "internalType": "address",
          "name": "",
          "type": "address"
        }
      ],
      "stateMutability": "view",
      "type": "function"
    },
    {
      "inputs": [
        {
          "internalType": "address",
          "name": "",
          "type": "address"
        }
      ],
      "name": "playerAchievementCount",
      "outputs": [
        {
          "internalType": "uint256",
          "name": "",
          "type": "uint256"
        }
      ],
      "stateMutability": "view",
      "type": "function"
    },
    {
      "inputs": [
        {
          "internalType": "address",
          "name": "",
          "type": "address"
        },
        {
          "internalType": "uint256",
          "name": "",
          "type": "uint256"
        }
      ],
      "name": "playerAchievements",
      "outputs": [
        {
          "internalType": "string",
          "name": "",
          "type": "string"
        }
      ],
      "stateMutability": "view",
      "type": "function"
    },
    {
      "inputs": [
        {
          "internalType": "address",
          "name": "",
          "type": "address"
        }
      ],
      "name": "playerStates",
      "outputs": [
        {
          "internalType": "uint256",
          "name": "stardust",
          "type": "uint256"
        },
        {
          "internalType": "uint256",
          "name": "stardustPerClick",
          "type": "uint256"
        },
        {
          "internalType": "uint256",
          "name": "stardustPerSecond",
          "type": "uint256"
        },
        {
          "internalType": "uint256",
          "name": "totalClicks",
          "type": "uint256"
        },
        {
          "internalType": "uint256",
          "name": "lastUpdateTime",
          "type": "uint256"
        },
        {
          "internalType": "uint256",
          "name": "prestigeLevel",
          "type": "uint256"
        },
        {
          "internalType": "bool",
          "name": "isActive",
          "type": "bool"
        }
      ],
      "stateMutability": "view",
      "type": "function"
    },
    {
      "inputs": [
        {
          "internalType": "address",
          "name": "",
          "type": "address"
        },
        {
          "internalType": "string",
          "name": "",
          "type": "string"
        }
      ],
      "name": "playerUpgrades",
      "outputs": [
        {
          "internalType": "uint256",
          "name": "",
          "type": "uint256"
        }
      ],
      "stateMutability": "view",
      "type": "function"
    },
    {
      "inputs": [
        {
          "internalType": "address",
          "name": "",
          "type": "address"
        }
      ],
      "name": "prestigeCount",
      "outputs": [
        {
          "internalType": "uint256",
          "name": "",
          "type": "uint256"
        }
      ],
      "stateMutability": "view",
      "type": "function"
    },
    {
      "inputs": [
        {
          "internalType": "string",
          "name": "upgradeId",
          "type": "string"
        }
      ],
      "name": "purchaseUpgrade",
      "outputs": [],
      "stateMutability": "nonpayable",
      "type": "function"
    },
    {
      "inputs": [],
      "name": "registerPlayer",
      "outputs": [],
      "stateMutability": "nonpayable",
      "type": "function"
    },
    {
      "inputs": [],
      "name": "renounceOwnership",
      "outputs": [],
      "stateMutability": "nonpayable",
      "type": "function"
    },
    {
      "inputs": [
        {
          "internalType": "uint256",
          "name": "stardust",
          "type": "uint256"
        },
        {
          "internalType": "uint256",
          "name": "stardustPerClick",
          "type": "uint256"
        },
        {
          "internalType": "uint256",
          "name": "stardustPerSecond",
          "type": "uint256"
        },
        {
          "internalType": "uint256",
          "name": "totalClicks",
          "type": "uint256"
        },
        {
          "internalType": "string[]",
          "name": "upgradeIds",
          "type": "string[]"
        },
        {
          "internalType": "uint256[]",
          "name": "upgradeLevels",
          "type": "uint256[]"
        },
        {
          "internalType": "uint256",
          "name": "prestigeLevel",
          "type": "uint256"
        },
        {
          "internalType": "string[]",
          "name": "achievements",
          "type": "string[]"
        }
      ],
      "name": "saveCompleteGameState",
      "outputs": [],
      "stateMutability": "nonpayable",
      "type": "function"
    },
    {
      "inputs": [
        {
          "internalType": "uint256",
          "name": "stardust",
          "type": "uint256"
        },
        {
          "internalType": "uint256",
          "name": "stardustPerClick",
          "type": "uint256"
        },
        {
          "internalType": "uint256",
          "name": "stardustPerSecond",
          "type": "uint256"
        },
        {
          "internalType": "uint256",
          "name": "totalClicks",
          "type": "uint256"
        },
        {
          "internalType": "string[]",
          "name": "achievements",
          "type": "string[]"
        }
      ],
      "name": "saveGameState",
      "outputs": [],
      "stateMutability": "nonpayable",
      "type": "function"
    },
    {
      "inputs": [
        {
          "internalType": "string",
          "name": "upgradeId",
          "type": "string"
        }
      ],
      "name": "toggleUpgrade",
      "outputs": [],
      "stateMutability": "nonpayable",
      "type": "function"
    },
    {
      "inputs": [
        {
          "internalType": "address",
          "name": "",
          "type": "address"
        }
      ],
      "name": "totalCreditsSpent",
      "outputs": [
        {
          "internalType": "uint256",
          "name": "",
          "type": "uint256"
        }
      ],
      "stateMutability": "view",
      "type": "function"
    },
    {
      "inputs": [
        {
          "internalType": "address",
          "name": "",
          "type": "address"
        }
      ],
      "name": "totalPlayTime",
      "outputs": [
        {
          "internalType": "uint256",
          "name": "",
          "type": "uint256"
        }
      ],
      "stateMutability": "view",
      "type": "function"
    },
    {
      "inputs": [],
      "name": "totalPlayers",
      "outputs": [
        {
          "internalType": "uint256",
          "name": "",
          "type": "uint256"
        }
      ],
      "stateMutability": "view",
      "type": "function"
    },
    {
      "inputs": [
        {
          "internalType": "address",
          "name": "",
          "type": "address"
        }
      ],
      "name": "totalStardustEarned",
      "outputs": [
        {
          "internalType": "uint256",
          "name": "",
          "type": "uint256"
        }
      ],
      "stateMutability": "view",
      "type": "function"
    },
    {
      "inputs": [],
      "name": "totalStardustGenerated",
      "outputs": [
        {
          "internalType": "uint256",
          "name": "",
          "type": "uint256"
        }
      ],
      "stateMutability": "view",
      "type": "function"
    },
    {
      "inputs": [
        {
          "internalType": "address",
          "name": "newOwner",
          "type": "address"
        }
      ],
      "name": "transferOwnership",
      "outputs": [],
      "stateMutability": "nonpayable",
      "type": "function"
    },
    {
      "inputs": [
        {
          "internalType": "uint256",
          "name": "sessionTime",
          "type": "uint256"
        }
      ],
      "name": "updatePlayTime",
      "outputs": [],
      "stateMutability": "nonpayable",
      "type": "function"
    },
    {
      "inputs": [
        {
          "internalType": "string",
          "name": "",
          "type": "string"
        }
      ],
      "name": "upgradeConfigs",
      "outputs": [
        {
          "internalType": "string",
          "name": "name",
          "type": "string"
        },
        {
          "internalType": "uint256",
          "name": "baseCost",
          "type": "uint256"
        },
        {
          "internalType": "uint256",
          "name": "costMultiplier",
          "type": "uint256"
        },
        {
          "internalType": "uint256",
          "name": "stardustPerClick",
          "type": "uint256"
        },
        {
          "internalType": "uint256",
          "name": "stardustPerSecond",
          "type": "uint256"
        },
        {
          "internalType": "string",
          "name": "costType",
          "type": "string"
        },
        {
          "internalType": "bool",
          "name": "isActive",
          "type": "bool"
        }
      ],
      "stateMutability": "view",
      "type": "function"
    }
  ],
  "bytecode": "0x60806040523480156200001157600080fd5b506040516200353a3803806200353a833981016040819052620000349162000a32565b6200003f336200006f565b60018055600280546001600160a01b0319166001600160a01b03831617905562000068620000bf565b5062000bd5565b600080546001600160a01b038381166001600160a01b0319831681178455604051919092169283917f8be0079c531659141344cd1fd0a4f28419497f9722a3daafe3b4186f6b6457e09190a35050565b6040518060e001604052806040518060400160405280600981526020016854656c6573636f706560b81b8152508152602001600a815260200161047e81526020016001815260200160008152602001604051806040016040528060088152602001671cdd185c991d5cdd60c21b81525081526020016001151581525060056040516200015a906874656c6573636f706560b81b815260090190565b9081526040519081900360200190208151819062000179908262000b09565b506020820151600182015560408201516002820155606082015160038201556080820151600482015560a08201516005820190620001b8908262000b09565b5060c091820151600691909101805460ff19169115159190911790556040805161012081018252600960e0820181815268536174656c6c69746560b81b6101008401528252606460208084019190915261047e838501526005606084018190526001608085018190528551808701875260088152671cdd185c991d5cdd60c21b9381019390935260a085019290925294830152915168736174656c6c69746560b81b815290929101908152604051908190036020019020815181906200027f908262000b09565b506020820151600182015560408201516002820155606082015160038201556080820151600482015560a08201516005820190620002be908262000b09565b5060c091820151600691909101805460ff19169115159190911790556040805161012081018252600b60e082018181526a4f627365727661746f727960a81b61010084015282526103e860208084019190915261047e83850152600a60608401526005608084018190528451808601865260088152671cdd185c991d5cdd60c21b9281019290925260a084019190915260019483019490945291516a6f627365727661746f727960a81b815290929101908152604051908190036020019020815181906200038d908262000b09565b506020820151600182015560408201516002820155606082015160038201556080820151600482015560a08201516005820190620003cc908262000b09565b5060c091820151600691909101805460ff19169115159190911790556040805161012081018252600860e0820181815267053746172736869760c41b6101008401528252600a6020808401919091526104b08385015260326060840152601960808401528351808501855260078152666372656469747360c81b9181019190915260a0830152600193820193909352905167073746172736869760c41b81529091600591019081526040519081900360200190208151819062000490908262000b09565b506020820151600182015560408201516002820155606082015160038201556080820151600482015560a08201516005820190620004cf908262000b09565b5060c091820151600691909101805460ff19169115159190911790556040805161012081018252600d60e082019081526c29b830b1b29029ba30ba34b7b760991b6101008301528152603260208083018290526104b0838501526064606084015260808301919091528251808401845260078152666372656469747360c81b9181019190915260a0820152600192810192909252516b39b830b1b2b9ba30ba34b7b760a11b8152600590600c01908152604051908190036020019020815181906200059b908262000b09565b506020820151600182015560408201516002820155606082015160038201556080820151600482015560a08201516005820190620005da908262000b09565b5060c091820151600691909101805460ff19169115159190911790556040805161012081018252601260e08201908152712bb7b936b437b6329023b2b732b930ba37b960711b610100830152815260c86020808301919091526104e2828401526101f4606083015260fa60808301528251808401845260078152666372656469747360c81b9181019190915260a08201526001928101929092525167776f726d686f6c6560c01b815260059060080190815260405190819003602001902081518190620006a8908262000b09565b506020820151600182015560408201516002820155606082015160038201556080820151600482015560a08201516005820190620006e7908262000b09565b5060c091820151600691909101805460ff19169115159190911790556040805161012081018252600a60e0820190815269426c61636b20486f6c6560b01b61010083015281526101f460208083018290526104e2838501526103e8606084015260808301919091528251808401845260078152666372656469747360c81b9181019190915260a08201526001928101929092525168626c61636b686f6c6560b81b815260059060090190815260405190819003602001902081518190620007af908262000b09565b506020820151600182015560408201516002820155606082015160038201556080820151600482015560a08201516005820190620007ee908262000b09565b5060c091820151600691909101805460ff19169115159190911790556040805161012081018252601060e082019081526f47616c6163746963204e6574776f726b60801b61010083015281526103e86020808301919091526105148284015261138860608301526109c460808301528251808401845260078152666372656469747360c81b9181019190915260a0820152600192810192909252516e67616c61637469636e6574776f726b60881b8152600590600f0190815260405190819003602001902081518190620008c3908262000b09565b506020820151600182015560408201516002820155606082015160038201556080820151600482015560a0820151600582019062000902908262000b09565b5060c091820151600691909101805460ff19169115159190911790556040805161012081018252600f60e082019081526e556e69766572736520456e67696e6560881b61010083015281526107d06020808301919091526105dc82840152612710606083015261138860808301528251808401845260078152666372656469747360c81b9181019190915260a0820152600192810192909252516d756e697665727365656e67696e6560901b8152600590600e0190815260405190819003602001902081518190620009d5908262000b09565b506020820151600182015560408201516002820155606082015160038201556080820151600482015560a0820151600582019062000a14908262000b09565b5060c091909101516006909101805460ff1916911515919091179055565b60006020828403121562000a4557600080fd5b81516001600160a01b038116811462000a5d57600080fd5b9392505050565b634e487b7160e01b600052604160045260246000fd5b600181811c9082168062000a8f57607f821691505b60208210810362000ab057634e487b7160e01b600052602260045260246000fd5b50919050565b601f82111562000b0457600081815260208120601f850160051c8101602086101562000adf5750805b601f850160051c820191505b8181101562000b005782815560010162000aeb565b5050505b505050565b81516001600160401b0381111562000b255762000b2562000a64565b62000b3d8162000b36845462000a7a565b8462000ab6565b602080601f83116001811462000b75576000841562000b5c5750858301515b600019600386901b1c1916600185901b17855562000b00565b600085815260208120601f198616915b8281101562000ba65788860151825594840194600190910190840162000b85565b508582101562000bc55787850151600019600388901b60f8161c191681555b5050505050600190811b01905550565b6129558062000be56000396000f3fe608060405234801561001057600080fd5b50600436106101c45760003560e01c80638da5cb5b116100f9578063df999dfd11610097578063f2fde38b11610071578063f2fde38b14610537578063f398467b1461054a578063f60cdcf61461056a578063f737e8181461057357600080fd5b8063df999dfd146104e4578063e3dbf6a614610504578063f0a22a411461052457600080fd5b8063c01ca43f116100d3578063c01ca43f146103fc578063d15e55b71461041e578063d1b2df4b146104a4578063dc0e5370146104c457600080fd5b80638da5cb5b146103a6578063a0bbc59e146103b7578063aad135d4146103f357600080fd5b80634fd66eae11610166578063662433391161014057806366243339146103445780636cdfaacb1461036a578063715018a61461037d57806371923eda1461038557600080fd5b80634fd66eae1461027d5780635c07a4b01461031c578063628214511461032457600080fd5b806335c92d79116101a257806335c92d7914610216578063473ec38d1461024457806348113d40146102575780634a4a541e1461026a57600080fd5b8063019f5e8a146101c95780630642bc41146101de57806326f3fde01461020e575b600080fd5b6101dc6101d7366004611fe9565b610586565b005b6002546101f1906001600160a01b031681565b6040516001600160a01b0390911681526020015b60405180910390f35b6101dc6105e8565b61023661022436600461201e565b600c6020526000908152604090205481565b604051908152602001610205565b6101dc6102523660046120f0565b61089c565b6101dc6102653660046120f0565b610e14565b6101dc61027836600461212d565b610e78565b6102e761028b36600461201e565b6001600160a01b0316600090815260086020908152604080832054600983528184205460038085528386200154600a855283862054600b865284872054600c875285882054600790975294909620549296919590949093929091565b604080519788526020880196909652948601939093526060850191909152608084015260a083015260c082015260e001610205565b6101dc610f45565b61023661033236600461201e565b600a6020526000908152604090205481565b6103576103523660046120f0565b611031565b604051610205979695949392919061222c565b6101dc610378366004612334565b611189565b6101dc61135a565b61039861039336600461201e565b61136c565b6040516102059291906123ea565b6000546001600160a01b03166101f1565b6102366103c5366004612434565b6004602090815260009283526040909220815180830184018051928152908401929093019190912091525481565b610236600e5481565b61040f61040a36600461201e565b6115d3565b60405161020593929190612482565b61046d61042c36600461201e565b600360208190526000918252604090912080546001820154600283015493830154600484015460058501546006909501549395929492939192909160ff1687565b604080519788526020880196909652948601939093526060850191909152608084015260a0830152151560c082015260e001610205565b6102366104b236600461201e565b60076020526000908152604090205481565b6102366104d236600461201e565b600b6020526000908152604090205481565b6104f76104f23660046124ec565b6116c8565b6040516102059190612516565b61023661051236600461201e565b60086020526000908152604090205481565b6101dc610532366004612584565b61176d565b6101dc61054536600461201e565b611a2e565b61023661055836600461201e565b60096020526000908152604090205481565b610236600d5481565b61023661058136600461263d565b611aa4565b3360009081526003602052604090206006015460ff166105c15760405162461bcd60e51b81526004016105b89061268b565b60405180910390fd5b336000908152600a6020526040812080548392906105e09084906126d0565b909155505050565b33600090815260036020526040902054620f4240111561064a5760405162461bcd60e51b815260206004820152601d60248201527f4e65656420314d20737461726475737420666f7220707265737469676500000060448201526064016105b8565b336000908152600360205260408120600581018054919261066a836126e3565b909155505060008082556001808301556005820154600283015560038201819055338152600c602052604081208054916106a3836126e3565b90915550506040805161016081018252600961012082018181526874656c6573636f706560b81b61014084015282528251808401845281815268736174656c6c69746560b81b6020828101919091528084019190915283518085018552600b81526a6f627365727661746f727960a81b818301528385015283518085018552600880825267073746172736869760c41b82840152606085019190915284518086018652600c81526b39b830b1b2b9ba30ba34b7b760a11b8184015260808501528451808601865290815267776f726d686f6c6560c01b8183015260a08401528351808501855291825268626c61636b686f6c6560b81b8282015260c083019190915282518084018452600f81526e67616c61637469636e6574776f726b60881b8183015260e08301528251808401909352600e83526d756e697665727365656e67696e6560901b9083015261010081019190915260005b600981101561085857336000908152600460205260408120838360098110610824576108246126fc565b60200201516040516108369190612712565b9081526040519081900360200190205580610850816126e3565b9150506107fa565b5060058201546040805191825242602083015233917fa1076bf9c07228ae15797fa473a75367dc398ad6427938bdf107a8df563e6a80910160405180910390a25050565b6108a4611c87565b3360009081526003602052604090206006015460ff166108d65760405162461bcd60e51b81526004016105b89061268b565b6005816040516108e69190612712565b9081526040519081900360200190206006015460ff166109405760405162461bcd60e51b815260206004820152601560248201527455706772616465206e6f7420617661696c61626c6560581b60448201526064016105b8565b60006005826040516109529190612712565b90815260200160405180910390206040518060e001604052908160008201805461097b9061272e565b80601f01602080910402602001604051908101604052809291908181526020018280546109a79061272e565b80156109f45780601f106109c9576101008083540402835291602001916109f4565b820191906000526020600020905b8154815290600101906020018083116109d757829003601f168201915b5050505050815260200160018201548152602001600282015481526020016003820154815260200160048201548152602001600582018054610a359061272e565b80601f0160208091040260200160405190810160405280929190818152602001828054610a619061272e565b8015610aae5780601f10610a8357610100808354040283529160200191610aae565b820191906000526020600020905b815481529060010190602001808311610a9157829003601f168201915b50505091835250506006919091015460ff1615156020918201523360009081526004909152604080822090519293509091610aea908590612712565b90815260200160405180910390205490506000610b108360200151846040015184611ce0565b6040805180820190915260088152671cdd185c991d5cdd60c21b60209182015260a085015180519101209091507f81e3a722c3e4e8f9d9ced5c3a0b6f6a1a13d9410313441a99c6901226d8b071201610be45733600090815260036020526040902054811115610bba5760405162461bcd60e51b8152602060048201526015602482015274125b9cdd59999a58da595b9d081cdd185c991d5cdd605a1b60448201526064016105b8565b3360009081526003602052604081208054839290610bd9908490612768565b90915550610d1f9050565b6002546040516370a0823160e01b815233600482015282916001600160a01b0316906370a0823190602401602060405180830381865afa158015610c2c573d6000803e3d6000fd5b505050506040513d601f19601f82011682018060405250810190610c50919061277b565b1015610c955760405162461bcd60e51b8152602060048201526014602482015273496e73756666696369656e74206372656469747360601b60448201526064016105b8565b6002546040516310c4b38760e11b8152336004820152602481018390526001600160a01b0390911690632189670e90604401600060405180830381600087803b158015610ce157600080fd5b505af1158015610cf5573d6000803e3d6000fd5b50503360009081526009602052604081208054859450909250610d199084906126d0565b90915550505b33600090815260046020526040908190209051610d3d908690612712565b9081526040519081900360200190208054906000610d5a836126e3565b909155505060608301513360009081526003602052604081206001018054909190610d869084906126d0565b909155505060808301513360009081526003602052604081206002018054909190610db29084906126d0565b909155503390507f1fd4664d767f39fd6223439ed2145312055fbe43d159a8cec2d0d8c975c9c63785610de68560016126d0565b60a0870151604051610dfd93929187914290612794565b60405180910390a2505050610e1160018055565b50565b610e1c611d33565b600581604051610e2c9190612712565b9081526040519081900360200181206006015460ff161590600590610e52908490612712565b908152604051908190036020019020600601805491151560ff1990921691909117905550565b610e80611d33565b6040518060e0016040528087815260200186815260200185815260200184815260200183815260200182815260200160011515815250600588604051610ec69190612712565b90815260405190819003602001902081518190610ee39082612826565b506020820151600182015560408201516002820155606082015160038201556080820151600482015560a08201516005820190610f209082612826565b5060c091909101516006909101805460ff191691151591909117905550505050505050565b3360009081526003602052604090206006015460ff1661102f576040805160e08101825260008082526001602080840182815284860184815260608601858152426080880190815260a0880187815260c08901878152338952600396879052998820985189559351958801959095559051600287015551918501919091559051600484015551600583015591516006909101805460ff1916911515919091179055600d805491610ff4836126e3565b909155505060405142815233907f324cb0062138d65997c86cd3012489ceb351d602f2f55c7408306e8040c79f3f9060200160405180910390a25b565b80516020818301810180516005825292820191909301209152805481906110579061272e565b80601f01602080910402602001604051908101604052809291908181526020018280546110839061272e565b80156110d05780601f106110a5576101008083540402835291602001916110d0565b820191906000526020600020905b8154815290600101906020018083116110b357829003601f168201915b5050505050908060010154908060020154908060030154908060040154908060050180546110fd9061272e565b80601f01602080910402602001604051908101604052809291908181526020018280546111299061272e565b80156111765780601f1061114b57610100808354040283529160200191611176565b820191906000526020600020905b81548152906001019060200180831161115957829003601f168201915b5050506006909301549192505060ff1687565b611191611c87565b3360009081526003602052604090206006015460ff166111c35760405162461bcd60e51b81526004016105b89061268b565b33600090815260036020526040812060048101549091906111e49042612768565b905060008183600201546111f891906128e6565b905061120481896126d0565b835560018301879055600283018690556003830185905542600484015561122b3385611d8d565b336000908152600860205260408120805483929061124a9084906126d0565b9250508190555080600e600082825461126391906126d0565b9091555050336000908152600b602052604090205486111561129257336000908152600b602052604090208690555b80156112fd5760025460405163593ee7fd60e11b8152336004820152602481018390526001600160a01b039091169063b27dcffa90604401600060405180830381600087803b1580156112e457600080fd5b505af11580156112f8573d6000803e3d6000fd5b505050505b82546002840154604080519283526020830191909152429082015233907fde2575b1517540b677c794a3cde57fed7f46fe9beaca3bb86154c43ae41bc6a19060600160405180910390a250505061135360018055565b5050505050565b611362611d33565b61102f6000611e3f565b6040805161016081018252600961012082018181526874656c6573636f706560b81b610140808501919091529083528351808501855282815268736174656c6c69746560b81b6020808301919091528085019190915284518086018652600b81526a6f627365727661746f727960a81b818301528486015284518086018652600880825267073746172736869760c41b8284015260608087019290925286518088018852600c81526b39b830b1b2b9ba30ba34b7b760a11b8185015260808701528651808801885290815267776f726d686f6c6560c01b8184015260a08601528551808701875284815268626c61636b686f6c6560b81b8184015260c086015285518087018752600f81526e67616c61637469636e6574776f726b60881b8184015260e086015285518087018752600e81526d756e697665727365656e67696e6560901b8184015261010086015285518481529283019095528493929082015b60608152602001906001900390816114cc5750506040805160098082526101408201909252919450602082016101208036833701905050915060005b60098110156115cc57818160098110611523576115236126fc565b602002015184828151811061153a5761153a6126fc565b602002602001018190525060046000866001600160a01b03166001600160a01b0316815260200190815260200160002082826009811061157c5761157c6126fc565b602002015160405161158e9190612712565b9081526020016040518091039020548382815181106115af576115af6126fc565b6020908102919091010152806115c4816126e3565b915050611508565b5050915091565b6116156040518060e001604052806000815260200160008152602001600081526020016000815260200160008152602001600081526020016000151581525090565b506001600160a01b0381166000908152600360208181526040808420815160e081018352815481526001820154938101939093526002810154918301919091529182015460608281019190915260048301546080830152600583015460a083015260069092015460ff1615801560c0830152909291906116b75760008360800151426116a19190612768565b90508084604001516116b391906128e6565b9250505b6116c084611e8f565b929491935050565b6006602090815260009283526040808420909152908252902080546116ec9061272e565b80601f01602080910402602001604051908101604052809291908181526020018280546117189061272e565b80156117655780601f1061173a57610100808354040283529160200191611765565b820191906000526020600020905b81548152906001019060200180831161174857829003601f168201915b505050505081565b611775611c87565b3360009081526003602052604090206006015460ff166117a75760405162461bcd60e51b81526004016105b89061268b565b82518451146117f85760405162461bcd60e51b815260206004820152601960248201527f4d69736d6174636865642075706772616465206172726179730000000000000060448201526064016105b8565b33600090815260036020526040812060048101549091906118199042612768565b9050600081836002015461182d91906128e6565b9050611839818c6126d0565b8355600183018a905560028301899055600383018890556005830185905542600484015560005b87518110156118f15786818151811061187b5761187b6126fc565b602002602001015160046000336001600160a01b03166001600160a01b031681526020019081526020016000208983815181106118ba576118ba6126fc565b60200260200101516040516118cf9190612712565b90815260405190819003602001902055806118e9816126e3565b915050611860565b506118fc3385611d8d565b336000908152600860205260408120805483929061191b9084906126d0565b9250508190555080600e600082825461193491906126d0565b9091555050336000908152600b602052604090205489111561196357336000908152600b602052604090208990555b80156119ce5760025460405163593ee7fd60e11b8152336004820152602481018390526001600160a01b039091169063b27dcffa90604401600060405180830381600087803b1580156119b557600080fd5b505af11580156119c9573d6000803e3d6000fd5b505050505b82546002840154604080519283526020830191909152429082015233907fde2575b1517540b677c794a3cde57fed7f46fe9beaca3bb86154c43ae41bc6a19060600160405180910390a2505050611a2460018055565b5050505050505050565b611a36611d33565b6001600160a01b038116611a9b5760405162461bcd60e51b815260206004820152602660248201527f4f776e61626c653a206e6577206f776e657220697320746865207a65726f206160448201526564647265737360d01b60648201526084016105b8565b610e1181611e3f565b600080600584604051611ab79190612712565b90815260200160405180910390206040518060e0016040529081600082018054611ae09061272e565b80601f0160208091040260200160405190810160405280929190818152602001828054611b0c9061272e565b8015611b595780601f10611b2e57610100808354040283529160200191611b59565b820191906000526020600020905b815481529060010190602001808311611b3c57829003601f168201915b5050505050815260200160018201548152602001600282015481526020016003820154815260200160048201548152602001600582018054611b9a9061272e565b80601f0160208091040260200160405190810160405280929190818152602001828054611bc69061272e565b8015611c135780601f10611be857610100808354040283529160200191611c13565b820191906000526020600020905b815481529060010190602001808311611bf657829003601f168201915b50505091835250506006919091015460ff1615156020918201526001600160a01b03851660009081526004909152604080822090519293509091611c58908790612712565b9081526020016040518091039020549050611c7c8260200151836040015183611ce0565b925050505b92915050565b600260015403611cd95760405162461bcd60e51b815260206004820152601f60248201527f5265656e7472616e637947756172643a207265656e7472616e742063616c6c0060448201526064016105b8565b6002600155565b600081600003611cf1575082611d2c565b8360005b83811015611d28576103e8611d0a86846128e6565b611d1491906128fd565b915080611d20816126e3565b915050611cf5565b5090505b9392505050565b6000546001600160a01b0316331461102f5760405162461bcd60e51b815260206004820181905260248201527f4f776e61626c653a2063616c6c6572206973206e6f7420746865206f776e657260448201526064016105b8565b6001600160a01b03821660009081526007602052604081208190555b8151811015611e3a57818181518110611dc457611dc46126fc565b6020908102919091018101516001600160a01b03851660009081526006835260408082208583529093529190912090611dfd9082612826565b506001600160a01b0383166000908152600760205260408120805491611e22836126e3565b91905055508080611e32906126e3565b915050611da9565b505050565b600080546001600160a01b038381166001600160a01b0319831681178455604051919092169283917f8be0079c531659141344cd1fd0a4f28419497f9722a3daafe3b4186f6b6457e09190a35050565b6001600160a01b0381166000908152600760205260408120546060918167ffffffffffffffff811115611ec457611ec4612039565b604051908082528060200260200182016040528015611ef757816020015b6060815260200190600190039081611ee25790505b50905060005b82811015611fe1576001600160a01b038516600090815260066020908152604080832084845290915290208054611f339061272e565b80601f0160208091040260200160405190810160405280929190818152602001828054611f5f9061272e565b8015611fac5780601f10611f8157610100808354040283529160200191611fac565b820191906000526020600020905b815481529060010190602001808311611f8f57829003601f168201915b5050505050828281518110611fc357611fc36126fc565b60200260200101819052508080611fd9906126e3565b915050611efd565b509392505050565b600060208284031215611ffb57600080fd5b5035919050565b80356001600160a01b038116811461201957600080fd5b919050565b60006020828403121561203057600080fd5b611d2c82612002565b634e487b7160e01b600052604160045260246000fd5b604051601f8201601f1916810167ffffffffffffffff8111828210171561207857612078612039565b604052919050565b600082601f83011261209157600080fd5b813567ffffffffffffffff8111156120ab576120ab612039565b6120be601f8201601f191660200161204f565b8181528460208386010111156120d357600080fd5b816020850160208301376000918101602001919091529392505050565b60006020828403121561210257600080fd5b813567ffffffffffffffff81111561211957600080fd5b61212584828501612080565b949350505050565b600080600080600080600060e0888a03121561214857600080fd5b873567ffffffffffffffff8082111561216057600080fd5b61216c8b838c01612080565b985060208a013591508082111561218257600080fd5b61218e8b838c01612080565b975060408a0135965060608a0135955060808a0135945060a08a0135935060c08a01359150808211156121c057600080fd5b506121cd8a828b01612080565b91505092959891949750929550565b60005b838110156121f75781810151838201526020016121df565b50506000910152565b600081518084526122188160208601602086016121dc565b601f01601f19169290920160200192915050565b60e08152600061223f60e083018a612200565b88602084015287604084015286606084015285608084015282810360a08401526122698186612200565b91505082151560c083015298975050505050505050565b600067ffffffffffffffff82111561229a5761229a612039565b5060051b60200190565b600082601f8301126122b557600080fd5b813560206122ca6122c583612280565b61204f565b82815260059290921b840181019181810190868411156122e957600080fd5b8286015b8481101561232957803567ffffffffffffffff81111561230d5760008081fd5b61231b8986838b0101612080565b8452509183019183016122ed565b509695505050505050565b600080600080600060a0868803121561234c57600080fd5b85359450602086013593506040860135925060608601359150608086013567ffffffffffffffff81111561237f57600080fd5b61238b888289016122a4565b9150509295509295909350565b6000815180845260208085019450848260051b860182860160005b858110156123dd5783830389526123cb838351612200565b988501989250908401906001016123b3565b5090979650505050505050565b6040815260006123fd6040830185612398565b82810360208481019190915284518083528582019282019060005b818110156123dd57845183529383019391830191600101612418565b6000806040838503121561244757600080fd5b61245083612002565b9150602083013567ffffffffffffffff81111561246c57600080fd5b61247885828601612080565b9150509250929050565b6000610120855183526020860151602084015260408601516040840152606086015160608401526080860151608084015260a086015160a084015260c0860151151560c08401528460e0840152806101008401526124e281840185612398565b9695505050505050565b600080604083850312156124ff57600080fd5b61250883612002565b946020939093013593505050565b602081526000611d2c6020830184612200565b600082601f83011261253a57600080fd5b8135602061254a6122c583612280565b82815260059290921b8401810191818101908684111561256957600080fd5b8286015b84811015612329578035835291830191830161256d565b600080600080600080600080610100898b0312156125a157600080fd5b88359750602089013596506040890135955060608901359450608089013567ffffffffffffffff808211156125d557600080fd5b6125e18c838d016122a4565b955060a08b01359150808211156125f757600080fd5b6126038c838d01612529565b945060c08b0135935060e08b013591508082111561262057600080fd5b5061262d8b828c016122a4565b9150509295985092959890939650565b6000806040838503121561265057600080fd5b823567ffffffffffffffff81111561266757600080fd5b61267385828601612080565b92505061268260208401612002565b90509250929050565b602080825260159082015274141b185e595c881b9bdd081c9959da5cdd195c9959605a1b604082015260600190565b634e487b7160e01b600052601160045260246000fd5b80820180821115611c8157611c816126ba565b6000600182016126f5576126f56126ba565b5060010190565b634e487b7160e01b600052603260045260246000fd5b600082516127248184602087016121dc565b9190910192915050565b600181811c9082168061274257607f821691505b60208210810361276257634e487b7160e01b600052602260045260246000fd5b50919050565b81810381811115611c8157611c816126ba565b60006020828403121561278d57600080fd5b5051919050565b60a0815260006127a760a0830188612200565b86602084015285604084015282810360608401526127c58186612200565b9150508260808301529695505050505050565b601f821115611e3a57600081815260208120601f850160051c810160208610156127ff5750805b601f850160051c820191505b8181101561281e5782815560010161280b565b505050505050565b815167ffffffffffffffff81111561284057612840612039565b6128548161284e845461272e565b846127d8565b602080601f83116001811461288957600084156128715750858301515b600019600386901b1c1916600185901b17855561281e565b600085815260208120601f198616915b828110156128b857888601518255948401946001909101908401612899565b50858210156128d65787850151600019600388901b60f8161c191681555b5050505050600190811b01905550565b8082028115828204841417611c8157611c816126ba565b60008261291a57634e487b7160e01b600052601260045260246000fd5b50049056fea264697066735822122040f5c45b780f6804fb045d2a0d02786c40748f3e33d9c0bb46f07ba917b3a51f64736f6c63430008130033",
  "linkReferences": {},
  "deployedLinkReferences": {}
}