{
  "_format": "hh-sol-artifact-1",
  "contractName": "GameStateManager",
  "sourceName": "contracts/GameStateManager.sol",
  "abi": [
    {
      "inputs": [
        {
          "internalType": "address payable",
          "name": "_creditsContract",
          "type": "address"
        }
      ],
      "stateMutability": "nonpayable",
      "type": "constructor"
    },
    {
      "anonymous": false,
      "inputs": [
        {
          "indexed": true,
          "internalType": "address",
          "name": "player",
          "type": "address"
        },
        {
          "indexed": false,
          "internalType": "uint256",
          "name": "stardust",
          "type": "uint256"
        },
        {
          "indexed": false,
          "internalType": "uint256",
          "name": "stardustPerSecond",
          "type": "uint256"
        },
        {
          "indexed": false,
          "internalType": "uint256",
          "name": "timestamp",
          "type": "uint256"
        }
      ],
      "name": "GameStateSaved",
      "type": "event"
    },
    {
      "anonymous": false,
      "inputs": [
        {
          "indexed": true,
          "internalType": "address",
          "name": "previousOwner",
          "type": "address"
        },
        {
          "indexed": true,
          "internalType": "address",
          "name": "newOwner",
          "type": "address"
        }
      ],
      "name": "OwnershipTransferred",
      "type": "event"
    },
    {
      "anonymous": false,
      "inputs": [
        {
          "indexed": true,
          "internalType": "address",
          "name": "player",
          "type": "address"
        },
        {
          "indexed": false,
          "internalType": "uint256",
          "name": "timestamp",
          "type": "uint256"
        }
      ],
      "name": "PlayerRegistered",
      "type": "event"
    },
    {
      "anonymous": false,
      "inputs": [
        {
          "indexed": true,
          "internalType": "address",
          "name": "player",
          "type": "address"
        },
        {
          "indexed": false,
          "internalType": "uint256",
          "name": "level",
          "type": "uint256"
        },
        {
          "indexed": false,
          "internalType": "uint256",
          "name": "timestamp",
          "type": "uint256"
        }
      ],
      "name": "PrestigeActivated",
      "type": "event"
    },
    {
      "anonymous": false,
      "inputs": [
        {
          "indexed": true,
          "internalType": "address",
          "name": "player",
          "type": "address"
        },
        {
          "indexed": false,
          "internalType": "string",
          "name": "upgradeId",
          "type": "string"
        },
        {
          "indexed": false,
          "internalType": "uint256",
          "name": "level",
          "type": "uint256"
        },
        {
          "indexed": false,
          "internalType": "uint256",
          "name": "cost",
          "type": "uint256"
        },
        {
          "indexed": false,
          "internalType": "string",
          "name": "costType",
          "type": "string"
        },
        {
          "indexed": false,
          "internalType": "uint256",
          "name": "timestamp",
          "type": "uint256"
        }
      ],
      "name": "UpgradePurchased",
      "type": "event"
    },
    {
      "inputs": [],
      "name": "activatePrestige",
      "outputs": [],
      "stateMutability": "nonpayable",
      "type": "function"
    },
    {
      "inputs": [
        {
          "internalType": "string",
          "name": "upgradeId",
          "type": "string"
        },
        {
          "internalType": "string",
          "name": "name",
          "type": "string"
        },
        {
          "internalType": "uint256",
          "name": "baseCost",
          "type": "uint256"
        },
        {
          "internalType": "uint256",
          "name": "costMultiplier",
          "type": "uint256"
        },
        {
          "internalType": "uint256",
          "name": "stardustPerClick",
          "type": "uint256"
        },
        {
          "internalType": "uint256",
          "name": "stardustPerSecond",
          "type": "uint256"
        },
        {
          "internalType": "string",
          "name": "costType",
          "type": "string"
        }
      ],
      "name": "addUpgrade",
      "outputs": [],
      "stateMutability": "nonpayable",
      "type": "function"
    },
    {
      "inputs": [],
      "name": "creditsContract",
      "outputs": [
        {
          "internalType": "contract StarMinerCredits",
          "name": "",
          "type": "address"
        }
      ],
      "stateMutability": "view",
      "type": "function"
    },
    {
      "inputs": [
        {
          "internalType": "address",
          "name": "player",
          "type": "address"
        }
      ],
      "name": "getPlayerState",
      "outputs": [
        {
          "components": [
            {
              "internalType": "uint256",
              "name": "stardust",
              "type": "uint256"
            },
            {
              "internalType": "uint256",
              "name": "stardustPerSecond",
              "type": "uint256"
            },
            {
              "internalType": "uint256",
              "name": "totalClicks",
              "type": "uint256"
            },
            {
              "internalType": "uint256",
              "name": "lastUpdateTime",
              "type": "uint256"
            },
            {
              "internalType": "uint256",
              "name": "prestigeLevel",
              "type": "uint256"
            },
            {
              "internalType": "bool",
              "name": "isActive",
              "type": "bool"
            }
          ],
          "internalType": "struct GameStateManager.PlayerState",
          "name": "state",
          "type": "tuple"
        },
        {
          "internalType": "uint256",
          "name": "idleRewards",
          "type": "uint256"
        }
      ],
      "stateMutability": "view",
      "type": "function"
    },
    {
      "inputs": [
        {
          "internalType": "string",
          "name": "upgradeId",
          "type": "string"
        },
        {
          "internalType": "address",
          "name": "player",
          "type": "address"
        }
      ],
      "name": "getUpgradeCost",
      "outputs": [
        {
          "internalType": "uint256",
          "name": "",
          "type": "uint256"
        }
      ],
      "stateMutability": "view",
      "type": "function"
    },
    {
      "inputs": [],
      "name": "owner",
      "outputs": [
        {
          "internalType": "address",
          "name": "",
          "type": "address"
        }
      ],
      "stateMutability": "view",
      "type": "function"
    },
    {
      "inputs": [
        {
          "internalType": "address",
          "name": "",
          "type": "address"
        }
      ],
      "name": "playerStates",
      "outputs": [
        {
          "internalType": "uint256",
          "name": "stardust",
          "type": "uint256"
        },
        {
          "internalType": "uint256",
          "name": "stardustPerSecond",
          "type": "uint256"
        },
        {
          "internalType": "uint256",
          "name": "totalClicks",
          "type": "uint256"
        },
        {
          "internalType": "uint256",
          "name": "lastUpdateTime",
          "type": "uint256"
        },
        {
          "internalType": "uint256",
          "name": "prestigeLevel",
          "type": "uint256"
        },
        {
          "internalType": "bool",
          "name": "isActive",
          "type": "bool"
        }
      ],
      "stateMutability": "view",
      "type": "function"
    },
    {
      "inputs": [
        {
          "internalType": "address",
          "name": "",
          "type": "address"
        },
        {
          "internalType": "string",
          "name": "",
          "type": "string"
        }
      ],
      "name": "playerUpgrades",
      "outputs": [
        {
          "internalType": "uint256",
          "name": "",
          "type": "uint256"
        }
      ],
      "stateMutability": "view",
      "type": "function"
    },
    {
      "inputs": [
        {
          "internalType": "string",
          "name": "upgradeId",
          "type": "string"
        }
      ],
      "name": "purchaseUpgrade",
      "outputs": [],
      "stateMutability": "nonpayable",
      "type": "function"
    },
    {
      "inputs": [],
      "name": "registerPlayer",
      "outputs": [],
      "stateMutability": "nonpayable",
      "type": "function"
    },
    {
      "inputs": [],
      "name": "renounceOwnership",
      "outputs": [],
      "stateMutability": "nonpayable",
      "type": "function"
    },
    {
      "inputs": [
        {
          "internalType": "uint256",
          "name": "stardust",
          "type": "uint256"
        },
        {
          "internalType": "uint256",
          "name": "totalClicks",
          "type": "uint256"
        }
      ],
      "name": "saveGameState",
      "outputs": [],
      "stateMutability": "nonpayable",
      "type": "function"
    },
    {
      "inputs": [
        {
          "internalType": "string",
          "name": "upgradeId",
          "type": "string"
        }
      ],
      "name": "toggleUpgrade",
      "outputs": [],
      "stateMutability": "nonpayable",
      "type": "function"
    },
    {
      "inputs": [
        {
          "internalType": "address",
          "name": "",
          "type": "address"
        }
      ],
      "name": "totalCreditsSpent",
      "outputs": [
        {
          "internalType": "uint256",
          "name": "",
          "type": "uint256"
        }
      ],
      "stateMutability": "view",
      "type": "function"
    },
    {
      "inputs": [],
      "name": "totalPlayers",
      "outputs": [
        {
          "internalType": "uint256",
          "name": "",
          "type": "uint256"
        }
      ],
      "stateMutability": "view",
      "type": "function"
    },
    {
      "inputs": [
        {
          "internalType": "address",
          "name": "",
          "type": "address"
        }
      ],
      "name": "totalStardustEarned",
      "outputs": [
        {
          "internalType": "uint256",
          "name": "",
          "type": "uint256"
        }
      ],
      "stateMutability": "view",
      "type": "function"
    },
    {
      "inputs": [],
      "name": "totalStardustGenerated",
      "outputs": [
        {
          "internalType": "uint256",
          "name": "",
          "type": "uint256"
        }
      ],
      "stateMutability": "view",
      "type": "function"
    },
    {
      "inputs": [
        {
          "internalType": "address",
          "name": "newOwner",
          "type": "address"
        }
      ],
      "name": "transferOwnership",
      "outputs": [],
      "stateMutability": "nonpayable",
      "type": "function"
    },
    {
      "inputs": [
        {
          "internalType": "string",
          "name": "",
          "type": "string"
        }
      ],
      "name": "upgradeConfigs",
      "outputs": [
        {
          "internalType": "string",
          "name": "name",
          "type": "string"
        },
        {
          "internalType": "uint256",
          "name": "baseCost",
          "type": "uint256"
        },
        {
          "internalType": "uint256",
          "name": "costMultiplier",
          "type": "uint256"
        },
        {
          "internalType": "uint256",
          "name": "stardustPerClick",
          "type": "uint256"
        },
        {
          "internalType": "uint256",
          "name": "stardustPerSecond",
          "type": "uint256"
        },
        {
          "internalType": "string",
          "name": "costType",
          "type": "string"
        },
        {
          "internalType": "bool",
          "name": "isActive",
          "type": "bool"
        }
      ],
      "stateMutability": "view",
      "type": "function"
    }
  ],
  "bytecode": "0x60806040523480156200001157600080fd5b5060405162002216380380620022168339810160408190526200003491620005f3565b6200003f336200006f565b60018055600280546001600160a01b0319166001600160a01b03831617905562000068620000bf565b5062000796565b600080546001600160a01b038381166001600160a01b0319831681178455604051919092169283917f8be0079c531659141344cd1fd0a4f28419497f9722a3daafe3b4186f6b6457e09190a35050565b6040518060e001604052806040518060400160405280600981526020016854656c6573636f706560b81b8152508152602001600a815260200161047e81526020016001815260200160008152602001604051806040016040528060088152602001671cdd185c991d5cdd60c21b81525081526020016001151581525060056040516200015a906874656c6573636f706560b81b815260090190565b90815260405190819003602001902081518190620001799082620006ca565b506020820151600182015560408201516002820155606082015160038201556080820151600482015560a08201516005820190620001b89082620006ca565b5060c091820151600691909101805460ff19169115159190911790556040805161012081018252600960e0820181815268536174656c6c69746560b81b6101008401528252606460208084019190915261047e838501526005606084018190526001608085018190528551808701875260088152671cdd185c991d5cdd60c21b9381019390935260a085019290925294830152915168736174656c6c69746560b81b815290929101908152604051908190036020019020815181906200027f9082620006ca565b506020820151600182015560408201516002820155606082015160038201556080820151600482015560a08201516005820190620002be9082620006ca565b5060c091820151600691909101805460ff19169115159190911790556040805161012081018252600b60e082018181526a4f627365727661746f727960a81b61010084015282526103e860208084019190915261047e83850152600a60608401526005608084018190528451808601865260088152671cdd185c991d5cdd60c21b9281019290925260a084019190915260019483019490945291516a6f627365727661746f727960a81b815290929101908152604051908190036020019020815181906200038d9082620006ca565b506020820151600182015560408201516002820155606082015160038201556080820151600482015560a08201516005820190620003cc9082620006ca565b5060c091820151600691909101805460ff19169115159190911790556040805161012081018252600860e0820181815267053746172736869760c41b6101008401528252600a6020808401919091526104b08385015260326060840152601960808401528351808501855260078152666372656469747360c81b9181019190915260a0830152600193820193909352905167073746172736869760c41b815290916005910190815260405190819003602001902081518190620004909082620006ca565b506020820151600182015560408201516002820155606082015160038201556080820151600482015560a08201516005820190620004cf9082620006ca565b5060c091820151600691909101805460ff19169115159190911790556040805161012081018252600a60e0820190815269426c61636b20486f6c6560b01b610100830152815260646020808301919091526104e2828401526101f4606083015260fa60808301528251808401845260078152666372656469747360c81b9181019190915260a08201526001928101929092525168626c61636b686f6c6560b81b815260059060090190815260405190819003602001902081518190620005969082620006ca565b506020820151600182015560408201516002820155606082015160038201556080820151600482015560a08201516005820190620005d59082620006ca565b5060c091909101516006909101805460ff1916911515919091179055565b6000602082840312156200060657600080fd5b81516001600160a01b03811681146200061e57600080fd5b9392505050565b634e487b7160e01b600052604160045260246000fd5b600181811c908216806200065057607f821691505b6020821081036200067157634e487b7160e01b600052602260045260246000fd5b50919050565b601f821115620006c557600081815260208120601f850160051c81016020861015620006a05750805b601f850160051c820191505b81811015620006c157828155600101620006ac565b5050505b505050565b81516001600160401b03811115620006e657620006e662000625565b620006fe81620006f784546200063b565b8462000677565b602080601f8311600181146200073657600084156200071d5750858301515b600019600386901b1c1916600185901b178555620006c1565b600085815260208120601f198616915b82811015620007675788860151825594840194600190910190840162000746565b5085821015620007865787850151600019600388901b60f8161c191681555b5050505050600190811b01905550565b611a7080620007a66000396000f3fe608060405234801561001057600080fd5b50600436106101215760003560e01c80638da5cb5b116100ad578063e3dbf6a611610071578063e3dbf6a61461031e578063f2fde38b1461033e578063f398467b14610351578063f60cdcf614610371578063f737e8181461037a57600080fd5b80638da5cb5b146101e2578063a0bbc59e146101f3578063aad135d41461023d578063c01ca43f14610246578063d15e55b7146102a657600080fd5b806348113d40116100f457806348113d40146101865780634a4a541e146101995780635c07a4b0146101ac57806366243339146101b4578063715018a6146101da57600080fd5b80630642bc4114610126578063252d91971461015657806326f3fde01461016b578063473ec38d14610173575b600080fd5b600254610139906001600160a01b031681565b6040516001600160a01b0390911681526020015b60405180910390f35b6101696101643660046114ac565b61038d565b005b610169610547565b610169610181366004611571565b610740565b610169610194366004611571565b610cb4565b6101696101a73660046115ae565b610d18565b610169610de5565b6101c76101c2366004611571565b610ec0565b60405161014d97969594939291906116ad565b610169611018565b6000546001600160a01b0316610139565b61022f61020136600461171d565b6004602090815260009283526040909220815180830184018051928152908401929093019190912091525481565b60405190815260200161014d565b61022f60095481565b61025961025436600461176b565b61102a565b6040805183518152602080850151908201528382015191810191909152606080840151908201526080808401519082015260a09283015115159281019290925260c082015260e00161014d565b6102ef6102b436600461176b565b600360208190526000918252604090912080546001820154600283015493830154600484015460059094015492949193919290919060ff1686565b6040805196875260208701959095529385019290925260608401526080830152151560a082015260c00161014d565b61022f61032c36600461176b565b60066020526000908152604090205481565b61016961034c36600461176b565b6110fd565b61022f61035f36600461176b565b60076020526000908152604090205481565b61022f60085481565b61022f610388366004611786565b611173565b610395611356565b3360009081526003602052604090206005015460ff166103f45760405162461bcd60e51b8152602060048201526015602482015274141b185e595c881b9bdd081c9959da5cdd195c9959605a1b60448201526064015b60405180910390fd5b33600090815260036020819052604082209081015490919061041690426117ea565b9050600081836001015461042a91906117fd565b90506104368186611814565b8355600283018490554260038401553360009081526006602052604081208054839290610464908490611814565b92505081905550806009600082825461047d9190611814565b909155505080156104ed5760025460405163593ee7fd60e11b8152336004820152602481018390526001600160a01b039091169063b27dcffa90604401600060405180830381600087803b1580156104d457600080fd5b505af11580156104e8573d6000803e3d6000fd5b505050505b82546001840154604080519283526020830191909152429082015233907fde2575b1517540b677c794a3cde57fed7f46fe9beaca3bb86154c43ae41bc6a19060600160405180910390a250505061054360018055565b5050565b33600090815260036020526040902054620f424011156105a95760405162461bcd60e51b815260206004820152601d60248201527f4e65656420314d20737461726475737420666f7220707265737469676500000060448201526064016103eb565b33600090815260036020526040812060048101805491926105c983611827565b90915550506000815560048101546105e2906001611814565b60018201556040805160e081018252600960a082018181526874656c6573636f706560b81b60c084015282528251808401845281815268736174656c6c69746560b81b6020828101919091528084019190915283518085018552600b81526a6f627365727661746f727960a81b8183015283850152835180850185526008815267073746172736869760c41b818301526060840152835180850190945290835268626c61636b686f6c6560b81b90830152608081019190915260005b60058110156106fc573360009081526004602052604081208383600581106106c8576106c8611840565b60200201516040516106da9190611856565b90815260405190819003602001902055806106f481611827565b91505061069e565b5060048201546040805191825242602083015233917fa1076bf9c07228ae15797fa473a75367dc398ad6427938bdf107a8df563e6a80910160405180910390a25050565b610748611356565b3360009081526003602052604090206005015460ff166107a25760405162461bcd60e51b8152602060048201526015602482015274141b185e595c881b9bdd081c9959da5cdd195c9959605a1b60448201526064016103eb565b6005816040516107b29190611856565b9081526040519081900360200190206006015460ff1661080c5760405162461bcd60e51b815260206004820152601560248201527455706772616465206e6f7420617661696c61626c6560581b60448201526064016103eb565b600060058260405161081e9190611856565b90815260200160405180910390206040518060e001604052908160008201805461084790611872565b80601f016020809104026020016040519081016040528092919081815260200182805461087390611872565b80156108c05780601f10610895576101008083540402835291602001916108c0565b820191906000526020600020905b8154815290600101906020018083116108a357829003601f168201915b505050505081526020016001820154815260200160028201548152602001600382015481526020016004820154815260200160058201805461090190611872565b80601f016020809104026020016040519081016040528092919081815260200182805461092d90611872565b801561097a5780601f1061094f5761010080835404028352916020019161097a565b820191906000526020600020905b81548152906001019060200180831161095d57829003601f168201915b50505091835250506006919091015460ff16151560209182015233600090815260049091526040808220905192935090916109b6908590611856565b908152602001604051809103902054905060006109dc83602001518460400151846113af565b6040805180820190915260088152671cdd185c991d5cdd60c21b60209182015260a085015180519101209091507f81e3a722c3e4e8f9d9ced5c3a0b6f6a1a13d9410313441a99c6901226d8b071201610ab05733600090815260036020526040902054811115610a865760405162461bcd60e51b8152602060048201526015602482015274125b9cdd59999a58da595b9d081cdd185c991d5cdd605a1b60448201526064016103eb565b3360009081526003602052604081208054839290610aa59084906117ea565b90915550610beb9050565b6002546040516370a0823160e01b815233600482015282916001600160a01b0316906370a0823190602401602060405180830381865afa158015610af8573d6000803e3d6000fd5b505050506040513d601f19601f82011682018060405250810190610b1c91906118ac565b1015610b615760405162461bcd60e51b8152602060048201526014602482015273496e73756666696369656e74206372656469747360601b60448201526064016103eb565b6002546040516310c4b38760e11b8152336004820152602481018390526001600160a01b0390911690632189670e90604401600060405180830381600087803b158015610bad57600080fd5b505af1158015610bc1573d6000803e3d6000fd5b50503360009081526007602052604081208054859450909250610be5908490611814565b90915550505b33600090815260046020526040908190209051610c09908690611856565b9081526040519081900360200190208054906000610c2683611827565b909155505060808301513360009081526003602052604081206001018054909190610c52908490611814565b909155503390507f1fd4664d767f39fd6223439ed2145312055fbe43d159a8cec2d0d8c975c9c63785610c86856001611814565b60a0870151604051610c9d939291879142906118c5565b60405180910390a2505050610cb160018055565b50565b610cbc611402565b600581604051610ccc9190611856565b9081526040519081900360200181206006015460ff161590600590610cf2908490611856565b908152604051908190036020019020600601805491151560ff1990921691909117905550565b610d20611402565b6040518060e0016040528087815260200186815260200185815260200184815260200183815260200182815260200160011515815250600588604051610d669190611856565b90815260405190819003602001902081518190610d839082611958565b506020820151600182015560408201516002820155606082015160038201556080820151600482015560a08201516005820190610dc09082611958565b5060c091909101516006909101805460ff191691151591909117905550505050505050565b3360009081526003602052604090206005015460ff16610ebe576040805160c08101825260008082526001602080840182815284860184815242606087019081526080870186815260a088018681523388526003958690529887209751885592519487019490945551600286015591519084015551600483015591516005909101805460ff19169115159190911790556008805491610e8383611827565b909155505060405142815233907f324cb0062138d65997c86cd3012489ceb351d602f2f55c7408306e8040c79f3f9060200160405180910390a25b565b8051602081830181018051600582529282019190930120915280548190610ee690611872565b80601f0160208091040260200160405190810160405280929190818152602001828054610f1290611872565b8015610f5f5780601f10610f3457610100808354040283529160200191610f5f565b820191906000526020600020905b815481529060010190602001808311610f4257829003601f168201915b505050505090806001015490806002015490806003015490806004015490806005018054610f8c90611872565b80601f0160208091040260200160405190810160405280929190818152602001828054610fb890611872565b80156110055780601f10610fda57610100808354040283529160200191611005565b820191906000526020600020905b815481529060010190602001808311610fe857829003601f168201915b5050506006909301549192505060ff1687565b611020611402565b610ebe600061145c565b6110656040518060c0016040528060008152602001600081526020016000815260200160008152602001600081526020016000151581525090565b506001600160a01b0381166000908152600360208181526040808420815160c081018352815481526001820154938101939093526002810154918301919091529182015460608201526004820154608082015260059091015460ff1615801560a08301529091906110f85760008260600151426110e291906117ea565b90508083602001516110f491906117fd565b9150505b915091565b611105611402565b6001600160a01b03811661116a5760405162461bcd60e51b815260206004820152602660248201527f4f776e61626c653a206e6577206f776e657220697320746865207a65726f206160448201526564647265737360d01b60648201526084016103eb565b610cb18161145c565b6000806005846040516111869190611856565b90815260200160405180910390206040518060e00160405290816000820180546111af90611872565b80601f01602080910402602001604051908101604052809291908181526020018280546111db90611872565b80156112285780601f106111fd57610100808354040283529160200191611228565b820191906000526020600020905b81548152906001019060200180831161120b57829003601f168201915b505050505081526020016001820154815260200160028201548152602001600382015481526020016004820154815260200160058201805461126990611872565b80601f016020809104026020016040519081016040528092919081815260200182805461129590611872565b80156112e25780601f106112b7576101008083540402835291602001916112e2565b820191906000526020600020905b8154815290600101906020018083116112c557829003601f168201915b50505091835250506006919091015460ff1615156020918201526001600160a01b03851660009081526004909152604080822090519293509091611327908790611856565b908152602001604051809103902054905061134b82602001518360400151836113af565b925050505b92915050565b6002600154036113a85760405162461bcd60e51b815260206004820152601f60248201527f5265656e7472616e637947756172643a207265656e7472616e742063616c6c0060448201526064016103eb565b6002600155565b6000816000036113c05750826113fb565b8360005b838110156113f7576103e86113d986846117fd565b6113e39190611a18565b9150806113ef81611827565b9150506113c4565b5090505b9392505050565b6000546001600160a01b03163314610ebe5760405162461bcd60e51b815260206004820181905260248201527f4f776e61626c653a2063616c6c6572206973206e6f7420746865206f776e657260448201526064016103eb565b600080546001600160a01b038381166001600160a01b0319831681178455604051919092169283917f8be0079c531659141344cd1fd0a4f28419497f9722a3daafe3b4186f6b6457e09190a35050565b600080604083850312156114bf57600080fd5b50508035926020909101359150565b634e487b7160e01b600052604160045260246000fd5b600082601f8301126114f557600080fd5b813567ffffffffffffffff80821115611510576115106114ce565b604051601f8301601f19908116603f01168101908282118183101715611538576115386114ce565b8160405283815286602085880101111561155157600080fd5b836020870160208301376000602085830101528094505050505092915050565b60006020828403121561158357600080fd5b813567ffffffffffffffff81111561159a57600080fd5b6115a6848285016114e4565b949350505050565b600080600080600080600060e0888a0312156115c957600080fd5b873567ffffffffffffffff808211156115e157600080fd5b6115ed8b838c016114e4565b985060208a013591508082111561160357600080fd5b61160f8b838c016114e4565b975060408a0135965060608a0135955060808a0135945060a08a0135935060c08a013591508082111561164157600080fd5b5061164e8a828b016114e4565b91505092959891949750929550565b60005b83811015611678578181015183820152602001611660565b50506000910152565b6000815180845261169981602086016020860161165d565b601f01601f19169290920160200192915050565b60e0815260006116c060e083018a611681565b88602084015287604084015286606084015285608084015282810360a08401526116ea8186611681565b91505082151560c083015298975050505050505050565b80356001600160a01b038116811461171857600080fd5b919050565b6000806040838503121561173057600080fd5b61173983611701565b9150602083013567ffffffffffffffff81111561175557600080fd5b611761858286016114e4565b9150509250929050565b60006020828403121561177d57600080fd5b6113fb82611701565b6000806040838503121561179957600080fd5b823567ffffffffffffffff8111156117b057600080fd5b6117bc858286016114e4565b9250506117cb60208401611701565b90509250929050565b634e487b7160e01b600052601160045260246000fd5b81810381811115611350576113506117d4565b8082028115828204841417611350576113506117d4565b80820180821115611350576113506117d4565b600060018201611839576118396117d4565b5060010190565b634e487b7160e01b600052603260045260246000fd5b6000825161186881846020870161165d565b9190910192915050565b600181811c9082168061188657607f821691505b6020821081036118a657634e487b7160e01b600052602260045260246000fd5b50919050565b6000602082840312156118be57600080fd5b5051919050565b60a0815260006118d860a0830188611681565b86602084015285604084015282810360608401526118f68186611681565b9150508260808301529695505050505050565b601f82111561195357600081815260208120601f850160051c810160208610156119305750805b601f850160051c820191505b8181101561194f5782815560010161193c565b5050505b505050565b815167ffffffffffffffff811115611972576119726114ce565b611986816119808454611872565b84611909565b602080601f8311600181146119bb57600084156119a35750858301515b600019600386901b1c1916600185901b17855561194f565b600085815260208120601f198616915b828110156119ea578886015182559484019460019091019084016119cb565b5085821015611a085787850151600019600388901b60f8161c191681555b5050505050600190811b01905550565b600082611a3557634e487b7160e01b600052601260045260246000fd5b50049056fea2646970667358221220695e9c176b4c68b0d787d790a251b6d3e38c8f4f69d47de269d30575411493c864736f6c63430008130033",
  "linkReferences": {},
  "deployedLinkReferences": {}
}