{
  "_format": "hh-sol-artifact-1",
  "contractName": "GameStateManager",
  "sourceName": "contracts/GameStateManager.sol",
  "abi": [
    {
      "inputs": [
        {
          "internalType": "address payable",
          "name": "_creditsContract",
          "type": "address"
        }
      ],
      "stateMutability": "nonpayable",
      "type": "constructor"
    },
    {
      "anonymous": false,
      "inputs": [
        {
          "indexed": true,
          "internalType": "address",
          "name": "player",
          "type": "address"
        },
        {
          "indexed": false,
          "internalType": "uint256",
          "name": "stardust",
          "type": "uint256"
        },
        {
          "indexed": false,
          "internalType": "uint256",
          "name": "stardustPerSecond",
          "type": "uint256"
        },
        {
          "indexed": false,
          "internalType": "uint256",
          "name": "timestamp",
          "type": "uint256"
        }
      ],
      "name": "GameStateSaved",
      "type": "event"
    },
    {
      "anonymous": false,
      "inputs": [
        {
          "indexed": true,
          "internalType": "address",
          "name": "previousOwner",
          "type": "address"
        },
        {
          "indexed": true,
          "internalType": "address",
          "name": "newOwner",
          "type": "address"
        }
      ],
      "name": "OwnershipTransferred",
      "type": "event"
    },
    {
      "anonymous": false,
      "inputs": [
        {
          "indexed": true,
          "internalType": "address",
          "name": "player",
          "type": "address"
        },
        {
          "indexed": false,
          "internalType": "uint256",
          "name": "timestamp",
          "type": "uint256"
        }
      ],
      "name": "PlayerRegistered",
      "type": "event"
    },
    {
      "anonymous": false,
      "inputs": [
        {
          "indexed": true,
          "internalType": "address",
          "name": "player",
          "type": "address"
        },
        {
          "indexed": false,
          "internalType": "uint256",
          "name": "level",
          "type": "uint256"
        },
        {
          "indexed": false,
          "internalType": "uint256",
          "name": "timestamp",
          "type": "uint256"
        }
      ],
      "name": "PrestigeActivated",
      "type": "event"
    },
    {
      "anonymous": false,
      "inputs": [
        {
          "indexed": true,
          "internalType": "address",
          "name": "player",
          "type": "address"
        },
        {
          "indexed": false,
          "internalType": "string",
          "name": "upgradeId",
          "type": "string"
        },
        {
          "indexed": false,
          "internalType": "uint256",
          "name": "level",
          "type": "uint256"
        },
        {
          "indexed": false,
          "internalType": "uint256",
          "name": "cost",
          "type": "uint256"
        },
        {
          "indexed": false,
          "internalType": "string",
          "name": "costType",
          "type": "string"
        },
        {
          "indexed": false,
          "internalType": "uint256",
          "name": "timestamp",
          "type": "uint256"
        }
      ],
      "name": "UpgradePurchased",
      "type": "event"
    },
    {
      "inputs": [],
      "name": "activatePrestige",
      "outputs": [],
      "stateMutability": "nonpayable",
      "type": "function"
    },
    {
      "inputs": [
        {
          "internalType": "string",
          "name": "upgradeId",
          "type": "string"
        },
        {
          "internalType": "string",
          "name": "name",
          "type": "string"
        },
        {
          "internalType": "uint256",
          "name": "baseCost",
          "type": "uint256"
        },
        {
          "internalType": "uint256",
          "name": "costMultiplier",
          "type": "uint256"
        },
        {
          "internalType": "uint256",
          "name": "stardustPerClick",
          "type": "uint256"
        },
        {
          "internalType": "uint256",
          "name": "stardustPerSecond",
          "type": "uint256"
        },
        {
          "internalType": "string",
          "name": "costType",
          "type": "string"
        }
      ],
      "name": "addUpgrade",
      "outputs": [],
      "stateMutability": "nonpayable",
      "type": "function"
    },
    {
      "inputs": [],
      "name": "creditsContract",
      "outputs": [
        {
          "internalType": "contract StarMinerCredits",
          "name": "",
          "type": "address"
        }
      ],
      "stateMutability": "view",
      "type": "function"
    },
    {
      "inputs": [
        {
          "internalType": "address",
          "name": "player",
          "type": "address"
        }
      ],
      "name": "getPlayerState",
      "outputs": [
        {
          "components": [
            {
              "internalType": "uint256",
              "name": "stardust",
              "type": "uint256"
            },
            {
              "internalType": "uint256",
              "name": "stardustPerClick",
              "type": "uint256"
            },
            {
              "internalType": "uint256",
              "name": "stardustPerSecond",
              "type": "uint256"
            },
            {
              "internalType": "uint256",
              "name": "totalClicks",
              "type": "uint256"
            },
            {
              "internalType": "uint256",
              "name": "lastUpdateTime",
              "type": "uint256"
            },
            {
              "internalType": "uint256",
              "name": "prestigeLevel",
              "type": "uint256"
            },
            {
              "internalType": "bool",
              "name": "isActive",
              "type": "bool"
            }
          ],
          "internalType": "struct GameStateManager.PlayerState",
          "name": "state",
          "type": "tuple"
        },
        {
          "internalType": "uint256",
          "name": "idleRewards",
          "type": "uint256"
        },
        {
          "internalType": "string[]",
          "name": "achievements",
          "type": "string[]"
        }
      ],
      "stateMutability": "view",
      "type": "function"
    },
    {
      "inputs": [
        {
          "internalType": "address",
          "name": "player",
          "type": "address"
        }
      ],
      "name": "getPlayerStats",
      "outputs": [
        {
          "internalType": "uint256",
          "name": "totalStardustEarnedAmount",
          "type": "uint256"
        },
        {
          "internalType": "uint256",
          "name": "totalCreditsSpentAmount",
          "type": "uint256"
        },
        {
          "internalType": "uint256",
          "name": "totalClicksAmount",
          "type": "uint256"
        },
        {
          "internalType": "uint256",
          "name": "totalPlayTimeAmount",
          "type": "uint256"
        },
        {
          "internalType": "uint256",
          "name": "highestStardustPerSecondAmount",
          "type": "uint256"
        },
        {
          "internalType": "uint256",
          "name": "prestigeCountAmount",
          "type": "uint256"
        },
        {
          "internalType": "uint256",
          "name": "achievementsUnlocked",
          "type": "uint256"
        }
      ],
      "stateMutability": "view",
      "type": "function"
    },
    {
      "inputs": [
        {
          "internalType": "address",
          "name": "player",
          "type": "address"
        }
      ],
      "name": "getPlayerUpgrades",
      "outputs": [
        {
          "internalType": "string[]",
          "name": "upgradeIds",
          "type": "string[]"
        },
        {
          "internalType": "uint256[]",
          "name": "levels",
          "type": "uint256[]"
        }
      ],
      "stateMutability": "view",
      "type": "function"
    },
    {
      "inputs": [
        {
          "internalType": "string",
          "name": "upgradeId",
          "type": "string"
        },
        {
          "internalType": "address",
          "name": "player",
          "type": "address"
        }
      ],
      "name": "getUpgradeCost",
      "outputs": [
        {
          "internalType": "uint256",
          "name": "",
          "type": "uint256"
        }
      ],
      "stateMutability": "view",
      "type": "function"
    },
    {
      "inputs": [
        {
          "internalType": "address",
          "name": "",
          "type": "address"
        }
      ],
      "name": "highestStardustPerSecond",
      "outputs": [
        {
          "internalType": "uint256",
          "name": "",
          "type": "uint256"
        }
      ],
      "stateMutability": "view",
      "type": "function"
    },
    {
      "inputs": [],
      "name": "owner",
      "outputs": [
        {
          "internalType": "address",
          "name": "",
          "type": "address"
        }
      ],
      "stateMutability": "view",
      "type": "function"
    },
    {
      "inputs": [
        {
          "internalType": "address",
          "name": "",
          "type": "address"
        }
      ],
      "name": "playerAchievementCount",
      "outputs": [
        {
          "internalType": "uint256",
          "name": "",
          "type": "uint256"
        }
      ],
      "stateMutability": "view",
      "type": "function"
    },
    {
      "inputs": [
        {
          "internalType": "address",
          "name": "",
          "type": "address"
        },
        {
          "internalType": "uint256",
          "name": "",
          "type": "uint256"
        }
      ],
      "name": "playerAchievements",
      "outputs": [
        {
          "internalType": "string",
          "name": "",
          "type": "string"
        }
      ],
      "stateMutability": "view",
      "type": "function"
    },
    {
      "inputs": [
        {
          "internalType": "address",
          "name": "",
          "type": "address"
        }
      ],
      "name": "playerStates",
      "outputs": [
        {
          "internalType": "uint256",
          "name": "stardust",
          "type": "uint256"
        },
        {
          "internalType": "uint256",
          "name": "stardustPerClick",
          "type": "uint256"
        },
        {
          "internalType": "uint256",
          "name": "stardustPerSecond",
          "type": "uint256"
        },
        {
          "internalType": "uint256",
          "name": "totalClicks",
          "type": "uint256"
        },
        {
          "internalType": "uint256",
          "name": "lastUpdateTime",
          "type": "uint256"
        },
        {
          "internalType": "uint256",
          "name": "prestigeLevel",
          "type": "uint256"
        },
        {
          "internalType": "bool",
          "name": "isActive",
          "type": "bool"
        }
      ],
      "stateMutability": "view",
      "type": "function"
    },
    {
      "inputs": [
        {
          "internalType": "address",
          "name": "",
          "type": "address"
        },
        {
          "internalType": "string",
          "name": "",
          "type": "string"
        }
      ],
      "name": "playerUpgrades",
      "outputs": [
        {
          "internalType": "uint256",
          "name": "",
          "type": "uint256"
        }
      ],
      "stateMutability": "view",
      "type": "function"
    },
    {
      "inputs": [
        {
          "internalType": "address",
          "name": "",
          "type": "address"
        }
      ],
      "name": "prestigeCount",
      "outputs": [
        {
          "internalType": "uint256",
          "name": "",
          "type": "uint256"
        }
      ],
      "stateMutability": "view",
      "type": "function"
    },
    {
      "inputs": [
        {
          "internalType": "string",
          "name": "upgradeId",
          "type": "string"
        }
      ],
      "name": "purchaseUpgrade",
      "outputs": [],
      "stateMutability": "nonpayable",
      "type": "function"
    },
    {
      "inputs": [],
      "name": "registerPlayer",
      "outputs": [],
      "stateMutability": "nonpayable",
      "type": "function"
    },
    {
      "inputs": [],
      "name": "renounceOwnership",
      "outputs": [],
      "stateMutability": "nonpayable",
      "type": "function"
    },
    {
      "inputs": [],
      "name": "resetPlayerState",
      "outputs": [],
      "stateMutability": "nonpayable",
      "type": "function"
    },
    {
      "inputs": [
        {
          "internalType": "uint256",
          "name": "stardust",
          "type": "uint256"
        },
        {
          "internalType": "uint256",
          "name": "stardustPerClick",
          "type": "uint256"
        },
        {
          "internalType": "uint256",
          "name": "stardustPerSecond",
          "type": "uint256"
        },
        {
          "internalType": "uint256",
          "name": "totalClicks",
          "type": "uint256"
        },
        {
          "internalType": "string[]",
          "name": "upgradeIds",
          "type": "string[]"
        },
        {
          "internalType": "uint256[]",
          "name": "upgradeLevels",
          "type": "uint256[]"
        },
        {
          "internalType": "uint256",
          "name": "prestigeLevel",
          "type": "uint256"
        },
        {
          "internalType": "string[]",
          "name": "achievements",
          "type": "string[]"
        }
      ],
      "name": "saveCompleteGameState",
      "outputs": [],
      "stateMutability": "nonpayable",
      "type": "function"
    },
    {
      "inputs": [
        {
          "internalType": "uint256",
          "name": "stardust",
          "type": "uint256"
        },
        {
          "internalType": "uint256",
          "name": "stardustPerClick",
          "type": "uint256"
        },
        {
          "internalType": "uint256",
          "name": "stardustPerSecond",
          "type": "uint256"
        },
        {
          "internalType": "uint256",
          "name": "totalClicks",
          "type": "uint256"
        },
        {
          "internalType": "string[]",
          "name": "achievements",
          "type": "string[]"
        }
      ],
      "name": "saveGameState",
      "outputs": [],
      "stateMutability": "nonpayable",
      "type": "function"
    },
    {
      "inputs": [
        {
          "internalType": "string",
          "name": "upgradeId",
          "type": "string"
        }
      ],
      "name": "toggleUpgrade",
      "outputs": [],
      "stateMutability": "nonpayable",
      "type": "function"
    },
    {
      "inputs": [
        {
          "internalType": "address",
          "name": "",
          "type": "address"
        }
      ],
      "name": "totalCreditsSpent",
      "outputs": [
        {
          "internalType": "uint256",
          "name": "",
          "type": "uint256"
        }
      ],
      "stateMutability": "view",
      "type": "function"
    },
    {
      "inputs": [
        {
          "internalType": "address",
          "name": "",
          "type": "address"
        }
      ],
      "name": "totalPlayTime",
      "outputs": [
        {
          "internalType": "uint256",
          "name": "",
          "type": "uint256"
        }
      ],
      "stateMutability": "view",
      "type": "function"
    },
    {
      "inputs": [],
      "name": "totalPlayers",
      "outputs": [
        {
          "internalType": "uint256",
          "name": "",
          "type": "uint256"
        }
      ],
      "stateMutability": "view",
      "type": "function"
    },
    {
      "inputs": [
        {
          "internalType": "address",
          "name": "",
          "type": "address"
        }
      ],
      "name": "totalStardustEarned",
      "outputs": [
        {
          "internalType": "uint256",
          "name": "",
          "type": "uint256"
        }
      ],
      "stateMutability": "view",
      "type": "function"
    },
    {
      "inputs": [],
      "name": "totalStardustGenerated",
      "outputs": [
        {
          "internalType": "uint256",
          "name": "",
          "type": "uint256"
        }
      ],
      "stateMutability": "view",
      "type": "function"
    },
    {
      "inputs": [
        {
          "internalType": "address",
          "name": "newOwner",
          "type": "address"
        }
      ],
      "name": "transferOwnership",
      "outputs": [],
      "stateMutability": "nonpayable",
      "type": "function"
    },
    {
      "inputs": [
        {
          "internalType": "uint256",
          "name": "sessionTime",
          "type": "uint256"
        }
      ],
      "name": "updatePlayTime",
      "outputs": [],
      "stateMutability": "nonpayable",
      "type": "function"
    },
    {
      "inputs": [
        {
          "internalType": "string",
          "name": "",
          "type": "string"
        }
      ],
      "name": "upgradeConfigs",
      "outputs": [
        {
          "internalType": "string",
          "name": "name",
          "type": "string"
        },
        {
          "internalType": "uint256",
          "name": "baseCost",
          "type": "uint256"
        },
        {
          "internalType": "uint256",
          "name": "costMultiplier",
          "type": "uint256"
        },
        {
          "internalType": "uint256",
          "name": "stardustPerClick",
          "type": "uint256"
        },
        {
          "internalType": "uint256",
          "name": "stardustPerSecond",
          "type": "uint256"
        },
        {
          "internalType": "string",
          "name": "costType",
          "type": "string"
        },
        {
          "internalType": "bool",
          "name": "isActive",
          "type": "bool"
        }
      ],
      "stateMutability": "view",
      "type": "function"
    }
  ],
  "bytecode": "0x60806040523480156200001157600080fd5b50604051620037f6380380620037f6833981016040819052620000349162000a32565b6200003f336200006f565b60018055600280546001600160a01b0319166001600160a01b03831617905562000068620000bf565b5062000bd5565b600080546001600160a01b038381166001600160a01b0319831681178455604051919092169283917f8be0079c531659141344cd1fd0a4f28419497f9722a3daafe3b4186f6b6457e09190a35050565b6040518060e001604052806040518060400160405280600981526020016854656c6573636f706560b81b8152508152602001600a815260200161047e81526020016001815260200160008152602001604051806040016040528060088152602001671cdd185c991d5cdd60c21b81525081526020016001151581525060056040516200015a906874656c6573636f706560b81b815260090190565b9081526040519081900360200190208151819062000179908262000b09565b506020820151600182015560408201516002820155606082015160038201556080820151600482015560a08201516005820190620001b8908262000b09565b5060c091820151600691909101805460ff19169115159190911790556040805161012081018252600960e0820181815268536174656c6c69746560b81b6101008401528252606460208084019190915261047e838501526005606084018190526001608085018190528551808701875260088152671cdd185c991d5cdd60c21b9381019390935260a085019290925294830152915168736174656c6c69746560b81b815290929101908152604051908190036020019020815181906200027f908262000b09565b506020820151600182015560408201516002820155606082015160038201556080820151600482015560a08201516005820190620002be908262000b09565b5060c091820151600691909101805460ff19169115159190911790556040805161012081018252600b60e082018181526a4f627365727661746f727960a81b61010084015282526103e860208084019190915261047e83850152600a60608401526005608084018190528451808601865260088152671cdd185c991d5cdd60c21b9281019290925260a084019190915260019483019490945291516a6f627365727661746f727960a81b815290929101908152604051908190036020019020815181906200038d908262000b09565b506020820151600182015560408201516002820155606082015160038201556080820151600482015560a08201516005820190620003cc908262000b09565b5060c091820151600691909101805460ff19169115159190911790556040805161012081018252600860e0820181815267053746172736869760c41b6101008401528252600a6020808401919091526104b08385015260326060840152601960808401528351808501855260078152666372656469747360c81b9181019190915260a0830152600193820193909352905167073746172736869760c41b81529091600591019081526040519081900360200190208151819062000490908262000b09565b506020820151600182015560408201516002820155606082015160038201556080820151600482015560a08201516005820190620004cf908262000b09565b5060c091820151600691909101805460ff19169115159190911790556040805161012081018252600d60e082019081526c29b830b1b29029ba30ba34b7b760991b6101008301528152603260208083018290526104b0838501526064606084015260808301919091528251808401845260078152666372656469747360c81b9181019190915260a0820152600192810192909252516b39b830b1b2b9ba30ba34b7b760a11b8152600590600c01908152604051908190036020019020815181906200059b908262000b09565b506020820151600182015560408201516002820155606082015160038201556080820151600482015560a08201516005820190620005da908262000b09565b5060c091820151600691909101805460ff19169115159190911790556040805161012081018252601260e08201908152712bb7b936b437b6329023b2b732b930ba37b960711b610100830152815260c86020808301919091526104e2828401526101f4606083015260fa60808301528251808401845260078152666372656469747360c81b9181019190915260a08201526001928101929092525167776f726d686f6c6560c01b815260059060080190815260405190819003602001902081518190620006a8908262000b09565b506020820151600182015560408201516002820155606082015160038201556080820151600482015560a08201516005820190620006e7908262000b09565b5060c091820151600691909101805460ff19169115159190911790556040805161012081018252600a60e0820190815269426c61636b20486f6c6560b01b61010083015281526101f460208083018290526104e2838501526103e8606084015260808301919091528251808401845260078152666372656469747360c81b9181019190915260a08201526001928101929092525168626c61636b686f6c6560b81b815260059060090190815260405190819003602001902081518190620007af908262000b09565b506020820151600182015560408201516002820155606082015160038201556080820151600482015560a08201516005820190620007ee908262000b09565b5060c091820151600691909101805460ff19169115159190911790556040805161012081018252601060e082019081526f47616c6163746963204e6574776f726b60801b61010083015281526103e86020808301919091526105148284015261138860608301526109c460808301528251808401845260078152666372656469747360c81b9181019190915260a0820152600192810192909252516e67616c61637469636e6574776f726b60881b8152600590600f0190815260405190819003602001902081518190620008c3908262000b09565b506020820151600182015560408201516002820155606082015160038201556080820151600482015560a0820151600582019062000902908262000b09565b5060c091820151600691909101805460ff19169115159190911790556040805161012081018252600f60e082019081526e556e69766572736520456e67696e6560881b61010083015281526107d06020808301919091526105dc82840152612710606083015261138860808301528251808401845260078152666372656469747360c81b9181019190915260a0820152600192810192909252516d756e697665727365656e67696e6560901b8152600590600e0190815260405190819003602001902081518190620009d5908262000b09565b506020820151600182015560408201516002820155606082015160038201556080820151600482015560a0820151600582019062000a14908262000b09565b5060c091909101516006909101805460ff1916911515919091179055565b60006020828403121562000a4557600080fd5b81516001600160a01b038116811462000a5d57600080fd5b9392505050565b634e487b7160e01b600052604160045260246000fd5b600181811c9082168062000a8f57607f821691505b60208210810362000ab057634e487b7160e01b600052602260045260246000fd5b50919050565b601f82111562000b0457600081815260208120601f850160051c8101602086101562000adf5750805b601f850160051c820191505b8181101562000b005782815560010162000aeb565b5050505b505050565b81516001600160401b0381111562000b255762000b2562000a64565b62000b3d8162000b36845462000a7a565b8462000ab6565b602080601f83116001811462000b75576000841562000b5c5750858301515b600019600386901b1c1916600185901b17855562000b00565b600085815260208120601f198616915b8281101562000ba65788860151825594840194600190910190840162000b85565b508582101562000bc55787850151600019600388901b60f8161c191681555b5050505050600190811b01905550565b612c118062000be56000396000f3fe608060405234801561001057600080fd5b50600436106101cf5760003560e01c80638da5cb5b11610104578063dc0e5370116100a2578063f2fde38b11610071578063f2fde38b1461054a578063f398467b1461055d578063f60cdcf61461057d578063f737e8181461058657600080fd5b8063dc0e5370146104d7578063df999dfd146104f7578063e3dbf6a614610517578063f0a22a411461053757600080fd5b8063aad135d4116100de578063aad135d414610406578063c01ca43f1461040f578063d15e55b714610431578063d1b2df4b146104b757600080fd5b80638da5cb5b146103b15780639d84130c146103c2578063a0bbc59e146103ca57600080fd5b80634fd66eae11610171578063662433391161014b578063662433391461034f5780636cdfaacb14610375578063715018a61461038857806371923eda1461039057600080fd5b80634fd66eae146102885780635c07a4b014610327578063628214511461032f57600080fd5b806335c92d79116101ad57806335c92d7914610221578063473ec38d1461024f57806348113d40146102625780634a4a541e1461027557600080fd5b8063019f5e8a146101d45780630642bc41146101e957806326f3fde014610219575b600080fd5b6101e76101e2366004612295565b610599565b005b6002546101fc906001600160a01b031681565b6040516001600160a01b0390911681526020015b60405180910390f35b6101e76105fb565b61024161022f3660046122ca565b600c6020526000908152604090205481565b604051908152602001610210565b6101e761025d36600461239c565b6108b0565b6101e761027036600461239c565b610e28565b6101e76102833660046123d9565b610e8c565b6102f26102963660046122ca565b6001600160a01b0316600090815260086020908152604080832054600983528184205460038085528386200154600a855283862054600b865284872054600c875285882054600790975294909620549296919590949093929091565b604080519788526020880196909652948601939093526060850191909152608084015260a083015260c082015260e001610210565b6101e7610f59565b61024161033d3660046122ca565b600a6020526000908152604090205481565b61036261035d36600461239c565b611045565b60405161021097969594939291906124d8565b6101e76103833660046125e0565b61119d565b6101e7611372565b6103a361039e3660046122ca565b611384565b604051610210929190612699565b6000546001600160a01b03166101fc565b6101e76115eb565b6102416103d83660046126f0565b6004602090815260009283526040909220815180830184018051928152908401929093019190912091525481565b610241600e5481565b61042261041d3660046122ca565b61187b565b6040516102109392919061273e565b61048061043f3660046122ca565b600360208190526000918252604090912080546001820154600283015493830154600484015460058501546006909501549395929492939192909160ff1687565b604080519788526020880196909652948601939093526060850191909152608084015260a0830152151560c082015260e001610210565b6102416104c53660046122ca565b60076020526000908152604090205481565b6102416104e53660046122ca565b600b6020526000908152604090205481565b61050a6105053660046127a8565b611970565b60405161021091906127d2565b6102416105253660046122ca565b60086020526000908152604090205481565b6101e7610545366004612840565b611a15565b6101e76105583660046122ca565b611cda565b61024161056b3660046122ca565b60096020526000908152604090205481565b610241600d5481565b6102416105943660046128f9565b611d50565b3360009081526003602052604090206006015460ff166105d45760405162461bcd60e51b81526004016105cb90612947565b60405180910390fd5b336000908152600a6020526040812080548392906105f390849061298c565b909155505050565b33600090815260036020526040902054620f4240111561065d5760405162461bcd60e51b815260206004820152601d60248201527f4e65656420314d20737461726475737420666f7220707265737469676500000060448201526064016105cb565b336000908152600360205260408120600581018054919261067d8361299f565b909155505060008082556001808301556005820154600283015560038201819055338152600c602052604081208054916106b68361299f565b90915550506040805161016081018252600961012082018181526874656c6573636f706560b81b61014084015282528251808401845281815268736174656c6c69746560b81b6020828101919091528084019190915283518085018552600b81526a6f627365727661746f727960a81b818301528385015283518085018552600880825267073746172736869760c41b82840152606085019190915284518086018652600c81526b39b830b1b2b9ba30ba34b7b760a11b8184015260808501528451808601865290815267776f726d686f6c6560c01b8183015260a08401528351808501855291825268626c61636b686f6c6560b81b8282015260c083019190915282518084018452600f81526e67616c61637469636e6574776f726b60881b8183015260e08301528251808401909352600e83526d756e697665727365656e67696e6560901b9083015261010081019190915260005b600981101561086b57336000908152600460205260408120838360098110610837576108376129b8565b602002015160405161084991906129ce565b90815260405190819003602001902055806108638161299f565b91505061080d565b5060058201546040805191825242602083015233917fa1076bf9c07228ae15797fa473a75367dc398ad6427938bdf107a8df563e6a8091015b60405180910390a25050565b6108b8611f33565b3360009081526003602052604090206006015460ff166108ea5760405162461bcd60e51b81526004016105cb90612947565b6005816040516108fa91906129ce565b9081526040519081900360200190206006015460ff166109545760405162461bcd60e51b815260206004820152601560248201527455706772616465206e6f7420617661696c61626c6560581b60448201526064016105cb565b600060058260405161096691906129ce565b90815260200160405180910390206040518060e001604052908160008201805461098f906129ea565b80601f01602080910402602001604051908101604052809291908181526020018280546109bb906129ea565b8015610a085780601f106109dd57610100808354040283529160200191610a08565b820191906000526020600020905b8154815290600101906020018083116109eb57829003601f168201915b5050505050815260200160018201548152602001600282015481526020016003820154815260200160048201548152602001600582018054610a49906129ea565b80601f0160208091040260200160405190810160405280929190818152602001828054610a75906129ea565b8015610ac25780601f10610a9757610100808354040283529160200191610ac2565b820191906000526020600020905b815481529060010190602001808311610aa557829003601f168201915b50505091835250506006919091015460ff1615156020918201523360009081526004909152604080822090519293509091610afe9085906129ce565b90815260200160405180910390205490506000610b248360200151846040015184611f8c565b6040805180820190915260088152671cdd185c991d5cdd60c21b60209182015260a085015180519101209091507f81e3a722c3e4e8f9d9ced5c3a0b6f6a1a13d9410313441a99c6901226d8b071201610bf85733600090815260036020526040902054811115610bce5760405162461bcd60e51b8152602060048201526015602482015274125b9cdd59999a58da595b9d081cdd185c991d5cdd605a1b60448201526064016105cb565b3360009081526003602052604081208054839290610bed908490612a24565b90915550610d339050565b6002546040516370a0823160e01b815233600482015282916001600160a01b0316906370a0823190602401602060405180830381865afa158015610c40573d6000803e3d6000fd5b505050506040513d601f19601f82011682018060405250810190610c649190612a37565b1015610ca95760405162461bcd60e51b8152602060048201526014602482015273496e73756666696369656e74206372656469747360601b60448201526064016105cb565b6002546040516310c4b38760e11b8152336004820152602481018390526001600160a01b0390911690632189670e90604401600060405180830381600087803b158015610cf557600080fd5b505af1158015610d09573d6000803e3d6000fd5b50503360009081526009602052604081208054859450909250610d2d90849061298c565b90915550505b33600090815260046020526040908190209051610d519086906129ce565b9081526040519081900360200190208054906000610d6e8361299f565b909155505060608301513360009081526003602052604081206001018054909190610d9a90849061298c565b909155505060808301513360009081526003602052604081206002018054909190610dc690849061298c565b909155503390507f1fd4664d767f39fd6223439ed2145312055fbe43d159a8cec2d0d8c975c9c63785610dfa85600161298c565b60a0870151604051610e1193929187914290612a50565b60405180910390a2505050610e2560018055565b50565b610e30611fdf565b600581604051610e4091906129ce565b9081526040519081900360200181206006015460ff161590600590610e669084906129ce565b908152604051908190036020019020600601805491151560ff1990921691909117905550565b610e94611fdf565b6040518060e0016040528087815260200186815260200185815260200184815260200183815260200182815260200160011515815250600588604051610eda91906129ce565b90815260405190819003602001902081518190610ef79082612ae2565b506020820151600182015560408201516002820155606082015160038201556080820151600482015560a08201516005820190610f349082612ae2565b5060c091909101516006909101805460ff191691151591909117905550505050505050565b3360009081526003602052604090206006015460ff16611043576040805160e08101825260008082526001602080840182815284860184815260608601858152426080880190815260a0880187815260c08901878152338952600396879052998820985189559351958801959095559051600287015551918501919091559051600484015551600583015591516006909101805460ff1916911515919091179055600d8054916110088361299f565b909155505060405142815233907f324cb0062138d65997c86cd3012489ceb351d602f2f55c7408306e8040c79f3f9060200160405180910390a25b565b805160208183018101805160058252928201919093012091528054819061106b906129ea565b80601f0160208091040260200160405190810160405280929190818152602001828054611097906129ea565b80156110e45780601f106110b9576101008083540402835291602001916110e4565b820191906000526020600020905b8154815290600101906020018083116110c757829003601f168201915b505050505090806001015490806002015490806003015490806004015490806005018054611111906129ea565b80601f016020809104026020016040519081016040528092919081815260200182805461113d906129ea565b801561118a5780601f1061115f5761010080835404028352916020019161118a565b820191906000526020600020905b81548152906001019060200180831161116d57829003601f168201915b5050506006909301549192505060ff1687565b6111a5611f33565b3360009081526003602052604090206006015460ff166111d75760405162461bcd60e51b81526004016105cb90612947565b33600090815260036020526040812060048101549091906111f89042612a24565b9050600081836002015461120c9190612ba2565b9050611218818961298c565b835560018301879055600283018690556003830185905542600484015561123f3385612039565b336000908152600860205260408120805483929061125e90849061298c565b9250508190555080600e6000828254611277919061298c565b9091555050336000908152600b60205260409020548611156112a657336000908152600b602052604090208690555b82541561131557600254835460405163593ee7fd60e11b815233600482015260248101919091526001600160a01b039091169063b27dcffa90604401600060405180830381600087803b1580156112fc57600080fd5b505af1158015611310573d6000803e3d6000fd5b505050505b82546002840154604080519283526020830191909152429082015233907fde2575b1517540b677c794a3cde57fed7f46fe9beaca3bb86154c43ae41bc6a19060600160405180910390a250505061136b60018055565b5050505050565b61137a611fdf565b61104360006120eb565b6040805161016081018252600961012082018181526874656c6573636f706560b81b610140808501919091529083528351808501855282815268736174656c6c69746560b81b6020808301919091528085019190915284518086018652600b81526a6f627365727661746f727960a81b818301528486015284518086018652600880825267073746172736869760c41b8284015260608087019290925286518088018852600c81526b39b830b1b2b9ba30ba34b7b760a11b8185015260808701528651808801885290815267776f726d686f6c6560c01b8184015260a08601528551808701875284815268626c61636b686f6c6560b81b8184015260c086015285518087018752600f81526e67616c61637469636e6574776f726b60881b8184015260e086015285518087018752600e81526d756e697665727365656e67696e6560901b8184015261010086015285518481529283019095528493929082015b60608152602001906001900390816114e45750506040805160098082526101408201909252919450602082016101208036833701905050915060005b60098110156115e45781816009811061153b5761153b6129b8565b6020020151848281518110611552576115526129b8565b602002602001018190525060046000866001600160a01b03166001600160a01b03168152602001908152602001600020828260098110611594576115946129b8565b60200201516040516115a691906129ce565b9081526020016040518091039020548382815181106115c7576115c76129b8565b6020908102919091010152806115dc8161299f565b915050611520565b5050915091565b3360009081526003602052604090206006015460ff1661161d5760405162461bcd60e51b81526004016105cb90612947565b3360009081526003602081815260408084208481556001808201556002810185905592830184905560058301849055426004840155805161016081018252600961012082018181526874656c6573636f706560b81b61014084015282528251808401845281815268736174656c6c69746560b81b818601528285015282518084018452600b81526a6f627365727661746f727960a81b818601528284015282518084018452600880825267073746172736869760c41b82870152606084019190915283518085018552600c81526b39b830b1b2b9ba30ba34b7b760a11b8187015260808401528351808501855290815267776f726d686f6c6560c01b8186015260a08301528251808401845290815268626c61636b686f6c6560b81b8185015260c082015281518083018352600f81526e67616c61637469636e6574776f726b60881b8185015260e08201528151808301909252600e82526d756e697665727365656e67696e6560901b9282019290925261010082015290915b60098110156117f5573360009081526004602052604081208383600981106117c1576117c16129b8565b60200201516040516117d391906129ce565b90815260405190819003602001902055806117ed8161299f565b915050611797565b503360008181526007602090815260408083208390556008825280832083905560098252808320839055600a8252808320839055600b8252808320839055600c825280832083905580518381529182019290925242918101919091527fde2575b1517540b677c794a3cde57fed7f46fe9beaca3bb86154c43ae41bc6a1906060016108a4565b6118bd6040518060e001604052806000815260200160008152602001600081526020016000815260200160008152602001600081526020016000151581525090565b506001600160a01b0381166000908152600360208181526040808420815160e081018352815481526001820154938101939093526002810154918301919091529182015460608281019190915260048301546080830152600583015460a083015260069092015460ff1615801560c08301529092919061195f5760008360800151426119499190612a24565b905080846040015161195b9190612ba2565b9250505b6119688461213b565b929491935050565b600660209081526000928352604080842090915290825290208054611994906129ea565b80601f01602080910402602001604051908101604052809291908181526020018280546119c0906129ea565b8015611a0d5780601f106119e257610100808354040283529160200191611a0d565b820191906000526020600020905b8154815290600101906020018083116119f057829003601f168201915b505050505081565b611a1d611f33565b3360009081526003602052604090206006015460ff16611a4f5760405162461bcd60e51b81526004016105cb90612947565b8251845114611aa05760405162461bcd60e51b815260206004820152601960248201527f4d69736d6174636865642075706772616465206172726179730000000000000060448201526064016105cb565b3360009081526003602052604081206004810154909190611ac19042612a24565b90506000818360020154611ad59190612ba2565b9050611ae1818c61298c565b8355600183018a905560028301899055600383018890556005830185905542600484015560005b8751811015611b9957868181518110611b2357611b236129b8565b602002602001015160046000336001600160a01b03166001600160a01b03168152602001908152602001600020898381518110611b6257611b626129b8565b6020026020010151604051611b7791906129ce565b9081526040519081900360200190205580611b918161299f565b915050611b08565b50611ba43385612039565b3360009081526008602052604081208054839290611bc390849061298c565b9250508190555080600e6000828254611bdc919061298c565b9091555050336000908152600b6020526040902054891115611c0b57336000908152600b602052604090208990555b825415611c7a57600254835460405163593ee7fd60e11b815233600482015260248101919091526001600160a01b039091169063b27dcffa90604401600060405180830381600087803b158015611c6157600080fd5b505af1158015611c75573d6000803e3d6000fd5b505050505b82546002840154604080519283526020830191909152429082015233907fde2575b1517540b677c794a3cde57fed7f46fe9beaca3bb86154c43ae41bc6a19060600160405180910390a2505050611cd060018055565b5050505050505050565b611ce2611fdf565b6001600160a01b038116611d475760405162461bcd60e51b815260206004820152602660248201527f4f776e61626c653a206e6577206f776e657220697320746865207a65726f206160448201526564647265737360d01b60648201526084016105cb565b610e25816120eb565b600080600584604051611d6391906129ce565b90815260200160405180910390206040518060e0016040529081600082018054611d8c906129ea565b80601f0160208091040260200160405190810160405280929190818152602001828054611db8906129ea565b8015611e055780601f10611dda57610100808354040283529160200191611e05565b820191906000526020600020905b815481529060010190602001808311611de857829003601f168201915b5050505050815260200160018201548152602001600282015481526020016003820154815260200160048201548152602001600582018054611e46906129ea565b80601f0160208091040260200160405190810160405280929190818152602001828054611e72906129ea565b8015611ebf5780601f10611e9457610100808354040283529160200191611ebf565b820191906000526020600020905b815481529060010190602001808311611ea257829003601f168201915b50505091835250506006919091015460ff1615156020918201526001600160a01b03851660009081526004909152604080822090519293509091611f049087906129ce565b9081526020016040518091039020549050611f288260200151836040015183611f8c565b925050505b92915050565b600260015403611f855760405162461bcd60e51b815260206004820152601f60248201527f5265656e7472616e637947756172643a207265656e7472616e742063616c6c0060448201526064016105cb565b6002600155565b600081600003611f9d575082611fd8565b8360005b83811015611fd4576103e8611fb68684612ba2565b611fc09190612bb9565b915080611fcc8161299f565b915050611fa1565b5090505b9392505050565b6000546001600160a01b031633146110435760405162461bcd60e51b815260206004820181905260248201527f4f776e61626c653a2063616c6c6572206973206e6f7420746865206f776e657260448201526064016105cb565b6001600160a01b03821660009081526007602052604081208190555b81518110156120e657818181518110612070576120706129b8565b6020908102919091018101516001600160a01b038516600090815260068352604080822085835290935291909120906120a99082612ae2565b506001600160a01b03831660009081526007602052604081208054916120ce8361299f565b919050555080806120de9061299f565b915050612055565b505050565b600080546001600160a01b038381166001600160a01b0319831681178455604051919092169283917f8be0079c531659141344cd1fd0a4f28419497f9722a3daafe3b4186f6b6457e09190a35050565b6001600160a01b0381166000908152600760205260408120546060918167ffffffffffffffff811115612170576121706122e5565b6040519080825280602002602001820160405280156121a357816020015b606081526020019060019003908161218e5790505b50905060005b8281101561228d576001600160a01b0385166000908152600660209081526040808320848452909152902080546121df906129ea565b80601f016020809104026020016040519081016040528092919081815260200182805461220b906129ea565b80156122585780601f1061222d57610100808354040283529160200191612258565b820191906000526020600020905b81548152906001019060200180831161223b57829003601f168201915b505050505082828151811061226f5761226f6129b8565b602002602001018190525080806122859061299f565b9150506121a9565b509392505050565b6000602082840312156122a757600080fd5b5035919050565b80356001600160a01b03811681146122c557600080fd5b919050565b6000602082840312156122dc57600080fd5b611fd8826122ae565b634e487b7160e01b600052604160045260246000fd5b604051601f8201601f1916810167ffffffffffffffff81118282101715612324576123246122e5565b604052919050565b600082601f83011261233d57600080fd5b813567ffffffffffffffff811115612357576123576122e5565b61236a601f8201601f19166020016122fb565b81815284602083860101111561237f57600080fd5b816020850160208301376000918101602001919091529392505050565b6000602082840312156123ae57600080fd5b813567ffffffffffffffff8111156123c557600080fd5b6123d18482850161232c565b949350505050565b600080600080600080600060e0888a0312156123f457600080fd5b873567ffffffffffffffff8082111561240c57600080fd5b6124188b838c0161232c565b985060208a013591508082111561242e57600080fd5b61243a8b838c0161232c565b975060408a0135965060608a0135955060808a0135945060a08a0135935060c08a013591508082111561246c57600080fd5b506124798a828b0161232c565b91505092959891949750929550565b60005b838110156124a357818101518382015260200161248b565b50506000910152565b600081518084526124c4816020860160208601612488565b601f01601f19169290920160200192915050565b60e0815260006124eb60e083018a6124ac565b88602084015287604084015286606084015285608084015282810360a084015261251581866124ac565b91505082151560c083015298975050505050505050565b600067ffffffffffffffff821115612546576125466122e5565b5060051b60200190565b600082601f83011261256157600080fd5b813560206125766125718361252c565b6122fb565b82815260059290921b8401810191818101908684111561259557600080fd5b8286015b848110156125d557803567ffffffffffffffff8111156125b95760008081fd5b6125c78986838b010161232c565b845250918301918301612599565b509695505050505050565b600080600080600060a086880312156125f857600080fd5b85359450602086013593506040860135925060608601359150608086013567ffffffffffffffff81111561262b57600080fd5b61263788828901612550565b9150509295509295909350565b600081518084526020808501808196508360051b8101915082860160005b8581101561268c57828403895261267a8483516124ac565b98850198935090840190600101612662565b5091979650505050505050565b6040815260006126ac6040830185612644565b82810360208481019190915284518083528582019282019060005b818110156126e3578451835293830193918301916001016126c7565b5090979650505050505050565b6000806040838503121561270357600080fd5b61270c836122ae565b9150602083013567ffffffffffffffff81111561272857600080fd5b6127348582860161232c565b9150509250929050565b6000610120855183526020860151602084015260408601516040840152606086015160608401526080860151608084015260a086015160a084015260c0860151151560c08401528460e08401528061010084015261279e81840185612644565b9695505050505050565b600080604083850312156127bb57600080fd5b6127c4836122ae565b946020939093013593505050565b602081526000611fd860208301846124ac565b600082601f8301126127f657600080fd5b813560206128066125718361252c565b82815260059290921b8401810191818101908684111561282557600080fd5b8286015b848110156125d55780358352918301918301612829565b600080600080600080600080610100898b03121561285d57600080fd5b88359750602089013596506040890135955060608901359450608089013567ffffffffffffffff8082111561289157600080fd5b61289d8c838d01612550565b955060a08b01359150808211156128b357600080fd5b6128bf8c838d016127e5565b945060c08b0135935060e08b01359150808211156128dc57600080fd5b506128e98b828c01612550565b9150509295985092959890939650565b6000806040838503121561290c57600080fd5b823567ffffffffffffffff81111561292357600080fd5b61292f8582860161232c565b92505061293e602084016122ae565b90509250929050565b602080825260159082015274141b185e595c881b9bdd081c9959da5cdd195c9959605a1b604082015260600190565b634e487b7160e01b600052601160045260246000fd5b80820180821115611f2d57611f2d612976565b6000600182016129b1576129b1612976565b5060010190565b634e487b7160e01b600052603260045260246000fd5b600082516129e0818460208701612488565b9190910192915050565b600181811c908216806129fe57607f821691505b602082108103612a1e57634e487b7160e01b600052602260045260246000fd5b50919050565b81810381811115611f2d57611f2d612976565b600060208284031215612a4957600080fd5b5051919050565b60a081526000612a6360a08301886124ac565b8660208401528560408401528281036060840152612a8181866124ac565b9150508260808301529695505050505050565b601f8211156120e657600081815260208120601f850160051c81016020861015612abb5750805b601f850160051c820191505b81811015612ada57828155600101612ac7565b505050505050565b815167ffffffffffffffff811115612afc57612afc6122e5565b612b1081612b0a84546129ea565b84612a94565b602080601f831160018114612b455760008415612b2d5750858301515b600019600386901b1c1916600185901b178555612ada565b600085815260208120601f198616915b82811015612b7457888601518255948401946001909101908401612b55565b5085821015612b925787850151600019600388901b60f8161c191681555b5050505050600190811b01905550565b8082028115828204841417611f2d57611f2d612976565b600082612bd657634e487b7160e01b600052601260045260246000fd5b50049056fea2646970667358221220732095f6ebc39e181b83158266d58fbc90b51f23eea626bb8efd2d8d8a0b3bf164736f6c63430008130033",
  "linkReferences": {},
  "deployedLinkReferences": {}
}