{
  "_format": "hh-sol-artifact-1",
  "contractName": "P2ERewards",
  "sourceName": "contracts/P2ERewards.sol",
  "abi": [
    {
      "inputs": [
        {
          "internalType": "address payable",
          "name": "_creditsContract",
          "type": "address"
        }
      ],
      "stateMutability": "nonpayable",
      "type": "constructor"
    },
    {
      "anonymous": false,
      "inputs": [
        {
          "indexed": false,
          "internalType": "uint256",
          "name": "newLimit",
          "type": "uint256"
        },
        {
          "indexed": false,
          "internalType": "uint256",
          "name": "timestamp",
          "type": "uint256"
        }
      ],
      "name": "DailyLimitUpdated",
      "type": "event"
    },
    {
      "anonymous": false,
      "inputs": [
        {
          "indexed": true,
          "internalType": "address",
          "name": "previousOwner",
          "type": "address"
        },
        {
          "indexed": true,
          "internalType": "address",
          "name": "newOwner",
          "type": "address"
        }
      ],
      "name": "OwnershipTransferred",
      "type": "event"
    },
    {
      "anonymous": false,
      "inputs": [
        {
          "indexed": false,
          "internalType": "uint256",
          "name": "amount",
          "type": "uint256"
        },
        {
          "indexed": false,
          "internalType": "uint256",
          "name": "timestamp",
          "type": "uint256"
        }
      ],
      "name": "RewardPoolFunded",
      "type": "event"
    },
    {
      "anonymous": false,
      "inputs": [
        {
          "indexed": false,
          "internalType": "uint256",
          "name": "newRate",
          "type": "uint256"
        },
        {
          "indexed": false,
          "internalType": "uint256",
          "name": "timestamp",
          "type": "uint256"
        }
      ],
      "name": "RewardRateUpdated",
      "type": "event"
    },
    {
      "anonymous": false,
      "inputs": [
        {
          "indexed": true,
          "internalType": "address",
          "name": "player",
          "type": "address"
        },
        {
          "indexed": false,
          "internalType": "uint256",
          "name": "stardustAmount",
          "type": "uint256"
        },
        {
          "indexed": false,
          "internalType": "uint256",
          "name": "cfxAmount",
          "type": "uint256"
        },
        {
          "indexed": false,
          "internalType": "uint256",
          "name": "timestamp",
          "type": "uint256"
        }
      ],
      "name": "StardustExchanged",
      "type": "event"
    },
    {
      "inputs": [],
      "name": "creditsContract",
      "outputs": [
        {
          "internalType": "contract StarMinerCredits",
          "name": "",
          "type": "address"
        }
      ],
      "stateMutability": "view",
      "type": "function"
    },
    {
      "inputs": [],
      "name": "dailyRewardLimit",
      "outputs": [
        {
          "internalType": "uint256",
          "name": "",
          "type": "uint256"
        }
      ],
      "stateMutability": "view",
      "type": "function"
    },
    {
      "inputs": [
        {
          "internalType": "address",
          "name": "",
          "type": "address"
        }
      ],
      "name": "dailyRewardsClaimed",
      "outputs": [
        {
          "internalType": "uint256",
          "name": "",
          "type": "uint256"
        }
      ],
      "stateMutability": "view",
      "type": "function"
    },
    {
      "inputs": [],
      "name": "emergencyWithdraw",
      "outputs": [],
      "stateMutability": "nonpayable",
      "type": "function"
    },
    {
      "inputs": [
        {
          "internalType": "uint256",
          "name": "stardustAmount",
          "type": "uint256"
        }
      ],
      "name": "exchangeStardustForCFX",
      "outputs": [],
      "stateMutability": "nonpayable",
      "type": "function"
    },
    {
      "inputs": [],
      "name": "fundRewardPool",
      "outputs": [],
      "stateMutability": "payable",
      "type": "function"
    },
    {
      "inputs": [],
      "name": "getContractStats",
      "outputs": [
        {
          "internalType": "uint256",
          "name": "totalPool",
          "type": "uint256"
        },
        {
          "internalType": "uint256",
          "name": "totalDistributed",
          "type": "uint256"
        },
        {
          "internalType": "uint256",
          "name": "exchangeRate",
          "type": "uint256"
        },
        {
          "internalType": "uint256",
          "name": "dailyLimit",
          "type": "uint256"
        },
        {
          "internalType": "uint256",
          "name": "minStardust",
          "type": "uint256"
        }
      ],
      "stateMutability": "view",
      "type": "function"
    },
    {
      "inputs": [
        {
          "internalType": "address",
          "name": "player",
          "type": "address"
        }
      ],
      "name": "getExchangeInfo",
      "outputs": [
        {
          "internalType": "uint256",
          "name": "rate",
          "type": "uint256"
        },
        {
          "internalType": "uint256",
          "name": "dailyLimit",
          "type": "uint256"
        },
        {
          "internalType": "uint256",
          "name": "remainingDaily",
          "type": "uint256"
        },
        {
          "internalType": "uint256",
          "name": "poolBalance",
          "type": "uint256"
        },
        {
          "internalType": "uint256",
          "name": "playerStardust",
          "type": "uint256"
        }
      ],
      "stateMutability": "view",
      "type": "function"
    },
    {
      "inputs": [
        {
          "internalType": "address",
          "name": "player",
          "type": "address"
        }
      ],
      "name": "getMaxClaimable",
      "outputs": [
        {
          "internalType": "uint256",
          "name": "",
          "type": "uint256"
        }
      ],
      "stateMutability": "view",
      "type": "function"
    },
    {
      "inputs": [
        {
          "internalType": "address",
          "name": "player",
          "type": "address"
        }
      ],
      "name": "getPlayerRewardStats",
      "outputs": [
        {
          "internalType": "uint256",
          "name": "totalClaimed",
          "type": "uint256"
        },
        {
          "internalType": "uint256",
          "name": "dailyClaimed",
          "type": "uint256"
        },
        {
          "internalType": "uint256",
          "name": "lastClaim",
          "type": "uint256"
        },
        {
          "internalType": "uint256",
          "name": "availableStardust",
          "type": "uint256"
        }
      ],
      "stateMutability": "view",
      "type": "function"
    },
    {
      "inputs": [
        {
          "internalType": "address",
          "name": "player",
          "type": "address"
        }
      ],
      "name": "getTimeUntilReset",
      "outputs": [
        {
          "internalType": "uint256",
          "name": "",
          "type": "uint256"
        }
      ],
      "stateMutability": "view",
      "type": "function"
    },
    {
      "inputs": [
        {
          "internalType": "address",
          "name": "",
          "type": "address"
        }
      ],
      "name": "lastClaimDate",
      "outputs": [
        {
          "internalType": "uint256",
          "name": "",
          "type": "uint256"
        }
      ],
      "stateMutability": "view",
      "type": "function"
    },
    {
      "inputs": [],
      "name": "minimumStardust",
      "outputs": [
        {
          "internalType": "uint256",
          "name": "",
          "type": "uint256"
        }
      ],
      "stateMutability": "view",
      "type": "function"
    },
    {
      "inputs": [],
      "name": "owner",
      "outputs": [
        {
          "internalType": "address",
          "name": "",
          "type": "address"
        }
      ],
      "stateMutability": "view",
      "type": "function"
    },
    {
      "inputs": [],
      "name": "renounceOwnership",
      "outputs": [],
      "stateMutability": "nonpayable",
      "type": "function"
    },
    {
      "inputs": [],
      "name": "rewardPool",
      "outputs": [
        {
          "internalType": "uint256",
          "name": "",
          "type": "uint256"
        }
      ],
      "stateMutability": "view",
      "type": "function"
    },
    {
      "inputs": [],
      "name": "rewardPoolFeePercent",
      "outputs": [
        {
          "internalType": "uint256",
          "name": "",
          "type": "uint256"
        }
      ],
      "stateMutability": "view",
      "type": "function"
    },
    {
      "inputs": [
        {
          "internalType": "uint256",
          "name": "newLimit",
          "type": "uint256"
        }
      ],
      "name": "setDailyLimit",
      "outputs": [],
      "stateMutability": "nonpayable",
      "type": "function"
    },
    {
      "inputs": [
        {
          "internalType": "uint256",
          "name": "newRate",
          "type": "uint256"
        }
      ],
      "name": "setExchangeRate",
      "outputs": [],
      "stateMutability": "nonpayable",
      "type": "function"
    },
    {
      "inputs": [
        {
          "internalType": "uint256",
          "name": "newMinimum",
          "type": "uint256"
        }
      ],
      "name": "setMinimumStardust",
      "outputs": [],
      "stateMutability": "nonpayable",
      "type": "function"
    },
    {
      "inputs": [
        {
          "internalType": "uint256",
          "name": "newPercent",
          "type": "uint256"
        }
      ],
      "name": "setRewardPoolFeePercent",
      "outputs": [],
      "stateMutability": "nonpayable",
      "type": "function"
    },
    {
      "inputs": [],
      "name": "stardustToCFXRate",
      "outputs": [
        {
          "internalType": "uint256",
          "name": "",
          "type": "uint256"
        }
      ],
      "stateMutability": "view",
      "type": "function"
    },
    {
      "inputs": [],
      "name": "syncRewardPool",
      "outputs": [],
      "stateMutability": "nonpayable",
      "type": "function"
    },
    {
      "inputs": [
        {
          "internalType": "address",
          "name": "",
          "type": "address"
        }
      ],
      "name": "totalRewardsClaimed",
      "outputs": [
        {
          "internalType": "uint256",
          "name": "",
          "type": "uint256"
        }
      ],
      "stateMutability": "view",
      "type": "function"
    },
    {
      "inputs": [],
      "name": "totalRewardsDistributed",
      "outputs": [
        {
          "internalType": "uint256",
          "name": "",
          "type": "uint256"
        }
      ],
      "stateMutability": "view",
      "type": "function"
    },
    {
      "inputs": [
        {
          "internalType": "address",
          "name": "newOwner",
          "type": "address"
        }
      ],
      "name": "transferOwnership",
      "outputs": [],
      "stateMutability": "nonpayable",
      "type": "function"
    },
    {
      "stateMutability": "payable",
      "type": "receive"
    }
  ],
  "bytecode": "0x6080604052612710600355670de0b6b3a7640000600455612710600555600560085534801561002d57600080fd5b506040516112b03803806112b083398101604081905261004c916100ce565b6100553361007e565b60018055600280546001600160a01b0319166001600160a01b03929092169190911790556100fe565b600080546001600160a01b038381166001600160a01b0319831681178455604051919092169283917f8be0079c531659141344cd1fd0a4f28419497f9722a3daafe3b4186f6b6457e09190a35050565b6000602082840312156100e057600080fd5b81516001600160a01b03811681146100f757600080fd5b9392505050565b6111a38061010d6000396000f3fe6080604052600436106101855760003560e01c80638da5cb5b116100d1578063db068e0e1161008a578063dfe6b5d611610064578063dfe6b5d6146104c2578063ee172546146104e3578063f2fde38b146104f9578063f6ce90041461051957600080fd5b8063db068e0e14610460578063db2e21bc14610480578063dda82b1f1461049557600080fd5b80638da5cb5b1461039657806391aa50aa146103b457806397ec913c146103ca5780639fc4622f146103e0578063adb90e3d14610400578063b20d30a91461044057600080fd5b80632f2ca3351161013e5780636052ccb0116101185780636052ccb01461031e57806366666aa91461034b578063715018a614610361578063882dad4a1461037657600080fd5b80632f2ca335146102c8578063367faa5b146102e8578063534675a11461030857600080fd5b80630642bc41146101e057806311bbf03c1461021d57806315b4fd5b146102415780631bb828e31461025857806320828339146102a05780632da0a908146102a857600080fd5b366101db57346006600082825461019c91906110ac565b9091555050604080513481524260208201527f5451f0d28a59c1c16a9d7cc5017150d585749eb225366037423f94b85ad94ea7910160405180910390a1005b600080fd5b3480156101ec57600080fd5b50600254610200906001600160a01b031681565b6040516001600160a01b0390911681526020015b60405180910390f35b34801561022957600080fd5b5061023360035481565b604051908152602001610214565b34801561024d57600080fd5b50610256610546565b005b34801561026457600080fd5b506102786102733660046110bf565b6105ad565b604080519586526020860194909452928401919091526060830152608082015260a001610214565b6102566106a0565b3480156102b457600080fd5b506102336102c33660046110bf565b6106f1565b3480156102d457600080fd5b506102566102e33660046110ef565b61075d565b3480156102f457600080fd5b506102566103033660046110ef565b610b45565b34801561031457600080fd5b5061023360085481565b34801561032a57600080fd5b506102336103393660046110bf565b600a6020526000908152604090205481565b34801561035757600080fd5b5061023360065481565b34801561036d57600080fd5b50610256610b52565b34801561038257600080fd5b506102566103913660046110ef565b610b66565b3480156103a257600080fd5b506000546001600160a01b0316610200565b3480156103c057600080fd5b5061023360045481565b3480156103d657600080fd5b5061023360055481565b3480156103ec57600080fd5b506102336103fb3660046110bf565b610bbc565b34801561040c57600080fd5b5061042061041b3660046110bf565b610cf7565b604080519485526020850193909352918301526060820152608001610214565b34801561044c57600080fd5b5061025661045b3660046110ef565b610d9b565b34801561046c57600080fd5b5061025661047b3660046110ef565b610de4565b34801561048c57600080fd5b50610256610e6e565b3480156104a157600080fd5b506102336104b03660046110bf565b60096020526000908152604090205481565b3480156104ce57600080fd5b50600654600754600354600454600554610278565b3480156104ef57600080fd5b5061023360075481565b34801561050557600080fd5b506102566105143660046110bf565b610f1d565b34801561052557600080fd5b506102336105343660046110bf565b600b6020526000908152604090205481565b61054e610f93565b6006544790808211156105a95760006105678284611108565b6006849055604080518281524260208201529192507f5451f0d28a59c1c16a9d7cc5017150d585749eb225366037423f94b85ad94ea7910160405180910390a1505b5050565b600354600480546006546002546040516323a438ff60e21b8152929360009384926001600160a01b031691638e90e3fc916105f9918a91016001600160a01b0391909116815260200190565b602060405180830381865afa158015610616573d6000803e3d6000fd5b505050506040513d601f19601f8201168201806040525081019061063a919061111b565b6001600160a01b0387166000908152600a602052604090205490915061066390620151806110ac565b421061067157839250610697565b6001600160a01b0386166000908152600960205260409020546106949085611108565b92505b91939590929450565b34600660008282546106b291906110ac565b9091555050604080513481524260208201527f5451f0d28a59c1c16a9d7cc5017150d585749eb225366037423f94b85ad94ea7910160405180910390a1565b6001600160a01b0381166000908152600a602052604081205461071790620151806110ac565b421061072557506000919050565b6001600160a01b0382166000908152600a6020526040902054429061074d90620151806110ac565b6107579190611108565b92915050565b610765610fed565b6005548110156107bc5760405162461bcd60e51b815260206004820152601d60248201527f42656c6f77206d696e696d756d2065786368616e676520616d6f756e7400000060448201526064015b60405180910390fd5b6002546040516323a438ff60e21b815233600482015282916001600160a01b031690638e90e3fc90602401602060405180830381865afa158015610804573d6000803e3d6000fd5b505050506040513d601f19601f82011682018060405250810190610828919061111b565b101561086e5760405162461bcd60e51b8152602060048201526015602482015274125b9cdd59999a58da595b9d081cdd185c991d5cdd605a1b60448201526064016107b3565b336000908152600a602052604090205461088b90620151806110ac565b42106108b157336000908152600960209081526040808320839055600a90915290204290555b6003546000906108c983670de0b6b3a7640000611134565b6108d3919061114b565b60045433600090815260096020526040902054919250906108f59083906110ac565b111561093a5760405162461bcd60e51b815260206004820152601460248201527311185a5b1e481b1a5b5a5d08195e18d95959195960621b60448201526064016107b3565b80600654101561098c5760405162461bcd60e51b815260206004820152601860248201527f496e73756666696369656e742072657761726420706f6f6c000000000000000060448201526064016107b3565b60025460405163593ee7fd60e11b8152336004820152600060248201526001600160a01b039091169063b27dcffa90604401600060405180830381600087803b1580156109d857600080fd5b505af11580156109ec573d6000803e3d6000fd5b50503360009081526009602052604081208054859450909250610a109084906110ac565b9091555050336000908152600b602052604081208054839290610a349084906110ac565b925050819055508060066000828254610a4d9190611108565b925050819055508060076000828254610a6691906110ac565b9091555050604051600090339083908381818185875af1925050503d8060008114610aad576040519150601f19603f3d011682016040523d82523d6000602084013e610ab2565b606091505b5050905080610af55760405162461bcd60e51b815260206004820152600f60248201526e151c985b9cd9995c8819985a5b1959608a1b60448201526064016107b3565b60408051848152602081018490524281830152905133917fedd12712bf315d7c5ea5c44f4712acea82680bec7b9ab130961b0f03e7723f54919081900360600190a25050610b4260018055565b50565b610b4d610f93565b600555565b610b5a610f93565b610b646000611046565b565b610b6e610f93565b6014811115610bb75760405162461bcd60e51b81526020600482015260156024820152744665652063616e6e6f74206578636565642032302560581b60448201526064016107b3565b600855565b6002546040516323a438ff60e21b81526001600160a01b0383811660048301526000928392911690638e90e3fc90602401602060405180830381865afa158015610c0a573d6000803e3d6000fd5b505050506040513d601f19601f82011682018060405250810190610c2e919061111b565b9050600554811015610c435750600092915050565b600354600090610c5b83670de0b6b3a7640000611134565b610c65919061114b565b6001600160a01b0385166000908152600a602052604081205491925090610c8f90620151806110ac565b4210610c9e5750600454610cc7565b6001600160a01b038516600090815260096020526040902054600454610cc49190611108565b90505b6000818311610cd65782610cd8565b815b90506006548111610ce95780610ced565b6006545b9695505050505050565b6001600160a01b038181166000818152600b60209081526040808320546009835281842054600a9093528184205460025492516323a438ff60e21b81526004810196909652909592949093929190911690638e90e3fc90602401602060405180830381865afa158015610d6e573d6000803e3d6000fd5b505050506040513d601f19601f82011682018060405250810190610d92919061111b565b90509193509193565b610da3610f93565b6004819055604080518281524260208201527f207c4cbdf55ec315a13f0d5e047732ec5d947da056e706593aa509909941cedf91015b60405180910390a150565b610dec610f93565b60008111610e345760405162461bcd60e51b815260206004820152601560248201527452617465206d75737420626520706f73697469766560581b60448201526064016107b3565b6003819055604080518281524260208201527fc390a98ace15a7bb6bab611eedfdbb2685043b241a869420043cdfb23ccfee509101610dd9565b610e76610f93565b476000610e8b6000546001600160a01b031690565b6001600160a01b03168260405160006040518083038185875af1925050503d8060008114610ed5576040519150601f19603f3d011682016040523d82523d6000602084013e610eda565b606091505b50509050806105a95760405162461bcd60e51b815260206004820152600f60248201526e151c985b9cd9995c8819985a5b1959608a1b60448201526064016107b3565b610f25610f93565b6001600160a01b038116610f8a5760405162461bcd60e51b815260206004820152602660248201527f4f776e61626c653a206e6577206f776e657220697320746865207a65726f206160448201526564647265737360d01b60648201526084016107b3565b610b4281611046565b6000546001600160a01b03163314610b645760405162461bcd60e51b815260206004820181905260248201527f4f776e61626c653a2063616c6c6572206973206e6f7420746865206f776e657260448201526064016107b3565b60026001540361103f5760405162461bcd60e51b815260206004820152601f60248201527f5265656e7472616e637947756172643a207265656e7472616e742063616c6c0060448201526064016107b3565b6002600155565b600080546001600160a01b038381166001600160a01b0319831681178455604051919092169283917f8be0079c531659141344cd1fd0a4f28419497f9722a3daafe3b4186f6b6457e09190a35050565b634e487b7160e01b600052601160045260246000fd5b8082018082111561075757610757611096565b6000602082840312156110d157600080fd5b81356001600160a01b03811681146110e857600080fd5b9392505050565b60006020828403121561110157600080fd5b5035919050565b8181038181111561075757610757611096565b60006020828403121561112d57600080fd5b5051919050565b808202811582820484141761075757610757611096565b60008261116857634e487b7160e01b600052601260045260246000fd5b50049056fea2646970667358221220659de167e09c32e01b66d846b8477014ee14ae49d00a5760b371fb8872635dd364736f6c63430008130033",
  "linkReferences": {},
  "deployedLinkReferences": {}
}