{
  "_format": "hh-sol-artifact-1",
  "contractName": "P2ERewards",
  "sourceName": "contracts/P2ERewards.sol",
  "abi": [
    {
      "inputs": [
        {
          "internalType": "address payable",
          "name": "_creditsContract",
          "type": "address"
        }
      ],
      "stateMutability": "nonpayable",
      "type": "constructor"
    },
    {
      "anonymous": false,
      "inputs": [
        {
          "indexed": false,
          "internalType": "uint256",
          "name": "newLimit",
          "type": "uint256"
        },
        {
          "indexed": false,
          "internalType": "uint256",
          "name": "timestamp",
          "type": "uint256"
        }
      ],
      "name": "DailyLimitUpdated",
      "type": "event"
    },
    {
      "anonymous": false,
      "inputs": [
        {
          "indexed": true,
          "internalType": "address",
          "name": "previousOwner",
          "type": "address"
        },
        {
          "indexed": true,
          "internalType": "address",
          "name": "newOwner",
          "type": "address"
        }
      ],
      "name": "OwnershipTransferred",
      "type": "event"
    },
    {
      "anonymous": false,
      "inputs": [
        {
          "indexed": false,
          "internalType": "uint256",
          "name": "amount",
          "type": "uint256"
        },
        {
          "indexed": false,
          "internalType": "uint256",
          "name": "timestamp",
          "type": "uint256"
        }
      ],
      "name": "RewardPoolFunded",
      "type": "event"
    },
    {
      "anonymous": false,
      "inputs": [
        {
          "indexed": false,
          "internalType": "uint256",
          "name": "newRate",
          "type": "uint256"
        },
        {
          "indexed": false,
          "internalType": "uint256",
          "name": "timestamp",
          "type": "uint256"
        }
      ],
      "name": "RewardRateUpdated",
      "type": "event"
    },
    {
      "anonymous": false,
      "inputs": [
        {
          "indexed": true,
          "internalType": "address",
          "name": "player",
          "type": "address"
        },
        {
          "indexed": false,
          "internalType": "uint256",
          "name": "stardustAmount",
          "type": "uint256"
        },
        {
          "indexed": false,
          "internalType": "uint256",
          "name": "cfxAmount",
          "type": "uint256"
        },
        {
          "indexed": false,
          "internalType": "uint256",
          "name": "timestamp",
          "type": "uint256"
        }
      ],
      "name": "StardustExchanged",
      "type": "event"
    },
    {
      "inputs": [],
      "name": "creditsContract",
      "outputs": [
        {
          "internalType": "contract StarMinerCredits",
          "name": "",
          "type": "address"
        }
      ],
      "stateMutability": "view",
      "type": "function"
    },
    {
      "inputs": [],
      "name": "dailyRewardLimit",
      "outputs": [
        {
          "internalType": "uint256",
          "name": "",
          "type": "uint256"
        }
      ],
      "stateMutability": "view",
      "type": "function"
    },
    {
      "inputs": [
        {
          "internalType": "address",
          "name": "",
          "type": "address"
        }
      ],
      "name": "dailyRewardsClaimed",
      "outputs": [
        {
          "internalType": "uint256",
          "name": "",
          "type": "uint256"
        }
      ],
      "stateMutability": "view",
      "type": "function"
    },
    {
      "inputs": [],
      "name": "emergencyWithdraw",
      "outputs": [],
      "stateMutability": "nonpayable",
      "type": "function"
    },
    {
      "inputs": [
        {
          "internalType": "uint256",
          "name": "stardustAmount",
          "type": "uint256"
        }
      ],
      "name": "exchangeStardustForCFX",
      "outputs": [],
      "stateMutability": "nonpayable",
      "type": "function"
    },
    {
      "inputs": [],
      "name": "fundRewardPool",
      "outputs": [],
      "stateMutability": "payable",
      "type": "function"
    },
    {
      "inputs": [],
      "name": "getContractStats",
      "outputs": [
        {
          "internalType": "uint256",
          "name": "totalPool",
          "type": "uint256"
        },
        {
          "internalType": "uint256",
          "name": "totalDistributed",
          "type": "uint256"
        },
        {
          "internalType": "uint256",
          "name": "exchangeRate",
          "type": "uint256"
        },
        {
          "internalType": "uint256",
          "name": "dailyLimit",
          "type": "uint256"
        },
        {
          "internalType": "uint256",
          "name": "minStardust",
          "type": "uint256"
        }
      ],
      "stateMutability": "view",
      "type": "function"
    },
    {
      "inputs": [
        {
          "internalType": "address",
          "name": "player",
          "type": "address"
        }
      ],
      "name": "getExchangeInfo",
      "outputs": [
        {
          "internalType": "uint256",
          "name": "rate",
          "type": "uint256"
        },
        {
          "internalType": "uint256",
          "name": "dailyLimit",
          "type": "uint256"
        },
        {
          "internalType": "uint256",
          "name": "remainingDaily",
          "type": "uint256"
        },
        {
          "internalType": "uint256",
          "name": "poolBalance",
          "type": "uint256"
        },
        {
          "internalType": "uint256",
          "name": "playerStardust",
          "type": "uint256"
        }
      ],
      "stateMutability": "view",
      "type": "function"
    },
    {
      "inputs": [
        {
          "internalType": "address",
          "name": "player",
          "type": "address"
        }
      ],
      "name": "getMaxClaimable",
      "outputs": [
        {
          "internalType": "uint256",
          "name": "",
          "type": "uint256"
        }
      ],
      "stateMutability": "view",
      "type": "function"
    },
    {
      "inputs": [
        {
          "internalType": "address",
          "name": "player",
          "type": "address"
        }
      ],
      "name": "getPlayerRewardStats",
      "outputs": [
        {
          "internalType": "uint256",
          "name": "totalClaimed",
          "type": "uint256"
        },
        {
          "internalType": "uint256",
          "name": "dailyClaimed",
          "type": "uint256"
        },
        {
          "internalType": "uint256",
          "name": "lastClaim",
          "type": "uint256"
        },
        {
          "internalType": "uint256",
          "name": "availableStardust",
          "type": "uint256"
        }
      ],
      "stateMutability": "view",
      "type": "function"
    },
    {
      "inputs": [
        {
          "internalType": "address",
          "name": "player",
          "type": "address"
        }
      ],
      "name": "getTimeUntilReset",
      "outputs": [
        {
          "internalType": "uint256",
          "name": "",
          "type": "uint256"
        }
      ],
      "stateMutability": "view",
      "type": "function"
    },
    {
      "inputs": [
        {
          "internalType": "address",
          "name": "",
          "type": "address"
        }
      ],
      "name": "lastClaimDate",
      "outputs": [
        {
          "internalType": "uint256",
          "name": "",
          "type": "uint256"
        }
      ],
      "stateMutability": "view",
      "type": "function"
    },
    {
      "inputs": [],
      "name": "minimumStardust",
      "outputs": [
        {
          "internalType": "uint256",
          "name": "",
          "type": "uint256"
        }
      ],
      "stateMutability": "view",
      "type": "function"
    },
    {
      "inputs": [],
      "name": "owner",
      "outputs": [
        {
          "internalType": "address",
          "name": "",
          "type": "address"
        }
      ],
      "stateMutability": "view",
      "type": "function"
    },
    {
      "inputs": [],
      "name": "renounceOwnership",
      "outputs": [],
      "stateMutability": "nonpayable",
      "type": "function"
    },
    {
      "inputs": [],
      "name": "rewardPool",
      "outputs": [
        {
          "internalType": "uint256",
          "name": "",
          "type": "uint256"
        }
      ],
      "stateMutability": "view",
      "type": "function"
    },
    {
      "inputs": [],
      "name": "rewardPoolFeePercent",
      "outputs": [
        {
          "internalType": "uint256",
          "name": "",
          "type": "uint256"
        }
      ],
      "stateMutability": "view",
      "type": "function"
    },
    {
      "inputs": [
        {
          "internalType": "uint256",
          "name": "newLimit",
          "type": "uint256"
        }
      ],
      "name": "setDailyLimit",
      "outputs": [],
      "stateMutability": "nonpayable",
      "type": "function"
    },
    {
      "inputs": [
        {
          "internalType": "uint256",
          "name": "newRate",
          "type": "uint256"
        }
      ],
      "name": "setExchangeRate",
      "outputs": [],
      "stateMutability": "nonpayable",
      "type": "function"
    },
    {
      "inputs": [
        {
          "internalType": "uint256",
          "name": "newMinimum",
          "type": "uint256"
        }
      ],
      "name": "setMinimumStardust",
      "outputs": [],
      "stateMutability": "nonpayable",
      "type": "function"
    },
    {
      "inputs": [
        {
          "internalType": "uint256",
          "name": "newPercent",
          "type": "uint256"
        }
      ],
      "name": "setRewardPoolFeePercent",
      "outputs": [],
      "stateMutability": "nonpayable",
      "type": "function"
    },
    {
      "inputs": [],
      "name": "stardustToCFXRate",
      "outputs": [
        {
          "internalType": "uint256",
          "name": "",
          "type": "uint256"
        }
      ],
      "stateMutability": "view",
      "type": "function"
    },
    {
      "inputs": [
        {
          "internalType": "address",
          "name": "",
          "type": "address"
        }
      ],
      "name": "totalRewardsClaimed",
      "outputs": [
        {
          "internalType": "uint256",
          "name": "",
          "type": "uint256"
        }
      ],
      "stateMutability": "view",
      "type": "function"
    },
    {
      "inputs": [],
      "name": "totalRewardsDistributed",
      "outputs": [
        {
          "internalType": "uint256",
          "name": "",
          "type": "uint256"
        }
      ],
      "stateMutability": "view",
      "type": "function"
    },
    {
      "inputs": [
        {
          "internalType": "address",
          "name": "newOwner",
          "type": "address"
        }
      ],
      "name": "transferOwnership",
      "outputs": [],
      "stateMutability": "nonpayable",
      "type": "function"
    },
    {
      "stateMutability": "payable",
      "type": "receive"
    }
  ],
  "bytecode": "0x6080604052612710600355670de0b6b3a7640000600455612710600555600560085534801561002d57600080fd5b5060405161121d38038061121d83398101604081905261004c916100ce565b6100553361007e565b60018055600280546001600160a01b0319166001600160a01b03929092169190911790556100fe565b600080546001600160a01b038381166001600160a01b0319831681178455604051919092169283917f8be0079c531659141344cd1fd0a4f28419497f9722a3daafe3b4186f6b6457e09190a35050565b6000602082840312156100e057600080fd5b81516001600160a01b03811681146100f757600080fd5b9392505050565b6111108061010d6000396000f3fe60806040526004361061016a5760003560e01c80638da5cb5b116100d1578063db068e0e1161008a578063dfe6b5d611610064578063dfe6b5d614610492578063ee172546146104b3578063f2fde38b146104c9578063f6ce9004146104e957600080fd5b8063db068e0e14610430578063db2e21bc14610450578063dda82b1f1461046557600080fd5b80638da5cb5b1461036657806391aa50aa1461038457806397ec913c1461039a5780639fc4622f146103b0578063adb90e3d146103d0578063b20d30a91461041057600080fd5b8063367faa5b11610123578063367faa5b146102b8578063534675a1146102d85780636052ccb0146102ee57806366666aa91461031b578063715018a614610331578063882dad4a1461034657600080fd5b80630642bc41146101c557806311bbf03c146102025780631bb828e314610226578063208283391461026e5780632da0a908146102785780632f2ca3351461029857600080fd5b366101c05734600660008282546101819190611019565b9091555050604080513481524260208201527f5451f0d28a59c1c16a9d7cc5017150d585749eb225366037423f94b85ad94ea7910160405180910390a1005b600080fd5b3480156101d157600080fd5b506002546101e5906001600160a01b031681565b6040516001600160a01b0390911681526020015b60405180910390f35b34801561020e57600080fd5b5061021860035481565b6040519081526020016101f9565b34801561023257600080fd5b5061024661024136600461102c565b610516565b604080519586526020860194909452928401919091526060830152608082015260a0016101f9565b610276610609565b005b34801561028457600080fd5b5061021861029336600461102c565b61065a565b3480156102a457600080fd5b506102766102b336600461105c565b6106c6565b3480156102c457600080fd5b506102766102d336600461105c565b610aae565b3480156102e457600080fd5b5061021860085481565b3480156102fa57600080fd5b5061021861030936600461102c565b600a6020526000908152604090205481565b34801561032757600080fd5b5061021860065481565b34801561033d57600080fd5b50610276610abb565b34801561035257600080fd5b5061027661036136600461105c565b610acf565b34801561037257600080fd5b506000546001600160a01b03166101e5565b34801561039057600080fd5b5061021860045481565b3480156103a657600080fd5b5061021860055481565b3480156103bc57600080fd5b506102186103cb36600461102c565b610b25565b3480156103dc57600080fd5b506103f06103eb36600461102c565b610c60565b6040805194855260208501939093529183015260608201526080016101f9565b34801561041c57600080fd5b5061027661042b36600461105c565b610d04565b34801561043c57600080fd5b5061027661044b36600461105c565b610d4d565b34801561045c57600080fd5b50610276610dd7565b34801561047157600080fd5b5061021861048036600461102c565b60096020526000908152604090205481565b34801561049e57600080fd5b50600654600754600354600454600554610246565b3480156104bf57600080fd5b5061021860075481565b3480156104d557600080fd5b506102766104e436600461102c565b610e8a565b3480156104f557600080fd5b5061021861050436600461102c565b600b6020526000908152604090205481565b600354600480546006546002546040516323a438ff60e21b8152929360009384926001600160a01b031691638e90e3fc91610562918a91016001600160a01b0391909116815260200190565b602060405180830381865afa15801561057f573d6000803e3d6000fd5b505050506040513d601f19601f820116820180604052508101906105a39190611075565b6001600160a01b0387166000908152600a60205260409020549091506105cc9062015180611019565b42106105da57839250610600565b6001600160a01b0386166000908152600960205260409020546105fd908561108e565b92505b91939590929450565b346006600082825461061b9190611019565b9091555050604080513481524260208201527f5451f0d28a59c1c16a9d7cc5017150d585749eb225366037423f94b85ad94ea7910160405180910390a1565b6001600160a01b0381166000908152600a60205260408120546106809062015180611019565b421061068e57506000919050565b6001600160a01b0382166000908152600a602052604090205442906106b69062015180611019565b6106c0919061108e565b92915050565b6106ce610f00565b6005548110156107255760405162461bcd60e51b815260206004820152601d60248201527f42656c6f77206d696e696d756d2065786368616e676520616d6f756e7400000060448201526064015b60405180910390fd5b6002546040516323a438ff60e21b815233600482015282916001600160a01b031690638e90e3fc90602401602060405180830381865afa15801561076d573d6000803e3d6000fd5b505050506040513d601f19601f820116820180604052508101906107919190611075565b10156107d75760405162461bcd60e51b8152602060048201526015602482015274125b9cdd59999a58da595b9d081cdd185c991d5cdd605a1b604482015260640161071c565b336000908152600a60205260409020546107f49062015180611019565b421061081a57336000908152600960209081526040808320839055600a90915290204290555b60035460009061083283670de0b6b3a76400006110a1565b61083c91906110b8565b600454336000908152600960205260409020549192509061085e908390611019565b11156108a35760405162461bcd60e51b815260206004820152601460248201527311185a5b1e481b1a5b5a5d08195e18d95959195960621b604482015260640161071c565b8060065410156108f55760405162461bcd60e51b815260206004820152601860248201527f496e73756666696369656e742072657761726420706f6f6c0000000000000000604482015260640161071c565b60025460405163593ee7fd60e11b8152336004820152600060248201526001600160a01b039091169063b27dcffa90604401600060405180830381600087803b15801561094157600080fd5b505af1158015610955573d6000803e3d6000fd5b50503360009081526009602052604081208054859450909250610979908490611019565b9091555050336000908152600b60205260408120805483929061099d908490611019565b9250508190555080600660008282546109b6919061108e565b9250508190555080600760008282546109cf9190611019565b9091555050604051600090339083908381818185875af1925050503d8060008114610a16576040519150601f19603f3d011682016040523d82523d6000602084013e610a1b565b606091505b5050905080610a5e5760405162461bcd60e51b815260206004820152600f60248201526e151c985b9cd9995c8819985a5b1959608a1b604482015260640161071c565b60408051848152602081018490524281830152905133917fedd12712bf315d7c5ea5c44f4712acea82680bec7b9ab130961b0f03e7723f54919081900360600190a25050610aab60018055565b50565b610ab6610f59565b600555565b610ac3610f59565b610acd6000610fb3565b565b610ad7610f59565b6014811115610b205760405162461bcd60e51b81526020600482015260156024820152744665652063616e6e6f74206578636565642032302560581b604482015260640161071c565b600855565b6002546040516323a438ff60e21b81526001600160a01b0383811660048301526000928392911690638e90e3fc90602401602060405180830381865afa158015610b73573d6000803e3d6000fd5b505050506040513d601f19601f82011682018060405250810190610b979190611075565b9050600554811015610bac5750600092915050565b600354600090610bc483670de0b6b3a76400006110a1565b610bce91906110b8565b6001600160a01b0385166000908152600a602052604081205491925090610bf89062015180611019565b4210610c075750600454610c30565b6001600160a01b038516600090815260096020526040902054600454610c2d919061108e565b90505b6000818311610c3f5782610c41565b815b90506006548111610c525780610c56565b6006545b9695505050505050565b6001600160a01b038181166000818152600b60209081526040808320546009835281842054600a9093528184205460025492516323a438ff60e21b81526004810196909652909592949093929190911690638e90e3fc90602401602060405180830381865afa158015610cd7573d6000803e3d6000fd5b505050506040513d601f19601f82011682018060405250810190610cfb9190611075565b90509193509193565b610d0c610f59565b6004819055604080518281524260208201527f207c4cbdf55ec315a13f0d5e047732ec5d947da056e706593aa509909941cedf91015b60405180910390a150565b610d55610f59565b60008111610d9d5760405162461bcd60e51b815260206004820152601560248201527452617465206d75737420626520706f73697469766560581b604482015260640161071c565b6003819055604080518281524260208201527fc390a98ace15a7bb6bab611eedfdbb2685043b241a869420043cdfb23ccfee509101610d42565b610ddf610f59565b476000610df46000546001600160a01b031690565b6001600160a01b03168260405160006040518083038185875af1925050503d8060008114610e3e576040519150601f19603f3d011682016040523d82523d6000602084013e610e43565b606091505b5050905080610e865760405162461bcd60e51b815260206004820152600f60248201526e151c985b9cd9995c8819985a5b1959608a1b604482015260640161071c565b5050565b610e92610f59565b6001600160a01b038116610ef75760405162461bcd60e51b815260206004820152602660248201527f4f776e61626c653a206e6577206f776e657220697320746865207a65726f206160448201526564647265737360d01b606482015260840161071c565b610aab81610fb3565b600260015403610f525760405162461bcd60e51b815260206004820152601f60248201527f5265656e7472616e637947756172643a207265656e7472616e742063616c6c00604482015260640161071c565b6002600155565b6000546001600160a01b03163314610acd5760405162461bcd60e51b815260206004820181905260248201527f4f776e61626c653a2063616c6c6572206973206e6f7420746865206f776e6572604482015260640161071c565b600080546001600160a01b038381166001600160a01b0319831681178455604051919092169283917f8be0079c531659141344cd1fd0a4f28419497f9722a3daafe3b4186f6b6457e09190a35050565b634e487b7160e01b600052601160045260246000fd5b808201808211156106c0576106c0611003565b60006020828403121561103e57600080fd5b81356001600160a01b038116811461105557600080fd5b9392505050565b60006020828403121561106e57600080fd5b5035919050565b60006020828403121561108757600080fd5b5051919050565b818103818111156106c0576106c0611003565b80820281158282048414176106c0576106c0611003565b6000826110d557634e487b7160e01b600052601260045260246000fd5b50049056fea26469706673582212207673b147e1baac720eefc0665b58d43d616b9c19f704a7c4f21096296f8a163464736f6c63430008130033",
  "linkReferences": {},
  "deployedLinkReferences": {}
}