{
  "address": "0x54f1A8992AE2248199186D062DcD466b4B82217b",
  "abi": [
    {
      "inputs": [
        {
          "internalType": "address",
          "name": "_lzEndpoint",
          "type": "address"
        },
        {
          "internalType": "address",
          "name": "_delegate",
          "type": "address"
        }
      ],
      "stateMutability": "nonpayable",
      "type": "constructor"
    },
    {
      "inputs": [],
      "name": "FailedDeployment",
      "type": "error"
    },
    {
      "inputs": [
        {
          "internalType": "uint256",
          "name": "balance",
          "type": "uint256"
        },
        {
          "internalType": "uint256",
          "name": "needed",
          "type": "uint256"
        }
      ],
      "name": "InsufficientBalance",
      "type": "error"
    },
    {
      "inputs": [],
      "name": "InvalidDelegate",
      "type": "error"
    },
    {
      "inputs": [],
      "name": "InvalidEndpointCall",
      "type": "error"
    },
    {
      "inputs": [
        {
          "internalType": "bytes",
          "name": "options",
          "type": "bytes"
        }
      ],
      "name": "InvalidOptions",
      "type": "error"
    },
    {
      "inputs": [],
      "name": "InvalidReceiver",
      "type": "error"
    },
    {
      "inputs": [],
      "name": "LzTokenUnavailable",
      "type": "error"
    },
    {
      "inputs": [
        {
          "internalType": "uint32",
          "name": "eid",
          "type": "uint32"
        }
      ],
      "name": "NoPeer",
      "type": "error"
    },
    {
      "inputs": [
        {
          "internalType": "uint256",
          "name": "msgValue",
          "type": "uint256"
        }
      ],
      "name": "NotEnoughNative",
      "type": "error"
    },
    {
      "inputs": [
        {
          "internalType": "address",
          "name": "addr",
          "type": "address"
        }
      ],
      "name": "OnlyEndpoint",
      "type": "error"
    },
    {
      "inputs": [
        {
          "internalType": "address",
          "name": "caller",
          "type": "address"
        },
        {
          "internalType": "address",
          "name": "owner",
          "type": "address"
        }
      ],
      "name": "OnlyNFTOwner",
      "type": "error"
    },
    {
      "inputs": [
        {
          "internalType": "uint32",
          "name": "eid",
          "type": "uint32"
        },
        {
          "internalType": "bytes32",
          "name": "sender",
          "type": "bytes32"
        }
      ],
      "name": "OnlyPeer",
      "type": "error"
    },
    {
      "inputs": [],
      "name": "OnlySelf",
      "type": "error"
    },
    {
      "inputs": [
        {
          "internalType": "address",
          "name": "owner",
          "type": "address"
        }
      ],
      "name": "OwnableInvalidOwner",
      "type": "error"
    },
    {
      "inputs": [
        {
          "internalType": "address",
          "name": "account",
          "type": "address"
        }
      ],
      "name": "OwnableUnauthorizedAccount",
      "type": "error"
    },
    {
      "inputs": [
        {
          "internalType": "address",
          "name": "token",
          "type": "address"
        }
      ],
      "name": "SafeERC20FailedOperation",
      "type": "error"
    },
    {
      "inputs": [
        {
          "internalType": "bytes",
          "name": "result",
          "type": "bytes"
        }
      ],
      "name": "SimulationResult",
      "type": "error"
    },
    {
      "anonymous": false,
      "inputs": [
        {
          "components": [
            {
              "internalType": "uint32",
              "name": "eid",
              "type": "uint32"
            },
            {
              "internalType": "uint16",
              "name": "msgType",
              "type": "uint16"
            },
            {
              "internalType": "bytes",
              "name": "options",
              "type": "bytes"
            }
          ],
          "indexed": false,
          "internalType": "struct EnforcedOptionParam[]",
          "name": "_enforcedOptions",
          "type": "tuple[]"
        }
      ],
      "name": "EnforcedOptionSet",
      "type": "event"
    },
    {
      "anonymous": false,
      "inputs": [
        {
          "indexed": false,
          "internalType": "address",
          "name": "inspector",
          "type": "address"
        }
      ],
      "name": "MsgInspectorSet",
      "type": "event"
    },
    {
      "anonymous": false,
      "inputs": [
        {
          "indexed": true,
          "internalType": "bytes32",
          "name": "guid",
          "type": "bytes32"
        },
        {
          "indexed": false,
          "internalType": "uint32",
          "name": "srcEid",
          "type": "uint32"
        },
        {
          "indexed": true,
          "internalType": "address",
          "name": "toAddress",
          "type": "address"
        },
        {
          "indexed": false,
          "internalType": "uint256",
          "name": "tokenId",
          "type": "uint256"
        }
      ],
      "name": "ONFTReceived",
      "type": "event"
    },
    {
      "anonymous": false,
      "inputs": [
        {
          "indexed": true,
          "internalType": "bytes32",
          "name": "guid",
          "type": "bytes32"
        },
        {
          "indexed": false,
          "internalType": "uint32",
          "name": "dstEid",
          "type": "uint32"
        },
        {
          "indexed": true,
          "internalType": "address",
          "name": "fromAddress",
          "type": "address"
        },
        {
          "indexed": false,
          "internalType": "uint256",
          "name": "tokenId",
          "type": "uint256"
        }
      ],
      "name": "ONFTSent",
      "type": "event"
    },
    {
      "anonymous": false,
      "inputs": [
        {
          "indexed": true,
          "internalType": "address",
          "name": "previousOwner",
          "type": "address"
        },
        {
          "indexed": true,
          "internalType": "address",
          "name": "newOwner",
          "type": "address"
        }
      ],
      "name": "OwnershipTransferred",
      "type": "event"
    },
    {
      "anonymous": false,
      "inputs": [
        {
          "indexed": false,
          "internalType": "uint32",
          "name": "eid",
          "type": "uint32"
        },
        {
          "indexed": false,
          "internalType": "bytes32",
          "name": "peer",
          "type": "bytes32"
        }
      ],
      "name": "PeerSet",
      "type": "event"
    },
    {
      "anonymous": false,
      "inputs": [
        {
          "indexed": false,
          "internalType": "address",
          "name": "preCrimeAddress",
          "type": "address"
        }
      ],
      "name": "PreCrimeSet",
      "type": "event"
    },
    {
      "anonymous": false,
      "inputs": [
        {
          "indexed": true,
          "internalType": "address",
          "name": "token",
          "type": "address"
        }
      ],
      "name": "TokenRegistered",
      "type": "event"
    },
    {
      "anonymous": false,
      "inputs": [
        {
          "indexed": true,
          "internalType": "address",
          "name": "token",
          "type": "address"
        }
      ],
      "name": "TokenUnregistered",
      "type": "event"
    },
    {
      "anonymous": false,
      "inputs": [
        {
          "indexed": true,
          "internalType": "address",
          "name": "wrapper",
          "type": "address"
        },
        {
          "indexed": false,
          "internalType": "uint256",
          "name": "tokenId",
          "type": "uint256"
        }
      ],
      "name": "WrappedBurned",
      "type": "event"
    },
    {
      "anonymous": false,
      "inputs": [
        {
          "indexed": true,
          "internalType": "address",
          "name": "wrapper",
          "type": "address"
        },
        {
          "indexed": true,
          "internalType": "address",
          "name": "canonicalAddr",
          "type": "address"
        },
        {
          "indexed": false,
          "internalType": "uint256",
          "name": "tokenId",
          "type": "uint256"
        },
        {
          "indexed": false,
          "internalType": "address",
          "name": "to",
          "type": "address"
        }
      ],
      "name": "WrappedMinted",
      "type": "event"
    },
    {
      "anonymous": false,
      "inputs": [
        {
          "indexed": true,
          "internalType": "address",
          "name": "canonicalAddr",
          "type": "address"
        },
        {
          "indexed": false,
          "internalType": "address",
          "name": "wrapper",
          "type": "address"
        }
      ],
      "name": "WrapperDeployed",
      "type": "event"
    },
    {
      "inputs": [],
      "name": "SEND",
      "outputs": [
        {
          "internalType": "uint16",
          "name": "",
          "type": "uint16"
        }
      ],
      "stateMutability": "view",
      "type": "function"
    },
    {
      "inputs": [],
      "name": "SEND_AND_COMPOSE",
      "outputs": [
        {
          "internalType": "uint16",
          "name": "",
          "type": "uint16"
        }
      ],
      "stateMutability": "view",
      "type": "function"
    },
    {
      "inputs": [
        {
          "components": [
            {
              "internalType": "uint32",
              "name": "srcEid",
              "type": "uint32"
            },
            {
              "internalType": "bytes32",
              "name": "sender",
              "type": "bytes32"
            },
            {
              "internalType": "uint64",
              "name": "nonce",
              "type": "uint64"
            }
          ],
          "internalType": "struct Origin",
          "name": "origin",
          "type": "tuple"
        }
      ],
      "name": "allowInitializePath",
      "outputs": [
        {
          "internalType": "bool",
          "name": "",
          "type": "bool"
        }
      ],
      "stateMutability": "view",
      "type": "function"
    },
    {
      "inputs": [],
      "name": "approvalRequired",
      "outputs": [
        {
          "internalType": "bool",
          "name": "",
          "type": "bool"
        }
      ],
      "stateMutability": "pure",
      "type": "function"
    },
    {
      "inputs": [
        {
          "internalType": "address",
          "name": "_localToken",
          "type": "address"
        },
        {
          "internalType": "uint32",
          "name": "_dstEid",
          "type": "uint32"
        },
        {
          "internalType": "address",
          "name": "_to",
          "type": "address"
        },
        {
          "internalType": "uint256[]",
          "name": "_tokenIds",
          "type": "uint256[]"
        },
        {
          "internalType": "bytes",
          "name": "_options",
          "type": "bytes"
        },
        {
          "components": [
            {
              "internalType": "uint256",
              "name": "nativeFee",
              "type": "uint256"
            },
            {
              "internalType": "uint256",
              "name": "lzTokenFee",
              "type": "uint256"
            }
          ],
          "internalType": "struct MessagingFee",
          "name": "_fee",
          "type": "tuple"
        },
        {
          "internalType": "address",
          "name": "_refundAddress",
          "type": "address"
        }
      ],
      "name": "bridgeSend",
      "outputs": [],
      "stateMutability": "payable",
      "type": "function"
    },
    {
      "inputs": [
        {
          "internalType": "uint32",
          "name": "_eid",
          "type": "uint32"
        },
        {
          "internalType": "uint16",
          "name": "_msgType",
          "type": "uint16"
        },
        {
          "internalType": "bytes",
          "name": "_extraOptions",
          "type": "bytes"
        }
      ],
      "name": "combineOptions",
      "outputs": [
        {
          "internalType": "bytes",
          "name": "",
          "type": "bytes"
        }
      ],
      "stateMutability": "view",
      "type": "function"
    },
    {
      "inputs": [],
      "name": "endpoint",
      "outputs": [
        {
          "internalType": "contract ILayerZeroEndpointV2",
          "name": "",
          "type": "address"
        }
      ],
      "stateMutability": "view",
      "type": "function"
    },
    {
      "inputs": [
        {
          "internalType": "uint32",
          "name": "eid",
          "type": "uint32"
        },
        {
          "internalType": "uint16",
          "name": "msgType",
          "type": "uint16"
        }
      ],
      "name": "enforcedOptions",
      "outputs": [
        {
          "internalType": "bytes",
          "name": "enforcedOption",
          "type": "bytes"
        }
      ],
      "stateMutability": "view",
      "type": "function"
    },
    {
      "inputs": [
        {
          "internalType": "address",
          "name": "_canonicalAddr",
          "type": "address"
        }
      ],
      "name": "getWrapper",
      "outputs": [
        {
          "internalType": "address",
          "name": "",
          "type": "address"
        }
      ],
      "stateMutability": "view",
      "type": "function"
    },
    {
      "inputs": [
        {
          "components": [
            {
              "internalType": "uint32",
              "name": "srcEid",
              "type": "uint32"
            },
            {
              "internalType": "bytes32",
              "name": "sender",
              "type": "bytes32"
            },
            {
              "internalType": "uint64",
              "name": "nonce",
              "type": "uint64"
            }
          ],
          "internalType": "struct Origin",
          "name": "",
          "type": "tuple"
        },
        {
          "internalType": "bytes",
          "name": "",
          "type": "bytes"
        },
        {
          "internalType": "address",
          "name": "_sender",
          "type": "address"
        }
      ],
      "name": "isComposeMsgSender",
      "outputs": [
        {
          "internalType": "bool",
          "name": "",
          "type": "bool"
        }
      ],
      "stateMutability": "view",
      "type": "function"
    },
    {
      "inputs": [
        {
          "internalType": "address",
          "name": "_token",
          "type": "address"
        }
      ],
      "name": "isERC721",
      "outputs": [
        {
          "internalType": "bool",
          "name": "",
          "type": "bool"
        }
      ],
      "stateMutability": "view",
      "type": "function"
    },
    {
      "inputs": [
        {
          "internalType": "uint32",
          "name": "_eid",
          "type": "uint32"
        },
        {
          "internalType": "bytes32",
          "name": "_peer",
          "type": "bytes32"
        }
      ],
      "name": "isPeer",
      "outputs": [
        {
          "internalType": "bool",
          "name": "",
          "type": "bool"
        }
      ],
      "stateMutability": "view",
      "type": "function"
    },
    {
      "inputs": [
        {
          "components": [
            {
              "internalType": "uint32",
              "name": "srcEid",
              "type": "uint32"
            },
            {
              "internalType": "bytes32",
              "name": "sender",
              "type": "bytes32"
            },
            {
              "internalType": "uint64",
              "name": "nonce",
              "type": "uint64"
            }
          ],
          "internalType": "struct Origin",
          "name": "_origin",
          "type": "tuple"
        },
        {
          "internalType": "bytes32",
          "name": "_guid",
          "type": "bytes32"
        },
        {
          "internalType": "bytes",
          "name": "_message",
          "type": "bytes"
        },
        {
          "internalType": "address",
          "name": "_executor",
          "type": "address"
        },
        {
          "internalType": "bytes",
          "name": "_extraData",
          "type": "bytes"
        }
      ],
      "name": "lzReceive",
      "outputs": [],
      "stateMutability": "payable",
      "type": "function"
    },
    {
      "inputs": [
        {
          "components": [
            {
              "components": [
                {
                  "internalType": "uint32",
                  "name": "srcEid",
                  "type": "uint32"
                },
                {
                  "internalType": "bytes32",
                  "name": "sender",
                  "type": "bytes32"
                },
                {
                  "internalType": "uint64",
                  "name": "nonce",
                  "type": "uint64"
                }
              ],
              "internalType": "struct Origin",
              "name": "origin",
              "type": "tuple"
            },
            {
              "internalType": "uint32",
              "name": "dstEid",
              "type": "uint32"
            },
            {
              "internalType": "address",
              "name": "receiver",
              "type": "address"
            },
            {
              "internalType": "bytes32",
              "name": "guid",
              "type": "bytes32"
            },
            {
              "internalType": "uint256",
              "name": "value",
              "type": "uint256"
            },
            {
              "internalType": "address",
              "name": "executor",
              "type": "address"
            },
            {
              "internalType": "bytes",
              "name": "message",
              "type": "bytes"
            },
            {
              "internalType": "bytes",
              "name": "extraData",
              "type": "bytes"
            }
          ],
          "internalType": "struct InboundPacket[]",
          "name": "_packets",
          "type": "tuple[]"
        }
      ],
      "name": "lzReceiveAndRevert",
      "outputs": [],
      "stateMutability": "payable",
      "type": "function"
    },
    {
      "inputs": [
        {
          "components": [
            {
              "internalType": "uint32",
              "name": "srcEid",
              "type": "uint32"
            },
            {
              "internalType": "bytes32",
              "name": "sender",
              "type": "bytes32"
            },
            {
              "internalType": "uint64",
              "name": "nonce",
              "type": "uint64"
            }
          ],
          "internalType": "struct Origin",
          "name": "_origin",
          "type": "tuple"
        },
        {
          "internalType": "bytes32",
          "name": "_guid",
          "type": "bytes32"
        },
        {
          "internalType": "bytes",
          "name": "_message",
          "type": "bytes"
        },
        {
          "internalType": "address",
          "name": "_executor",
          "type": "address"
        },
        {
          "internalType": "bytes",
          "name": "_extraData",
          "type": "bytes"
        }
      ],
      "name": "lzReceiveSimulate",
      "outputs": [],
      "stateMutability": "payable",
      "type": "function"
    },
    {
      "inputs": [],
      "name": "msgInspector",
      "outputs": [
        {
          "internalType": "address",
          "name": "",
          "type": "address"
        }
      ],
      "stateMutability": "view",
      "type": "function"
    },
    {
      "inputs": [
        {
          "internalType": "uint32",
          "name": "",
          "type": "uint32"
        },
        {
          "internalType": "bytes32",
          "name": "",
          "type": "bytes32"
        }
      ],
      "name": "nextNonce",
      "outputs": [
        {
          "internalType": "uint64",
          "name": "nonce",
          "type": "uint64"
        }
      ],
      "stateMutability": "view",
      "type": "function"
    },
    {
      "inputs": [],
      "name": "oApp",
      "outputs": [
        {
          "internalType": "address",
          "name": "",
          "type": "address"
        }
      ],
      "stateMutability": "view",
      "type": "function"
    },
    {
      "inputs": [],
      "name": "oAppVersion",
      "outputs": [
        {
          "internalType": "uint64",
          "name": "senderVersion",
          "type": "uint64"
        },
        {
          "internalType": "uint64",
          "name": "receiverVersion",
          "type": "uint64"
        }
      ],
      "stateMutability": "pure",
      "type": "function"
    },
    {
      "inputs": [
        {
          "internalType": "address",
          "name": "",
          "type": "address"
        },
        {
          "internalType": "address",
          "name": "",
          "type": "address"
        },
        {
          "internalType": "uint256",
          "name": "",
          "type": "uint256"
        },
        {
          "internalType": "bytes",
          "name": "",
          "type": "bytes"
        }
      ],
      "name": "onERC721Received",
      "outputs": [
        {
          "internalType": "bytes4",
          "name": "",
          "type": "bytes4"
        }
      ],
      "stateMutability": "pure",
      "type": "function"
    },
    {
      "inputs": [],
      "name": "onftVersion",
      "outputs": [
        {
          "internalType": "bytes4",
          "name": "interfaceId",
          "type": "bytes4"
        },
        {
          "internalType": "uint64",
          "name": "version",
          "type": "uint64"
        }
      ],
      "stateMutability": "pure",
      "type": "function"
    },
    {
      "inputs": [
        {
          "internalType": "address",
          "name": "",
          "type": "address"
        }
      ],
      "name": "originalToHomeEid",
      "outputs": [
        {
          "internalType": "uint32",
          "name": "",
          "type": "uint32"
        }
      ],
      "stateMutability": "view",
      "type": "function"
    },
    {
      "inputs": [
        {
          "internalType": "address",
          "name": "",
          "type": "address"
        }
      ],
      "name": "originalToWrapper",
      "outputs": [
        {
          "internalType": "address",
          "name": "",
          "type": "address"
        }
      ],
      "stateMutability": "view",
      "type": "function"
    },
    {
      "inputs": [],
      "name": "owner",
      "outputs": [
        {
          "internalType": "address",
          "name": "",
          "type": "address"
        }
      ],
      "stateMutability": "view",
      "type": "function"
    },
    {
      "inputs": [
        {
          "internalType": "uint32",
          "name": "eid",
          "type": "uint32"
        }
      ],
      "name": "peers",
      "outputs": [
        {
          "internalType": "bytes32",
          "name": "peer",
          "type": "bytes32"
        }
      ],
      "stateMutability": "view",
      "type": "function"
    },
    {
      "inputs": [],
      "name": "preCrime",
      "outputs": [
        {
          "internalType": "address",
          "name": "",
          "type": "address"
        }
      ],
      "stateMutability": "view",
      "type": "function"
    },
    {
      "inputs": [
        {
          "internalType": "address",
          "name": "_localToken",
          "type": "address"
        },
        {
          "internalType": "uint32",
          "name": "_dstEid",
          "type": "uint32"
        },
        {
          "internalType": "address",
          "name": "_to",
          "type": "address"
        },
        {
          "internalType": "uint256[]",
          "name": "_tokenIds",
          "type": "uint256[]"
        },
        {
          "internalType": "bytes",
          "name": "_options",
          "type": "bytes"
        },
        {
          "internalType": "bool",
          "name": "_payInLzToken",
          "type": "bool"
        }
      ],
      "name": "quoteBridgeSend",
      "outputs": [
        {
          "components": [
            {
              "internalType": "uint256",
              "name": "nativeFee",
              "type": "uint256"
            },
            {
              "internalType": "uint256",
              "name": "lzTokenFee",
              "type": "uint256"
            }
          ],
          "internalType": "struct MessagingFee",
          "name": "fee",
          "type": "tuple"
        }
      ],
      "stateMutability": "view",
      "type": "function"
    },
    {
      "inputs": [
        {
          "components": [
            {
              "internalType": "uint32",
              "name": "dstEid",
              "type": "uint32"
            },
            {
              "internalType": "bytes32",
              "name": "to",
              "type": "bytes32"
            },
            {
              "internalType": "uint256",
              "name": "tokenId",
              "type": "uint256"
            },
            {
              "internalType": "bytes",
              "name": "extraOptions",
              "type": "bytes"
            },
            {
              "internalType": "bytes",
              "name": "composeMsg",
              "type": "bytes"
            },
            {
              "internalType": "bytes",
              "name": "onftCmd",
              "type": "bytes"
            }
          ],
          "internalType": "struct SendParam",
          "name": "_sendParam",
          "type": "tuple"
        },
        {
          "internalType": "bool",
          "name": "_payInLzToken",
          "type": "bool"
        }
      ],
      "name": "quoteSend",
      "outputs": [
        {
          "components": [
            {
              "internalType": "uint256",
              "name": "nativeFee",
              "type": "uint256"
            },
            {
              "internalType": "uint256",
              "name": "lzTokenFee",
              "type": "uint256"
            }
          ],
          "internalType": "struct MessagingFee",
          "name": "msgFee",
          "type": "tuple"
        }
      ],
      "stateMutability": "view",
      "type": "function"
    },
    {
      "inputs": [
        {
          "internalType": "address",
          "name": "_token",
          "type": "address"
        }
      ],
      "name": "registerToken",
      "outputs": [],
      "stateMutability": "nonpayable",
      "type": "function"
    },
    {
      "inputs": [],
      "name": "renounceOwnership",
      "outputs": [],
      "stateMutability": "nonpayable",
      "type": "function"
    },
    {
      "inputs": [
        {
          "components": [
            {
              "internalType": "uint32",
              "name": "dstEid",
              "type": "uint32"
            },
            {
              "internalType": "bytes32",
              "name": "to",
              "type": "bytes32"
            },
            {
              "internalType": "uint256",
              "name": "tokenId",
              "type": "uint256"
            },
            {
              "internalType": "bytes",
              "name": "extraOptions",
              "type": "bytes"
            },
            {
              "internalType": "bytes",
              "name": "composeMsg",
              "type": "bytes"
            },
            {
              "internalType": "bytes",
              "name": "onftCmd",
              "type": "bytes"
            }
          ],
          "internalType": "struct SendParam",
          "name": "_sendParam",
          "type": "tuple"
        },
        {
          "components": [
            {
              "internalType": "uint256",
              "name": "nativeFee",
              "type": "uint256"
            },
            {
              "internalType": "uint256",
              "name": "lzTokenFee",
              "type": "uint256"
            }
          ],
          "internalType": "struct MessagingFee",
          "name": "_fee",
          "type": "tuple"
        },
        {
          "internalType": "address",
          "name": "_refundAddress",
          "type": "address"
        }
      ],
      "name": "send",
      "outputs": [
        {
          "components": [
            {
              "internalType": "bytes32",
              "name": "guid",
              "type": "bytes32"
            },
            {
              "internalType": "uint64",
              "name": "nonce",
              "type": "uint64"
            },
            {
              "components": [
                {
                  "internalType": "uint256",
                  "name": "nativeFee",
                  "type": "uint256"
                },
                {
                  "internalType": "uint256",
                  "name": "lzTokenFee",
                  "type": "uint256"
                }
              ],
              "internalType": "struct MessagingFee",
              "name": "fee",
              "type": "tuple"
            }
          ],
          "internalType": "struct MessagingReceipt",
          "name": "msgReceipt",
          "type": "tuple"
        }
      ],
      "stateMutability": "payable",
      "type": "function"
    },
    {
      "inputs": [
        {
          "internalType": "address",
          "name": "_delegate",
          "type": "address"
        }
      ],
      "name": "setDelegate",
      "outputs": [],
      "stateMutability": "nonpayable",
      "type": "function"
    },
    {
      "inputs": [
        {
          "components": [
            {
              "internalType": "uint32",
              "name": "eid",
              "type": "uint32"
            },
            {
              "internalType": "uint16",
              "name": "msgType",
              "type": "uint16"
            },
            {
              "internalType": "bytes",
              "name": "options",
              "type": "bytes"
            }
          ],
          "internalType": "struct EnforcedOptionParam[]",
          "name": "_enforcedOptions",
          "type": "tuple[]"
        }
      ],
      "name": "setEnforcedOptions",
      "outputs": [],
      "stateMutability": "nonpayable",
      "type": "function"
    },
    {
      "inputs": [
        {
          "internalType": "address",
          "name": "_msgInspector",
          "type": "address"
        }
      ],
      "name": "setMsgInspector",
      "outputs": [],
      "stateMutability": "nonpayable",
      "type": "function"
    },
    {
      "inputs": [
        {
          "internalType": "uint32",
          "name": "_eid",
          "type": "uint32"
        },
        {
          "internalType": "bytes32",
          "name": "_peer",
          "type": "bytes32"
        }
      ],
      "name": "setPeer",
      "outputs": [],
      "stateMutability": "nonpayable",
      "type": "function"
    },
    {
      "inputs": [
        {
          "internalType": "address",
          "name": "_preCrime",
          "type": "address"
        }
      ],
      "name": "setPreCrime",
      "outputs": [],
      "stateMutability": "nonpayable",
      "type": "function"
    },
    {
      "inputs": [
        {
          "internalType": "address",
          "name": "",
          "type": "address"
        }
      ],
      "name": "supportedTokens",
      "outputs": [
        {
          "internalType": "bool",
          "name": "",
          "type": "bool"
        }
      ],
      "stateMutability": "view",
      "type": "function"
    },
    {
      "inputs": [],
      "name": "token",
      "outputs": [
        {
          "internalType": "address",
          "name": "",
          "type": "address"
        }
      ],
      "stateMutability": "pure",
      "type": "function"
    },
    {
      "inputs": [
        {
          "internalType": "address",
          "name": "newOwner",
          "type": "address"
        }
      ],
      "name": "transferOwnership",
      "outputs": [],
      "stateMutability": "nonpayable",
      "type": "function"
    },
    {
      "inputs": [
        {
          "internalType": "address",
          "name": "_token",
          "type": "address"
        }
      ],
      "name": "unregisterToken",
      "outputs": [],
      "stateMutability": "nonpayable",
      "type": "function"
    },
    {
      "inputs": [],
      "name": "wrappedImplementation",
      "outputs": [
        {
          "internalType": "address",
          "name": "",
          "type": "address"
        }
      ],
      "stateMutability": "view",
      "type": "function"
    },
    {
      "inputs": [
        {
          "internalType": "address",
          "name": "",
          "type": "address"
        }
      ],
      "name": "wrapperToOriginal",
      "outputs": [
        {
          "internalType": "address",
          "name": "",
          "type": "address"
        }
      ],
      "stateMutability": "view",
      "type": "function"
    }
  ],
  "transactionHash": "0xc7fd57d591dacc26fb6e7cde8c24c2817ef92863327244291108648d1cfa2a17",
  "args": [
    "0x6EDCE65403992e310A62460808c4b910D972f10f",
    "0xB9DCA4c38547Aea56C1036aa421b4DA083e62bcc"
  ],
  "numDeployments": 1,
  "solcInputHash": "b03f44270e213ed5c687a186baa1cbcd",
  "bytecode": "0x60c06040523480156200001157600080fd5b5060405162005235380380620052358339810160408190526200003491620001c7565b818181818181806001600160a01b0381166200006a57604051631e4fbdf760e01b81526000600482015260240160405180910390fd5b62000075816200014c565b506001600160a01b038083166080528116620000a457604051632d618d8160e21b815260040160405180910390fd5b60805160405163ca5eb5e160e01b81526001600160a01b0383811660048301529091169063ca5eb5e190602401600060405180830381600087803b158015620000ec57600080fd5b505af115801562000101573d6000803e3d6000fd5b5050505050505050505060405162000119906200019c565b604051809103906000f08015801562000136573d6000803e3d6000fd5b506001600160a01b031660a05250620001ff9050565b600080546001600160a01b038381166001600160a01b0319831681178455604051919092169283917f8be0079c531659141344cd1fd0a4f28419497f9722a3daafe3b4186f6b6457e09190a35050565b61154d8062003ce883390190565b80516001600160a01b0381168114620001c257600080fd5b919050565b60008060408385031215620001db57600080fd5b620001e683620001aa565b9150620001f660208401620001aa565b90509250929050565b60805160a051613a8462000264600039600081816107b101526124d201526000818161048f01528181610ab201528181610f250152818161188601528181611a8c01528181611c3401528181611f67015281816123ed01526124a60152613a846000f3fe6080604052600436106102515760003560e01c80638da5cb5b11610139578063c6414e7b116100b6578063d71063871161007a578063d71063871461079f578063daa09e54146107d3578063e41c0a8d146107f3578063f2fde38b1461082c578063fc0c546a1461084c578063ff7bd03d1461086057600080fd5b8063c6414e7b146106e4578063ca5eb5e114610704578063d045a0dc14610724578063d05a5e0514610737578063d42438851461077f57600080fd5b8063b98bd070116100fd578063b98bd07014610620578063bb0b6a5314610640578063bc70b3541461067b578063bd815db01461069b578063c60b309a146106ae57600080fd5b80638da5cb5b146105915780639f68b964146105af578063a72f5dd8146105c3578063b21a33e4146105eb578063b731ea0a1461060057600080fd5b806352ae2879116101d257806368c4ac261161019657806368c4ac26146104b15780636fc1b31e146104e1578063715018a61461050157806377860cdd146105165780637d25a05e1461053657806382413eac1461057157600080fd5b806352ae2879146103d75780635535d461146103ea578063560808b3146104175780635a0dfe4d1461044d5780635e280f111461047d57600080fd5b806315f3f9501161021957806315f3f9501461032057806317442b701461034d5780631f5e13341461036f57806321eb730b146103975780633400288b146103b757600080fd5b806307100cc11461025657806309824a801461026b578063111ecdad1461028b57806313137d65146102c8578063150b7a02146102db575b600080fd5b6102696102643660046128d3565b610880565b005b34801561027757600080fd5b506102696102863660046129a0565b610e53565b34801561029757600080fd5b506004546102ab906001600160a01b031681565b6040516001600160a01b0390911681526020015b60405180910390f35b6102696102d63660046129d6565b610f23565b3480156102e757600080fd5b506103076102f6366004612a75565b630a85bd0160e11b95945050505050565b6040516001600160e01b031990911681526020016102bf565b34801561032c57600080fd5b5061034061033b366004612af5565b610fde565b6040516102bf9190612baf565b34801561035957600080fd5b50604080516001815260026020820152016102bf565b34801561037b57600080fd5b50610384600181565b60405161ffff90911681526020016102bf565b6103aa6103a5366004612bd8565b61127a565b6040516102bf9190612c3a565b3480156103c357600080fd5b506102696103d2366004612c7c565b611333565b3480156103e357600080fd5b50306102ab565b3480156103f657600080fd5b5061040a610405366004612cba565b611349565b6040516102bf9190612d3f565b34801561042357600080fd5b506102ab6104323660046129a0565b6007602052600090815260409020546001600160a01b031681565b34801561045957600080fd5b5061046d610468366004612c7c565b6113ee565b60405190151581526020016102bf565b34801561048957600080fd5b506102ab7f000000000000000000000000000000000000000000000000000000000000000081565b3480156104bd57600080fd5b5061046d6104cc3660046129a0565b60056020526000908152604090205460ff1681565b3480156104ed57600080fd5b506102696104fc3660046129a0565b61140d565b34801561050d57600080fd5b5061026961146a565b34801561052257600080fd5b506102696105313660046129a0565b61147e565b34801561054257600080fd5b50610559610551366004612c7c565b600092915050565b6040516001600160401b0390911681526020016102bf565b34801561057d57600080fd5b5061046d61058c366004612d52565b6114cf565b34801561059d57600080fd5b506000546001600160a01b03166102ab565b3480156105bb57600080fd5b50600161046d565b3480156105cf57600080fd5b50604080516311f0c6d360e11b815260016020820152016102bf565b3480156105f757600080fd5b50610384600281565b34801561060c57600080fd5b506002546102ab906001600160a01b031681565b34801561062c57600080fd5b5061026961063b366004612db8565b6114e4565b34801561064c57600080fd5b5061066d61065b366004612df9565b60016020526000908152604090205481565b6040519081526020016102bf565b34801561068757600080fd5b5061040a610696366004612e16565b6114fe565b6102696106a9366004612db8565b6116a6565b3480156106ba57600080fd5b506102ab6106c93660046129a0565b6006602052600090815260409020546001600160a01b031681565b3480156106f057600080fd5b506103406106ff366004612e78565b611819565b34801561071057600080fd5b5061026961071f3660046129a0565b61185f565b6102696107323660046129d6565b6118e5565b34801561074357600080fd5b5061076a6107523660046129a0565b60086020526000908152604090205463ffffffff1681565b60405163ffffffff90911681526020016102bf565b34801561078b57600080fd5b5061026961079a3660046129a0565b611914565b3480156107ab57600080fd5b506102ab7f000000000000000000000000000000000000000000000000000000000000000081565b3480156107df57600080fd5b5061046d6107ee3660046129a0565b61196a565b3480156107ff57600080fd5b506102ab61080e3660046129a0565b6001600160a01b039081166000908152600660205260409020541690565b34801561083857600080fd5b506102696108473660046129a0565b6119e5565b34801561085857600080fd5b5060006102ab565b34801561086c57600080fd5b5061046d61087b366004612ec9565b611a23565b6001600160a01b0389166108af5760405162461bcd60e51b81526004016108a690612ee5565b60405180910390fd5b6001600160a01b03891660009081526005602052604090205460ff16610919576001600160a01b038916600081815260056020526040808220805460ff19166001179055517f158412daecdc1456d01568828bcdb18464cc7f1ce0215ddbc3f3cfede9d1e63d9190a25b6001600160a01b03808a16600090815260076020526040812054909182918c911615610a62576001600160a01b0380821660009081526007602090815260408083205490931680835260089091529181205491945063ffffffff90911692505b88811015610a5c57816001600160a01b03166342966c688b8b848181106109a2576109a2612f14565b905060200201356040518263ffffffff1660e01b81526004016109c791815260200190565b600060405180830381600087803b1580156109e157600080fd5b505af11580156109f5573d6000803e3d6000fd5b50505050816001600160a01b03167f400346d745659193126984d01bf0b252927518058d8fe33671fce5b1179bf0748b8b84818110610a3657610a36612f14565b90506020020135604051610a4c91815260200190565b60405180910390a2600101610979565b50610bdf565b610a6b8161196a565b610aad5760405162461bcd60e51b81526020600482015260136024820152722737ba1030b71022a9219b9918903a37b5b2b760691b60448201526064016108a6565b8092507f00000000000000000000000000000000000000000000000000000000000000006001600160a01b031663416ecebf6040518163ffffffff1660e01b8152600401602060405180830381865afa158015610b0e573d6000803e3d6000fd5b505050506040513d601f19601f82011682018060405250810190610b329190612f2a565b915060005b88811015610bdd57816001600160a01b03166342842e0e33308d8d86818110610b6257610b62612f14565b6040516001600160e01b031960e088901b1681526001600160a01b03958616600482015294909316602485015250602090910201356044820152606401600060405180830381600087803b158015610bb957600080fd5b505af1158015610bcd573d6000803e3d6000fd5b505060019092019150610b379050565b505b60608060008a6001600160401b03811115610bfc57610bfc612f47565b604051908082528060200260200182016040528015610c2f57816020015b6060815260200190600190039081610c1a5790505b509050836001600160a01b03166306fdde036040518163ffffffff1660e01b8152600401600060405180830381865afa925050508015610c9157506040513d6000823e601f3d908101601f19168201604052610c8e9190810190613033565b60015b15610c995792505b836001600160a01b03166395d89b416040518163ffffffff1660e01b8152600401600060405180830381865afa925050508015610cf857506040513d6000823e601f3d908101601f19168201604052610cf59190810190613033565b60015b15610d005791505b60005b8b811015610dbc57846001600160a01b031663c87b56dd8e8e84818110610d2c57610d2c612f14565b905060200201356040518263ffffffff1660e01b8152600401610d5191815260200190565b600060405180830381865afa925050508015610d8f57506040513d6000823e601f3d908101601f19168201604052610d8c9190810190613033565b60015b15610db45780838381518110610da757610da7612f14565b6020026020010181905250505b600101610d03565b5060008d8d8d888a888888604051602001610dde9897969594939291906130d5565b6040516020818303038152906040529050610e408f828d8d8080601f016020809104026020016040519081016040528093929190818152602001838380828437600092019190915250610e3a92505050368e90038e018e613179565b8c611a59565b5050505050505050505050505050505050565b6001600160a01b038116610e795760405162461bcd60e51b81526004016108a690612ee5565b6001600160a01b03811660009081526005602052604090205460ff1615610ed75760405162461bcd60e51b8152602060048201526012602482015271105b1c9958591e481c9959da5cdd195c995960721b60448201526064016108a6565b6001600160a01b038116600081815260056020526040808220805460ff19166001179055517f158412daecdc1456d01568828bcdb18464cc7f1ce0215ddbc3f3cfede9d1e63d9190a250565b7f00000000000000000000000000000000000000000000000000000000000000006001600160a01b03163314610f6e576040516391ac5e4f60e01b81523360048201526024016108a6565b60208701803590610f8890610f83908a612df9565b611b64565b14610fc657610f9a6020880188612df9565b60405163309afaf360e21b815263ffffffff9091166004820152602088013560248201526044016108a6565b610fd587878787878787611ba0565b50505050505050565b60408051808201909152600080825260208201526001600160a01b0389166110185760405162461bcd60e51b81526004016108a690612ee5565b886060806000886001600160401b0381111561103657611036612f47565b60405190808252806020026020018201604052801561106957816020015b60608152602001906001900390816110545790505b509050836001600160a01b03166306fdde036040518163ffffffff1660e01b8152600401600060405180830381865afa9250505080156110cb57506040513d6000823e601f3d908101601f191682016040526110c89190810190613033565b60015b156110d35792505b836001600160a01b03166395d89b416040518163ffffffff1660e01b8152600401600060405180830381865afa92505050801561113257506040513d6000823e601f3d908101601f1916820160405261112f9190810190613033565b60015b1561113a5791505b60005b898110156111f657846001600160a01b031663c87b56dd8c8c8481811061116657611166612f14565b905060200201356040518263ffffffff1660e01b815260040161118b91815260200190565b600060405180830381865afa9250505080156111c957506040513d6000823e601f3d908101601f191682016040526111c69190810190613033565b60015b156111ee57808383815181106111e1576111e1612f14565b6020026020010181905250505b60010161113d565b5060008b8b8b6000808888886040516020016112199897969594939291906130d5565b60408051601f198184030181526020601f8c018190048102840181019092528a83529250611268918f918491908d908d90819084018382808284376000920191909152508d9250611f51915050565b9e9d5050505050505050505050505050565b6112826127b6565b61129d3360408601356112986020880188612df9565b612029565b6000806112a98661207d565b90925090506112d56112be6020880188612df9565b83836112cf368a90038a018a613179565b88611a59565b805190935033907f986156872b2ee0022b9585231dbbfde457f87f8a16b6c45e1a81c54c4ad8351f61130a60208a018a612df9565b6040805163ffffffff9092168252808b013560208301520160405180910390a350509392505050565b61133b6121bc565b61134582826121e9565b5050565b60036020908152600092835260408084209091529082529020805461136d906131ab565b80601f0160208091040260200160405190810160405280929190818152602001828054611399906131ab565b80156113e65780601f106113bb576101008083540402835291602001916113e6565b820191906000526020600020905b8154815290600101906020018083116113c957829003601f168201915b505050505081565b63ffffffff821660009081526001602052604090205481145b92915050565b6114156121bc565b600480546001600160a01b0319166001600160a01b0383169081179091556040519081527ff0be4f1e87349231d80c36b33f9e8639658eeaf474014dee15a3e6a4d4414197906020015b60405180910390a150565b6114726121bc565b61147c600061223e565b565b6114866121bc565b6001600160a01b038116600081815260056020526040808220805460ff19169055517fb02d270f645215800cec778b856004c753ad0c8c6ca520a91a8399acf4c63d4b9190a250565b6001600160a01b03811630145b949350505050565b6114ec6121bc565b6113456114f9828461323b565b61228e565b63ffffffff8416600090815260036020908152604080832061ffff87168452909152812080546060929190611532906131ab565b80601f016020809104026020016040519081016040528092919081815260200182805461155e906131ab565b80156115ab5780601f10611580576101008083540402835291602001916115ab565b820191906000526020600020905b81548152906001019060200180831161158e57829003601f168201915b5050505050905080516000036115fb5783838080601f0160208091040260200160405190810160405280939291908181526020018383808284376000920191909152509294506114dc9350505050565b600083900361160b5790506114dc565b600283106116895761165284848080601f01602080910402602001604051908101604052809392919081815260200183838082843760009201919091525061239592505050565b80611660846002818861331b565b60405160200161167293929190613345565b6040516020818303038152906040529150506114dc565b8383604051639a6d49cd60e01b81526004016108a6929190613396565b60005b8181101561179857368383838181106116c4576116c4612f14565b90506020028101906116d691906133aa565b90506116f26116e86020830183612df9565b60208301356113ee565b6116fc5750611790565b3063d045a0dc60c08301358360a081013561171b6101008301836133cb565b61172c610100890160e08a016129a0565b61173a6101208a018a6133cb565b6040518963ffffffff1660e01b815260040161175c9796959493929190613426565b6000604051808303818588803b15801561177557600080fd5b505af1158015611789573d6000803e3d6000fd5b5050505050505b6001016116a9565b50336001600160a01b0316638e9e70996040518163ffffffff1660e01b8152600401600060405180830381865afa1580156117d7573d6000803e3d6000fd5b505050506040513d6000823e601f3d908101601f191682016040526117ff9190810190613033565b604051638351eea760e01b81526004016108a69190612d3f565b60408051808201909152600080825260208201526000806118398561207d565b909250905061185661184e6020870187612df9565b838387611f51565b95945050505050565b6118676121bc565b60405163ca5eb5e160e01b81526001600160a01b0382811660048301527f0000000000000000000000000000000000000000000000000000000000000000169063ca5eb5e190602401600060405180830381600087803b1580156118ca57600080fd5b505af11580156118de573d6000803e3d6000fd5b5050505050565b3330146119055760405163029a949d60e31b815260040160405180910390fd5b610fd587878787878787610fc6565b61191c6121bc565b600280546001600160a01b0319166001600160a01b0383169081179091556040519081527fd48d879cef83a1c0bdda516f27b13ddb1b3f8bbac1c9e1511bb2a659c24277609060200161145f565b6040516301ffc9a760e01b81526380ac58cd60e01b60048201526000906001600160a01b038316906301ffc9a790602401602060405180830381865afa9250505080156119d4575060408051601f3d908101601f191682019092526119d1918101906134ae565b60015b61140757506000919050565b919050565b6119ed6121bc565b6001600160a01b038116611a1757604051631e4fbdf760e01b8152600060048201526024016108a6565b611a208161223e565b50565b6000602082018035906001908390611a3b9086612df9565b63ffffffff1681526020810191909152604001600020541492915050565b611a616127b6565b6000611a7084600001516123c1565b602085015190915015611a8a57611a8a84602001516123e9565b7f00000000000000000000000000000000000000000000000000000000000000006001600160a01b0316632637a450826040518060a001604052808b63ffffffff168152602001611ada8c611b64565b81526020018a815260200189815260200160008960200151111515815250866040518463ffffffff1660e01b8152600401611b169291906134cb565b60806040518083038185885af1158015611b34573d6000803e3d6000fd5b50505050506040513d601f19601f82011682018060405250810190611b599190613574565b979650505050505050565b63ffffffff8116600090815260016020526040812054806114075760405163f6ff4fb760e01b815263ffffffff841660048201526024016108a6565b6000808080808080611bb48b8d018d6136d2565b6001600160a01b038416600090815260056020526040902054969d50949b5092995090975095509350915060ff16611c30576001600160a01b038416600081815260056020526040808220805460ff19166001179055517f158412daecdc1456d01568828bcdb18464cc7f1ce0215ddbc3f3cfede9d1e63d9190a25b60007f00000000000000000000000000000000000000000000000000000000000000006001600160a01b031663416ecebf6040518163ffffffff1660e01b8152600401602060405180830381865afa158015611c90573d6000803e3d6000fd5b505050506040513d601f19601f82011682018060405250810190611cb49190612f2a565b90508063ffffffff168663ffffffff1603611dc757611cd28561196a565b611d145760405162461bcd60e51b81526020600482015260136024820152724e6f742061206e61746976652045524337323160681b60448201526064016108a6565b60005b8751811015611dc157856001600160a01b03166342842e0e308b8b8581518110611d4357611d43612f14565b60209081029190910101516040516001600160e01b031960e086901b1681526001600160a01b0393841660048201529290911660248301526044820152606401600060405180830381600087803b158015611d9d57600080fd5b505af1158015611db1573d6000803e3d6000fd5b505060019092019150611d179050565b50611f40565b6001600160a01b038086166000908152600660205260409020541680611e2057611df28686866124cb565b6001600160a01b0387166000908152600860205260409020805463ffffffff191663ffffffff8a1617905590505b60005b8851811015610e4057816001600160a01b031663d3fc98648b8b8481518110611e4e57611e4e612f14565b6020026020010151878581518110611e6857611e68612f14565b60200260200101516040518463ffffffff1660e01b8152600401611e8e939291906137b0565b600060405180830381600087803b158015611ea857600080fd5b505af1158015611ebc573d6000803e3d6000fd5b50505050866001600160a01b0316826001600160a01b03167f0e219696de478a7903e1288c38d14d4ca2edd2322099b0e9449602722ae9cd968b8481518110611f0757611f07612f14565b60200260200101518d604051611f309291909182526001600160a01b0316602082015260400190565b60405180910390a3600101611e23565b505050505050505050505050505050565b60408051808201909152600080825260208201527f00000000000000000000000000000000000000000000000000000000000000006001600160a01b031663ddc28c586040518060a001604052808863ffffffff168152602001611fb489611b64565b8152602001878152602001868152602001851515815250306040518363ffffffff1660e01b8152600401611fe99291906134cb565b6040805180830381865afa158015612005573d6000803e3d6000fd5b505050506040513d601f19601f8201168201806040525081019061185691906137d7565b60405162461bcd60e51b815260206004820152602360248201527f5573652062726964676553656e6420666f722064796e616d6963206272696467604482015262696e6760e81b60648201526084016108a6565b60608060208301356120a257604051631e4ec46b60e01b815260040160405180910390fd5b60006120f8602085013560408601356120be60808801886133cb565b8080601f0160208091040260200160405190810160405280939291908181526020018383808284376000920191909152506125dd92505050565b909350905060008161210b57600161210e565b60025b905061212e6121206020870187612df9565b8261069660608901896133cb565b6004549093506001600160a01b031680156121b45760405163043a78eb60e01b81526001600160a01b0382169063043a78eb9061217190889088906004016137f3565b602060405180830381865afa15801561218e573d6000803e3d6000fd5b505050506040513d601f19601f820116820180604052508101906121b291906134ae565b505b505050915091565b6000546001600160a01b0316331461147c5760405163118cdaa760e01b81523360048201526024016108a6565b63ffffffff8216600081815260016020908152604091829020849055815192835282018390527f238399d427b947898edb290f5ff0f9109849b1c3ba196a42e35f00c50a54b98b910160405180910390a15050565b600080546001600160a01b038381166001600160a01b0319831681178455604051919092169283917f8be0079c531659141344cd1fd0a4f28419497f9722a3daafe3b4186f6b6457e09190a35050565b60005b8151811015612365576122c08282815181106122af576122af612f14565b602002602001015160400151612395565b8181815181106122d2576122d2612f14565b602002602001015160400151600360008484815181106122f4576122f4612f14565b60200260200101516000015163ffffffff1663ffffffff168152602001908152602001600020600084848151811061232e5761232e612f14565b60200260200101516020015161ffff1661ffff168152602001908152602001600020908161235c9190613869565b50600101612291565b507fbe4864a8e820971c0247f5992e2da559595f7bf076a21cb5928d443d2a13b6748160405161145f9190613928565b600281015161ffff81166003146113455781604051639a6d49cd60e01b81526004016108a69190612d3f565b60008134146123e5576040516304fb820960e51b81523460048201526024016108a6565b5090565b60007f00000000000000000000000000000000000000000000000000000000000000006001600160a01b031663e4fe1d946040518163ffffffff1660e01b8152600401602060405180830381865afa158015612449573d6000803e3d6000fd5b505050506040513d601f19601f8201168201806040525081019061246d91906139b3565b90506001600160a01b038116612496576040516329b99a9560e11b815260040160405180910390fd5b6113456001600160a01b038216337f000000000000000000000000000000000000000000000000000000000000000085612642565b60006124f67f00000000000000000000000000000000000000000000000000000000000000006126a2565b6040516323c56d0560e21b81529091506001600160a01b03821690638f15b4149061252b9086908690899030906004016139d0565b600060405180830381600087803b15801561254557600080fd5b505af1158015612559573d6000803e3d6000fd5b505050506001600160a01b03848116600081815260066020908152604080832080549587166001600160a01b03199687168117909155808452600783529281902080549095168417909455925190815290917f317d343bad96f4924450e809267dcfa70e37270e3bb036b5d6d04e3befd47a64910160405180910390a29392505050565b8051606090151580612611576040805160208101879052908101859052606001604051602081830303815290604052612638565b848433856040516020016126289493929190613a1a565b6040516020818303038152906040525b9150935093915050565b604080516001600160a01b0385811660248301528416604482015260648082018490528251808303909101815260849091019091526020810180516001600160e01b03166323b872dd60e01b17905261269c9085906126af565b50505050565b6000611407826000612720565b600080602060008451602086016000885af1806126d2576040513d6000823e3d81fd5b50506000513d915081156126ea5780600114156126f7565b6001600160a01b0384163b155b1561269c57604051635274afe760e01b81526001600160a01b03851660048201526024016108a6565b60008147101561274c5760405163cf47918160e01b8152476004820152602481018390526044016108a6565b763d602d80600a3d3981f3363d3d373d3d3d363d730000008360601b60e81c176000526e5af43d82803e903d91602b57fd5bf38360781b176020526037600983f090506001600160a01b0381166114075760405163b06ebf3d60e01b815260040160405180910390fd5b60405180606001604052806000801916815260200160006001600160401b031681526020016127f8604051806040016040528060008152602001600081525090565b905290565b6001600160a01b0381168114611a2057600080fd5b63ffffffff81168114611a2057600080fd5b80356119e081612812565b60008083601f84011261284157600080fd5b5081356001600160401b0381111561285857600080fd5b6020830191508360208260051b850101111561287357600080fd5b9250929050565b60008083601f84011261288c57600080fd5b5081356001600160401b038111156128a357600080fd5b60208301915083602082850101111561287357600080fd5b6000604082840312156128cd57600080fd5b50919050565b60008060008060008060008060006101008a8c0312156128f257600080fd5b89356128fd816127fd565b985060208a013561290d81612812565b975060408a013561291d816127fd565b965060608a01356001600160401b038082111561293957600080fd5b6129458d838e0161282f565b909850965060808c013591508082111561295e57600080fd5b5061296b8c828d0161287a565b909550935061297f90508b60a08c016128bb565b915060e08a013561298f816127fd565b809150509295985092959850929598565b6000602082840312156129b257600080fd5b81356129bd816127fd565b9392505050565b6000606082840312156128cd57600080fd5b600080600080600080600060e0888a0312156129f157600080fd5b6129fb89896129c4565b96506060880135955060808801356001600160401b0380821115612a1e57600080fd5b612a2a8b838c0161287a565b909750955060a08a01359150612a3f826127fd565b90935060c08901359080821115612a5557600080fd5b50612a628a828b0161287a565b989b979a50959850939692959293505050565b600080600080600060808688031215612a8d57600080fd5b8535612a98816127fd565b94506020860135612aa8816127fd565b93506040860135925060608601356001600160401b03811115612aca57600080fd5b612ad68882890161287a565b969995985093965092949392505050565b8015158114611a2057600080fd5b60008060008060008060008060c0898b031215612b1157600080fd5b8835612b1c816127fd565b97506020890135612b2c81612812565b96506040890135612b3c816127fd565b955060608901356001600160401b0380821115612b5857600080fd5b612b648c838d0161282f565b909750955060808b0135915080821115612b7d57600080fd5b50612b8a8b828c0161287a565b90945092505060a0890135612b9e81612ae7565b809150509295985092959890939650565b815181526020808301519082015260408101611407565b600060c082840312156128cd57600080fd5b600080600060808486031215612bed57600080fd5b83356001600160401b03811115612c0357600080fd5b612c0f86828701612bc6565b935050612c1f85602086016128bb565b91506060840135612c2f816127fd565b809150509250925092565b6000608082019050825182526001600160401b0360208401511660208301526040830151612c75604084018280518252602090810151910152565b5092915050565b60008060408385031215612c8f57600080fd5b8235612c9a81612812565b946020939093013593505050565b803561ffff811681146119e057600080fd5b60008060408385031215612ccd57600080fd5b8235612cd881612812565b9150612ce660208401612ca8565b90509250929050565b60005b83811015612d0a578181015183820152602001612cf2565b50506000910152565b60008151808452612d2b816020860160208601612cef565b601f01601f19169290920160200192915050565b6020815260006129bd6020830184612d13565b60008060008060a08587031215612d6857600080fd5b612d7286866129c4565b935060608501356001600160401b03811115612d8d57600080fd5b612d998782880161287a565b9094509250506080850135612dad816127fd565b939692955090935050565b60008060208385031215612dcb57600080fd5b82356001600160401b03811115612de157600080fd5b612ded8582860161282f565b90969095509350505050565b600060208284031215612e0b57600080fd5b81356129bd81612812565b60008060008060608587031215612e2c57600080fd5b8435612e3781612812565b9350612e4560208601612ca8565b925060408501356001600160401b03811115612e6057600080fd5b612e6c8782880161287a565b95989497509550505050565b60008060408385031215612e8b57600080fd5b82356001600160401b03811115612ea157600080fd5b612ead85828601612bc6565b9250506020830135612ebe81612ae7565b809150509250929050565b600060608284031215612edb57600080fd5b6129bd83836129c4565b602080825260159082015274496e76616c696420746f6b656e206164647265737360581b604082015260600190565b634e487b7160e01b600052603260045260246000fd5b600060208284031215612f3c57600080fd5b81516129bd81612812565b634e487b7160e01b600052604160045260246000fd5b604080519081016001600160401b0381118282101715612f7f57612f7f612f47565b60405290565b604051606081016001600160401b0381118282101715612f7f57612f7f612f47565b604051601f8201601f191681016001600160401b0381118282101715612fcf57612fcf612f47565b604052919050565b60006001600160401b03821115612ff057612ff0612f47565b50601f01601f191660200190565b600061301161300c84612fd7565b612fa7565b905082815283838301111561302557600080fd5b6129bd836020830184612cef565b60006020828403121561304557600080fd5b81516001600160401b0381111561305b57600080fd5b8201601f8101841361306c57600080fd5b6114dc84825160208401612ffe565b60008282518085526020808601955060208260051b8401016020860160005b848110156130c857601f198684030189526130b6838351612d13565b9884019892509083019060010161309a565b5090979650505050505050565b6001600160a01b03898116825260e06020830181905282018890526000906101006001600160fb1b038a111561310a57600080fd5b8960051b808c8387013763ffffffff8a166040860152888316606086015284018481038201608086015261314082820189612d13565b9250505082810360a08401526131568186612d13565b905082810360c084015261316a818561307b565b9b9a5050505050505050505050565b60006040828403121561318b57600080fd5b613193612f5d565b82358152602083013560208201528091505092915050565b600181811c908216806131bf57607f821691505b6020821081036128cd57634e487b7160e01b600052602260045260246000fd5b60006001600160401b038211156131f8576131f8612f47565b5060051b60200190565b600061321061300c84612fd7565b905082815283838301111561322457600080fd5b828260208301376000602084830101529392505050565b600061324961300c846131df565b80848252602080830192508560051b85013681111561326757600080fd5b855b8181101561330f5780356001600160401b03808211156132895760008081fd5b81890191506060823603121561329f5760008081fd5b6132a7612f85565b82356132b281612812565b81526132bf838701612ca8565b86820152604080840135838111156132d75760008081fd5b939093019236601f8501126132ee57600092508283fd5b6132fc368535898701613202565b9082015287525050938201938201613269565b50919695505050505050565b6000808585111561332b57600080fd5b8386111561333857600080fd5b5050820193919092039150565b60008451613357818460208901612cef565b8201838582376000930192835250909392505050565b81835281816020850137506000828201602090810191909152601f909101601f19169091010190565b6020815260006114dc60208301848661336d565b6000823561013e198336030181126133c157600080fd5b9190910192915050565b6000808335601e198436030181126133e257600080fd5b8301803591506001600160401b038211156133fc57600080fd5b60200191503681900382131561287357600080fd5b6001600160401b0381168114611a2057600080fd5b6000883561343381612812565b63ffffffff16825260208981013590830152604089013561345381613411565b6001600160401b03811660408401525087606083015260e0608083015261347e60e08301878961336d565b6001600160a01b03861660a084015282810360c08401526134a081858761336d565b9a9950505050505050505050565b6000602082840312156134c057600080fd5b81516129bd81612ae7565b6040815263ffffffff8351166040820152602083015160608201526000604084015160a0608084015261350160e0840182612d13565b90506060850151603f198483030160a085015261351e8282612d13565b60809690960151151560c08501525050506001600160a01b039190911660209091015290565b60006040828403121561355657600080fd5b61355e612f5d565b9050815181526020820151602082015292915050565b60006080828403121561358657600080fd5b61358e612f85565b8251815260208301516135a081613411565b60208201526135b28460408501613544565b60408201529392505050565b80356119e0816127fd565b600082601f8301126135da57600080fd5b813560206135ea61300c836131df565b8083825260208201915060208460051b87010193508684111561360c57600080fd5b602086015b848110156136285780358352918301918301613611565b509695505050505050565b600082601f83011261364457600080fd5b6129bd83833560208501613202565b600082601f83011261366457600080fd5b8135602061367461300c836131df565b82815260059290921b8401810191818101908684111561369357600080fd5b8286015b848110156136285780356001600160401b038111156136b65760008081fd5b6136c48986838b0101613633565b845250918301918301613697565b600080600080600080600060e0888a0312156136ed57600080fd5b6136f6886135be565b965060208801356001600160401b038082111561371257600080fd5b61371e8b838c016135c9565b975061372c60408b01612824565b965061373a60608b016135be565b955060808a013591508082111561375057600080fd5b61375c8b838c01613633565b945060a08a013591508082111561377257600080fd5b61377e8b838c01613633565b935060c08a013591508082111561379457600080fd5b506137a18a828b01613653565b91505092959891949750929550565b60018060a01b03841681528260208201526060604082015260006118566060830184612d13565b6000604082840312156137e957600080fd5b6129bd8383613544565b6040815260006138066040830185612d13565b82810360208401526118568185612d13565b601f821115613864576000816000526020600020601f850160051c810160208610156138415750805b601f850160051c820191505b818110156138605782815560010161384d565b5050505b505050565b81516001600160401b0381111561388257613882612f47565b6138968161389084546131ab565b84613818565b602080601f8311600181146138cb57600084156138b35750858301515b600019600386901b1c1916600185901b178555613860565b600085815260208120601f198616915b828110156138fa578886015182559484019460019091019084016138db565b50858210156139185787850151600019600388901b60f8161c191681555b5050505050600190811b01905550565b600060208083018184528085518083526040925060408601915060408160051b87010184880160005b838110156139a557888303603f190185528151805163ffffffff1684528781015161ffff1688850152860151606087850181905261399181860183612d13565b968901969450505090860190600101613951565b509098975050505050505050565b6000602082840312156139c557600080fd5b81516129bd816127fd565b6080815260006139e36080830187612d13565b82810360208401526139f58187612d13565b6001600160a01b03958616604085015293909416606090920191909152509392505050565b84815283602082015282604082015260008251613a3e816060850160208701612cef565b919091016060019594505050505056fea26469706673582212200b758a505ce7944beb546c79326135ce477c09398423ed7b3db349d6e1ebc96d64736f6c6343000816003360806040523480156200001157600080fd5b5060408051602080820183526000808352835191820190935282815230926200003b838262000187565b5060016200004a828262000187565b5050506001600160a01b0381166200007c57604051631e4fbdf760e01b81526000600482015260240160405180910390fd5b62000087816200008e565b5062000253565b600680546001600160a01b038381166001600160a01b0319831681179093556040519116919082907f8be0079c531659141344cd1fd0a4f28419497f9722a3daafe3b4186f6b6457e090600090a35050565b634e487b7160e01b600052604160045260246000fd5b600181811c908216806200010b57607f821691505b6020821081036200012c57634e487b7160e01b600052602260045260246000fd5b50919050565b601f82111562000182576000816000526020600020601f850160051c810160208610156200015d5750805b601f850160051c820191505b818110156200017e5782815560010162000169565b5050505b505050565b81516001600160401b03811115620001a357620001a3620000e0565b620001bb81620001b48454620000f6565b8462000132565b602080601f831160018114620001f35760008415620001da5750858301515b600019600386901b1c1916600185901b1785556200017e565b600085815260208120601f198616915b82811015620002245788860151825594840194600190910190840162000203565b5085821015620002435787850151600019600388901b60f8161c191681555b5050505050600190811b01905550565b6112ea80620002636000396000f3fe608060405234801561001057600080fd5b506004361061012c5760003560e01c8063715018a6116100ad578063b88d4fde11610071578063b88d4fde14610275578063c87b56dd14610288578063d3fc98641461029b578063e985e9c5146102ae578063f2fde38b146102c157600080fd5b8063715018a61461022e5780638da5cb5b146102365780638f15b4141461024757806395d89b411461025a578063a22cb4651461026257600080fd5b806323b872dd116100f457806323b872dd146101c157806342842e0e146101d457806342966c68146101e75780636352211e146101fa57806370a082311461020d57600080fd5b806301ffc9a71461013157806306fdde0314610159578063081812fc1461016e578063095ea7b3146101995780630e7c1cb5146101ae575b600080fd5b61014461013f366004610d72565b6102d4565b60405190151581526020015b60405180910390f35b610161610326565b6040516101509190610ddc565b61018161017c366004610def565b6103b8565b6040516001600160a01b039091168152602001610150565b6101ac6101a7366004610e24565b6103e1565b005b600854610181906001600160a01b031681565b6101ac6101cf366004610e4e565b6103f0565b6101ac6101e2366004610e4e565b610480565b6101ac6101f5366004610def565b6104a0565b610181610208366004610def565b6104cb565b61022061021b366004610e8a565b6104d6565b604051908152602001610150565b6101ac61051e565b6006546001600160a01b0316610181565b6101ac610255366004610f51565b610532565b610161610576565b6101ac610270366004610fd6565b610585565b6101ac610283366004611012565b610590565b610161610296366004610def565b6105a8565b6101ac6102a936600461108e565b610652565b6101446102bc3660046110e5565b61067c565b6101ac6102cf366004610e8a565b6106aa565b60006001600160e01b031982166380ac58cd60e01b148061030557506001600160e01b03198216635b5e139f60e01b145b8061032057506301ffc9a760e01b6001600160e01b03198316145b92915050565b60606009805461033590611118565b80601f016020809104026020016040519081016040528092919081815260200182805461036190611118565b80156103ae5780601f10610383576101008083540402835291602001916103ae565b820191906000526020600020905b81548152906001019060200180831161039157829003601f168201915b5050505050905090565b60006103c3826106e5565b506000828152600460205260409020546001600160a01b0316610320565b6103ec82823361071e565b5050565b6001600160a01b03821661041f57604051633250574960e11b8152600060048201526024015b60405180910390fd5b600061042c83833361072b565b9050836001600160a01b0316816001600160a01b03161461047a576040516364283d7b60e01b81526001600160a01b0380861660048301526024820184905282166044820152606401610416565b50505050565b61049b83838360405180602001604052806000815250610590565b505050565b6104a8610824565b6104b181610851565b60008181526007602052604081206104c891610d0e565b50565b6000610320826106e5565b60006001600160a01b038216610502576040516322718ad960e21b815260006004820152602401610416565b506001600160a01b031660009081526003602052604090205490565b610526610824565b610530600061088c565b565b61053b8161088c565b600880546001600160a01b0319166001600160a01b0384161790556009610562858261119a565b50600a61056f848261119a565b5050505050565b6060600a805461033590611118565b6103ec3383836108de565b61059b8484846103f0565b61047a338585858561097d565b60606105b3826106e5565b50600082815260076020526040902080546105cd90611118565b80601f01602080910402602001604051908101604052809291908181526020018280546105f990611118565b80156106465780601f1061061b57610100808354040283529160200191610646565b820191906000526020600020905b81548152906001019060200180831161062957829003601f168201915b50505050509050919050565b61065a610824565b6106648383610aa7565b600082815260076020526040902061047a828261119a565b6001600160a01b03918216600090815260056020908152604080832093909416825291909152205460ff1690565b6106b2610824565b6001600160a01b0381166106dc57604051631e4fbdf760e01b815260006004820152602401610416565b6104c88161088c565b6000818152600260205260408120546001600160a01b03168061032057604051637e27328960e01b815260048101849052602401610416565b61049b8383836001610ac1565b6000828152600260205260408120546001600160a01b039081169083161561075857610758818486610bc7565b6001600160a01b0381161561079657610775600085600080610ac1565b6001600160a01b038116600090815260036020526040902080546000190190555b6001600160a01b038516156107c5576001600160a01b0385166000908152600360205260409020805460010190555b60008481526002602052604080822080546001600160a01b0319166001600160a01b0389811691821790925591518793918516917fddf252ad1be2c89b69c2b068fc378daa952ba7f163c4a11628f55a4df523b3ef91a4949350505050565b6006546001600160a01b031633146105305760405163118cdaa760e01b8152336004820152602401610416565b6000610860600083600061072b565b90506001600160a01b0381166103ec57604051637e27328960e01b815260048101839052602401610416565b600680546001600160a01b038381166001600160a01b0319831681179093556040519116919082907f8be0079c531659141344cd1fd0a4f28419497f9722a3daafe3b4186f6b6457e090600090a35050565b6001600160a01b03821661091057604051630b61174360e31b81526001600160a01b0383166004820152602401610416565b6001600160a01b03838116600081815260056020908152604080832094871680845294825291829020805460ff191686151590811790915591519182527f17307eab39ab6107e8899845ad3d59bd9653f200f220920489ca2b5937696c31910160405180910390a3505050565b6001600160a01b0383163b1561056f57604051630a85bd0160e11b81526001600160a01b0384169063150b7a02906109bf90889088908790879060040161125a565b6020604051808303816000875af19250505080156109fa575060408051601f3d908101601f191682019092526109f791810190611297565b60015b610a63573d808015610a28576040519150601f19603f3d011682016040523d82523d6000602084013e610a2d565b606091505b508051600003610a5b57604051633250574960e11b81526001600160a01b0385166004820152602401610416565b805160208201fd5b6001600160e01b03198116630a85bd0160e11b14610a9f57604051633250574960e11b81526001600160a01b0385166004820152602401610416565b505050505050565b6103ec828260405180602001604052806000815250610c2b565b8080610ad557506001600160a01b03821615155b15610b97576000610ae5846106e5565b90506001600160a01b03831615801590610b115750826001600160a01b0316816001600160a01b031614155b8015610b245750610b22818461067c565b155b15610b4d5760405163a9fbf51f60e01b81526001600160a01b0384166004820152602401610416565b8115610b955783856001600160a01b0316826001600160a01b03167f8c5be1e5ebec7d5bd14f71427d1e84f3dd0314c0f7b2291e5b200ac8c7c3b92560405160405180910390a45b505b5050600090815260046020526040902080546001600160a01b0319166001600160a01b0392909216919091179055565b610bd2838383610c43565b61049b576001600160a01b038316610c0057604051637e27328960e01b815260048101829052602401610416565b60405163177e802f60e01b81526001600160a01b038316600482015260248101829052604401610416565b610c358383610ca9565b61049b33600085858561097d565b60006001600160a01b03831615801590610ca15750826001600160a01b0316846001600160a01b03161480610c7d5750610c7d848461067c565b80610ca157506000828152600460205260409020546001600160a01b038481169116145b949350505050565b6001600160a01b038216610cd357604051633250574960e11b815260006004820152602401610416565b6000610ce18383600061072b565b90506001600160a01b0381161561049b576040516339e3563760e11b815260006004820152602401610416565b508054610d1a90611118565b6000825580601f10610d2a575050565b601f0160209004906000526020600020908101906104c891905b80821115610d585760008155600101610d44565b5090565b6001600160e01b0319811681146104c857600080fd5b600060208284031215610d8457600080fd5b8135610d8f81610d5c565b9392505050565b6000815180845260005b81811015610dbc57602081850181015186830182015201610da0565b506000602082860101526020601f19601f83011685010191505092915050565b602081526000610d8f6020830184610d96565b600060208284031215610e0157600080fd5b5035919050565b80356001600160a01b0381168114610e1f57600080fd5b919050565b60008060408385031215610e3757600080fd5b610e4083610e08565b946020939093013593505050565b600080600060608486031215610e6357600080fd5b610e6c84610e08565b9250610e7a60208501610e08565b9150604084013590509250925092565b600060208284031215610e9c57600080fd5b610d8f82610e08565b634e487b7160e01b600052604160045260246000fd5b600067ffffffffffffffff80841115610ed657610ed6610ea5565b604051601f8501601f19908116603f01168101908282118183101715610efe57610efe610ea5565b81604052809350858152868686011115610f1757600080fd5b858560208301376000602087830101525050509392505050565b600082601f830112610f4257600080fd5b610d8f83833560208501610ebb565b60008060008060808587031215610f6757600080fd5b843567ffffffffffffffff80821115610f7f57600080fd5b610f8b88838901610f31565b95506020870135915080821115610fa157600080fd5b50610fae87828801610f31565b935050610fbd60408601610e08565b9150610fcb60608601610e08565b905092959194509250565b60008060408385031215610fe957600080fd5b610ff283610e08565b91506020830135801515811461100757600080fd5b809150509250929050565b6000806000806080858703121561102857600080fd5b61103185610e08565b935061103f60208601610e08565b925060408501359150606085013567ffffffffffffffff81111561106257600080fd5b8501601f8101871361107357600080fd5b61108287823560208401610ebb565b91505092959194509250565b6000806000606084860312156110a357600080fd5b6110ac84610e08565b925060208401359150604084013567ffffffffffffffff8111156110cf57600080fd5b6110db86828701610f31565b9150509250925092565b600080604083850312156110f857600080fd5b61110183610e08565b915061110f60208401610e08565b90509250929050565b600181811c9082168061112c57607f821691505b60208210810361114c57634e487b7160e01b600052602260045260246000fd5b50919050565b601f82111561049b576000816000526020600020601f850160051c8101602086101561117b5750805b601f850160051c820191505b81811015610a9f57828155600101611187565b815167ffffffffffffffff8111156111b4576111b4610ea5565b6111c8816111c28454611118565b84611152565b602080601f8311600181146111fd57600084156111e55750858301515b600019600386901b1c1916600185901b178555610a9f565b600085815260208120601f198616915b8281101561122c5788860151825594840194600190910190840161120d565b508582101561124a5787850151600019600388901b60f8161c191681555b5050505050600190811b01905550565b6001600160a01b038581168252841660208201526040810183905260806060820181905260009061128d90830184610d96565b9695505050505050565b6000602082840312156112a957600080fd5b8151610d8f81610d5c56fea2646970667358221220077063b33791cdc6f1673625d142fc89a7584b72a1ea74dd74884cc79efdcb9664736f6c63430008160033",
  "devdoc": {
    "details": "Symmetric bridge for ERC721 NFTs across chains, supporting both native and wrapped collections dynamically. Deploy this contract on both Conflux eSpace and Base for bidirectional bridging. Automatically distinguishes between native (lock/unlock) and wrapped (mint/burn) collections. Collections can originate from any chain; the first bridge defines the home chain. Payload includes homeEid and canonicalAddr for proper handling.",
    "errors": {
      "FailedDeployment()": [
        {
          "details": "The deployment failed."
        }
      ],
      "InsufficientBalance(uint256,uint256)": [
        {
          "details": "The ETH balance of the account is not enough to perform the operation."
        }
      ],
      "OwnableInvalidOwner(address)": [
        {
          "details": "The owner is not a valid owner account. (eg. `address(0)`)"
        }
      ],
      "OwnableUnauthorizedAccount(address)": [
        {
          "details": "The caller account is not authorized to perform an operation."
        }
      ],
      "SafeERC20FailedOperation(address)": [
        {
          "details": "An operation with an ERC-20 token failed."
        }
      ]
    },
    "events": {
      "PreCrimeSet(address)": {
        "details": "Emitted when the preCrime contract address is set.",
        "params": {
          "preCrimeAddress": "The address of the preCrime contract."
        }
      }
    },
    "kind": "dev",
    "methods": {
      "allowInitializePath((uint32,bytes32,uint64))": {
        "details": "This indicates to the endpoint that the OApp has enabled msgs for this particular path to be received.This defaults to assuming if a peer has been set, its initialized. Can be overridden by the OApp if there is other logic to determine this.",
        "params": {
          "origin": "The origin information containing the source endpoint and sender address."
        },
        "returns": {
          "_0": "Whether the path has been initialized."
        }
      },
      "approvalRequired()": {
        "details": "Allows things like wallet implementers to determine integration requirements, without understanding the underlying token implementation.",
        "returns": {
          "_0": "requiresApproval Needs approval of the underlying token implementation."
        }
      },
      "combineOptions(uint32,uint16,bytes)": {
        "details": "If there is an enforced lzReceive option: - {gasLimit: 200k, msg.value: 1 ether} AND a caller supplies a lzReceive option: {gasLimit: 100k, msg.value: 0.5 ether} - The resulting options will be {gasLimit: 300k, msg.value: 1.5 ether} when the message is executed on the remote lzReceive() function.This presence of duplicated options is handled off-chain in the verifier/executor.",
        "params": {
          "_eid": "The endpoint ID.",
          "_extraOptions": "Additional options passed by the caller.",
          "_msgType": "The OAPP message type."
        },
        "returns": {
          "_0": "options The combination of caller specified options AND enforced options."
        }
      },
      "isComposeMsgSender((uint32,bytes32,uint64),bytes,address)": {
        "details": "_origin The origin information containing the source endpoint and sender address.  - srcEid: The source chain endpoint ID.  - sender: The sender address on the src chain.  - nonce: The nonce of the message._message The lzReceive payload.Applications can optionally choose to implement separate composeMsg senders that are NOT the bridging layer.The default sender IS the OAppReceiver implementer.",
        "params": {
          "_sender": "The sender address."
        },
        "returns": {
          "_0": "isSender Is a valid sender."
        }
      },
      "isERC721(address)": {
        "params": {
          "_token": "The token address to check."
        },
        "returns": {
          "_0": "bool True if ERC721."
        }
      },
      "isPeer(uint32,bytes32)": {
        "details": "Check if the peer is considered 'trusted' by the OApp.Enables OAppPreCrimeSimulator to check whether a potential Inbound Packet is from a trusted source.",
        "params": {
          "_eid": "The endpoint ID to check.",
          "_peer": "The peer to check."
        },
        "returns": {
          "_0": "Whether the peer passed is considered 'trusted' by the OApp."
        }
      },
      "lzReceive((uint32,bytes32,uint64),bytes32,bytes,address,bytes)": {
        "details": "Entry point for receiving messages or packets from the endpoint.Entry point for receiving msg/packet from the LayerZero endpoint.",
        "params": {
          "_executor": "The address of the executor for the received message.",
          "_extraData": "Additional arbitrary data provided by the corresponding executor.",
          "_guid": "The unique identifier for the received LayerZero message.",
          "_message": "The payload of the received message.",
          "_origin": "The origin information containing the source endpoint and sender address.  - srcEid: The source chain endpoint ID.  - sender: The sender address on the src chain.  - nonce: The nonce of the message."
        }
      },
      "lzReceiveAndRevert(((uint32,bytes32,uint64),uint32,address,bytes32,uint256,address,bytes,bytes)[])": {
        "details": "Interface for pre-crime simulations. Always reverts at the end with the simulation results.WARNING: MUST revert at the end with the simulation results.Gives the preCrime implementation the ability to mock sending packets to the lzReceive function, WITHOUT actually executing them.",
        "params": {
          "_packets": "An array of InboundPacket objects representing received packets to be delivered."
        }
      },
      "lzReceiveSimulate((uint32,bytes32,uint64),bytes32,bytes,address,bytes)": {
        "details": "Is effectively an internal function because msg.sender must be address(this). Allows resetting the call stack for 'internal' calls.",
        "params": {
          "_executor": "The executor address for the packet.",
          "_extraData": "Additional data for the packet.",
          "_guid": "The unique identifier of the packet.",
          "_message": "The message payload of the packet.",
          "_origin": "The origin information containing the source endpoint and sender address.  - srcEid: The source chain endpoint ID.  - sender: The sender address on the src chain.  - nonce: The nonce of the message."
        }
      },
      "nextNonce(uint32,bytes32)": {
        "details": "_srcEid The source endpoint ID._sender The sender address.The path nonce starts from 1. If 0 is returned it means that there is NO nonce ordered enforcement.Is required by the off-chain executor to determine the OApp expects msg execution is ordered.This is also enforced by the OApp.By default this is NOT enabled. ie. nextNonce is hardcoded to return 0.",
        "returns": {
          "nonce": "The next nonce."
        }
      },
      "oApp()": {
        "details": "Retrieves the address of the OApp contract.The simulator contract is the base contract for the OApp by default.If the simulator is a separate contract, override this function.",
        "returns": {
          "_0": "The address of the OApp contract."
        }
      },
      "oAppVersion()": {
        "returns": {
          "receiverVersion": "The version of the OAppReceiver.sol implementation.",
          "senderVersion": "The version of the OAppSender.sol implementation."
        }
      },
      "onERC721Received(address,address,uint256,bytes)": {
        "returns": {
          "_0": "bytes4 The IERC721Receiver interface selector."
        }
      },
      "onftVersion()": {
        "details": "version: Indicates a cross-chain compatible msg encoding with other ONFTs.If a new feature is added to the ONFT cross-chain msg encoding, the version will be incremented.ie. localONFT version(x,1) CAN send messages to remoteONFT version(x,1)",
        "returns": {
          "interfaceId": "The interface ID (0x23e18da6).",
          "version": "The version."
        }
      },
      "owner()": {
        "details": "Returns the address of the current owner."
      },
      "quoteSend((uint32,bytes32,uint256,bytes,bytes,bytes),bool)": {
        "details": "MessagingFee: LayerZero msg fee  - nativeFee: The native fee.  - lzTokenFee: The lzToken fee.",
        "params": {
          "_payInLzToken": "Flag indicating whether the caller is paying in the LZ token.",
          "_sendParam": "The parameters for the send() operation."
        },
        "returns": {
          "msgFee": "fee The calculated LayerZero messaging fee from the send() operation."
        }
      },
      "registerToken(address)": {
        "params": {
          "_token": "The token address to register (canonical or local)."
        }
      },
      "renounceOwnership()": {
        "details": "Leaves the contract without owner. It will not be possible to call `onlyOwner` functions. Can only be called by the current owner. NOTE: Renouncing ownership will leave the contract without an owner, thereby disabling any functionality that is only available to the owner."
      },
      "send((uint32,bytes32,uint256,bytes,bytes,bytes),(uint256,uint256),address)": {
        "details": "MessagingReceipt: LayerZero msg receipt  - guid: The unique identifier for the sent message.  - nonce: The nonce of the sent message.  - fee: The LayerZero fee incurred for the message.",
        "params": {
          "_fee": "The fee information supplied by the caller.      - nativeFee: The native fee.      - lzTokenFee: The lzToken fee.",
          "_refundAddress": "The address to receive any excess funds from fees etc. on the src.",
          "_sendParam": "The parameters for the send operation."
        },
        "returns": {
          "msgReceipt": "receipt The LayerZero messaging receipt from the send() operation."
        }
      },
      "setDelegate(address)": {
        "details": "Only the owner/admin of the OApp can call this function.Provides the ability for a delegate to set configs, on behalf of the OApp, directly on the Endpoint contract.",
        "params": {
          "_delegate": "The address of the delegate to be set."
        }
      },
      "setEnforcedOptions((uint32,uint16,bytes)[])": {
        "details": "Sets the enforced options for specific endpoint and message type combinations.Only the owner/admin of the OApp can call this function.Provides a way for the OApp to enforce things like paying for PreCrime, AND/OR minimum dst lzReceive gas amounts etc.These enforced options can vary as the potential options/execution on the remote may differ as per the msgType. eg. Amount of lzReceive() gas necessary to deliver a lzCompose() message adds overhead you dont want to pay if you are only making a standard LayerZero message ie. lzReceive() WITHOUT sendCompose().",
        "params": {
          "_enforcedOptions": "An array of EnforcedOptionParam structures specifying enforced options."
        }
      },
      "setMsgInspector(address)": {
        "details": "This is an optional contract that can be used to inspect both 'message' and 'options'.Set it to address(0) to disable it, or set it to a contract address to enable it.",
        "params": {
          "_msgInspector": "The address of the message inspector."
        }
      },
      "setPeer(uint32,bytes32)": {
        "details": "Only the owner/admin of the OApp can call this function.Indicates that the peer is trusted to send LayerZero messages to this OApp.Set this to bytes32(0) to remove the peer address.Peer is a bytes32 to accommodate non-evm chains.",
        "params": {
          "_eid": "The endpoint ID.",
          "_peer": "The address of the peer to be associated with the corresponding endpoint."
        }
      },
      "setPreCrime(address)": {
        "details": "Sets the preCrime contract address.",
        "params": {
          "_preCrime": "The address of the preCrime contract."
        }
      },
      "token()": {
        "returns": {
          "_0": "token The address of the ERC721 token implementation."
        }
      },
      "transferOwnership(address)": {
        "details": "Transfers ownership of the contract to a new account (`newOwner`). Can only be called by the current owner."
      },
      "unregisterToken(address)": {
        "params": {
          "_token": "The token address to unregister."
        }
      }
    },
    "title": "DynamicONFTBridge",
    "version": 1
  },
  "userdoc": {
    "kind": "user",
    "methods": {
      "allowInitializePath((uint32,bytes32,uint64))": {
        "notice": "Checks if the path initialization is allowed based on the provided origin."
      },
      "approvalRequired()": {
        "notice": "Indicates whether the ONFT contract requires approval of the 'token()' to send."
      },
      "combineOptions(uint32,uint16,bytes)": {
        "notice": "Combines options for a given endpoint and message type."
      },
      "endpoint()": {
        "notice": "Retrieves the LayerZero endpoint associated with the OApp."
      },
      "isComposeMsgSender((uint32,bytes32,uint64),bytes,address)": {
        "notice": "Indicates whether an address is an approved composeMsg sender to the Endpoint."
      },
      "isERC721(address)": {
        "notice": "Check if a contract supports ERC721 interface."
      },
      "nextNonce(uint32,bytes32)": {
        "notice": "Retrieves the next nonce for a given source endpoint and sender address."
      },
      "oAppVersion()": {
        "notice": "Retrieves the OApp version information."
      },
      "onERC721Received(address,address,uint256,bytes)": {
        "notice": "Implements IERC721Receiver to handle safe ERC721 transfers for locking natives."
      },
      "onftVersion()": {
        "notice": "Retrieves interfaceID and the version of the ONFT."
      },
      "peers(uint32)": {
        "notice": "Retrieves the peer (OApp) associated with a corresponding endpoint."
      },
      "quoteSend((uint32,bytes32,uint256,bytes,bytes,bytes),bool)": {
        "notice": "Provides a quote for the send() operation."
      },
      "registerToken(address)": {
        "notice": "Permissionless registration of tokens (auto-whitelist if valid)."
      },
      "send((uint32,bytes32,uint256,bytes,bytes,bytes),(uint256,uint256),address)": {
        "notice": "Executes the send() operation."
      },
      "setDelegate(address)": {
        "notice": "Sets the delegate address for the OApp."
      },
      "setMsgInspector(address)": {
        "notice": "Sets the message inspector address for the OFT."
      },
      "setPeer(uint32,bytes32)": {
        "notice": "Sets the peer address (OApp instance) for a corresponding endpoint."
      },
      "token()": {
        "notice": "Retrieves the address of the token associated with the ONFT."
      },
      "unregisterToken(address)": {
        "notice": "Owner can unregister tokens."
      }
    },
    "version": 1
  },
  "storageLayout": {
    "storage": [
      {
        "astId": 4001,
        "contract": "contracts/DynamicONFTBridge.sol:DynamicONFTBridge",
        "label": "_owner",
        "offset": 0,
        "slot": "0",
        "type": "t_address"
      },
      {
        "astId": 1988,
        "contract": "contracts/DynamicONFTBridge.sol:DynamicONFTBridge",
        "label": "peers",
        "offset": 0,
        "slot": "1",
        "type": "t_mapping(t_uint32,t_bytes32)"
      },
      {
        "astId": 2764,
        "contract": "contracts/DynamicONFTBridge.sol:DynamicONFTBridge",
        "label": "preCrime",
        "offset": 0,
        "slot": "2",
        "type": "t_address"
      },
      {
        "astId": 2604,
        "contract": "contracts/DynamicONFTBridge.sol:DynamicONFTBridge",
        "label": "enforcedOptions",
        "offset": 0,
        "slot": "3",
        "type": "t_mapping(t_uint32,t_mapping(t_uint16,t_bytes_storage))"
      },
      {
        "astId": 3396,
        "contract": "contracts/DynamicONFTBridge.sol:DynamicONFTBridge",
        "label": "msgInspector",
        "offset": 0,
        "slot": "4",
        "type": "t_address"
      },
      {
        "astId": 11715,
        "contract": "contracts/DynamicONFTBridge.sol:DynamicONFTBridge",
        "label": "supportedTokens",
        "offset": 0,
        "slot": "5",
        "type": "t_mapping(t_address,t_bool)"
      },
      {
        "astId": 11719,
        "contract": "contracts/DynamicONFTBridge.sol:DynamicONFTBridge",
        "label": "originalToWrapper",
        "offset": 0,
        "slot": "6",
        "type": "t_mapping(t_address,t_address)"
      },
      {
        "astId": 11723,
        "contract": "contracts/DynamicONFTBridge.sol:DynamicONFTBridge",
        "label": "wrapperToOriginal",
        "offset": 0,
        "slot": "7",
        "type": "t_mapping(t_address,t_address)"
      },
      {
        "astId": 11727,
        "contract": "contracts/DynamicONFTBridge.sol:DynamicONFTBridge",
        "label": "originalToHomeEid",
        "offset": 0,
        "slot": "8",
        "type": "t_mapping(t_address,t_uint32)"
      }
    ],
    "types": {
      "t_address": {
        "encoding": "inplace",
        "label": "address",
        "numberOfBytes": "20"
      },
      "t_bool": {
        "encoding": "inplace",
        "label": "bool",
        "numberOfBytes": "1"
      },
      "t_bytes32": {
        "encoding": "inplace",
        "label": "bytes32",
        "numberOfBytes": "32"
      },
      "t_bytes_storage": {
        "encoding": "bytes",
        "label": "bytes",
        "numberOfBytes": "32"
      },
      "t_mapping(t_address,t_address)": {
        "encoding": "mapping",
        "key": "t_address",
        "label": "mapping(address => address)",
        "numberOfBytes": "32",
        "value": "t_address"
      },
      "t_mapping(t_address,t_bool)": {
        "encoding": "mapping",
        "key": "t_address",
        "label": "mapping(address => bool)",
        "numberOfBytes": "32",
        "value": "t_bool"
      },
      "t_mapping(t_address,t_uint32)": {
        "encoding": "mapping",
        "key": "t_address",
        "label": "mapping(address => uint32)",
        "numberOfBytes": "32",
        "value": "t_uint32"
      },
      "t_mapping(t_uint16,t_bytes_storage)": {
        "encoding": "mapping",
        "key": "t_uint16",
        "label": "mapping(uint16 => bytes)",
        "numberOfBytes": "32",
        "value": "t_bytes_storage"
      },
      "t_mapping(t_uint32,t_bytes32)": {
        "encoding": "mapping",
        "key": "t_uint32",
        "label": "mapping(uint32 => bytes32)",
        "numberOfBytes": "32",
        "value": "t_bytes32"
      },
      "t_mapping(t_uint32,t_mapping(t_uint16,t_bytes_storage))": {
        "encoding": "mapping",
        "key": "t_uint32",
        "label": "mapping(uint32 => mapping(uint16 => bytes))",
        "numberOfBytes": "32",
        "value": "t_mapping(t_uint16,t_bytes_storage)"
      },
      "t_uint16": {
        "encoding": "inplace",
        "label": "uint16",
        "numberOfBytes": "2"
      },
      "t_uint32": {
        "encoding": "inplace",
        "label": "uint32",
        "numberOfBytes": "4"
      }
    }
  }
}