{"contracts/GameStateManager.sol":{"GameStateManager":{"abi":[{"inputs":[{"internalType":"address payable","name":"_creditsContract","type":"address"}],"stateMutability":"nonpayable","type":"constructor"},{"anonymous":false,"inputs":[{"indexed":true,"internalType":"address","name":"player","type":"address"},{"indexed":false,"internalType":"uint256","name":"stardust","type":"uint256"},{"indexed":false,"internalType":"uint256","name":"stardustPerSecond","type":"uint256"},{"indexed":false,"internalType":"uint256","name":"timestamp","type":"uint256"}],"name":"GameStateSaved","type":"event"},{"anonymous":false,"inputs":[{"indexed":true,"internalType":"address","name":"previousOwner","type":"address"},{"indexed":true,"internalType":"address","name":"newOwner","type":"address"}],"name":"OwnershipTransferred","type":"event"},{"anonymous":false,"inputs":[{"indexed":true,"internalType":"address","name":"player","type":"address"},{"indexed":false,"internalType":"uint256","name":"timestamp","type":"uint256"}],"name":"PlayerRegistered","type":"event"},{"anonymous":false,"inputs":[{"indexed":true,"internalType":"address","name":"player","type":"address"},{"indexed":false,"internalType":"uint256","name":"level","type":"uint256"},{"indexed":false,"internalType":"uint256","name":"timestamp","type":"uint256"}],"name":"PrestigeActivated","type":"event"},{"anonymous":false,"inputs":[{"indexed":true,"internalType":"address","name":"player","type":"address"},{"indexed":false,"internalType":"string","name":"upgradeId","type":"string"},{"indexed":false,"internalType":"uint256","name":"level","type":"uint256"},{"indexed":false,"internalType":"uint256","name":"cost","type":"uint256"},{"indexed":false,"internalType":"string","name":"costType","type":"string"},{"indexed":false,"internalType":"uint256","name":"timestamp","type":"uint256"}],"name":"UpgradePurchased","type":"event"},{"inputs":[],"name":"activatePrestige","outputs":[],"stateMutability":"nonpayable","type":"function"},{"inputs":[{"internalType":"string","name":"upgradeId","type":"string"},{"internalType":"string","name":"name","type":"string"},{"internalType":"uint256","name":"baseCost","type":"uint256"},{"internalType":"uint256","name":"costMultiplier","type":"uint256"},{"internalType":"uint256","name":"stardustPerClick","type":"uint256"},{"internalType":"uint256","name":"stardustPerSecond","type":"uint256"},{"internalType":"string","name":"costType","type":"string"}],"name":"addUpgrade","outputs":[],"stateMutability":"nonpayable","type":"function"},{"inputs":[],"name":"creditsContract","outputs":[{"internalType":"contract StarMinerCredits","name":"","type":"address"}],"stateMutability":"view","type":"function"},{"inputs":[{"internalType":"address","name":"player","type":"address"}],"name":"getPlayerState","outputs":[{"components":[{"internalType":"uint256","name":"stardust","type":"uint256"},{"internalType":"uint256","name":"stardustPerClick","type":"uint256"},{"internalType":"uint256","name":"stardustPerSecond","type":"uint256"},{"internalType":"uint256","name":"totalClicks","type":"uint256"},{"internalType":"uint256","name":"lastUpdateTime","type":"uint256"},{"internalType":"uint256","name":"prestigeLevel","type":"uint256"},{"internalType":"bool","name":"isActive","type":"bool"}],"internalType":"struct GameStateManager.PlayerState","name":"state","type":"tuple"},{"internalType":"uint256","name":"idleRewards","type":"uint256"},{"internalType":"string[]","name":"achievements","type":"string[]"}],"stateMutability":"view","type":"function"},{"inputs":[{"internalType":"address","name":"player","type":"address"}],"name":"getPlayerStats","outputs":[{"internalType":"uint256","name":"totalStardustEarnedAmount","type":"uint256"},{"internalType":"uint256","name":"totalCreditsSpentAmount","type":"uint256"},{"internalType":"uint256","name":"totalClicksAmount","type":"uint256"},{"internalType":"uint256","name":"totalPlayTimeAmount","type":"uint256"},{"internalType":"uint256","name":"highestStardustPerSecondAmount","type":"uint256"},{"internalType":"uint256","name":"prestigeCountAmount","type":"uint256"},{"internalType":"uint256","name":"achievementsUnlocked","type":"uint256"}],"stateMutability":"view","type":"function"},{"inputs":[{"internalType":"address","name":"player","type":"address"}],"name":"getPlayerUpgrades","outputs":[{"internalType":"string[]","name":"upgradeIds","type":"string[]"},{"internalType":"uint256[]","name":"levels","type":"uint256[]"}],"stateMutability":"view","type":"function"},{"inputs":[{"internalType":"string","name":"upgradeId","type":"string"},{"internalType":"address","name":"player","type":"address"}],"name":"getUpgradeCost","outputs":[{"internalType":"uint256","name":"","type":"uint256"}],"stateMutability":"view","type":"function"},{"inputs":[{"internalType":"address","name":"","type":"address"}],"name":"highestStardustPerSecond","outputs":[{"internalType":"uint256","name":"","type":"uint256"}],"stateMutability":"view","type":"function"},{"inputs":[],"name":"owner","outputs":[{"internalType":"address","name":"","type":"address"}],"stateMutability":"view","type":"function"},{"inputs":[{"internalType":"address","name":"","type":"address"}],"name":"playerAchievementCount","outputs":[{"internalType":"uint256","name":"","type":"uint256"}],"stateMutability":"view","type":"function"},{"inputs":[{"internalType":"address","name":"","type":"address"},{"internalType":"uint256","name":"","type":"uint256"}],"name":"playerAchievements","outputs":[{"internalType":"string","name":"","type":"string"}],"stateMutability":"view","type":"function"},{"inputs":[{"internalType":"address","name":"","type":"address"}],"name":"playerStates","outputs":[{"internalType":"uint256","name":"stardust","type":"uint256"},{"internalType":"uint256","name":"stardustPerClick","type":"uint256"},{"internalType":"uint256","name":"stardustPerSecond","type":"uint256"},{"internalType":"uint256","name":"totalClicks","type":"uint256"},{"internalType":"uint256","name":"lastUpdateTime","type":"uint256"},{"internalType":"uint256","name":"prestigeLevel","type":"uint256"},{"internalType":"bool","name":"isActive","type":"bool"}],"stateMutability":"view","type":"function"},{"inputs":[{"internalType":"address","name":"","type":"address"},{"internalType":"string","name":"","type":"string"}],"name":"playerUpgrades","outputs":[{"internalType":"uint256","name":"","type":"uint256"}],"stateMutability":"view","type":"function"},{"inputs":[{"internalType":"address","name":"","type":"address"}],"name":"prestigeCount","outputs":[{"internalType":"uint256","name":"","type":"uint256"}],"stateMutability":"view","type":"function"},{"inputs":[{"internalType":"string","name":"upgradeId","type":"string"}],"name":"purchaseUpgrade","outputs":[],"stateMutability":"nonpayable","type":"function"},{"inputs":[],"name":"registerPlayer","outputs":[],"stateMutability":"nonpayable","type":"function"},{"inputs":[],"name":"renounceOwnership","outputs":[],"stateMutability":"nonpayable","type":"function"},{"inputs":[{"internalType":"uint256","name":"stardust","type":"uint256"},{"internalType":"uint256","name":"stardustPerClick","type":"uint256"},{"internalType":"uint256","name":"stardustPerSecond","type":"uint256"},{"internalType":"uint256","name":"totalClicks","type":"uint256"},{"internalType":"string[]","name":"upgradeIds","type":"string[]"},{"internalType":"uint256[]","name":"upgradeLevels","type":"uint256[]"},{"internalType":"uint256","name":"prestigeLevel","type":"uint256"},{"internalType":"string[]","name":"achievements","type":"string[]"}],"name":"saveCompleteGameState","outputs":[],"stateMutability":"nonpayable","type":"function"},{"inputs":[{"internalType":"uint256","name":"stardust","type":"uint256"},{"internalType":"uint256","name":"stardustPerClick","type":"uint256"},{"internalType":"uint256","name":"stardustPerSecond","type":"uint256"},{"internalType":"uint256","name":"totalClicks","type":"uint256"},{"internalType":"string[]","name":"achievements","type":"string[]"}],"name":"saveGameState","outputs":[],"stateMutability":"nonpayable","type":"function"},{"inputs":[{"internalType":"string","name":"upgradeId","type":"string"}],"name":"toggleUpgrade","outputs":[],"stateMutability":"nonpayable","type":"function"},{"inputs":[{"internalType":"address","name":"","type":"address"}],"name":"totalCreditsSpent","outputs":[{"internalType":"uint256","name":"","type":"uint256"}],"stateMutability":"view","type":"function"},{"inputs":[{"internalType":"address","name":"","type":"address"}],"name":"totalPlayTime","outputs":[{"internalType":"uint256","name":"","type":"uint256"}],"stateMutability":"view","type":"function"},{"inputs":[],"name":"totalPlayers","outputs":[{"internalType":"uint256","name":"","type":"uint256"}],"stateMutability":"view","type":"function"},{"inputs":[{"internalType":"address","name":"","type":"address"}],"name":"totalStardustEarned","outputs":[{"internalType":"uint256","name":"","type":"uint256"}],"stateMutability":"view","type":"function"},{"inputs":[],"name":"totalStardustGenerated","outputs":[{"internalType":"uint256","name":"","type":"uint256"}],"stateMutability":"view","type":"function"},{"inputs":[{"internalType":"address","name":"newOwner","type":"address"}],"name":"transferOwnership","outputs":[],"stateMutability":"nonpayable","type":"function"},{"inputs":[{"internalType":"uint256","name":"sessionTime","type":"uint256"}],"name":"updatePlayTime","outputs":[],"stateMutability":"nonpayable","type":"function"},{"inputs":[{"internalType":"string","name":"","type":"string"}],"name":"upgradeConfigs","outputs":[{"internalType":"string","name":"name","type":"string"},{"internalType":"uint256","name":"baseCost","type":"uint256"},{"internalType":"uint256","name":"costMultiplier","type":"uint256"},{"internalType":"uint256","name":"stardustPerClick","type":"uint256"},{"internalType":"uint256","name":"stardustPerSecond","type":"uint256"},{"internalType":"string","name":"costType","type":"string"},{"internalType":"bool","name":"isActive","type":"bool"}],"stateMutability":"view","type":"function"}],"evm":{"bytecode":{"linkReferences":{},"object":"60806040523480156200001157600080fd5b506040516200353a3803806200353a833981016040819052620000349162000a32565b6200003f336200006f565b60018055600280546001600160a01b0319166001600160a01b03831617905562000068620000bf565b5062000bd5565b600080546001600160a01b038381166001600160a01b0319831681178455604051919092169283917f8be0079c531659141344cd1fd0a4f28419497f9722a3daafe3b4186f6b6457e09190a35050565b6040518060e001604052806040518060400160405280600981526020016854656c6573636f706560b81b8152508152602001600a815260200161047e81526020016001815260200160008152602001604051806040016040528060088152602001671cdd185c991d5cdd60c21b81525081526020016001151581525060056040516200015a906874656c6573636f706560b81b815260090190565b9081526040519081900360200190208151819062000179908262000b09565b506020820151600182015560408201516002820155606082015160038201556080820151600482015560a08201516005820190620001b8908262000b09565b5060c091820151600691909101805460ff19169115159190911790556040805161012081018252600960e0820181815268536174656c6c69746560b81b6101008401528252606460208084019190915261047e838501526005606084018190526001608085018190528551808701875260088152671cdd185c991d5cdd60c21b9381019390935260a085019290925294830152915168736174656c6c69746560b81b815290929101908152604051908190036020019020815181906200027f908262000b09565b506020820151600182015560408201516002820155606082015160038201556080820151600482015560a08201516005820190620002be908262000b09565b5060c091820151600691909101805460ff19169115159190911790556040805161012081018252600b60e082018181526a4f627365727661746f727960a81b61010084015282526103e860208084019190915261047e83850152600a60608401526005608084018190528451808601865260088152671cdd185c991d5cdd60c21b9281019290925260a084019190915260019483019490945291516a6f627365727661746f727960a81b815290929101908152604051908190036020019020815181906200038d908262000b09565b506020820151600182015560408201516002820155606082015160038201556080820151600482015560a08201516005820190620003cc908262000b09565b5060c091820151600691909101805460ff19169115159190911790556040805161012081018252600860e0820181815267053746172736869760c41b6101008401528252600a6020808401919091526104b08385015260326060840152601960808401528351808501855260078152666372656469747360c81b9181019190915260a0830152600193820193909352905167073746172736869760c41b81529091600591019081526040519081900360200190208151819062000490908262000b09565b506020820151600182015560408201516002820155606082015160038201556080820151600482015560a08201516005820190620004cf908262000b09565b5060c091820151600691909101805460ff19169115159190911790556040805161012081018252600d60e082019081526c29b830b1b29029ba30ba34b7b760991b6101008301528152603260208083018290526104b0838501526064606084015260808301919091528251808401845260078152666372656469747360c81b9181019190915260a0820152600192810192909252516b39b830b1b2b9ba30ba34b7b760a11b8152600590600c01908152604051908190036020019020815181906200059b908262000b09565b506020820151600182015560408201516002820155606082015160038201556080820151600482015560a08201516005820190620005da908262000b09565b5060c091820151600691909101805460ff19169115159190911790556040805161012081018252601260e08201908152712bb7b936b437b6329023b2b732b930ba37b960711b610100830152815260c86020808301919091526104e2828401526101f4606083015260fa60808301528251808401845260078152666372656469747360c81b9181019190915260a08201526001928101929092525167776f726d686f6c6560c01b815260059060080190815260405190819003602001902081518190620006a8908262000b09565b506020820151600182015560408201516002820155606082015160038201556080820151600482015560a08201516005820190620006e7908262000b09565b5060c091820151600691909101805460ff19169115159190911790556040805161012081018252600a60e0820190815269426c61636b20486f6c6560b01b61010083015281526101f460208083018290526104e2838501526103e8606084015260808301919091528251808401845260078152666372656469747360c81b9181019190915260a08201526001928101929092525168626c61636b686f6c6560b81b815260059060090190815260405190819003602001902081518190620007af908262000b09565b506020820151600182015560408201516002820155606082015160038201556080820151600482015560a08201516005820190620007ee908262000b09565b5060c091820151600691909101805460ff19169115159190911790556040805161012081018252601060e082019081526f47616c6163746963204e6574776f726b60801b61010083015281526103e86020808301919091526105148284015261138860608301526109c460808301528251808401845260078152666372656469747360c81b9181019190915260a0820152600192810192909252516e67616c61637469636e6574776f726b60881b8152600590600f0190815260405190819003602001902081518190620008c3908262000b09565b506020820151600182015560408201516002820155606082015160038201556080820151600482015560a0820151600582019062000902908262000b09565b5060c091820151600691909101805460ff19169115159190911790556040805161012081018252600f60e082019081526e556e69766572736520456e67696e6560881b61010083015281526107d06020808301919091526105dc82840152612710606083015261138860808301528251808401845260078152666372656469747360c81b9181019190915260a0820152600192810192909252516d756e697665727365656e67696e6560901b8152600590600e0190815260405190819003602001902081518190620009d5908262000b09565b506020820151600182015560408201516002820155606082015160038201556080820151600482015560a0820151600582019062000a14908262000b09565b5060c091909101516006909101805460ff1916911515919091179055565b60006020828403121562000a4557600080fd5b81516001600160a01b038116811462000a5d57600080fd5b9392505050565b634e487b7160e01b600052604160045260246000fd5b600181811c9082168062000a8f57607f821691505b60208210810362000ab057634e487b7160e01b600052602260045260246000fd5b50919050565b601f82111562000b0457600081815260208120601f850160051c8101602086101562000adf5750805b601f850160051c820191505b8181101562000b005782815560010162000aeb565b5050505b505050565b81516001600160401b0381111562000b255762000b2562000a64565b62000b3d8162000b36845462000a7a565b8462000ab6565b602080601f83116001811462000b75576000841562000b5c5750858301515b600019600386901b1c1916600185901b17855562000b00565b600085815260208120601f198616915b8281101562000ba65788860151825594840194600190910190840162000b85565b508582101562000bc55787850151600019600388901b60f8161c191681555b5050505050600190811b01905550565b6129558062000be56000396000f3fe608060405234801561001057600080fd5b50600436106101c45760003560e01c80638da5cb5b116100f9578063df999dfd11610097578063f2fde38b11610071578063f2fde38b14610537578063f398467b1461054a578063f60cdcf61461056a578063f737e8181461057357600080fd5b8063df999dfd146104e4578063e3dbf6a614610504578063f0a22a411461052457600080fd5b8063c01ca43f116100d3578063c01ca43f146103fc578063d15e55b71461041e578063d1b2df4b146104a4578063dc0e5370146104c457600080fd5b80638da5cb5b146103a6578063a0bbc59e146103b7578063aad135d4146103f357600080fd5b80634fd66eae11610166578063662433391161014057806366243339146103445780636cdfaacb1461036a578063715018a61461037d57806371923eda1461038557600080fd5b80634fd66eae1461027d5780635c07a4b01461031c578063628214511461032457600080fd5b806335c92d79116101a257806335c92d7914610216578063473ec38d1461024457806348113d40146102575780634a4a541e1461026a57600080fd5b8063019f5e8a146101c95780630642bc41146101de57806326f3fde01461020e575b600080fd5b6101dc6101d7366004611fe9565b610586565b005b6002546101f1906001600160a01b031681565b6040516001600160a01b0390911681526020015b60405180910390f35b6101dc6105e8565b61023661022436600461201e565b600c6020526000908152604090205481565b604051908152602001610205565b6101dc6102523660046120f0565b61089c565b6101dc6102653660046120f0565b610e14565b6101dc61027836600461212d565b610e78565b6102e761028b36600461201e565b6001600160a01b0316600090815260086020908152604080832054600983528184205460038085528386200154600a855283862054600b865284872054600c875285882054600790975294909620549296919590949093929091565b604080519788526020880196909652948601939093526060850191909152608084015260a083015260c082015260e001610205565b6101dc610f45565b61023661033236600461201e565b600a6020526000908152604090205481565b6103576103523660046120f0565b611031565b604051610205979695949392919061222c565b6101dc610378366004612334565b611189565b6101dc61135a565b61039861039336600461201e565b61136c565b6040516102059291906123ea565b6000546001600160a01b03166101f1565b6102366103c5366004612434565b6004602090815260009283526040909220815180830184018051928152908401929093019190912091525481565b610236600e5481565b61040f61040a36600461201e565b6115d3565b60405161020593929190612482565b61046d61042c36600461201e565b600360208190526000918252604090912080546001820154600283015493830154600484015460058501546006909501549395929492939192909160ff1687565b604080519788526020880196909652948601939093526060850191909152608084015260a0830152151560c082015260e001610205565b6102366104b236600461201e565b60076020526000908152604090205481565b6102366104d236600461201e565b600b6020526000908152604090205481565b6104f76104f23660046124ec565b6116c8565b6040516102059190612516565b61023661051236600461201e565b60086020526000908152604090205481565b6101dc610532366004612584565b61176d565b6101dc61054536600461201e565b611a2e565b61023661055836600461201e565b60096020526000908152604090205481565b610236600d5481565b61023661058136600461263d565b611aa4565b3360009081526003602052604090206006015460ff166105c15760405162461bcd60e51b81526004016105b89061268b565b60405180910390fd5b336000908152600a6020526040812080548392906105e09084906126d0565b909155505050565b33600090815260036020526040902054620f4240111561064a5760405162461bcd60e51b815260206004820152601d60248201527f4e65656420314d20737461726475737420666f7220707265737469676500000060448201526064016105b8565b336000908152600360205260408120600581018054919261066a836126e3565b909155505060008082556001808301556005820154600283015560038201819055338152600c602052604081208054916106a3836126e3565b90915550506040805161016081018252600961012082018181526874656c6573636f706560b81b61014084015282528251808401845281815268736174656c6c69746560b81b6020828101919091528084019190915283518085018552600b81526a6f627365727661746f727960a81b818301528385015283518085018552600880825267073746172736869760c41b82840152606085019190915284518086018652600c81526b39b830b1b2b9ba30ba34b7b760a11b8184015260808501528451808601865290815267776f726d686f6c6560c01b8183015260a08401528351808501855291825268626c61636b686f6c6560b81b8282015260c083019190915282518084018452600f81526e67616c61637469636e6574776f726b60881b8183015260e08301528251808401909352600e83526d756e697665727365656e67696e6560901b9083015261010081019190915260005b600981101561085857336000908152600460205260408120838360098110610824576108246126fc565b60200201516040516108369190612712565b9081526040519081900360200190205580610850816126e3565b9150506107fa565b5060058201546040805191825242602083015233917fa1076bf9c07228ae15797fa473a75367dc398ad6427938bdf107a8df563e6a80910160405180910390a25050565b6108a4611c87565b3360009081526003602052604090206006015460ff166108d65760405162461bcd60e51b81526004016105b89061268b565b6005816040516108e69190612712565b9081526040519081900360200190206006015460ff166109405760405162461bcd60e51b815260206004820152601560248201527455706772616465206e6f7420617661696c61626c6560581b60448201526064016105b8565b60006005826040516109529190612712565b90815260200160405180910390206040518060e001604052908160008201805461097b9061272e565b80601f01602080910402602001604051908101604052809291908181526020018280546109a79061272e565b80156109f45780601f106109c9576101008083540402835291602001916109f4565b820191906000526020600020905b8154815290600101906020018083116109d757829003601f168201915b5050505050815260200160018201548152602001600282015481526020016003820154815260200160048201548152602001600582018054610a359061272e565b80601f0160208091040260200160405190810160405280929190818152602001828054610a619061272e565b8015610aae5780601f10610a8357610100808354040283529160200191610aae565b820191906000526020600020905b815481529060010190602001808311610a9157829003601f168201915b50505091835250506006919091015460ff1615156020918201523360009081526004909152604080822090519293509091610aea908590612712565b90815260200160405180910390205490506000610b108360200151846040015184611ce0565b6040805180820190915260088152671cdd185c991d5cdd60c21b60209182015260a085015180519101209091507f81e3a722c3e4e8f9d9ced5c3a0b6f6a1a13d9410313441a99c6901226d8b071201610be45733600090815260036020526040902054811115610bba5760405162461bcd60e51b8152602060048201526015602482015274125b9cdd59999a58da595b9d081cdd185c991d5cdd605a1b60448201526064016105b8565b3360009081526003602052604081208054839290610bd9908490612768565b90915550610d1f9050565b6002546040516370a0823160e01b815233600482015282916001600160a01b0316906370a0823190602401602060405180830381865afa158015610c2c573d6000803e3d6000fd5b505050506040513d601f19601f82011682018060405250810190610c50919061277b565b1015610c955760405162461bcd60e51b8152602060048201526014602482015273496e73756666696369656e74206372656469747360601b60448201526064016105b8565b6002546040516310c4b38760e11b8152336004820152602481018390526001600160a01b0390911690632189670e90604401600060405180830381600087803b158015610ce157600080fd5b505af1158015610cf5573d6000803e3d6000fd5b50503360009081526009602052604081208054859450909250610d199084906126d0565b90915550505b33600090815260046020526040908190209051610d3d908690612712565b9081526040519081900360200190208054906000610d5a836126e3565b909155505060608301513360009081526003602052604081206001018054909190610d869084906126d0565b909155505060808301513360009081526003602052604081206002018054909190610db29084906126d0565b909155503390507f1fd4664d767f39fd6223439ed2145312055fbe43d159a8cec2d0d8c975c9c63785610de68560016126d0565b60a0870151604051610dfd93929187914290612794565b60405180910390a2505050610e1160018055565b50565b610e1c611d33565b600581604051610e2c9190612712565b9081526040519081900360200181206006015460ff161590600590610e52908490612712565b908152604051908190036020019020600601805491151560ff1990921691909117905550565b610e80611d33565b6040518060e0016040528087815260200186815260200185815260200184815260200183815260200182815260200160011515815250600588604051610ec69190612712565b90815260405190819003602001902081518190610ee39082612826565b506020820151600182015560408201516002820155606082015160038201556080820151600482015560a08201516005820190610f209082612826565b5060c091909101516006909101805460ff191691151591909117905550505050505050565b3360009081526003602052604090206006015460ff1661102f576040805160e08101825260008082526001602080840182815284860184815260608601858152426080880190815260a0880187815260c08901878152338952600396879052998820985189559351958801959095559051600287015551918501919091559051600484015551600583015591516006909101805460ff1916911515919091179055600d805491610ff4836126e3565b909155505060405142815233907f324cb0062138d65997c86cd3012489ceb351d602f2f55c7408306e8040c79f3f9060200160405180910390a25b565b80516020818301810180516005825292820191909301209152805481906110579061272e565b80601f01602080910402602001604051908101604052809291908181526020018280546110839061272e565b80156110d05780601f106110a5576101008083540402835291602001916110d0565b820191906000526020600020905b8154815290600101906020018083116110b357829003601f168201915b5050505050908060010154908060020154908060030154908060040154908060050180546110fd9061272e565b80601f01602080910402602001604051908101604052809291908181526020018280546111299061272e565b80156111765780601f1061114b57610100808354040283529160200191611176565b820191906000526020600020905b81548152906001019060200180831161115957829003601f168201915b5050506006909301549192505060ff1687565b611191611c87565b3360009081526003602052604090206006015460ff166111c35760405162461bcd60e51b81526004016105b89061268b565b33600090815260036020526040812060048101549091906111e49042612768565b905060008183600201546111f891906128e6565b905061120481896126d0565b835560018301879055600283018690556003830185905542600484015561122b3385611d8d565b336000908152600860205260408120805483929061124a9084906126d0565b9250508190555080600e600082825461126391906126d0565b9091555050336000908152600b602052604090205486111561129257336000908152600b602052604090208690555b80156112fd5760025460405163593ee7fd60e11b8152336004820152602481018390526001600160a01b039091169063b27dcffa90604401600060405180830381600087803b1580156112e457600080fd5b505af11580156112f8573d6000803e3d6000fd5b505050505b82546002840154604080519283526020830191909152429082015233907fde2575b1517540b677c794a3cde57fed7f46fe9beaca3bb86154c43ae41bc6a19060600160405180910390a250505061135360018055565b5050505050565b611362611d33565b61102f6000611e3f565b6040805161016081018252600961012082018181526874656c6573636f706560b81b610140808501919091529083528351808501855282815268736174656c6c69746560b81b6020808301919091528085019190915284518086018652600b81526a6f627365727661746f727960a81b818301528486015284518086018652600880825267073746172736869760c41b8284015260608087019290925286518088018852600c81526b39b830b1b2b9ba30ba34b7b760a11b8185015260808701528651808801885290815267776f726d686f6c6560c01b8184015260a08601528551808701875284815268626c61636b686f6c6560b81b8184015260c086015285518087018752600f81526e67616c61637469636e6574776f726b60881b8184015260e086015285518087018752600e81526d756e697665727365656e67696e6560901b8184015261010086015285518481529283019095528493929082015b60608152602001906001900390816114cc5750506040805160098082526101408201909252919450602082016101208036833701905050915060005b60098110156115cc57818160098110611523576115236126fc565b602002015184828151811061153a5761153a6126fc565b602002602001018190525060046000866001600160a01b03166001600160a01b0316815260200190815260200160002082826009811061157c5761157c6126fc565b602002015160405161158e9190612712565b9081526020016040518091039020548382815181106115af576115af6126fc565b6020908102919091010152806115c4816126e3565b915050611508565b5050915091565b6116156040518060e001604052806000815260200160008152602001600081526020016000815260200160008152602001600081526020016000151581525090565b506001600160a01b0381166000908152600360208181526040808420815160e081018352815481526001820154938101939093526002810154918301919091529182015460608281019190915260048301546080830152600583015460a083015260069092015460ff1615801560c0830152909291906116b75760008360800151426116a19190612768565b90508084604001516116b391906128e6565b9250505b6116c084611e8f565b929491935050565b6006602090815260009283526040808420909152908252902080546116ec9061272e565b80601f01602080910402602001604051908101604052809291908181526020018280546117189061272e565b80156117655780601f1061173a57610100808354040283529160200191611765565b820191906000526020600020905b81548152906001019060200180831161174857829003601f168201915b505050505081565b611775611c87565b3360009081526003602052604090206006015460ff166117a75760405162461bcd60e51b81526004016105b89061268b565b82518451146117f85760405162461bcd60e51b815260206004820152601960248201527f4d69736d6174636865642075706772616465206172726179730000000000000060448201526064016105b8565b33600090815260036020526040812060048101549091906118199042612768565b9050600081836002015461182d91906128e6565b9050611839818c6126d0565b8355600183018a905560028301899055600383018890556005830185905542600484015560005b87518110156118f15786818151811061187b5761187b6126fc565b602002602001015160046000336001600160a01b03166001600160a01b031681526020019081526020016000208983815181106118ba576118ba6126fc565b60200260200101516040516118cf9190612712565b90815260405190819003602001902055806118e9816126e3565b915050611860565b506118fc3385611d8d565b336000908152600860205260408120805483929061191b9084906126d0565b9250508190555080600e600082825461193491906126d0565b9091555050336000908152600b602052604090205489111561196357336000908152600b602052604090208990555b80156119ce5760025460405163593ee7fd60e11b8152336004820152602481018390526001600160a01b039091169063b27dcffa90604401600060405180830381600087803b1580156119b557600080fd5b505af11580156119c9573d6000803e3d6000fd5b505050505b82546002840154604080519283526020830191909152429082015233907fde2575b1517540b677c794a3cde57fed7f46fe9beaca3bb86154c43ae41bc6a19060600160405180910390a2505050611a2460018055565b5050505050505050565b611a36611d33565b6001600160a01b038116611a9b5760405162461bcd60e51b815260206004820152602660248201527f4f776e61626c653a206e6577206f776e657220697320746865207a65726f206160448201526564647265737360d01b60648201526084016105b8565b610e1181611e3f565b600080600584604051611ab79190612712565b90815260200160405180910390206040518060e0016040529081600082018054611ae09061272e565b80601f0160208091040260200160405190810160405280929190818152602001828054611b0c9061272e565b8015611b595780601f10611b2e57610100808354040283529160200191611b59565b820191906000526020600020905b815481529060010190602001808311611b3c57829003601f168201915b5050505050815260200160018201548152602001600282015481526020016003820154815260200160048201548152602001600582018054611b9a9061272e565b80601f0160208091040260200160405190810160405280929190818152602001828054611bc69061272e565b8015611c135780601f10611be857610100808354040283529160200191611c13565b820191906000526020600020905b815481529060010190602001808311611bf657829003601f168201915b50505091835250506006919091015460ff1615156020918201526001600160a01b03851660009081526004909152604080822090519293509091611c58908790612712565b9081526020016040518091039020549050611c7c8260200151836040015183611ce0565b925050505b92915050565b600260015403611cd95760405162461bcd60e51b815260206004820152601f60248201527f5265656e7472616e637947756172643a207265656e7472616e742063616c6c0060448201526064016105b8565b6002600155565b600081600003611cf1575082611d2c565b8360005b83811015611d28576103e8611d0a86846128e6565b611d1491906128fd565b915080611d20816126e3565b915050611cf5565b5090505b9392505050565b6000546001600160a01b0316331461102f5760405162461bcd60e51b815260206004820181905260248201527f4f776e61626c653a2063616c6c6572206973206e6f7420746865206f776e657260448201526064016105b8565b6001600160a01b03821660009081526007602052604081208190555b8151811015611e3a57818181518110611dc457611dc46126fc565b6020908102919091018101516001600160a01b03851660009081526006835260408082208583529093529190912090611dfd9082612826565b506001600160a01b0383166000908152600760205260408120805491611e22836126e3565b91905055508080611e32906126e3565b915050611da9565b505050565b600080546001600160a01b038381166001600160a01b0319831681178455604051919092169283917f8be0079c531659141344cd1fd0a4f28419497f9722a3daafe3b4186f6b6457e09190a35050565b6001600160a01b0381166000908152600760205260408120546060918167ffffffffffffffff811115611ec457611ec4612039565b604051908082528060200260200182016040528015611ef757816020015b6060815260200190600190039081611ee25790505b50905060005b82811015611fe1576001600160a01b038516600090815260066020908152604080832084845290915290208054611f339061272e565b80601f0160208091040260200160405190810160405280929190818152602001828054611f5f9061272e565b8015611fac5780601f10611f8157610100808354040283529160200191611fac565b820191906000526020600020905b815481529060010190602001808311611f8f57829003601f168201915b5050505050828281518110611fc357611fc36126fc565b60200260200101819052508080611fd9906126e3565b915050611efd565b509392505050565b600060208284031215611ffb57600080fd5b5035919050565b80356001600160a01b038116811461201957600080fd5b919050565b60006020828403121561203057600080fd5b611d2c82612002565b634e487b7160e01b600052604160045260246000fd5b604051601f8201601f1916810167ffffffffffffffff8111828210171561207857612078612039565b604052919050565b600082601f83011261209157600080fd5b813567ffffffffffffffff8111156120ab576120ab612039565b6120be601f8201601f191660200161204f565b8181528460208386010111156120d357600080fd5b816020850160208301376000918101602001919091529392505050565b60006020828403121561210257600080fd5b813567ffffffffffffffff81111561211957600080fd5b61212584828501612080565b949350505050565b600080600080600080600060e0888a03121561214857600080fd5b873567ffffffffffffffff8082111561216057600080fd5b61216c8b838c01612080565b985060208a013591508082111561218257600080fd5b61218e8b838c01612080565b975060408a0135965060608a0135955060808a0135945060a08a0135935060c08a01359150808211156121c057600080fd5b506121cd8a828b01612080565b91505092959891949750929550565b60005b838110156121f75781810151838201526020016121df565b50506000910152565b600081518084526122188160208601602086016121dc565b601f01601f19169290920160200192915050565b60e08152600061223f60e083018a612200565b88602084015287604084015286606084015285608084015282810360a08401526122698186612200565b91505082151560c083015298975050505050505050565b600067ffffffffffffffff82111561229a5761229a612039565b5060051b60200190565b600082601f8301126122b557600080fd5b813560206122ca6122c583612280565b61204f565b82815260059290921b840181019181810190868411156122e957600080fd5b8286015b8481101561232957803567ffffffffffffffff81111561230d5760008081fd5b61231b8986838b0101612080565b8452509183019183016122ed565b509695505050505050565b600080600080600060a0868803121561234c57600080fd5b85359450602086013593506040860135925060608601359150608086013567ffffffffffffffff81111561237f57600080fd5b61238b888289016122a4565b9150509295509295909350565b6000815180845260208085019450848260051b860182860160005b858110156123dd5783830389526123cb838351612200565b988501989250908401906001016123b3565b5090979650505050505050565b6040815260006123fd6040830185612398565b82810360208481019190915284518083528582019282019060005b818110156123dd57845183529383019391830191600101612418565b6000806040838503121561244757600080fd5b61245083612002565b9150602083013567ffffffffffffffff81111561246c57600080fd5b61247885828601612080565b9150509250929050565b6000610120855183526020860151602084015260408601516040840152606086015160608401526080860151608084015260a086015160a084015260c0860151151560c08401528460e0840152806101008401526124e281840185612398565b9695505050505050565b600080604083850312156124ff57600080fd5b61250883612002565b946020939093013593505050565b602081526000611d2c6020830184612200565b600082601f83011261253a57600080fd5b8135602061254a6122c583612280565b82815260059290921b8401810191818101908684111561256957600080fd5b8286015b84811015612329578035835291830191830161256d565b600080600080600080600080610100898b0312156125a157600080fd5b88359750602089013596506040890135955060608901359450608089013567ffffffffffffffff808211156125d557600080fd5b6125e18c838d016122a4565b955060a08b01359150808211156125f757600080fd5b6126038c838d01612529565b945060c08b0135935060e08b013591508082111561262057600080fd5b5061262d8b828c016122a4565b9150509295985092959890939650565b6000806040838503121561265057600080fd5b823567ffffffffffffffff81111561266757600080fd5b61267385828601612080565b92505061268260208401612002565b90509250929050565b602080825260159082015274141b185e595c881b9bdd081c9959da5cdd195c9959605a1b604082015260600190565b634e487b7160e01b600052601160045260246000fd5b80820180821115611c8157611c816126ba565b6000600182016126f5576126f56126ba565b5060010190565b634e487b7160e01b600052603260045260246000fd5b600082516127248184602087016121dc565b9190910192915050565b600181811c9082168061274257607f821691505b60208210810361276257634e487b7160e01b600052602260045260246000fd5b50919050565b81810381811115611c8157611c816126ba565b60006020828403121561278d57600080fd5b5051919050565b60a0815260006127a760a0830188612200565b86602084015285604084015282810360608401526127c58186612200565b9150508260808301529695505050505050565b601f821115611e3a57600081815260208120601f850160051c810160208610156127ff5750805b601f850160051c820191505b8181101561281e5782815560010161280b565b505050505050565b815167ffffffffffffffff81111561284057612840612039565b6128548161284e845461272e565b846127d8565b602080601f83116001811461288957600084156128715750858301515b600019600386901b1c1916600185901b17855561281e565b600085815260208120601f198616915b828110156128b857888601518255948401946001909101908401612899565b50858210156128d65787850151600019600388901b60f8161c191681555b5050505050600190811b01905550565b8082028115828204841417611c8157611c816126ba565b60008261291a57634e487b7160e01b600052601260045260246000fd5b50049056fea264697066735822122040f5c45b780f6804fb045d2a0d02786c40748f3e33d9c0bb46f07ba917b3a51f64736f6c63430008130033","opcodes":"PUSH1 0x80 PUSH1 0x40 MSTORE CALLVALUE DUP1 ISZERO PUSH3 0x11 JUMPI PUSH1 0x0 DUP1 REVERT JUMPDEST POP PUSH1 0x40 MLOAD PUSH3 0x353A CODESIZE SUB DUP1 PUSH3 0x353A DUP4 CODECOPY DUP2 ADD PUSH1 0x40 DUP2 SWAP1 MSTORE PUSH3 0x34 SWAP2 PUSH3 0xA32 JUMP JUMPDEST PUSH3 0x3F CALLER PUSH3 0x6F JUMP JUMPDEST PUSH1 0x1 DUP1 SSTORE PUSH1 0x2 DUP1 SLOAD PUSH1 0x1 PUSH1 0x1 PUSH1 0xA0 SHL SUB NOT AND PUSH1 0x1 PUSH1 0x1 PUSH1 0xA0 SHL SUB DUP4 AND OR SWAP1 SSTORE PUSH3 0x68 PUSH3 0xBF JUMP JUMPDEST POP PUSH3 0xBD5 JUMP JUMPDEST PUSH1 0x0 DUP1 SLOAD PUSH1 0x1 PUSH1 0x1 PUSH1 0xA0 SHL SUB DUP4 DUP2 AND PUSH1 0x1 PUSH1 0x1 PUSH1 0xA0 SHL SUB NOT DUP4 AND DUP2 OR DUP5 SSTORE PUSH1 0x40 MLOAD SWAP2 SWAP1 SWAP3 AND SWAP3 DUP4 SWAP2 PUSH32 0x8BE0079C531659141344CD1FD0A4F28419497F9722A3DAAFE3B4186F6B6457E0 SWAP2 SWAP1 LOG3 POP POP JUMP JUMPDEST PUSH1 0x40 MLOAD DUP1 PUSH1 0xE0 ADD PUSH1 0x40 MSTORE DUP1 PUSH1 0x40 MLOAD DUP1 PUSH1 0x40 ADD PUSH1 0x40 MSTORE DUP1 PUSH1 0x9 DUP2 MSTORE PUSH1 0x20 ADD PUSH9 0x54656C6573636F7065 PUSH1 0xB8 SHL DUP2 MSTORE POP DUP2 MSTORE PUSH1 0x20 ADD PUSH1 0xA DUP2 MSTORE PUSH1 0x20 ADD PUSH2 0x47E DUP2 MSTORE PUSH1 0x20 ADD PUSH1 0x1 DUP2 MSTORE PUSH1 0x20 ADD PUSH1 0x0 DUP2 MSTORE PUSH1 0x20 ADD PUSH1 0x40 MLOAD DUP1 PUSH1 0x40 ADD PUSH1 0x40 MSTORE DUP1 PUSH1 0x8 DUP2 MSTORE PUSH1 0x20 ADD PUSH8 0x1CDD185C991D5CDD PUSH1 0xC2 SHL DUP2 MSTORE POP DUP2 MSTORE PUSH1 0x20 ADD PUSH1 0x1 ISZERO ISZERO DUP2 MSTORE POP PUSH1 0x5 PUSH1 0x40 MLOAD PUSH3 0x15A SWAP1 PUSH9 0x74656C6573636F7065 PUSH1 0xB8 SHL DUP2 MSTORE PUSH1 0x9 ADD SWAP1 JUMP JUMPDEST SWAP1 DUP2 MSTORE PUSH1 0x40 MLOAD SWAP1 DUP2 SWAP1 SUB PUSH1 0x20 ADD SWAP1 KECCAK256 DUP2 MLOAD DUP2 SWAP1 PUSH3 0x179 SWAP1 DUP3 PUSH3 0xB09 JUMP JUMPDEST POP PUSH1 0x20 DUP3 ADD MLOAD PUSH1 0x1 DUP3 ADD SSTORE PUSH1 0x40 DUP3 ADD MLOAD PUSH1 0x2 DUP3 ADD SSTORE PUSH1 0x60 DUP3 ADD MLOAD PUSH1 0x3 DUP3 ADD SSTORE PUSH1 0x80 DUP3 ADD MLOAD PUSH1 0x4 DUP3 ADD SSTORE PUSH1 0xA0 DUP3 ADD MLOAD PUSH1 0x5 DUP3 ADD SWAP1 PUSH3 0x1B8 SWAP1 DUP3 PUSH3 0xB09 JUMP JUMPDEST POP PUSH1 0xC0 SWAP2 DUP3 ADD MLOAD PUSH1 0x6 SWAP2 SWAP1 SWAP2 ADD DUP1 SLOAD PUSH1 0xFF NOT AND SWAP2 ISZERO ISZERO SWAP2 SWAP1 SWAP2 OR SWAP1 SSTORE PUSH1 0x40 DUP1 MLOAD PUSH2 0x120 DUP2 ADD DUP3 MSTORE PUSH1 0x9 PUSH1 0xE0 DUP3 ADD DUP2 DUP2 MSTORE PUSH9 0x536174656C6C697465 PUSH1 0xB8 SHL PUSH2 0x100 DUP5 ADD MSTORE DUP3 MSTORE PUSH1 0x64 PUSH1 0x20 DUP1 DUP5 ADD SWAP2 SWAP1 SWAP2 MSTORE PUSH2 0x47E DUP4 DUP6 ADD MSTORE PUSH1 0x5 PUSH1 0x60 DUP5 ADD DUP2 SWAP1 MSTORE PUSH1 0x1 PUSH1 0x80 DUP6 ADD DUP2 SWAP1 MSTORE DUP6 MLOAD DUP1 DUP8 ADD DUP8 MSTORE PUSH1 0x8 DUP2 MSTORE PUSH8 0x1CDD185C991D5CDD PUSH1 0xC2 SHL SWAP4 DUP2 ADD SWAP4 SWAP1 SWAP4 MSTORE PUSH1 0xA0 DUP6 ADD SWAP3 SWAP1 SWAP3 MSTORE SWAP5 DUP4 ADD MSTORE SWAP2 MLOAD PUSH9 0x736174656C6C697465 PUSH1 0xB8 SHL DUP2 MSTORE SWAP1 SWAP3 SWAP2 ADD SWAP1 DUP2 MSTORE PUSH1 0x40 MLOAD SWAP1 DUP2 SWAP1 SUB PUSH1 0x20 ADD SWAP1 KECCAK256 DUP2 MLOAD DUP2 SWAP1 PUSH3 0x27F SWAP1 DUP3 PUSH3 0xB09 JUMP JUMPDEST POP PUSH1 0x20 DUP3 ADD MLOAD PUSH1 0x1 DUP3 ADD SSTORE PUSH1 0x40 DUP3 ADD MLOAD PUSH1 0x2 DUP3 ADD SSTORE PUSH1 0x60 DUP3 ADD MLOAD PUSH1 0x3 DUP3 ADD SSTORE PUSH1 0x80 DUP3 ADD MLOAD PUSH1 0x4 DUP3 ADD SSTORE PUSH1 0xA0 DUP3 ADD MLOAD PUSH1 0x5 DUP3 ADD SWAP1 PUSH3 0x2BE SWAP1 DUP3 PUSH3 0xB09 JUMP JUMPDEST POP PUSH1 0xC0 SWAP2 DUP3 ADD MLOAD PUSH1 0x6 SWAP2 SWAP1 SWAP2 ADD DUP1 SLOAD PUSH1 0xFF NOT AND SWAP2 ISZERO ISZERO SWAP2 SWAP1 SWAP2 OR SWAP1 SSTORE PUSH1 0x40 DUP1 MLOAD PUSH2 0x120 DUP2 ADD DUP3 MSTORE PUSH1 0xB PUSH1 0xE0 DUP3 ADD DUP2 DUP2 MSTORE PUSH11 0x4F627365727661746F7279 PUSH1 0xA8 SHL PUSH2 0x100 DUP5 ADD MSTORE DUP3 MSTORE PUSH2 0x3E8 PUSH1 0x20 DUP1 DUP5 ADD SWAP2 SWAP1 SWAP2 MSTORE PUSH2 0x47E DUP4 DUP6 ADD MSTORE PUSH1 0xA PUSH1 0x60 DUP5 ADD MSTORE PUSH1 0x5 PUSH1 0x80 DUP5 ADD DUP2 SWAP1 MSTORE DUP5 MLOAD DUP1 DUP7 ADD DUP7 MSTORE PUSH1 0x8 DUP2 MSTORE PUSH8 0x1CDD185C991D5CDD PUSH1 0xC2 SHL SWAP3 DUP2 ADD SWAP3 SWAP1 SWAP3 MSTORE PUSH1 0xA0 DUP5 ADD SWAP2 SWAP1 SWAP2 MSTORE PUSH1 0x1 SWAP5 DUP4 ADD SWAP5 SWAP1 SWAP5 MSTORE SWAP2 MLOAD PUSH11 0x6F627365727661746F7279 PUSH1 0xA8 SHL DUP2 MSTORE SWAP1 SWAP3 SWAP2 ADD SWAP1 DUP2 MSTORE PUSH1 0x40 MLOAD SWAP1 DUP2 SWAP1 SUB PUSH1 0x20 ADD SWAP1 KECCAK256 DUP2 MLOAD DUP2 SWAP1 PUSH3 0x38D SWAP1 DUP3 PUSH3 0xB09 JUMP JUMPDEST POP PUSH1 0x20 DUP3 ADD MLOAD PUSH1 0x1 DUP3 ADD SSTORE PUSH1 0x40 DUP3 ADD MLOAD PUSH1 0x2 DUP3 ADD SSTORE PUSH1 0x60 DUP3 ADD MLOAD PUSH1 0x3 DUP3 ADD SSTORE PUSH1 0x80 DUP3 ADD MLOAD PUSH1 0x4 DUP3 ADD SSTORE PUSH1 0xA0 DUP3 ADD MLOAD PUSH1 0x5 DUP3 ADD SWAP1 PUSH3 0x3CC SWAP1 DUP3 PUSH3 0xB09 JUMP JUMPDEST POP PUSH1 0xC0 SWAP2 DUP3 ADD MLOAD PUSH1 0x6 SWAP2 SWAP1 SWAP2 ADD DUP1 SLOAD PUSH1 0xFF NOT AND SWAP2 ISZERO ISZERO SWAP2 SWAP1 SWAP2 OR SWAP1 SSTORE PUSH1 0x40 DUP1 MLOAD PUSH2 0x120 DUP2 ADD DUP3 MSTORE PUSH1 0x8 PUSH1 0xE0 DUP3 ADD DUP2 DUP2 MSTORE PUSH8 0x537461727368697 PUSH1 0xC4 SHL PUSH2 0x100 DUP5 ADD MSTORE DUP3 MSTORE PUSH1 0xA PUSH1 0x20 DUP1 DUP5 ADD SWAP2 SWAP1 SWAP2 MSTORE PUSH2 0x4B0 DUP4 DUP6 ADD MSTORE PUSH1 0x32 PUSH1 0x60 DUP5 ADD MSTORE PUSH1 0x19 PUSH1 0x80 DUP5 ADD MSTORE DUP4 MLOAD DUP1 DUP6 ADD DUP6 MSTORE PUSH1 0x7 DUP2 MSTORE PUSH7 0x63726564697473 PUSH1 0xC8 SHL SWAP2 DUP2 ADD SWAP2 SWAP1 SWAP2 MSTORE PUSH1 0xA0 DUP4 ADD MSTORE PUSH1 0x1 SWAP4 DUP3 ADD SWAP4 SWAP1 SWAP4 MSTORE SWAP1 MLOAD PUSH8 0x737461727368697 PUSH1 0xC4 SHL DUP2 MSTORE SWAP1 SWAP2 PUSH1 0x5 SWAP2 ADD SWAP1 DUP2 MSTORE PUSH1 0x40 MLOAD SWAP1 DUP2 SWAP1 SUB PUSH1 0x20 ADD SWAP1 KECCAK256 DUP2 MLOAD DUP2 SWAP1 PUSH3 0x490 SWAP1 DUP3 PUSH3 0xB09 JUMP JUMPDEST POP PUSH1 0x20 DUP3 ADD MLOAD PUSH1 0x1 DUP3 ADD SSTORE PUSH1 0x40 DUP3 ADD MLOAD PUSH1 0x2 DUP3 ADD SSTORE PUSH1 0x60 DUP3 ADD MLOAD PUSH1 0x3 DUP3 ADD SSTORE PUSH1 0x80 DUP3 ADD MLOAD PUSH1 0x4 DUP3 ADD SSTORE PUSH1 0xA0 DUP3 ADD MLOAD PUSH1 0x5 DUP3 ADD SWAP1 PUSH3 0x4CF SWAP1 DUP3 PUSH3 0xB09 JUMP JUMPDEST POP PUSH1 0xC0 SWAP2 DUP3 ADD MLOAD PUSH1 0x6 SWAP2 SWAP1 SWAP2 ADD DUP1 SLOAD PUSH1 0xFF NOT AND SWAP2 ISZERO ISZERO SWAP2 SWAP1 SWAP2 OR SWAP1 SSTORE PUSH1 0x40 DUP1 MLOAD PUSH2 0x120 DUP2 ADD DUP3 MSTORE PUSH1 0xD PUSH1 0xE0 DUP3 ADD SWAP1 DUP2 MSTORE PUSH13 0x29B830B1B29029BA30BA34B7B7 PUSH1 0x99 SHL PUSH2 0x100 DUP4 ADD MSTORE DUP2 MSTORE PUSH1 0x32 PUSH1 0x20 DUP1 DUP4 ADD DUP3 SWAP1 MSTORE PUSH2 0x4B0 DUP4 DUP6 ADD MSTORE PUSH1 0x64 PUSH1 0x60 DUP5 ADD MSTORE PUSH1 0x80 DUP4 ADD SWAP2 SWAP1 SWAP2 MSTORE DUP3 MLOAD DUP1 DUP5 ADD DUP5 MSTORE PUSH1 0x7 DUP2 MSTORE PUSH7 0x63726564697473 PUSH1 0xC8 SHL SWAP2 DUP2 ADD SWAP2 SWAP1 SWAP2 MSTORE PUSH1 0xA0 DUP3 ADD MSTORE PUSH1 0x1 SWAP3 DUP2 ADD SWAP3 SWAP1 SWAP3 MSTORE MLOAD PUSH12 0x39B830B1B2B9BA30BA34B7B7 PUSH1 0xA1 SHL DUP2 MSTORE PUSH1 0x5 SWAP1 PUSH1 0xC ADD SWAP1 DUP2 MSTORE PUSH1 0x40 MLOAD SWAP1 DUP2 SWAP1 SUB PUSH1 0x20 ADD SWAP1 KECCAK256 DUP2 MLOAD DUP2 SWAP1 PUSH3 0x59B SWAP1 DUP3 PUSH3 0xB09 JUMP JUMPDEST POP PUSH1 0x20 DUP3 ADD MLOAD PUSH1 0x1 DUP3 ADD SSTORE PUSH1 0x40 DUP3 ADD MLOAD PUSH1 0x2 DUP3 ADD SSTORE PUSH1 0x60 DUP3 ADD MLOAD PUSH1 0x3 DUP3 ADD SSTORE PUSH1 0x80 DUP3 ADD MLOAD PUSH1 0x4 DUP3 ADD SSTORE PUSH1 0xA0 DUP3 ADD MLOAD PUSH1 0x5 DUP3 ADD SWAP1 PUSH3 0x5DA SWAP1 DUP3 PUSH3 0xB09 JUMP JUMPDEST POP PUSH1 0xC0 SWAP2 DUP3 ADD MLOAD PUSH1 0x6 SWAP2 SWAP1 SWAP2 ADD DUP1 SLOAD PUSH1 0xFF NOT AND SWAP2 ISZERO ISZERO SWAP2 SWAP1 SWAP2 OR SWAP1 SSTORE PUSH1 0x40 DUP1 MLOAD PUSH2 0x120 DUP2 ADD DUP3 MSTORE PUSH1 0x12 PUSH1 0xE0 DUP3 ADD SWAP1 DUP2 MSTORE PUSH18 0x2BB7B936B437B6329023B2B732B930BA37B9 PUSH1 0x71 SHL PUSH2 0x100 DUP4 ADD MSTORE DUP2 MSTORE PUSH1 0xC8 PUSH1 0x20 DUP1 DUP4 ADD SWAP2 SWAP1 SWAP2 MSTORE PUSH2 0x4E2 DUP3 DUP5 ADD MSTORE PUSH2 0x1F4 PUSH1 0x60 DUP4 ADD MSTORE PUSH1 0xFA PUSH1 0x80 DUP4 ADD MSTORE DUP3 MLOAD DUP1 DUP5 ADD DUP5 MSTORE PUSH1 0x7 DUP2 MSTORE PUSH7 0x63726564697473 PUSH1 0xC8 SHL SWAP2 DUP2 ADD SWAP2 SWAP1 SWAP2 MSTORE PUSH1 0xA0 DUP3 ADD MSTORE PUSH1 0x1 SWAP3 DUP2 ADD SWAP3 SWAP1 SWAP3 MSTORE MLOAD PUSH8 0x776F726D686F6C65 PUSH1 0xC0 SHL DUP2 MSTORE PUSH1 0x5 SWAP1 PUSH1 0x8 ADD SWAP1 DUP2 MSTORE PUSH1 0x40 MLOAD SWAP1 DUP2 SWAP1 SUB PUSH1 0x20 ADD SWAP1 KECCAK256 DUP2 MLOAD DUP2 SWAP1 PUSH3 0x6A8 SWAP1 DUP3 PUSH3 0xB09 JUMP JUMPDEST POP PUSH1 0x20 DUP3 ADD MLOAD PUSH1 0x1 DUP3 ADD SSTORE PUSH1 0x40 DUP3 ADD MLOAD PUSH1 0x2 DUP3 ADD SSTORE PUSH1 0x60 DUP3 ADD MLOAD PUSH1 0x3 DUP3 ADD SSTORE PUSH1 0x80 DUP3 ADD MLOAD PUSH1 0x4 DUP3 ADD SSTORE PUSH1 0xA0 DUP3 ADD MLOAD PUSH1 0x5 DUP3 ADD SWAP1 PUSH3 0x6E7 SWAP1 DUP3 PUSH3 0xB09 JUMP JUMPDEST POP PUSH1 0xC0 SWAP2 DUP3 ADD MLOAD PUSH1 0x6 SWAP2 SWAP1 SWAP2 ADD DUP1 SLOAD PUSH1 0xFF NOT AND SWAP2 ISZERO ISZERO SWAP2 SWAP1 SWAP2 OR SWAP1 SSTORE PUSH1 0x40 DUP1 MLOAD PUSH2 0x120 DUP2 ADD DUP3 MSTORE PUSH1 0xA PUSH1 0xE0 DUP3 ADD SWAP1 DUP2 MSTORE PUSH10 0x426C61636B20486F6C65 PUSH1 0xB0 SHL PUSH2 0x100 DUP4 ADD MSTORE DUP2 MSTORE PUSH2 0x1F4 PUSH1 0x20 DUP1 DUP4 ADD DUP3 SWAP1 MSTORE PUSH2 0x4E2 DUP4 DUP6 ADD MSTORE PUSH2 0x3E8 PUSH1 0x60 DUP5 ADD MSTORE PUSH1 0x80 DUP4 ADD SWAP2 SWAP1 SWAP2 MSTORE DUP3 MLOAD DUP1 DUP5 ADD DUP5 MSTORE PUSH1 0x7 DUP2 MSTORE PUSH7 0x63726564697473 PUSH1 0xC8 SHL SWAP2 DUP2 ADD SWAP2 SWAP1 SWAP2 MSTORE PUSH1 0xA0 DUP3 ADD MSTORE PUSH1 0x1 SWAP3 DUP2 ADD SWAP3 SWAP1 SWAP3 MSTORE MLOAD PUSH9 0x626C61636B686F6C65 PUSH1 0xB8 SHL DUP2 MSTORE PUSH1 0x5 SWAP1 PUSH1 0x9 ADD SWAP1 DUP2 MSTORE PUSH1 0x40 MLOAD SWAP1 DUP2 SWAP1 SUB PUSH1 0x20 ADD SWAP1 KECCAK256 DUP2 MLOAD DUP2 SWAP1 PUSH3 0x7AF SWAP1 DUP3 PUSH3 0xB09 JUMP JUMPDEST POP PUSH1 0x20 DUP3 ADD MLOAD PUSH1 0x1 DUP3 ADD SSTORE PUSH1 0x40 DUP3 ADD MLOAD PUSH1 0x2 DUP3 ADD SSTORE PUSH1 0x60 DUP3 ADD MLOAD PUSH1 0x3 DUP3 ADD SSTORE PUSH1 0x80 DUP3 ADD MLOAD PUSH1 0x4 DUP3 ADD SSTORE PUSH1 0xA0 DUP3 ADD MLOAD PUSH1 0x5 DUP3 ADD SWAP1 PUSH3 0x7EE SWAP1 DUP3 PUSH3 0xB09 JUMP JUMPDEST POP PUSH1 0xC0 SWAP2 DUP3 ADD MLOAD PUSH1 0x6 SWAP2 SWAP1 SWAP2 ADD DUP1 SLOAD PUSH1 0xFF NOT AND SWAP2 ISZERO ISZERO SWAP2 SWAP1 SWAP2 OR SWAP1 SSTORE PUSH1 0x40 DUP1 MLOAD PUSH2 0x120 DUP2 ADD DUP3 MSTORE PUSH1 0x10 PUSH1 0xE0 DUP3 ADD SWAP1 DUP2 MSTORE PUSH16 0x47616C6163746963204E6574776F726B PUSH1 0x80 SHL PUSH2 0x100 DUP4 ADD MSTORE DUP2 MSTORE PUSH2 0x3E8 PUSH1 0x20 DUP1 DUP4 ADD SWAP2 SWAP1 SWAP2 MSTORE PUSH2 0x514 DUP3 DUP5 ADD MSTORE PUSH2 0x1388 PUSH1 0x60 DUP4 ADD MSTORE PUSH2 0x9C4 PUSH1 0x80 DUP4 ADD MSTORE DUP3 MLOAD DUP1 DUP5 ADD DUP5 MSTORE PUSH1 0x7 DUP2 MSTORE PUSH7 0x63726564697473 PUSH1 0xC8 SHL SWAP2 DUP2 ADD SWAP2 SWAP1 SWAP2 MSTORE PUSH1 0xA0 DUP3 ADD MSTORE PUSH1 0x1 SWAP3 DUP2 ADD SWAP3 SWAP1 SWAP3 MSTORE MLOAD PUSH15 0x67616C61637469636E6574776F726B PUSH1 0x88 SHL DUP2 MSTORE PUSH1 0x5 SWAP1 PUSH1 0xF ADD SWAP1 DUP2 MSTORE PUSH1 0x40 MLOAD SWAP1 DUP2 SWAP1 SUB PUSH1 0x20 ADD SWAP1 KECCAK256 DUP2 MLOAD DUP2 SWAP1 PUSH3 0x8C3 SWAP1 DUP3 PUSH3 0xB09 JUMP JUMPDEST POP PUSH1 0x20 DUP3 ADD MLOAD PUSH1 0x1 DUP3 ADD SSTORE PUSH1 0x40 DUP3 ADD MLOAD PUSH1 0x2 DUP3 ADD SSTORE PUSH1 0x60 DUP3 ADD MLOAD PUSH1 0x3 DUP3 ADD SSTORE PUSH1 0x80 DUP3 ADD MLOAD PUSH1 0x4 DUP3 ADD SSTORE PUSH1 0xA0 DUP3 ADD MLOAD PUSH1 0x5 DUP3 ADD SWAP1 PUSH3 0x902 SWAP1 DUP3 PUSH3 0xB09 JUMP JUMPDEST POP PUSH1 0xC0 SWAP2 DUP3 ADD MLOAD PUSH1 0x6 SWAP2 SWAP1 SWAP2 ADD DUP1 SLOAD PUSH1 0xFF NOT AND SWAP2 ISZERO ISZERO SWAP2 SWAP1 SWAP2 OR SWAP1 SSTORE PUSH1 0x40 DUP1 MLOAD PUSH2 0x120 DUP2 ADD DUP3 MSTORE PUSH1 0xF PUSH1 0xE0 DUP3 ADD SWAP1 DUP2 MSTORE PUSH15 0x556E69766572736520456E67696E65 PUSH1 0x88 SHL PUSH2 0x100 DUP4 ADD MSTORE DUP2 MSTORE PUSH2 0x7D0 PUSH1 0x20 DUP1 DUP4 ADD SWAP2 SWAP1 SWAP2 MSTORE PUSH2 0x5DC DUP3 DUP5 ADD MSTORE PUSH2 0x2710 PUSH1 0x60 DUP4 ADD MSTORE PUSH2 0x1388 PUSH1 0x80 DUP4 ADD MSTORE DUP3 MLOAD DUP1 DUP5 ADD DUP5 MSTORE PUSH1 0x7 DUP2 MSTORE PUSH7 0x63726564697473 PUSH1 0xC8 SHL SWAP2 DUP2 ADD SWAP2 SWAP1 SWAP2 MSTORE PUSH1 0xA0 DUP3 ADD MSTORE PUSH1 0x1 SWAP3 DUP2 ADD SWAP3 SWAP1 SWAP3 MSTORE MLOAD PUSH14 0x756E697665727365656E67696E65 PUSH1 0x90 SHL DUP2 MSTORE PUSH1 0x5 SWAP1 PUSH1 0xE ADD SWAP1 DUP2 MSTORE PUSH1 0x40 MLOAD SWAP1 DUP2 SWAP1 SUB PUSH1 0x20 ADD SWAP1 KECCAK256 DUP2 MLOAD DUP2 SWAP1 PUSH3 0x9D5 SWAP1 DUP3 PUSH3 0xB09 JUMP JUMPDEST POP PUSH1 0x20 DUP3 ADD MLOAD PUSH1 0x1 DUP3 ADD SSTORE PUSH1 0x40 DUP3 ADD MLOAD PUSH1 0x2 DUP3 ADD SSTORE PUSH1 0x60 DUP3 ADD MLOAD PUSH1 0x3 DUP3 ADD SSTORE PUSH1 0x80 DUP3 ADD MLOAD PUSH1 0x4 DUP3 ADD SSTORE PUSH1 0xA0 DUP3 ADD MLOAD PUSH1 0x5 DUP3 ADD SWAP1 PUSH3 0xA14 SWAP1 DUP3 PUSH3 0xB09 JUMP JUMPDEST POP PUSH1 0xC0 SWAP2 SWAP1 SWAP2 ADD MLOAD PUSH1 0x6 SWAP1 SWAP2 ADD DUP1 SLOAD PUSH1 0xFF NOT AND SWAP2 ISZERO ISZERO SWAP2 SWAP1 SWAP2 OR SWAP1 SSTORE JUMP JUMPDEST PUSH1 0x0 PUSH1 0x20 DUP3 DUP5 SUB SLT ISZERO PUSH3 0xA45 JUMPI PUSH1 0x0 DUP1 REVERT JUMPDEST DUP2 MLOAD PUSH1 0x1 PUSH1 0x1 PUSH1 0xA0 SHL SUB DUP2 AND DUP2 EQ PUSH3 0xA5D JUMPI PUSH1 0x0 DUP1 REVERT JUMPDEST SWAP4 SWAP3 POP POP POP JUMP JUMPDEST PUSH4 0x4E487B71 PUSH1 0xE0 SHL PUSH1 0x0 MSTORE PUSH1 0x41 PUSH1 0x4 MSTORE PUSH1 0x24 PUSH1 0x0 REVERT JUMPDEST PUSH1 0x1 DUP2 DUP2 SHR SWAP1 DUP3 AND DUP1 PUSH3 0xA8F JUMPI PUSH1 0x7F DUP3 AND SWAP2 POP JUMPDEST PUSH1 0x20 DUP3 LT DUP2 SUB PUSH3 0xAB0 JUMPI PUSH4 0x4E487B71 PUSH1 0xE0 SHL PUSH1 0x0 MSTORE PUSH1 0x22 PUSH1 0x4 MSTORE PUSH1 0x24 PUSH1 0x0 REVERT JUMPDEST POP SWAP2 SWAP1 POP JUMP JUMPDEST PUSH1 0x1F DUP3 GT ISZERO PUSH3 0xB04 JUMPI PUSH1 0x0 DUP2 DUP2 MSTORE PUSH1 0x20 DUP2 KECCAK256 PUSH1 0x1F DUP6 ADD PUSH1 0x5 SHR DUP2 ADD PUSH1 0x20 DUP7 LT ISZERO PUSH3 0xADF JUMPI POP DUP1 JUMPDEST PUSH1 0x1F DUP6 ADD PUSH1 0x5 SHR DUP3 ADD SWAP2 POP JUMPDEST DUP2 DUP2 LT ISZERO PUSH3 0xB00 JUMPI DUP3 DUP2 SSTORE PUSH1 0x1 ADD PUSH3 0xAEB JUMP JUMPDEST POP POP POP JUMPDEST POP POP POP JUMP JUMPDEST DUP2 MLOAD PUSH1 0x1 PUSH1 0x1 PUSH1 0x40 SHL SUB DUP2 GT ISZERO PUSH3 0xB25 JUMPI PUSH3 0xB25 PUSH3 0xA64 JUMP JUMPDEST PUSH3 0xB3D DUP2 PUSH3 0xB36 DUP5 SLOAD PUSH3 0xA7A JUMP JUMPDEST DUP5 PUSH3 0xAB6 JUMP JUMPDEST PUSH1 0x20 DUP1 PUSH1 0x1F DUP4 GT PUSH1 0x1 DUP2 EQ PUSH3 0xB75 JUMPI PUSH1 0x0 DUP5 ISZERO PUSH3 0xB5C JUMPI POP DUP6 DUP4 ADD MLOAD JUMPDEST PUSH1 0x0 NOT PUSH1 0x3 DUP7 SWAP1 SHL SHR NOT AND PUSH1 0x1 DUP6 SWAP1 SHL OR DUP6 SSTORE PUSH3 0xB00 JUMP JUMPDEST PUSH1 0x0 DUP6 DUP2 MSTORE PUSH1 0x20 DUP2 KECCAK256 PUSH1 0x1F NOT DUP7 AND SWAP2 JUMPDEST DUP3 DUP2 LT ISZERO PUSH3 0xBA6 JUMPI DUP9 DUP7 ADD MLOAD DUP3 SSTORE SWAP5 DUP5 ADD SWAP5 PUSH1 0x1 SWAP1 SWAP2 ADD SWAP1 DUP5 ADD PUSH3 0xB85 JUMP JUMPDEST POP DUP6 DUP3 LT ISZERO PUSH3 0xBC5 JUMPI DUP8 DUP6 ADD MLOAD PUSH1 0x0 NOT PUSH1 0x3 DUP9 SWAP1 SHL PUSH1 0xF8 AND SHR NOT AND DUP2 SSTORE JUMPDEST POP POP POP POP POP PUSH1 0x1 SWAP1 DUP2 SHL ADD SWAP1 SSTORE POP JUMP JUMPDEST PUSH2 0x2955 DUP1 PUSH3 0xBE5 PUSH1 0x0 CODECOPY PUSH1 0x0 RETURN INVALID PUSH1 0x80 PUSH1 0x40 MSTORE CALLVALUE DUP1 ISZERO PUSH2 0x10 JUMPI PUSH1 0x0 DUP1 REVERT JUMPDEST POP PUSH1 0x4 CALLDATASIZE LT PUSH2 0x1C4 JUMPI PUSH1 0x0 CALLDATALOAD PUSH1 0xE0 SHR DUP1 PUSH4 0x8DA5CB5B GT PUSH2 0xF9 JUMPI DUP1 PUSH4 0xDF999DFD GT PUSH2 0x97 JUMPI DUP1 PUSH4 0xF2FDE38B GT PUSH2 0x71 JUMPI DUP1 PUSH4 0xF2FDE38B EQ PUSH2 0x537 JUMPI DUP1 PUSH4 0xF398467B EQ PUSH2 0x54A JUMPI DUP1 PUSH4 0xF60CDCF6 EQ PUSH2 0x56A JUMPI DUP1 PUSH4 0xF737E818 EQ PUSH2 0x573 JUMPI PUSH1 0x0 DUP1 REVERT JUMPDEST DUP1 PUSH4 0xDF999DFD EQ PUSH2 0x4E4 JUMPI DUP1 PUSH4 0xE3DBF6A6 EQ PUSH2 0x504 JUMPI DUP1 PUSH4 0xF0A22A41 EQ PUSH2 0x524 JUMPI PUSH1 0x0 DUP1 REVERT JUMPDEST DUP1 PUSH4 0xC01CA43F GT PUSH2 0xD3 JUMPI DUP1 PUSH4 0xC01CA43F EQ PUSH2 0x3FC JUMPI DUP1 PUSH4 0xD15E55B7 EQ PUSH2 0x41E JUMPI DUP1 PUSH4 0xD1B2DF4B EQ PUSH2 0x4A4 JUMPI DUP1 PUSH4 0xDC0E5370 EQ PUSH2 0x4C4 JUMPI PUSH1 0x0 DUP1 REVERT JUMPDEST DUP1 PUSH4 0x8DA5CB5B EQ PUSH2 0x3A6 JUMPI DUP1 PUSH4 0xA0BBC59E EQ PUSH2 0x3B7 JUMPI DUP1 PUSH4 0xAAD135D4 EQ PUSH2 0x3F3 JUMPI PUSH1 0x0 DUP1 REVERT JUMPDEST DUP1 PUSH4 0x4FD66EAE GT PUSH2 0x166 JUMPI DUP1 PUSH4 0x66243339 GT PUSH2 0x140 JUMPI DUP1 PUSH4 0x66243339 EQ PUSH2 0x344 JUMPI DUP1 PUSH4 0x6CDFAACB EQ PUSH2 0x36A JUMPI DUP1 PUSH4 0x715018A6 EQ PUSH2 0x37D JUMPI DUP1 PUSH4 0x71923EDA EQ PUSH2 0x385 JUMPI PUSH1 0x0 DUP1 REVERT JUMPDEST DUP1 PUSH4 0x4FD66EAE EQ PUSH2 0x27D JUMPI DUP1 PUSH4 0x5C07A4B0 EQ PUSH2 0x31C JUMPI DUP1 PUSH4 0x62821451 EQ PUSH2 0x324 JUMPI PUSH1 0x0 DUP1 REVERT JUMPDEST DUP1 PUSH4 0x35C92D79 GT PUSH2 0x1A2 JUMPI DUP1 PUSH4 0x35C92D79 EQ PUSH2 0x216 JUMPI DUP1 PUSH4 0x473EC38D EQ PUSH2 0x244 JUMPI DUP1 PUSH4 0x48113D40 EQ PUSH2 0x257 JUMPI DUP1 PUSH4 0x4A4A541E EQ PUSH2 0x26A JUMPI PUSH1 0x0 DUP1 REVERT JUMPDEST DUP1 PUSH4 0x19F5E8A EQ PUSH2 0x1C9 JUMPI DUP1 PUSH4 0x642BC41 EQ PUSH2 0x1DE JUMPI DUP1 PUSH4 0x26F3FDE0 EQ PUSH2 0x20E JUMPI JUMPDEST PUSH1 0x0 DUP1 REVERT JUMPDEST PUSH2 0x1DC PUSH2 0x1D7 CALLDATASIZE PUSH1 0x4 PUSH2 0x1FE9 JUMP JUMPDEST PUSH2 0x586 JUMP JUMPDEST STOP JUMPDEST PUSH1 0x2 SLOAD PUSH2 0x1F1 SWAP1 PUSH1 0x1 PUSH1 0x1 PUSH1 0xA0 SHL SUB AND DUP2 JUMP JUMPDEST PUSH1 0x40 MLOAD PUSH1 0x1 PUSH1 0x1 PUSH1 0xA0 SHL SUB SWAP1 SWAP2 AND DUP2 MSTORE PUSH1 0x20 ADD JUMPDEST PUSH1 0x40 MLOAD DUP1 SWAP2 SUB SWAP1 RETURN JUMPDEST PUSH2 0x1DC PUSH2 0x5E8 JUMP JUMPDEST PUSH2 0x236 PUSH2 0x224 CALLDATASIZE PUSH1 0x4 PUSH2 0x201E JUMP JUMPDEST PUSH1 0xC PUSH1 0x20 MSTORE PUSH1 0x0 SWAP1 DUP2 MSTORE PUSH1 0x40 SWAP1 KECCAK256 SLOAD DUP2 JUMP JUMPDEST PUSH1 0x40 MLOAD SWAP1 DUP2 MSTORE PUSH1 0x20 ADD PUSH2 0x205 JUMP JUMPDEST PUSH2 0x1DC PUSH2 0x252 CALLDATASIZE PUSH1 0x4 PUSH2 0x20F0 JUMP JUMPDEST PUSH2 0x89C JUMP JUMPDEST PUSH2 0x1DC PUSH2 0x265 CALLDATASIZE PUSH1 0x4 PUSH2 0x20F0 JUMP JUMPDEST PUSH2 0xE14 JUMP JUMPDEST PUSH2 0x1DC PUSH2 0x278 CALLDATASIZE PUSH1 0x4 PUSH2 0x212D JUMP JUMPDEST PUSH2 0xE78 JUMP JUMPDEST PUSH2 0x2E7 PUSH2 0x28B CALLDATASIZE PUSH1 0x4 PUSH2 0x201E JUMP JUMPDEST PUSH1 0x1 PUSH1 0x1 PUSH1 0xA0 SHL SUB AND PUSH1 0x0 SWAP1 DUP2 MSTORE PUSH1 0x8 PUSH1 0x20 SWAP1 DUP2 MSTORE PUSH1 0x40 DUP1 DUP4 KECCAK256 SLOAD PUSH1 0x9 DUP4 MSTORE DUP2 DUP5 KECCAK256 SLOAD PUSH1 0x3 DUP1 DUP6 MSTORE DUP4 DUP7 KECCAK256 ADD SLOAD PUSH1 0xA DUP6 MSTORE DUP4 DUP7 KECCAK256 SLOAD PUSH1 0xB DUP7 MSTORE DUP5 DUP8 KECCAK256 SLOAD PUSH1 0xC DUP8 MSTORE DUP6 DUP9 KECCAK256 SLOAD PUSH1 0x7 SWAP1 SWAP8 MSTORE SWAP5 SWAP1 SWAP7 KECCAK256 SLOAD SWAP3 SWAP7 SWAP2 SWAP6 SWAP1 SWAP5 SWAP1 SWAP4 SWAP3 SWAP1 SWAP2 JUMP JUMPDEST PUSH1 0x40 DUP1 MLOAD SWAP8 DUP9 MSTORE PUSH1 0x20 DUP9 ADD SWAP7 SWAP1 SWAP7 MSTORE SWAP5 DUP7 ADD SWAP4 SWAP1 SWAP4 MSTORE PUSH1 0x60 DUP6 ADD SWAP2 SWAP1 SWAP2 MSTORE PUSH1 0x80 DUP5 ADD MSTORE PUSH1 0xA0 DUP4 ADD MSTORE PUSH1 0xC0 DUP3 ADD MSTORE PUSH1 0xE0 ADD PUSH2 0x205 JUMP JUMPDEST PUSH2 0x1DC PUSH2 0xF45 JUMP JUMPDEST PUSH2 0x236 PUSH2 0x332 CALLDATASIZE PUSH1 0x4 PUSH2 0x201E JUMP JUMPDEST PUSH1 0xA PUSH1 0x20 MSTORE PUSH1 0x0 SWAP1 DUP2 MSTORE PUSH1 0x40 SWAP1 KECCAK256 SLOAD DUP2 JUMP JUMPDEST PUSH2 0x357 PUSH2 0x352 CALLDATASIZE PUSH1 0x4 PUSH2 0x20F0 JUMP JUMPDEST PUSH2 0x1031 JUMP JUMPDEST PUSH1 0x40 MLOAD PUSH2 0x205 SWAP8 SWAP7 SWAP6 SWAP5 SWAP4 SWAP3 SWAP2 SWAP1 PUSH2 0x222C JUMP JUMPDEST PUSH2 0x1DC PUSH2 0x378 CALLDATASIZE PUSH1 0x4 PUSH2 0x2334 JUMP JUMPDEST PUSH2 0x1189 JUMP JUMPDEST PUSH2 0x1DC PUSH2 0x135A JUMP JUMPDEST PUSH2 0x398 PUSH2 0x393 CALLDATASIZE PUSH1 0x4 PUSH2 0x201E JUMP JUMPDEST PUSH2 0x136C JUMP JUMPDEST PUSH1 0x40 MLOAD PUSH2 0x205 SWAP3 SWAP2 SWAP1 PUSH2 0x23EA JUMP JUMPDEST PUSH1 0x0 SLOAD PUSH1 0x1 PUSH1 0x1 PUSH1 0xA0 SHL SUB AND PUSH2 0x1F1 JUMP JUMPDEST PUSH2 0x236 PUSH2 0x3C5 CALLDATASIZE PUSH1 0x4 PUSH2 0x2434 JUMP JUMPDEST PUSH1 0x4 PUSH1 0x20 SWAP1 DUP2 MSTORE PUSH1 0x0 SWAP3 DUP4 MSTORE PUSH1 0x40 SWAP1 SWAP3 KECCAK256 DUP2 MLOAD DUP1 DUP4 ADD DUP5 ADD DUP1 MLOAD SWAP3 DUP2 MSTORE SWAP1 DUP5 ADD SWAP3 SWAP1 SWAP4 ADD SWAP2 SWAP1 SWAP2 KECCAK256 SWAP2 MSTORE SLOAD DUP2 JUMP JUMPDEST PUSH2 0x236 PUSH1 0xE SLOAD DUP2 JUMP JUMPDEST PUSH2 0x40F PUSH2 0x40A CALLDATASIZE PUSH1 0x4 PUSH2 0x201E JUMP JUMPDEST PUSH2 0x15D3 JUMP JUMPDEST PUSH1 0x40 MLOAD PUSH2 0x205 SWAP4 SWAP3 SWAP2 SWAP1 PUSH2 0x2482 JUMP JUMPDEST PUSH2 0x46D PUSH2 0x42C CALLDATASIZE PUSH1 0x4 PUSH2 0x201E JUMP JUMPDEST PUSH1 0x3 PUSH1 0x20 DUP2 SWAP1 MSTORE PUSH1 0x0 SWAP2 DUP3 MSTORE PUSH1 0x40 SWAP1 SWAP2 KECCAK256 DUP1 SLOAD PUSH1 0x1 DUP3 ADD SLOAD PUSH1 0x2 DUP4 ADD SLOAD SWAP4 DUP4 ADD SLOAD PUSH1 0x4 DUP5 ADD SLOAD PUSH1 0x5 DUP6 ADD SLOAD PUSH1 0x6 SWAP1 SWAP6 ADD SLOAD SWAP4 SWAP6 SWAP3 SWAP5 SWAP3 SWAP4 SWAP2 SWAP3 SWAP1 SWAP2 PUSH1 0xFF AND DUP8 JUMP JUMPDEST PUSH1 0x40 DUP1 MLOAD SWAP8 DUP9 MSTORE PUSH1 0x20 DUP9 ADD SWAP7 SWAP1 SWAP7 MSTORE SWAP5 DUP7 ADD SWAP4 SWAP1 SWAP4 MSTORE PUSH1 0x60 DUP6 ADD SWAP2 SWAP1 SWAP2 MSTORE PUSH1 0x80 DUP5 ADD MSTORE PUSH1 0xA0 DUP4 ADD MSTORE ISZERO ISZERO PUSH1 0xC0 DUP3 ADD MSTORE PUSH1 0xE0 ADD PUSH2 0x205 JUMP JUMPDEST PUSH2 0x236 PUSH2 0x4B2 CALLDATASIZE PUSH1 0x4 PUSH2 0x201E JUMP JUMPDEST PUSH1 0x7 PUSH1 0x20 MSTORE PUSH1 0x0 SWAP1 DUP2 MSTORE PUSH1 0x40 SWAP1 KECCAK256 SLOAD DUP2 JUMP JUMPDEST PUSH2 0x236 PUSH2 0x4D2 CALLDATASIZE PUSH1 0x4 PUSH2 0x201E JUMP JUMPDEST PUSH1 0xB PUSH1 0x20 MSTORE PUSH1 0x0 SWAP1 DUP2 MSTORE PUSH1 0x40 SWAP1 KECCAK256 SLOAD DUP2 JUMP JUMPDEST PUSH2 0x4F7 PUSH2 0x4F2 CALLDATASIZE PUSH1 0x4 PUSH2 0x24EC JUMP JUMPDEST PUSH2 0x16C8 JUMP JUMPDEST PUSH1 0x40 MLOAD PUSH2 0x205 SWAP2 SWAP1 PUSH2 0x2516 JUMP JUMPDEST PUSH2 0x236 PUSH2 0x512 CALLDATASIZE PUSH1 0x4 PUSH2 0x201E JUMP JUMPDEST PUSH1 0x8 PUSH1 0x20 MSTORE PUSH1 0x0 SWAP1 DUP2 MSTORE PUSH1 0x40 SWAP1 KECCAK256 SLOAD DUP2 JUMP JUMPDEST PUSH2 0x1DC PUSH2 0x532 CALLDATASIZE PUSH1 0x4 PUSH2 0x2584 JUMP JUMPDEST PUSH2 0x176D JUMP JUMPDEST PUSH2 0x1DC PUSH2 0x545 CALLDATASIZE PUSH1 0x4 PUSH2 0x201E JUMP JUMPDEST PUSH2 0x1A2E JUMP JUMPDEST PUSH2 0x236 PUSH2 0x558 CALLDATASIZE PUSH1 0x4 PUSH2 0x201E JUMP JUMPDEST PUSH1 0x9 PUSH1 0x20 MSTORE PUSH1 0x0 SWAP1 DUP2 MSTORE PUSH1 0x40 SWAP1 KECCAK256 SLOAD DUP2 JUMP JUMPDEST PUSH2 0x236 PUSH1 0xD SLOAD DUP2 JUMP JUMPDEST PUSH2 0x236 PUSH2 0x581 CALLDATASIZE PUSH1 0x4 PUSH2 0x263D JUMP JUMPDEST PUSH2 0x1AA4 JUMP JUMPDEST CALLER PUSH1 0x0 SWAP1 DUP2 MSTORE PUSH1 0x3 PUSH1 0x20 MSTORE PUSH1 0x40 SWAP1 KECCAK256 PUSH1 0x6 ADD SLOAD PUSH1 0xFF AND PUSH2 0x5C1 JUMPI PUSH1 0x40 MLOAD PUSH3 0x461BCD PUSH1 0xE5 SHL DUP2 MSTORE PUSH1 0x4 ADD PUSH2 0x5B8 SWAP1 PUSH2 0x268B JUMP JUMPDEST PUSH1 0x40 MLOAD DUP1 SWAP2 SUB SWAP1 REVERT JUMPDEST CALLER PUSH1 0x0 SWAP1 DUP2 MSTORE PUSH1 0xA PUSH1 0x20 MSTORE PUSH1 0x40 DUP2 KECCAK256 DUP1 SLOAD DUP4 SWAP3 SWAP1 PUSH2 0x5E0 SWAP1 DUP5 SWAP1 PUSH2 0x26D0 JUMP JUMPDEST SWAP1 SWAP2 SSTORE POP POP POP JUMP JUMPDEST CALLER PUSH1 0x0 SWAP1 DUP2 MSTORE PUSH1 0x3 PUSH1 0x20 MSTORE PUSH1 0x40 SWAP1 KECCAK256 SLOAD PUSH3 0xF4240 GT ISZERO PUSH2 0x64A JUMPI PUSH1 0x40 MLOAD PUSH3 0x461BCD PUSH1 0xE5 SHL DUP2 MSTORE PUSH1 0x20 PUSH1 0x4 DUP3 ADD MSTORE PUSH1 0x1D PUSH1 0x24 DUP3 ADD MSTORE PUSH32 0x4E65656420314D20737461726475737420666F72207072657374696765000000 PUSH1 0x44 DUP3 ADD MSTORE PUSH1 0x64 ADD PUSH2 0x5B8 JUMP JUMPDEST CALLER PUSH1 0x0 SWAP1 DUP2 MSTORE PUSH1 0x3 PUSH1 0x20 MSTORE PUSH1 0x40 DUP2 KECCAK256 PUSH1 0x5 DUP2 ADD DUP1 SLOAD SWAP2 SWAP3 PUSH2 0x66A DUP4 PUSH2 0x26E3 JUMP JUMPDEST SWAP1 SWAP2 SSTORE POP POP PUSH1 0x0 DUP1 DUP3 SSTORE PUSH1 0x1 DUP1 DUP4 ADD SSTORE PUSH1 0x5 DUP3 ADD SLOAD PUSH1 0x2 DUP4 ADD SSTORE PUSH1 0x3 DUP3 ADD DUP2 SWAP1 SSTORE CALLER DUP2 MSTORE PUSH1 0xC PUSH1 0x20 MSTORE PUSH1 0x40 DUP2 KECCAK256 DUP1 SLOAD SWAP2 PUSH2 0x6A3 DUP4 PUSH2 0x26E3 JUMP JUMPDEST SWAP1 SWAP2 SSTORE POP POP PUSH1 0x40 DUP1 MLOAD PUSH2 0x160 DUP2 ADD DUP3 MSTORE PUSH1 0x9 PUSH2 0x120 DUP3 ADD DUP2 DUP2 MSTORE PUSH9 0x74656C6573636F7065 PUSH1 0xB8 SHL PUSH2 0x140 DUP5 ADD MSTORE DUP3 MSTORE DUP3 MLOAD DUP1 DUP5 ADD DUP5 MSTORE DUP2 DUP2 MSTORE PUSH9 0x736174656C6C697465 PUSH1 0xB8 SHL PUSH1 0x20 DUP3 DUP2 ADD SWAP2 SWAP1 SWAP2 MSTORE DUP1 DUP5 ADD SWAP2 SWAP1 SWAP2 MSTORE DUP4 MLOAD DUP1 DUP6 ADD DUP6 MSTORE PUSH1 0xB DUP2 MSTORE PUSH11 0x6F627365727661746F7279 PUSH1 0xA8 SHL DUP2 DUP4 ADD MSTORE DUP4 DUP6 ADD MSTORE DUP4 MLOAD DUP1 DUP6 ADD DUP6 MSTORE PUSH1 0x8 DUP1 DUP3 MSTORE PUSH8 0x737461727368697 PUSH1 0xC4 SHL DUP3 DUP5 ADD MSTORE PUSH1 0x60 DUP6 ADD SWAP2 SWAP1 SWAP2 MSTORE DUP5 MLOAD DUP1 DUP7 ADD DUP7 MSTORE PUSH1 0xC DUP2 MSTORE PUSH12 0x39B830B1B2B9BA30BA34B7B7 PUSH1 0xA1 SHL DUP2 DUP5 ADD MSTORE PUSH1 0x80 DUP6 ADD MSTORE DUP5 MLOAD DUP1 DUP7 ADD DUP7 MSTORE SWAP1 DUP2 MSTORE PUSH8 0x776F726D686F6C65 PUSH1 0xC0 SHL DUP2 DUP4 ADD MSTORE PUSH1 0xA0 DUP5 ADD MSTORE DUP4 MLOAD DUP1 DUP6 ADD DUP6 MSTORE SWAP2 DUP3 MSTORE PUSH9 0x626C61636B686F6C65 PUSH1 0xB8 SHL DUP3 DUP3 ADD MSTORE PUSH1 0xC0 DUP4 ADD SWAP2 SWAP1 SWAP2 MSTORE DUP3 MLOAD DUP1 DUP5 ADD DUP5 MSTORE PUSH1 0xF DUP2 MSTORE PUSH15 0x67616C61637469636E6574776F726B PUSH1 0x88 SHL DUP2 DUP4 ADD MSTORE PUSH1 0xE0 DUP4 ADD MSTORE DUP3 MLOAD DUP1 DUP5 ADD SWAP1 SWAP4 MSTORE PUSH1 0xE DUP4 MSTORE PUSH14 0x756E697665727365656E67696E65 PUSH1 0x90 SHL SWAP1 DUP4 ADD MSTORE PUSH2 0x100 DUP2 ADD SWAP2 SWAP1 SWAP2 MSTORE PUSH1 0x0 JUMPDEST PUSH1 0x9 DUP2 LT ISZERO PUSH2 0x858 JUMPI CALLER PUSH1 0x0 SWAP1 DUP2 MSTORE PUSH1 0x4 PUSH1 0x20 MSTORE PUSH1 0x40 DUP2 KECCAK256 DUP4 DUP4 PUSH1 0x9 DUP2 LT PUSH2 0x824 JUMPI PUSH2 0x824 PUSH2 0x26FC JUMP JUMPDEST PUSH1 0x20 MUL ADD MLOAD PUSH1 0x40 MLOAD PUSH2 0x836 SWAP2 SWAP1 PUSH2 0x2712 JUMP JUMPDEST SWAP1 DUP2 MSTORE PUSH1 0x40 MLOAD SWAP1 DUP2 SWAP1 SUB PUSH1 0x20 ADD SWAP1 KECCAK256 SSTORE DUP1 PUSH2 0x850 DUP2 PUSH2 0x26E3 JUMP JUMPDEST SWAP2 POP POP PUSH2 0x7FA JUMP JUMPDEST POP PUSH1 0x5 DUP3 ADD SLOAD PUSH1 0x40 DUP1 MLOAD SWAP2 DUP3 MSTORE TIMESTAMP PUSH1 0x20 DUP4 ADD MSTORE CALLER SWAP2 PUSH32 0xA1076BF9C07228AE15797FA473A75367DC398AD6427938BDF107A8DF563E6A80 SWAP2 ADD PUSH1 0x40 MLOAD DUP1 SWAP2 SUB SWAP1 LOG2 POP POP JUMP JUMPDEST PUSH2 0x8A4 PUSH2 0x1C87 JUMP JUMPDEST CALLER PUSH1 0x0 SWAP1 DUP2 MSTORE PUSH1 0x3 PUSH1 0x20 MSTORE PUSH1 0x40 SWAP1 KECCAK256 PUSH1 0x6 ADD SLOAD PUSH1 0xFF AND PUSH2 0x8D6 JUMPI PUSH1 0x40 MLOAD PUSH3 0x461BCD PUSH1 0xE5 SHL DUP2 MSTORE PUSH1 0x4 ADD PUSH2 0x5B8 SWAP1 PUSH2 0x268B JUMP JUMPDEST PUSH1 0x5 DUP2 PUSH1 0x40 MLOAD PUSH2 0x8E6 SWAP2 SWAP1 PUSH2 0x2712 JUMP JUMPDEST SWAP1 DUP2 MSTORE PUSH1 0x40 MLOAD SWAP1 DUP2 SWAP1 SUB PUSH1 0x20 ADD SWAP1 KECCAK256 PUSH1 0x6 ADD SLOAD PUSH1 0xFF AND PUSH2 0x940 JUMPI PUSH1 0x40 MLOAD PUSH3 0x461BCD PUSH1 0xE5 SHL DUP2 MSTORE PUSH1 0x20 PUSH1 0x4 DUP3 ADD MSTORE PUSH1 0x15 PUSH1 0x24 DUP3 ADD MSTORE PUSH21 0x55706772616465206E6F7420617661696C61626C65 PUSH1 0x58 SHL PUSH1 0x44 DUP3 ADD MSTORE PUSH1 0x64 ADD PUSH2 0x5B8 JUMP JUMPDEST PUSH1 0x0 PUSH1 0x5 DUP3 PUSH1 0x40 MLOAD PUSH2 0x952 SWAP2 SWAP1 PUSH2 0x2712 JUMP JUMPDEST SWAP1 DUP2 MSTORE PUSH1 0x20 ADD PUSH1 0x40 MLOAD DUP1 SWAP2 SUB SWAP1 KECCAK256 PUSH1 0x40 MLOAD DUP1 PUSH1 0xE0 ADD PUSH1 0x40 MSTORE SWAP1 DUP2 PUSH1 0x0 DUP3 ADD DUP1 SLOAD PUSH2 0x97B SWAP1 PUSH2 0x272E JUMP JUMPDEST DUP1 PUSH1 0x1F ADD PUSH1 0x20 DUP1 SWAP2 DIV MUL PUSH1 0x20 ADD PUSH1 0x40 MLOAD SWAP1 DUP2 ADD PUSH1 0x40 MSTORE DUP1 SWAP3 SWAP2 SWAP1 DUP2 DUP2 MSTORE PUSH1 0x20 ADD DUP3 DUP1 SLOAD PUSH2 0x9A7 SWAP1 PUSH2 0x272E JUMP JUMPDEST DUP1 ISZERO PUSH2 0x9F4 JUMPI DUP1 PUSH1 0x1F LT PUSH2 0x9C9 JUMPI PUSH2 0x100 DUP1 DUP4 SLOAD DIV MUL DUP4 MSTORE SWAP2 PUSH1 0x20 ADD SWAP2 PUSH2 0x9F4 JUMP JUMPDEST DUP3 ADD SWAP2 SWAP1 PUSH1 0x0 MSTORE PUSH1 0x20 PUSH1 0x0 KECCAK256 SWAP1 JUMPDEST DUP2 SLOAD DUP2 MSTORE SWAP1 PUSH1 0x1 ADD SWAP1 PUSH1 0x20 ADD DUP1 DUP4 GT PUSH2 0x9D7 JUMPI DUP3 SWAP1 SUB PUSH1 0x1F AND DUP3 ADD SWAP2 JUMPDEST POP POP POP POP POP DUP2 MSTORE PUSH1 0x20 ADD PUSH1 0x1 DUP3 ADD SLOAD DUP2 MSTORE PUSH1 0x20 ADD PUSH1 0x2 DUP3 ADD SLOAD DUP2 MSTORE PUSH1 0x20 ADD PUSH1 0x3 DUP3 ADD SLOAD DUP2 MSTORE PUSH1 0x20 ADD PUSH1 0x4 DUP3 ADD SLOAD DUP2 MSTORE PUSH1 0x20 ADD PUSH1 0x5 DUP3 ADD DUP1 SLOAD PUSH2 0xA35 SWAP1 PUSH2 0x272E JUMP JUMPDEST DUP1 PUSH1 0x1F ADD PUSH1 0x20 DUP1 SWAP2 DIV MUL PUSH1 0x20 ADD PUSH1 0x40 MLOAD SWAP1 DUP2 ADD PUSH1 0x40 MSTORE DUP1 SWAP3 SWAP2 SWAP1 DUP2 DUP2 MSTORE PUSH1 0x20 ADD DUP3 DUP1 SLOAD PUSH2 0xA61 SWAP1 PUSH2 0x272E JUMP JUMPDEST DUP1 ISZERO PUSH2 0xAAE JUMPI DUP1 PUSH1 0x1F LT PUSH2 0xA83 JUMPI PUSH2 0x100 DUP1 DUP4 SLOAD DIV MUL DUP4 MSTORE SWAP2 PUSH1 0x20 ADD SWAP2 PUSH2 0xAAE JUMP JUMPDEST DUP3 ADD SWAP2 SWAP1 PUSH1 0x0 MSTORE PUSH1 0x20 PUSH1 0x0 KECCAK256 SWAP1 JUMPDEST DUP2 SLOAD DUP2 MSTORE SWAP1 PUSH1 0x1 ADD SWAP1 PUSH1 0x20 ADD DUP1 DUP4 GT PUSH2 0xA91 JUMPI DUP3 SWAP1 SUB PUSH1 0x1F AND DUP3 ADD SWAP2 JUMPDEST POP POP POP SWAP2 DUP4 MSTORE POP POP PUSH1 0x6 SWAP2 SWAP1 SWAP2 ADD SLOAD PUSH1 0xFF AND ISZERO ISZERO PUSH1 0x20 SWAP2 DUP3 ADD MSTORE CALLER PUSH1 0x0 SWAP1 DUP2 MSTORE PUSH1 0x4 SWAP1 SWAP2 MSTORE PUSH1 0x40 DUP1 DUP3 KECCAK256 SWAP1 MLOAD SWAP3 SWAP4 POP SWAP1 SWAP2 PUSH2 0xAEA SWAP1 DUP6 SWAP1 PUSH2 0x2712 JUMP JUMPDEST SWAP1 DUP2 MSTORE PUSH1 0x20 ADD PUSH1 0x40 MLOAD DUP1 SWAP2 SUB SWAP1 KECCAK256 SLOAD SWAP1 POP PUSH1 0x0 PUSH2 0xB10 DUP4 PUSH1 0x20 ADD MLOAD DUP5 PUSH1 0x40 ADD MLOAD DUP5 PUSH2 0x1CE0 JUMP JUMPDEST PUSH1 0x40 DUP1 MLOAD DUP1 DUP3 ADD SWAP1 SWAP2 MSTORE PUSH1 0x8 DUP2 MSTORE PUSH8 0x1CDD185C991D5CDD PUSH1 0xC2 SHL PUSH1 0x20 SWAP2 DUP3 ADD MSTORE PUSH1 0xA0 DUP6 ADD MLOAD DUP1 MLOAD SWAP2 ADD KECCAK256 SWAP1 SWAP2 POP PUSH32 0x81E3A722C3E4E8F9D9CED5C3A0B6F6A1A13D9410313441A99C6901226D8B0712 ADD PUSH2 0xBE4 JUMPI CALLER PUSH1 0x0 SWAP1 DUP2 MSTORE PUSH1 0x3 PUSH1 0x20 MSTORE PUSH1 0x40 SWAP1 KECCAK256 SLOAD DUP2 GT ISZERO PUSH2 0xBBA JUMPI PUSH1 0x40 MLOAD PUSH3 0x461BCD PUSH1 0xE5 SHL DUP2 MSTORE PUSH1 0x20 PUSH1 0x4 DUP3 ADD MSTORE PUSH1 0x15 PUSH1 0x24 DUP3 ADD MSTORE PUSH21 0x125B9CDD59999A58DA595B9D081CDD185C991D5CDD PUSH1 0x5A SHL PUSH1 0x44 DUP3 ADD MSTORE PUSH1 0x64 ADD PUSH2 0x5B8 JUMP JUMPDEST CALLER PUSH1 0x0 SWAP1 DUP2 MSTORE PUSH1 0x3 PUSH1 0x20 MSTORE PUSH1 0x40 DUP2 KECCAK256 DUP1 SLOAD DUP4 SWAP3 SWAP1 PUSH2 0xBD9 SWAP1 DUP5 SWAP1 PUSH2 0x2768 JUMP JUMPDEST SWAP1 SWAP2 SSTORE POP PUSH2 0xD1F SWAP1 POP JUMP JUMPDEST PUSH1 0x2 SLOAD PUSH1 0x40 MLOAD PUSH4 0x70A08231 PUSH1 0xE0 SHL DUP2 MSTORE CALLER PUSH1 0x4 DUP3 ADD MSTORE DUP3 SWAP2 PUSH1 0x1 PUSH1 0x1 PUSH1 0xA0 SHL SUB AND SWAP1 PUSH4 0x70A08231 SWAP1 PUSH1 0x24 ADD PUSH1 0x20 PUSH1 0x40 MLOAD DUP1 DUP4 SUB DUP2 DUP7 GAS STATICCALL ISZERO DUP1 ISZERO PUSH2 0xC2C JUMPI RETURNDATASIZE PUSH1 0x0 DUP1 RETURNDATACOPY RETURNDATASIZE PUSH1 0x0 REVERT JUMPDEST POP POP POP POP PUSH1 0x40 MLOAD RETURNDATASIZE PUSH1 0x1F NOT PUSH1 0x1F DUP3 ADD AND DUP3 ADD DUP1 PUSH1 0x40 MSTORE POP DUP2 ADD SWAP1 PUSH2 0xC50 SWAP2 SWAP1 PUSH2 0x277B JUMP JUMPDEST LT ISZERO PUSH2 0xC95 JUMPI PUSH1 0x40 MLOAD PUSH3 0x461BCD PUSH1 0xE5 SHL DUP2 MSTORE PUSH1 0x20 PUSH1 0x4 DUP3 ADD MSTORE PUSH1 0x14 PUSH1 0x24 DUP3 ADD MSTORE PUSH20 0x496E73756666696369656E742063726564697473 PUSH1 0x60 SHL PUSH1 0x44 DUP3 ADD MSTORE PUSH1 0x64 ADD PUSH2 0x5B8 JUMP JUMPDEST PUSH1 0x2 SLOAD PUSH1 0x40 MLOAD PUSH4 0x10C4B387 PUSH1 0xE1 SHL DUP2 MSTORE CALLER PUSH1 0x4 DUP3 ADD MSTORE PUSH1 0x24 DUP2 ADD DUP4 SWAP1 MSTORE PUSH1 0x1 PUSH1 0x1 PUSH1 0xA0 SHL SUB SWAP1 SWAP2 AND SWAP1 PUSH4 0x2189670E SWAP1 PUSH1 0x44 ADD PUSH1 0x0 PUSH1 0x40 MLOAD DUP1 DUP4 SUB DUP2 PUSH1 0x0 DUP8 DUP1 EXTCODESIZE ISZERO DUP1 ISZERO PUSH2 0xCE1 JUMPI PUSH1 0x0 DUP1 REVERT JUMPDEST POP GAS CALL ISZERO DUP1 ISZERO PUSH2 0xCF5 JUMPI RETURNDATASIZE PUSH1 0x0 DUP1 RETURNDATACOPY RETURNDATASIZE PUSH1 0x0 REVERT JUMPDEST POP POP CALLER PUSH1 0x0 SWAP1 DUP2 MSTORE PUSH1 0x9 PUSH1 0x20 MSTORE PUSH1 0x40 DUP2 KECCAK256 DUP1 SLOAD DUP6 SWAP5 POP SWAP1 SWAP3 POP PUSH2 0xD19 SWAP1 DUP5 SWAP1 PUSH2 0x26D0 JUMP JUMPDEST SWAP1 SWAP2 SSTORE POP POP JUMPDEST CALLER PUSH1 0x0 SWAP1 DUP2 MSTORE PUSH1 0x4 PUSH1 0x20 MSTORE PUSH1 0x40 SWAP1 DUP2 SWAP1 KECCAK256 SWAP1 MLOAD PUSH2 0xD3D SWAP1 DUP7 SWAP1 PUSH2 0x2712 JUMP JUMPDEST SWAP1 DUP2 MSTORE PUSH1 0x40 MLOAD SWAP1 DUP2 SWAP1 SUB PUSH1 0x20 ADD SWAP1 KECCAK256 DUP1 SLOAD SWAP1 PUSH1 0x0 PUSH2 0xD5A DUP4 PUSH2 0x26E3 JUMP JUMPDEST SWAP1 SWAP2 SSTORE POP POP PUSH1 0x60 DUP4 ADD MLOAD CALLER PUSH1 0x0 SWAP1 DUP2 MSTORE PUSH1 0x3 PUSH1 0x20 MSTORE PUSH1 0x40 DUP2 KECCAK256 PUSH1 0x1 ADD DUP1 SLOAD SWAP1 SWAP2 SWAP1 PUSH2 0xD86 SWAP1 DUP5 SWAP1 PUSH2 0x26D0 JUMP JUMPDEST SWAP1 SWAP2 SSTORE POP POP PUSH1 0x80 DUP4 ADD MLOAD CALLER PUSH1 0x0 SWAP1 DUP2 MSTORE PUSH1 0x3 PUSH1 0x20 MSTORE PUSH1 0x40 DUP2 KECCAK256 PUSH1 0x2 ADD DUP1 SLOAD SWAP1 SWAP2 SWAP1 PUSH2 0xDB2 SWAP1 DUP5 SWAP1 PUSH2 0x26D0 JUMP JUMPDEST SWAP1 SWAP2 SSTORE POP CALLER SWAP1 POP PUSH32 0x1FD4664D767F39FD6223439ED2145312055FBE43D159A8CEC2D0D8C975C9C637 DUP6 PUSH2 0xDE6 DUP6 PUSH1 0x1 PUSH2 0x26D0 JUMP JUMPDEST PUSH1 0xA0 DUP8 ADD MLOAD PUSH1 0x40 MLOAD PUSH2 0xDFD SWAP4 SWAP3 SWAP2 DUP8 SWAP2 TIMESTAMP SWAP1 PUSH2 0x2794 JUMP JUMPDEST PUSH1 0x40 MLOAD DUP1 SWAP2 SUB SWAP1 LOG2 POP POP POP PUSH2 0xE11 PUSH1 0x1 DUP1 SSTORE JUMP JUMPDEST POP JUMP JUMPDEST PUSH2 0xE1C PUSH2 0x1D33 JUMP JUMPDEST PUSH1 0x5 DUP2 PUSH1 0x40 MLOAD PUSH2 0xE2C SWAP2 SWAP1 PUSH2 0x2712 JUMP JUMPDEST SWAP1 DUP2 MSTORE PUSH1 0x40 MLOAD SWAP1 DUP2 SWAP1 SUB PUSH1 0x20 ADD DUP2 KECCAK256 PUSH1 0x6 ADD SLOAD PUSH1 0xFF AND ISZERO SWAP1 PUSH1 0x5 SWAP1 PUSH2 0xE52 SWAP1 DUP5 SWAP1 PUSH2 0x2712 JUMP JUMPDEST SWAP1 DUP2 MSTORE PUSH1 0x40 MLOAD SWAP1 DUP2 SWAP1 SUB PUSH1 0x20 ADD SWAP1 KECCAK256 PUSH1 0x6 ADD DUP1 SLOAD SWAP2 ISZERO ISZERO PUSH1 0xFF NOT SWAP1 SWAP3 AND SWAP2 SWAP1 SWAP2 OR SWAP1 SSTORE POP JUMP JUMPDEST PUSH2 0xE80 PUSH2 0x1D33 JUMP JUMPDEST PUSH1 0x40 MLOAD DUP1 PUSH1 0xE0 ADD PUSH1 0x40 MSTORE DUP1 DUP8 DUP2 MSTORE PUSH1 0x20 ADD DUP7 DUP2 MSTORE PUSH1 0x20 ADD DUP6 DUP2 MSTORE PUSH1 0x20 ADD DUP5 DUP2 MSTORE PUSH1 0x20 ADD DUP4 DUP2 MSTORE PUSH1 0x20 ADD DUP3 DUP2 MSTORE PUSH1 0x20 ADD PUSH1 0x1 ISZERO ISZERO DUP2 MSTORE POP PUSH1 0x5 DUP9 PUSH1 0x40 MLOAD PUSH2 0xEC6 SWAP2 SWAP1 PUSH2 0x2712 JUMP JUMPDEST SWAP1 DUP2 MSTORE PUSH1 0x40 MLOAD SWAP1 DUP2 SWAP1 SUB PUSH1 0x20 ADD SWAP1 KECCAK256 DUP2 MLOAD DUP2 SWAP1 PUSH2 0xEE3 SWAP1 DUP3 PUSH2 0x2826 JUMP JUMPDEST POP PUSH1 0x20 DUP3 ADD MLOAD PUSH1 0x1 DUP3 ADD SSTORE PUSH1 0x40 DUP3 ADD MLOAD PUSH1 0x2 DUP3 ADD SSTORE PUSH1 0x60 DUP3 ADD MLOAD PUSH1 0x3 DUP3 ADD SSTORE PUSH1 0x80 DUP3 ADD MLOAD PUSH1 0x4 DUP3 ADD SSTORE PUSH1 0xA0 DUP3 ADD MLOAD PUSH1 0x5 DUP3 ADD SWAP1 PUSH2 0xF20 SWAP1 DUP3 PUSH2 0x2826 JUMP JUMPDEST POP PUSH1 0xC0 SWAP2 SWAP1 SWAP2 ADD MLOAD PUSH1 0x6 SWAP1 SWAP2 ADD DUP1 SLOAD PUSH1 0xFF NOT AND SWAP2 ISZERO ISZERO SWAP2 SWAP1 SWAP2 OR SWAP1 SSTORE POP POP POP POP POP POP POP JUMP JUMPDEST CALLER PUSH1 0x0 SWAP1 DUP2 MSTORE PUSH1 0x3 PUSH1 0x20 MSTORE PUSH1 0x40 SWAP1 KECCAK256 PUSH1 0x6 ADD SLOAD PUSH1 0xFF AND PUSH2 0x102F JUMPI PUSH1 0x40 DUP1 MLOAD PUSH1 0xE0 DUP2 ADD DUP3 MSTORE PUSH1 0x0 DUP1 DUP3 MSTORE PUSH1 0x1 PUSH1 0x20 DUP1 DUP5 ADD DUP3 DUP2 MSTORE DUP5 DUP7 ADD DUP5 DUP2 MSTORE PUSH1 0x60 DUP7 ADD DUP6 DUP2 MSTORE TIMESTAMP PUSH1 0x80 DUP9 ADD SWAP1 DUP2 MSTORE PUSH1 0xA0 DUP9 ADD DUP8 DUP2 MSTORE PUSH1 0xC0 DUP10 ADD DUP8 DUP2 MSTORE CALLER DUP10 MSTORE PUSH1 0x3 SWAP7 DUP8 SWAP1 MSTORE SWAP10 DUP9 KECCAK256 SWAP9 MLOAD DUP10 SSTORE SWAP4 MLOAD SWAP6 DUP9 ADD SWAP6 SWAP1 SWAP6 SSTORE SWAP1 MLOAD PUSH1 0x2 DUP8 ADD SSTORE MLOAD SWAP2 DUP6 ADD SWAP2 SWAP1 SWAP2 SSTORE SWAP1 MLOAD PUSH1 0x4 DUP5 ADD SSTORE MLOAD PUSH1 0x5 DUP4 ADD SSTORE SWAP2 MLOAD PUSH1 0x6 SWAP1 SWAP2 ADD DUP1 SLOAD PUSH1 0xFF NOT AND SWAP2 ISZERO ISZERO SWAP2 SWAP1 SWAP2 OR SWAP1 SSTORE PUSH1 0xD DUP1 SLOAD SWAP2 PUSH2 0xFF4 DUP4 PUSH2 0x26E3 JUMP JUMPDEST SWAP1 SWAP2 SSTORE POP POP PUSH1 0x40 MLOAD TIMESTAMP DUP2 MSTORE CALLER SWAP1 PUSH32 0x324CB0062138D65997C86CD3012489CEB351D602F2F55C7408306E8040C79F3F SWAP1 PUSH1 0x20 ADD PUSH1 0x40 MLOAD DUP1 SWAP2 SUB SWAP1 LOG2 JUMPDEST JUMP JUMPDEST DUP1 MLOAD PUSH1 0x20 DUP2 DUP4 ADD DUP2 ADD DUP1 MLOAD PUSH1 0x5 DUP3 MSTORE SWAP3 DUP3 ADD SWAP2 SWAP1 SWAP4 ADD KECCAK256 SWAP2 MSTORE DUP1 SLOAD DUP2 SWAP1 PUSH2 0x1057 SWAP1 PUSH2 0x272E JUMP JUMPDEST DUP1 PUSH1 0x1F ADD PUSH1 0x20 DUP1 SWAP2 DIV MUL PUSH1 0x20 ADD PUSH1 0x40 MLOAD SWAP1 DUP2 ADD PUSH1 0x40 MSTORE DUP1 SWAP3 SWAP2 SWAP1 DUP2 DUP2 MSTORE PUSH1 0x20 ADD DUP3 DUP1 SLOAD PUSH2 0x1083 SWAP1 PUSH2 0x272E JUMP JUMPDEST DUP1 ISZERO PUSH2 0x10D0 JUMPI DUP1 PUSH1 0x1F LT PUSH2 0x10A5 JUMPI PUSH2 0x100 DUP1 DUP4 SLOAD DIV MUL DUP4 MSTORE SWAP2 PUSH1 0x20 ADD SWAP2 PUSH2 0x10D0 JUMP JUMPDEST DUP3 ADD SWAP2 SWAP1 PUSH1 0x0 MSTORE PUSH1 0x20 PUSH1 0x0 KECCAK256 SWAP1 JUMPDEST DUP2 SLOAD DUP2 MSTORE SWAP1 PUSH1 0x1 ADD SWAP1 PUSH1 0x20 ADD DUP1 DUP4 GT PUSH2 0x10B3 JUMPI DUP3 SWAP1 SUB PUSH1 0x1F AND DUP3 ADD SWAP2 JUMPDEST POP POP POP POP POP SWAP1 DUP1 PUSH1 0x1 ADD SLOAD SWAP1 DUP1 PUSH1 0x2 ADD SLOAD SWAP1 DUP1 PUSH1 0x3 ADD SLOAD SWAP1 DUP1 PUSH1 0x4 ADD SLOAD SWAP1 DUP1 PUSH1 0x5 ADD DUP1 SLOAD PUSH2 0x10FD SWAP1 PUSH2 0x272E JUMP JUMPDEST DUP1 PUSH1 0x1F ADD PUSH1 0x20 DUP1 SWAP2 DIV MUL PUSH1 0x20 ADD PUSH1 0x40 MLOAD SWAP1 DUP2 ADD PUSH1 0x40 MSTORE DUP1 SWAP3 SWAP2 SWAP1 DUP2 DUP2 MSTORE PUSH1 0x20 ADD DUP3 DUP1 SLOAD PUSH2 0x1129 SWAP1 PUSH2 0x272E JUMP JUMPDEST DUP1 ISZERO PUSH2 0x1176 JUMPI DUP1 PUSH1 0x1F LT PUSH2 0x114B JUMPI PUSH2 0x100 DUP1 DUP4 SLOAD DIV MUL DUP4 MSTORE SWAP2 PUSH1 0x20 ADD SWAP2 PUSH2 0x1176 JUMP JUMPDEST DUP3 ADD SWAP2 SWAP1 PUSH1 0x0 MSTORE PUSH1 0x20 PUSH1 0x0 KECCAK256 SWAP1 JUMPDEST DUP2 SLOAD DUP2 MSTORE SWAP1 PUSH1 0x1 ADD SWAP1 PUSH1 0x20 ADD DUP1 DUP4 GT PUSH2 0x1159 JUMPI DUP3 SWAP1 SUB PUSH1 0x1F AND DUP3 ADD SWAP2 JUMPDEST POP POP POP PUSH1 0x6 SWAP1 SWAP4 ADD SLOAD SWAP2 SWAP3 POP POP PUSH1 0xFF AND DUP8 JUMP JUMPDEST PUSH2 0x1191 PUSH2 0x1C87 JUMP JUMPDEST CALLER PUSH1 0x0 SWAP1 DUP2 MSTORE PUSH1 0x3 PUSH1 0x20 MSTORE PUSH1 0x40 SWAP1 KECCAK256 PUSH1 0x6 ADD SLOAD PUSH1 0xFF AND PUSH2 0x11C3 JUMPI PUSH1 0x40 MLOAD PUSH3 0x461BCD PUSH1 0xE5 SHL DUP2 MSTORE PUSH1 0x4 ADD PUSH2 0x5B8 SWAP1 PUSH2 0x268B JUMP JUMPDEST CALLER PUSH1 0x0 SWAP1 DUP2 MSTORE PUSH1 0x3 PUSH1 0x20 MSTORE PUSH1 0x40 DUP2 KECCAK256 PUSH1 0x4 DUP2 ADD SLOAD SWAP1 SWAP2 SWAP1 PUSH2 0x11E4 SWAP1 TIMESTAMP PUSH2 0x2768 JUMP JUMPDEST SWAP1 POP PUSH1 0x0 DUP2 DUP4 PUSH1 0x2 ADD SLOAD PUSH2 0x11F8 SWAP2 SWAP1 PUSH2 0x28E6 JUMP JUMPDEST SWAP1 POP PUSH2 0x1204 DUP2 DUP10 PUSH2 0x26D0 JUMP JUMPDEST DUP4 SSTORE PUSH1 0x1 DUP4 ADD DUP8 SWAP1 SSTORE PUSH1 0x2 DUP4 ADD DUP7 SWAP1 SSTORE PUSH1 0x3 DUP4 ADD DUP6 SWAP1 SSTORE TIMESTAMP PUSH1 0x4 DUP5 ADD SSTORE PUSH2 0x122B CALLER DUP6 PUSH2 0x1D8D JUMP JUMPDEST CALLER PUSH1 0x0 SWAP1 DUP2 MSTORE PUSH1 0x8 PUSH1 0x20 MSTORE PUSH1 0x40 DUP2 KECCAK256 DUP1 SLOAD DUP4 SWAP3 SWAP1 PUSH2 0x124A SWAP1 DUP5 SWAP1 PUSH2 0x26D0 JUMP JUMPDEST SWAP3 POP POP DUP2 SWAP1 SSTORE POP DUP1 PUSH1 0xE PUSH1 0x0 DUP3 DUP3 SLOAD PUSH2 0x1263 SWAP2 SWAP1 PUSH2 0x26D0 JUMP JUMPDEST SWAP1 SWAP2 SSTORE POP POP CALLER PUSH1 0x0 SWAP1 DUP2 MSTORE PUSH1 0xB PUSH1 0x20 MSTORE PUSH1 0x40 SWAP1 KECCAK256 SLOAD DUP7 GT ISZERO PUSH2 0x1292 JUMPI CALLER PUSH1 0x0 SWAP1 DUP2 MSTORE PUSH1 0xB PUSH1 0x20 MSTORE PUSH1 0x40 SWAP1 KECCAK256 DUP7 SWAP1 SSTORE JUMPDEST DUP1 ISZERO PUSH2 0x12FD JUMPI PUSH1 0x2 SLOAD PUSH1 0x40 MLOAD PUSH4 0x593EE7FD PUSH1 0xE1 SHL DUP2 MSTORE CALLER PUSH1 0x4 DUP3 ADD MSTORE PUSH1 0x24 DUP2 ADD DUP4 SWAP1 MSTORE PUSH1 0x1 PUSH1 0x1 PUSH1 0xA0 SHL SUB SWAP1 SWAP2 AND SWAP1 PUSH4 0xB27DCFFA SWAP1 PUSH1 0x44 ADD PUSH1 0x0 PUSH1 0x40 MLOAD DUP1 DUP4 SUB DUP2 PUSH1 0x0 DUP8 DUP1 EXTCODESIZE ISZERO DUP1 ISZERO PUSH2 0x12E4 JUMPI PUSH1 0x0 DUP1 REVERT JUMPDEST POP GAS CALL ISZERO DUP1 ISZERO PUSH2 0x12F8 JUMPI RETURNDATASIZE PUSH1 0x0 DUP1 RETURNDATACOPY RETURNDATASIZE PUSH1 0x0 REVERT JUMPDEST POP POP POP POP JUMPDEST DUP3 SLOAD PUSH1 0x2 DUP5 ADD SLOAD PUSH1 0x40 DUP1 MLOAD SWAP3 DUP4 MSTORE PUSH1 0x20 DUP4 ADD SWAP2 SWAP1 SWAP2 MSTORE TIMESTAMP SWAP1 DUP3 ADD MSTORE CALLER SWAP1 PUSH32 0xDE2575B1517540B677C794A3CDE57FED7F46FE9BEACA3BB86154C43AE41BC6A1 SWAP1 PUSH1 0x60 ADD PUSH1 0x40 MLOAD DUP1 SWAP2 SUB SWAP1 LOG2 POP POP POP PUSH2 0x1353 PUSH1 0x1 DUP1 SSTORE JUMP JUMPDEST POP POP POP POP POP JUMP JUMPDEST PUSH2 0x1362 PUSH2 0x1D33 JUMP JUMPDEST PUSH2 0x102F PUSH1 0x0 PUSH2 0x1E3F JUMP JUMPDEST PUSH1 0x40 DUP1 MLOAD PUSH2 0x160 DUP2 ADD DUP3 MSTORE PUSH1 0x9 PUSH2 0x120 DUP3 ADD DUP2 DUP2 MSTORE PUSH9 0x74656C6573636F7065 PUSH1 0xB8 SHL PUSH2 0x140 DUP1 DUP6 ADD SWAP2 SWAP1 SWAP2 MSTORE SWAP1 DUP4 MSTORE DUP4 MLOAD DUP1 DUP6 ADD DUP6 MSTORE DUP3 DUP2 MSTORE PUSH9 0x736174656C6C697465 PUSH1 0xB8 SHL PUSH1 0x20 DUP1 DUP4 ADD SWAP2 SWAP1 SWAP2 MSTORE DUP1 DUP6 ADD SWAP2 SWAP1 SWAP2 MSTORE DUP5 MLOAD DUP1 DUP7 ADD DUP7 MSTORE PUSH1 0xB DUP2 MSTORE PUSH11 0x6F627365727661746F7279 PUSH1 0xA8 SHL DUP2 DUP4 ADD MSTORE DUP5 DUP7 ADD MSTORE DUP5 MLOAD DUP1 DUP7 ADD DUP7 MSTORE PUSH1 0x8 DUP1 DUP3 MSTORE PUSH8 0x737461727368697 PUSH1 0xC4 SHL DUP3 DUP5 ADD MSTORE PUSH1 0x60 DUP1 DUP8 ADD SWAP3 SWAP1 SWAP3 MSTORE DUP7 MLOAD DUP1 DUP9 ADD DUP9 MSTORE PUSH1 0xC DUP2 MSTORE PUSH12 0x39B830B1B2B9BA30BA34B7B7 PUSH1 0xA1 SHL DUP2 DUP6 ADD MSTORE PUSH1 0x80 DUP8 ADD MSTORE DUP7 MLOAD DUP1 DUP9 ADD DUP9 MSTORE SWAP1 DUP2 MSTORE PUSH8 0x776F726D686F6C65 PUSH1 0xC0 SHL DUP2 DUP5 ADD MSTORE PUSH1 0xA0 DUP7 ADD MSTORE DUP6 MLOAD DUP1 DUP8 ADD DUP8 MSTORE DUP5 DUP2 MSTORE PUSH9 0x626C61636B686F6C65 PUSH1 0xB8 SHL DUP2 DUP5 ADD MSTORE PUSH1 0xC0 DUP7 ADD MSTORE DUP6 MLOAD DUP1 DUP8 ADD DUP8 MSTORE PUSH1 0xF DUP2 MSTORE PUSH15 0x67616C61637469636E6574776F726B PUSH1 0x88 SHL DUP2 DUP5 ADD MSTORE PUSH1 0xE0 DUP7 ADD MSTORE DUP6 MLOAD DUP1 DUP8 ADD DUP8 MSTORE PUSH1 0xE DUP2 MSTORE PUSH14 0x756E697665727365656E67696E65 PUSH1 0x90 SHL DUP2 DUP5 ADD MSTORE PUSH2 0x100 DUP7 ADD MSTORE DUP6 MLOAD DUP5 DUP2 MSTORE SWAP3 DUP4 ADD SWAP1 SWAP6 MSTORE DUP5 SWAP4 SWAP3 SWAP1 DUP3 ADD JUMPDEST PUSH1 0x60 DUP2 MSTORE PUSH1 0x20 ADD SWAP1 PUSH1 0x1 SWAP1 SUB SWAP1 DUP2 PUSH2 0x14CC JUMPI POP POP PUSH1 0x40 DUP1 MLOAD PUSH1 0x9 DUP1 DUP3 MSTORE PUSH2 0x140 DUP3 ADD SWAP1 SWAP3 MSTORE SWAP2 SWAP5 POP PUSH1 0x20 DUP3 ADD PUSH2 0x120 DUP1 CALLDATASIZE DUP4 CALLDATACOPY ADD SWAP1 POP POP SWAP2 POP PUSH1 0x0 JUMPDEST PUSH1 0x9 DUP2 LT ISZERO PUSH2 0x15CC JUMPI DUP2 DUP2 PUSH1 0x9 DUP2 LT PUSH2 0x1523 JUMPI PUSH2 0x1523 PUSH2 0x26FC JUMP JUMPDEST PUSH1 0x20 MUL ADD MLOAD DUP5 DUP3 DUP2 MLOAD DUP2 LT PUSH2 0x153A JUMPI PUSH2 0x153A PUSH2 0x26FC JUMP JUMPDEST PUSH1 0x20 MUL PUSH1 0x20 ADD ADD DUP2 SWAP1 MSTORE POP PUSH1 0x4 PUSH1 0x0 DUP7 PUSH1 0x1 PUSH1 0x1 PUSH1 0xA0 SHL SUB AND PUSH1 0x1 PUSH1 0x1 PUSH1 0xA0 SHL SUB AND DUP2 MSTORE PUSH1 0x20 ADD SWAP1 DUP2 MSTORE PUSH1 0x20 ADD PUSH1 0x0 KECCAK256 DUP3 DUP3 PUSH1 0x9 DUP2 LT PUSH2 0x157C JUMPI PUSH2 0x157C PUSH2 0x26FC JUMP JUMPDEST PUSH1 0x20 MUL ADD MLOAD PUSH1 0x40 MLOAD PUSH2 0x158E SWAP2 SWAP1 PUSH2 0x2712 JUMP JUMPDEST SWAP1 DUP2 MSTORE PUSH1 0x20 ADD PUSH1 0x40 MLOAD DUP1 SWAP2 SUB SWAP1 KECCAK256 SLOAD DUP4 DUP3 DUP2 MLOAD DUP2 LT PUSH2 0x15AF JUMPI PUSH2 0x15AF PUSH2 0x26FC JUMP JUMPDEST PUSH1 0x20 SWAP1 DUP2 MUL SWAP2 SWAP1 SWAP2 ADD ADD MSTORE DUP1 PUSH2 0x15C4 DUP2 PUSH2 0x26E3 JUMP JUMPDEST SWAP2 POP POP PUSH2 0x1508 JUMP JUMPDEST POP POP SWAP2 POP SWAP2 JUMP JUMPDEST PUSH2 0x1615 PUSH1 0x40 MLOAD DUP1 PUSH1 0xE0 ADD PUSH1 0x40 MSTORE DUP1 PUSH1 0x0 DUP2 MSTORE PUSH1 0x20 ADD PUSH1 0x0 DUP2 MSTORE PUSH1 0x20 ADD PUSH1 0x0 DUP2 MSTORE PUSH1 0x20 ADD PUSH1 0x0 DUP2 MSTORE PUSH1 0x20 ADD PUSH1 0x0 DUP2 MSTORE PUSH1 0x20 ADD PUSH1 0x0 DUP2 MSTORE PUSH1 0x20 ADD PUSH1 0x0 ISZERO ISZERO DUP2 MSTORE POP SWAP1 JUMP JUMPDEST POP PUSH1 0x1 PUSH1 0x1 PUSH1 0xA0 SHL SUB DUP2 AND PUSH1 0x0 SWAP1 DUP2 MSTORE PUSH1 0x3 PUSH1 0x20 DUP2 DUP2 MSTORE PUSH1 0x40 DUP1 DUP5 KECCAK256 DUP2 MLOAD PUSH1 0xE0 DUP2 ADD DUP4 MSTORE DUP2 SLOAD DUP2 MSTORE PUSH1 0x1 DUP3 ADD SLOAD SWAP4 DUP2 ADD SWAP4 SWAP1 SWAP4 MSTORE PUSH1 0x2 DUP2 ADD SLOAD SWAP2 DUP4 ADD SWAP2 SWAP1 SWAP2 MSTORE SWAP2 DUP3 ADD SLOAD PUSH1 0x60 DUP3 DUP2 ADD SWAP2 SWAP1 SWAP2 MSTORE PUSH1 0x4 DUP4 ADD SLOAD PUSH1 0x80 DUP4 ADD MSTORE PUSH1 0x5 DUP4 ADD SLOAD PUSH1 0xA0 DUP4 ADD MSTORE PUSH1 0x6 SWAP1 SWAP3 ADD SLOAD PUSH1 0xFF AND ISZERO DUP1 ISZERO PUSH1 0xC0 DUP4 ADD MSTORE SWAP1 SWAP3 SWAP2 SWAP1 PUSH2 0x16B7 JUMPI PUSH1 0x0 DUP4 PUSH1 0x80 ADD MLOAD TIMESTAMP PUSH2 0x16A1 SWAP2 SWAP1 PUSH2 0x2768 JUMP JUMPDEST SWAP1 POP DUP1 DUP5 PUSH1 0x40 ADD MLOAD PUSH2 0x16B3 SWAP2 SWAP1 PUSH2 0x28E6 JUMP JUMPDEST SWAP3 POP POP JUMPDEST PUSH2 0x16C0 DUP5 PUSH2 0x1E8F JUMP JUMPDEST SWAP3 SWAP5 SWAP2 SWAP4 POP POP JUMP JUMPDEST PUSH1 0x6 PUSH1 0x20 SWAP1 DUP2 MSTORE PUSH1 0x0 SWAP3 DUP4 MSTORE PUSH1 0x40 DUP1 DUP5 KECCAK256 SWAP1 SWAP2 MSTORE SWAP1 DUP3 MSTORE SWAP1 KECCAK256 DUP1 SLOAD PUSH2 0x16EC SWAP1 PUSH2 0x272E JUMP JUMPDEST DUP1 PUSH1 0x1F ADD PUSH1 0x20 DUP1 SWAP2 DIV MUL PUSH1 0x20 ADD PUSH1 0x40 MLOAD SWAP1 DUP2 ADD PUSH1 0x40 MSTORE DUP1 SWAP3 SWAP2 SWAP1 DUP2 DUP2 MSTORE PUSH1 0x20 ADD DUP3 DUP1 SLOAD PUSH2 0x1718 SWAP1 PUSH2 0x272E JUMP JUMPDEST DUP1 ISZERO PUSH2 0x1765 JUMPI DUP1 PUSH1 0x1F LT PUSH2 0x173A JUMPI PUSH2 0x100 DUP1 DUP4 SLOAD DIV MUL DUP4 MSTORE SWAP2 PUSH1 0x20 ADD SWAP2 PUSH2 0x1765 JUMP JUMPDEST DUP3 ADD SWAP2 SWAP1 PUSH1 0x0 MSTORE PUSH1 0x20 PUSH1 0x0 KECCAK256 SWAP1 JUMPDEST DUP2 SLOAD DUP2 MSTORE SWAP1 PUSH1 0x1 ADD SWAP1 PUSH1 0x20 ADD DUP1 DUP4 GT PUSH2 0x1748 JUMPI DUP3 SWAP1 SUB PUSH1 0x1F AND DUP3 ADD SWAP2 JUMPDEST POP POP POP POP POP DUP2 JUMP JUMPDEST PUSH2 0x1775 PUSH2 0x1C87 JUMP JUMPDEST CALLER PUSH1 0x0 SWAP1 DUP2 MSTORE PUSH1 0x3 PUSH1 0x20 MSTORE PUSH1 0x40 SWAP1 KECCAK256 PUSH1 0x6 ADD SLOAD PUSH1 0xFF AND PUSH2 0x17A7 JUMPI PUSH1 0x40 MLOAD PUSH3 0x461BCD PUSH1 0xE5 SHL DUP2 MSTORE PUSH1 0x4 ADD PUSH2 0x5B8 SWAP1 PUSH2 0x268B JUMP JUMPDEST DUP3 MLOAD DUP5 MLOAD EQ PUSH2 0x17F8 JUMPI PUSH1 0x40 MLOAD PUSH3 0x461BCD PUSH1 0xE5 SHL DUP2 MSTORE PUSH1 0x20 PUSH1 0x4 DUP3 ADD MSTORE PUSH1 0x19 PUSH1 0x24 DUP3 ADD MSTORE PUSH32 0x4D69736D61746368656420757067726164652061727261797300000000000000 PUSH1 0x44 DUP3 ADD MSTORE PUSH1 0x64 ADD PUSH2 0x5B8 JUMP JUMPDEST CALLER PUSH1 0x0 SWAP1 DUP2 MSTORE PUSH1 0x3 PUSH1 0x20 MSTORE PUSH1 0x40 DUP2 KECCAK256 PUSH1 0x4 DUP2 ADD SLOAD SWAP1 SWAP2 SWAP1 PUSH2 0x1819 SWAP1 TIMESTAMP PUSH2 0x2768 JUMP JUMPDEST SWAP1 POP PUSH1 0x0 DUP2 DUP4 PUSH1 0x2 ADD SLOAD PUSH2 0x182D SWAP2 SWAP1 PUSH2 0x28E6 JUMP JUMPDEST SWAP1 POP PUSH2 0x1839 DUP2 DUP13 PUSH2 0x26D0 JUMP JUMPDEST DUP4 SSTORE PUSH1 0x1 DUP4 ADD DUP11 SWAP1 SSTORE PUSH1 0x2 DUP4 ADD DUP10 SWAP1 SSTORE PUSH1 0x3 DUP4 ADD DUP9 SWAP1 SSTORE PUSH1 0x5 DUP4 ADD DUP6 SWAP1 SSTORE TIMESTAMP PUSH1 0x4 DUP5 ADD SSTORE PUSH1 0x0 JUMPDEST DUP8 MLOAD DUP2 LT ISZERO PUSH2 0x18F1 JUMPI DUP7 DUP2 DUP2 MLOAD DUP2 LT PUSH2 0x187B JUMPI PUSH2 0x187B PUSH2 0x26FC JUMP JUMPDEST PUSH1 0x20 MUL PUSH1 0x20 ADD ADD MLOAD PUSH1 0x4 PUSH1 0x0 CALLER PUSH1 0x1 PUSH1 0x1 PUSH1 0xA0 SHL SUB AND PUSH1 0x1 PUSH1 0x1 PUSH1 0xA0 SHL SUB AND DUP2 MSTORE PUSH1 0x20 ADD SWAP1 DUP2 MSTORE PUSH1 0x20 ADD PUSH1 0x0 KECCAK256 DUP10 DUP4 DUP2 MLOAD DUP2 LT PUSH2 0x18BA JUMPI PUSH2 0x18BA PUSH2 0x26FC JUMP JUMPDEST PUSH1 0x20 MUL PUSH1 0x20 ADD ADD MLOAD PUSH1 0x40 MLOAD PUSH2 0x18CF SWAP2 SWAP1 PUSH2 0x2712 JUMP JUMPDEST SWAP1 DUP2 MSTORE PUSH1 0x40 MLOAD SWAP1 DUP2 SWAP1 SUB PUSH1 0x20 ADD SWAP1 KECCAK256 SSTORE DUP1 PUSH2 0x18E9 DUP2 PUSH2 0x26E3 JUMP JUMPDEST SWAP2 POP POP PUSH2 0x1860 JUMP JUMPDEST POP PUSH2 0x18FC CALLER DUP6 PUSH2 0x1D8D JUMP JUMPDEST CALLER PUSH1 0x0 SWAP1 DUP2 MSTORE PUSH1 0x8 PUSH1 0x20 MSTORE PUSH1 0x40 DUP2 KECCAK256 DUP1 SLOAD DUP4 SWAP3 SWAP1 PUSH2 0x191B SWAP1 DUP5 SWAP1 PUSH2 0x26D0 JUMP JUMPDEST SWAP3 POP POP DUP2 SWAP1 SSTORE POP DUP1 PUSH1 0xE PUSH1 0x0 DUP3 DUP3 SLOAD PUSH2 0x1934 SWAP2 SWAP1 PUSH2 0x26D0 JUMP JUMPDEST SWAP1 SWAP2 SSTORE POP POP CALLER PUSH1 0x0 SWAP1 DUP2 MSTORE PUSH1 0xB PUSH1 0x20 MSTORE PUSH1 0x40 SWAP1 KECCAK256 SLOAD DUP10 GT ISZERO PUSH2 0x1963 JUMPI CALLER PUSH1 0x0 SWAP1 DUP2 MSTORE PUSH1 0xB PUSH1 0x20 MSTORE PUSH1 0x40 SWAP1 KECCAK256 DUP10 SWAP1 SSTORE JUMPDEST DUP1 ISZERO PUSH2 0x19CE JUMPI PUSH1 0x2 SLOAD PUSH1 0x40 MLOAD PUSH4 0x593EE7FD PUSH1 0xE1 SHL DUP2 MSTORE CALLER PUSH1 0x4 DUP3 ADD MSTORE PUSH1 0x24 DUP2 ADD DUP4 SWAP1 MSTORE PUSH1 0x1 PUSH1 0x1 PUSH1 0xA0 SHL SUB SWAP1 SWAP2 AND SWAP1 PUSH4 0xB27DCFFA SWAP1 PUSH1 0x44 ADD PUSH1 0x0 PUSH1 0x40 MLOAD DUP1 DUP4 SUB DUP2 PUSH1 0x0 DUP8 DUP1 EXTCODESIZE ISZERO DUP1 ISZERO PUSH2 0x19B5 JUMPI PUSH1 0x0 DUP1 REVERT JUMPDEST POP GAS CALL ISZERO DUP1 ISZERO PUSH2 0x19C9 JUMPI RETURNDATASIZE PUSH1 0x0 DUP1 RETURNDATACOPY RETURNDATASIZE PUSH1 0x0 REVERT JUMPDEST POP POP POP POP JUMPDEST DUP3 SLOAD PUSH1 0x2 DUP5 ADD SLOAD PUSH1 0x40 DUP1 MLOAD SWAP3 DUP4 MSTORE PUSH1 0x20 DUP4 ADD SWAP2 SWAP1 SWAP2 MSTORE TIMESTAMP SWAP1 DUP3 ADD MSTORE CALLER SWAP1 PUSH32 0xDE2575B1517540B677C794A3CDE57FED7F46FE9BEACA3BB86154C43AE41BC6A1 SWAP1 PUSH1 0x60 ADD PUSH1 0x40 MLOAD DUP1 SWAP2 SUB SWAP1 LOG2 POP POP POP PUSH2 0x1A24 PUSH1 0x1 DUP1 SSTORE JUMP JUMPDEST POP POP POP POP POP POP POP POP JUMP JUMPDEST PUSH2 0x1A36 PUSH2 0x1D33 JUMP JUMPDEST PUSH1 0x1 PUSH1 0x1 PUSH1 0xA0 SHL SUB DUP2 AND PUSH2 0x1A9B JUMPI PUSH1 0x40 MLOAD PUSH3 0x461BCD PUSH1 0xE5 SHL DUP2 MSTORE PUSH1 0x20 PUSH1 0x4 DUP3 ADD MSTORE PUSH1 0x26 PUSH1 0x24 DUP3 ADD MSTORE PUSH32 0x4F776E61626C653A206E6577206F776E657220697320746865207A65726F2061 PUSH1 0x44 DUP3 ADD MSTORE PUSH6 0x646472657373 PUSH1 0xD0 SHL PUSH1 0x64 DUP3 ADD MSTORE PUSH1 0x84 ADD PUSH2 0x5B8 JUMP JUMPDEST PUSH2 0xE11 DUP2 PUSH2 0x1E3F JUMP JUMPDEST PUSH1 0x0 DUP1 PUSH1 0x5 DUP5 PUSH1 0x40 MLOAD PUSH2 0x1AB7 SWAP2 SWAP1 PUSH2 0x2712 JUMP JUMPDEST SWAP1 DUP2 MSTORE PUSH1 0x20 ADD PUSH1 0x40 MLOAD DUP1 SWAP2 SUB SWAP1 KECCAK256 PUSH1 0x40 MLOAD DUP1 PUSH1 0xE0 ADD PUSH1 0x40 MSTORE SWAP1 DUP2 PUSH1 0x0 DUP3 ADD DUP1 SLOAD PUSH2 0x1AE0 SWAP1 PUSH2 0x272E JUMP JUMPDEST DUP1 PUSH1 0x1F ADD PUSH1 0x20 DUP1 SWAP2 DIV MUL PUSH1 0x20 ADD PUSH1 0x40 MLOAD SWAP1 DUP2 ADD PUSH1 0x40 MSTORE DUP1 SWAP3 SWAP2 SWAP1 DUP2 DUP2 MSTORE PUSH1 0x20 ADD DUP3 DUP1 SLOAD PUSH2 0x1B0C SWAP1 PUSH2 0x272E JUMP JUMPDEST DUP1 ISZERO PUSH2 0x1B59 JUMPI DUP1 PUSH1 0x1F LT PUSH2 0x1B2E JUMPI PUSH2 0x100 DUP1 DUP4 SLOAD DIV MUL DUP4 MSTORE SWAP2 PUSH1 0x20 ADD SWAP2 PUSH2 0x1B59 JUMP JUMPDEST DUP3 ADD SWAP2 SWAP1 PUSH1 0x0 MSTORE PUSH1 0x20 PUSH1 0x0 KECCAK256 SWAP1 JUMPDEST DUP2 SLOAD DUP2 MSTORE SWAP1 PUSH1 0x1 ADD SWAP1 PUSH1 0x20 ADD DUP1 DUP4 GT PUSH2 0x1B3C JUMPI DUP3 SWAP1 SUB PUSH1 0x1F AND DUP3 ADD SWAP2 JUMPDEST POP POP POP POP POP DUP2 MSTORE PUSH1 0x20 ADD PUSH1 0x1 DUP3 ADD SLOAD DUP2 MSTORE PUSH1 0x20 ADD PUSH1 0x2 DUP3 ADD SLOAD DUP2 MSTORE PUSH1 0x20 ADD PUSH1 0x3 DUP3 ADD SLOAD DUP2 MSTORE PUSH1 0x20 ADD PUSH1 0x4 DUP3 ADD SLOAD DUP2 MSTORE PUSH1 0x20 ADD PUSH1 0x5 DUP3 ADD DUP1 SLOAD PUSH2 0x1B9A SWAP1 PUSH2 0x272E JUMP JUMPDEST DUP1 PUSH1 0x1F ADD PUSH1 0x20 DUP1 SWAP2 DIV MUL PUSH1 0x20 ADD PUSH1 0x40 MLOAD SWAP1 DUP2 ADD PUSH1 0x40 MSTORE DUP1 SWAP3 SWAP2 SWAP1 DUP2 DUP2 MSTORE PUSH1 0x20 ADD DUP3 DUP1 SLOAD PUSH2 0x1BC6 SWAP1 PUSH2 0x272E JUMP JUMPDEST DUP1 ISZERO PUSH2 0x1C13 JUMPI DUP1 PUSH1 0x1F LT PUSH2 0x1BE8 JUMPI PUSH2 0x100 DUP1 DUP4 SLOAD DIV MUL DUP4 MSTORE SWAP2 PUSH1 0x20 ADD SWAP2 PUSH2 0x1C13 JUMP JUMPDEST DUP3 ADD SWAP2 SWAP1 PUSH1 0x0 MSTORE PUSH1 0x20 PUSH1 0x0 KECCAK256 SWAP1 JUMPDEST DUP2 SLOAD DUP2 MSTORE SWAP1 PUSH1 0x1 ADD SWAP1 PUSH1 0x20 ADD DUP1 DUP4 GT PUSH2 0x1BF6 JUMPI DUP3 SWAP1 SUB PUSH1 0x1F AND DUP3 ADD SWAP2 JUMPDEST POP POP POP SWAP2 DUP4 MSTORE POP POP PUSH1 0x6 SWAP2 SWAP1 SWAP2 ADD SLOAD PUSH1 0xFF AND ISZERO ISZERO PUSH1 0x20 SWAP2 DUP3 ADD MSTORE PUSH1 0x1 PUSH1 0x1 PUSH1 0xA0 SHL SUB DUP6 AND PUSH1 0x0 SWAP1 DUP2 MSTORE PUSH1 0x4 SWAP1 SWAP2 MSTORE PUSH1 0x40 DUP1 DUP3 KECCAK256 SWAP1 MLOAD SWAP3 SWAP4 POP SWAP1 SWAP2 PUSH2 0x1C58 SWAP1 DUP8 SWAP1 PUSH2 0x2712 JUMP JUMPDEST SWAP1 DUP2 MSTORE PUSH1 0x20 ADD PUSH1 0x40 MLOAD DUP1 SWAP2 SUB SWAP1 KECCAK256 SLOAD SWAP1 POP PUSH2 0x1C7C DUP3 PUSH1 0x20 ADD MLOAD DUP4 PUSH1 0x40 ADD MLOAD DUP4 PUSH2 0x1CE0 JUMP JUMPDEST SWAP3 POP POP POP JUMPDEST SWAP3 SWAP2 POP POP JUMP JUMPDEST PUSH1 0x2 PUSH1 0x1 SLOAD SUB PUSH2 0x1CD9 JUMPI PUSH1 0x40 MLOAD PUSH3 0x461BCD PUSH1 0xE5 SHL DUP2 MSTORE PUSH1 0x20 PUSH1 0x4 DUP3 ADD MSTORE PUSH1 0x1F PUSH1 0x24 DUP3 ADD MSTORE PUSH32 0x5265656E7472616E637947756172643A207265656E7472616E742063616C6C00 PUSH1 0x44 DUP3 ADD MSTORE PUSH1 0x64 ADD PUSH2 0x5B8 JUMP JUMPDEST PUSH1 0x2 PUSH1 0x1 SSTORE JUMP JUMPDEST PUSH1 0x0 DUP2 PUSH1 0x0 SUB PUSH2 0x1CF1 JUMPI POP DUP3 PUSH2 0x1D2C JUMP JUMPDEST DUP4 PUSH1 0x0 JUMPDEST DUP4 DUP2 LT ISZERO PUSH2 0x1D28 JUMPI PUSH2 0x3E8 PUSH2 0x1D0A DUP7 DUP5 PUSH2 0x28E6 JUMP JUMPDEST PUSH2 0x1D14 SWAP2 SWAP1 PUSH2 0x28FD JUMP JUMPDEST SWAP2 POP DUP1 PUSH2 0x1D20 DUP2 PUSH2 0x26E3 JUMP JUMPDEST SWAP2 POP POP PUSH2 0x1CF5 JUMP JUMPDEST POP SWAP1 POP JUMPDEST SWAP4 SWAP3 POP POP POP JUMP JUMPDEST PUSH1 0x0 SLOAD PUSH1 0x1 PUSH1 0x1 PUSH1 0xA0 SHL SUB AND CALLER EQ PUSH2 0x102F JUMPI PUSH1 0x40 MLOAD PUSH3 0x461BCD PUSH1 0xE5 SHL DUP2 MSTORE PUSH1 0x20 PUSH1 0x4 DUP3 ADD DUP2 SWAP1 MSTORE PUSH1 0x24 DUP3 ADD MSTORE PUSH32 0x4F776E61626C653A2063616C6C6572206973206E6F7420746865206F776E6572 PUSH1 0x44 DUP3 ADD MSTORE PUSH1 0x64 ADD PUSH2 0x5B8 JUMP JUMPDEST PUSH1 0x1 PUSH1 0x1 PUSH1 0xA0 SHL SUB DUP3 AND PUSH1 0x0 SWAP1 DUP2 MSTORE PUSH1 0x7 PUSH1 0x20 MSTORE PUSH1 0x40 DUP2 KECCAK256 DUP2 SWAP1 SSTORE JUMPDEST DUP2 MLOAD DUP2 LT ISZERO PUSH2 0x1E3A JUMPI DUP2 DUP2 DUP2 MLOAD DUP2 LT PUSH2 0x1DC4 JUMPI PUSH2 0x1DC4 PUSH2 0x26FC JUMP JUMPDEST PUSH1 0x20 SWAP1 DUP2 MUL SWAP2 SWAP1 SWAP2 ADD DUP2 ADD MLOAD PUSH1 0x1 PUSH1 0x1 PUSH1 0xA0 SHL SUB DUP6 AND PUSH1 0x0 SWAP1 DUP2 MSTORE PUSH1 0x6 DUP4 MSTORE PUSH1 0x40 DUP1 DUP3 KECCAK256 DUP6 DUP4 MSTORE SWAP1 SWAP4 MSTORE SWAP2 SWAP1 SWAP2 KECCAK256 SWAP1 PUSH2 0x1DFD SWAP1 DUP3 PUSH2 0x2826 JUMP JUMPDEST POP PUSH1 0x1 PUSH1 0x1 PUSH1 0xA0 SHL SUB DUP4 AND PUSH1 0x0 SWAP1 DUP2 MSTORE PUSH1 0x7 PUSH1 0x20 MSTORE PUSH1 0x40 DUP2 KECCAK256 DUP1 SLOAD SWAP2 PUSH2 0x1E22 DUP4 PUSH2 0x26E3 JUMP JUMPDEST SWAP2 SWAP1 POP SSTORE POP DUP1 DUP1 PUSH2 0x1E32 SWAP1 PUSH2 0x26E3 JUMP JUMPDEST SWAP2 POP POP PUSH2 0x1DA9 JUMP JUMPDEST POP POP POP JUMP JUMPDEST PUSH1 0x0 DUP1 SLOAD PUSH1 0x1 PUSH1 0x1 PUSH1 0xA0 SHL SUB DUP4 DUP2 AND PUSH1 0x1 PUSH1 0x1 PUSH1 0xA0 SHL SUB NOT DUP4 AND DUP2 OR DUP5 SSTORE PUSH1 0x40 MLOAD SWAP2 SWAP1 SWAP3 AND SWAP3 DUP4 SWAP2 PUSH32 0x8BE0079C531659141344CD1FD0A4F28419497F9722A3DAAFE3B4186F6B6457E0 SWAP2 SWAP1 LOG3 POP POP JUMP JUMPDEST PUSH1 0x1 PUSH1 0x1 PUSH1 0xA0 SHL SUB DUP2 AND PUSH1 0x0 SWAP1 DUP2 MSTORE PUSH1 0x7 PUSH1 0x20 MSTORE PUSH1 0x40 DUP2 KECCAK256 SLOAD PUSH1 0x60 SWAP2 DUP2 PUSH8 0xFFFFFFFFFFFFFFFF DUP2 GT ISZERO PUSH2 0x1EC4 JUMPI PUSH2 0x1EC4 PUSH2 0x2039 JUMP JUMPDEST PUSH1 0x40 MLOAD SWAP1 DUP1 DUP3 MSTORE DUP1 PUSH1 0x20 MUL PUSH1 0x20 ADD DUP3 ADD PUSH1 0x40 MSTORE DUP1 ISZERO PUSH2 0x1EF7 JUMPI DUP2 PUSH1 0x20 ADD JUMPDEST PUSH1 0x60 DUP2 MSTORE PUSH1 0x20 ADD SWAP1 PUSH1 0x1 SWAP1 SUB SWAP1 DUP2 PUSH2 0x1EE2 JUMPI SWAP1 POP JUMPDEST POP SWAP1 POP PUSH1 0x0 JUMPDEST DUP3 DUP2 LT ISZERO PUSH2 0x1FE1 JUMPI PUSH1 0x1 PUSH1 0x1 PUSH1 0xA0 SHL SUB DUP6 AND PUSH1 0x0 SWAP1 DUP2 MSTORE PUSH1 0x6 PUSH1 0x20 SWAP1 DUP2 MSTORE PUSH1 0x40 DUP1 DUP4 KECCAK256 DUP5 DUP5 MSTORE SWAP1 SWAP2 MSTORE SWAP1 KECCAK256 DUP1 SLOAD PUSH2 0x1F33 SWAP1 PUSH2 0x272E JUMP JUMPDEST DUP1 PUSH1 0x1F ADD PUSH1 0x20 DUP1 SWAP2 DIV MUL PUSH1 0x20 ADD PUSH1 0x40 MLOAD SWAP1 DUP2 ADD PUSH1 0x40 MSTORE DUP1 SWAP3 SWAP2 SWAP1 DUP2 DUP2 MSTORE PUSH1 0x20 ADD DUP3 DUP1 SLOAD PUSH2 0x1F5F SWAP1 PUSH2 0x272E JUMP JUMPDEST DUP1 ISZERO PUSH2 0x1FAC JUMPI DUP1 PUSH1 0x1F LT PUSH2 0x1F81 JUMPI PUSH2 0x100 DUP1 DUP4 SLOAD DIV MUL DUP4 MSTORE SWAP2 PUSH1 0x20 ADD SWAP2 PUSH2 0x1FAC JUMP JUMPDEST DUP3 ADD SWAP2 SWAP1 PUSH1 0x0 MSTORE PUSH1 0x20 PUSH1 0x0 KECCAK256 SWAP1 JUMPDEST DUP2 SLOAD DUP2 MSTORE SWAP1 PUSH1 0x1 ADD SWAP1 PUSH1 0x20 ADD DUP1 DUP4 GT PUSH2 0x1F8F JUMPI DUP3 SWAP1 SUB PUSH1 0x1F AND DUP3 ADD SWAP2 JUMPDEST POP POP POP POP POP DUP3 DUP3 DUP2 MLOAD DUP2 LT PUSH2 0x1FC3 JUMPI PUSH2 0x1FC3 PUSH2 0x26FC JUMP JUMPDEST PUSH1 0x20 MUL PUSH1 0x20 ADD ADD DUP2 SWAP1 MSTORE POP DUP1 DUP1 PUSH2 0x1FD9 SWAP1 PUSH2 0x26E3 JUMP JUMPDEST SWAP2 POP POP PUSH2 0x1EFD JUMP JUMPDEST POP SWAP4 SWAP3 POP POP POP JUMP JUMPDEST PUSH1 0x0 PUSH1 0x20 DUP3 DUP5 SUB SLT ISZERO PUSH2 0x1FFB JUMPI PUSH1 0x0 DUP1 REVERT JUMPDEST POP CALLDATALOAD SWAP2 SWAP1 POP JUMP JUMPDEST DUP1 CALLDATALOAD PUSH1 0x1 PUSH1 0x1 PUSH1 0xA0 SHL SUB DUP2 AND DUP2 EQ PUSH2 0x2019 JUMPI PUSH1 0x0 DUP1 REVERT JUMPDEST SWAP2 SWAP1 POP JUMP JUMPDEST PUSH1 0x0 PUSH1 0x20 DUP3 DUP5 SUB SLT ISZERO PUSH2 0x2030 JUMPI PUSH1 0x0 DUP1 REVERT JUMPDEST PUSH2 0x1D2C DUP3 PUSH2 0x2002 JUMP JUMPDEST PUSH4 0x4E487B71 PUSH1 0xE0 SHL PUSH1 0x0 MSTORE PUSH1 0x41 PUSH1 0x4 MSTORE PUSH1 0x24 PUSH1 0x0 REVERT JUMPDEST PUSH1 0x40 MLOAD PUSH1 0x1F DUP3 ADD PUSH1 0x1F NOT AND DUP2 ADD PUSH8 0xFFFFFFFFFFFFFFFF DUP2 GT DUP3 DUP3 LT OR ISZERO PUSH2 0x2078 JUMPI PUSH2 0x2078 PUSH2 0x2039 JUMP JUMPDEST PUSH1 0x40 MSTORE SWAP2 SWAP1 POP JUMP JUMPDEST PUSH1 0x0 DUP3 PUSH1 0x1F DUP4 ADD SLT PUSH2 0x2091 JUMPI PUSH1 0x0 DUP1 REVERT JUMPDEST DUP2 CALLDATALOAD PUSH8 0xFFFFFFFFFFFFFFFF DUP2 GT ISZERO PUSH2 0x20AB JUMPI PUSH2 0x20AB PUSH2 0x2039 JUMP JUMPDEST PUSH2 0x20BE PUSH1 0x1F DUP3 ADD PUSH1 0x1F NOT AND PUSH1 0x20 ADD PUSH2 0x204F JUMP JUMPDEST DUP2 DUP2 MSTORE DUP5 PUSH1 0x20 DUP4 DUP7 ADD ADD GT ISZERO PUSH2 0x20D3 JUMPI PUSH1 0x0 DUP1 REVERT JUMPDEST DUP2 PUSH1 0x20 DUP6 ADD PUSH1 0x20 DUP4 ADD CALLDATACOPY PUSH1 0x0 SWAP2 DUP2 ADD PUSH1 0x20 ADD SWAP2 SWAP1 SWAP2 MSTORE SWAP4 SWAP3 POP POP POP JUMP JUMPDEST PUSH1 0x0 PUSH1 0x20 DUP3 DUP5 SUB SLT ISZERO PUSH2 0x2102 JUMPI PUSH1 0x0 DUP1 REVERT JUMPDEST DUP2 CALLDATALOAD PUSH8 0xFFFFFFFFFFFFFFFF DUP2 GT ISZERO PUSH2 0x2119 JUMPI PUSH1 0x0 DUP1 REVERT JUMPDEST PUSH2 0x2125 DUP5 DUP3 DUP6 ADD PUSH2 0x2080 JUMP JUMPDEST SWAP5 SWAP4 POP POP POP POP JUMP JUMPDEST PUSH1 0x0 DUP1 PUSH1 0x0 DUP1 PUSH1 0x0 DUP1 PUSH1 0x0 PUSH1 0xE0 DUP9 DUP11 SUB SLT ISZERO PUSH2 0x2148 JUMPI PUSH1 0x0 DUP1 REVERT JUMPDEST DUP8 CALLDATALOAD PUSH8 0xFFFFFFFFFFFFFFFF DUP1 DUP3 GT ISZERO PUSH2 0x2160 JUMPI PUSH1 0x0 DUP1 REVERT JUMPDEST PUSH2 0x216C DUP12 DUP4 DUP13 ADD PUSH2 0x2080 JUMP JUMPDEST SWAP9 POP PUSH1 0x20 DUP11 ADD CALLDATALOAD SWAP2 POP DUP1 DUP3 GT ISZERO PUSH2 0x2182 JUMPI PUSH1 0x0 DUP1 REVERT JUMPDEST PUSH2 0x218E DUP12 DUP4 DUP13 ADD PUSH2 0x2080 JUMP JUMPDEST SWAP8 POP PUSH1 0x40 DUP11 ADD CALLDATALOAD SWAP7 POP PUSH1 0x60 DUP11 ADD CALLDATALOAD SWAP6 POP PUSH1 0x80 DUP11 ADD CALLDATALOAD SWAP5 POP PUSH1 0xA0 DUP11 ADD CALLDATALOAD SWAP4 POP PUSH1 0xC0 DUP11 ADD CALLDATALOAD SWAP2 POP DUP1 DUP3 GT ISZERO PUSH2 0x21C0 JUMPI PUSH1 0x0 DUP1 REVERT JUMPDEST POP PUSH2 0x21CD DUP11 DUP3 DUP12 ADD PUSH2 0x2080 JUMP JUMPDEST SWAP2 POP POP SWAP3 SWAP6 SWAP9 SWAP2 SWAP5 SWAP8 POP SWAP3 SWAP6 POP JUMP JUMPDEST PUSH1 0x0 JUMPDEST DUP4 DUP2 LT ISZERO PUSH2 0x21F7 JUMPI DUP2 DUP2 ADD MLOAD DUP4 DUP3 ADD MSTORE PUSH1 0x20 ADD PUSH2 0x21DF JUMP JUMPDEST POP POP PUSH1 0x0 SWAP2 ADD MSTORE JUMP JUMPDEST PUSH1 0x0 DUP2 MLOAD DUP1 DUP5 MSTORE PUSH2 0x2218 DUP2 PUSH1 0x20 DUP7 ADD PUSH1 0x20 DUP7 ADD PUSH2 0x21DC JUMP JUMPDEST PUSH1 0x1F ADD PUSH1 0x1F NOT AND SWAP3 SWAP1 SWAP3 ADD PUSH1 0x20 ADD SWAP3 SWAP2 POP POP JUMP JUMPDEST PUSH1 0xE0 DUP2 MSTORE PUSH1 0x0 PUSH2 0x223F PUSH1 0xE0 DUP4 ADD DUP11 PUSH2 0x2200 JUMP JUMPDEST DUP9 PUSH1 0x20 DUP5 ADD MSTORE DUP8 PUSH1 0x40 DUP5 ADD MSTORE DUP7 PUSH1 0x60 DUP5 ADD MSTORE DUP6 PUSH1 0x80 DUP5 ADD MSTORE DUP3 DUP2 SUB PUSH1 0xA0 DUP5 ADD MSTORE PUSH2 0x2269 DUP2 DUP7 PUSH2 0x2200 JUMP JUMPDEST SWAP2 POP POP DUP3 ISZERO ISZERO PUSH1 0xC0 DUP4 ADD MSTORE SWAP9 SWAP8 POP POP POP POP POP POP POP POP JUMP JUMPDEST PUSH1 0x0 PUSH8 0xFFFFFFFFFFFFFFFF DUP3 GT ISZERO PUSH2 0x229A JUMPI PUSH2 0x229A PUSH2 0x2039 JUMP JUMPDEST POP PUSH1 0x5 SHL PUSH1 0x20 ADD SWAP1 JUMP JUMPDEST PUSH1 0x0 DUP3 PUSH1 0x1F DUP4 ADD SLT PUSH2 0x22B5 JUMPI PUSH1 0x0 DUP1 REVERT JUMPDEST DUP2 CALLDATALOAD PUSH1 0x20 PUSH2 0x22CA PUSH2 0x22C5 DUP4 PUSH2 0x2280 JUMP JUMPDEST PUSH2 0x204F JUMP JUMPDEST DUP3 DUP2 MSTORE PUSH1 0x5 SWAP3 SWAP1 SWAP3 SHL DUP5 ADD DUP2 ADD SWAP2 DUP2 DUP2 ADD SWAP1 DUP7 DUP5 GT ISZERO PUSH2 0x22E9 JUMPI PUSH1 0x0 DUP1 REVERT JUMPDEST DUP3 DUP7 ADD JUMPDEST DUP5 DUP2 LT ISZERO PUSH2 0x2329 JUMPI DUP1 CALLDATALOAD PUSH8 0xFFFFFFFFFFFFFFFF DUP2 GT ISZERO PUSH2 0x230D JUMPI PUSH1 0x0 DUP1 DUP2 REVERT JUMPDEST PUSH2 0x231B DUP10 DUP7 DUP4 DUP12 ADD ADD PUSH2 0x2080 JUMP JUMPDEST DUP5 MSTORE POP SWAP2 DUP4 ADD SWAP2 DUP4 ADD PUSH2 0x22ED JUMP JUMPDEST POP SWAP7 SWAP6 POP POP POP POP POP POP JUMP JUMPDEST PUSH1 0x0 DUP1 PUSH1 0x0 DUP1 PUSH1 0x0 PUSH1 0xA0 DUP7 DUP9 SUB SLT ISZERO PUSH2 0x234C JUMPI PUSH1 0x0 DUP1 REVERT JUMPDEST DUP6 CALLDATALOAD SWAP5 POP PUSH1 0x20 DUP7 ADD CALLDATALOAD SWAP4 POP PUSH1 0x40 DUP7 ADD CALLDATALOAD SWAP3 POP PUSH1 0x60 DUP7 ADD CALLDATALOAD SWAP2 POP PUSH1 0x80 DUP7 ADD CALLDATALOAD PUSH8 0xFFFFFFFFFFFFFFFF DUP2 GT ISZERO PUSH2 0x237F JUMPI PUSH1 0x0 DUP1 REVERT JUMPDEST PUSH2 0x238B DUP9 DUP3 DUP10 ADD PUSH2 0x22A4 JUMP JUMPDEST SWAP2 POP POP SWAP3 SWAP6 POP SWAP3 SWAP6 SWAP1 SWAP4 POP JUMP JUMPDEST PUSH1 0x0 DUP2 MLOAD DUP1 DUP5 MSTORE PUSH1 0x20 DUP1 DUP6 ADD SWAP5 POP DUP5 DUP3 PUSH1 0x5 SHL DUP7 ADD DUP3 DUP7 ADD PUSH1 0x0 JUMPDEST DUP6 DUP2 LT ISZERO PUSH2 0x23DD JUMPI DUP4 DUP4 SUB DUP10 MSTORE PUSH2 0x23CB DUP4 DUP4 MLOAD PUSH2 0x2200 JUMP JUMPDEST SWAP9 DUP6 ADD SWAP9 SWAP3 POP SWAP1 DUP5 ADD SWAP1 PUSH1 0x1 ADD PUSH2 0x23B3 JUMP JUMPDEST POP SWAP1 SWAP8 SWAP7 POP POP POP POP POP POP POP JUMP JUMPDEST PUSH1 0x40 DUP2 MSTORE PUSH1 0x0 PUSH2 0x23FD PUSH1 0x40 DUP4 ADD DUP6 PUSH2 0x2398 JUMP JUMPDEST DUP3 DUP2 SUB PUSH1 0x20 DUP5 DUP2 ADD SWAP2 SWAP1 SWAP2 MSTORE DUP5 MLOAD DUP1 DUP4 MSTORE DUP6 DUP3 ADD SWAP3 DUP3 ADD SWAP1 PUSH1 0x0 JUMPDEST DUP2 DUP2 LT ISZERO PUSH2 0x23DD JUMPI DUP5 MLOAD DUP4 MSTORE SWAP4 DUP4 ADD SWAP4 SWAP2 DUP4 ADD SWAP2 PUSH1 0x1 ADD PUSH2 0x2418 JUMP JUMPDEST PUSH1 0x0 DUP1 PUSH1 0x40 DUP4 DUP6 SUB SLT ISZERO PUSH2 0x2447 JUMPI PUSH1 0x0 DUP1 REVERT JUMPDEST PUSH2 0x2450 DUP4 PUSH2 0x2002 JUMP JUMPDEST SWAP2 POP PUSH1 0x20 DUP4 ADD CALLDATALOAD PUSH8 0xFFFFFFFFFFFFFFFF DUP2 GT ISZERO PUSH2 0x246C JUMPI PUSH1 0x0 DUP1 REVERT JUMPDEST PUSH2 0x2478 DUP6 DUP3 DUP7 ADD PUSH2 0x2080 JUMP JUMPDEST SWAP2 POP POP SWAP3 POP SWAP3 SWAP1 POP JUMP JUMPDEST PUSH1 0x0 PUSH2 0x120 DUP6 MLOAD DUP4 MSTORE PUSH1 0x20 DUP7 ADD MLOAD PUSH1 0x20 DUP5 ADD MSTORE PUSH1 0x40 DUP7 ADD MLOAD PUSH1 0x40 DUP5 ADD MSTORE PUSH1 0x60 DUP7 ADD MLOAD PUSH1 0x60 DUP5 ADD MSTORE PUSH1 0x80 DUP7 ADD MLOAD PUSH1 0x80 DUP5 ADD MSTORE PUSH1 0xA0 DUP7 ADD MLOAD PUSH1 0xA0 DUP5 ADD MSTORE PUSH1 0xC0 DUP7 ADD MLOAD ISZERO ISZERO PUSH1 0xC0 DUP5 ADD MSTORE DUP5 PUSH1 0xE0 DUP5 ADD MSTORE DUP1 PUSH2 0x100 DUP5 ADD MSTORE PUSH2 0x24E2 DUP2 DUP5 ADD DUP6 PUSH2 0x2398 JUMP JUMPDEST SWAP7 SWAP6 POP POP POP POP POP POP JUMP JUMPDEST PUSH1 0x0 DUP1 PUSH1 0x40 DUP4 DUP6 SUB SLT ISZERO PUSH2 0x24FF JUMPI PUSH1 0x0 DUP1 REVERT JUMPDEST PUSH2 0x2508 DUP4 PUSH2 0x2002 JUMP JUMPDEST SWAP5 PUSH1 0x20 SWAP4 SWAP1 SWAP4 ADD CALLDATALOAD SWAP4 POP POP POP JUMP JUMPDEST PUSH1 0x20 DUP2 MSTORE PUSH1 0x0 PUSH2 0x1D2C PUSH1 0x20 DUP4 ADD DUP5 PUSH2 0x2200 JUMP JUMPDEST PUSH1 0x0 DUP3 PUSH1 0x1F DUP4 ADD SLT PUSH2 0x253A JUMPI PUSH1 0x0 DUP1 REVERT JUMPDEST DUP2 CALLDATALOAD PUSH1 0x20 PUSH2 0x254A PUSH2 0x22C5 DUP4 PUSH2 0x2280 JUMP JUMPDEST DUP3 DUP2 MSTORE PUSH1 0x5 SWAP3 SWAP1 SWAP3 SHL DUP5 ADD DUP2 ADD SWAP2 DUP2 DUP2 ADD SWAP1 DUP7 DUP5 GT ISZERO PUSH2 0x2569 JUMPI PUSH1 0x0 DUP1 REVERT JUMPDEST DUP3 DUP7 ADD JUMPDEST DUP5 DUP2 LT ISZERO PUSH2 0x2329 JUMPI DUP1 CALLDATALOAD DUP4 MSTORE SWAP2 DUP4 ADD SWAP2 DUP4 ADD PUSH2 0x256D JUMP JUMPDEST PUSH1 0x0 DUP1 PUSH1 0x0 DUP1 PUSH1 0x0 DUP1 PUSH1 0x0 DUP1 PUSH2 0x100 DUP10 DUP12 SUB SLT ISZERO PUSH2 0x25A1 JUMPI PUSH1 0x0 DUP1 REVERT JUMPDEST DUP9 CALLDATALOAD SWAP8 POP PUSH1 0x20 DUP10 ADD CALLDATALOAD SWAP7 POP PUSH1 0x40 DUP10 ADD CALLDATALOAD SWAP6 POP PUSH1 0x60 DUP10 ADD CALLDATALOAD SWAP5 POP PUSH1 0x80 DUP10 ADD CALLDATALOAD PUSH8 0xFFFFFFFFFFFFFFFF DUP1 DUP3 GT ISZERO PUSH2 0x25D5 JUMPI PUSH1 0x0 DUP1 REVERT JUMPDEST PUSH2 0x25E1 DUP13 DUP4 DUP14 ADD PUSH2 0x22A4 JUMP JUMPDEST SWAP6 POP PUSH1 0xA0 DUP12 ADD CALLDATALOAD SWAP2 POP DUP1 DUP3 GT ISZERO PUSH2 0x25F7 JUMPI PUSH1 0x0 DUP1 REVERT JUMPDEST PUSH2 0x2603 DUP13 DUP4 DUP14 ADD PUSH2 0x2529 JUMP JUMPDEST SWAP5 POP PUSH1 0xC0 DUP12 ADD CALLDATALOAD SWAP4 POP PUSH1 0xE0 DUP12 ADD CALLDATALOAD SWAP2 POP DUP1 DUP3 GT ISZERO PUSH2 0x2620 JUMPI PUSH1 0x0 DUP1 REVERT JUMPDEST POP PUSH2 0x262D DUP12 DUP3 DUP13 ADD PUSH2 0x22A4 JUMP JUMPDEST SWAP2 POP POP SWAP3 SWAP6 SWAP9 POP SWAP3 SWAP6 SWAP9 SWAP1 SWAP4 SWAP7 POP JUMP JUMPDEST PUSH1 0x0 DUP1 PUSH1 0x40 DUP4 DUP6 SUB SLT ISZERO PUSH2 0x2650 JUMPI PUSH1 0x0 DUP1 REVERT JUMPDEST DUP3 CALLDATALOAD PUSH8 0xFFFFFFFFFFFFFFFF DUP2 GT ISZERO PUSH2 0x2667 JUMPI PUSH1 0x0 DUP1 REVERT JUMPDEST PUSH2 0x2673 DUP6 DUP3 DUP7 ADD PUSH2 0x2080 JUMP JUMPDEST SWAP3 POP POP PUSH2 0x2682 PUSH1 0x20 DUP5 ADD PUSH2 0x2002 JUMP JUMPDEST SWAP1 POP SWAP3 POP SWAP3 SWAP1 POP JUMP JUMPDEST PUSH1 0x20 DUP1 DUP3 MSTORE PUSH1 0x15 SWAP1 DUP3 ADD MSTORE PUSH21 0x141B185E595C881B9BDD081C9959DA5CDD195C9959 PUSH1 0x5A SHL PUSH1 0x40 DUP3 ADD MSTORE PUSH1 0x60 ADD SWAP1 JUMP JUMPDEST PUSH4 0x4E487B71 PUSH1 0xE0 SHL PUSH1 0x0 MSTORE PUSH1 0x11 PUSH1 0x4 MSTORE PUSH1 0x24 PUSH1 0x0 REVERT JUMPDEST DUP1 DUP3 ADD DUP1 DUP3 GT ISZERO PUSH2 0x1C81 JUMPI PUSH2 0x1C81 PUSH2 0x26BA JUMP JUMPDEST PUSH1 0x0 PUSH1 0x1 DUP3 ADD PUSH2 0x26F5 JUMPI PUSH2 0x26F5 PUSH2 0x26BA JUMP JUMPDEST POP PUSH1 0x1 ADD SWAP1 JUMP JUMPDEST PUSH4 0x4E487B71 PUSH1 0xE0 SHL PUSH1 0x0 MSTORE PUSH1 0x32 PUSH1 0x4 MSTORE PUSH1 0x24 PUSH1 0x0 REVERT JUMPDEST PUSH1 0x0 DUP3 MLOAD PUSH2 0x2724 DUP2 DUP5 PUSH1 0x20 DUP8 ADD PUSH2 0x21DC JUMP JUMPDEST SWAP2 SWAP1 SWAP2 ADD SWAP3 SWAP2 POP POP JUMP JUMPDEST PUSH1 0x1 DUP2 DUP2 SHR SWAP1 DUP3 AND DUP1 PUSH2 0x2742 JUMPI PUSH1 0x7F DUP3 AND SWAP2 POP JUMPDEST PUSH1 0x20 DUP3 LT DUP2 SUB PUSH2 0x2762 JUMPI PUSH4 0x4E487B71 PUSH1 0xE0 SHL PUSH1 0x0 MSTORE PUSH1 0x22 PUSH1 0x4 MSTORE PUSH1 0x24 PUSH1 0x0 REVERT JUMPDEST POP SWAP2 SWAP1 POP JUMP JUMPDEST DUP2 DUP2 SUB DUP2 DUP2 GT ISZERO PUSH2 0x1C81 JUMPI PUSH2 0x1C81 PUSH2 0x26BA JUMP JUMPDEST PUSH1 0x0 PUSH1 0x20 DUP3 DUP5 SUB SLT ISZERO PUSH2 0x278D JUMPI PUSH1 0x0 DUP1 REVERT JUMPDEST POP MLOAD SWAP2 SWAP1 POP JUMP JUMPDEST PUSH1 0xA0 DUP2 MSTORE PUSH1 0x0 PUSH2 0x27A7 PUSH1 0xA0 DUP4 ADD DUP9 PUSH2 0x2200 JUMP JUMPDEST DUP7 PUSH1 0x20 DUP5 ADD MSTORE DUP6 PUSH1 0x40 DUP5 ADD MSTORE DUP3 DUP2 SUB PUSH1 0x60 DUP5 ADD MSTORE PUSH2 0x27C5 DUP2 DUP7 PUSH2 0x2200 JUMP JUMPDEST SWAP2 POP POP DUP3 PUSH1 0x80 DUP4 ADD MSTORE SWAP7 SWAP6 POP POP POP POP POP POP JUMP JUMPDEST PUSH1 0x1F DUP3 GT ISZERO PUSH2 0x1E3A JUMPI PUSH1 0x0 DUP2 DUP2 MSTORE PUSH1 0x20 DUP2 KECCAK256 PUSH1 0x1F DUP6 ADD PUSH1 0x5 SHR DUP2 ADD PUSH1 0x20 DUP7 LT ISZERO PUSH2 0x27FF JUMPI POP DUP1 JUMPDEST PUSH1 0x1F DUP6 ADD PUSH1 0x5 SHR DUP3 ADD SWAP2 POP JUMPDEST DUP2 DUP2 LT ISZERO PUSH2 0x281E JUMPI DUP3 DUP2 SSTORE PUSH1 0x1 ADD PUSH2 0x280B JUMP JUMPDEST POP POP POP POP POP POP JUMP JUMPDEST DUP2 MLOAD PUSH8 0xFFFFFFFFFFFFFFFF DUP2 GT ISZERO PUSH2 0x2840 JUMPI PUSH2 0x2840 PUSH2 0x2039 JUMP JUMPDEST PUSH2 0x2854 DUP2 PUSH2 0x284E DUP5 SLOAD PUSH2 0x272E JUMP JUMPDEST DUP5 PUSH2 0x27D8 JUMP JUMPDEST PUSH1 0x20 DUP1 PUSH1 0x1F DUP4 GT PUSH1 0x1 DUP2 EQ PUSH2 0x2889 JUMPI PUSH1 0x0 DUP5 ISZERO PUSH2 0x2871 JUMPI POP DUP6 DUP4 ADD MLOAD JUMPDEST PUSH1 0x0 NOT PUSH1 0x3 DUP7 SWAP1 SHL SHR NOT AND PUSH1 0x1 DUP6 SWAP1 SHL OR DUP6 SSTORE PUSH2 0x281E JUMP JUMPDEST PUSH1 0x0 DUP6 DUP2 MSTORE PUSH1 0x20 DUP2 KECCAK256 PUSH1 0x1F NOT DUP7 AND SWAP2 JUMPDEST DUP3 DUP2 LT ISZERO PUSH2 0x28B8 JUMPI DUP9 DUP7 ADD MLOAD DUP3 SSTORE SWAP5 DUP5 ADD SWAP5 PUSH1 0x1 SWAP1 SWAP2 ADD SWAP1 DUP5 ADD PUSH2 0x2899 JUMP JUMPDEST POP DUP6 DUP3 LT ISZERO PUSH2 0x28D6 JUMPI DUP8 DUP6 ADD MLOAD PUSH1 0x0 NOT PUSH1 0x3 DUP9 SWAP1 SHL PUSH1 0xF8 AND SHR NOT AND DUP2 SSTORE JUMPDEST POP POP POP POP POP PUSH1 0x1 SWAP1 DUP2 SHL ADD SWAP1 SSTORE POP JUMP JUMPDEST DUP1 DUP3 MUL DUP2 ISZERO DUP3 DUP3 DIV DUP5 EQ OR PUSH2 0x1C81 JUMPI PUSH2 0x1C81 PUSH2 0x26BA JUMP JUMPDEST PUSH1 0x0 DUP3 PUSH2 0x291A JUMPI PUSH4 0x4E487B71 PUSH1 0xE0 SHL PUSH1 0x0 MSTORE PUSH1 0x12 PUSH1 0x4 MSTORE PUSH1 0x24 PUSH1 0x0 REVERT JUMPDEST POP DIV SWAP1 JUMP INVALID LOG2 PUSH5 0x6970667358 0x22 SLT KECCAK256 BLOCKHASH CREATE2 0xC4 JUMPDEST PUSH25 0xF6804FB045D2A0D02786C40748F3E33D9C0BB46F07BA917B3 0xA5 0x1F PUSH5 0x736F6C6343 STOP ADDMOD SGT STOP CALLER "},"methodIdentifiers":{"activatePrestige()":"26f3fde0","addUpgrade(string,string,uint256,uint256,uint256,uint256,string)":"4a4a541e","creditsContract()":"0642bc41","getPlayerState(address)":"c01ca43f","getPlayerStats(address)":"4fd66eae","getPlayerUpgrades(address)":"71923eda","getUpgradeCost(string,address)":"f737e818","highestStardustPerSecond(address)":"dc0e5370","owner()":"8da5cb5b","playerAchievementCount(address)":"d1b2df4b","playerAchievements(address,uint256)":"df999dfd","playerStates(address)":"d15e55b7","playerUpgrades(address,string)":"a0bbc59e","prestigeCount(address)":"35c92d79","purchaseUpgrade(string)":"473ec38d","registerPlayer()":"5c07a4b0","renounceOwnership()":"715018a6","saveCompleteGameState(uint256,uint256,uint256,uint256,string[],uint256[],uint256,string[])":"f0a22a41","saveGameState(uint256,uint256,uint256,uint256,string[])":"6cdfaacb","toggleUpgrade(string)":"48113d40","totalCreditsSpent(address)":"f398467b","totalPlayTime(address)":"62821451","totalPlayers()":"f60cdcf6","totalStardustEarned(address)":"e3dbf6a6","totalStardustGenerated()":"aad135d4","transferOwnership(address)":"f2fde38b","updatePlayTime(uint256)":"019f5e8a","upgradeConfigs(string)":"66243339"}}}}}