{"contracts/P2ERewards.sol":{"P2ERewards":{"abi":[{"inputs":[{"internalType":"address payable","name":"_creditsContract","type":"address"}],"stateMutability":"nonpayable","type":"constructor"},{"anonymous":false,"inputs":[{"indexed":false,"internalType":"uint256","name":"newLimit","type":"uint256"},{"indexed":false,"internalType":"uint256","name":"timestamp","type":"uint256"}],"name":"DailyLimitUpdated","type":"event"},{"anonymous":false,"inputs":[{"indexed":true,"internalType":"address","name":"previousOwner","type":"address"},{"indexed":true,"internalType":"address","name":"newOwner","type":"address"}],"name":"OwnershipTransferred","type":"event"},{"anonymous":false,"inputs":[{"indexed":false,"internalType":"uint256","name":"amount","type":"uint256"},{"indexed":false,"internalType":"uint256","name":"timestamp","type":"uint256"}],"name":"RewardPoolFunded","type":"event"},{"anonymous":false,"inputs":[{"indexed":false,"internalType":"uint256","name":"newRate","type":"uint256"},{"indexed":false,"internalType":"uint256","name":"timestamp","type":"uint256"}],"name":"RewardRateUpdated","type":"event"},{"anonymous":false,"inputs":[{"indexed":true,"internalType":"address","name":"player","type":"address"},{"indexed":false,"internalType":"uint256","name":"stardustAmount","type":"uint256"},{"indexed":false,"internalType":"uint256","name":"cfxAmount","type":"uint256"},{"indexed":false,"internalType":"uint256","name":"timestamp","type":"uint256"}],"name":"StardustExchanged","type":"event"},{"inputs":[],"name":"creditsContract","outputs":[{"internalType":"contract StarMinerCredits","name":"","type":"address"}],"stateMutability":"view","type":"function"},{"inputs":[],"name":"dailyRewardLimit","outputs":[{"internalType":"uint256","name":"","type":"uint256"}],"stateMutability":"view","type":"function"},{"inputs":[{"internalType":"address","name":"","type":"address"}],"name":"dailyRewardsClaimed","outputs":[{"internalType":"uint256","name":"","type":"uint256"}],"stateMutability":"view","type":"function"},{"inputs":[],"name":"emergencyWithdraw","outputs":[],"stateMutability":"nonpayable","type":"function"},{"inputs":[{"internalType":"uint256","name":"stardustAmount","type":"uint256"}],"name":"exchangeStardustForCFX","outputs":[],"stateMutability":"nonpayable","type":"function"},{"inputs":[],"name":"fundRewardPool","outputs":[],"stateMutability":"payable","type":"function"},{"inputs":[],"name":"getContractStats","outputs":[{"internalType":"uint256","name":"totalPool","type":"uint256"},{"internalType":"uint256","name":"totalDistributed","type":"uint256"},{"internalType":"uint256","name":"exchangeRate","type":"uint256"},{"internalType":"uint256","name":"dailyLimit","type":"uint256"},{"internalType":"uint256","name":"minStardust","type":"uint256"}],"stateMutability":"view","type":"function"},{"inputs":[{"internalType":"address","name":"player","type":"address"}],"name":"getExchangeInfo","outputs":[{"internalType":"uint256","name":"rate","type":"uint256"},{"internalType":"uint256","name":"dailyLimit","type":"uint256"},{"internalType":"uint256","name":"remainingDaily","type":"uint256"},{"internalType":"uint256","name":"poolBalance","type":"uint256"},{"internalType":"uint256","name":"playerStardust","type":"uint256"}],"stateMutability":"view","type":"function"},{"inputs":[{"internalType":"address","name":"player","type":"address"}],"name":"getMaxClaimable","outputs":[{"internalType":"uint256","name":"","type":"uint256"}],"stateMutability":"view","type":"function"},{"inputs":[{"internalType":"address","name":"player","type":"address"}],"name":"getPlayerRewardStats","outputs":[{"internalType":"uint256","name":"totalClaimed","type":"uint256"},{"internalType":"uint256","name":"dailyClaimed","type":"uint256"},{"internalType":"uint256","name":"lastClaim","type":"uint256"},{"internalType":"uint256","name":"availableStardust","type":"uint256"}],"stateMutability":"view","type":"function"},{"inputs":[{"internalType":"address","name":"player","type":"address"}],"name":"getTimeUntilReset","outputs":[{"internalType":"uint256","name":"","type":"uint256"}],"stateMutability":"view","type":"function"},{"inputs":[{"internalType":"address","name":"","type":"address"}],"name":"lastClaimDate","outputs":[{"internalType":"uint256","name":"","type":"uint256"}],"stateMutability":"view","type":"function"},{"inputs":[],"name":"minimumStardust","outputs":[{"internalType":"uint256","name":"","type":"uint256"}],"stateMutability":"view","type":"function"},{"inputs":[],"name":"owner","outputs":[{"internalType":"address","name":"","type":"address"}],"stateMutability":"view","type":"function"},{"inputs":[],"name":"renounceOwnership","outputs":[],"stateMutability":"nonpayable","type":"function"},{"inputs":[],"name":"rewardPool","outputs":[{"internalType":"uint256","name":"","type":"uint256"}],"stateMutability":"view","type":"function"},{"inputs":[],"name":"rewardPoolFeePercent","outputs":[{"internalType":"uint256","name":"","type":"uint256"}],"stateMutability":"view","type":"function"},{"inputs":[{"internalType":"uint256","name":"newLimit","type":"uint256"}],"name":"setDailyLimit","outputs":[],"stateMutability":"nonpayable","type":"function"},{"inputs":[{"internalType":"uint256","name":"newRate","type":"uint256"}],"name":"setExchangeRate","outputs":[],"stateMutability":"nonpayable","type":"function"},{"inputs":[{"internalType":"uint256","name":"newMinimum","type":"uint256"}],"name":"setMinimumStardust","outputs":[],"stateMutability":"nonpayable","type":"function"},{"inputs":[{"internalType":"uint256","name":"newPercent","type":"uint256"}],"name":"setRewardPoolFeePercent","outputs":[],"stateMutability":"nonpayable","type":"function"},{"inputs":[],"name":"stardustToCFXRate","outputs":[{"internalType":"uint256","name":"","type":"uint256"}],"stateMutability":"view","type":"function"},{"inputs":[],"name":"syncRewardPool","outputs":[],"stateMutability":"nonpayable","type":"function"},{"inputs":[{"internalType":"address","name":"","type":"address"}],"name":"totalRewardsClaimed","outputs":[{"internalType":"uint256","name":"","type":"uint256"}],"stateMutability":"view","type":"function"},{"inputs":[],"name":"totalRewardsDistributed","outputs":[{"internalType":"uint256","name":"","type":"uint256"}],"stateMutability":"view","type":"function"},{"inputs":[{"internalType":"address","name":"newOwner","type":"address"}],"name":"transferOwnership","outputs":[],"stateMutability":"nonpayable","type":"function"},{"stateMutability":"payable","type":"receive"}],"evm":{"bytecode":{"linkReferences":{},"object":"6080604052612710600355670de0b6b3a7640000600455612710600555600560085534801561002d57600080fd5b506040516112b03803806112b083398101604081905261004c916100ce565b6100553361007e565b60018055600280546001600160a01b0319166001600160a01b03929092169190911790556100fe565b600080546001600160a01b038381166001600160a01b0319831681178455604051919092169283917f8be0079c531659141344cd1fd0a4f28419497f9722a3daafe3b4186f6b6457e09190a35050565b6000602082840312156100e057600080fd5b81516001600160a01b03811681146100f757600080fd5b9392505050565b6111a38061010d6000396000f3fe6080604052600436106101855760003560e01c80638da5cb5b116100d1578063db068e0e1161008a578063dfe6b5d611610064578063dfe6b5d6146104c2578063ee172546146104e3578063f2fde38b146104f9578063f6ce90041461051957600080fd5b8063db068e0e14610460578063db2e21bc14610480578063dda82b1f1461049557600080fd5b80638da5cb5b1461039657806391aa50aa146103b457806397ec913c146103ca5780639fc4622f146103e0578063adb90e3d14610400578063b20d30a91461044057600080fd5b80632f2ca3351161013e5780636052ccb0116101185780636052ccb01461031e57806366666aa91461034b578063715018a614610361578063882dad4a1461037657600080fd5b80632f2ca335146102c8578063367faa5b146102e8578063534675a11461030857600080fd5b80630642bc41146101e057806311bbf03c1461021d57806315b4fd5b146102415780631bb828e31461025857806320828339146102a05780632da0a908146102a857600080fd5b366101db57346006600082825461019c91906110ac565b9091555050604080513481524260208201527f5451f0d28a59c1c16a9d7cc5017150d585749eb225366037423f94b85ad94ea7910160405180910390a1005b600080fd5b3480156101ec57600080fd5b50600254610200906001600160a01b031681565b6040516001600160a01b0390911681526020015b60405180910390f35b34801561022957600080fd5b5061023360035481565b604051908152602001610214565b34801561024d57600080fd5b50610256610546565b005b34801561026457600080fd5b506102786102733660046110bf565b6105ad565b604080519586526020860194909452928401919091526060830152608082015260a001610214565b6102566106a0565b3480156102b457600080fd5b506102336102c33660046110bf565b6106f1565b3480156102d457600080fd5b506102566102e33660046110ef565b61075d565b3480156102f457600080fd5b506102566103033660046110ef565b610b45565b34801561031457600080fd5b5061023360085481565b34801561032a57600080fd5b506102336103393660046110bf565b600a6020526000908152604090205481565b34801561035757600080fd5b5061023360065481565b34801561036d57600080fd5b50610256610b52565b34801561038257600080fd5b506102566103913660046110ef565b610b66565b3480156103a257600080fd5b506000546001600160a01b0316610200565b3480156103c057600080fd5b5061023360045481565b3480156103d657600080fd5b5061023360055481565b3480156103ec57600080fd5b506102336103fb3660046110bf565b610bbc565b34801561040c57600080fd5b5061042061041b3660046110bf565b610cf7565b604080519485526020850193909352918301526060820152608001610214565b34801561044c57600080fd5b5061025661045b3660046110ef565b610d9b565b34801561046c57600080fd5b5061025661047b3660046110ef565b610de4565b34801561048c57600080fd5b50610256610e6e565b3480156104a157600080fd5b506102336104b03660046110bf565b60096020526000908152604090205481565b3480156104ce57600080fd5b50600654600754600354600454600554610278565b3480156104ef57600080fd5b5061023360075481565b34801561050557600080fd5b506102566105143660046110bf565b610f1d565b34801561052557600080fd5b506102336105343660046110bf565b600b6020526000908152604090205481565b61054e610f93565b6006544790808211156105a95760006105678284611108565b6006849055604080518281524260208201529192507f5451f0d28a59c1c16a9d7cc5017150d585749eb225366037423f94b85ad94ea7910160405180910390a1505b5050565b600354600480546006546002546040516323a438ff60e21b8152929360009384926001600160a01b031691638e90e3fc916105f9918a91016001600160a01b0391909116815260200190565b602060405180830381865afa158015610616573d6000803e3d6000fd5b505050506040513d601f19601f8201168201806040525081019061063a919061111b565b6001600160a01b0387166000908152600a602052604090205490915061066390620151806110ac565b421061067157839250610697565b6001600160a01b0386166000908152600960205260409020546106949085611108565b92505b91939590929450565b34600660008282546106b291906110ac565b9091555050604080513481524260208201527f5451f0d28a59c1c16a9d7cc5017150d585749eb225366037423f94b85ad94ea7910160405180910390a1565b6001600160a01b0381166000908152600a602052604081205461071790620151806110ac565b421061072557506000919050565b6001600160a01b0382166000908152600a6020526040902054429061074d90620151806110ac565b6107579190611108565b92915050565b610765610fed565b6005548110156107bc5760405162461bcd60e51b815260206004820152601d60248201527f42656c6f77206d696e696d756d2065786368616e676520616d6f756e7400000060448201526064015b60405180910390fd5b6002546040516323a438ff60e21b815233600482015282916001600160a01b031690638e90e3fc90602401602060405180830381865afa158015610804573d6000803e3d6000fd5b505050506040513d601f19601f82011682018060405250810190610828919061111b565b101561086e5760405162461bcd60e51b8152602060048201526015602482015274125b9cdd59999a58da595b9d081cdd185c991d5cdd605a1b60448201526064016107b3565b336000908152600a602052604090205461088b90620151806110ac565b42106108b157336000908152600960209081526040808320839055600a90915290204290555b6003546000906108c983670de0b6b3a7640000611134565b6108d3919061114b565b60045433600090815260096020526040902054919250906108f59083906110ac565b111561093a5760405162461bcd60e51b815260206004820152601460248201527311185a5b1e481b1a5b5a5d08195e18d95959195960621b60448201526064016107b3565b80600654101561098c5760405162461bcd60e51b815260206004820152601860248201527f496e73756666696369656e742072657761726420706f6f6c000000000000000060448201526064016107b3565b60025460405163593ee7fd60e11b8152336004820152600060248201526001600160a01b039091169063b27dcffa90604401600060405180830381600087803b1580156109d857600080fd5b505af11580156109ec573d6000803e3d6000fd5b50503360009081526009602052604081208054859450909250610a109084906110ac565b9091555050336000908152600b602052604081208054839290610a349084906110ac565b925050819055508060066000828254610a4d9190611108565b925050819055508060076000828254610a6691906110ac565b9091555050604051600090339083908381818185875af1925050503d8060008114610aad576040519150601f19603f3d011682016040523d82523d6000602084013e610ab2565b606091505b5050905080610af55760405162461bcd60e51b815260206004820152600f60248201526e151c985b9cd9995c8819985a5b1959608a1b60448201526064016107b3565b60408051848152602081018490524281830152905133917fedd12712bf315d7c5ea5c44f4712acea82680bec7b9ab130961b0f03e7723f54919081900360600190a25050610b4260018055565b50565b610b4d610f93565b600555565b610b5a610f93565b610b646000611046565b565b610b6e610f93565b6014811115610bb75760405162461bcd60e51b81526020600482015260156024820152744665652063616e6e6f74206578636565642032302560581b60448201526064016107b3565b600855565b6002546040516323a438ff60e21b81526001600160a01b0383811660048301526000928392911690638e90e3fc90602401602060405180830381865afa158015610c0a573d6000803e3d6000fd5b505050506040513d601f19601f82011682018060405250810190610c2e919061111b565b9050600554811015610c435750600092915050565b600354600090610c5b83670de0b6b3a7640000611134565b610c65919061114b565b6001600160a01b0385166000908152600a602052604081205491925090610c8f90620151806110ac565b4210610c9e5750600454610cc7565b6001600160a01b038516600090815260096020526040902054600454610cc49190611108565b90505b6000818311610cd65782610cd8565b815b90506006548111610ce95780610ced565b6006545b9695505050505050565b6001600160a01b038181166000818152600b60209081526040808320546009835281842054600a9093528184205460025492516323a438ff60e21b81526004810196909652909592949093929190911690638e90e3fc90602401602060405180830381865afa158015610d6e573d6000803e3d6000fd5b505050506040513d601f19601f82011682018060405250810190610d92919061111b565b90509193509193565b610da3610f93565b6004819055604080518281524260208201527f207c4cbdf55ec315a13f0d5e047732ec5d947da056e706593aa509909941cedf91015b60405180910390a150565b610dec610f93565b60008111610e345760405162461bcd60e51b815260206004820152601560248201527452617465206d75737420626520706f73697469766560581b60448201526064016107b3565b6003819055604080518281524260208201527fc390a98ace15a7bb6bab611eedfdbb2685043b241a869420043cdfb23ccfee509101610dd9565b610e76610f93565b476000610e8b6000546001600160a01b031690565b6001600160a01b03168260405160006040518083038185875af1925050503d8060008114610ed5576040519150601f19603f3d011682016040523d82523d6000602084013e610eda565b606091505b50509050806105a95760405162461bcd60e51b815260206004820152600f60248201526e151c985b9cd9995c8819985a5b1959608a1b60448201526064016107b3565b610f25610f93565b6001600160a01b038116610f8a5760405162461bcd60e51b815260206004820152602660248201527f4f776e61626c653a206e6577206f776e657220697320746865207a65726f206160448201526564647265737360d01b60648201526084016107b3565b610b4281611046565b6000546001600160a01b03163314610b645760405162461bcd60e51b815260206004820181905260248201527f4f776e61626c653a2063616c6c6572206973206e6f7420746865206f776e657260448201526064016107b3565b60026001540361103f5760405162461bcd60e51b815260206004820152601f60248201527f5265656e7472616e637947756172643a207265656e7472616e742063616c6c0060448201526064016107b3565b6002600155565b600080546001600160a01b038381166001600160a01b0319831681178455604051919092169283917f8be0079c531659141344cd1fd0a4f28419497f9722a3daafe3b4186f6b6457e09190a35050565b634e487b7160e01b600052601160045260246000fd5b8082018082111561075757610757611096565b6000602082840312156110d157600080fd5b81356001600160a01b03811681146110e857600080fd5b9392505050565b60006020828403121561110157600080fd5b5035919050565b8181038181111561075757610757611096565b60006020828403121561112d57600080fd5b5051919050565b808202811582820484141761075757610757611096565b60008261116857634e487b7160e01b600052601260045260246000fd5b50049056fea2646970667358221220659de167e09c32e01b66d846b8477014ee14ae49d00a5760b371fb8872635dd364736f6c63430008130033","opcodes":"PUSH1 0x80 PUSH1 0x40 MSTORE PUSH2 0x2710 PUSH1 0x3 SSTORE PUSH8 0xDE0B6B3A7640000 PUSH1 0x4 SSTORE PUSH2 0x2710 PUSH1 0x5 SSTORE PUSH1 0x5 PUSH1 0x8 SSTORE CALLVALUE DUP1 ISZERO PUSH2 0x2D JUMPI PUSH1 0x0 DUP1 REVERT JUMPDEST POP PUSH1 0x40 MLOAD PUSH2 0x12B0 CODESIZE SUB DUP1 PUSH2 0x12B0 DUP4 CODECOPY DUP2 ADD PUSH1 0x40 DUP2 SWAP1 MSTORE PUSH2 0x4C SWAP2 PUSH2 0xCE JUMP JUMPDEST PUSH2 0x55 CALLER PUSH2 0x7E JUMP JUMPDEST PUSH1 0x1 DUP1 SSTORE PUSH1 0x2 DUP1 SLOAD PUSH1 0x1 PUSH1 0x1 PUSH1 0xA0 SHL SUB NOT AND PUSH1 0x1 PUSH1 0x1 PUSH1 0xA0 SHL SUB SWAP3 SWAP1 SWAP3 AND SWAP2 SWAP1 SWAP2 OR SWAP1 SSTORE PUSH2 0xFE JUMP JUMPDEST PUSH1 0x0 DUP1 SLOAD PUSH1 0x1 PUSH1 0x1 PUSH1 0xA0 SHL SUB DUP4 DUP2 AND PUSH1 0x1 PUSH1 0x1 PUSH1 0xA0 SHL SUB NOT DUP4 AND DUP2 OR DUP5 SSTORE PUSH1 0x40 MLOAD SWAP2 SWAP1 SWAP3 AND SWAP3 DUP4 SWAP2 PUSH32 0x8BE0079C531659141344CD1FD0A4F28419497F9722A3DAAFE3B4186F6B6457E0 SWAP2 SWAP1 LOG3 POP POP JUMP JUMPDEST PUSH1 0x0 PUSH1 0x20 DUP3 DUP5 SUB SLT ISZERO PUSH2 0xE0 JUMPI PUSH1 0x0 DUP1 REVERT JUMPDEST DUP2 MLOAD PUSH1 0x1 PUSH1 0x1 PUSH1 0xA0 SHL SUB DUP2 AND DUP2 EQ PUSH2 0xF7 JUMPI PUSH1 0x0 DUP1 REVERT JUMPDEST SWAP4 SWAP3 POP POP POP JUMP JUMPDEST PUSH2 0x11A3 DUP1 PUSH2 0x10D PUSH1 0x0 CODECOPY PUSH1 0x0 RETURN INVALID PUSH1 0x80 PUSH1 0x40 MSTORE PUSH1 0x4 CALLDATASIZE LT PUSH2 0x185 JUMPI PUSH1 0x0 CALLDATALOAD PUSH1 0xE0 SHR DUP1 PUSH4 0x8DA5CB5B GT PUSH2 0xD1 JUMPI DUP1 PUSH4 0xDB068E0E GT PUSH2 0x8A JUMPI DUP1 PUSH4 0xDFE6B5D6 GT PUSH2 0x64 JUMPI DUP1 PUSH4 0xDFE6B5D6 EQ PUSH2 0x4C2 JUMPI DUP1 PUSH4 0xEE172546 EQ PUSH2 0x4E3 JUMPI DUP1 PUSH4 0xF2FDE38B EQ PUSH2 0x4F9 JUMPI DUP1 PUSH4 0xF6CE9004 EQ PUSH2 0x519 JUMPI PUSH1 0x0 DUP1 REVERT JUMPDEST DUP1 PUSH4 0xDB068E0E EQ PUSH2 0x460 JUMPI DUP1 PUSH4 0xDB2E21BC EQ PUSH2 0x480 JUMPI DUP1 PUSH4 0xDDA82B1F EQ PUSH2 0x495 JUMPI PUSH1 0x0 DUP1 REVERT JUMPDEST DUP1 PUSH4 0x8DA5CB5B EQ PUSH2 0x396 JUMPI DUP1 PUSH4 0x91AA50AA EQ PUSH2 0x3B4 JUMPI DUP1 PUSH4 0x97EC913C EQ PUSH2 0x3CA JUMPI DUP1 PUSH4 0x9FC4622F EQ PUSH2 0x3E0 JUMPI DUP1 PUSH4 0xADB90E3D EQ PUSH2 0x400 JUMPI DUP1 PUSH4 0xB20D30A9 EQ PUSH2 0x440 JUMPI PUSH1 0x0 DUP1 REVERT JUMPDEST DUP1 PUSH4 0x2F2CA335 GT PUSH2 0x13E JUMPI DUP1 PUSH4 0x6052CCB0 GT PUSH2 0x118 JUMPI DUP1 PUSH4 0x6052CCB0 EQ PUSH2 0x31E JUMPI DUP1 PUSH4 0x66666AA9 EQ PUSH2 0x34B JUMPI DUP1 PUSH4 0x715018A6 EQ PUSH2 0x361 JUMPI DUP1 PUSH4 0x882DAD4A EQ PUSH2 0x376 JUMPI PUSH1 0x0 DUP1 REVERT JUMPDEST DUP1 PUSH4 0x2F2CA335 EQ PUSH2 0x2C8 JUMPI DUP1 PUSH4 0x367FAA5B EQ PUSH2 0x2E8 JUMPI DUP1 PUSH4 0x534675A1 EQ PUSH2 0x308 JUMPI PUSH1 0x0 DUP1 REVERT JUMPDEST DUP1 PUSH4 0x642BC41 EQ PUSH2 0x1E0 JUMPI DUP1 PUSH4 0x11BBF03C EQ PUSH2 0x21D JUMPI DUP1 PUSH4 0x15B4FD5B EQ PUSH2 0x241 JUMPI DUP1 PUSH4 0x1BB828E3 EQ PUSH2 0x258 JUMPI DUP1 PUSH4 0x20828339 EQ PUSH2 0x2A0 JUMPI DUP1 PUSH4 0x2DA0A908 EQ PUSH2 0x2A8 JUMPI PUSH1 0x0 DUP1 REVERT JUMPDEST CALLDATASIZE PUSH2 0x1DB JUMPI CALLVALUE PUSH1 0x6 PUSH1 0x0 DUP3 DUP3 SLOAD PUSH2 0x19C SWAP2 SWAP1 PUSH2 0x10AC JUMP JUMPDEST SWAP1 SWAP2 SSTORE POP POP PUSH1 0x40 DUP1 MLOAD CALLVALUE DUP2 MSTORE TIMESTAMP PUSH1 0x20 DUP3 ADD MSTORE PUSH32 0x5451F0D28A59C1C16A9D7CC5017150D585749EB225366037423F94B85AD94EA7 SWAP2 ADD PUSH1 0x40 MLOAD DUP1 SWAP2 SUB SWAP1 LOG1 STOP JUMPDEST PUSH1 0x0 DUP1 REVERT JUMPDEST CALLVALUE DUP1 ISZERO PUSH2 0x1EC JUMPI PUSH1 0x0 DUP1 REVERT JUMPDEST POP PUSH1 0x2 SLOAD PUSH2 0x200 SWAP1 PUSH1 0x1 PUSH1 0x1 PUSH1 0xA0 SHL SUB AND DUP2 JUMP JUMPDEST PUSH1 0x40 MLOAD PUSH1 0x1 PUSH1 0x1 PUSH1 0xA0 SHL SUB SWAP1 SWAP2 AND DUP2 MSTORE PUSH1 0x20 ADD JUMPDEST PUSH1 0x40 MLOAD DUP1 SWAP2 SUB SWAP1 RETURN JUMPDEST CALLVALUE DUP1 ISZERO PUSH2 0x229 JUMPI PUSH1 0x0 DUP1 REVERT JUMPDEST POP PUSH2 0x233 PUSH1 0x3 SLOAD DUP2 JUMP JUMPDEST PUSH1 0x40 MLOAD SWAP1 DUP2 MSTORE PUSH1 0x20 ADD PUSH2 0x214 JUMP JUMPDEST CALLVALUE DUP1 ISZERO PUSH2 0x24D JUMPI PUSH1 0x0 DUP1 REVERT JUMPDEST POP PUSH2 0x256 PUSH2 0x546 JUMP JUMPDEST STOP JUMPDEST CALLVALUE DUP1 ISZERO PUSH2 0x264 JUMPI PUSH1 0x0 DUP1 REVERT JUMPDEST POP PUSH2 0x278 PUSH2 0x273 CALLDATASIZE PUSH1 0x4 PUSH2 0x10BF JUMP JUMPDEST PUSH2 0x5AD JUMP JUMPDEST PUSH1 0x40 DUP1 MLOAD SWAP6 DUP7 MSTORE PUSH1 0x20 DUP7 ADD SWAP5 SWAP1 SWAP5 MSTORE SWAP3 DUP5 ADD SWAP2 SWAP1 SWAP2 MSTORE PUSH1 0x60 DUP4 ADD MSTORE PUSH1 0x80 DUP3 ADD MSTORE PUSH1 0xA0 ADD PUSH2 0x214 JUMP JUMPDEST PUSH2 0x256 PUSH2 0x6A0 JUMP JUMPDEST CALLVALUE DUP1 ISZERO PUSH2 0x2B4 JUMPI PUSH1 0x0 DUP1 REVERT JUMPDEST POP PUSH2 0x233 PUSH2 0x2C3 CALLDATASIZE PUSH1 0x4 PUSH2 0x10BF JUMP JUMPDEST PUSH2 0x6F1 JUMP JUMPDEST CALLVALUE DUP1 ISZERO PUSH2 0x2D4 JUMPI PUSH1 0x0 DUP1 REVERT JUMPDEST POP PUSH2 0x256 PUSH2 0x2E3 CALLDATASIZE PUSH1 0x4 PUSH2 0x10EF JUMP JUMPDEST PUSH2 0x75D JUMP JUMPDEST CALLVALUE DUP1 ISZERO PUSH2 0x2F4 JUMPI PUSH1 0x0 DUP1 REVERT JUMPDEST POP PUSH2 0x256 PUSH2 0x303 CALLDATASIZE PUSH1 0x4 PUSH2 0x10EF JUMP JUMPDEST PUSH2 0xB45 JUMP JUMPDEST CALLVALUE DUP1 ISZERO PUSH2 0x314 JUMPI PUSH1 0x0 DUP1 REVERT JUMPDEST POP PUSH2 0x233 PUSH1 0x8 SLOAD DUP2 JUMP JUMPDEST CALLVALUE DUP1 ISZERO PUSH2 0x32A JUMPI PUSH1 0x0 DUP1 REVERT JUMPDEST POP PUSH2 0x233 PUSH2 0x339 CALLDATASIZE PUSH1 0x4 PUSH2 0x10BF JUMP JUMPDEST PUSH1 0xA PUSH1 0x20 MSTORE PUSH1 0x0 SWAP1 DUP2 MSTORE PUSH1 0x40 SWAP1 KECCAK256 SLOAD DUP2 JUMP JUMPDEST CALLVALUE DUP1 ISZERO PUSH2 0x357 JUMPI PUSH1 0x0 DUP1 REVERT JUMPDEST POP PUSH2 0x233 PUSH1 0x6 SLOAD DUP2 JUMP JUMPDEST CALLVALUE DUP1 ISZERO PUSH2 0x36D JUMPI PUSH1 0x0 DUP1 REVERT JUMPDEST POP PUSH2 0x256 PUSH2 0xB52 JUMP JUMPDEST CALLVALUE DUP1 ISZERO PUSH2 0x382 JUMPI PUSH1 0x0 DUP1 REVERT JUMPDEST POP PUSH2 0x256 PUSH2 0x391 CALLDATASIZE PUSH1 0x4 PUSH2 0x10EF JUMP JUMPDEST PUSH2 0xB66 JUMP JUMPDEST CALLVALUE DUP1 ISZERO PUSH2 0x3A2 JUMPI PUSH1 0x0 DUP1 REVERT JUMPDEST POP PUSH1 0x0 SLOAD PUSH1 0x1 PUSH1 0x1 PUSH1 0xA0 SHL SUB AND PUSH2 0x200 JUMP JUMPDEST CALLVALUE DUP1 ISZERO PUSH2 0x3C0 JUMPI PUSH1 0x0 DUP1 REVERT JUMPDEST POP PUSH2 0x233 PUSH1 0x4 SLOAD DUP2 JUMP JUMPDEST CALLVALUE DUP1 ISZERO PUSH2 0x3D6 JUMPI PUSH1 0x0 DUP1 REVERT JUMPDEST POP PUSH2 0x233 PUSH1 0x5 SLOAD DUP2 JUMP JUMPDEST CALLVALUE DUP1 ISZERO PUSH2 0x3EC JUMPI PUSH1 0x0 DUP1 REVERT JUMPDEST POP PUSH2 0x233 PUSH2 0x3FB CALLDATASIZE PUSH1 0x4 PUSH2 0x10BF JUMP JUMPDEST PUSH2 0xBBC JUMP JUMPDEST CALLVALUE DUP1 ISZERO PUSH2 0x40C JUMPI PUSH1 0x0 DUP1 REVERT JUMPDEST POP PUSH2 0x420 PUSH2 0x41B CALLDATASIZE PUSH1 0x4 PUSH2 0x10BF JUMP JUMPDEST PUSH2 0xCF7 JUMP JUMPDEST PUSH1 0x40 DUP1 MLOAD SWAP5 DUP6 MSTORE PUSH1 0x20 DUP6 ADD SWAP4 SWAP1 SWAP4 MSTORE SWAP2 DUP4 ADD MSTORE PUSH1 0x60 DUP3 ADD MSTORE PUSH1 0x80 ADD PUSH2 0x214 JUMP JUMPDEST CALLVALUE DUP1 ISZERO PUSH2 0x44C JUMPI PUSH1 0x0 DUP1 REVERT JUMPDEST POP PUSH2 0x256 PUSH2 0x45B CALLDATASIZE PUSH1 0x4 PUSH2 0x10EF JUMP JUMPDEST PUSH2 0xD9B JUMP JUMPDEST CALLVALUE DUP1 ISZERO PUSH2 0x46C JUMPI PUSH1 0x0 DUP1 REVERT JUMPDEST POP PUSH2 0x256 PUSH2 0x47B CALLDATASIZE PUSH1 0x4 PUSH2 0x10EF JUMP JUMPDEST PUSH2 0xDE4 JUMP JUMPDEST CALLVALUE DUP1 ISZERO PUSH2 0x48C JUMPI PUSH1 0x0 DUP1 REVERT JUMPDEST POP PUSH2 0x256 PUSH2 0xE6E JUMP JUMPDEST CALLVALUE DUP1 ISZERO PUSH2 0x4A1 JUMPI PUSH1 0x0 DUP1 REVERT JUMPDEST POP PUSH2 0x233 PUSH2 0x4B0 CALLDATASIZE PUSH1 0x4 PUSH2 0x10BF JUMP JUMPDEST PUSH1 0x9 PUSH1 0x20 MSTORE PUSH1 0x0 SWAP1 DUP2 MSTORE PUSH1 0x40 SWAP1 KECCAK256 SLOAD DUP2 JUMP JUMPDEST CALLVALUE DUP1 ISZERO PUSH2 0x4CE JUMPI PUSH1 0x0 DUP1 REVERT JUMPDEST POP PUSH1 0x6 SLOAD PUSH1 0x7 SLOAD PUSH1 0x3 SLOAD PUSH1 0x4 SLOAD PUSH1 0x5 SLOAD PUSH2 0x278 JUMP JUMPDEST CALLVALUE DUP1 ISZERO PUSH2 0x4EF JUMPI PUSH1 0x0 DUP1 REVERT JUMPDEST POP PUSH2 0x233 PUSH1 0x7 SLOAD DUP2 JUMP JUMPDEST CALLVALUE DUP1 ISZERO PUSH2 0x505 JUMPI PUSH1 0x0 DUP1 REVERT JUMPDEST POP PUSH2 0x256 PUSH2 0x514 CALLDATASIZE PUSH1 0x4 PUSH2 0x10BF JUMP JUMPDEST PUSH2 0xF1D JUMP JUMPDEST CALLVALUE DUP1 ISZERO PUSH2 0x525 JUMPI PUSH1 0x0 DUP1 REVERT JUMPDEST POP PUSH2 0x233 PUSH2 0x534 CALLDATASIZE PUSH1 0x4 PUSH2 0x10BF JUMP JUMPDEST PUSH1 0xB PUSH1 0x20 MSTORE PUSH1 0x0 SWAP1 DUP2 MSTORE PUSH1 0x40 SWAP1 KECCAK256 SLOAD DUP2 JUMP JUMPDEST PUSH2 0x54E PUSH2 0xF93 JUMP JUMPDEST PUSH1 0x6 SLOAD SELFBALANCE SWAP1 DUP1 DUP3 GT ISZERO PUSH2 0x5A9 JUMPI PUSH1 0x0 PUSH2 0x567 DUP3 DUP5 PUSH2 0x1108 JUMP JUMPDEST PUSH1 0x6 DUP5 SWAP1 SSTORE PUSH1 0x40 DUP1 MLOAD DUP3 DUP2 MSTORE TIMESTAMP PUSH1 0x20 DUP3 ADD MSTORE SWAP2 SWAP3 POP PUSH32 0x5451F0D28A59C1C16A9D7CC5017150D585749EB225366037423F94B85AD94EA7 SWAP2 ADD PUSH1 0x40 MLOAD DUP1 SWAP2 SUB SWAP1 LOG1 POP JUMPDEST POP POP JUMP JUMPDEST PUSH1 0x3 SLOAD PUSH1 0x4 DUP1 SLOAD PUSH1 0x6 SLOAD PUSH1 0x2 SLOAD PUSH1 0x40 MLOAD PUSH4 0x23A438FF PUSH1 0xE2 SHL DUP2 MSTORE SWAP3 SWAP4 PUSH1 0x0 SWAP4 DUP5 SWAP3 PUSH1 0x1 PUSH1 0x1 PUSH1 0xA0 SHL SUB AND SWAP2 PUSH4 0x8E90E3FC SWAP2 PUSH2 0x5F9 SWAP2 DUP11 SWAP2 ADD PUSH1 0x1 PUSH1 0x1 PUSH1 0xA0 SHL SUB SWAP2 SWAP1 SWAP2 AND DUP2 MSTORE PUSH1 0x20 ADD SWAP1 JUMP JUMPDEST PUSH1 0x20 PUSH1 0x40 MLOAD DUP1 DUP4 SUB DUP2 DUP7 GAS STATICCALL ISZERO DUP1 ISZERO PUSH2 0x616 JUMPI RETURNDATASIZE PUSH1 0x0 DUP1 RETURNDATACOPY RETURNDATASIZE PUSH1 0x0 REVERT JUMPDEST POP POP POP POP PUSH1 0x40 MLOAD RETURNDATASIZE PUSH1 0x1F NOT PUSH1 0x1F DUP3 ADD AND DUP3 ADD DUP1 PUSH1 0x40 MSTORE POP DUP2 ADD SWAP1 PUSH2 0x63A SWAP2 SWAP1 PUSH2 0x111B JUMP JUMPDEST PUSH1 0x1 PUSH1 0x1 PUSH1 0xA0 SHL SUB DUP8 AND PUSH1 0x0 SWAP1 DUP2 MSTORE PUSH1 0xA PUSH1 0x20 MSTORE PUSH1 0x40 SWAP1 KECCAK256 SLOAD SWAP1 SWAP2 POP PUSH2 0x663 SWAP1 PUSH3 0x15180 PUSH2 0x10AC JUMP JUMPDEST TIMESTAMP LT PUSH2 0x671 JUMPI DUP4 SWAP3 POP PUSH2 0x697 JUMP JUMPDEST PUSH1 0x1 PUSH1 0x1 PUSH1 0xA0 SHL SUB DUP7 AND PUSH1 0x0 SWAP1 DUP2 MSTORE PUSH1 0x9 PUSH1 0x20 MSTORE PUSH1 0x40 SWAP1 KECCAK256 SLOAD PUSH2 0x694 SWAP1 DUP6 PUSH2 0x1108 JUMP JUMPDEST SWAP3 POP JUMPDEST SWAP2 SWAP4 SWAP6 SWAP1 SWAP3 SWAP5 POP JUMP JUMPDEST CALLVALUE PUSH1 0x6 PUSH1 0x0 DUP3 DUP3 SLOAD PUSH2 0x6B2 SWAP2 SWAP1 PUSH2 0x10AC JUMP JUMPDEST SWAP1 SWAP2 SSTORE POP POP PUSH1 0x40 DUP1 MLOAD CALLVALUE DUP2 MSTORE TIMESTAMP PUSH1 0x20 DUP3 ADD MSTORE PUSH32 0x5451F0D28A59C1C16A9D7CC5017150D585749EB225366037423F94B85AD94EA7 SWAP2 ADD PUSH1 0x40 MLOAD DUP1 SWAP2 SUB SWAP1 LOG1 JUMP JUMPDEST PUSH1 0x1 PUSH1 0x1 PUSH1 0xA0 SHL SUB DUP2 AND PUSH1 0x0 SWAP1 DUP2 MSTORE PUSH1 0xA PUSH1 0x20 MSTORE PUSH1 0x40 DUP2 KECCAK256 SLOAD PUSH2 0x717 SWAP1 PUSH3 0x15180 PUSH2 0x10AC JUMP JUMPDEST TIMESTAMP LT PUSH2 0x725 JUMPI POP PUSH1 0x0 SWAP2 SWAP1 POP JUMP JUMPDEST PUSH1 0x1 PUSH1 0x1 PUSH1 0xA0 SHL SUB DUP3 AND PUSH1 0x0 SWAP1 DUP2 MSTORE PUSH1 0xA PUSH1 0x20 MSTORE PUSH1 0x40 SWAP1 KECCAK256 SLOAD TIMESTAMP SWAP1 PUSH2 0x74D SWAP1 PUSH3 0x15180 PUSH2 0x10AC JUMP JUMPDEST PUSH2 0x757 SWAP2 SWAP1 PUSH2 0x1108 JUMP JUMPDEST SWAP3 SWAP2 POP POP JUMP JUMPDEST PUSH2 0x765 PUSH2 0xFED JUMP JUMPDEST PUSH1 0x5 SLOAD DUP2 LT ISZERO PUSH2 0x7BC JUMPI PUSH1 0x40 MLOAD PUSH3 0x461BCD PUSH1 0xE5 SHL DUP2 MSTORE PUSH1 0x20 PUSH1 0x4 DUP3 ADD MSTORE PUSH1 0x1D PUSH1 0x24 DUP3 ADD MSTORE PUSH32 0x42656C6F77206D696E696D756D2065786368616E676520616D6F756E74000000 PUSH1 0x44 DUP3 ADD MSTORE PUSH1 0x64 ADD JUMPDEST PUSH1 0x40 MLOAD DUP1 SWAP2 SUB SWAP1 REVERT JUMPDEST PUSH1 0x2 SLOAD PUSH1 0x40 MLOAD PUSH4 0x23A438FF PUSH1 0xE2 SHL DUP2 MSTORE CALLER PUSH1 0x4 DUP3 ADD MSTORE DUP3 SWAP2 PUSH1 0x1 PUSH1 0x1 PUSH1 0xA0 SHL SUB AND SWAP1 PUSH4 0x8E90E3FC SWAP1 PUSH1 0x24 ADD PUSH1 0x20 PUSH1 0x40 MLOAD DUP1 DUP4 SUB DUP2 DUP7 GAS STATICCALL ISZERO DUP1 ISZERO PUSH2 0x804 JUMPI RETURNDATASIZE PUSH1 0x0 DUP1 RETURNDATACOPY RETURNDATASIZE PUSH1 0x0 REVERT JUMPDEST POP POP POP POP PUSH1 0x40 MLOAD RETURNDATASIZE PUSH1 0x1F NOT PUSH1 0x1F DUP3 ADD AND DUP3 ADD DUP1 PUSH1 0x40 MSTORE POP DUP2 ADD SWAP1 PUSH2 0x828 SWAP2 SWAP1 PUSH2 0x111B JUMP JUMPDEST LT ISZERO PUSH2 0x86E JUMPI PUSH1 0x40 MLOAD PUSH3 0x461BCD PUSH1 0xE5 SHL DUP2 MSTORE PUSH1 0x20 PUSH1 0x4 DUP3 ADD MSTORE PUSH1 0x15 PUSH1 0x24 DUP3 ADD MSTORE PUSH21 0x125B9CDD59999A58DA595B9D081CDD185C991D5CDD PUSH1 0x5A SHL PUSH1 0x44 DUP3 ADD MSTORE PUSH1 0x64 ADD PUSH2 0x7B3 JUMP JUMPDEST CALLER PUSH1 0x0 SWAP1 DUP2 MSTORE PUSH1 0xA PUSH1 0x20 MSTORE PUSH1 0x40 SWAP1 KECCAK256 SLOAD PUSH2 0x88B SWAP1 PUSH3 0x15180 PUSH2 0x10AC JUMP JUMPDEST TIMESTAMP LT PUSH2 0x8B1 JUMPI CALLER PUSH1 0x0 SWAP1 DUP2 MSTORE PUSH1 0x9 PUSH1 0x20 SWAP1 DUP2 MSTORE PUSH1 0x40 DUP1 DUP4 KECCAK256 DUP4 SWAP1 SSTORE PUSH1 0xA SWAP1 SWAP2 MSTORE SWAP1 KECCAK256 TIMESTAMP SWAP1 SSTORE JUMPDEST PUSH1 0x3 SLOAD PUSH1 0x0 SWAP1 PUSH2 0x8C9 DUP4 PUSH8 0xDE0B6B3A7640000 PUSH2 0x1134 JUMP JUMPDEST PUSH2 0x8D3 SWAP2 SWAP1 PUSH2 0x114B JUMP JUMPDEST PUSH1 0x4 SLOAD CALLER PUSH1 0x0 SWAP1 DUP2 MSTORE PUSH1 0x9 PUSH1 0x20 MSTORE PUSH1 0x40 SWAP1 KECCAK256 SLOAD SWAP2 SWAP3 POP SWAP1 PUSH2 0x8F5 SWAP1 DUP4 SWAP1 PUSH2 0x10AC JUMP JUMPDEST GT ISZERO PUSH2 0x93A JUMPI PUSH1 0x40 MLOAD PUSH3 0x461BCD PUSH1 0xE5 SHL DUP2 MSTORE PUSH1 0x20 PUSH1 0x4 DUP3 ADD MSTORE PUSH1 0x14 PUSH1 0x24 DUP3 ADD MSTORE PUSH20 0x11185A5B1E481B1A5B5A5D08195E18D959591959 PUSH1 0x62 SHL PUSH1 0x44 DUP3 ADD MSTORE PUSH1 0x64 ADD PUSH2 0x7B3 JUMP JUMPDEST DUP1 PUSH1 0x6 SLOAD LT ISZERO PUSH2 0x98C JUMPI PUSH1 0x40 MLOAD PUSH3 0x461BCD PUSH1 0xE5 SHL DUP2 MSTORE PUSH1 0x20 PUSH1 0x4 DUP3 ADD MSTORE PUSH1 0x18 PUSH1 0x24 DUP3 ADD MSTORE PUSH32 0x496E73756666696369656E742072657761726420706F6F6C0000000000000000 PUSH1 0x44 DUP3 ADD MSTORE PUSH1 0x64 ADD PUSH2 0x7B3 JUMP JUMPDEST PUSH1 0x2 SLOAD PUSH1 0x40 MLOAD PUSH4 0x593EE7FD PUSH1 0xE1 SHL DUP2 MSTORE CALLER PUSH1 0x4 DUP3 ADD MSTORE PUSH1 0x0 PUSH1 0x24 DUP3 ADD MSTORE PUSH1 0x1 PUSH1 0x1 PUSH1 0xA0 SHL SUB SWAP1 SWAP2 AND SWAP1 PUSH4 0xB27DCFFA SWAP1 PUSH1 0x44 ADD PUSH1 0x0 PUSH1 0x40 MLOAD DUP1 DUP4 SUB DUP2 PUSH1 0x0 DUP8 DUP1 EXTCODESIZE ISZERO DUP1 ISZERO PUSH2 0x9D8 JUMPI PUSH1 0x0 DUP1 REVERT JUMPDEST POP GAS CALL ISZERO DUP1 ISZERO PUSH2 0x9EC JUMPI RETURNDATASIZE PUSH1 0x0 DUP1 RETURNDATACOPY RETURNDATASIZE PUSH1 0x0 REVERT JUMPDEST POP POP CALLER PUSH1 0x0 SWAP1 DUP2 MSTORE PUSH1 0x9 PUSH1 0x20 MSTORE PUSH1 0x40 DUP2 KECCAK256 DUP1 SLOAD DUP6 SWAP5 POP SWAP1 SWAP3 POP PUSH2 0xA10 SWAP1 DUP5 SWAP1 PUSH2 0x10AC JUMP JUMPDEST SWAP1 SWAP2 SSTORE POP POP CALLER PUSH1 0x0 SWAP1 DUP2 MSTORE PUSH1 0xB PUSH1 0x20 MSTORE PUSH1 0x40 DUP2 KECCAK256 DUP1 SLOAD DUP4 SWAP3 SWAP1 PUSH2 0xA34 SWAP1 DUP5 SWAP1 PUSH2 0x10AC JUMP JUMPDEST SWAP3 POP POP DUP2 SWAP1 SSTORE POP DUP1 PUSH1 0x6 PUSH1 0x0 DUP3 DUP3 SLOAD PUSH2 0xA4D SWAP2 SWAP1 PUSH2 0x1108 JUMP JUMPDEST SWAP3 POP POP DUP2 SWAP1 SSTORE POP DUP1 PUSH1 0x7 PUSH1 0x0 DUP3 DUP3 SLOAD PUSH2 0xA66 SWAP2 SWAP1 PUSH2 0x10AC JUMP JUMPDEST SWAP1 SWAP2 SSTORE POP POP PUSH1 0x40 MLOAD PUSH1 0x0 SWAP1 CALLER SWAP1 DUP4 SWAP1 DUP4 DUP2 DUP2 DUP2 DUP6 DUP8 GAS CALL SWAP3 POP POP POP RETURNDATASIZE DUP1 PUSH1 0x0 DUP2 EQ PUSH2 0xAAD JUMPI PUSH1 0x40 MLOAD SWAP2 POP PUSH1 0x1F NOT PUSH1 0x3F RETURNDATASIZE ADD AND DUP3 ADD PUSH1 0x40 MSTORE RETURNDATASIZE DUP3 MSTORE RETURNDATASIZE PUSH1 0x0 PUSH1 0x20 DUP5 ADD RETURNDATACOPY PUSH2 0xAB2 JUMP JUMPDEST PUSH1 0x60 SWAP2 POP JUMPDEST POP POP SWAP1 POP DUP1 PUSH2 0xAF5 JUMPI PUSH1 0x40 MLOAD PUSH3 0x461BCD PUSH1 0xE5 SHL DUP2 MSTORE PUSH1 0x20 PUSH1 0x4 DUP3 ADD MSTORE PUSH1 0xF PUSH1 0x24 DUP3 ADD MSTORE PUSH15 0x151C985B9CD9995C8819985A5B1959 PUSH1 0x8A SHL PUSH1 0x44 DUP3 ADD MSTORE PUSH1 0x64 ADD PUSH2 0x7B3 JUMP JUMPDEST PUSH1 0x40 DUP1 MLOAD DUP5 DUP2 MSTORE PUSH1 0x20 DUP2 ADD DUP5 SWAP1 MSTORE TIMESTAMP DUP2 DUP4 ADD MSTORE SWAP1 MLOAD CALLER SWAP2 PUSH32 0xEDD12712BF315D7C5EA5C44F4712ACEA82680BEC7B9AB130961B0F03E7723F54 SWAP2 SWAP1 DUP2 SWAP1 SUB PUSH1 0x60 ADD SWAP1 LOG2 POP POP PUSH2 0xB42 PUSH1 0x1 DUP1 SSTORE JUMP JUMPDEST POP JUMP JUMPDEST PUSH2 0xB4D PUSH2 0xF93 JUMP JUMPDEST PUSH1 0x5 SSTORE JUMP JUMPDEST PUSH2 0xB5A PUSH2 0xF93 JUMP JUMPDEST PUSH2 0xB64 PUSH1 0x0 PUSH2 0x1046 JUMP JUMPDEST JUMP JUMPDEST PUSH2 0xB6E PUSH2 0xF93 JUMP JUMPDEST PUSH1 0x14 DUP2 GT ISZERO PUSH2 0xBB7 JUMPI PUSH1 0x40 MLOAD PUSH3 0x461BCD PUSH1 0xE5 SHL DUP2 MSTORE PUSH1 0x20 PUSH1 0x4 DUP3 ADD MSTORE PUSH1 0x15 PUSH1 0x24 DUP3 ADD MSTORE PUSH21 0x4665652063616E6E6F742065786365656420323025 PUSH1 0x58 SHL PUSH1 0x44 DUP3 ADD MSTORE PUSH1 0x64 ADD PUSH2 0x7B3 JUMP JUMPDEST PUSH1 0x8 SSTORE JUMP JUMPDEST PUSH1 0x2 SLOAD PUSH1 0x40 MLOAD PUSH4 0x23A438FF PUSH1 0xE2 SHL DUP2 MSTORE PUSH1 0x1 PUSH1 0x1 PUSH1 0xA0 SHL SUB DUP4 DUP2 AND PUSH1 0x4 DUP4 ADD MSTORE PUSH1 0x0 SWAP3 DUP4 SWAP3 SWAP2 AND SWAP1 PUSH4 0x8E90E3FC SWAP1 PUSH1 0x24 ADD PUSH1 0x20 PUSH1 0x40 MLOAD DUP1 DUP4 SUB DUP2 DUP7 GAS STATICCALL ISZERO DUP1 ISZERO PUSH2 0xC0A JUMPI RETURNDATASIZE PUSH1 0x0 DUP1 RETURNDATACOPY RETURNDATASIZE PUSH1 0x0 REVERT JUMPDEST POP POP POP POP PUSH1 0x40 MLOAD RETURNDATASIZE PUSH1 0x1F NOT PUSH1 0x1F DUP3 ADD AND DUP3 ADD DUP1 PUSH1 0x40 MSTORE POP DUP2 ADD SWAP1 PUSH2 0xC2E SWAP2 SWAP1 PUSH2 0x111B JUMP JUMPDEST SWAP1 POP PUSH1 0x5 SLOAD DUP2 LT ISZERO PUSH2 0xC43 JUMPI POP PUSH1 0x0 SWAP3 SWAP2 POP POP JUMP JUMPDEST PUSH1 0x3 SLOAD PUSH1 0x0 SWAP1 PUSH2 0xC5B DUP4 PUSH8 0xDE0B6B3A7640000 PUSH2 0x1134 JUMP JUMPDEST PUSH2 0xC65 SWAP2 SWAP1 PUSH2 0x114B JUMP JUMPDEST PUSH1 0x1 PUSH1 0x1 PUSH1 0xA0 SHL SUB DUP6 AND PUSH1 0x0 SWAP1 DUP2 MSTORE PUSH1 0xA PUSH1 0x20 MSTORE PUSH1 0x40 DUP2 KECCAK256 SLOAD SWAP2 SWAP3 POP SWAP1 PUSH2 0xC8F SWAP1 PUSH3 0x15180 PUSH2 0x10AC JUMP JUMPDEST TIMESTAMP LT PUSH2 0xC9E JUMPI POP PUSH1 0x4 SLOAD PUSH2 0xCC7 JUMP JUMPDEST PUSH1 0x1 PUSH1 0x1 PUSH1 0xA0 SHL SUB DUP6 AND PUSH1 0x0 SWAP1 DUP2 MSTORE PUSH1 0x9 PUSH1 0x20 MSTORE PUSH1 0x40 SWAP1 KECCAK256 SLOAD PUSH1 0x4 SLOAD PUSH2 0xCC4 SWAP2 SWAP1 PUSH2 0x1108 JUMP JUMPDEST SWAP1 POP JUMPDEST PUSH1 0x0 DUP2 DUP4 GT PUSH2 0xCD6 JUMPI DUP3 PUSH2 0xCD8 JUMP JUMPDEST DUP2 JUMPDEST SWAP1 POP PUSH1 0x6 SLOAD DUP2 GT PUSH2 0xCE9 JUMPI DUP1 PUSH2 0xCED JUMP JUMPDEST PUSH1 0x6 SLOAD JUMPDEST SWAP7 SWAP6 POP POP POP POP POP POP JUMP JUMPDEST PUSH1 0x1 PUSH1 0x1 PUSH1 0xA0 SHL SUB DUP2 DUP2 AND PUSH1 0x0 DUP2 DUP2 MSTORE PUSH1 0xB PUSH1 0x20 SWAP1 DUP2 MSTORE PUSH1 0x40 DUP1 DUP4 KECCAK256 SLOAD PUSH1 0x9 DUP4 MSTORE DUP2 DUP5 KECCAK256 SLOAD PUSH1 0xA SWAP1 SWAP4 MSTORE DUP2 DUP5 KECCAK256 SLOAD PUSH1 0x2 SLOAD SWAP3 MLOAD PUSH4 0x23A438FF PUSH1 0xE2 SHL DUP2 MSTORE PUSH1 0x4 DUP2 ADD SWAP7 SWAP1 SWAP7 MSTORE SWAP1 SWAP6 SWAP3 SWAP5 SWAP1 SWAP4 SWAP3 SWAP2 SWAP1 SWAP2 AND SWAP1 PUSH4 0x8E90E3FC SWAP1 PUSH1 0x24 ADD PUSH1 0x20 PUSH1 0x40 MLOAD DUP1 DUP4 SUB DUP2 DUP7 GAS STATICCALL ISZERO DUP1 ISZERO PUSH2 0xD6E JUMPI RETURNDATASIZE PUSH1 0x0 DUP1 RETURNDATACOPY RETURNDATASIZE PUSH1 0x0 REVERT JUMPDEST POP POP POP POP PUSH1 0x40 MLOAD RETURNDATASIZE PUSH1 0x1F NOT PUSH1 0x1F DUP3 ADD AND DUP3 ADD DUP1 PUSH1 0x40 MSTORE POP DUP2 ADD SWAP1 PUSH2 0xD92 SWAP2 SWAP1 PUSH2 0x111B JUMP JUMPDEST SWAP1 POP SWAP2 SWAP4 POP SWAP2 SWAP4 JUMP JUMPDEST PUSH2 0xDA3 PUSH2 0xF93 JUMP JUMPDEST PUSH1 0x4 DUP2 SWAP1 SSTORE PUSH1 0x40 DUP1 MLOAD DUP3 DUP2 MSTORE TIMESTAMP PUSH1 0x20 DUP3 ADD MSTORE PUSH32 0x207C4CBDF55EC315A13F0D5E047732EC5D947DA056E706593AA509909941CEDF SWAP2 ADD JUMPDEST PUSH1 0x40 MLOAD DUP1 SWAP2 SUB SWAP1 LOG1 POP JUMP JUMPDEST PUSH2 0xDEC PUSH2 0xF93 JUMP JUMPDEST PUSH1 0x0 DUP2 GT PUSH2 0xE34 JUMPI PUSH1 0x40 MLOAD PUSH3 0x461BCD PUSH1 0xE5 SHL DUP2 MSTORE PUSH1 0x20 PUSH1 0x4 DUP3 ADD MSTORE PUSH1 0x15 PUSH1 0x24 DUP3 ADD MSTORE PUSH21 0x52617465206D75737420626520706F736974697665 PUSH1 0x58 SHL PUSH1 0x44 DUP3 ADD MSTORE PUSH1 0x64 ADD PUSH2 0x7B3 JUMP JUMPDEST PUSH1 0x3 DUP2 SWAP1 SSTORE PUSH1 0x40 DUP1 MLOAD DUP3 DUP2 MSTORE TIMESTAMP PUSH1 0x20 DUP3 ADD MSTORE PUSH32 0xC390A98ACE15A7BB6BAB611EEDFDBB2685043B241A869420043CDFB23CCFEE50 SWAP2 ADD PUSH2 0xDD9 JUMP JUMPDEST PUSH2 0xE76 PUSH2 0xF93 JUMP JUMPDEST SELFBALANCE PUSH1 0x0 PUSH2 0xE8B PUSH1 0x0 SLOAD PUSH1 0x1 PUSH1 0x1 PUSH1 0xA0 SHL SUB AND SWAP1 JUMP JUMPDEST PUSH1 0x1 PUSH1 0x1 PUSH1 0xA0 SHL SUB AND DUP3 PUSH1 0x40 MLOAD PUSH1 0x0 PUSH1 0x40 MLOAD DUP1 DUP4 SUB DUP2 DUP6 DUP8 GAS CALL SWAP3 POP POP POP RETURNDATASIZE DUP1 PUSH1 0x0 DUP2 EQ PUSH2 0xED5 JUMPI PUSH1 0x40 MLOAD SWAP2 POP PUSH1 0x1F NOT PUSH1 0x3F RETURNDATASIZE ADD AND DUP3 ADD PUSH1 0x40 MSTORE RETURNDATASIZE DUP3 MSTORE RETURNDATASIZE PUSH1 0x0 PUSH1 0x20 DUP5 ADD RETURNDATACOPY PUSH2 0xEDA JUMP JUMPDEST PUSH1 0x60 SWAP2 POP JUMPDEST POP POP SWAP1 POP DUP1 PUSH2 0x5A9 JUMPI PUSH1 0x40 MLOAD PUSH3 0x461BCD PUSH1 0xE5 SHL DUP2 MSTORE PUSH1 0x20 PUSH1 0x4 DUP3 ADD MSTORE PUSH1 0xF PUSH1 0x24 DUP3 ADD MSTORE PUSH15 0x151C985B9CD9995C8819985A5B1959 PUSH1 0x8A SHL PUSH1 0x44 DUP3 ADD MSTORE PUSH1 0x64 ADD PUSH2 0x7B3 JUMP JUMPDEST PUSH2 0xF25 PUSH2 0xF93 JUMP JUMPDEST PUSH1 0x1 PUSH1 0x1 PUSH1 0xA0 SHL SUB DUP2 AND PUSH2 0xF8A JUMPI PUSH1 0x40 MLOAD PUSH3 0x461BCD PUSH1 0xE5 SHL DUP2 MSTORE PUSH1 0x20 PUSH1 0x4 DUP3 ADD MSTORE PUSH1 0x26 PUSH1 0x24 DUP3 ADD MSTORE PUSH32 0x4F776E61626C653A206E6577206F776E657220697320746865207A65726F2061 PUSH1 0x44 DUP3 ADD MSTORE PUSH6 0x646472657373 PUSH1 0xD0 SHL PUSH1 0x64 DUP3 ADD MSTORE PUSH1 0x84 ADD PUSH2 0x7B3 JUMP JUMPDEST PUSH2 0xB42 DUP2 PUSH2 0x1046 JUMP JUMPDEST PUSH1 0x0 SLOAD PUSH1 0x1 PUSH1 0x1 PUSH1 0xA0 SHL SUB AND CALLER EQ PUSH2 0xB64 JUMPI PUSH1 0x40 MLOAD PUSH3 0x461BCD PUSH1 0xE5 SHL DUP2 MSTORE PUSH1 0x20 PUSH1 0x4 DUP3 ADD DUP2 SWAP1 MSTORE PUSH1 0x24 DUP3 ADD MSTORE PUSH32 0x4F776E61626C653A2063616C6C6572206973206E6F7420746865206F776E6572 PUSH1 0x44 DUP3 ADD MSTORE PUSH1 0x64 ADD PUSH2 0x7B3 JUMP JUMPDEST PUSH1 0x2 PUSH1 0x1 SLOAD SUB PUSH2 0x103F JUMPI PUSH1 0x40 MLOAD PUSH3 0x461BCD PUSH1 0xE5 SHL DUP2 MSTORE PUSH1 0x20 PUSH1 0x4 DUP3 ADD MSTORE PUSH1 0x1F PUSH1 0x24 DUP3 ADD MSTORE PUSH32 0x5265656E7472616E637947756172643A207265656E7472616E742063616C6C00 PUSH1 0x44 DUP3 ADD MSTORE PUSH1 0x64 ADD PUSH2 0x7B3 JUMP JUMPDEST PUSH1 0x2 PUSH1 0x1 SSTORE JUMP JUMPDEST PUSH1 0x0 DUP1 SLOAD PUSH1 0x1 PUSH1 0x1 PUSH1 0xA0 SHL SUB DUP4 DUP2 AND PUSH1 0x1 PUSH1 0x1 PUSH1 0xA0 SHL SUB NOT DUP4 AND DUP2 OR DUP5 SSTORE PUSH1 0x40 MLOAD SWAP2 SWAP1 SWAP3 AND SWAP3 DUP4 SWAP2 PUSH32 0x8BE0079C531659141344CD1FD0A4F28419497F9722A3DAAFE3B4186F6B6457E0 SWAP2 SWAP1 LOG3 POP POP JUMP JUMPDEST PUSH4 0x4E487B71 PUSH1 0xE0 SHL PUSH1 0x0 MSTORE PUSH1 0x11 PUSH1 0x4 MSTORE PUSH1 0x24 PUSH1 0x0 REVERT JUMPDEST DUP1 DUP3 ADD DUP1 DUP3 GT ISZERO PUSH2 0x757 JUMPI PUSH2 0x757 PUSH2 0x1096 JUMP JUMPDEST PUSH1 0x0 PUSH1 0x20 DUP3 DUP5 SUB SLT ISZERO PUSH2 0x10D1 JUMPI PUSH1 0x0 DUP1 REVERT JUMPDEST DUP2 CALLDATALOAD PUSH1 0x1 PUSH1 0x1 PUSH1 0xA0 SHL SUB DUP2 AND DUP2 EQ PUSH2 0x10E8 JUMPI PUSH1 0x0 DUP1 REVERT JUMPDEST SWAP4 SWAP3 POP POP POP JUMP JUMPDEST PUSH1 0x0 PUSH1 0x20 DUP3 DUP5 SUB SLT ISZERO PUSH2 0x1101 JUMPI PUSH1 0x0 DUP1 REVERT JUMPDEST POP CALLDATALOAD SWAP2 SWAP1 POP JUMP JUMPDEST DUP2 DUP2 SUB DUP2 DUP2 GT ISZERO PUSH2 0x757 JUMPI PUSH2 0x757 PUSH2 0x1096 JUMP JUMPDEST PUSH1 0x0 PUSH1 0x20 DUP3 DUP5 SUB SLT ISZERO PUSH2 0x112D JUMPI PUSH1 0x0 DUP1 REVERT JUMPDEST POP MLOAD SWAP2 SWAP1 POP JUMP JUMPDEST DUP1 DUP3 MUL DUP2 ISZERO DUP3 DUP3 DIV DUP5 EQ OR PUSH2 0x757 JUMPI PUSH2 0x757 PUSH2 0x1096 JUMP JUMPDEST PUSH1 0x0 DUP3 PUSH2 0x1168 JUMPI PUSH4 0x4E487B71 PUSH1 0xE0 SHL PUSH1 0x0 MSTORE PUSH1 0x12 PUSH1 0x4 MSTORE PUSH1 0x24 PUSH1 0x0 REVERT JUMPDEST POP DIV SWAP1 JUMP INVALID LOG2 PUSH5 0x6970667358 0x22 SLT KECCAK256 PUSH6 0x9DE167E09C32 0xE0 SHL PUSH7 0xD846B8477014EE EQ 0xAE 0x49 0xD0 EXP JUMPI PUSH1 0xB3 PUSH18 0xFB8872635DD364736F6C6343000813003300 "},"methodIdentifiers":{"creditsContract()":"0642bc41","dailyRewardLimit()":"91aa50aa","dailyRewardsClaimed(address)":"dda82b1f","emergencyWithdraw()":"db2e21bc","exchangeStardustForCFX(uint256)":"2f2ca335","fundRewardPool()":"20828339","getContractStats()":"dfe6b5d6","getExchangeInfo(address)":"1bb828e3","getMaxClaimable(address)":"9fc4622f","getPlayerRewardStats(address)":"adb90e3d","getTimeUntilReset(address)":"2da0a908","lastClaimDate(address)":"6052ccb0","minimumStardust()":"97ec913c","owner()":"8da5cb5b","renounceOwnership()":"715018a6","rewardPool()":"66666aa9","rewardPoolFeePercent()":"534675a1","setDailyLimit(uint256)":"b20d30a9","setExchangeRate(uint256)":"db068e0e","setMinimumStardust(uint256)":"367faa5b","setRewardPoolFeePercent(uint256)":"882dad4a","stardustToCFXRate()":"11bbf03c","syncRewardPool()":"15b4fd5b","totalRewardsClaimed(address)":"f6ce9004","totalRewardsDistributed()":"ee172546","transferOwnership(address)":"f2fde38b"}}}}}