{"contracts/GameStateManager.sol":{"GameStateManager":{"abi":[{"inputs":[{"internalType":"address payable","name":"_creditsContract","type":"address"}],"stateMutability":"nonpayable","type":"constructor"},{"anonymous":false,"inputs":[{"indexed":true,"internalType":"address","name":"player","type":"address"},{"indexed":false,"internalType":"uint256","name":"stardust","type":"uint256"},{"indexed":false,"internalType":"uint256","name":"stardustPerSecond","type":"uint256"},{"indexed":false,"internalType":"uint256","name":"timestamp","type":"uint256"}],"name":"GameStateSaved","type":"event"},{"anonymous":false,"inputs":[{"indexed":true,"internalType":"address","name":"previousOwner","type":"address"},{"indexed":true,"internalType":"address","name":"newOwner","type":"address"}],"name":"OwnershipTransferred","type":"event"},{"anonymous":false,"inputs":[{"indexed":true,"internalType":"address","name":"player","type":"address"},{"indexed":false,"internalType":"uint256","name":"timestamp","type":"uint256"}],"name":"PlayerRegistered","type":"event"},{"anonymous":false,"inputs":[{"indexed":true,"internalType":"address","name":"player","type":"address"},{"indexed":false,"internalType":"uint256","name":"level","type":"uint256"},{"indexed":false,"internalType":"uint256","name":"timestamp","type":"uint256"}],"name":"PrestigeActivated","type":"event"},{"anonymous":false,"inputs":[{"indexed":true,"internalType":"address","name":"player","type":"address"},{"indexed":false,"internalType":"string","name":"upgradeId","type":"string"},{"indexed":false,"internalType":"uint256","name":"level","type":"uint256"},{"indexed":false,"internalType":"uint256","name":"cost","type":"uint256"},{"indexed":false,"internalType":"string","name":"costType","type":"string"},{"indexed":false,"internalType":"uint256","name":"timestamp","type":"uint256"}],"name":"UpgradePurchased","type":"event"},{"inputs":[],"name":"activatePrestige","outputs":[],"stateMutability":"nonpayable","type":"function"},{"inputs":[{"internalType":"string","name":"upgradeId","type":"string"},{"internalType":"string","name":"name","type":"string"},{"internalType":"uint256","name":"baseCost","type":"uint256"},{"internalType":"uint256","name":"costMultiplier","type":"uint256"},{"internalType":"uint256","name":"stardustPerClick","type":"uint256"},{"internalType":"uint256","name":"stardustPerSecond","type":"uint256"},{"internalType":"string","name":"costType","type":"string"}],"name":"addUpgrade","outputs":[],"stateMutability":"nonpayable","type":"function"},{"inputs":[],"name":"creditsContract","outputs":[{"internalType":"contract StarMinerCredits","name":"","type":"address"}],"stateMutability":"view","type":"function"},{"inputs":[{"internalType":"address","name":"player","type":"address"}],"name":"getPlayerState","outputs":[{"components":[{"internalType":"uint256","name":"stardust","type":"uint256"},{"internalType":"uint256","name":"stardustPerSecond","type":"uint256"},{"internalType":"uint256","name":"totalClicks","type":"uint256"},{"internalType":"uint256","name":"lastUpdateTime","type":"uint256"},{"internalType":"uint256","name":"prestigeLevel","type":"uint256"},{"internalType":"bool","name":"isActive","type":"bool"}],"internalType":"struct GameStateManager.PlayerState","name":"state","type":"tuple"},{"internalType":"uint256","name":"idleRewards","type":"uint256"}],"stateMutability":"view","type":"function"},{"inputs":[{"internalType":"string","name":"upgradeId","type":"string"},{"internalType":"address","name":"player","type":"address"}],"name":"getUpgradeCost","outputs":[{"internalType":"uint256","name":"","type":"uint256"}],"stateMutability":"view","type":"function"},{"inputs":[],"name":"owner","outputs":[{"internalType":"address","name":"","type":"address"}],"stateMutability":"view","type":"function"},{"inputs":[{"internalType":"address","name":"","type":"address"}],"name":"playerStates","outputs":[{"internalType":"uint256","name":"stardust","type":"uint256"},{"internalType":"uint256","name":"stardustPerSecond","type":"uint256"},{"internalType":"uint256","name":"totalClicks","type":"uint256"},{"internalType":"uint256","name":"lastUpdateTime","type":"uint256"},{"internalType":"uint256","name":"prestigeLevel","type":"uint256"},{"internalType":"bool","name":"isActive","type":"bool"}],"stateMutability":"view","type":"function"},{"inputs":[{"internalType":"address","name":"","type":"address"},{"internalType":"string","name":"","type":"string"}],"name":"playerUpgrades","outputs":[{"internalType":"uint256","name":"","type":"uint256"}],"stateMutability":"view","type":"function"},{"inputs":[{"internalType":"string","name":"upgradeId","type":"string"}],"name":"purchaseUpgrade","outputs":[],"stateMutability":"nonpayable","type":"function"},{"inputs":[],"name":"registerPlayer","outputs":[],"stateMutability":"nonpayable","type":"function"},{"inputs":[],"name":"renounceOwnership","outputs":[],"stateMutability":"nonpayable","type":"function"},{"inputs":[{"internalType":"uint256","name":"stardust","type":"uint256"},{"internalType":"uint256","name":"totalClicks","type":"uint256"}],"name":"saveGameState","outputs":[],"stateMutability":"nonpayable","type":"function"},{"inputs":[{"internalType":"string","name":"upgradeId","type":"string"}],"name":"toggleUpgrade","outputs":[],"stateMutability":"nonpayable","type":"function"},{"inputs":[{"internalType":"address","name":"","type":"address"}],"name":"totalCreditsSpent","outputs":[{"internalType":"uint256","name":"","type":"uint256"}],"stateMutability":"view","type":"function"},{"inputs":[],"name":"totalPlayers","outputs":[{"internalType":"uint256","name":"","type":"uint256"}],"stateMutability":"view","type":"function"},{"inputs":[{"internalType":"address","name":"","type":"address"}],"name":"totalStardustEarned","outputs":[{"internalType":"uint256","name":"","type":"uint256"}],"stateMutability":"view","type":"function"},{"inputs":[],"name":"totalStardustGenerated","outputs":[{"internalType":"uint256","name":"","type":"uint256"}],"stateMutability":"view","type":"function"},{"inputs":[{"internalType":"address","name":"newOwner","type":"address"}],"name":"transferOwnership","outputs":[],"stateMutability":"nonpayable","type":"function"},{"inputs":[{"internalType":"string","name":"","type":"string"}],"name":"upgradeConfigs","outputs":[{"internalType":"string","name":"name","type":"string"},{"internalType":"uint256","name":"baseCost","type":"uint256"},{"internalType":"uint256","name":"costMultiplier","type":"uint256"},{"internalType":"uint256","name":"stardustPerClick","type":"uint256"},{"internalType":"uint256","name":"stardustPerSecond","type":"uint256"},{"internalType":"string","name":"costType","type":"string"},{"internalType":"bool","name":"isActive","type":"bool"}],"stateMutability":"view","type":"function"}],"evm":{"bytecode":{"linkReferences":{},"object":"60806040523480156200001157600080fd5b5060405162002216380380620022168339810160408190526200003491620005f3565b6200003f336200006f565b60018055600280546001600160a01b0319166001600160a01b03831617905562000068620000bf565b5062000796565b600080546001600160a01b038381166001600160a01b0319831681178455604051919092169283917f8be0079c531659141344cd1fd0a4f28419497f9722a3daafe3b4186f6b6457e09190a35050565b6040518060e001604052806040518060400160405280600981526020016854656c6573636f706560b81b8152508152602001600a815260200161047e81526020016001815260200160008152602001604051806040016040528060088152602001671cdd185c991d5cdd60c21b81525081526020016001151581525060056040516200015a906874656c6573636f706560b81b815260090190565b90815260405190819003602001902081518190620001799082620006ca565b506020820151600182015560408201516002820155606082015160038201556080820151600482015560a08201516005820190620001b89082620006ca565b5060c091820151600691909101805460ff19169115159190911790556040805161012081018252600960e0820181815268536174656c6c69746560b81b6101008401528252606460208084019190915261047e838501526005606084018190526001608085018190528551808701875260088152671cdd185c991d5cdd60c21b9381019390935260a085019290925294830152915168736174656c6c69746560b81b815290929101908152604051908190036020019020815181906200027f9082620006ca565b506020820151600182015560408201516002820155606082015160038201556080820151600482015560a08201516005820190620002be9082620006ca565b5060c091820151600691909101805460ff19169115159190911790556040805161012081018252600b60e082018181526a4f627365727661746f727960a81b61010084015282526103e860208084019190915261047e83850152600a60608401526005608084018190528451808601865260088152671cdd185c991d5cdd60c21b9281019290925260a084019190915260019483019490945291516a6f627365727661746f727960a81b815290929101908152604051908190036020019020815181906200038d9082620006ca565b506020820151600182015560408201516002820155606082015160038201556080820151600482015560a08201516005820190620003cc9082620006ca565b5060c091820151600691909101805460ff19169115159190911790556040805161012081018252600860e0820181815267053746172736869760c41b6101008401528252600a6020808401919091526104b08385015260326060840152601960808401528351808501855260078152666372656469747360c81b9181019190915260a0830152600193820193909352905167073746172736869760c41b815290916005910190815260405190819003602001902081518190620004909082620006ca565b506020820151600182015560408201516002820155606082015160038201556080820151600482015560a08201516005820190620004cf9082620006ca565b5060c091820151600691909101805460ff19169115159190911790556040805161012081018252600a60e0820190815269426c61636b20486f6c6560b01b610100830152815260646020808301919091526104e2828401526101f4606083015260fa60808301528251808401845260078152666372656469747360c81b9181019190915260a08201526001928101929092525168626c61636b686f6c6560b81b815260059060090190815260405190819003602001902081518190620005969082620006ca565b506020820151600182015560408201516002820155606082015160038201556080820151600482015560a08201516005820190620005d59082620006ca565b5060c091909101516006909101805460ff1916911515919091179055565b6000602082840312156200060657600080fd5b81516001600160a01b03811681146200061e57600080fd5b9392505050565b634e487b7160e01b600052604160045260246000fd5b600181811c908216806200065057607f821691505b6020821081036200067157634e487b7160e01b600052602260045260246000fd5b50919050565b601f821115620006c557600081815260208120601f850160051c81016020861015620006a05750805b601f850160051c820191505b81811015620006c157828155600101620006ac565b5050505b505050565b81516001600160401b03811115620006e657620006e662000625565b620006fe81620006f784546200063b565b8462000677565b602080601f8311600181146200073657600084156200071d5750858301515b600019600386901b1c1916600185901b178555620006c1565b600085815260208120601f198616915b82811015620007675788860151825594840194600190910190840162000746565b5085821015620007865787850151600019600388901b60f8161c191681555b5050505050600190811b01905550565b611a7080620007a66000396000f3fe608060405234801561001057600080fd5b50600436106101215760003560e01c80638da5cb5b116100ad578063e3dbf6a611610071578063e3dbf6a61461031e578063f2fde38b1461033e578063f398467b14610351578063f60cdcf614610371578063f737e8181461037a57600080fd5b80638da5cb5b146101e2578063a0bbc59e146101f3578063aad135d41461023d578063c01ca43f14610246578063d15e55b7146102a657600080fd5b806348113d40116100f457806348113d40146101865780634a4a541e146101995780635c07a4b0146101ac57806366243339146101b4578063715018a6146101da57600080fd5b80630642bc4114610126578063252d91971461015657806326f3fde01461016b578063473ec38d14610173575b600080fd5b600254610139906001600160a01b031681565b6040516001600160a01b0390911681526020015b60405180910390f35b6101696101643660046114ac565b61038d565b005b610169610547565b610169610181366004611571565b610740565b610169610194366004611571565b610cb4565b6101696101a73660046115ae565b610d18565b610169610de5565b6101c76101c2366004611571565b610ec0565b60405161014d97969594939291906116ad565b610169611018565b6000546001600160a01b0316610139565b61022f61020136600461171d565b6004602090815260009283526040909220815180830184018051928152908401929093019190912091525481565b60405190815260200161014d565b61022f60095481565b61025961025436600461176b565b61102a565b6040805183518152602080850151908201528382015191810191909152606080840151908201526080808401519082015260a09283015115159281019290925260c082015260e00161014d565b6102ef6102b436600461176b565b600360208190526000918252604090912080546001820154600283015493830154600484015460059094015492949193919290919060ff1686565b6040805196875260208701959095529385019290925260608401526080830152151560a082015260c00161014d565b61022f61032c36600461176b565b60066020526000908152604090205481565b61016961034c36600461176b565b6110fd565b61022f61035f36600461176b565b60076020526000908152604090205481565b61022f60085481565b61022f610388366004611786565b611173565b610395611356565b3360009081526003602052604090206005015460ff166103f45760405162461bcd60e51b8152602060048201526015602482015274141b185e595c881b9bdd081c9959da5cdd195c9959605a1b60448201526064015b60405180910390fd5b33600090815260036020819052604082209081015490919061041690426117ea565b9050600081836001015461042a91906117fd565b90506104368186611814565b8355600283018490554260038401553360009081526006602052604081208054839290610464908490611814565b92505081905550806009600082825461047d9190611814565b909155505080156104ed5760025460405163593ee7fd60e11b8152336004820152602481018390526001600160a01b039091169063b27dcffa90604401600060405180830381600087803b1580156104d457600080fd5b505af11580156104e8573d6000803e3d6000fd5b505050505b82546001840154604080519283526020830191909152429082015233907fde2575b1517540b677c794a3cde57fed7f46fe9beaca3bb86154c43ae41bc6a19060600160405180910390a250505061054360018055565b5050565b33600090815260036020526040902054620f424011156105a95760405162461bcd60e51b815260206004820152601d60248201527f4e65656420314d20737461726475737420666f7220707265737469676500000060448201526064016103eb565b33600090815260036020526040812060048101805491926105c983611827565b90915550506000815560048101546105e2906001611814565b60018201556040805160e081018252600960a082018181526874656c6573636f706560b81b60c084015282528251808401845281815268736174656c6c69746560b81b6020828101919091528084019190915283518085018552600b81526a6f627365727661746f727960a81b8183015283850152835180850185526008815267073746172736869760c41b818301526060840152835180850190945290835268626c61636b686f6c6560b81b90830152608081019190915260005b60058110156106fc573360009081526004602052604081208383600581106106c8576106c8611840565b60200201516040516106da9190611856565b90815260405190819003602001902055806106f481611827565b91505061069e565b5060048201546040805191825242602083015233917fa1076bf9c07228ae15797fa473a75367dc398ad6427938bdf107a8df563e6a80910160405180910390a25050565b610748611356565b3360009081526003602052604090206005015460ff166107a25760405162461bcd60e51b8152602060048201526015602482015274141b185e595c881b9bdd081c9959da5cdd195c9959605a1b60448201526064016103eb565b6005816040516107b29190611856565b9081526040519081900360200190206006015460ff1661080c5760405162461bcd60e51b815260206004820152601560248201527455706772616465206e6f7420617661696c61626c6560581b60448201526064016103eb565b600060058260405161081e9190611856565b90815260200160405180910390206040518060e001604052908160008201805461084790611872565b80601f016020809104026020016040519081016040528092919081815260200182805461087390611872565b80156108c05780601f10610895576101008083540402835291602001916108c0565b820191906000526020600020905b8154815290600101906020018083116108a357829003601f168201915b505050505081526020016001820154815260200160028201548152602001600382015481526020016004820154815260200160058201805461090190611872565b80601f016020809104026020016040519081016040528092919081815260200182805461092d90611872565b801561097a5780601f1061094f5761010080835404028352916020019161097a565b820191906000526020600020905b81548152906001019060200180831161095d57829003601f168201915b50505091835250506006919091015460ff16151560209182015233600090815260049091526040808220905192935090916109b6908590611856565b908152602001604051809103902054905060006109dc83602001518460400151846113af565b6040805180820190915260088152671cdd185c991d5cdd60c21b60209182015260a085015180519101209091507f81e3a722c3e4e8f9d9ced5c3a0b6f6a1a13d9410313441a99c6901226d8b071201610ab05733600090815260036020526040902054811115610a865760405162461bcd60e51b8152602060048201526015602482015274125b9cdd59999a58da595b9d081cdd185c991d5cdd605a1b60448201526064016103eb565b3360009081526003602052604081208054839290610aa59084906117ea565b90915550610beb9050565b6002546040516370a0823160e01b815233600482015282916001600160a01b0316906370a0823190602401602060405180830381865afa158015610af8573d6000803e3d6000fd5b505050506040513d601f19601f82011682018060405250810190610b1c91906118ac565b1015610b615760405162461bcd60e51b8152602060048201526014602482015273496e73756666696369656e74206372656469747360601b60448201526064016103eb565b6002546040516310c4b38760e11b8152336004820152602481018390526001600160a01b0390911690632189670e90604401600060405180830381600087803b158015610bad57600080fd5b505af1158015610bc1573d6000803e3d6000fd5b50503360009081526007602052604081208054859450909250610be5908490611814565b90915550505b33600090815260046020526040908190209051610c09908690611856565b9081526040519081900360200190208054906000610c2683611827565b909155505060808301513360009081526003602052604081206001018054909190610c52908490611814565b909155503390507f1fd4664d767f39fd6223439ed2145312055fbe43d159a8cec2d0d8c975c9c63785610c86856001611814565b60a0870151604051610c9d939291879142906118c5565b60405180910390a2505050610cb160018055565b50565b610cbc611402565b600581604051610ccc9190611856565b9081526040519081900360200181206006015460ff161590600590610cf2908490611856565b908152604051908190036020019020600601805491151560ff1990921691909117905550565b610d20611402565b6040518060e0016040528087815260200186815260200185815260200184815260200183815260200182815260200160011515815250600588604051610d669190611856565b90815260405190819003602001902081518190610d839082611958565b506020820151600182015560408201516002820155606082015160038201556080820151600482015560a08201516005820190610dc09082611958565b5060c091909101516006909101805460ff191691151591909117905550505050505050565b3360009081526003602052604090206005015460ff16610ebe576040805160c08101825260008082526001602080840182815284860184815242606087019081526080870186815260a088018681523388526003958690529887209751885592519487019490945551600286015591519084015551600483015591516005909101805460ff19169115159190911790556008805491610e8383611827565b909155505060405142815233907f324cb0062138d65997c86cd3012489ceb351d602f2f55c7408306e8040c79f3f9060200160405180910390a25b565b8051602081830181018051600582529282019190930120915280548190610ee690611872565b80601f0160208091040260200160405190810160405280929190818152602001828054610f1290611872565b8015610f5f5780601f10610f3457610100808354040283529160200191610f5f565b820191906000526020600020905b815481529060010190602001808311610f4257829003601f168201915b505050505090806001015490806002015490806003015490806004015490806005018054610f8c90611872565b80601f0160208091040260200160405190810160405280929190818152602001828054610fb890611872565b80156110055780601f10610fda57610100808354040283529160200191611005565b820191906000526020600020905b815481529060010190602001808311610fe857829003601f168201915b5050506006909301549192505060ff1687565b611020611402565b610ebe600061145c565b6110656040518060c0016040528060008152602001600081526020016000815260200160008152602001600081526020016000151581525090565b506001600160a01b0381166000908152600360208181526040808420815160c081018352815481526001820154938101939093526002810154918301919091529182015460608201526004820154608082015260059091015460ff1615801560a08301529091906110f85760008260600151426110e291906117ea565b90508083602001516110f491906117fd565b9150505b915091565b611105611402565b6001600160a01b03811661116a5760405162461bcd60e51b815260206004820152602660248201527f4f776e61626c653a206e6577206f776e657220697320746865207a65726f206160448201526564647265737360d01b60648201526084016103eb565b610cb18161145c565b6000806005846040516111869190611856565b90815260200160405180910390206040518060e00160405290816000820180546111af90611872565b80601f01602080910402602001604051908101604052809291908181526020018280546111db90611872565b80156112285780601f106111fd57610100808354040283529160200191611228565b820191906000526020600020905b81548152906001019060200180831161120b57829003601f168201915b505050505081526020016001820154815260200160028201548152602001600382015481526020016004820154815260200160058201805461126990611872565b80601f016020809104026020016040519081016040528092919081815260200182805461129590611872565b80156112e25780601f106112b7576101008083540402835291602001916112e2565b820191906000526020600020905b8154815290600101906020018083116112c557829003601f168201915b50505091835250506006919091015460ff1615156020918201526001600160a01b03851660009081526004909152604080822090519293509091611327908790611856565b908152602001604051809103902054905061134b82602001518360400151836113af565b925050505b92915050565b6002600154036113a85760405162461bcd60e51b815260206004820152601f60248201527f5265656e7472616e637947756172643a207265656e7472616e742063616c6c0060448201526064016103eb565b6002600155565b6000816000036113c05750826113fb565b8360005b838110156113f7576103e86113d986846117fd565b6113e39190611a18565b9150806113ef81611827565b9150506113c4565b5090505b9392505050565b6000546001600160a01b03163314610ebe5760405162461bcd60e51b815260206004820181905260248201527f4f776e61626c653a2063616c6c6572206973206e6f7420746865206f776e657260448201526064016103eb565b600080546001600160a01b038381166001600160a01b0319831681178455604051919092169283917f8be0079c531659141344cd1fd0a4f28419497f9722a3daafe3b4186f6b6457e09190a35050565b600080604083850312156114bf57600080fd5b50508035926020909101359150565b634e487b7160e01b600052604160045260246000fd5b600082601f8301126114f557600080fd5b813567ffffffffffffffff80821115611510576115106114ce565b604051601f8301601f19908116603f01168101908282118183101715611538576115386114ce565b8160405283815286602085880101111561155157600080fd5b836020870160208301376000602085830101528094505050505092915050565b60006020828403121561158357600080fd5b813567ffffffffffffffff81111561159a57600080fd5b6115a6848285016114e4565b949350505050565b600080600080600080600060e0888a0312156115c957600080fd5b873567ffffffffffffffff808211156115e157600080fd5b6115ed8b838c016114e4565b985060208a013591508082111561160357600080fd5b61160f8b838c016114e4565b975060408a0135965060608a0135955060808a0135945060a08a0135935060c08a013591508082111561164157600080fd5b5061164e8a828b016114e4565b91505092959891949750929550565b60005b83811015611678578181015183820152602001611660565b50506000910152565b6000815180845261169981602086016020860161165d565b601f01601f19169290920160200192915050565b60e0815260006116c060e083018a611681565b88602084015287604084015286606084015285608084015282810360a08401526116ea8186611681565b91505082151560c083015298975050505050505050565b80356001600160a01b038116811461171857600080fd5b919050565b6000806040838503121561173057600080fd5b61173983611701565b9150602083013567ffffffffffffffff81111561175557600080fd5b611761858286016114e4565b9150509250929050565b60006020828403121561177d57600080fd5b6113fb82611701565b6000806040838503121561179957600080fd5b823567ffffffffffffffff8111156117b057600080fd5b6117bc858286016114e4565b9250506117cb60208401611701565b90509250929050565b634e487b7160e01b600052601160045260246000fd5b81810381811115611350576113506117d4565b8082028115828204841417611350576113506117d4565b80820180821115611350576113506117d4565b600060018201611839576118396117d4565b5060010190565b634e487b7160e01b600052603260045260246000fd5b6000825161186881846020870161165d565b9190910192915050565b600181811c9082168061188657607f821691505b6020821081036118a657634e487b7160e01b600052602260045260246000fd5b50919050565b6000602082840312156118be57600080fd5b5051919050565b60a0815260006118d860a0830188611681565b86602084015285604084015282810360608401526118f68186611681565b9150508260808301529695505050505050565b601f82111561195357600081815260208120601f850160051c810160208610156119305750805b601f850160051c820191505b8181101561194f5782815560010161193c565b5050505b505050565b815167ffffffffffffffff811115611972576119726114ce565b611986816119808454611872565b84611909565b602080601f8311600181146119bb57600084156119a35750858301515b600019600386901b1c1916600185901b17855561194f565b600085815260208120601f198616915b828110156119ea578886015182559484019460019091019084016119cb565b5085821015611a085787850151600019600388901b60f8161c191681555b5050505050600190811b01905550565b600082611a3557634e487b7160e01b600052601260045260246000fd5b50049056fea2646970667358221220695e9c176b4c68b0d787d790a251b6d3e38c8f4f69d47de269d30575411493c864736f6c63430008130033","opcodes":"PUSH1 0x80 PUSH1 0x40 MSTORE CALLVALUE DUP1 ISZERO PUSH3 0x11 JUMPI PUSH1 0x0 DUP1 REVERT JUMPDEST POP PUSH1 0x40 MLOAD PUSH3 0x2216 CODESIZE SUB DUP1 PUSH3 0x2216 DUP4 CODECOPY DUP2 ADD PUSH1 0x40 DUP2 SWAP1 MSTORE PUSH3 0x34 SWAP2 PUSH3 0x5F3 JUMP JUMPDEST PUSH3 0x3F CALLER PUSH3 0x6F JUMP JUMPDEST PUSH1 0x1 DUP1 SSTORE PUSH1 0x2 DUP1 SLOAD PUSH1 0x1 PUSH1 0x1 PUSH1 0xA0 SHL SUB NOT AND PUSH1 0x1 PUSH1 0x1 PUSH1 0xA0 SHL SUB DUP4 AND OR SWAP1 SSTORE PUSH3 0x68 PUSH3 0xBF JUMP JUMPDEST POP PUSH3 0x796 JUMP JUMPDEST PUSH1 0x0 DUP1 SLOAD PUSH1 0x1 PUSH1 0x1 PUSH1 0xA0 SHL SUB DUP4 DUP2 AND PUSH1 0x1 PUSH1 0x1 PUSH1 0xA0 SHL SUB NOT DUP4 AND DUP2 OR DUP5 SSTORE PUSH1 0x40 MLOAD SWAP2 SWAP1 SWAP3 AND SWAP3 DUP4 SWAP2 PUSH32 0x8BE0079C531659141344CD1FD0A4F28419497F9722A3DAAFE3B4186F6B6457E0 SWAP2 SWAP1 LOG3 POP POP JUMP JUMPDEST PUSH1 0x40 MLOAD DUP1 PUSH1 0xE0 ADD PUSH1 0x40 MSTORE DUP1 PUSH1 0x40 MLOAD DUP1 PUSH1 0x40 ADD PUSH1 0x40 MSTORE DUP1 PUSH1 0x9 DUP2 MSTORE PUSH1 0x20 ADD PUSH9 0x54656C6573636F7065 PUSH1 0xB8 SHL DUP2 MSTORE POP DUP2 MSTORE PUSH1 0x20 ADD PUSH1 0xA DUP2 MSTORE PUSH1 0x20 ADD PUSH2 0x47E DUP2 MSTORE PUSH1 0x20 ADD PUSH1 0x1 DUP2 MSTORE PUSH1 0x20 ADD PUSH1 0x0 DUP2 MSTORE PUSH1 0x20 ADD PUSH1 0x40 MLOAD DUP1 PUSH1 0x40 ADD PUSH1 0x40 MSTORE DUP1 PUSH1 0x8 DUP2 MSTORE PUSH1 0x20 ADD PUSH8 0x1CDD185C991D5CDD PUSH1 0xC2 SHL DUP2 MSTORE POP DUP2 MSTORE PUSH1 0x20 ADD PUSH1 0x1 ISZERO ISZERO DUP2 MSTORE POP PUSH1 0x5 PUSH1 0x40 MLOAD PUSH3 0x15A SWAP1 PUSH9 0x74656C6573636F7065 PUSH1 0xB8 SHL DUP2 MSTORE PUSH1 0x9 ADD SWAP1 JUMP JUMPDEST SWAP1 DUP2 MSTORE PUSH1 0x40 MLOAD SWAP1 DUP2 SWAP1 SUB PUSH1 0x20 ADD SWAP1 KECCAK256 DUP2 MLOAD DUP2 SWAP1 PUSH3 0x179 SWAP1 DUP3 PUSH3 0x6CA JUMP JUMPDEST POP PUSH1 0x20 DUP3 ADD MLOAD PUSH1 0x1 DUP3 ADD SSTORE PUSH1 0x40 DUP3 ADD MLOAD PUSH1 0x2 DUP3 ADD SSTORE PUSH1 0x60 DUP3 ADD MLOAD PUSH1 0x3 DUP3 ADD SSTORE PUSH1 0x80 DUP3 ADD MLOAD PUSH1 0x4 DUP3 ADD SSTORE PUSH1 0xA0 DUP3 ADD MLOAD PUSH1 0x5 DUP3 ADD SWAP1 PUSH3 0x1B8 SWAP1 DUP3 PUSH3 0x6CA JUMP JUMPDEST POP PUSH1 0xC0 SWAP2 DUP3 ADD MLOAD PUSH1 0x6 SWAP2 SWAP1 SWAP2 ADD DUP1 SLOAD PUSH1 0xFF NOT AND SWAP2 ISZERO ISZERO SWAP2 SWAP1 SWAP2 OR SWAP1 SSTORE PUSH1 0x40 DUP1 MLOAD PUSH2 0x120 DUP2 ADD DUP3 MSTORE PUSH1 0x9 PUSH1 0xE0 DUP3 ADD DUP2 DUP2 MSTORE PUSH9 0x536174656C6C697465 PUSH1 0xB8 SHL PUSH2 0x100 DUP5 ADD MSTORE DUP3 MSTORE PUSH1 0x64 PUSH1 0x20 DUP1 DUP5 ADD SWAP2 SWAP1 SWAP2 MSTORE PUSH2 0x47E DUP4 DUP6 ADD MSTORE PUSH1 0x5 PUSH1 0x60 DUP5 ADD DUP2 SWAP1 MSTORE PUSH1 0x1 PUSH1 0x80 DUP6 ADD DUP2 SWAP1 MSTORE DUP6 MLOAD DUP1 DUP8 ADD DUP8 MSTORE PUSH1 0x8 DUP2 MSTORE PUSH8 0x1CDD185C991D5CDD PUSH1 0xC2 SHL SWAP4 DUP2 ADD SWAP4 SWAP1 SWAP4 MSTORE PUSH1 0xA0 DUP6 ADD SWAP3 SWAP1 SWAP3 MSTORE SWAP5 DUP4 ADD MSTORE SWAP2 MLOAD PUSH9 0x736174656C6C697465 PUSH1 0xB8 SHL DUP2 MSTORE SWAP1 SWAP3 SWAP2 ADD SWAP1 DUP2 MSTORE PUSH1 0x40 MLOAD SWAP1 DUP2 SWAP1 SUB PUSH1 0x20 ADD SWAP1 KECCAK256 DUP2 MLOAD DUP2 SWAP1 PUSH3 0x27F SWAP1 DUP3 PUSH3 0x6CA JUMP JUMPDEST POP PUSH1 0x20 DUP3 ADD MLOAD PUSH1 0x1 DUP3 ADD SSTORE PUSH1 0x40 DUP3 ADD MLOAD PUSH1 0x2 DUP3 ADD SSTORE PUSH1 0x60 DUP3 ADD MLOAD PUSH1 0x3 DUP3 ADD SSTORE PUSH1 0x80 DUP3 ADD MLOAD PUSH1 0x4 DUP3 ADD SSTORE PUSH1 0xA0 DUP3 ADD MLOAD PUSH1 0x5 DUP3 ADD SWAP1 PUSH3 0x2BE SWAP1 DUP3 PUSH3 0x6CA JUMP JUMPDEST POP PUSH1 0xC0 SWAP2 DUP3 ADD MLOAD PUSH1 0x6 SWAP2 SWAP1 SWAP2 ADD DUP1 SLOAD PUSH1 0xFF NOT AND SWAP2 ISZERO ISZERO SWAP2 SWAP1 SWAP2 OR SWAP1 SSTORE PUSH1 0x40 DUP1 MLOAD PUSH2 0x120 DUP2 ADD DUP3 MSTORE PUSH1 0xB PUSH1 0xE0 DUP3 ADD DUP2 DUP2 MSTORE PUSH11 0x4F627365727661746F7279 PUSH1 0xA8 SHL PUSH2 0x100 DUP5 ADD MSTORE DUP3 MSTORE PUSH2 0x3E8 PUSH1 0x20 DUP1 DUP5 ADD SWAP2 SWAP1 SWAP2 MSTORE PUSH2 0x47E DUP4 DUP6 ADD MSTORE PUSH1 0xA PUSH1 0x60 DUP5 ADD MSTORE PUSH1 0x5 PUSH1 0x80 DUP5 ADD DUP2 SWAP1 MSTORE DUP5 MLOAD DUP1 DUP7 ADD DUP7 MSTORE PUSH1 0x8 DUP2 MSTORE PUSH8 0x1CDD185C991D5CDD PUSH1 0xC2 SHL SWAP3 DUP2 ADD SWAP3 SWAP1 SWAP3 MSTORE PUSH1 0xA0 DUP5 ADD SWAP2 SWAP1 SWAP2 MSTORE PUSH1 0x1 SWAP5 DUP4 ADD SWAP5 SWAP1 SWAP5 MSTORE SWAP2 MLOAD PUSH11 0x6F627365727661746F7279 PUSH1 0xA8 SHL DUP2 MSTORE SWAP1 SWAP3 SWAP2 ADD SWAP1 DUP2 MSTORE PUSH1 0x40 MLOAD SWAP1 DUP2 SWAP1 SUB PUSH1 0x20 ADD SWAP1 KECCAK256 DUP2 MLOAD DUP2 SWAP1 PUSH3 0x38D SWAP1 DUP3 PUSH3 0x6CA JUMP JUMPDEST POP PUSH1 0x20 DUP3 ADD MLOAD PUSH1 0x1 DUP3 ADD SSTORE PUSH1 0x40 DUP3 ADD MLOAD PUSH1 0x2 DUP3 ADD SSTORE PUSH1 0x60 DUP3 ADD MLOAD PUSH1 0x3 DUP3 ADD SSTORE PUSH1 0x80 DUP3 ADD MLOAD PUSH1 0x4 DUP3 ADD SSTORE PUSH1 0xA0 DUP3 ADD MLOAD PUSH1 0x5 DUP3 ADD SWAP1 PUSH3 0x3CC SWAP1 DUP3 PUSH3 0x6CA JUMP JUMPDEST POP PUSH1 0xC0 SWAP2 DUP3 ADD MLOAD PUSH1 0x6 SWAP2 SWAP1 SWAP2 ADD DUP1 SLOAD PUSH1 0xFF NOT AND SWAP2 ISZERO ISZERO SWAP2 SWAP1 SWAP2 OR SWAP1 SSTORE PUSH1 0x40 DUP1 MLOAD PUSH2 0x120 DUP2 ADD DUP3 MSTORE PUSH1 0x8 PUSH1 0xE0 DUP3 ADD DUP2 DUP2 MSTORE PUSH8 0x537461727368697 PUSH1 0xC4 SHL PUSH2 0x100 DUP5 ADD MSTORE DUP3 MSTORE PUSH1 0xA PUSH1 0x20 DUP1 DUP5 ADD SWAP2 SWAP1 SWAP2 MSTORE PUSH2 0x4B0 DUP4 DUP6 ADD MSTORE PUSH1 0x32 PUSH1 0x60 DUP5 ADD MSTORE PUSH1 0x19 PUSH1 0x80 DUP5 ADD MSTORE DUP4 MLOAD DUP1 DUP6 ADD DUP6 MSTORE PUSH1 0x7 DUP2 MSTORE PUSH7 0x63726564697473 PUSH1 0xC8 SHL SWAP2 DUP2 ADD SWAP2 SWAP1 SWAP2 MSTORE PUSH1 0xA0 DUP4 ADD MSTORE PUSH1 0x1 SWAP4 DUP3 ADD SWAP4 SWAP1 SWAP4 MSTORE SWAP1 MLOAD PUSH8 0x737461727368697 PUSH1 0xC4 SHL DUP2 MSTORE SWAP1 SWAP2 PUSH1 0x5 SWAP2 ADD SWAP1 DUP2 MSTORE PUSH1 0x40 MLOAD SWAP1 DUP2 SWAP1 SUB PUSH1 0x20 ADD SWAP1 KECCAK256 DUP2 MLOAD DUP2 SWAP1 PUSH3 0x490 SWAP1 DUP3 PUSH3 0x6CA JUMP JUMPDEST POP PUSH1 0x20 DUP3 ADD MLOAD PUSH1 0x1 DUP3 ADD SSTORE PUSH1 0x40 DUP3 ADD MLOAD PUSH1 0x2 DUP3 ADD SSTORE PUSH1 0x60 DUP3 ADD MLOAD PUSH1 0x3 DUP3 ADD SSTORE PUSH1 0x80 DUP3 ADD MLOAD PUSH1 0x4 DUP3 ADD SSTORE PUSH1 0xA0 DUP3 ADD MLOAD PUSH1 0x5 DUP3 ADD SWAP1 PUSH3 0x4CF SWAP1 DUP3 PUSH3 0x6CA JUMP JUMPDEST POP PUSH1 0xC0 SWAP2 DUP3 ADD MLOAD PUSH1 0x6 SWAP2 SWAP1 SWAP2 ADD DUP1 SLOAD PUSH1 0xFF NOT AND SWAP2 ISZERO ISZERO SWAP2 SWAP1 SWAP2 OR SWAP1 SSTORE PUSH1 0x40 DUP1 MLOAD PUSH2 0x120 DUP2 ADD DUP3 MSTORE PUSH1 0xA PUSH1 0xE0 DUP3 ADD SWAP1 DUP2 MSTORE PUSH10 0x426C61636B20486F6C65 PUSH1 0xB0 SHL PUSH2 0x100 DUP4 ADD MSTORE DUP2 MSTORE PUSH1 0x64 PUSH1 0x20 DUP1 DUP4 ADD SWAP2 SWAP1 SWAP2 MSTORE PUSH2 0x4E2 DUP3 DUP5 ADD MSTORE PUSH2 0x1F4 PUSH1 0x60 DUP4 ADD MSTORE PUSH1 0xFA PUSH1 0x80 DUP4 ADD MSTORE DUP3 MLOAD DUP1 DUP5 ADD DUP5 MSTORE PUSH1 0x7 DUP2 MSTORE PUSH7 0x63726564697473 PUSH1 0xC8 SHL SWAP2 DUP2 ADD SWAP2 SWAP1 SWAP2 MSTORE PUSH1 0xA0 DUP3 ADD MSTORE PUSH1 0x1 SWAP3 DUP2 ADD SWAP3 SWAP1 SWAP3 MSTORE MLOAD PUSH9 0x626C61636B686F6C65 PUSH1 0xB8 SHL DUP2 MSTORE PUSH1 0x5 SWAP1 PUSH1 0x9 ADD SWAP1 DUP2 MSTORE PUSH1 0x40 MLOAD SWAP1 DUP2 SWAP1 SUB PUSH1 0x20 ADD SWAP1 KECCAK256 DUP2 MLOAD DUP2 SWAP1 PUSH3 0x596 SWAP1 DUP3 PUSH3 0x6CA JUMP JUMPDEST POP PUSH1 0x20 DUP3 ADD MLOAD PUSH1 0x1 DUP3 ADD SSTORE PUSH1 0x40 DUP3 ADD MLOAD PUSH1 0x2 DUP3 ADD SSTORE PUSH1 0x60 DUP3 ADD MLOAD PUSH1 0x3 DUP3 ADD SSTORE PUSH1 0x80 DUP3 ADD MLOAD PUSH1 0x4 DUP3 ADD SSTORE PUSH1 0xA0 DUP3 ADD MLOAD PUSH1 0x5 DUP3 ADD SWAP1 PUSH3 0x5D5 SWAP1 DUP3 PUSH3 0x6CA JUMP JUMPDEST POP PUSH1 0xC0 SWAP2 SWAP1 SWAP2 ADD MLOAD PUSH1 0x6 SWAP1 SWAP2 ADD DUP1 SLOAD PUSH1 0xFF NOT AND SWAP2 ISZERO ISZERO SWAP2 SWAP1 SWAP2 OR SWAP1 SSTORE JUMP JUMPDEST PUSH1 0x0 PUSH1 0x20 DUP3 DUP5 SUB SLT ISZERO PUSH3 0x606 JUMPI PUSH1 0x0 DUP1 REVERT JUMPDEST DUP2 MLOAD PUSH1 0x1 PUSH1 0x1 PUSH1 0xA0 SHL SUB DUP2 AND DUP2 EQ PUSH3 0x61E JUMPI PUSH1 0x0 DUP1 REVERT JUMPDEST SWAP4 SWAP3 POP POP POP JUMP JUMPDEST PUSH4 0x4E487B71 PUSH1 0xE0 SHL PUSH1 0x0 MSTORE PUSH1 0x41 PUSH1 0x4 MSTORE PUSH1 0x24 PUSH1 0x0 REVERT JUMPDEST PUSH1 0x1 DUP2 DUP2 SHR SWAP1 DUP3 AND DUP1 PUSH3 0x650 JUMPI PUSH1 0x7F DUP3 AND SWAP2 POP JUMPDEST PUSH1 0x20 DUP3 LT DUP2 SUB PUSH3 0x671 JUMPI PUSH4 0x4E487B71 PUSH1 0xE0 SHL PUSH1 0x0 MSTORE PUSH1 0x22 PUSH1 0x4 MSTORE PUSH1 0x24 PUSH1 0x0 REVERT JUMPDEST POP SWAP2 SWAP1 POP JUMP JUMPDEST PUSH1 0x1F DUP3 GT ISZERO PUSH3 0x6C5 JUMPI PUSH1 0x0 DUP2 DUP2 MSTORE PUSH1 0x20 DUP2 KECCAK256 PUSH1 0x1F DUP6 ADD PUSH1 0x5 SHR DUP2 ADD PUSH1 0x20 DUP7 LT ISZERO PUSH3 0x6A0 JUMPI POP DUP1 JUMPDEST PUSH1 0x1F DUP6 ADD PUSH1 0x5 SHR DUP3 ADD SWAP2 POP JUMPDEST DUP2 DUP2 LT ISZERO PUSH3 0x6C1 JUMPI DUP3 DUP2 SSTORE PUSH1 0x1 ADD PUSH3 0x6AC JUMP JUMPDEST POP POP POP JUMPDEST POP POP POP JUMP JUMPDEST DUP2 MLOAD PUSH1 0x1 PUSH1 0x1 PUSH1 0x40 SHL SUB DUP2 GT ISZERO PUSH3 0x6E6 JUMPI PUSH3 0x6E6 PUSH3 0x625 JUMP JUMPDEST PUSH3 0x6FE DUP2 PUSH3 0x6F7 DUP5 SLOAD PUSH3 0x63B JUMP JUMPDEST DUP5 PUSH3 0x677 JUMP JUMPDEST PUSH1 0x20 DUP1 PUSH1 0x1F DUP4 GT PUSH1 0x1 DUP2 EQ PUSH3 0x736 JUMPI PUSH1 0x0 DUP5 ISZERO PUSH3 0x71D JUMPI POP DUP6 DUP4 ADD MLOAD JUMPDEST PUSH1 0x0 NOT PUSH1 0x3 DUP7 SWAP1 SHL SHR NOT AND PUSH1 0x1 DUP6 SWAP1 SHL OR DUP6 SSTORE PUSH3 0x6C1 JUMP JUMPDEST PUSH1 0x0 DUP6 DUP2 MSTORE PUSH1 0x20 DUP2 KECCAK256 PUSH1 0x1F NOT DUP7 AND SWAP2 JUMPDEST DUP3 DUP2 LT ISZERO PUSH3 0x767 JUMPI DUP9 DUP7 ADD MLOAD DUP3 SSTORE SWAP5 DUP5 ADD SWAP5 PUSH1 0x1 SWAP1 SWAP2 ADD SWAP1 DUP5 ADD PUSH3 0x746 JUMP JUMPDEST POP DUP6 DUP3 LT ISZERO PUSH3 0x786 JUMPI DUP8 DUP6 ADD MLOAD PUSH1 0x0 NOT PUSH1 0x3 DUP9 SWAP1 SHL PUSH1 0xF8 AND SHR NOT AND DUP2 SSTORE JUMPDEST POP POP POP POP POP PUSH1 0x1 SWAP1 DUP2 SHL ADD SWAP1 SSTORE POP JUMP JUMPDEST PUSH2 0x1A70 DUP1 PUSH3 0x7A6 PUSH1 0x0 CODECOPY PUSH1 0x0 RETURN INVALID PUSH1 0x80 PUSH1 0x40 MSTORE CALLVALUE DUP1 ISZERO PUSH2 0x10 JUMPI PUSH1 0x0 DUP1 REVERT JUMPDEST POP PUSH1 0x4 CALLDATASIZE LT PUSH2 0x121 JUMPI PUSH1 0x0 CALLDATALOAD PUSH1 0xE0 SHR DUP1 PUSH4 0x8DA5CB5B GT PUSH2 0xAD JUMPI DUP1 PUSH4 0xE3DBF6A6 GT PUSH2 0x71 JUMPI DUP1 PUSH4 0xE3DBF6A6 EQ PUSH2 0x31E JUMPI DUP1 PUSH4 0xF2FDE38B EQ PUSH2 0x33E JUMPI DUP1 PUSH4 0xF398467B EQ PUSH2 0x351 JUMPI DUP1 PUSH4 0xF60CDCF6 EQ PUSH2 0x371 JUMPI DUP1 PUSH4 0xF737E818 EQ PUSH2 0x37A JUMPI PUSH1 0x0 DUP1 REVERT JUMPDEST DUP1 PUSH4 0x8DA5CB5B EQ PUSH2 0x1E2 JUMPI DUP1 PUSH4 0xA0BBC59E EQ PUSH2 0x1F3 JUMPI DUP1 PUSH4 0xAAD135D4 EQ PUSH2 0x23D JUMPI DUP1 PUSH4 0xC01CA43F EQ PUSH2 0x246 JUMPI DUP1 PUSH4 0xD15E55B7 EQ PUSH2 0x2A6 JUMPI PUSH1 0x0 DUP1 REVERT JUMPDEST DUP1 PUSH4 0x48113D40 GT PUSH2 0xF4 JUMPI DUP1 PUSH4 0x48113D40 EQ PUSH2 0x186 JUMPI DUP1 PUSH4 0x4A4A541E EQ PUSH2 0x199 JUMPI DUP1 PUSH4 0x5C07A4B0 EQ PUSH2 0x1AC JUMPI DUP1 PUSH4 0x66243339 EQ PUSH2 0x1B4 JUMPI DUP1 PUSH4 0x715018A6 EQ PUSH2 0x1DA JUMPI PUSH1 0x0 DUP1 REVERT JUMPDEST DUP1 PUSH4 0x642BC41 EQ PUSH2 0x126 JUMPI DUP1 PUSH4 0x252D9197 EQ PUSH2 0x156 JUMPI DUP1 PUSH4 0x26F3FDE0 EQ PUSH2 0x16B JUMPI DUP1 PUSH4 0x473EC38D EQ PUSH2 0x173 JUMPI JUMPDEST PUSH1 0x0 DUP1 REVERT JUMPDEST PUSH1 0x2 SLOAD PUSH2 0x139 SWAP1 PUSH1 0x1 PUSH1 0x1 PUSH1 0xA0 SHL SUB AND DUP2 JUMP JUMPDEST PUSH1 0x40 MLOAD PUSH1 0x1 PUSH1 0x1 PUSH1 0xA0 SHL SUB SWAP1 SWAP2 AND DUP2 MSTORE PUSH1 0x20 ADD JUMPDEST PUSH1 0x40 MLOAD DUP1 SWAP2 SUB SWAP1 RETURN JUMPDEST PUSH2 0x169 PUSH2 0x164 CALLDATASIZE PUSH1 0x4 PUSH2 0x14AC JUMP JUMPDEST PUSH2 0x38D JUMP JUMPDEST STOP JUMPDEST PUSH2 0x169 PUSH2 0x547 JUMP JUMPDEST PUSH2 0x169 PUSH2 0x181 CALLDATASIZE PUSH1 0x4 PUSH2 0x1571 JUMP JUMPDEST PUSH2 0x740 JUMP JUMPDEST PUSH2 0x169 PUSH2 0x194 CALLDATASIZE PUSH1 0x4 PUSH2 0x1571 JUMP JUMPDEST PUSH2 0xCB4 JUMP JUMPDEST PUSH2 0x169 PUSH2 0x1A7 CALLDATASIZE PUSH1 0x4 PUSH2 0x15AE JUMP JUMPDEST PUSH2 0xD18 JUMP JUMPDEST PUSH2 0x169 PUSH2 0xDE5 JUMP JUMPDEST PUSH2 0x1C7 PUSH2 0x1C2 CALLDATASIZE PUSH1 0x4 PUSH2 0x1571 JUMP JUMPDEST PUSH2 0xEC0 JUMP JUMPDEST PUSH1 0x40 MLOAD PUSH2 0x14D SWAP8 SWAP7 SWAP6 SWAP5 SWAP4 SWAP3 SWAP2 SWAP1 PUSH2 0x16AD JUMP JUMPDEST PUSH2 0x169 PUSH2 0x1018 JUMP JUMPDEST PUSH1 0x0 SLOAD PUSH1 0x1 PUSH1 0x1 PUSH1 0xA0 SHL SUB AND PUSH2 0x139 JUMP JUMPDEST PUSH2 0x22F PUSH2 0x201 CALLDATASIZE PUSH1 0x4 PUSH2 0x171D JUMP JUMPDEST PUSH1 0x4 PUSH1 0x20 SWAP1 DUP2 MSTORE PUSH1 0x0 SWAP3 DUP4 MSTORE PUSH1 0x40 SWAP1 SWAP3 KECCAK256 DUP2 MLOAD DUP1 DUP4 ADD DUP5 ADD DUP1 MLOAD SWAP3 DUP2 MSTORE SWAP1 DUP5 ADD SWAP3 SWAP1 SWAP4 ADD SWAP2 SWAP1 SWAP2 KECCAK256 SWAP2 MSTORE SLOAD DUP2 JUMP JUMPDEST PUSH1 0x40 MLOAD SWAP1 DUP2 MSTORE PUSH1 0x20 ADD PUSH2 0x14D JUMP JUMPDEST PUSH2 0x22F PUSH1 0x9 SLOAD DUP2 JUMP JUMPDEST PUSH2 0x259 PUSH2 0x254 CALLDATASIZE PUSH1 0x4 PUSH2 0x176B JUMP JUMPDEST PUSH2 0x102A JUMP JUMPDEST PUSH1 0x40 DUP1 MLOAD DUP4 MLOAD DUP2 MSTORE PUSH1 0x20 DUP1 DUP6 ADD MLOAD SWAP1 DUP3 ADD MSTORE DUP4 DUP3 ADD MLOAD SWAP2 DUP2 ADD SWAP2 SWAP1 SWAP2 MSTORE PUSH1 0x60 DUP1 DUP5 ADD MLOAD SWAP1 DUP3 ADD MSTORE PUSH1 0x80 DUP1 DUP5 ADD MLOAD SWAP1 DUP3 ADD MSTORE PUSH1 0xA0 SWAP3 DUP4 ADD MLOAD ISZERO ISZERO SWAP3 DUP2 ADD SWAP3 SWAP1 SWAP3 MSTORE PUSH1 0xC0 DUP3 ADD MSTORE PUSH1 0xE0 ADD PUSH2 0x14D JUMP JUMPDEST PUSH2 0x2EF PUSH2 0x2B4 CALLDATASIZE PUSH1 0x4 PUSH2 0x176B JUMP JUMPDEST PUSH1 0x3 PUSH1 0x20 DUP2 SWAP1 MSTORE PUSH1 0x0 SWAP2 DUP3 MSTORE PUSH1 0x40 SWAP1 SWAP2 KECCAK256 DUP1 SLOAD PUSH1 0x1 DUP3 ADD SLOAD PUSH1 0x2 DUP4 ADD SLOAD SWAP4 DUP4 ADD SLOAD PUSH1 0x4 DUP5 ADD SLOAD PUSH1 0x5 SWAP1 SWAP5 ADD SLOAD SWAP3 SWAP5 SWAP2 SWAP4 SWAP2 SWAP3 SWAP1 SWAP2 SWAP1 PUSH1 0xFF AND DUP7 JUMP JUMPDEST PUSH1 0x40 DUP1 MLOAD SWAP7 DUP8 MSTORE PUSH1 0x20 DUP8 ADD SWAP6 SWAP1 SWAP6 MSTORE SWAP4 DUP6 ADD SWAP3 SWAP1 SWAP3 MSTORE PUSH1 0x60 DUP5 ADD MSTORE PUSH1 0x80 DUP4 ADD MSTORE ISZERO ISZERO PUSH1 0xA0 DUP3 ADD MSTORE PUSH1 0xC0 ADD PUSH2 0x14D JUMP JUMPDEST PUSH2 0x22F PUSH2 0x32C CALLDATASIZE PUSH1 0x4 PUSH2 0x176B JUMP JUMPDEST PUSH1 0x6 PUSH1 0x20 MSTORE PUSH1 0x0 SWAP1 DUP2 MSTORE PUSH1 0x40 SWAP1 KECCAK256 SLOAD DUP2 JUMP JUMPDEST PUSH2 0x169 PUSH2 0x34C CALLDATASIZE PUSH1 0x4 PUSH2 0x176B JUMP JUMPDEST PUSH2 0x10FD JUMP JUMPDEST PUSH2 0x22F PUSH2 0x35F CALLDATASIZE PUSH1 0x4 PUSH2 0x176B JUMP JUMPDEST PUSH1 0x7 PUSH1 0x20 MSTORE PUSH1 0x0 SWAP1 DUP2 MSTORE PUSH1 0x40 SWAP1 KECCAK256 SLOAD DUP2 JUMP JUMPDEST PUSH2 0x22F PUSH1 0x8 SLOAD DUP2 JUMP JUMPDEST PUSH2 0x22F PUSH2 0x388 CALLDATASIZE PUSH1 0x4 PUSH2 0x1786 JUMP JUMPDEST PUSH2 0x1173 JUMP JUMPDEST PUSH2 0x395 PUSH2 0x1356 JUMP JUMPDEST CALLER PUSH1 0x0 SWAP1 DUP2 MSTORE PUSH1 0x3 PUSH1 0x20 MSTORE PUSH1 0x40 SWAP1 KECCAK256 PUSH1 0x5 ADD SLOAD PUSH1 0xFF AND PUSH2 0x3F4 JUMPI PUSH1 0x40 MLOAD PUSH3 0x461BCD PUSH1 0xE5 SHL DUP2 MSTORE PUSH1 0x20 PUSH1 0x4 DUP3 ADD MSTORE PUSH1 0x15 PUSH1 0x24 DUP3 ADD MSTORE PUSH21 0x141B185E595C881B9BDD081C9959DA5CDD195C9959 PUSH1 0x5A SHL PUSH1 0x44 DUP3 ADD MSTORE PUSH1 0x64 ADD JUMPDEST PUSH1 0x40 MLOAD DUP1 SWAP2 SUB SWAP1 REVERT JUMPDEST CALLER PUSH1 0x0 SWAP1 DUP2 MSTORE PUSH1 0x3 PUSH1 0x20 DUP2 SWAP1 MSTORE PUSH1 0x40 DUP3 KECCAK256 SWAP1 DUP2 ADD SLOAD SWAP1 SWAP2 SWAP1 PUSH2 0x416 SWAP1 TIMESTAMP PUSH2 0x17EA JUMP JUMPDEST SWAP1 POP PUSH1 0x0 DUP2 DUP4 PUSH1 0x1 ADD SLOAD PUSH2 0x42A SWAP2 SWAP1 PUSH2 0x17FD JUMP JUMPDEST SWAP1 POP PUSH2 0x436 DUP2 DUP7 PUSH2 0x1814 JUMP JUMPDEST DUP4 SSTORE PUSH1 0x2 DUP4 ADD DUP5 SWAP1 SSTORE TIMESTAMP PUSH1 0x3 DUP5 ADD SSTORE CALLER PUSH1 0x0 SWAP1 DUP2 MSTORE PUSH1 0x6 PUSH1 0x20 MSTORE PUSH1 0x40 DUP2 KECCAK256 DUP1 SLOAD DUP4 SWAP3 SWAP1 PUSH2 0x464 SWAP1 DUP5 SWAP1 PUSH2 0x1814 JUMP JUMPDEST SWAP3 POP POP DUP2 SWAP1 SSTORE POP DUP1 PUSH1 0x9 PUSH1 0x0 DUP3 DUP3 SLOAD PUSH2 0x47D SWAP2 SWAP1 PUSH2 0x1814 JUMP JUMPDEST SWAP1 SWAP2 SSTORE POP POP DUP1 ISZERO PUSH2 0x4ED JUMPI PUSH1 0x2 SLOAD PUSH1 0x40 MLOAD PUSH4 0x593EE7FD PUSH1 0xE1 SHL DUP2 MSTORE CALLER PUSH1 0x4 DUP3 ADD MSTORE PUSH1 0x24 DUP2 ADD DUP4 SWAP1 MSTORE PUSH1 0x1 PUSH1 0x1 PUSH1 0xA0 SHL SUB SWAP1 SWAP2 AND SWAP1 PUSH4 0xB27DCFFA SWAP1 PUSH1 0x44 ADD PUSH1 0x0 PUSH1 0x40 MLOAD DUP1 DUP4 SUB DUP2 PUSH1 0x0 DUP8 DUP1 EXTCODESIZE ISZERO DUP1 ISZERO PUSH2 0x4D4 JUMPI PUSH1 0x0 DUP1 REVERT JUMPDEST POP GAS CALL ISZERO DUP1 ISZERO PUSH2 0x4E8 JUMPI RETURNDATASIZE PUSH1 0x0 DUP1 RETURNDATACOPY RETURNDATASIZE PUSH1 0x0 REVERT JUMPDEST POP POP POP POP JUMPDEST DUP3 SLOAD PUSH1 0x1 DUP5 ADD SLOAD PUSH1 0x40 DUP1 MLOAD SWAP3 DUP4 MSTORE PUSH1 0x20 DUP4 ADD SWAP2 SWAP1 SWAP2 MSTORE TIMESTAMP SWAP1 DUP3 ADD MSTORE CALLER SWAP1 PUSH32 0xDE2575B1517540B677C794A3CDE57FED7F46FE9BEACA3BB86154C43AE41BC6A1 SWAP1 PUSH1 0x60 ADD PUSH1 0x40 MLOAD DUP1 SWAP2 SUB SWAP1 LOG2 POP POP POP PUSH2 0x543 PUSH1 0x1 DUP1 SSTORE JUMP JUMPDEST POP POP JUMP JUMPDEST CALLER PUSH1 0x0 SWAP1 DUP2 MSTORE PUSH1 0x3 PUSH1 0x20 MSTORE PUSH1 0x40 SWAP1 KECCAK256 SLOAD PUSH3 0xF4240 GT ISZERO PUSH2 0x5A9 JUMPI PUSH1 0x40 MLOAD PUSH3 0x461BCD PUSH1 0xE5 SHL DUP2 MSTORE PUSH1 0x20 PUSH1 0x4 DUP3 ADD MSTORE PUSH1 0x1D PUSH1 0x24 DUP3 ADD MSTORE PUSH32 0x4E65656420314D20737461726475737420666F72207072657374696765000000 PUSH1 0x44 DUP3 ADD MSTORE PUSH1 0x64 ADD PUSH2 0x3EB JUMP JUMPDEST CALLER PUSH1 0x0 SWAP1 DUP2 MSTORE PUSH1 0x3 PUSH1 0x20 MSTORE PUSH1 0x40 DUP2 KECCAK256 PUSH1 0x4 DUP2 ADD DUP1 SLOAD SWAP2 SWAP3 PUSH2 0x5C9 DUP4 PUSH2 0x1827 JUMP JUMPDEST SWAP1 SWAP2 SSTORE POP POP PUSH1 0x0 DUP2 SSTORE PUSH1 0x4 DUP2 ADD SLOAD PUSH2 0x5E2 SWAP1 PUSH1 0x1 PUSH2 0x1814 JUMP JUMPDEST PUSH1 0x1 DUP3 ADD SSTORE PUSH1 0x40 DUP1 MLOAD PUSH1 0xE0 DUP2 ADD DUP3 MSTORE PUSH1 0x9 PUSH1 0xA0 DUP3 ADD DUP2 DUP2 MSTORE PUSH9 0x74656C6573636F7065 PUSH1 0xB8 SHL PUSH1 0xC0 DUP5 ADD MSTORE DUP3 MSTORE DUP3 MLOAD DUP1 DUP5 ADD DUP5 MSTORE DUP2 DUP2 MSTORE PUSH9 0x736174656C6C697465 PUSH1 0xB8 SHL PUSH1 0x20 DUP3 DUP2 ADD SWAP2 SWAP1 SWAP2 MSTORE DUP1 DUP5 ADD SWAP2 SWAP1 SWAP2 MSTORE DUP4 MLOAD DUP1 DUP6 ADD DUP6 MSTORE PUSH1 0xB DUP2 MSTORE PUSH11 0x6F627365727661746F7279 PUSH1 0xA8 SHL DUP2 DUP4 ADD MSTORE DUP4 DUP6 ADD MSTORE DUP4 MLOAD DUP1 DUP6 ADD DUP6 MSTORE PUSH1 0x8 DUP2 MSTORE PUSH8 0x737461727368697 PUSH1 0xC4 SHL DUP2 DUP4 ADD MSTORE PUSH1 0x60 DUP5 ADD MSTORE DUP4 MLOAD DUP1 DUP6 ADD SWAP1 SWAP5 MSTORE SWAP1 DUP4 MSTORE PUSH9 0x626C61636B686F6C65 PUSH1 0xB8 SHL SWAP1 DUP4 ADD MSTORE PUSH1 0x80 DUP2 ADD SWAP2 SWAP1 SWAP2 MSTORE PUSH1 0x0 JUMPDEST PUSH1 0x5 DUP2 LT ISZERO PUSH2 0x6FC JUMPI CALLER PUSH1 0x0 SWAP1 DUP2 MSTORE PUSH1 0x4 PUSH1 0x20 MSTORE PUSH1 0x40 DUP2 KECCAK256 DUP4 DUP4 PUSH1 0x5 DUP2 LT PUSH2 0x6C8 JUMPI PUSH2 0x6C8 PUSH2 0x1840 JUMP JUMPDEST PUSH1 0x20 MUL ADD MLOAD PUSH1 0x40 MLOAD PUSH2 0x6DA SWAP2 SWAP1 PUSH2 0x1856 JUMP JUMPDEST SWAP1 DUP2 MSTORE PUSH1 0x40 MLOAD SWAP1 DUP2 SWAP1 SUB PUSH1 0x20 ADD SWAP1 KECCAK256 SSTORE DUP1 PUSH2 0x6F4 DUP2 PUSH2 0x1827 JUMP JUMPDEST SWAP2 POP POP PUSH2 0x69E JUMP JUMPDEST POP PUSH1 0x4 DUP3 ADD SLOAD PUSH1 0x40 DUP1 MLOAD SWAP2 DUP3 MSTORE TIMESTAMP PUSH1 0x20 DUP4 ADD MSTORE CALLER SWAP2 PUSH32 0xA1076BF9C07228AE15797FA473A75367DC398AD6427938BDF107A8DF563E6A80 SWAP2 ADD PUSH1 0x40 MLOAD DUP1 SWAP2 SUB SWAP1 LOG2 POP POP JUMP JUMPDEST PUSH2 0x748 PUSH2 0x1356 JUMP JUMPDEST CALLER PUSH1 0x0 SWAP1 DUP2 MSTORE PUSH1 0x3 PUSH1 0x20 MSTORE PUSH1 0x40 SWAP1 KECCAK256 PUSH1 0x5 ADD SLOAD PUSH1 0xFF AND PUSH2 0x7A2 JUMPI PUSH1 0x40 MLOAD PUSH3 0x461BCD PUSH1 0xE5 SHL DUP2 MSTORE PUSH1 0x20 PUSH1 0x4 DUP3 ADD MSTORE PUSH1 0x15 PUSH1 0x24 DUP3 ADD MSTORE PUSH21 0x141B185E595C881B9BDD081C9959DA5CDD195C9959 PUSH1 0x5A SHL PUSH1 0x44 DUP3 ADD MSTORE PUSH1 0x64 ADD PUSH2 0x3EB JUMP JUMPDEST PUSH1 0x5 DUP2 PUSH1 0x40 MLOAD PUSH2 0x7B2 SWAP2 SWAP1 PUSH2 0x1856 JUMP JUMPDEST SWAP1 DUP2 MSTORE PUSH1 0x40 MLOAD SWAP1 DUP2 SWAP1 SUB PUSH1 0x20 ADD SWAP1 KECCAK256 PUSH1 0x6 ADD SLOAD PUSH1 0xFF AND PUSH2 0x80C JUMPI PUSH1 0x40 MLOAD PUSH3 0x461BCD PUSH1 0xE5 SHL DUP2 MSTORE PUSH1 0x20 PUSH1 0x4 DUP3 ADD MSTORE PUSH1 0x15 PUSH1 0x24 DUP3 ADD MSTORE PUSH21 0x55706772616465206E6F7420617661696C61626C65 PUSH1 0x58 SHL PUSH1 0x44 DUP3 ADD MSTORE PUSH1 0x64 ADD PUSH2 0x3EB JUMP JUMPDEST PUSH1 0x0 PUSH1 0x5 DUP3 PUSH1 0x40 MLOAD PUSH2 0x81E SWAP2 SWAP1 PUSH2 0x1856 JUMP JUMPDEST SWAP1 DUP2 MSTORE PUSH1 0x20 ADD PUSH1 0x40 MLOAD DUP1 SWAP2 SUB SWAP1 KECCAK256 PUSH1 0x40 MLOAD DUP1 PUSH1 0xE0 ADD PUSH1 0x40 MSTORE SWAP1 DUP2 PUSH1 0x0 DUP3 ADD DUP1 SLOAD PUSH2 0x847 SWAP1 PUSH2 0x1872 JUMP JUMPDEST DUP1 PUSH1 0x1F ADD PUSH1 0x20 DUP1 SWAP2 DIV MUL PUSH1 0x20 ADD PUSH1 0x40 MLOAD SWAP1 DUP2 ADD PUSH1 0x40 MSTORE DUP1 SWAP3 SWAP2 SWAP1 DUP2 DUP2 MSTORE PUSH1 0x20 ADD DUP3 DUP1 SLOAD PUSH2 0x873 SWAP1 PUSH2 0x1872 JUMP JUMPDEST DUP1 ISZERO PUSH2 0x8C0 JUMPI DUP1 PUSH1 0x1F LT PUSH2 0x895 JUMPI PUSH2 0x100 DUP1 DUP4 SLOAD DIV MUL DUP4 MSTORE SWAP2 PUSH1 0x20 ADD SWAP2 PUSH2 0x8C0 JUMP JUMPDEST DUP3 ADD SWAP2 SWAP1 PUSH1 0x0 MSTORE PUSH1 0x20 PUSH1 0x0 KECCAK256 SWAP1 JUMPDEST DUP2 SLOAD DUP2 MSTORE SWAP1 PUSH1 0x1 ADD SWAP1 PUSH1 0x20 ADD DUP1 DUP4 GT PUSH2 0x8A3 JUMPI DUP3 SWAP1 SUB PUSH1 0x1F AND DUP3 ADD SWAP2 JUMPDEST POP POP POP POP POP DUP2 MSTORE PUSH1 0x20 ADD PUSH1 0x1 DUP3 ADD SLOAD DUP2 MSTORE PUSH1 0x20 ADD PUSH1 0x2 DUP3 ADD SLOAD DUP2 MSTORE PUSH1 0x20 ADD PUSH1 0x3 DUP3 ADD SLOAD DUP2 MSTORE PUSH1 0x20 ADD PUSH1 0x4 DUP3 ADD SLOAD DUP2 MSTORE PUSH1 0x20 ADD PUSH1 0x5 DUP3 ADD DUP1 SLOAD PUSH2 0x901 SWAP1 PUSH2 0x1872 JUMP JUMPDEST DUP1 PUSH1 0x1F ADD PUSH1 0x20 DUP1 SWAP2 DIV MUL PUSH1 0x20 ADD PUSH1 0x40 MLOAD SWAP1 DUP2 ADD PUSH1 0x40 MSTORE DUP1 SWAP3 SWAP2 SWAP1 DUP2 DUP2 MSTORE PUSH1 0x20 ADD DUP3 DUP1 SLOAD PUSH2 0x92D SWAP1 PUSH2 0x1872 JUMP JUMPDEST DUP1 ISZERO PUSH2 0x97A JUMPI DUP1 PUSH1 0x1F LT PUSH2 0x94F JUMPI PUSH2 0x100 DUP1 DUP4 SLOAD DIV MUL DUP4 MSTORE SWAP2 PUSH1 0x20 ADD SWAP2 PUSH2 0x97A JUMP JUMPDEST DUP3 ADD SWAP2 SWAP1 PUSH1 0x0 MSTORE PUSH1 0x20 PUSH1 0x0 KECCAK256 SWAP1 JUMPDEST DUP2 SLOAD DUP2 MSTORE SWAP1 PUSH1 0x1 ADD SWAP1 PUSH1 0x20 ADD DUP1 DUP4 GT PUSH2 0x95D JUMPI DUP3 SWAP1 SUB PUSH1 0x1F AND DUP3 ADD SWAP2 JUMPDEST POP POP POP SWAP2 DUP4 MSTORE POP POP PUSH1 0x6 SWAP2 SWAP1 SWAP2 ADD SLOAD PUSH1 0xFF AND ISZERO ISZERO PUSH1 0x20 SWAP2 DUP3 ADD MSTORE CALLER PUSH1 0x0 SWAP1 DUP2 MSTORE PUSH1 0x4 SWAP1 SWAP2 MSTORE PUSH1 0x40 DUP1 DUP3 KECCAK256 SWAP1 MLOAD SWAP3 SWAP4 POP SWAP1 SWAP2 PUSH2 0x9B6 SWAP1 DUP6 SWAP1 PUSH2 0x1856 JUMP JUMPDEST SWAP1 DUP2 MSTORE PUSH1 0x20 ADD PUSH1 0x40 MLOAD DUP1 SWAP2 SUB SWAP1 KECCAK256 SLOAD SWAP1 POP PUSH1 0x0 PUSH2 0x9DC DUP4 PUSH1 0x20 ADD MLOAD DUP5 PUSH1 0x40 ADD MLOAD DUP5 PUSH2 0x13AF JUMP JUMPDEST PUSH1 0x40 DUP1 MLOAD DUP1 DUP3 ADD SWAP1 SWAP2 MSTORE PUSH1 0x8 DUP2 MSTORE PUSH8 0x1CDD185C991D5CDD PUSH1 0xC2 SHL PUSH1 0x20 SWAP2 DUP3 ADD MSTORE PUSH1 0xA0 DUP6 ADD MLOAD DUP1 MLOAD SWAP2 ADD KECCAK256 SWAP1 SWAP2 POP PUSH32 0x81E3A722C3E4E8F9D9CED5C3A0B6F6A1A13D9410313441A99C6901226D8B0712 ADD PUSH2 0xAB0 JUMPI CALLER PUSH1 0x0 SWAP1 DUP2 MSTORE PUSH1 0x3 PUSH1 0x20 MSTORE PUSH1 0x40 SWAP1 KECCAK256 SLOAD DUP2 GT ISZERO PUSH2 0xA86 JUMPI PUSH1 0x40 MLOAD PUSH3 0x461BCD PUSH1 0xE5 SHL DUP2 MSTORE PUSH1 0x20 PUSH1 0x4 DUP3 ADD MSTORE PUSH1 0x15 PUSH1 0x24 DUP3 ADD MSTORE PUSH21 0x125B9CDD59999A58DA595B9D081CDD185C991D5CDD PUSH1 0x5A SHL PUSH1 0x44 DUP3 ADD MSTORE PUSH1 0x64 ADD PUSH2 0x3EB JUMP JUMPDEST CALLER PUSH1 0x0 SWAP1 DUP2 MSTORE PUSH1 0x3 PUSH1 0x20 MSTORE PUSH1 0x40 DUP2 KECCAK256 DUP1 SLOAD DUP4 SWAP3 SWAP1 PUSH2 0xAA5 SWAP1 DUP5 SWAP1 PUSH2 0x17EA JUMP JUMPDEST SWAP1 SWAP2 SSTORE POP PUSH2 0xBEB SWAP1 POP JUMP JUMPDEST PUSH1 0x2 SLOAD PUSH1 0x40 MLOAD PUSH4 0x70A08231 PUSH1 0xE0 SHL DUP2 MSTORE CALLER PUSH1 0x4 DUP3 ADD MSTORE DUP3 SWAP2 PUSH1 0x1 PUSH1 0x1 PUSH1 0xA0 SHL SUB AND SWAP1 PUSH4 0x70A08231 SWAP1 PUSH1 0x24 ADD PUSH1 0x20 PUSH1 0x40 MLOAD DUP1 DUP4 SUB DUP2 DUP7 GAS STATICCALL ISZERO DUP1 ISZERO PUSH2 0xAF8 JUMPI RETURNDATASIZE PUSH1 0x0 DUP1 RETURNDATACOPY RETURNDATASIZE PUSH1 0x0 REVERT JUMPDEST POP POP POP POP PUSH1 0x40 MLOAD RETURNDATASIZE PUSH1 0x1F NOT PUSH1 0x1F DUP3 ADD AND DUP3 ADD DUP1 PUSH1 0x40 MSTORE POP DUP2 ADD SWAP1 PUSH2 0xB1C SWAP2 SWAP1 PUSH2 0x18AC JUMP JUMPDEST LT ISZERO PUSH2 0xB61 JUMPI PUSH1 0x40 MLOAD PUSH3 0x461BCD PUSH1 0xE5 SHL DUP2 MSTORE PUSH1 0x20 PUSH1 0x4 DUP3 ADD MSTORE PUSH1 0x14 PUSH1 0x24 DUP3 ADD MSTORE PUSH20 0x496E73756666696369656E742063726564697473 PUSH1 0x60 SHL PUSH1 0x44 DUP3 ADD MSTORE PUSH1 0x64 ADD PUSH2 0x3EB JUMP JUMPDEST PUSH1 0x2 SLOAD PUSH1 0x40 MLOAD PUSH4 0x10C4B387 PUSH1 0xE1 SHL DUP2 MSTORE CALLER PUSH1 0x4 DUP3 ADD MSTORE PUSH1 0x24 DUP2 ADD DUP4 SWAP1 MSTORE PUSH1 0x1 PUSH1 0x1 PUSH1 0xA0 SHL SUB SWAP1 SWAP2 AND SWAP1 PUSH4 0x2189670E SWAP1 PUSH1 0x44 ADD PUSH1 0x0 PUSH1 0x40 MLOAD DUP1 DUP4 SUB DUP2 PUSH1 0x0 DUP8 DUP1 EXTCODESIZE ISZERO DUP1 ISZERO PUSH2 0xBAD JUMPI PUSH1 0x0 DUP1 REVERT JUMPDEST POP GAS CALL ISZERO DUP1 ISZERO PUSH2 0xBC1 JUMPI RETURNDATASIZE PUSH1 0x0 DUP1 RETURNDATACOPY RETURNDATASIZE PUSH1 0x0 REVERT JUMPDEST POP POP CALLER PUSH1 0x0 SWAP1 DUP2 MSTORE PUSH1 0x7 PUSH1 0x20 MSTORE PUSH1 0x40 DUP2 KECCAK256 DUP1 SLOAD DUP6 SWAP5 POP SWAP1 SWAP3 POP PUSH2 0xBE5 SWAP1 DUP5 SWAP1 PUSH2 0x1814 JUMP JUMPDEST SWAP1 SWAP2 SSTORE POP POP JUMPDEST CALLER PUSH1 0x0 SWAP1 DUP2 MSTORE PUSH1 0x4 PUSH1 0x20 MSTORE PUSH1 0x40 SWAP1 DUP2 SWAP1 KECCAK256 SWAP1 MLOAD PUSH2 0xC09 SWAP1 DUP7 SWAP1 PUSH2 0x1856 JUMP JUMPDEST SWAP1 DUP2 MSTORE PUSH1 0x40 MLOAD SWAP1 DUP2 SWAP1 SUB PUSH1 0x20 ADD SWAP1 KECCAK256 DUP1 SLOAD SWAP1 PUSH1 0x0 PUSH2 0xC26 DUP4 PUSH2 0x1827 JUMP JUMPDEST SWAP1 SWAP2 SSTORE POP POP PUSH1 0x80 DUP4 ADD MLOAD CALLER PUSH1 0x0 SWAP1 DUP2 MSTORE PUSH1 0x3 PUSH1 0x20 MSTORE PUSH1 0x40 DUP2 KECCAK256 PUSH1 0x1 ADD DUP1 SLOAD SWAP1 SWAP2 SWAP1 PUSH2 0xC52 SWAP1 DUP5 SWAP1 PUSH2 0x1814 JUMP JUMPDEST SWAP1 SWAP2 SSTORE POP CALLER SWAP1 POP PUSH32 0x1FD4664D767F39FD6223439ED2145312055FBE43D159A8CEC2D0D8C975C9C637 DUP6 PUSH2 0xC86 DUP6 PUSH1 0x1 PUSH2 0x1814 JUMP JUMPDEST PUSH1 0xA0 DUP8 ADD MLOAD PUSH1 0x40 MLOAD PUSH2 0xC9D SWAP4 SWAP3 SWAP2 DUP8 SWAP2 TIMESTAMP SWAP1 PUSH2 0x18C5 JUMP JUMPDEST PUSH1 0x40 MLOAD DUP1 SWAP2 SUB SWAP1 LOG2 POP POP POP PUSH2 0xCB1 PUSH1 0x1 DUP1 SSTORE JUMP JUMPDEST POP JUMP JUMPDEST PUSH2 0xCBC PUSH2 0x1402 JUMP JUMPDEST PUSH1 0x5 DUP2 PUSH1 0x40 MLOAD PUSH2 0xCCC SWAP2 SWAP1 PUSH2 0x1856 JUMP JUMPDEST SWAP1 DUP2 MSTORE PUSH1 0x40 MLOAD SWAP1 DUP2 SWAP1 SUB PUSH1 0x20 ADD DUP2 KECCAK256 PUSH1 0x6 ADD SLOAD PUSH1 0xFF AND ISZERO SWAP1 PUSH1 0x5 SWAP1 PUSH2 0xCF2 SWAP1 DUP5 SWAP1 PUSH2 0x1856 JUMP JUMPDEST SWAP1 DUP2 MSTORE PUSH1 0x40 MLOAD SWAP1 DUP2 SWAP1 SUB PUSH1 0x20 ADD SWAP1 KECCAK256 PUSH1 0x6 ADD DUP1 SLOAD SWAP2 ISZERO ISZERO PUSH1 0xFF NOT SWAP1 SWAP3 AND SWAP2 SWAP1 SWAP2 OR SWAP1 SSTORE POP JUMP JUMPDEST PUSH2 0xD20 PUSH2 0x1402 JUMP JUMPDEST PUSH1 0x40 MLOAD DUP1 PUSH1 0xE0 ADD PUSH1 0x40 MSTORE DUP1 DUP8 DUP2 MSTORE PUSH1 0x20 ADD DUP7 DUP2 MSTORE PUSH1 0x20 ADD DUP6 DUP2 MSTORE PUSH1 0x20 ADD DUP5 DUP2 MSTORE PUSH1 0x20 ADD DUP4 DUP2 MSTORE PUSH1 0x20 ADD DUP3 DUP2 MSTORE PUSH1 0x20 ADD PUSH1 0x1 ISZERO ISZERO DUP2 MSTORE POP PUSH1 0x5 DUP9 PUSH1 0x40 MLOAD PUSH2 0xD66 SWAP2 SWAP1 PUSH2 0x1856 JUMP JUMPDEST SWAP1 DUP2 MSTORE PUSH1 0x40 MLOAD SWAP1 DUP2 SWAP1 SUB PUSH1 0x20 ADD SWAP1 KECCAK256 DUP2 MLOAD DUP2 SWAP1 PUSH2 0xD83 SWAP1 DUP3 PUSH2 0x1958 JUMP JUMPDEST POP PUSH1 0x20 DUP3 ADD MLOAD PUSH1 0x1 DUP3 ADD SSTORE PUSH1 0x40 DUP3 ADD MLOAD PUSH1 0x2 DUP3 ADD SSTORE PUSH1 0x60 DUP3 ADD MLOAD PUSH1 0x3 DUP3 ADD SSTORE PUSH1 0x80 DUP3 ADD MLOAD PUSH1 0x4 DUP3 ADD SSTORE PUSH1 0xA0 DUP3 ADD MLOAD PUSH1 0x5 DUP3 ADD SWAP1 PUSH2 0xDC0 SWAP1 DUP3 PUSH2 0x1958 JUMP JUMPDEST POP PUSH1 0xC0 SWAP2 SWAP1 SWAP2 ADD MLOAD PUSH1 0x6 SWAP1 SWAP2 ADD DUP1 SLOAD PUSH1 0xFF NOT AND SWAP2 ISZERO ISZERO SWAP2 SWAP1 SWAP2 OR SWAP1 SSTORE POP POP POP POP POP POP POP JUMP JUMPDEST CALLER PUSH1 0x0 SWAP1 DUP2 MSTORE PUSH1 0x3 PUSH1 0x20 MSTORE PUSH1 0x40 SWAP1 KECCAK256 PUSH1 0x5 ADD SLOAD PUSH1 0xFF AND PUSH2 0xEBE JUMPI PUSH1 0x40 DUP1 MLOAD PUSH1 0xC0 DUP2 ADD DUP3 MSTORE PUSH1 0x0 DUP1 DUP3 MSTORE PUSH1 0x1 PUSH1 0x20 DUP1 DUP5 ADD DUP3 DUP2 MSTORE DUP5 DUP7 ADD DUP5 DUP2 MSTORE TIMESTAMP PUSH1 0x60 DUP8 ADD SWAP1 DUP2 MSTORE PUSH1 0x80 DUP8 ADD DUP7 DUP2 MSTORE PUSH1 0xA0 DUP9 ADD DUP7 DUP2 MSTORE CALLER DUP9 MSTORE PUSH1 0x3 SWAP6 DUP7 SWAP1 MSTORE SWAP9 DUP8 KECCAK256 SWAP8 MLOAD DUP9 SSTORE SWAP3 MLOAD SWAP5 DUP8 ADD SWAP5 SWAP1 SWAP5 SSTORE MLOAD PUSH1 0x2 DUP7 ADD SSTORE SWAP2 MLOAD SWAP1 DUP5 ADD SSTORE MLOAD PUSH1 0x4 DUP4 ADD SSTORE SWAP2 MLOAD PUSH1 0x5 SWAP1 SWAP2 ADD DUP1 SLOAD PUSH1 0xFF NOT AND SWAP2 ISZERO ISZERO SWAP2 SWAP1 SWAP2 OR SWAP1 SSTORE PUSH1 0x8 DUP1 SLOAD SWAP2 PUSH2 0xE83 DUP4 PUSH2 0x1827 JUMP JUMPDEST SWAP1 SWAP2 SSTORE POP POP PUSH1 0x40 MLOAD TIMESTAMP DUP2 MSTORE CALLER SWAP1 PUSH32 0x324CB0062138D65997C86CD3012489CEB351D602F2F55C7408306E8040C79F3F SWAP1 PUSH1 0x20 ADD PUSH1 0x40 MLOAD DUP1 SWAP2 SUB SWAP1 LOG2 JUMPDEST JUMP JUMPDEST DUP1 MLOAD PUSH1 0x20 DUP2 DUP4 ADD DUP2 ADD DUP1 MLOAD PUSH1 0x5 DUP3 MSTORE SWAP3 DUP3 ADD SWAP2 SWAP1 SWAP4 ADD KECCAK256 SWAP2 MSTORE DUP1 SLOAD DUP2 SWAP1 PUSH2 0xEE6 SWAP1 PUSH2 0x1872 JUMP JUMPDEST DUP1 PUSH1 0x1F ADD PUSH1 0x20 DUP1 SWAP2 DIV MUL PUSH1 0x20 ADD PUSH1 0x40 MLOAD SWAP1 DUP2 ADD PUSH1 0x40 MSTORE DUP1 SWAP3 SWAP2 SWAP1 DUP2 DUP2 MSTORE PUSH1 0x20 ADD DUP3 DUP1 SLOAD PUSH2 0xF12 SWAP1 PUSH2 0x1872 JUMP JUMPDEST DUP1 ISZERO PUSH2 0xF5F JUMPI DUP1 PUSH1 0x1F LT PUSH2 0xF34 JUMPI PUSH2 0x100 DUP1 DUP4 SLOAD DIV MUL DUP4 MSTORE SWAP2 PUSH1 0x20 ADD SWAP2 PUSH2 0xF5F JUMP JUMPDEST DUP3 ADD SWAP2 SWAP1 PUSH1 0x0 MSTORE PUSH1 0x20 PUSH1 0x0 KECCAK256 SWAP1 JUMPDEST DUP2 SLOAD DUP2 MSTORE SWAP1 PUSH1 0x1 ADD SWAP1 PUSH1 0x20 ADD DUP1 DUP4 GT PUSH2 0xF42 JUMPI DUP3 SWAP1 SUB PUSH1 0x1F AND DUP3 ADD SWAP2 JUMPDEST POP POP POP POP POP SWAP1 DUP1 PUSH1 0x1 ADD SLOAD SWAP1 DUP1 PUSH1 0x2 ADD SLOAD SWAP1 DUP1 PUSH1 0x3 ADD SLOAD SWAP1 DUP1 PUSH1 0x4 ADD SLOAD SWAP1 DUP1 PUSH1 0x5 ADD DUP1 SLOAD PUSH2 0xF8C SWAP1 PUSH2 0x1872 JUMP JUMPDEST DUP1 PUSH1 0x1F ADD PUSH1 0x20 DUP1 SWAP2 DIV MUL PUSH1 0x20 ADD PUSH1 0x40 MLOAD SWAP1 DUP2 ADD PUSH1 0x40 MSTORE DUP1 SWAP3 SWAP2 SWAP1 DUP2 DUP2 MSTORE PUSH1 0x20 ADD DUP3 DUP1 SLOAD PUSH2 0xFB8 SWAP1 PUSH2 0x1872 JUMP JUMPDEST DUP1 ISZERO PUSH2 0x1005 JUMPI DUP1 PUSH1 0x1F LT PUSH2 0xFDA JUMPI PUSH2 0x100 DUP1 DUP4 SLOAD DIV MUL DUP4 MSTORE SWAP2 PUSH1 0x20 ADD SWAP2 PUSH2 0x1005 JUMP JUMPDEST DUP3 ADD SWAP2 SWAP1 PUSH1 0x0 MSTORE PUSH1 0x20 PUSH1 0x0 KECCAK256 SWAP1 JUMPDEST DUP2 SLOAD DUP2 MSTORE SWAP1 PUSH1 0x1 ADD SWAP1 PUSH1 0x20 ADD DUP1 DUP4 GT PUSH2 0xFE8 JUMPI DUP3 SWAP1 SUB PUSH1 0x1F AND DUP3 ADD SWAP2 JUMPDEST POP POP POP PUSH1 0x6 SWAP1 SWAP4 ADD SLOAD SWAP2 SWAP3 POP POP PUSH1 0xFF AND DUP8 JUMP JUMPDEST PUSH2 0x1020 PUSH2 0x1402 JUMP JUMPDEST PUSH2 0xEBE PUSH1 0x0 PUSH2 0x145C JUMP JUMPDEST PUSH2 0x1065 PUSH1 0x40 MLOAD DUP1 PUSH1 0xC0 ADD PUSH1 0x40 MSTORE DUP1 PUSH1 0x0 DUP2 MSTORE PUSH1 0x20 ADD PUSH1 0x0 DUP2 MSTORE PUSH1 0x20 ADD PUSH1 0x0 DUP2 MSTORE PUSH1 0x20 ADD PUSH1 0x0 DUP2 MSTORE PUSH1 0x20 ADD PUSH1 0x0 DUP2 MSTORE PUSH1 0x20 ADD PUSH1 0x0 ISZERO ISZERO DUP2 MSTORE POP SWAP1 JUMP JUMPDEST POP PUSH1 0x1 PUSH1 0x1 PUSH1 0xA0 SHL SUB DUP2 AND PUSH1 0x0 SWAP1 DUP2 MSTORE PUSH1 0x3 PUSH1 0x20 DUP2 DUP2 MSTORE PUSH1 0x40 DUP1 DUP5 KECCAK256 DUP2 MLOAD PUSH1 0xC0 DUP2 ADD DUP4 MSTORE DUP2 SLOAD DUP2 MSTORE PUSH1 0x1 DUP3 ADD SLOAD SWAP4 DUP2 ADD SWAP4 SWAP1 SWAP4 MSTORE PUSH1 0x2 DUP2 ADD SLOAD SWAP2 DUP4 ADD SWAP2 SWAP1 SWAP2 MSTORE SWAP2 DUP3 ADD SLOAD PUSH1 0x60 DUP3 ADD MSTORE PUSH1 0x4 DUP3 ADD SLOAD PUSH1 0x80 DUP3 ADD MSTORE PUSH1 0x5 SWAP1 SWAP2 ADD SLOAD PUSH1 0xFF AND ISZERO DUP1 ISZERO PUSH1 0xA0 DUP4 ADD MSTORE SWAP1 SWAP2 SWAP1 PUSH2 0x10F8 JUMPI PUSH1 0x0 DUP3 PUSH1 0x60 ADD MLOAD TIMESTAMP PUSH2 0x10E2 SWAP2 SWAP1 PUSH2 0x17EA JUMP JUMPDEST SWAP1 POP DUP1 DUP4 PUSH1 0x20 ADD MLOAD PUSH2 0x10F4 SWAP2 SWAP1 PUSH2 0x17FD JUMP JUMPDEST SWAP2 POP POP JUMPDEST SWAP2 POP SWAP2 JUMP JUMPDEST PUSH2 0x1105 PUSH2 0x1402 JUMP JUMPDEST PUSH1 0x1 PUSH1 0x1 PUSH1 0xA0 SHL SUB DUP2 AND PUSH2 0x116A JUMPI PUSH1 0x40 MLOAD PUSH3 0x461BCD PUSH1 0xE5 SHL DUP2 MSTORE PUSH1 0x20 PUSH1 0x4 DUP3 ADD MSTORE PUSH1 0x26 PUSH1 0x24 DUP3 ADD MSTORE PUSH32 0x4F776E61626C653A206E6577206F776E657220697320746865207A65726F2061 PUSH1 0x44 DUP3 ADD MSTORE PUSH6 0x646472657373 PUSH1 0xD0 SHL PUSH1 0x64 DUP3 ADD MSTORE PUSH1 0x84 ADD PUSH2 0x3EB JUMP JUMPDEST PUSH2 0xCB1 DUP2 PUSH2 0x145C JUMP JUMPDEST PUSH1 0x0 DUP1 PUSH1 0x5 DUP5 PUSH1 0x40 MLOAD PUSH2 0x1186 SWAP2 SWAP1 PUSH2 0x1856 JUMP JUMPDEST SWAP1 DUP2 MSTORE PUSH1 0x20 ADD PUSH1 0x40 MLOAD DUP1 SWAP2 SUB SWAP1 KECCAK256 PUSH1 0x40 MLOAD DUP1 PUSH1 0xE0 ADD PUSH1 0x40 MSTORE SWAP1 DUP2 PUSH1 0x0 DUP3 ADD DUP1 SLOAD PUSH2 0x11AF SWAP1 PUSH2 0x1872 JUMP JUMPDEST DUP1 PUSH1 0x1F ADD PUSH1 0x20 DUP1 SWAP2 DIV MUL PUSH1 0x20 ADD PUSH1 0x40 MLOAD SWAP1 DUP2 ADD PUSH1 0x40 MSTORE DUP1 SWAP3 SWAP2 SWAP1 DUP2 DUP2 MSTORE PUSH1 0x20 ADD DUP3 DUP1 SLOAD PUSH2 0x11DB SWAP1 PUSH2 0x1872 JUMP JUMPDEST DUP1 ISZERO PUSH2 0x1228 JUMPI DUP1 PUSH1 0x1F LT PUSH2 0x11FD JUMPI PUSH2 0x100 DUP1 DUP4 SLOAD DIV MUL DUP4 MSTORE SWAP2 PUSH1 0x20 ADD SWAP2 PUSH2 0x1228 JUMP JUMPDEST DUP3 ADD SWAP2 SWAP1 PUSH1 0x0 MSTORE PUSH1 0x20 PUSH1 0x0 KECCAK256 SWAP1 JUMPDEST DUP2 SLOAD DUP2 MSTORE SWAP1 PUSH1 0x1 ADD SWAP1 PUSH1 0x20 ADD DUP1 DUP4 GT PUSH2 0x120B JUMPI DUP3 SWAP1 SUB PUSH1 0x1F AND DUP3 ADD SWAP2 JUMPDEST POP POP POP POP POP DUP2 MSTORE PUSH1 0x20 ADD PUSH1 0x1 DUP3 ADD SLOAD DUP2 MSTORE PUSH1 0x20 ADD PUSH1 0x2 DUP3 ADD SLOAD DUP2 MSTORE PUSH1 0x20 ADD PUSH1 0x3 DUP3 ADD SLOAD DUP2 MSTORE PUSH1 0x20 ADD PUSH1 0x4 DUP3 ADD SLOAD DUP2 MSTORE PUSH1 0x20 ADD PUSH1 0x5 DUP3 ADD DUP1 SLOAD PUSH2 0x1269 SWAP1 PUSH2 0x1872 JUMP JUMPDEST DUP1 PUSH1 0x1F ADD PUSH1 0x20 DUP1 SWAP2 DIV MUL PUSH1 0x20 ADD PUSH1 0x40 MLOAD SWAP1 DUP2 ADD PUSH1 0x40 MSTORE DUP1 SWAP3 SWAP2 SWAP1 DUP2 DUP2 MSTORE PUSH1 0x20 ADD DUP3 DUP1 SLOAD PUSH2 0x1295 SWAP1 PUSH2 0x1872 JUMP JUMPDEST DUP1 ISZERO PUSH2 0x12E2 JUMPI DUP1 PUSH1 0x1F LT PUSH2 0x12B7 JUMPI PUSH2 0x100 DUP1 DUP4 SLOAD DIV MUL DUP4 MSTORE SWAP2 PUSH1 0x20 ADD SWAP2 PUSH2 0x12E2 JUMP JUMPDEST DUP3 ADD SWAP2 SWAP1 PUSH1 0x0 MSTORE PUSH1 0x20 PUSH1 0x0 KECCAK256 SWAP1 JUMPDEST DUP2 SLOAD DUP2 MSTORE SWAP1 PUSH1 0x1 ADD SWAP1 PUSH1 0x20 ADD DUP1 DUP4 GT PUSH2 0x12C5 JUMPI DUP3 SWAP1 SUB PUSH1 0x1F AND DUP3 ADD SWAP2 JUMPDEST POP POP POP SWAP2 DUP4 MSTORE POP POP PUSH1 0x6 SWAP2 SWAP1 SWAP2 ADD SLOAD PUSH1 0xFF AND ISZERO ISZERO PUSH1 0x20 SWAP2 DUP3 ADD MSTORE PUSH1 0x1 PUSH1 0x1 PUSH1 0xA0 SHL SUB DUP6 AND PUSH1 0x0 SWAP1 DUP2 MSTORE PUSH1 0x4 SWAP1 SWAP2 MSTORE PUSH1 0x40 DUP1 DUP3 KECCAK256 SWAP1 MLOAD SWAP3 SWAP4 POP SWAP1 SWAP2 PUSH2 0x1327 SWAP1 DUP8 SWAP1 PUSH2 0x1856 JUMP JUMPDEST SWAP1 DUP2 MSTORE PUSH1 0x20 ADD PUSH1 0x40 MLOAD DUP1 SWAP2 SUB SWAP1 KECCAK256 SLOAD SWAP1 POP PUSH2 0x134B DUP3 PUSH1 0x20 ADD MLOAD DUP4 PUSH1 0x40 ADD MLOAD DUP4 PUSH2 0x13AF JUMP JUMPDEST SWAP3 POP POP POP JUMPDEST SWAP3 SWAP2 POP POP JUMP JUMPDEST PUSH1 0x2 PUSH1 0x1 SLOAD SUB PUSH2 0x13A8 JUMPI PUSH1 0x40 MLOAD PUSH3 0x461BCD PUSH1 0xE5 SHL DUP2 MSTORE PUSH1 0x20 PUSH1 0x4 DUP3 ADD MSTORE PUSH1 0x1F PUSH1 0x24 DUP3 ADD MSTORE PUSH32 0x5265656E7472616E637947756172643A207265656E7472616E742063616C6C00 PUSH1 0x44 DUP3 ADD MSTORE PUSH1 0x64 ADD PUSH2 0x3EB JUMP JUMPDEST PUSH1 0x2 PUSH1 0x1 SSTORE JUMP JUMPDEST PUSH1 0x0 DUP2 PUSH1 0x0 SUB PUSH2 0x13C0 JUMPI POP DUP3 PUSH2 0x13FB JUMP JUMPDEST DUP4 PUSH1 0x0 JUMPDEST DUP4 DUP2 LT ISZERO PUSH2 0x13F7 JUMPI PUSH2 0x3E8 PUSH2 0x13D9 DUP7 DUP5 PUSH2 0x17FD JUMP JUMPDEST PUSH2 0x13E3 SWAP2 SWAP1 PUSH2 0x1A18 JUMP JUMPDEST SWAP2 POP DUP1 PUSH2 0x13EF DUP2 PUSH2 0x1827 JUMP JUMPDEST SWAP2 POP POP PUSH2 0x13C4 JUMP JUMPDEST POP SWAP1 POP JUMPDEST SWAP4 SWAP3 POP POP POP JUMP JUMPDEST PUSH1 0x0 SLOAD PUSH1 0x1 PUSH1 0x1 PUSH1 0xA0 SHL SUB AND CALLER EQ PUSH2 0xEBE JUMPI PUSH1 0x40 MLOAD PUSH3 0x461BCD PUSH1 0xE5 SHL DUP2 MSTORE PUSH1 0x20 PUSH1 0x4 DUP3 ADD DUP2 SWAP1 MSTORE PUSH1 0x24 DUP3 ADD MSTORE PUSH32 0x4F776E61626C653A2063616C6C6572206973206E6F7420746865206F776E6572 PUSH1 0x44 DUP3 ADD MSTORE PUSH1 0x64 ADD PUSH2 0x3EB JUMP JUMPDEST PUSH1 0x0 DUP1 SLOAD PUSH1 0x1 PUSH1 0x1 PUSH1 0xA0 SHL SUB DUP4 DUP2 AND PUSH1 0x1 PUSH1 0x1 PUSH1 0xA0 SHL SUB NOT DUP4 AND DUP2 OR DUP5 SSTORE PUSH1 0x40 MLOAD SWAP2 SWAP1 SWAP3 AND SWAP3 DUP4 SWAP2 PUSH32 0x8BE0079C531659141344CD1FD0A4F28419497F9722A3DAAFE3B4186F6B6457E0 SWAP2 SWAP1 LOG3 POP POP JUMP JUMPDEST PUSH1 0x0 DUP1 PUSH1 0x40 DUP4 DUP6 SUB SLT ISZERO PUSH2 0x14BF JUMPI PUSH1 0x0 DUP1 REVERT JUMPDEST POP POP DUP1 CALLDATALOAD SWAP3 PUSH1 0x20 SWAP1 SWAP2 ADD CALLDATALOAD SWAP2 POP JUMP JUMPDEST PUSH4 0x4E487B71 PUSH1 0xE0 SHL PUSH1 0x0 MSTORE PUSH1 0x41 PUSH1 0x4 MSTORE PUSH1 0x24 PUSH1 0x0 REVERT JUMPDEST PUSH1 0x0 DUP3 PUSH1 0x1F DUP4 ADD SLT PUSH2 0x14F5 JUMPI PUSH1 0x0 DUP1 REVERT JUMPDEST DUP2 CALLDATALOAD PUSH8 0xFFFFFFFFFFFFFFFF DUP1 DUP3 GT ISZERO PUSH2 0x1510 JUMPI PUSH2 0x1510 PUSH2 0x14CE JUMP JUMPDEST PUSH1 0x40 MLOAD PUSH1 0x1F DUP4 ADD PUSH1 0x1F NOT SWAP1 DUP2 AND PUSH1 0x3F ADD AND DUP2 ADD SWAP1 DUP3 DUP3 GT DUP2 DUP4 LT OR ISZERO PUSH2 0x1538 JUMPI PUSH2 0x1538 PUSH2 0x14CE JUMP JUMPDEST DUP2 PUSH1 0x40 MSTORE DUP4 DUP2 MSTORE DUP7 PUSH1 0x20 DUP6 DUP9 ADD ADD GT ISZERO PUSH2 0x1551 JUMPI PUSH1 0x0 DUP1 REVERT JUMPDEST DUP4 PUSH1 0x20 DUP8 ADD PUSH1 0x20 DUP4 ADD CALLDATACOPY PUSH1 0x0 PUSH1 0x20 DUP6 DUP4 ADD ADD MSTORE DUP1 SWAP5 POP POP POP POP POP SWAP3 SWAP2 POP POP JUMP JUMPDEST PUSH1 0x0 PUSH1 0x20 DUP3 DUP5 SUB SLT ISZERO PUSH2 0x1583 JUMPI PUSH1 0x0 DUP1 REVERT JUMPDEST DUP2 CALLDATALOAD PUSH8 0xFFFFFFFFFFFFFFFF DUP2 GT ISZERO PUSH2 0x159A JUMPI PUSH1 0x0 DUP1 REVERT JUMPDEST PUSH2 0x15A6 DUP5 DUP3 DUP6 ADD PUSH2 0x14E4 JUMP JUMPDEST SWAP5 SWAP4 POP POP POP POP JUMP JUMPDEST PUSH1 0x0 DUP1 PUSH1 0x0 DUP1 PUSH1 0x0 DUP1 PUSH1 0x0 PUSH1 0xE0 DUP9 DUP11 SUB SLT ISZERO PUSH2 0x15C9 JUMPI PUSH1 0x0 DUP1 REVERT JUMPDEST DUP8 CALLDATALOAD PUSH8 0xFFFFFFFFFFFFFFFF DUP1 DUP3 GT ISZERO PUSH2 0x15E1 JUMPI PUSH1 0x0 DUP1 REVERT JUMPDEST PUSH2 0x15ED DUP12 DUP4 DUP13 ADD PUSH2 0x14E4 JUMP JUMPDEST SWAP9 POP PUSH1 0x20 DUP11 ADD CALLDATALOAD SWAP2 POP DUP1 DUP3 GT ISZERO PUSH2 0x1603 JUMPI PUSH1 0x0 DUP1 REVERT JUMPDEST PUSH2 0x160F DUP12 DUP4 DUP13 ADD PUSH2 0x14E4 JUMP JUMPDEST SWAP8 POP PUSH1 0x40 DUP11 ADD CALLDATALOAD SWAP7 POP PUSH1 0x60 DUP11 ADD CALLDATALOAD SWAP6 POP PUSH1 0x80 DUP11 ADD CALLDATALOAD SWAP5 POP PUSH1 0xA0 DUP11 ADD CALLDATALOAD SWAP4 POP PUSH1 0xC0 DUP11 ADD CALLDATALOAD SWAP2 POP DUP1 DUP3 GT ISZERO PUSH2 0x1641 JUMPI PUSH1 0x0 DUP1 REVERT JUMPDEST POP PUSH2 0x164E DUP11 DUP3 DUP12 ADD PUSH2 0x14E4 JUMP JUMPDEST SWAP2 POP POP SWAP3 SWAP6 SWAP9 SWAP2 SWAP5 SWAP8 POP SWAP3 SWAP6 POP JUMP JUMPDEST PUSH1 0x0 JUMPDEST DUP4 DUP2 LT ISZERO PUSH2 0x1678 JUMPI DUP2 DUP2 ADD MLOAD DUP4 DUP3 ADD MSTORE PUSH1 0x20 ADD PUSH2 0x1660 JUMP JUMPDEST POP POP PUSH1 0x0 SWAP2 ADD MSTORE JUMP JUMPDEST PUSH1 0x0 DUP2 MLOAD DUP1 DUP5 MSTORE PUSH2 0x1699 DUP2 PUSH1 0x20 DUP7 ADD PUSH1 0x20 DUP7 ADD PUSH2 0x165D JUMP JUMPDEST PUSH1 0x1F ADD PUSH1 0x1F NOT AND SWAP3 SWAP1 SWAP3 ADD PUSH1 0x20 ADD SWAP3 SWAP2 POP POP JUMP JUMPDEST PUSH1 0xE0 DUP2 MSTORE PUSH1 0x0 PUSH2 0x16C0 PUSH1 0xE0 DUP4 ADD DUP11 PUSH2 0x1681 JUMP JUMPDEST DUP9 PUSH1 0x20 DUP5 ADD MSTORE DUP8 PUSH1 0x40 DUP5 ADD MSTORE DUP7 PUSH1 0x60 DUP5 ADD MSTORE DUP6 PUSH1 0x80 DUP5 ADD MSTORE DUP3 DUP2 SUB PUSH1 0xA0 DUP5 ADD MSTORE PUSH2 0x16EA DUP2 DUP7 PUSH2 0x1681 JUMP JUMPDEST SWAP2 POP POP DUP3 ISZERO ISZERO PUSH1 0xC0 DUP4 ADD MSTORE SWAP9 SWAP8 POP POP POP POP POP POP POP POP JUMP JUMPDEST DUP1 CALLDATALOAD PUSH1 0x1 PUSH1 0x1 PUSH1 0xA0 SHL SUB DUP2 AND DUP2 EQ PUSH2 0x1718 JUMPI PUSH1 0x0 DUP1 REVERT JUMPDEST SWAP2 SWAP1 POP JUMP JUMPDEST PUSH1 0x0 DUP1 PUSH1 0x40 DUP4 DUP6 SUB SLT ISZERO PUSH2 0x1730 JUMPI PUSH1 0x0 DUP1 REVERT JUMPDEST PUSH2 0x1739 DUP4 PUSH2 0x1701 JUMP JUMPDEST SWAP2 POP PUSH1 0x20 DUP4 ADD CALLDATALOAD PUSH8 0xFFFFFFFFFFFFFFFF DUP2 GT ISZERO PUSH2 0x1755 JUMPI PUSH1 0x0 DUP1 REVERT JUMPDEST PUSH2 0x1761 DUP6 DUP3 DUP7 ADD PUSH2 0x14E4 JUMP JUMPDEST SWAP2 POP POP SWAP3 POP SWAP3 SWAP1 POP JUMP JUMPDEST PUSH1 0x0 PUSH1 0x20 DUP3 DUP5 SUB SLT ISZERO PUSH2 0x177D JUMPI PUSH1 0x0 DUP1 REVERT JUMPDEST PUSH2 0x13FB DUP3 PUSH2 0x1701 JUMP JUMPDEST PUSH1 0x0 DUP1 PUSH1 0x40 DUP4 DUP6 SUB SLT ISZERO PUSH2 0x1799 JUMPI PUSH1 0x0 DUP1 REVERT JUMPDEST DUP3 CALLDATALOAD PUSH8 0xFFFFFFFFFFFFFFFF DUP2 GT ISZERO PUSH2 0x17B0 JUMPI PUSH1 0x0 DUP1 REVERT JUMPDEST PUSH2 0x17BC DUP6 DUP3 DUP7 ADD PUSH2 0x14E4 JUMP JUMPDEST SWAP3 POP POP PUSH2 0x17CB PUSH1 0x20 DUP5 ADD PUSH2 0x1701 JUMP JUMPDEST SWAP1 POP SWAP3 POP SWAP3 SWAP1 POP JUMP JUMPDEST PUSH4 0x4E487B71 PUSH1 0xE0 SHL PUSH1 0x0 MSTORE PUSH1 0x11 PUSH1 0x4 MSTORE PUSH1 0x24 PUSH1 0x0 REVERT JUMPDEST DUP2 DUP2 SUB DUP2 DUP2 GT ISZERO PUSH2 0x1350 JUMPI PUSH2 0x1350 PUSH2 0x17D4 JUMP JUMPDEST DUP1 DUP3 MUL DUP2 ISZERO DUP3 DUP3 DIV DUP5 EQ OR PUSH2 0x1350 JUMPI PUSH2 0x1350 PUSH2 0x17D4 JUMP JUMPDEST DUP1 DUP3 ADD DUP1 DUP3 GT ISZERO PUSH2 0x1350 JUMPI PUSH2 0x1350 PUSH2 0x17D4 JUMP JUMPDEST PUSH1 0x0 PUSH1 0x1 DUP3 ADD PUSH2 0x1839 JUMPI PUSH2 0x1839 PUSH2 0x17D4 JUMP JUMPDEST POP PUSH1 0x1 ADD SWAP1 JUMP JUMPDEST PUSH4 0x4E487B71 PUSH1 0xE0 SHL PUSH1 0x0 MSTORE PUSH1 0x32 PUSH1 0x4 MSTORE PUSH1 0x24 PUSH1 0x0 REVERT JUMPDEST PUSH1 0x0 DUP3 MLOAD PUSH2 0x1868 DUP2 DUP5 PUSH1 0x20 DUP8 ADD PUSH2 0x165D JUMP JUMPDEST SWAP2 SWAP1 SWAP2 ADD SWAP3 SWAP2 POP POP JUMP JUMPDEST PUSH1 0x1 DUP2 DUP2 SHR SWAP1 DUP3 AND DUP1 PUSH2 0x1886 JUMPI PUSH1 0x7F DUP3 AND SWAP2 POP JUMPDEST PUSH1 0x20 DUP3 LT DUP2 SUB PUSH2 0x18A6 JUMPI PUSH4 0x4E487B71 PUSH1 0xE0 SHL PUSH1 0x0 MSTORE PUSH1 0x22 PUSH1 0x4 MSTORE PUSH1 0x24 PUSH1 0x0 REVERT JUMPDEST POP SWAP2 SWAP1 POP JUMP JUMPDEST PUSH1 0x0 PUSH1 0x20 DUP3 DUP5 SUB SLT ISZERO PUSH2 0x18BE JUMPI PUSH1 0x0 DUP1 REVERT JUMPDEST POP MLOAD SWAP2 SWAP1 POP JUMP JUMPDEST PUSH1 0xA0 DUP2 MSTORE PUSH1 0x0 PUSH2 0x18D8 PUSH1 0xA0 DUP4 ADD DUP9 PUSH2 0x1681 JUMP JUMPDEST DUP7 PUSH1 0x20 DUP5 ADD MSTORE DUP6 PUSH1 0x40 DUP5 ADD MSTORE DUP3 DUP2 SUB PUSH1 0x60 DUP5 ADD MSTORE PUSH2 0x18F6 DUP2 DUP7 PUSH2 0x1681 JUMP JUMPDEST SWAP2 POP POP DUP3 PUSH1 0x80 DUP4 ADD MSTORE SWAP7 SWAP6 POP POP POP POP POP POP JUMP JUMPDEST PUSH1 0x1F DUP3 GT ISZERO PUSH2 0x1953 JUMPI PUSH1 0x0 DUP2 DUP2 MSTORE PUSH1 0x20 DUP2 KECCAK256 PUSH1 0x1F DUP6 ADD PUSH1 0x5 SHR DUP2 ADD PUSH1 0x20 DUP7 LT ISZERO PUSH2 0x1930 JUMPI POP DUP1 JUMPDEST PUSH1 0x1F DUP6 ADD PUSH1 0x5 SHR DUP3 ADD SWAP2 POP JUMPDEST DUP2 DUP2 LT ISZERO PUSH2 0x194F JUMPI DUP3 DUP2 SSTORE PUSH1 0x1 ADD PUSH2 0x193C JUMP JUMPDEST POP POP POP JUMPDEST POP POP POP JUMP JUMPDEST DUP2 MLOAD PUSH8 0xFFFFFFFFFFFFFFFF DUP2 GT ISZERO PUSH2 0x1972 JUMPI PUSH2 0x1972 PUSH2 0x14CE JUMP JUMPDEST PUSH2 0x1986 DUP2 PUSH2 0x1980 DUP5 SLOAD PUSH2 0x1872 JUMP JUMPDEST DUP5 PUSH2 0x1909 JUMP JUMPDEST PUSH1 0x20 DUP1 PUSH1 0x1F DUP4 GT PUSH1 0x1 DUP2 EQ PUSH2 0x19BB JUMPI PUSH1 0x0 DUP5 ISZERO PUSH2 0x19A3 JUMPI POP DUP6 DUP4 ADD MLOAD JUMPDEST PUSH1 0x0 NOT PUSH1 0x3 DUP7 SWAP1 SHL SHR NOT AND PUSH1 0x1 DUP6 SWAP1 SHL OR DUP6 SSTORE PUSH2 0x194F JUMP JUMPDEST PUSH1 0x0 DUP6 DUP2 MSTORE PUSH1 0x20 DUP2 KECCAK256 PUSH1 0x1F NOT DUP7 AND SWAP2 JUMPDEST DUP3 DUP2 LT ISZERO PUSH2 0x19EA JUMPI DUP9 DUP7 ADD MLOAD DUP3 SSTORE SWAP5 DUP5 ADD SWAP5 PUSH1 0x1 SWAP1 SWAP2 ADD SWAP1 DUP5 ADD PUSH2 0x19CB JUMP JUMPDEST POP DUP6 DUP3 LT ISZERO PUSH2 0x1A08 JUMPI DUP8 DUP6 ADD MLOAD PUSH1 0x0 NOT PUSH1 0x3 DUP9 SWAP1 SHL PUSH1 0xF8 AND SHR NOT AND DUP2 SSTORE JUMPDEST POP POP POP POP POP PUSH1 0x1 SWAP1 DUP2 SHL ADD SWAP1 SSTORE POP JUMP JUMPDEST PUSH1 0x0 DUP3 PUSH2 0x1A35 JUMPI PUSH4 0x4E487B71 PUSH1 0xE0 SHL PUSH1 0x0 MSTORE PUSH1 0x12 PUSH1 0x4 MSTORE PUSH1 0x24 PUSH1 0x0 REVERT JUMPDEST POP DIV SWAP1 JUMP INVALID LOG2 PUSH5 0x6970667358 0x22 SLT KECCAK256 PUSH10 0x5E9C176B4C68B0D787D7 SWAP1 LOG2 MLOAD 0xB6 0xD3 0xE3 DUP13 DUP16 0x4F PUSH10 0xD47DE269D30575411493 0xC8 PUSH5 0x736F6C6343 STOP ADDMOD SGT STOP CALLER "},"methodIdentifiers":{"activatePrestige()":"26f3fde0","addUpgrade(string,string,uint256,uint256,uint256,uint256,string)":"4a4a541e","creditsContract()":"0642bc41","getPlayerState(address)":"c01ca43f","getUpgradeCost(string,address)":"f737e818","owner()":"8da5cb5b","playerStates(address)":"d15e55b7","playerUpgrades(address,string)":"a0bbc59e","purchaseUpgrade(string)":"473ec38d","registerPlayer()":"5c07a4b0","renounceOwnership()":"715018a6","saveGameState(uint256,uint256)":"252d9197","toggleUpgrade(string)":"48113d40","totalCreditsSpent(address)":"f398467b","totalPlayers()":"f60cdcf6","totalStardustEarned(address)":"e3dbf6a6","totalStardustGenerated()":"aad135d4","transferOwnership(address)":"f2fde38b","upgradeConfigs(string)":"66243339"}}}}}