{"contracts/P2ERewards.sol":{"P2ERewards":{"abi":[{"inputs":[{"internalType":"address payable","name":"_creditsContract","type":"address"}],"stateMutability":"nonpayable","type":"constructor"},{"anonymous":false,"inputs":[{"indexed":false,"internalType":"uint256","name":"newLimit","type":"uint256"},{"indexed":false,"internalType":"uint256","name":"timestamp","type":"uint256"}],"name":"DailyLimitUpdated","type":"event"},{"anonymous":false,"inputs":[{"indexed":true,"internalType":"address","name":"previousOwner","type":"address"},{"indexed":true,"internalType":"address","name":"newOwner","type":"address"}],"name":"OwnershipTransferred","type":"event"},{"anonymous":false,"inputs":[{"indexed":false,"internalType":"uint256","name":"amount","type":"uint256"},{"indexed":false,"internalType":"uint256","name":"timestamp","type":"uint256"}],"name":"RewardPoolFunded","type":"event"},{"anonymous":false,"inputs":[{"indexed":false,"internalType":"uint256","name":"newRate","type":"uint256"},{"indexed":false,"internalType":"uint256","name":"timestamp","type":"uint256"}],"name":"RewardRateUpdated","type":"event"},{"anonymous":false,"inputs":[{"indexed":true,"internalType":"address","name":"player","type":"address"},{"indexed":false,"internalType":"uint256","name":"stardustAmount","type":"uint256"},{"indexed":false,"internalType":"uint256","name":"cfxAmount","type":"uint256"},{"indexed":false,"internalType":"uint256","name":"timestamp","type":"uint256"}],"name":"StardustExchanged","type":"event"},{"inputs":[],"name":"creditsContract","outputs":[{"internalType":"contract StarMinerCredits","name":"","type":"address"}],"stateMutability":"view","type":"function"},{"inputs":[],"name":"dailyRewardLimit","outputs":[{"internalType":"uint256","name":"","type":"uint256"}],"stateMutability":"view","type":"function"},{"inputs":[{"internalType":"address","name":"","type":"address"}],"name":"dailyRewardsClaimed","outputs":[{"internalType":"uint256","name":"","type":"uint256"}],"stateMutability":"view","type":"function"},{"inputs":[],"name":"emergencyWithdraw","outputs":[],"stateMutability":"nonpayable","type":"function"},{"inputs":[{"internalType":"uint256","name":"stardustAmount","type":"uint256"}],"name":"exchangeStardustForCFX","outputs":[],"stateMutability":"nonpayable","type":"function"},{"inputs":[],"name":"fundRewardPool","outputs":[],"stateMutability":"payable","type":"function"},{"inputs":[],"name":"getContractStats","outputs":[{"internalType":"uint256","name":"totalPool","type":"uint256"},{"internalType":"uint256","name":"totalDistributed","type":"uint256"},{"internalType":"uint256","name":"exchangeRate","type":"uint256"},{"internalType":"uint256","name":"dailyLimit","type":"uint256"},{"internalType":"uint256","name":"minStardust","type":"uint256"}],"stateMutability":"view","type":"function"},{"inputs":[{"internalType":"address","name":"player","type":"address"}],"name":"getExchangeInfo","outputs":[{"internalType":"uint256","name":"rate","type":"uint256"},{"internalType":"uint256","name":"dailyLimit","type":"uint256"},{"internalType":"uint256","name":"remainingDaily","type":"uint256"},{"internalType":"uint256","name":"poolBalance","type":"uint256"},{"internalType":"uint256","name":"playerStardust","type":"uint256"}],"stateMutability":"view","type":"function"},{"inputs":[{"internalType":"address","name":"player","type":"address"}],"name":"getMaxClaimable","outputs":[{"internalType":"uint256","name":"","type":"uint256"}],"stateMutability":"view","type":"function"},{"inputs":[{"internalType":"address","name":"player","type":"address"}],"name":"getPlayerRewardStats","outputs":[{"internalType":"uint256","name":"totalClaimed","type":"uint256"},{"internalType":"uint256","name":"dailyClaimed","type":"uint256"},{"internalType":"uint256","name":"lastClaim","type":"uint256"},{"internalType":"uint256","name":"availableStardust","type":"uint256"}],"stateMutability":"view","type":"function"},{"inputs":[{"internalType":"address","name":"player","type":"address"}],"name":"getTimeUntilReset","outputs":[{"internalType":"uint256","name":"","type":"uint256"}],"stateMutability":"view","type":"function"},{"inputs":[{"internalType":"address","name":"","type":"address"}],"name":"lastClaimDate","outputs":[{"internalType":"uint256","name":"","type":"uint256"}],"stateMutability":"view","type":"function"},{"inputs":[],"name":"minimumStardust","outputs":[{"internalType":"uint256","name":"","type":"uint256"}],"stateMutability":"view","type":"function"},{"inputs":[],"name":"owner","outputs":[{"internalType":"address","name":"","type":"address"}],"stateMutability":"view","type":"function"},{"inputs":[],"name":"renounceOwnership","outputs":[],"stateMutability":"nonpayable","type":"function"},{"inputs":[],"name":"rewardPool","outputs":[{"internalType":"uint256","name":"","type":"uint256"}],"stateMutability":"view","type":"function"},{"inputs":[],"name":"rewardPoolFeePercent","outputs":[{"internalType":"uint256","name":"","type":"uint256"}],"stateMutability":"view","type":"function"},{"inputs":[{"internalType":"uint256","name":"newLimit","type":"uint256"}],"name":"setDailyLimit","outputs":[],"stateMutability":"nonpayable","type":"function"},{"inputs":[{"internalType":"uint256","name":"newRate","type":"uint256"}],"name":"setExchangeRate","outputs":[],"stateMutability":"nonpayable","type":"function"},{"inputs":[{"internalType":"uint256","name":"newMinimum","type":"uint256"}],"name":"setMinimumStardust","outputs":[],"stateMutability":"nonpayable","type":"function"},{"inputs":[{"internalType":"uint256","name":"newPercent","type":"uint256"}],"name":"setRewardPoolFeePercent","outputs":[],"stateMutability":"nonpayable","type":"function"},{"inputs":[],"name":"stardustToCFXRate","outputs":[{"internalType":"uint256","name":"","type":"uint256"}],"stateMutability":"view","type":"function"},{"inputs":[{"internalType":"address","name":"","type":"address"}],"name":"totalRewardsClaimed","outputs":[{"internalType":"uint256","name":"","type":"uint256"}],"stateMutability":"view","type":"function"},{"inputs":[],"name":"totalRewardsDistributed","outputs":[{"internalType":"uint256","name":"","type":"uint256"}],"stateMutability":"view","type":"function"},{"inputs":[{"internalType":"address","name":"newOwner","type":"address"}],"name":"transferOwnership","outputs":[],"stateMutability":"nonpayable","type":"function"},{"stateMutability":"payable","type":"receive"}],"evm":{"bytecode":{"linkReferences":{},"object":"6080604052612710600355670de0b6b3a7640000600455612710600555600560085534801561002d57600080fd5b5060405161121d38038061121d83398101604081905261004c916100ce565b6100553361007e565b60018055600280546001600160a01b0319166001600160a01b03929092169190911790556100fe565b600080546001600160a01b038381166001600160a01b0319831681178455604051919092169283917f8be0079c531659141344cd1fd0a4f28419497f9722a3daafe3b4186f6b6457e09190a35050565b6000602082840312156100e057600080fd5b81516001600160a01b03811681146100f757600080fd5b9392505050565b6111108061010d6000396000f3fe60806040526004361061016a5760003560e01c80638da5cb5b116100d1578063db068e0e1161008a578063dfe6b5d611610064578063dfe6b5d614610492578063ee172546146104b3578063f2fde38b146104c9578063f6ce9004146104e957600080fd5b8063db068e0e14610430578063db2e21bc14610450578063dda82b1f1461046557600080fd5b80638da5cb5b1461036657806391aa50aa1461038457806397ec913c1461039a5780639fc4622f146103b0578063adb90e3d146103d0578063b20d30a91461041057600080fd5b8063367faa5b11610123578063367faa5b146102b8578063534675a1146102d85780636052ccb0146102ee57806366666aa91461031b578063715018a614610331578063882dad4a1461034657600080fd5b80630642bc41146101c557806311bbf03c146102025780631bb828e314610226578063208283391461026e5780632da0a908146102785780632f2ca3351461029857600080fd5b366101c05734600660008282546101819190611019565b9091555050604080513481524260208201527f5451f0d28a59c1c16a9d7cc5017150d585749eb225366037423f94b85ad94ea7910160405180910390a1005b600080fd5b3480156101d157600080fd5b506002546101e5906001600160a01b031681565b6040516001600160a01b0390911681526020015b60405180910390f35b34801561020e57600080fd5b5061021860035481565b6040519081526020016101f9565b34801561023257600080fd5b5061024661024136600461102c565b610516565b604080519586526020860194909452928401919091526060830152608082015260a0016101f9565b610276610609565b005b34801561028457600080fd5b5061021861029336600461102c565b61065a565b3480156102a457600080fd5b506102766102b336600461105c565b6106c6565b3480156102c457600080fd5b506102766102d336600461105c565b610aae565b3480156102e457600080fd5b5061021860085481565b3480156102fa57600080fd5b5061021861030936600461102c565b600a6020526000908152604090205481565b34801561032757600080fd5b5061021860065481565b34801561033d57600080fd5b50610276610abb565b34801561035257600080fd5b5061027661036136600461105c565b610acf565b34801561037257600080fd5b506000546001600160a01b03166101e5565b34801561039057600080fd5b5061021860045481565b3480156103a657600080fd5b5061021860055481565b3480156103bc57600080fd5b506102186103cb36600461102c565b610b25565b3480156103dc57600080fd5b506103f06103eb36600461102c565b610c60565b6040805194855260208501939093529183015260608201526080016101f9565b34801561041c57600080fd5b5061027661042b36600461105c565b610d04565b34801561043c57600080fd5b5061027661044b36600461105c565b610d4d565b34801561045c57600080fd5b50610276610dd7565b34801561047157600080fd5b5061021861048036600461102c565b60096020526000908152604090205481565b34801561049e57600080fd5b50600654600754600354600454600554610246565b3480156104bf57600080fd5b5061021860075481565b3480156104d557600080fd5b506102766104e436600461102c565b610e8a565b3480156104f557600080fd5b5061021861050436600461102c565b600b6020526000908152604090205481565b600354600480546006546002546040516323a438ff60e21b8152929360009384926001600160a01b031691638e90e3fc91610562918a91016001600160a01b0391909116815260200190565b602060405180830381865afa15801561057f573d6000803e3d6000fd5b505050506040513d601f19601f820116820180604052508101906105a39190611075565b6001600160a01b0387166000908152600a60205260409020549091506105cc9062015180611019565b42106105da57839250610600565b6001600160a01b0386166000908152600960205260409020546105fd908561108e565b92505b91939590929450565b346006600082825461061b9190611019565b9091555050604080513481524260208201527f5451f0d28a59c1c16a9d7cc5017150d585749eb225366037423f94b85ad94ea7910160405180910390a1565b6001600160a01b0381166000908152600a60205260408120546106809062015180611019565b421061068e57506000919050565b6001600160a01b0382166000908152600a602052604090205442906106b69062015180611019565b6106c0919061108e565b92915050565b6106ce610f00565b6005548110156107255760405162461bcd60e51b815260206004820152601d60248201527f42656c6f77206d696e696d756d2065786368616e676520616d6f756e7400000060448201526064015b60405180910390fd5b6002546040516323a438ff60e21b815233600482015282916001600160a01b031690638e90e3fc90602401602060405180830381865afa15801561076d573d6000803e3d6000fd5b505050506040513d601f19601f820116820180604052508101906107919190611075565b10156107d75760405162461bcd60e51b8152602060048201526015602482015274125b9cdd59999a58da595b9d081cdd185c991d5cdd605a1b604482015260640161071c565b336000908152600a60205260409020546107f49062015180611019565b421061081a57336000908152600960209081526040808320839055600a90915290204290555b60035460009061083283670de0b6b3a76400006110a1565b61083c91906110b8565b600454336000908152600960205260409020549192509061085e908390611019565b11156108a35760405162461bcd60e51b815260206004820152601460248201527311185a5b1e481b1a5b5a5d08195e18d95959195960621b604482015260640161071c565b8060065410156108f55760405162461bcd60e51b815260206004820152601860248201527f496e73756666696369656e742072657761726420706f6f6c0000000000000000604482015260640161071c565b60025460405163593ee7fd60e11b8152336004820152600060248201526001600160a01b039091169063b27dcffa90604401600060405180830381600087803b15801561094157600080fd5b505af1158015610955573d6000803e3d6000fd5b50503360009081526009602052604081208054859450909250610979908490611019565b9091555050336000908152600b60205260408120805483929061099d908490611019565b9250508190555080600660008282546109b6919061108e565b9250508190555080600760008282546109cf9190611019565b9091555050604051600090339083908381818185875af1925050503d8060008114610a16576040519150601f19603f3d011682016040523d82523d6000602084013e610a1b565b606091505b5050905080610a5e5760405162461bcd60e51b815260206004820152600f60248201526e151c985b9cd9995c8819985a5b1959608a1b604482015260640161071c565b60408051848152602081018490524281830152905133917fedd12712bf315d7c5ea5c44f4712acea82680bec7b9ab130961b0f03e7723f54919081900360600190a25050610aab60018055565b50565b610ab6610f59565b600555565b610ac3610f59565b610acd6000610fb3565b565b610ad7610f59565b6014811115610b205760405162461bcd60e51b81526020600482015260156024820152744665652063616e6e6f74206578636565642032302560581b604482015260640161071c565b600855565b6002546040516323a438ff60e21b81526001600160a01b0383811660048301526000928392911690638e90e3fc90602401602060405180830381865afa158015610b73573d6000803e3d6000fd5b505050506040513d601f19601f82011682018060405250810190610b979190611075565b9050600554811015610bac5750600092915050565b600354600090610bc483670de0b6b3a76400006110a1565b610bce91906110b8565b6001600160a01b0385166000908152600a602052604081205491925090610bf89062015180611019565b4210610c075750600454610c30565b6001600160a01b038516600090815260096020526040902054600454610c2d919061108e565b90505b6000818311610c3f5782610c41565b815b90506006548111610c525780610c56565b6006545b9695505050505050565b6001600160a01b038181166000818152600b60209081526040808320546009835281842054600a9093528184205460025492516323a438ff60e21b81526004810196909652909592949093929190911690638e90e3fc90602401602060405180830381865afa158015610cd7573d6000803e3d6000fd5b505050506040513d601f19601f82011682018060405250810190610cfb9190611075565b90509193509193565b610d0c610f59565b6004819055604080518281524260208201527f207c4cbdf55ec315a13f0d5e047732ec5d947da056e706593aa509909941cedf91015b60405180910390a150565b610d55610f59565b60008111610d9d5760405162461bcd60e51b815260206004820152601560248201527452617465206d75737420626520706f73697469766560581b604482015260640161071c565b6003819055604080518281524260208201527fc390a98ace15a7bb6bab611eedfdbb2685043b241a869420043cdfb23ccfee509101610d42565b610ddf610f59565b476000610df46000546001600160a01b031690565b6001600160a01b03168260405160006040518083038185875af1925050503d8060008114610e3e576040519150601f19603f3d011682016040523d82523d6000602084013e610e43565b606091505b5050905080610e865760405162461bcd60e51b815260206004820152600f60248201526e151c985b9cd9995c8819985a5b1959608a1b604482015260640161071c565b5050565b610e92610f59565b6001600160a01b038116610ef75760405162461bcd60e51b815260206004820152602660248201527f4f776e61626c653a206e6577206f776e657220697320746865207a65726f206160448201526564647265737360d01b606482015260840161071c565b610aab81610fb3565b600260015403610f525760405162461bcd60e51b815260206004820152601f60248201527f5265656e7472616e637947756172643a207265656e7472616e742063616c6c00604482015260640161071c565b6002600155565b6000546001600160a01b03163314610acd5760405162461bcd60e51b815260206004820181905260248201527f4f776e61626c653a2063616c6c6572206973206e6f7420746865206f776e6572604482015260640161071c565b600080546001600160a01b038381166001600160a01b0319831681178455604051919092169283917f8be0079c531659141344cd1fd0a4f28419497f9722a3daafe3b4186f6b6457e09190a35050565b634e487b7160e01b600052601160045260246000fd5b808201808211156106c0576106c0611003565b60006020828403121561103e57600080fd5b81356001600160a01b038116811461105557600080fd5b9392505050565b60006020828403121561106e57600080fd5b5035919050565b60006020828403121561108757600080fd5b5051919050565b818103818111156106c0576106c0611003565b80820281158282048414176106c0576106c0611003565b6000826110d557634e487b7160e01b600052601260045260246000fd5b50049056fea26469706673582212207673b147e1baac720eefc0665b58d43d616b9c19f704a7c4f21096296f8a163464736f6c63430008130033","opcodes":"PUSH1 0x80 PUSH1 0x40 MSTORE PUSH2 0x2710 PUSH1 0x3 SSTORE PUSH8 0xDE0B6B3A7640000 PUSH1 0x4 SSTORE PUSH2 0x2710 PUSH1 0x5 SSTORE PUSH1 0x5 PUSH1 0x8 SSTORE CALLVALUE DUP1 ISZERO PUSH2 0x2D JUMPI PUSH1 0x0 DUP1 REVERT JUMPDEST POP PUSH1 0x40 MLOAD PUSH2 0x121D CODESIZE SUB DUP1 PUSH2 0x121D DUP4 CODECOPY DUP2 ADD PUSH1 0x40 DUP2 SWAP1 MSTORE PUSH2 0x4C SWAP2 PUSH2 0xCE JUMP JUMPDEST PUSH2 0x55 CALLER PUSH2 0x7E JUMP JUMPDEST PUSH1 0x1 DUP1 SSTORE PUSH1 0x2 DUP1 SLOAD PUSH1 0x1 PUSH1 0x1 PUSH1 0xA0 SHL SUB NOT AND PUSH1 0x1 PUSH1 0x1 PUSH1 0xA0 SHL SUB SWAP3 SWAP1 SWAP3 AND SWAP2 SWAP1 SWAP2 OR SWAP1 SSTORE PUSH2 0xFE JUMP JUMPDEST PUSH1 0x0 DUP1 SLOAD PUSH1 0x1 PUSH1 0x1 PUSH1 0xA0 SHL SUB DUP4 DUP2 AND PUSH1 0x1 PUSH1 0x1 PUSH1 0xA0 SHL SUB NOT DUP4 AND DUP2 OR DUP5 SSTORE PUSH1 0x40 MLOAD SWAP2 SWAP1 SWAP3 AND SWAP3 DUP4 SWAP2 PUSH32 0x8BE0079C531659141344CD1FD0A4F28419497F9722A3DAAFE3B4186F6B6457E0 SWAP2 SWAP1 LOG3 POP POP JUMP JUMPDEST PUSH1 0x0 PUSH1 0x20 DUP3 DUP5 SUB SLT ISZERO PUSH2 0xE0 JUMPI PUSH1 0x0 DUP1 REVERT JUMPDEST DUP2 MLOAD PUSH1 0x1 PUSH1 0x1 PUSH1 0xA0 SHL SUB DUP2 AND DUP2 EQ PUSH2 0xF7 JUMPI PUSH1 0x0 DUP1 REVERT JUMPDEST SWAP4 SWAP3 POP POP POP JUMP JUMPDEST PUSH2 0x1110 DUP1 PUSH2 0x10D PUSH1 0x0 CODECOPY PUSH1 0x0 RETURN INVALID PUSH1 0x80 PUSH1 0x40 MSTORE PUSH1 0x4 CALLDATASIZE LT PUSH2 0x16A JUMPI PUSH1 0x0 CALLDATALOAD PUSH1 0xE0 SHR DUP1 PUSH4 0x8DA5CB5B GT PUSH2 0xD1 JUMPI DUP1 PUSH4 0xDB068E0E GT PUSH2 0x8A JUMPI DUP1 PUSH4 0xDFE6B5D6 GT PUSH2 0x64 JUMPI DUP1 PUSH4 0xDFE6B5D6 EQ PUSH2 0x492 JUMPI DUP1 PUSH4 0xEE172546 EQ PUSH2 0x4B3 JUMPI DUP1 PUSH4 0xF2FDE38B EQ PUSH2 0x4C9 JUMPI DUP1 PUSH4 0xF6CE9004 EQ PUSH2 0x4E9 JUMPI PUSH1 0x0 DUP1 REVERT JUMPDEST DUP1 PUSH4 0xDB068E0E EQ PUSH2 0x430 JUMPI DUP1 PUSH4 0xDB2E21BC EQ PUSH2 0x450 JUMPI DUP1 PUSH4 0xDDA82B1F EQ PUSH2 0x465 JUMPI PUSH1 0x0 DUP1 REVERT JUMPDEST DUP1 PUSH4 0x8DA5CB5B EQ PUSH2 0x366 JUMPI DUP1 PUSH4 0x91AA50AA EQ PUSH2 0x384 JUMPI DUP1 PUSH4 0x97EC913C EQ PUSH2 0x39A JUMPI DUP1 PUSH4 0x9FC4622F EQ PUSH2 0x3B0 JUMPI DUP1 PUSH4 0xADB90E3D EQ PUSH2 0x3D0 JUMPI DUP1 PUSH4 0xB20D30A9 EQ PUSH2 0x410 JUMPI PUSH1 0x0 DUP1 REVERT JUMPDEST DUP1 PUSH4 0x367FAA5B GT PUSH2 0x123 JUMPI DUP1 PUSH4 0x367FAA5B EQ PUSH2 0x2B8 JUMPI DUP1 PUSH4 0x534675A1 EQ PUSH2 0x2D8 JUMPI DUP1 PUSH4 0x6052CCB0 EQ PUSH2 0x2EE JUMPI DUP1 PUSH4 0x66666AA9 EQ PUSH2 0x31B JUMPI DUP1 PUSH4 0x715018A6 EQ PUSH2 0x331 JUMPI DUP1 PUSH4 0x882DAD4A EQ PUSH2 0x346 JUMPI PUSH1 0x0 DUP1 REVERT JUMPDEST DUP1 PUSH4 0x642BC41 EQ PUSH2 0x1C5 JUMPI DUP1 PUSH4 0x11BBF03C EQ PUSH2 0x202 JUMPI DUP1 PUSH4 0x1BB828E3 EQ PUSH2 0x226 JUMPI DUP1 PUSH4 0x20828339 EQ PUSH2 0x26E JUMPI DUP1 PUSH4 0x2DA0A908 EQ PUSH2 0x278 JUMPI DUP1 PUSH4 0x2F2CA335 EQ PUSH2 0x298 JUMPI PUSH1 0x0 DUP1 REVERT JUMPDEST CALLDATASIZE PUSH2 0x1C0 JUMPI CALLVALUE PUSH1 0x6 PUSH1 0x0 DUP3 DUP3 SLOAD PUSH2 0x181 SWAP2 SWAP1 PUSH2 0x1019 JUMP JUMPDEST SWAP1 SWAP2 SSTORE POP POP PUSH1 0x40 DUP1 MLOAD CALLVALUE DUP2 MSTORE TIMESTAMP PUSH1 0x20 DUP3 ADD MSTORE PUSH32 0x5451F0D28A59C1C16A9D7CC5017150D585749EB225366037423F94B85AD94EA7 SWAP2 ADD PUSH1 0x40 MLOAD DUP1 SWAP2 SUB SWAP1 LOG1 STOP JUMPDEST PUSH1 0x0 DUP1 REVERT JUMPDEST CALLVALUE DUP1 ISZERO PUSH2 0x1D1 JUMPI PUSH1 0x0 DUP1 REVERT JUMPDEST POP PUSH1 0x2 SLOAD PUSH2 0x1E5 SWAP1 PUSH1 0x1 PUSH1 0x1 PUSH1 0xA0 SHL SUB AND DUP2 JUMP JUMPDEST PUSH1 0x40 MLOAD PUSH1 0x1 PUSH1 0x1 PUSH1 0xA0 SHL SUB SWAP1 SWAP2 AND DUP2 MSTORE PUSH1 0x20 ADD JUMPDEST PUSH1 0x40 MLOAD DUP1 SWAP2 SUB SWAP1 RETURN JUMPDEST CALLVALUE DUP1 ISZERO PUSH2 0x20E JUMPI PUSH1 0x0 DUP1 REVERT JUMPDEST POP PUSH2 0x218 PUSH1 0x3 SLOAD DUP2 JUMP JUMPDEST PUSH1 0x40 MLOAD SWAP1 DUP2 MSTORE PUSH1 0x20 ADD PUSH2 0x1F9 JUMP JUMPDEST CALLVALUE DUP1 ISZERO PUSH2 0x232 JUMPI PUSH1 0x0 DUP1 REVERT JUMPDEST POP PUSH2 0x246 PUSH2 0x241 CALLDATASIZE PUSH1 0x4 PUSH2 0x102C JUMP JUMPDEST PUSH2 0x516 JUMP JUMPDEST PUSH1 0x40 DUP1 MLOAD SWAP6 DUP7 MSTORE PUSH1 0x20 DUP7 ADD SWAP5 SWAP1 SWAP5 MSTORE SWAP3 DUP5 ADD SWAP2 SWAP1 SWAP2 MSTORE PUSH1 0x60 DUP4 ADD MSTORE PUSH1 0x80 DUP3 ADD MSTORE PUSH1 0xA0 ADD PUSH2 0x1F9 JUMP JUMPDEST PUSH2 0x276 PUSH2 0x609 JUMP JUMPDEST STOP JUMPDEST CALLVALUE DUP1 ISZERO PUSH2 0x284 JUMPI PUSH1 0x0 DUP1 REVERT JUMPDEST POP PUSH2 0x218 PUSH2 0x293 CALLDATASIZE PUSH1 0x4 PUSH2 0x102C JUMP JUMPDEST PUSH2 0x65A JUMP JUMPDEST CALLVALUE DUP1 ISZERO PUSH2 0x2A4 JUMPI PUSH1 0x0 DUP1 REVERT JUMPDEST POP PUSH2 0x276 PUSH2 0x2B3 CALLDATASIZE PUSH1 0x4 PUSH2 0x105C JUMP JUMPDEST PUSH2 0x6C6 JUMP JUMPDEST CALLVALUE DUP1 ISZERO PUSH2 0x2C4 JUMPI PUSH1 0x0 DUP1 REVERT JUMPDEST POP PUSH2 0x276 PUSH2 0x2D3 CALLDATASIZE PUSH1 0x4 PUSH2 0x105C JUMP JUMPDEST PUSH2 0xAAE JUMP JUMPDEST CALLVALUE DUP1 ISZERO PUSH2 0x2E4 JUMPI PUSH1 0x0 DUP1 REVERT JUMPDEST POP PUSH2 0x218 PUSH1 0x8 SLOAD DUP2 JUMP JUMPDEST CALLVALUE DUP1 ISZERO PUSH2 0x2FA JUMPI PUSH1 0x0 DUP1 REVERT JUMPDEST POP PUSH2 0x218 PUSH2 0x309 CALLDATASIZE PUSH1 0x4 PUSH2 0x102C JUMP JUMPDEST PUSH1 0xA PUSH1 0x20 MSTORE PUSH1 0x0 SWAP1 DUP2 MSTORE PUSH1 0x40 SWAP1 KECCAK256 SLOAD DUP2 JUMP JUMPDEST CALLVALUE DUP1 ISZERO PUSH2 0x327 JUMPI PUSH1 0x0 DUP1 REVERT JUMPDEST POP PUSH2 0x218 PUSH1 0x6 SLOAD DUP2 JUMP JUMPDEST CALLVALUE DUP1 ISZERO PUSH2 0x33D JUMPI PUSH1 0x0 DUP1 REVERT JUMPDEST POP PUSH2 0x276 PUSH2 0xABB JUMP JUMPDEST CALLVALUE DUP1 ISZERO PUSH2 0x352 JUMPI PUSH1 0x0 DUP1 REVERT JUMPDEST POP PUSH2 0x276 PUSH2 0x361 CALLDATASIZE PUSH1 0x4 PUSH2 0x105C JUMP JUMPDEST PUSH2 0xACF JUMP JUMPDEST CALLVALUE DUP1 ISZERO PUSH2 0x372 JUMPI PUSH1 0x0 DUP1 REVERT JUMPDEST POP PUSH1 0x0 SLOAD PUSH1 0x1 PUSH1 0x1 PUSH1 0xA0 SHL SUB AND PUSH2 0x1E5 JUMP JUMPDEST CALLVALUE DUP1 ISZERO PUSH2 0x390 JUMPI PUSH1 0x0 DUP1 REVERT JUMPDEST POP PUSH2 0x218 PUSH1 0x4 SLOAD DUP2 JUMP JUMPDEST CALLVALUE DUP1 ISZERO PUSH2 0x3A6 JUMPI PUSH1 0x0 DUP1 REVERT JUMPDEST POP PUSH2 0x218 PUSH1 0x5 SLOAD DUP2 JUMP JUMPDEST CALLVALUE DUP1 ISZERO PUSH2 0x3BC JUMPI PUSH1 0x0 DUP1 REVERT JUMPDEST POP PUSH2 0x218 PUSH2 0x3CB CALLDATASIZE PUSH1 0x4 PUSH2 0x102C JUMP JUMPDEST PUSH2 0xB25 JUMP JUMPDEST CALLVALUE DUP1 ISZERO PUSH2 0x3DC JUMPI PUSH1 0x0 DUP1 REVERT JUMPDEST POP PUSH2 0x3F0 PUSH2 0x3EB CALLDATASIZE PUSH1 0x4 PUSH2 0x102C JUMP JUMPDEST PUSH2 0xC60 JUMP JUMPDEST PUSH1 0x40 DUP1 MLOAD SWAP5 DUP6 MSTORE PUSH1 0x20 DUP6 ADD SWAP4 SWAP1 SWAP4 MSTORE SWAP2 DUP4 ADD MSTORE PUSH1 0x60 DUP3 ADD MSTORE PUSH1 0x80 ADD PUSH2 0x1F9 JUMP JUMPDEST CALLVALUE DUP1 ISZERO PUSH2 0x41C JUMPI PUSH1 0x0 DUP1 REVERT JUMPDEST POP PUSH2 0x276 PUSH2 0x42B CALLDATASIZE PUSH1 0x4 PUSH2 0x105C JUMP JUMPDEST PUSH2 0xD04 JUMP JUMPDEST CALLVALUE DUP1 ISZERO PUSH2 0x43C JUMPI PUSH1 0x0 DUP1 REVERT JUMPDEST POP PUSH2 0x276 PUSH2 0x44B CALLDATASIZE PUSH1 0x4 PUSH2 0x105C JUMP JUMPDEST PUSH2 0xD4D JUMP JUMPDEST CALLVALUE DUP1 ISZERO PUSH2 0x45C JUMPI PUSH1 0x0 DUP1 REVERT JUMPDEST POP PUSH2 0x276 PUSH2 0xDD7 JUMP JUMPDEST CALLVALUE DUP1 ISZERO PUSH2 0x471 JUMPI PUSH1 0x0 DUP1 REVERT JUMPDEST POP PUSH2 0x218 PUSH2 0x480 CALLDATASIZE PUSH1 0x4 PUSH2 0x102C JUMP JUMPDEST PUSH1 0x9 PUSH1 0x20 MSTORE PUSH1 0x0 SWAP1 DUP2 MSTORE PUSH1 0x40 SWAP1 KECCAK256 SLOAD DUP2 JUMP JUMPDEST CALLVALUE DUP1 ISZERO PUSH2 0x49E JUMPI PUSH1 0x0 DUP1 REVERT JUMPDEST POP PUSH1 0x6 SLOAD PUSH1 0x7 SLOAD PUSH1 0x3 SLOAD PUSH1 0x4 SLOAD PUSH1 0x5 SLOAD PUSH2 0x246 JUMP JUMPDEST CALLVALUE DUP1 ISZERO PUSH2 0x4BF JUMPI PUSH1 0x0 DUP1 REVERT JUMPDEST POP PUSH2 0x218 PUSH1 0x7 SLOAD DUP2 JUMP JUMPDEST CALLVALUE DUP1 ISZERO PUSH2 0x4D5 JUMPI PUSH1 0x0 DUP1 REVERT JUMPDEST POP PUSH2 0x276 PUSH2 0x4E4 CALLDATASIZE PUSH1 0x4 PUSH2 0x102C JUMP JUMPDEST PUSH2 0xE8A JUMP JUMPDEST CALLVALUE DUP1 ISZERO PUSH2 0x4F5 JUMPI PUSH1 0x0 DUP1 REVERT JUMPDEST POP PUSH2 0x218 PUSH2 0x504 CALLDATASIZE PUSH1 0x4 PUSH2 0x102C JUMP JUMPDEST PUSH1 0xB PUSH1 0x20 MSTORE PUSH1 0x0 SWAP1 DUP2 MSTORE PUSH1 0x40 SWAP1 KECCAK256 SLOAD DUP2 JUMP JUMPDEST PUSH1 0x3 SLOAD PUSH1 0x4 DUP1 SLOAD PUSH1 0x6 SLOAD PUSH1 0x2 SLOAD PUSH1 0x40 MLOAD PUSH4 0x23A438FF PUSH1 0xE2 SHL DUP2 MSTORE SWAP3 SWAP4 PUSH1 0x0 SWAP4 DUP5 SWAP3 PUSH1 0x1 PUSH1 0x1 PUSH1 0xA0 SHL SUB AND SWAP2 PUSH4 0x8E90E3FC SWAP2 PUSH2 0x562 SWAP2 DUP11 SWAP2 ADD PUSH1 0x1 PUSH1 0x1 PUSH1 0xA0 SHL SUB SWAP2 SWAP1 SWAP2 AND DUP2 MSTORE PUSH1 0x20 ADD SWAP1 JUMP JUMPDEST PUSH1 0x20 PUSH1 0x40 MLOAD DUP1 DUP4 SUB DUP2 DUP7 GAS STATICCALL ISZERO DUP1 ISZERO PUSH2 0x57F JUMPI RETURNDATASIZE PUSH1 0x0 DUP1 RETURNDATACOPY RETURNDATASIZE PUSH1 0x0 REVERT JUMPDEST POP POP POP POP PUSH1 0x40 MLOAD RETURNDATASIZE PUSH1 0x1F NOT PUSH1 0x1F DUP3 ADD AND DUP3 ADD DUP1 PUSH1 0x40 MSTORE POP DUP2 ADD SWAP1 PUSH2 0x5A3 SWAP2 SWAP1 PUSH2 0x1075 JUMP JUMPDEST PUSH1 0x1 PUSH1 0x1 PUSH1 0xA0 SHL SUB DUP8 AND PUSH1 0x0 SWAP1 DUP2 MSTORE PUSH1 0xA PUSH1 0x20 MSTORE PUSH1 0x40 SWAP1 KECCAK256 SLOAD SWAP1 SWAP2 POP PUSH2 0x5CC SWAP1 PUSH3 0x15180 PUSH2 0x1019 JUMP JUMPDEST TIMESTAMP LT PUSH2 0x5DA JUMPI DUP4 SWAP3 POP PUSH2 0x600 JUMP JUMPDEST PUSH1 0x1 PUSH1 0x1 PUSH1 0xA0 SHL SUB DUP7 AND PUSH1 0x0 SWAP1 DUP2 MSTORE PUSH1 0x9 PUSH1 0x20 MSTORE PUSH1 0x40 SWAP1 KECCAK256 SLOAD PUSH2 0x5FD SWAP1 DUP6 PUSH2 0x108E JUMP JUMPDEST SWAP3 POP JUMPDEST SWAP2 SWAP4 SWAP6 SWAP1 SWAP3 SWAP5 POP JUMP JUMPDEST CALLVALUE PUSH1 0x6 PUSH1 0x0 DUP3 DUP3 SLOAD PUSH2 0x61B SWAP2 SWAP1 PUSH2 0x1019 JUMP JUMPDEST SWAP1 SWAP2 SSTORE POP POP PUSH1 0x40 DUP1 MLOAD CALLVALUE DUP2 MSTORE TIMESTAMP PUSH1 0x20 DUP3 ADD MSTORE PUSH32 0x5451F0D28A59C1C16A9D7CC5017150D585749EB225366037423F94B85AD94EA7 SWAP2 ADD PUSH1 0x40 MLOAD DUP1 SWAP2 SUB SWAP1 LOG1 JUMP JUMPDEST PUSH1 0x1 PUSH1 0x1 PUSH1 0xA0 SHL SUB DUP2 AND PUSH1 0x0 SWAP1 DUP2 MSTORE PUSH1 0xA PUSH1 0x20 MSTORE PUSH1 0x40 DUP2 KECCAK256 SLOAD PUSH2 0x680 SWAP1 PUSH3 0x15180 PUSH2 0x1019 JUMP JUMPDEST TIMESTAMP LT PUSH2 0x68E JUMPI POP PUSH1 0x0 SWAP2 SWAP1 POP JUMP JUMPDEST PUSH1 0x1 PUSH1 0x1 PUSH1 0xA0 SHL SUB DUP3 AND PUSH1 0x0 SWAP1 DUP2 MSTORE PUSH1 0xA PUSH1 0x20 MSTORE PUSH1 0x40 SWAP1 KECCAK256 SLOAD TIMESTAMP SWAP1 PUSH2 0x6B6 SWAP1 PUSH3 0x15180 PUSH2 0x1019 JUMP JUMPDEST PUSH2 0x6C0 SWAP2 SWAP1 PUSH2 0x108E JUMP JUMPDEST SWAP3 SWAP2 POP POP JUMP JUMPDEST PUSH2 0x6CE PUSH2 0xF00 JUMP JUMPDEST PUSH1 0x5 SLOAD DUP2 LT ISZERO PUSH2 0x725 JUMPI PUSH1 0x40 MLOAD PUSH3 0x461BCD PUSH1 0xE5 SHL DUP2 MSTORE PUSH1 0x20 PUSH1 0x4 DUP3 ADD MSTORE PUSH1 0x1D PUSH1 0x24 DUP3 ADD MSTORE PUSH32 0x42656C6F77206D696E696D756D2065786368616E676520616D6F756E74000000 PUSH1 0x44 DUP3 ADD MSTORE PUSH1 0x64 ADD JUMPDEST PUSH1 0x40 MLOAD DUP1 SWAP2 SUB SWAP1 REVERT JUMPDEST PUSH1 0x2 SLOAD PUSH1 0x40 MLOAD PUSH4 0x23A438FF PUSH1 0xE2 SHL DUP2 MSTORE CALLER PUSH1 0x4 DUP3 ADD MSTORE DUP3 SWAP2 PUSH1 0x1 PUSH1 0x1 PUSH1 0xA0 SHL SUB AND SWAP1 PUSH4 0x8E90E3FC SWAP1 PUSH1 0x24 ADD PUSH1 0x20 PUSH1 0x40 MLOAD DUP1 DUP4 SUB DUP2 DUP7 GAS STATICCALL ISZERO DUP1 ISZERO PUSH2 0x76D JUMPI RETURNDATASIZE PUSH1 0x0 DUP1 RETURNDATACOPY RETURNDATASIZE PUSH1 0x0 REVERT JUMPDEST POP POP POP POP PUSH1 0x40 MLOAD RETURNDATASIZE PUSH1 0x1F NOT PUSH1 0x1F DUP3 ADD AND DUP3 ADD DUP1 PUSH1 0x40 MSTORE POP DUP2 ADD SWAP1 PUSH2 0x791 SWAP2 SWAP1 PUSH2 0x1075 JUMP JUMPDEST LT ISZERO PUSH2 0x7D7 JUMPI PUSH1 0x40 MLOAD PUSH3 0x461BCD PUSH1 0xE5 SHL DUP2 MSTORE PUSH1 0x20 PUSH1 0x4 DUP3 ADD MSTORE PUSH1 0x15 PUSH1 0x24 DUP3 ADD MSTORE PUSH21 0x125B9CDD59999A58DA595B9D081CDD185C991D5CDD PUSH1 0x5A SHL PUSH1 0x44 DUP3 ADD MSTORE PUSH1 0x64 ADD PUSH2 0x71C JUMP JUMPDEST CALLER PUSH1 0x0 SWAP1 DUP2 MSTORE PUSH1 0xA PUSH1 0x20 MSTORE PUSH1 0x40 SWAP1 KECCAK256 SLOAD PUSH2 0x7F4 SWAP1 PUSH3 0x15180 PUSH2 0x1019 JUMP JUMPDEST TIMESTAMP LT PUSH2 0x81A JUMPI CALLER PUSH1 0x0 SWAP1 DUP2 MSTORE PUSH1 0x9 PUSH1 0x20 SWAP1 DUP2 MSTORE PUSH1 0x40 DUP1 DUP4 KECCAK256 DUP4 SWAP1 SSTORE PUSH1 0xA SWAP1 SWAP2 MSTORE SWAP1 KECCAK256 TIMESTAMP SWAP1 SSTORE JUMPDEST PUSH1 0x3 SLOAD PUSH1 0x0 SWAP1 PUSH2 0x832 DUP4 PUSH8 0xDE0B6B3A7640000 PUSH2 0x10A1 JUMP JUMPDEST PUSH2 0x83C SWAP2 SWAP1 PUSH2 0x10B8 JUMP JUMPDEST PUSH1 0x4 SLOAD CALLER PUSH1 0x0 SWAP1 DUP2 MSTORE PUSH1 0x9 PUSH1 0x20 MSTORE PUSH1 0x40 SWAP1 KECCAK256 SLOAD SWAP2 SWAP3 POP SWAP1 PUSH2 0x85E SWAP1 DUP4 SWAP1 PUSH2 0x1019 JUMP JUMPDEST GT ISZERO PUSH2 0x8A3 JUMPI PUSH1 0x40 MLOAD PUSH3 0x461BCD PUSH1 0xE5 SHL DUP2 MSTORE PUSH1 0x20 PUSH1 0x4 DUP3 ADD MSTORE PUSH1 0x14 PUSH1 0x24 DUP3 ADD MSTORE PUSH20 0x11185A5B1E481B1A5B5A5D08195E18D959591959 PUSH1 0x62 SHL PUSH1 0x44 DUP3 ADD MSTORE PUSH1 0x64 ADD PUSH2 0x71C JUMP JUMPDEST DUP1 PUSH1 0x6 SLOAD LT ISZERO PUSH2 0x8F5 JUMPI PUSH1 0x40 MLOAD PUSH3 0x461BCD PUSH1 0xE5 SHL DUP2 MSTORE PUSH1 0x20 PUSH1 0x4 DUP3 ADD MSTORE PUSH1 0x18 PUSH1 0x24 DUP3 ADD MSTORE PUSH32 0x496E73756666696369656E742072657761726420706F6F6C0000000000000000 PUSH1 0x44 DUP3 ADD MSTORE PUSH1 0x64 ADD PUSH2 0x71C JUMP JUMPDEST PUSH1 0x2 SLOAD PUSH1 0x40 MLOAD PUSH4 0x593EE7FD PUSH1 0xE1 SHL DUP2 MSTORE CALLER PUSH1 0x4 DUP3 ADD MSTORE PUSH1 0x0 PUSH1 0x24 DUP3 ADD MSTORE PUSH1 0x1 PUSH1 0x1 PUSH1 0xA0 SHL SUB SWAP1 SWAP2 AND SWAP1 PUSH4 0xB27DCFFA SWAP1 PUSH1 0x44 ADD PUSH1 0x0 PUSH1 0x40 MLOAD DUP1 DUP4 SUB DUP2 PUSH1 0x0 DUP8 DUP1 EXTCODESIZE ISZERO DUP1 ISZERO PUSH2 0x941 JUMPI PUSH1 0x0 DUP1 REVERT JUMPDEST POP GAS CALL ISZERO DUP1 ISZERO PUSH2 0x955 JUMPI RETURNDATASIZE PUSH1 0x0 DUP1 RETURNDATACOPY RETURNDATASIZE PUSH1 0x0 REVERT JUMPDEST POP POP CALLER PUSH1 0x0 SWAP1 DUP2 MSTORE PUSH1 0x9 PUSH1 0x20 MSTORE PUSH1 0x40 DUP2 KECCAK256 DUP1 SLOAD DUP6 SWAP5 POP SWAP1 SWAP3 POP PUSH2 0x979 SWAP1 DUP5 SWAP1 PUSH2 0x1019 JUMP JUMPDEST SWAP1 SWAP2 SSTORE POP POP CALLER PUSH1 0x0 SWAP1 DUP2 MSTORE PUSH1 0xB PUSH1 0x20 MSTORE PUSH1 0x40 DUP2 KECCAK256 DUP1 SLOAD DUP4 SWAP3 SWAP1 PUSH2 0x99D SWAP1 DUP5 SWAP1 PUSH2 0x1019 JUMP JUMPDEST SWAP3 POP POP DUP2 SWAP1 SSTORE POP DUP1 PUSH1 0x6 PUSH1 0x0 DUP3 DUP3 SLOAD PUSH2 0x9B6 SWAP2 SWAP1 PUSH2 0x108E JUMP JUMPDEST SWAP3 POP POP DUP2 SWAP1 SSTORE POP DUP1 PUSH1 0x7 PUSH1 0x0 DUP3 DUP3 SLOAD PUSH2 0x9CF SWAP2 SWAP1 PUSH2 0x1019 JUMP JUMPDEST SWAP1 SWAP2 SSTORE POP POP PUSH1 0x40 MLOAD PUSH1 0x0 SWAP1 CALLER SWAP1 DUP4 SWAP1 DUP4 DUP2 DUP2 DUP2 DUP6 DUP8 GAS CALL SWAP3 POP POP POP RETURNDATASIZE DUP1 PUSH1 0x0 DUP2 EQ PUSH2 0xA16 JUMPI PUSH1 0x40 MLOAD SWAP2 POP PUSH1 0x1F NOT PUSH1 0x3F RETURNDATASIZE ADD AND DUP3 ADD PUSH1 0x40 MSTORE RETURNDATASIZE DUP3 MSTORE RETURNDATASIZE PUSH1 0x0 PUSH1 0x20 DUP5 ADD RETURNDATACOPY PUSH2 0xA1B JUMP JUMPDEST PUSH1 0x60 SWAP2 POP JUMPDEST POP POP SWAP1 POP DUP1 PUSH2 0xA5E JUMPI PUSH1 0x40 MLOAD PUSH3 0x461BCD PUSH1 0xE5 SHL DUP2 MSTORE PUSH1 0x20 PUSH1 0x4 DUP3 ADD MSTORE PUSH1 0xF PUSH1 0x24 DUP3 ADD MSTORE PUSH15 0x151C985B9CD9995C8819985A5B1959 PUSH1 0x8A SHL PUSH1 0x44 DUP3 ADD MSTORE PUSH1 0x64 ADD PUSH2 0x71C JUMP JUMPDEST PUSH1 0x40 DUP1 MLOAD DUP5 DUP2 MSTORE PUSH1 0x20 DUP2 ADD DUP5 SWAP1 MSTORE TIMESTAMP DUP2 DUP4 ADD MSTORE SWAP1 MLOAD CALLER SWAP2 PUSH32 0xEDD12712BF315D7C5EA5C44F4712ACEA82680BEC7B9AB130961B0F03E7723F54 SWAP2 SWAP1 DUP2 SWAP1 SUB PUSH1 0x60 ADD SWAP1 LOG2 POP POP PUSH2 0xAAB PUSH1 0x1 DUP1 SSTORE JUMP JUMPDEST POP JUMP JUMPDEST PUSH2 0xAB6 PUSH2 0xF59 JUMP JUMPDEST PUSH1 0x5 SSTORE JUMP JUMPDEST PUSH2 0xAC3 PUSH2 0xF59 JUMP JUMPDEST PUSH2 0xACD PUSH1 0x0 PUSH2 0xFB3 JUMP JUMPDEST JUMP JUMPDEST PUSH2 0xAD7 PUSH2 0xF59 JUMP JUMPDEST PUSH1 0x14 DUP2 GT ISZERO PUSH2 0xB20 JUMPI PUSH1 0x40 MLOAD PUSH3 0x461BCD PUSH1 0xE5 SHL DUP2 MSTORE PUSH1 0x20 PUSH1 0x4 DUP3 ADD MSTORE PUSH1 0x15 PUSH1 0x24 DUP3 ADD MSTORE PUSH21 0x4665652063616E6E6F742065786365656420323025 PUSH1 0x58 SHL PUSH1 0x44 DUP3 ADD MSTORE PUSH1 0x64 ADD PUSH2 0x71C JUMP JUMPDEST PUSH1 0x8 SSTORE JUMP JUMPDEST PUSH1 0x2 SLOAD PUSH1 0x40 MLOAD PUSH4 0x23A438FF PUSH1 0xE2 SHL DUP2 MSTORE PUSH1 0x1 PUSH1 0x1 PUSH1 0xA0 SHL SUB DUP4 DUP2 AND PUSH1 0x4 DUP4 ADD MSTORE PUSH1 0x0 SWAP3 DUP4 SWAP3 SWAP2 AND SWAP1 PUSH4 0x8E90E3FC SWAP1 PUSH1 0x24 ADD PUSH1 0x20 PUSH1 0x40 MLOAD DUP1 DUP4 SUB DUP2 DUP7 GAS STATICCALL ISZERO DUP1 ISZERO PUSH2 0xB73 JUMPI RETURNDATASIZE PUSH1 0x0 DUP1 RETURNDATACOPY RETURNDATASIZE PUSH1 0x0 REVERT JUMPDEST POP POP POP POP PUSH1 0x40 MLOAD RETURNDATASIZE PUSH1 0x1F NOT PUSH1 0x1F DUP3 ADD AND DUP3 ADD DUP1 PUSH1 0x40 MSTORE POP DUP2 ADD SWAP1 PUSH2 0xB97 SWAP2 SWAP1 PUSH2 0x1075 JUMP JUMPDEST SWAP1 POP PUSH1 0x5 SLOAD DUP2 LT ISZERO PUSH2 0xBAC JUMPI POP PUSH1 0x0 SWAP3 SWAP2 POP POP JUMP JUMPDEST PUSH1 0x3 SLOAD PUSH1 0x0 SWAP1 PUSH2 0xBC4 DUP4 PUSH8 0xDE0B6B3A7640000 PUSH2 0x10A1 JUMP JUMPDEST PUSH2 0xBCE SWAP2 SWAP1 PUSH2 0x10B8 JUMP JUMPDEST PUSH1 0x1 PUSH1 0x1 PUSH1 0xA0 SHL SUB DUP6 AND PUSH1 0x0 SWAP1 DUP2 MSTORE PUSH1 0xA PUSH1 0x20 MSTORE PUSH1 0x40 DUP2 KECCAK256 SLOAD SWAP2 SWAP3 POP SWAP1 PUSH2 0xBF8 SWAP1 PUSH3 0x15180 PUSH2 0x1019 JUMP JUMPDEST TIMESTAMP LT PUSH2 0xC07 JUMPI POP PUSH1 0x4 SLOAD PUSH2 0xC30 JUMP JUMPDEST PUSH1 0x1 PUSH1 0x1 PUSH1 0xA0 SHL SUB DUP6 AND PUSH1 0x0 SWAP1 DUP2 MSTORE PUSH1 0x9 PUSH1 0x20 MSTORE PUSH1 0x40 SWAP1 KECCAK256 SLOAD PUSH1 0x4 SLOAD PUSH2 0xC2D SWAP2 SWAP1 PUSH2 0x108E JUMP JUMPDEST SWAP1 POP JUMPDEST PUSH1 0x0 DUP2 DUP4 GT PUSH2 0xC3F JUMPI DUP3 PUSH2 0xC41 JUMP JUMPDEST DUP2 JUMPDEST SWAP1 POP PUSH1 0x6 SLOAD DUP2 GT PUSH2 0xC52 JUMPI DUP1 PUSH2 0xC56 JUMP JUMPDEST PUSH1 0x6 SLOAD JUMPDEST SWAP7 SWAP6 POP POP POP POP POP POP JUMP JUMPDEST PUSH1 0x1 PUSH1 0x1 PUSH1 0xA0 SHL SUB DUP2 DUP2 AND PUSH1 0x0 DUP2 DUP2 MSTORE PUSH1 0xB PUSH1 0x20 SWAP1 DUP2 MSTORE PUSH1 0x40 DUP1 DUP4 KECCAK256 SLOAD PUSH1 0x9 DUP4 MSTORE DUP2 DUP5 KECCAK256 SLOAD PUSH1 0xA SWAP1 SWAP4 MSTORE DUP2 DUP5 KECCAK256 SLOAD PUSH1 0x2 SLOAD SWAP3 MLOAD PUSH4 0x23A438FF PUSH1 0xE2 SHL DUP2 MSTORE PUSH1 0x4 DUP2 ADD SWAP7 SWAP1 SWAP7 MSTORE SWAP1 SWAP6 SWAP3 SWAP5 SWAP1 SWAP4 SWAP3 SWAP2 SWAP1 SWAP2 AND SWAP1 PUSH4 0x8E90E3FC SWAP1 PUSH1 0x24 ADD PUSH1 0x20 PUSH1 0x40 MLOAD DUP1 DUP4 SUB DUP2 DUP7 GAS STATICCALL ISZERO DUP1 ISZERO PUSH2 0xCD7 JUMPI RETURNDATASIZE PUSH1 0x0 DUP1 RETURNDATACOPY RETURNDATASIZE PUSH1 0x0 REVERT JUMPDEST POP POP POP POP PUSH1 0x40 MLOAD RETURNDATASIZE PUSH1 0x1F NOT PUSH1 0x1F DUP3 ADD AND DUP3 ADD DUP1 PUSH1 0x40 MSTORE POP DUP2 ADD SWAP1 PUSH2 0xCFB SWAP2 SWAP1 PUSH2 0x1075 JUMP JUMPDEST SWAP1 POP SWAP2 SWAP4 POP SWAP2 SWAP4 JUMP JUMPDEST PUSH2 0xD0C PUSH2 0xF59 JUMP JUMPDEST PUSH1 0x4 DUP2 SWAP1 SSTORE PUSH1 0x40 DUP1 MLOAD DUP3 DUP2 MSTORE TIMESTAMP PUSH1 0x20 DUP3 ADD MSTORE PUSH32 0x207C4CBDF55EC315A13F0D5E047732EC5D947DA056E706593AA509909941CEDF SWAP2 ADD JUMPDEST PUSH1 0x40 MLOAD DUP1 SWAP2 SUB SWAP1 LOG1 POP JUMP JUMPDEST PUSH2 0xD55 PUSH2 0xF59 JUMP JUMPDEST PUSH1 0x0 DUP2 GT PUSH2 0xD9D JUMPI PUSH1 0x40 MLOAD PUSH3 0x461BCD PUSH1 0xE5 SHL DUP2 MSTORE PUSH1 0x20 PUSH1 0x4 DUP3 ADD MSTORE PUSH1 0x15 PUSH1 0x24 DUP3 ADD MSTORE PUSH21 0x52617465206D75737420626520706F736974697665 PUSH1 0x58 SHL PUSH1 0x44 DUP3 ADD MSTORE PUSH1 0x64 ADD PUSH2 0x71C JUMP JUMPDEST PUSH1 0x3 DUP2 SWAP1 SSTORE PUSH1 0x40 DUP1 MLOAD DUP3 DUP2 MSTORE TIMESTAMP PUSH1 0x20 DUP3 ADD MSTORE PUSH32 0xC390A98ACE15A7BB6BAB611EEDFDBB2685043B241A869420043CDFB23CCFEE50 SWAP2 ADD PUSH2 0xD42 JUMP JUMPDEST PUSH2 0xDDF PUSH2 0xF59 JUMP JUMPDEST SELFBALANCE PUSH1 0x0 PUSH2 0xDF4 PUSH1 0x0 SLOAD PUSH1 0x1 PUSH1 0x1 PUSH1 0xA0 SHL SUB AND SWAP1 JUMP JUMPDEST PUSH1 0x1 PUSH1 0x1 PUSH1 0xA0 SHL SUB AND DUP3 PUSH1 0x40 MLOAD PUSH1 0x0 PUSH1 0x40 MLOAD DUP1 DUP4 SUB DUP2 DUP6 DUP8 GAS CALL SWAP3 POP POP POP RETURNDATASIZE DUP1 PUSH1 0x0 DUP2 EQ PUSH2 0xE3E JUMPI PUSH1 0x40 MLOAD SWAP2 POP PUSH1 0x1F NOT PUSH1 0x3F RETURNDATASIZE ADD AND DUP3 ADD PUSH1 0x40 MSTORE RETURNDATASIZE DUP3 MSTORE RETURNDATASIZE PUSH1 0x0 PUSH1 0x20 DUP5 ADD RETURNDATACOPY PUSH2 0xE43 JUMP JUMPDEST PUSH1 0x60 SWAP2 POP JUMPDEST POP POP SWAP1 POP DUP1 PUSH2 0xE86 JUMPI PUSH1 0x40 MLOAD PUSH3 0x461BCD PUSH1 0xE5 SHL DUP2 MSTORE PUSH1 0x20 PUSH1 0x4 DUP3 ADD MSTORE PUSH1 0xF PUSH1 0x24 DUP3 ADD MSTORE PUSH15 0x151C985B9CD9995C8819985A5B1959 PUSH1 0x8A SHL PUSH1 0x44 DUP3 ADD MSTORE PUSH1 0x64 ADD PUSH2 0x71C JUMP JUMPDEST POP POP JUMP JUMPDEST PUSH2 0xE92 PUSH2 0xF59 JUMP JUMPDEST PUSH1 0x1 PUSH1 0x1 PUSH1 0xA0 SHL SUB DUP2 AND PUSH2 0xEF7 JUMPI PUSH1 0x40 MLOAD PUSH3 0x461BCD PUSH1 0xE5 SHL DUP2 MSTORE PUSH1 0x20 PUSH1 0x4 DUP3 ADD MSTORE PUSH1 0x26 PUSH1 0x24 DUP3 ADD MSTORE PUSH32 0x4F776E61626C653A206E6577206F776E657220697320746865207A65726F2061 PUSH1 0x44 DUP3 ADD MSTORE PUSH6 0x646472657373 PUSH1 0xD0 SHL PUSH1 0x64 DUP3 ADD MSTORE PUSH1 0x84 ADD PUSH2 0x71C JUMP JUMPDEST PUSH2 0xAAB DUP2 PUSH2 0xFB3 JUMP JUMPDEST PUSH1 0x2 PUSH1 0x1 SLOAD SUB PUSH2 0xF52 JUMPI PUSH1 0x40 MLOAD PUSH3 0x461BCD PUSH1 0xE5 SHL DUP2 MSTORE PUSH1 0x20 PUSH1 0x4 DUP3 ADD MSTORE PUSH1 0x1F PUSH1 0x24 DUP3 ADD MSTORE PUSH32 0x5265656E7472616E637947756172643A207265656E7472616E742063616C6C00 PUSH1 0x44 DUP3 ADD MSTORE PUSH1 0x64 ADD PUSH2 0x71C JUMP JUMPDEST PUSH1 0x2 PUSH1 0x1 SSTORE JUMP JUMPDEST PUSH1 0x0 SLOAD PUSH1 0x1 PUSH1 0x1 PUSH1 0xA0 SHL SUB AND CALLER EQ PUSH2 0xACD JUMPI PUSH1 0x40 MLOAD PUSH3 0x461BCD PUSH1 0xE5 SHL DUP2 MSTORE PUSH1 0x20 PUSH1 0x4 DUP3 ADD DUP2 SWAP1 MSTORE PUSH1 0x24 DUP3 ADD MSTORE PUSH32 0x4F776E61626C653A2063616C6C6572206973206E6F7420746865206F776E6572 PUSH1 0x44 DUP3 ADD MSTORE PUSH1 0x64 ADD PUSH2 0x71C JUMP JUMPDEST PUSH1 0x0 DUP1 SLOAD PUSH1 0x1 PUSH1 0x1 PUSH1 0xA0 SHL SUB DUP4 DUP2 AND PUSH1 0x1 PUSH1 0x1 PUSH1 0xA0 SHL SUB NOT DUP4 AND DUP2 OR DUP5 SSTORE PUSH1 0x40 MLOAD SWAP2 SWAP1 SWAP3 AND SWAP3 DUP4 SWAP2 PUSH32 0x8BE0079C531659141344CD1FD0A4F28419497F9722A3DAAFE3B4186F6B6457E0 SWAP2 SWAP1 LOG3 POP POP JUMP JUMPDEST PUSH4 0x4E487B71 PUSH1 0xE0 SHL PUSH1 0x0 MSTORE PUSH1 0x11 PUSH1 0x4 MSTORE PUSH1 0x24 PUSH1 0x0 REVERT JUMPDEST DUP1 DUP3 ADD DUP1 DUP3 GT ISZERO PUSH2 0x6C0 JUMPI PUSH2 0x6C0 PUSH2 0x1003 JUMP JUMPDEST PUSH1 0x0 PUSH1 0x20 DUP3 DUP5 SUB SLT ISZERO PUSH2 0x103E JUMPI PUSH1 0x0 DUP1 REVERT JUMPDEST DUP2 CALLDATALOAD PUSH1 0x1 PUSH1 0x1 PUSH1 0xA0 SHL SUB DUP2 AND DUP2 EQ PUSH2 0x1055 JUMPI PUSH1 0x0 DUP1 REVERT JUMPDEST SWAP4 SWAP3 POP POP POP JUMP JUMPDEST PUSH1 0x0 PUSH1 0x20 DUP3 DUP5 SUB SLT ISZERO PUSH2 0x106E JUMPI PUSH1 0x0 DUP1 REVERT JUMPDEST POP CALLDATALOAD SWAP2 SWAP1 POP JUMP JUMPDEST PUSH1 0x0 PUSH1 0x20 DUP3 DUP5 SUB SLT ISZERO PUSH2 0x1087 JUMPI PUSH1 0x0 DUP1 REVERT JUMPDEST POP MLOAD SWAP2 SWAP1 POP JUMP JUMPDEST DUP2 DUP2 SUB DUP2 DUP2 GT ISZERO PUSH2 0x6C0 JUMPI PUSH2 0x6C0 PUSH2 0x1003 JUMP JUMPDEST DUP1 DUP3 MUL DUP2 ISZERO DUP3 DUP3 DIV DUP5 EQ OR PUSH2 0x6C0 JUMPI PUSH2 0x6C0 PUSH2 0x1003 JUMP JUMPDEST PUSH1 0x0 DUP3 PUSH2 0x10D5 JUMPI PUSH4 0x4E487B71 PUSH1 0xE0 SHL PUSH1 0x0 MSTORE PUSH1 0x12 PUSH1 0x4 MSTORE PUSH1 0x24 PUSH1 0x0 REVERT JUMPDEST POP DIV SWAP1 JUMP INVALID LOG2 PUSH5 0x6970667358 0x22 SLT KECCAK256 PUSH23 0x73B147E1BAAC720EEFC0665B58D43D616B9C19F704A7C4 CALLCODE LT SWAP7 0x29 PUSH16 0x8A163464736F6C634300081300330000 "},"methodIdentifiers":{"creditsContract()":"0642bc41","dailyRewardLimit()":"91aa50aa","dailyRewardsClaimed(address)":"dda82b1f","emergencyWithdraw()":"db2e21bc","exchangeStardustForCFX(uint256)":"2f2ca335","fundRewardPool()":"20828339","getContractStats()":"dfe6b5d6","getExchangeInfo(address)":"1bb828e3","getMaxClaimable(address)":"9fc4622f","getPlayerRewardStats(address)":"adb90e3d","getTimeUntilReset(address)":"2da0a908","lastClaimDate(address)":"6052ccb0","minimumStardust()":"97ec913c","owner()":"8da5cb5b","renounceOwnership()":"715018a6","rewardPool()":"66666aa9","rewardPoolFeePercent()":"534675a1","setDailyLimit(uint256)":"b20d30a9","setExchangeRate(uint256)":"db068e0e","setMinimumStardust(uint256)":"367faa5b","setRewardPoolFeePercent(uint256)":"882dad4a","stardustToCFXRate()":"11bbf03c","totalRewardsClaimed(address)":"f6ce9004","totalRewardsDistributed()":"ee172546","transferOwnership(address)":"f2fde38b"}}}}}