{
  "_format": "hh-sol-artifact-1",
  "contractName": "GasTopUp",
  "sourceName": "contracts/gasRouter.sol",
  "abi": [
    {
      "inputs": [
        {
          "internalType": "address",
          "name": "_pyth",
          "type": "address"
        },
        {
          "internalType": "bytes32",
          "name": "_cfxUsdFeedId",
          "type": "bytes32"
        }
      ],
      "stateMutability": "nonpayable",
      "type": "constructor"
    },
    {
      "anonymous": false,
      "inputs": [
        {
          "indexed": true,
          "internalType": "address",
          "name": "owner",
          "type": "address"
        },
        {
          "indexed": false,
          "internalType": "uint256",
          "name": "amount",
          "type": "uint256"
        }
      ],
      "name": "DepositCfx",
      "type": "event"
    },
    {
      "anonymous": false,
      "inputs": [
        {
          "indexed": true,
          "internalType": "address",
          "name": "previousOwner",
          "type": "address"
        },
        {
          "indexed": true,
          "internalType": "address",
          "name": "newOwner",
          "type": "address"
        }
      ],
      "name": "OwnershipTransferred",
      "type": "event"
    },
    {
      "anonymous": false,
      "inputs": [
        {
          "indexed": true,
          "internalType": "address",
          "name": "user",
          "type": "address"
        },
        {
          "indexed": false,
          "internalType": "uint256",
          "name": "amountRefunded",
          "type": "uint256"
        }
      ],
      "name": "Refund",
      "type": "event"
    },
    {
      "anonymous": false,
      "inputs": [
        {
          "indexed": true,
          "internalType": "address",
          "name": "user",
          "type": "address"
        },
        {
          "indexed": true,
          "internalType": "address",
          "name": "tokenAddress",
          "type": "address"
        },
        {
          "indexed": false,
          "internalType": "uint256",
          "name": "tokenAmount",
          "type": "uint256"
        },
        {
          "indexed": false,
          "internalType": "uint256",
          "name": "cfxAmount",
          "type": "uint256"
        }
      ],
      "name": "Swapped",
      "type": "event"
    },
    {
      "anonymous": false,
      "inputs": [
        {
          "indexed": true,
          "internalType": "address",
          "name": "tokenAddress",
          "type": "address"
        },
        {
          "indexed": false,
          "internalType": "string",
          "name": "ticker",
          "type": "string"
        },
        {
          "indexed": false,
          "internalType": "bytes32",
          "name": "feedId",
          "type": "bytes32"
        }
      ],
      "name": "TokenAdded",
      "type": "event"
    },
    {
      "anonymous": false,
      "inputs": [
        {
          "indexed": true,
          "internalType": "address",
          "name": "owner",
          "type": "address"
        },
        {
          "indexed": false,
          "internalType": "uint256",
          "name": "amount",
          "type": "uint256"
        }
      ],
      "name": "WithdrawCfx",
      "type": "event"
    },
    {
      "anonymous": false,
      "inputs": [
        {
          "indexed": true,
          "internalType": "address",
          "name": "owner",
          "type": "address"
        },
        {
          "indexed": true,
          "internalType": "address",
          "name": "tokenAddress",
          "type": "address"
        },
        {
          "indexed": false,
          "internalType": "uint256",
          "name": "amount",
          "type": "uint256"
        }
      ],
      "name": "WithdrawToken",
      "type": "event"
    },
    {
      "inputs": [],
      "name": "MAX_CFX_PER_SWAP",
      "outputs": [
        {
          "internalType": "uint256",
          "name": "",
          "type": "uint256"
        }
      ],
      "stateMutability": "view",
      "type": "function"
    },
    {
      "inputs": [
        {
          "internalType": "address",
          "name": "tokenAddress",
          "type": "address"
        },
        {
          "internalType": "string",
          "name": "ticker",
          "type": "string"
        },
        {
          "internalType": "bytes32",
          "name": "feedId",
          "type": "bytes32"
        }
      ],
      "name": "addToken",
      "outputs": [],
      "stateMutability": "nonpayable",
      "type": "function"
    },
    {
      "inputs": [],
      "name": "cfxUsdFeedId",
      "outputs": [
        {
          "internalType": "bytes32",
          "name": "",
          "type": "bytes32"
        }
      ],
      "stateMutability": "view",
      "type": "function"
    },
    {
      "inputs": [],
      "name": "depositCfx",
      "outputs": [],
      "stateMutability": "payable",
      "type": "function"
    },
    {
      "inputs": [
        {
          "internalType": "address",
          "name": "tokenAddress",
          "type": "address"
        },
        {
          "internalType": "uint256",
          "name": "amount",
          "type": "uint256"
        }
      ],
      "name": "estimateCfxOut",
      "outputs": [
        {
          "internalType": "uint256",
          "name": "cfxAmount",
          "type": "uint256"
        },
        {
          "internalType": "uint64",
          "name": "tokenPublishTime",
          "type": "uint64"
        },
        {
          "internalType": "uint64",
          "name": "cfxPublishTime",
          "type": "uint64"
        }
      ],
      "stateMutability": "view",
      "type": "function"
    },
    {
      "inputs": [],
      "name": "getCfxUsdFeedId",
      "outputs": [
        {
          "internalType": "bytes32",
          "name": "",
          "type": "bytes32"
        }
      ],
      "stateMutability": "view",
      "type": "function"
    },
    {
      "inputs": [],
      "name": "getPyth",
      "outputs": [
        {
          "internalType": "address",
          "name": "",
          "type": "address"
        }
      ],
      "stateMutability": "view",
      "type": "function"
    },
    {
      "inputs": [],
      "name": "getSupportedTokens",
      "outputs": [
        {
          "components": [
            {
              "internalType": "address",
              "name": "tokenAddress",
              "type": "address"
            },
            {
              "internalType": "string",
              "name": "ticker",
              "type": "string"
            },
            {
              "internalType": "bytes32",
              "name": "feedId",
              "type": "bytes32"
            }
          ],
          "internalType": "struct GasTopUp.TokenInfo[]",
          "name": "",
          "type": "tuple[]"
        }
      ],
      "stateMutability": "view",
      "type": "function"
    },
    {
      "inputs": [],
      "name": "owner",
      "outputs": [
        {
          "internalType": "address",
          "name": "",
          "type": "address"
        }
      ],
      "stateMutability": "view",
      "type": "function"
    },
    {
      "inputs": [],
      "name": "pyth",
      "outputs": [
        {
          "internalType": "contract IPyth",
          "name": "",
          "type": "address"
        }
      ],
      "stateMutability": "view",
      "type": "function"
    },
    {
      "inputs": [],
      "name": "renounceOwnership",
      "outputs": [],
      "stateMutability": "nonpayable",
      "type": "function"
    },
    {
      "inputs": [
        {
          "internalType": "uint256",
          "name": "",
          "type": "uint256"
        }
      ],
      "name": "supportedTokens",
      "outputs": [
        {
          "internalType": "address",
          "name": "tokenAddress",
          "type": "address"
        },
        {
          "internalType": "string",
          "name": "ticker",
          "type": "string"
        },
        {
          "internalType": "bytes32",
          "name": "feedId",
          "type": "bytes32"
        }
      ],
      "stateMutability": "view",
      "type": "function"
    },
    {
      "inputs": [
        {
          "internalType": "address",
          "name": "tokenAddress",
          "type": "address"
        },
        {
          "internalType": "uint256",
          "name": "amount",
          "type": "uint256"
        },
        {
          "internalType": "bytes[]",
          "name": "updateData",
          "type": "bytes[]"
        },
        {
          "internalType": "uint32",
          "name": "maxAge",
          "type": "uint32"
        }
      ],
      "name": "swapToCfx",
      "outputs": [],
      "stateMutability": "payable",
      "type": "function"
    },
    {
      "inputs": [
        {
          "internalType": "address",
          "name": "",
          "type": "address"
        }
      ],
      "name": "tokenFeedIds",
      "outputs": [
        {
          "internalType": "bytes32",
          "name": "",
          "type": "bytes32"
        }
      ],
      "stateMutability": "view",
      "type": "function"
    },
    {
      "inputs": [
        {
          "internalType": "address",
          "name": "",
          "type": "address"
        }
      ],
      "name": "tokenTickers",
      "outputs": [
        {
          "internalType": "string",
          "name": "",
          "type": "string"
        }
      ],
      "stateMutability": "view",
      "type": "function"
    },
    {
      "inputs": [
        {
          "internalType": "address",
          "name": "newOwner",
          "type": "address"
        }
      ],
      "name": "transferOwnership",
      "outputs": [],
      "stateMutability": "nonpayable",
      "type": "function"
    },
    {
      "inputs": [
        {
          "internalType": "uint256",
          "name": "amount",
          "type": "uint256"
        }
      ],
      "name": "withdrawCfx",
      "outputs": [],
      "stateMutability": "nonpayable",
      "type": "function"
    },
    {
      "inputs": [
        {
          "internalType": "address",
          "name": "tokenAddress",
          "type": "address"
        },
        {
          "internalType": "uint256",
          "name": "amount",
          "type": "uint256"
        }
      ],
      "name": "withdrawToken",
      "outputs": [],
      "stateMutability": "nonpayable",
      "type": "function"
    },
    {
      "stateMutability": "payable",
      "type": "receive"
    }
  ],
  "bytecode": "0x60c06040523480156200001157600080fd5b50604051620045ee380380620045ee8339818101604052810190620000379190620002cd565b620000576200004b6200015c60201b60201c565b6200016460201b60201c565b60018081905550600073ffffffffffffffffffffffffffffffffffffffff168273ffffffffffffffffffffffffffffffffffffffff1603620000d0576040517f08c379a0000000000000000000000000000000000000000000000000000000008152600401620000c79062000375565b60405180910390fd5b6000801b810362000118576040517f08c379a00000000000000000000000000000000000000000000000000000000081526004016200010f90620003e7565b60405180910390fd5b8173ffffffffffffffffffffffffffffffffffffffff1660808173ffffffffffffffffffffffffffffffffffffffff16815250508060a08181525050505062000409565b600033905090565b60008060009054906101000a900473ffffffffffffffffffffffffffffffffffffffff169050816000806101000a81548173ffffffffffffffffffffffffffffffffffffffff021916908373ffffffffffffffffffffffffffffffffffffffff1602179055508173ffffffffffffffffffffffffffffffffffffffff168173ffffffffffffffffffffffffffffffffffffffff167f8be0079c531659141344cd1fd0a4f28419497f9722a3daafe3b4186f6b6457e060405160405180910390a35050565b600080fd5b600073ffffffffffffffffffffffffffffffffffffffff82169050919050565b60006200025a826200022d565b9050919050565b6200026c816200024d565b81146200027857600080fd5b50565b6000815190506200028c8162000261565b92915050565b6000819050919050565b620002a78162000292565b8114620002b357600080fd5b50565b600081519050620002c7816200029c565b92915050565b60008060408385031215620002e757620002e662000228565b5b6000620002f7858286016200027b565b92505060206200030a85828601620002b6565b9150509250929050565b600082825260208201905092915050565b7f707974682061646472657373207a65726f000000000000000000000000000000600082015250565b60006200035d60118362000314565b91506200036a8262000325565b602082019050919050565b6000602082019050818103600083015262000390816200034e565b9050919050565b7f696e76616c696420666565642069640000000000000000000000000000000000600082015250565b6000620003cf600f8362000314565b9150620003dc8262000397565b602082019050919050565b600060208201905081810360008301526200040281620003c0565b9050919050565b60805160a0516141796200047560003960008181610650015281816107eb015281816114250152611807015260008181610711015281816107af01528181610b7a015281816110c3015281816111a401528181611349015281816113e9015261194901526141796000f3fe60806040526004361061010d5760003560e01c80639e281a9811610095578063d3c7c2c711610064578063d3c7c2c7146103c1578063e83d086f146103ec578063f2fde38b14610417578063f6954a1314610440578063f98d06f01461044a5761016a565b80639e281a9814610300578063bfe1d8f714610329578063c625562614610345578063c9325d6c146103845761016a565b8063715018a6116100dc578063715018a61461022d57806378399b0b1461024457806378af1d551461026f5780638da5cb5b1461029857806391f12218146102c35761016a565b806311dfca5d1461016f5780632aa934161461019857806331e2a65c146101c35780635f5443a5146101ee5761016a565b3661016a5761011a610475565b3373ffffffffffffffffffffffffffffffffffffffff167fb871c4a3195b4f354d93dc801b3b76ad9a438bf1140a542e08ca7428ba499e4f346040516101609190612254565b60405180910390a2005b600080fd5b34801561017b57600080fd5b50610196600480360381019061019191906122af565b6104f3565b005b3480156101a457600080fd5b506101ad61064c565b6040516101ba91906122f5565b60405180910390f35b3480156101cf57600080fd5b506101d8610674565b6040516101e59190612254565b60405180910390f35b3480156101fa57600080fd5b506102156004803603810190610210919061236e565b610680565b604051610224939291906123d1565b60405180910390f35b34801561023957600080fd5b50610242610b62565b005b34801561025057600080fd5b50610259610b76565b6040516102669190612417565b60405180910390f35b34801561027b57600080fd5b50610296600480360381019061029191906124c3565b610b9e565b005b3480156102a457600080fd5b506102ad610ed2565b6040516102ba9190612417565b60405180910390f35b3480156102cf57600080fd5b506102ea60048036038101906102e59190612537565b610efb565b6040516102f791906122f5565b60405180910390f35b34801561030c57600080fd5b506103276004803603810190610322919061236e565b610f13565b005b610343600480360381019061033e91906125f6565b61102e565b005b34801561035157600080fd5b5061036c600480360381019061036791906122af565b611532565b60405161037b9392919061270e565b60405180910390f35b34801561039057600080fd5b506103ab60048036038101906103a69190612537565b611614565b6040516103b8919061274c565b60405180910390f35b3480156103cd57600080fd5b506103d66116b4565b6040516103e391906128e8565b60405180910390f35b3480156103f857600080fd5b50610401611805565b60405161040e91906122f5565b60405180910390f35b34801561042357600080fd5b5061043e60048036038101906104399190612537565b611829565b005b6104486118ac565b005b34801561045657600080fd5b5061045f611947565b60405161046c9190612969565b60405180910390f35b61047d61196b565b73ffffffffffffffffffffffffffffffffffffffff1661049b610ed2565b73ffffffffffffffffffffffffffffffffffffffff16146104f1576040517f08c379a00000000000000000000000000000000000000000000000000000000081526004016104e8906129d0565b60405180910390fd5b565b6104fb610475565b610503611973565b80471015610546576040517f08c379a000000000000000000000000000000000000000000000000000000000815260040161053d90612a3c565b60405180910390fd5b60003373ffffffffffffffffffffffffffffffffffffffff168260405161056c90612a8d565b60006040518083038185875af1925050503d80600081146105a9576040519150601f19603f3d011682016040523d82523d6000602084013e6105ae565b606091505b50509050806105f2576040517f08c379a00000000000000000000000000000000000000000000000000000000081526004016105e990612aee565b60405180910390fd5b3373ffffffffffffffffffffffffffffffffffffffff167f2c7344c499a09c995536db9f1d09562a75fddc6b8f1d513ba793296bbdcbb642836040516106389190612254565b60405180910390a2506106496119c2565b50565b60007f0000000000000000000000000000000000000000000000000000000000000000905090565b678ac7230489e8000081565b600080600080600360008773ffffffffffffffffffffffffffffffffffffffff1673ffffffffffffffffffffffffffffffffffffffff1681526020019081526020016000205490506000801b810361070d576040517f08c379a000000000000000000000000000000000000000000000000000000000815260040161070490612b5a565b60405180910390fd5b60007f000000000000000000000000000000000000000000000000000000000000000073ffffffffffffffffffffffffffffffffffffffff166396834ad3836040518263ffffffff1660e01b815260040161076891906122f5565b608060405180830381865afa158015610785573d6000803e3d6000fd5b505050506040513d601f19601f820116820180604052508101906107a99190612d25565b905060007f000000000000000000000000000000000000000000000000000000000000000073ffffffffffffffffffffffffffffffffffffffff166396834ad37f00000000000000000000000000000000000000000000000000000000000000006040518263ffffffff1660e01b815260040161082691906122f5565b608060405180830381865afa158015610843573d6000803e3d6000fd5b505050506040513d601f19601f820116820180604052508101906108679190612d25565b905081606001519450806060015193506000826000015160070b136108c1576040517f08c379a00000000000000000000000000000000000000000000000000000000081526004016108b890612d9e565b60405180910390fd5b6000816000015160070b1361090b576040517f08c379a000000000000000000000000000000000000000000000000000000000815260040161090290612e0a565b60405180910390fd5b6000871161094e576040517f08c379a000000000000000000000000000000000000000000000000000000000815260040161094590612e76565b60405180910390fd5b60008873ffffffffffffffffffffffffffffffffffffffff1663313ce5676040518163ffffffff1660e01b8152600401602060405180830381865afa15801561099b573d6000803e3d6000fd5b505050506040513d601f19601f820116820180604052508101906109bf9190612ecf565b905060008360400151905060008160030b12610a10576040517f08c379a0000000000000000000000000000000000000000000000000000000008152600401610a0790612f6e565b60405180910390fd5b600082600a610a1f91906130f0565b82610a299061313b565b600a610a359190613183565b866000015167ffffffffffffffff168c610a4f91906131ce565b610a5991906131ce565b610a63919061323f565b905060008460400151905060008160030b12610ab4576040517f08c379a0000000000000000000000000000000000000000000000000000000008152600401610aab906132bc565b60405180910390fd5b600081610ac09061313b565b600a610acc9190613183565b866000015167ffffffffffffffff16610ae591906131ce565b905080670de0b6b3a764000084610afc91906131ce565b610b06919061323f565b9a50678ac7230489e800008b1115610b53576040517f08c379a0000000000000000000000000000000000000000000000000000000008152600401610b4a90613328565b60405180910390fd5b50505050505050509250925092565b610b6a610475565b610b7460006119cb565b565b60007f0000000000000000000000000000000000000000000000000000000000000000905090565b610ba6610475565b6000801b8103610beb576040517f08c379a0000000000000000000000000000000000000000000000000000000008152600401610be290613394565b60405180910390fd5b600073ffffffffffffffffffffffffffffffffffffffff168473ffffffffffffffffffffffffffffffffffffffff1603610c5a576040517f08c379a0000000000000000000000000000000000000000000000000000000008152600401610c5190613400565b60405180910390fd5b6000801b600360008673ffffffffffffffffffffffffffffffffffffffff1673ffffffffffffffffffffffffffffffffffffffff1681526020019081526020016000205414610cde576040517f08c379a0000000000000000000000000000000000000000000000000000000008152600401610cd59061346c565b60405180910390fd5b600260405180606001604052808673ffffffffffffffffffffffffffffffffffffffff16815260200185858080601f016020809104026020016040519081016040528093929190818152602001838380828437600081840152601f19601f82011690508083019250505050505050815260200183815250908060018154018082558091505060019003906000526020600020906003020160009091909190915060008201518160000160006101000a81548173ffffffffffffffffffffffffffffffffffffffff021916908373ffffffffffffffffffffffffffffffffffffffff1602179055506020820151816001019081610dda919061368e565b5060408201518160020155505080600360008673ffffffffffffffffffffffffffffffffffffffff1673ffffffffffffffffffffffffffffffffffffffff168152602001908152602001600020819055508282600460008773ffffffffffffffffffffffffffffffffffffffff1673ffffffffffffffffffffffffffffffffffffffff1681526020019081526020016000209182610e7992919061376b565b508373ffffffffffffffffffffffffffffffffffffffff167f7ee5b861ad236224c1fb776c839c3959f7a0903d4e4dcde63306821c6ff60aa2848484604051610ec493929190613877565b60405180910390a250505050565b60008060009054906101000a900473ffffffffffffffffffffffffffffffffffffffff16905090565b60036020528060005260406000206000915090505481565b610f1b610475565b610f23611973565b600073ffffffffffffffffffffffffffffffffffffffff168273ffffffffffffffffffffffffffffffffffffffff1603610f92576040517f08c379a0000000000000000000000000000000000000000000000000000000008152600401610f89906138f5565b60405180910390fd5b610fbd33828473ffffffffffffffffffffffffffffffffffffffff16611a8f9092919063ffffffff16565b8173ffffffffffffffffffffffffffffffffffffffff163373ffffffffffffffffffffffffffffffffffffffff167f037238854fe57fbf51f09946f854fc3916fe83938d6521f09bd05463839f13048360405161101a9190612254565b60405180910390a361102a6119c2565b5050565b611036611973565b6000600360008773ffffffffffffffffffffffffffffffffffffffff1673ffffffffffffffffffffffffffffffffffffffff1681526020019081526020016000205490506000801b81036110bf576040517f08c379a00000000000000000000000000000000000000000000000000000000081526004016110b690612b5a565b60405180910390fd5b60007f000000000000000000000000000000000000000000000000000000000000000073ffffffffffffffffffffffffffffffffffffffff1663d47eed4586866040518363ffffffff1660e01b815260040161111c929190613a79565b602060405180830381865afa158015611139573d6000803e3d6000fd5b505050506040513d601f19601f8201168201806040525081019061115d9190613a9d565b9050803410156111a2576040517f08c379a000000000000000000000000000000000000000000000000000000000815260040161119990613b16565b60405180910390fd5b7f000000000000000000000000000000000000000000000000000000000000000073ffffffffffffffffffffffffffffffffffffffff1663ef9e5e288287876040518463ffffffff1660e01b81526004016111fe929190613a79565b6000604051808303818588803b15801561121757600080fd5b505af115801561122b573d6000803e3d6000fd5b50505050506000813461123e9190613b36565b905060008111156113455760003373ffffffffffffffffffffffffffffffffffffffff168260405161126f90612a8d565b60006040518083038185875af1925050503d80600081146112ac576040519150601f19603f3d011682016040523d82523d6000602084013e6112b1565b606091505b50509050806112f5576040517f08c379a00000000000000000000000000000000000000000000000000000000081526004016112ec90613bb6565b60405180910390fd5b3373ffffffffffffffffffffffffffffffffffffffff167fbb28353e4598c3b9199101a66e0989549b659a59a54d2c27fbb183f1932c8e6d8360405161133b9190612254565b60405180910390a2505b60007f000000000000000000000000000000000000000000000000000000000000000073ffffffffffffffffffffffffffffffffffffffff1663a4ae35e085876040518363ffffffff1660e01b81526004016113a2929190613c07565b608060405180830381865afa1580156113bf573d6000803e3d6000fd5b505050506040513d601f19601f820116820180604052508101906113e39190612d25565b905060007f000000000000000000000000000000000000000000000000000000000000000073ffffffffffffffffffffffffffffffffffffffff1663a4ae35e07f0000000000000000000000000000000000000000000000000000000000000000886040518363ffffffff1660e01b8152600401611462929190613c07565b608060405180830381865afa15801561147f573d6000803e3d6000fd5b505050506040513d601f19601f820116820180604052508101906114a39190612d25565b905060006114b4338c8c8686611b15565b90508a73ffffffffffffffffffffffffffffffffffffffff163373ffffffffffffffffffffffffffffffffffffffff167fa078c4190abe07940190effc1846be0ccf03ad6007bc9e93f9697d0b460befbb8c84604051611515929190613c30565b60405180910390a350505050505061152b6119c2565b5050505050565b6002818154811061154257600080fd5b90600052602060002090600302016000915090508060000160009054906101000a900473ffffffffffffffffffffffffffffffffffffffff169080600101805461158b906134bb565b80601f01602080910402602001604051908101604052809291908181526020018280546115b7906134bb565b80156116045780601f106115d957610100808354040283529160200191611604565b820191906000526020600020905b8154815290600101906020018083116115e757829003601f168201915b5050505050908060020154905083565b60046020528060005260406000206000915090508054611633906134bb565b80601f016020809104026020016040519081016040528092919081815260200182805461165f906134bb565b80156116ac5780601f10611681576101008083540402835291602001916116ac565b820191906000526020600020905b81548152906001019060200180831161168f57829003601f168201915b505050505081565b60606002805480602002602001604051908101604052809291908181526020016000905b828210156117fc57838290600052602060002090600302016040518060600160405290816000820160009054906101000a900473ffffffffffffffffffffffffffffffffffffffff1673ffffffffffffffffffffffffffffffffffffffff1673ffffffffffffffffffffffffffffffffffffffff168152602001600182018054611761906134bb565b80601f016020809104026020016040519081016040528092919081815260200182805461178d906134bb565b80156117da5780601f106117af576101008083540402835291602001916117da565b820191906000526020600020905b8154815290600101906020018083116117bd57829003601f168201915b50505050508152602001600282015481525050815260200190600101906116d8565b50505050905090565b7f000000000000000000000000000000000000000000000000000000000000000081565b611831610475565b600073ffffffffffffffffffffffffffffffffffffffff168173ffffffffffffffffffffffffffffffffffffffff16036118a0576040517f08c379a000000000000000000000000000000000000000000000000000000000815260040161189790613ccb565b60405180910390fd5b6118a9816119cb565b50565b6118b4610475565b600034116118f7576040517f08c379a00000000000000000000000000000000000000000000000000000000081526004016118ee90613d37565b60405180910390fd5b3373ffffffffffffffffffffffffffffffffffffffff167fb871c4a3195b4f354d93dc801b3b76ad9a438bf1140a542e08ca7428ba499e4f3460405161193d9190612254565b60405180910390a2565b7f000000000000000000000000000000000000000000000000000000000000000081565b600033905090565b6002600154036119b8576040517f08c379a00000000000000000000000000000000000000000000000000000000081526004016119af90613da3565b60405180910390fd5b6002600181905550565b60018081905550565b60008060009054906101000a900473ffffffffffffffffffffffffffffffffffffffff169050816000806101000a81548173ffffffffffffffffffffffffffffffffffffffff021916908373ffffffffffffffffffffffffffffffffffffffff1602179055508173ffffffffffffffffffffffffffffffffffffffff168173ffffffffffffffffffffffffffffffffffffffff167f8be0079c531659141344cd1fd0a4f28419497f9722a3daafe3b4186f6b6457e060405160405180910390a35050565b611b108363a9059cbb60e01b8484604051602401611aae929190613dc3565b604051602081830303815290604052907bffffffffffffffffffffffffffffffffffffffffffffffffffffffff19166020820180517bffffffffffffffffffffffffffffffffffffffffffffffffffffffff8381831617835250505050611f1d565b505050565b600080836000015160070b13611b60576040517f08c379a0000000000000000000000000000000000000000000000000000000008152600401611b5790612d9e565b60405180910390fd5b6000826000015160070b13611baa576040517f08c379a0000000000000000000000000000000000000000000000000000000008152600401611ba190612e0a565b60405180910390fd5b60008411611bed576040517f08c379a0000000000000000000000000000000000000000000000000000000008152600401611be490612e76565b60405180910390fd5b611c1a8630868873ffffffffffffffffffffffffffffffffffffffff16611fe5909392919063ffffffff16565b60008573ffffffffffffffffffffffffffffffffffffffff1663313ce5676040518163ffffffff1660e01b8152600401602060405180830381865afa158015611c67573d6000803e3d6000fd5b505050506040513d601f19601f82011682018060405250810190611c8b9190612ecf565b905060008460400151905060008160030b12611cdc576040517f08c379a0000000000000000000000000000000000000000000000000000000008152600401611cd390612f6e565b60405180910390fd5b600082600a611ceb91906130f0565b82611cf59061313b565b600a611d019190613183565b876000015167ffffffffffffffff1689611d1b91906131ce565b611d2591906131ce565b611d2f919061323f565b905060008560400151905060008160030b12611d80576040517f08c379a0000000000000000000000000000000000000000000000000000000008152600401611d77906132bc565b60405180910390fd5b600081611d8c9061313b565b600a611d989190613183565b876000015167ffffffffffffffff16611db191906131ce565b905080670de0b6b3a764000084611dc891906131ce565b611dd2919061323f565b9550678ac7230489e80000861115611e1f576040517f08c379a0000000000000000000000000000000000000000000000000000000008152600401611e1690613328565b60405180910390fd5b85471015611e62576040517f08c379a0000000000000000000000000000000000000000000000000000000008152600401611e5990613e38565b60405180910390fd5b60008b73ffffffffffffffffffffffffffffffffffffffff1687604051611e8890612a8d565b60006040518083038185875af1925050503d8060008114611ec5576040519150601f19603f3d011682016040523d82523d6000602084013e611eca565b606091505b5050905080611f0e576040517f08c379a0000000000000000000000000000000000000000000000000000000008152600401611f0590613ea4565b60405180910390fd5b50505050505095945050505050565b6000611f7f826040518060400160405280602081526020017f5361666545524332303a206c6f772d6c6576656c2063616c6c206661696c65648152508573ffffffffffffffffffffffffffffffffffffffff1661206e9092919063ffffffff16565b9050600081511480611fa1575080806020019051810190611fa09190613efc565b5b611fe0576040517f08c379a0000000000000000000000000000000000000000000000000000000008152600401611fd790613f9b565b60405180910390fd5b505050565b612068846323b872dd60e01b85858560405160240161200693929190613fbb565b604051602081830303815290604052907bffffffffffffffffffffffffffffffffffffffffffffffffffffffff19166020820180517bffffffffffffffffffffffffffffffffffffffffffffffffffffffff8381831617835250505050611f1d565b50505050565b606061207d8484600085612086565b90509392505050565b6060824710156120cb576040517f08c379a00000000000000000000000000000000000000000000000000000000081526004016120c290614064565b60405180910390fd5b6000808673ffffffffffffffffffffffffffffffffffffffff1685876040516120f491906140c0565b60006040518083038185875af1925050503d8060008114612131576040519150601f19603f3d011682016040523d82523d6000602084013e612136565b606091505b509150915061214787838387612153565b92505050949350505050565b606083156121b55760008351036121ad5761216d856121c8565b6121ac576040517f08c379a00000000000000000000000000000000000000000000000000000000081526004016121a390614123565b60405180910390fd5b5b8290506121c0565b6121bf83836121eb565b5b949350505050565b6000808273ffffffffffffffffffffffffffffffffffffffff163b119050919050565b6000825111156121fe5781518083602001fd5b806040517f08c379a0000000000000000000000000000000000000000000000000000000008152600401612232919061274c565b60405180910390fd5b6000819050919050565b61224e8161223b565b82525050565b60006020820190506122696000830184612245565b92915050565b6000604051905090565b600080fd5b600080fd5b61228c8161223b565b811461229757600080fd5b50565b6000813590506122a981612283565b92915050565b6000602082840312156122c5576122c4612279565b5b60006122d38482850161229a565b91505092915050565b6000819050919050565b6122ef816122dc565b82525050565b600060208201905061230a60008301846122e6565b92915050565b600073ffffffffffffffffffffffffffffffffffffffff82169050919050565b600061233b82612310565b9050919050565b61234b81612330565b811461235657600080fd5b50565b60008135905061236881612342565b92915050565b6000806040838503121561238557612384612279565b5b600061239385828601612359565b92505060206123a48582860161229a565b9150509250929050565b600067ffffffffffffffff82169050919050565b6123cb816123ae565b82525050565b60006060820190506123e66000830186612245565b6123f360208301856123c2565b61240060408301846123c2565b949350505050565b61241181612330565b82525050565b600060208201905061242c6000830184612408565b92915050565b600080fd5b600080fd5b600080fd5b60008083601f84011261245757612456612432565b5b8235905067ffffffffffffffff81111561247457612473612437565b5b6020830191508360018202830111156124905761248f61243c565b5b9250929050565b6124a0816122dc565b81146124ab57600080fd5b50565b6000813590506124bd81612497565b92915050565b600080600080606085870312156124dd576124dc612279565b5b60006124eb87828801612359565b945050602085013567ffffffffffffffff81111561250c5761250b61227e565b5b61251887828801612441565b9350935050604061252b878288016124ae565b91505092959194509250565b60006020828403121561254d5761254c612279565b5b600061255b84828501612359565b91505092915050565b60008083601f84011261257a57612579612432565b5b8235905067ffffffffffffffff81111561259757612596612437565b5b6020830191508360208202830111156125b3576125b261243c565b5b9250929050565b600063ffffffff82169050919050565b6125d3816125ba565b81146125de57600080fd5b50565b6000813590506125f0816125ca565b92915050565b60008060008060006080868803121561261257612611612279565b5b600061262088828901612359565b95505060206126318882890161229a565b945050604086013567ffffffffffffffff8111156126525761265161227e565b5b61265e88828901612564565b93509350506060612671888289016125e1565b9150509295509295909350565b600081519050919050565b600082825260208201905092915050565b60005b838110156126b857808201518184015260208101905061269d565b60008484015250505050565b6000601f19601f8301169050919050565b60006126e08261267e565b6126ea8185612689565b93506126fa81856020860161269a565b612703816126c4565b840191505092915050565b60006060820190506127236000830186612408565b818103602083015261273581856126d5565b905061274460408301846122e6565b949350505050565b6000602082019050818103600083015261276681846126d5565b905092915050565b600081519050919050565b600082825260208201905092915050565b6000819050602082019050919050565b6127a381612330565b82525050565b600082825260208201905092915050565b60006127c58261267e565b6127cf81856127a9565b93506127df81856020860161269a565b6127e8816126c4565b840191505092915050565b6127fc816122dc565b82525050565b600060608301600083015161281a600086018261279a565b506020830151848203602086015261283282826127ba565b915050604083015161284760408601826127f3565b508091505092915050565b600061285e8383612802565b905092915050565b6000602082019050919050565b600061287e8261276e565b6128888185612779565b93508360208202850161289a8561278a565b8060005b858110156128d657848403895281516128b78582612852565b94506128c283612866565b925060208a0199505060018101905061289e565b50829750879550505050505092915050565b600060208201905081810360008301526129028184612873565b905092915050565b6000819050919050565b600061292f61292a61292584612310565b61290a565b612310565b9050919050565b600061294182612914565b9050919050565b600061295382612936565b9050919050565b61296381612948565b82525050565b600060208201905061297e600083018461295a565b92915050565b7f4f776e61626c653a2063616c6c6572206973206e6f7420746865206f776e6572600082015250565b60006129ba602083612689565b91506129c582612984565b602082019050919050565b600060208201905081810360008301526129e9816129ad565b9050919050565b7f496e73756666696369656e742062616c616e6365000000000000000000000000600082015250565b6000612a26601483612689565b9150612a31826129f0565b602082019050919050565b60006020820190508181036000830152612a5581612a19565b9050919050565b600081905092915050565b50565b6000612a77600083612a5c565b9150612a8282612a67565b600082019050919050565b6000612a9882612a6a565b9150819050919050565b7f5769746864726177206661696c65640000000000000000000000000000000000600082015250565b6000612ad8600f83612689565b9150612ae382612aa2565b602082019050919050565b60006020820190508181036000830152612b0781612acb565b9050919050565b7f546f6b656e206e6f742077686974656c69737465640000000000000000000000600082015250565b6000612b44601583612689565b9150612b4f82612b0e565b602082019050919050565b60006020820190508181036000830152612b7381612b37565b9050919050565b600080fd5b7f4e487b7100000000000000000000000000000000000000000000000000000000600052604160045260246000fd5b612bb7826126c4565b810181811067ffffffffffffffff82111715612bd657612bd5612b7f565b5b80604052505050565b6000612be961226f565b9050612bf58282612bae565b919050565b60008160070b9050919050565b612c1081612bfa565b8114612c1b57600080fd5b50565b600081519050612c2d81612c07565b92915050565b612c3c816123ae565b8114612c4757600080fd5b50565b600081519050612c5981612c33565b92915050565b60008160030b9050919050565b612c7581612c5f565b8114612c8057600080fd5b50565b600081519050612c9281612c6c565b92915050565b600081519050612ca781612283565b92915050565b600060808284031215612cc357612cc2612b7a565b5b612ccd6080612bdf565b90506000612cdd84828501612c1e565b6000830152506020612cf184828501612c4a565b6020830152506040612d0584828501612c83565b6040830152506060612d1984828501612c98565b60608301525092915050565b600060808284031215612d3b57612d3a612279565b5b6000612d4984828501612cad565b91505092915050565b7f496e76616c696420746f6b656e20707269636500000000000000000000000000600082015250565b6000612d88601383612689565b9150612d9382612d52565b602082019050919050565b60006020820190508181036000830152612db781612d7b565b9050919050565b7f496e76616c696420434658207072696365000000000000000000000000000000600082015250565b6000612df4601183612689565b9150612dff82612dbe565b602082019050919050565b60006020820190508181036000830152612e2381612de7565b9050919050565b7f416d6f756e74207a65726f000000000000000000000000000000000000000000600082015250565b6000612e60600b83612689565b9150612e6b82612e2a565b602082019050919050565b60006020820190508181036000830152612e8f81612e53565b9050919050565b600060ff82169050919050565b612eac81612e96565b8114612eb757600080fd5b50565b600081519050612ec981612ea3565b92915050565b600060208284031215612ee557612ee4612279565b5b6000612ef384828501612eba565b91505092915050565b7f556e657870656374656420706f736974697665206578706f20666f7220746f6b60008201527f656e000000000000000000000000000000000000000000000000000000000000602082015250565b6000612f58602283612689565b9150612f6382612efc565b604082019050919050565b60006020820190508181036000830152612f8781612f4b565b9050919050565b7f4e487b7100000000000000000000000000000000000000000000000000000000600052601160045260246000fd5b60008160011c9050919050565b6000808291508390505b600185111561301457808604811115612ff057612fef612f8e565b5b6001851615612fff5780820291505b808102905061300d85612fbd565b9450612fd4565b94509492505050565b60008261302d57600190506130e9565b8161303b57600090506130e9565b8160018114613051576002811461305b5761308a565b60019150506130e9565b60ff84111561306d5761306c612f8e565b5b8360020a91508482111561308457613083612f8e565b5b506130e9565b5060208310610133831016604e8410600b84101617156130bf5782820a9050838111156130ba576130b9612f8e565b5b6130e9565b6130cc8484846001612fca565b925090508184048111156130e3576130e2612f8e565b5b81810290505b9392505050565b60006130fb8261223b565b915061310683612e96565b92506131337fffffffffffffffffffffffffffffffffffffffffffffffffffffffffffffffff848461301d565b905092915050565b600061314682612c5f565b91507fffffffffffffffffffffffffffffffffffffffffffffffffffffffff80000000820361317857613177612f8e565b5b816000039050919050565b600061318e8261223b565b9150613199836125ba565b92506131c67fffffffffffffffffffffffffffffffffffffffffffffffffffffffffffffffff848461301d565b905092915050565b60006131d98261223b565b91506131e48361223b565b92508282026131f28161223b565b9150828204841483151761320957613208612f8e565b5b5092915050565b7f4e487b7100000000000000000000000000000000000000000000000000000000600052601260045260246000fd5b600061324a8261223b565b91506132558361223b565b92508261326557613264613210565b5b828204905092915050565b7f556e657870656374656420706f736974697665206578706f20666f7220434658600082015250565b60006132a6602083612689565b91506132b182613270565b602082019050919050565b600060208201905081810360008301526132d581613299565b9050919050565b7f45786365656473206d6178204346582070657220737761700000000000000000600082015250565b6000613312601883612689565b915061331d826132dc565b602082019050919050565b6000602082019050818103600083015261334181613305565b9050919050565b7f496e76616c696420666565642049440000000000000000000000000000000000600082015250565b600061337e600f83612689565b915061338982613348565b602082019050919050565b600060208201905081810360008301526133ad81613371565b9050919050565b7f496e76616c696420746f6b656e20616464726573730000000000000000000000600082015250565b60006133ea601583612689565b91506133f5826133b4565b602082019050919050565b60006020820190508181036000830152613419816133dd565b9050919050565b7f546f6b656e20616c726561647920616464656400000000000000000000000000600082015250565b6000613456601383612689565b915061346182613420565b602082019050919050565b6000602082019050818103600083015261348581613449565b9050919050565b7f4e487b7100000000000000000000000000000000000000000000000000000000600052602260045260246000fd5b600060028204905060018216806134d357607f821691505b6020821081036134e6576134e561348c565b5b50919050565b60008190508160005260206000209050919050565b60006020601f8301049050919050565b600082821b905092915050565b60006008830261354e7fffffffffffffffffffffffffffffffffffffffffffffffffffffffffffffffff82613511565b6135588683613511565b95508019841693508086168417925050509392505050565b600061358b6135866135818461223b565b61290a565b61223b565b9050919050565b6000819050919050565b6135a583613570565b6135b96135b182613592565b84845461351e565b825550505050565b600090565b6135ce6135c1565b6135d981848461359c565b505050565b5b818110156135fd576135f26000826135c6565b6001810190506135df565b5050565b601f82111561364257613613816134ec565b61361c84613501565b8101602085101561362b578190505b61363f61363785613501565b8301826135de565b50505b505050565b600082821c905092915050565b600061366560001984600802613647565b1980831691505092915050565b600061367e8383613654565b9150826002028217905092915050565b6136978261267e565b67ffffffffffffffff8111156136b0576136af612b7f565b5b6136ba82546134bb565b6136c5828285613601565b600060209050601f8311600181146136f857600084156136e6578287015190505b6136f08582613672565b865550613758565b601f198416613706866134ec565b60005b8281101561372e57848901518255600182019150602085019450602081019050613709565b8683101561374b5784890151613747601f891682613654565b8355505b6001600288020188555050505b505050505050565b600082905092915050565b6137758383613760565b67ffffffffffffffff81111561378e5761378d612b7f565b5b61379882546134bb565b6137a3828285613601565b6000601f8311600181146137d257600084156137c0578287013590505b6137ca8582613672565b865550613832565b601f1984166137e0866134ec565b60005b82811015613808578489013582556001820191506020850194506020810190506137e3565b868310156138255784890135613821601f891682613654565b8355505b6001600288020188555050505b50505050505050565b82818337600083830152505050565b60006138568385612689565b935061386383858461383b565b61386c836126c4565b840190509392505050565b6000604082019050818103600083015261389281858761384a565b90506138a160208301846122e6565b949350505050565b7f496e76616c696420746f6b656e00000000000000000000000000000000000000600082015250565b60006138df600d83612689565b91506138ea826138a9565b602082019050919050565b6000602082019050818103600083015261390e816138d2565b9050919050565b600082825260208201905092915050565b6000819050919050565b600082825260208201905092915050565b600061394d8385613930565b935061395a83858461383b565b613963836126c4565b840190509392505050565b600061397b848484613941565b90509392505050565b600080fd5b600080fd5b600080fd5b600080833560016020038436030381126139b0576139af61398e565b5b83810192508235915060208301925067ffffffffffffffff8211156139d8576139d7613984565b5b6001820236038313156139ee576139ed613989565b5b509250929050565b6000602082019050919050565b6000613a0f8385613915565b935083602084028501613a2184613926565b8060005b87811015613a67578484038952613a3c8284613993565b613a4786828461396e565b9550613a52846139f6565b935060208b019a505050600181019050613a25565b50829750879450505050509392505050565b60006020820190508181036000830152613a94818486613a03565b90509392505050565b600060208284031215613ab357613ab2612279565b5b6000613ac184828501612c98565b91505092915050565b7f496e73756666696369656e742050797468207570646174652066656500000000600082015250565b6000613b00601c83612689565b9150613b0b82613aca565b602082019050919050565b60006020820190508181036000830152613b2f81613af3565b9050919050565b6000613b418261223b565b9150613b4c8361223b565b9250828203905081811115613b6457613b63612f8e565b5b92915050565b7f526566756e64206661696c656400000000000000000000000000000000000000600082015250565b6000613ba0600d83612689565b9150613bab82613b6a565b602082019050919050565b60006020820190508181036000830152613bcf81613b93565b9050919050565b6000613bf1613bec613be7846125ba565b61290a565b61223b565b9050919050565b613c0181613bd6565b82525050565b6000604082019050613c1c60008301856122e6565b613c296020830184613bf8565b9392505050565b6000604082019050613c456000830185612245565b613c526020830184612245565b9392505050565b7f4f776e61626c653a206e6577206f776e657220697320746865207a65726f206160008201527f6464726573730000000000000000000000000000000000000000000000000000602082015250565b6000613cb5602683612689565b9150613cc082613c59565b604082019050919050565b60006020820190508181036000830152613ce481613ca8565b9050919050565b7f4d757374206465706f736974203e203000000000000000000000000000000000600082015250565b6000613d21601083612689565b9150613d2c82613ceb565b602082019050919050565b60006020820190508181036000830152613d5081613d14565b9050919050565b7f5265656e7472616e637947756172643a207265656e7472616e742063616c6c00600082015250565b6000613d8d601f83612689565b9150613d9882613d57565b602082019050919050565b60006020820190508181036000830152613dbc81613d80565b9050919050565b6000604082019050613dd86000830185612408565b613de56020830184612245565b9392505050565b7f496e73756666696369656e742043465820696e20636f6e747261637400000000600082015250565b6000613e22601c83612689565b9150613e2d82613dec565b602082019050919050565b60006020820190508181036000830152613e5181613e15565b9050919050565b7f434658207472616e73666572206661696c656400000000000000000000000000600082015250565b6000613e8e601383612689565b9150613e9982613e58565b602082019050919050565b60006020820190508181036000830152613ebd81613e81565b9050919050565b60008115159050919050565b613ed981613ec4565b8114613ee457600080fd5b50565b600081519050613ef681613ed0565b92915050565b600060208284031215613f1257613f11612279565b5b6000613f2084828501613ee7565b91505092915050565b7f5361666545524332303a204552433230206f7065726174696f6e20646964206e60008201527f6f74207375636365656400000000000000000000000000000000000000000000602082015250565b6000613f85602a83612689565b9150613f9082613f29565b604082019050919050565b60006020820190508181036000830152613fb481613f78565b9050919050565b6000606082019050613fd06000830186612408565b613fdd6020830185612408565b613fea6040830184612245565b949350505050565b7f416464726573733a20696e73756666696369656e742062616c616e636520666f60008201527f722063616c6c0000000000000000000000000000000000000000000000000000602082015250565b600061404e602683612689565b915061405982613ff2565b604082019050919050565b6000602082019050818103600083015261407d81614041565b9050919050565b600081519050919050565b600061409a82614084565b6140a48185612a5c565b93506140b481856020860161269a565b80840191505092915050565b60006140cc828461408f565b915081905092915050565b7f416464726573733a2063616c6c20746f206e6f6e2d636f6e7472616374000000600082015250565b600061410d601d83612689565b9150614118826140d7565b602082019050919050565b6000602082019050818103600083015261413c81614100565b905091905056fea26469706673582212202f3093de14be184e49a0274f5598258fee38f5291c11afbad091dc82a7ba9ba964736f6c63430008140033",
  "linkReferences": {},
  "deployedLinkReferences": {}
}