{
  "_format": "hh-sol-artifact-1",
  "contractName": "GasTopUp",
  "sourceName": "contracts/gasRouter.sol",
  "abi": [
    {
      "inputs": [
        {
          "internalType": "address",
          "name": "_pyth",
          "type": "address"
        },
        {
          "internalType": "bytes32",
          "name": "_cfxUsdFeedId",
          "type": "bytes32"
        }
      ],
      "stateMutability": "nonpayable",
      "type": "constructor"
    },
    {
      "anonymous": false,
      "inputs": [
        {
          "indexed": true,
          "internalType": "address",
          "name": "previousOwner",
          "type": "address"
        },
        {
          "indexed": true,
          "internalType": "address",
          "name": "newOwner",
          "type": "address"
        }
      ],
      "name": "OwnershipTransferred",
      "type": "event"
    },
    {
      "anonymous": false,
      "inputs": [
        {
          "indexed": true,
          "internalType": "address",
          "name": "user",
          "type": "address"
        },
        {
          "indexed": true,
          "internalType": "address",
          "name": "tokenAddress",
          "type": "address"
        },
        {
          "indexed": false,
          "internalType": "uint256",
          "name": "tokenAmount",
          "type": "uint256"
        },
        {
          "indexed": false,
          "internalType": "uint256",
          "name": "cfxAmount",
          "type": "uint256"
        }
      ],
      "name": "Swapped",
      "type": "event"
    },
    {
      "anonymous": false,
      "inputs": [
        {
          "indexed": true,
          "internalType": "address",
          "name": "tokenAddress",
          "type": "address"
        },
        {
          "indexed": false,
          "internalType": "string",
          "name": "ticker",
          "type": "string"
        },
        {
          "indexed": false,
          "internalType": "bytes32",
          "name": "feedId",
          "type": "bytes32"
        }
      ],
      "name": "TokenAdded",
      "type": "event"
    },
    {
      "inputs": [],
      "name": "MAX_CFX_PER_SWAP",
      "outputs": [
        {
          "internalType": "uint256",
          "name": "",
          "type": "uint256"
        }
      ],
      "stateMutability": "view",
      "type": "function"
    },
    {
      "inputs": [
        {
          "internalType": "address",
          "name": "tokenAddress",
          "type": "address"
        },
        {
          "internalType": "string",
          "name": "ticker",
          "type": "string"
        },
        {
          "internalType": "bytes32",
          "name": "feedId",
          "type": "bytes32"
        }
      ],
      "name": "addToken",
      "outputs": [],
      "stateMutability": "nonpayable",
      "type": "function"
    },
    {
      "inputs": [],
      "name": "cfxUsdFeedId",
      "outputs": [
        {
          "internalType": "bytes32",
          "name": "",
          "type": "bytes32"
        }
      ],
      "stateMutability": "view",
      "type": "function"
    },
    {
      "inputs": [
        {
          "internalType": "address",
          "name": "tokenAddress",
          "type": "address"
        },
        {
          "internalType": "uint256",
          "name": "amount",
          "type": "uint256"
        }
      ],
      "name": "estimateCfxOut",
      "outputs": [
        {
          "internalType": "uint256",
          "name": "cfxAmount",
          "type": "uint256"
        },
        {
          "internalType": "uint64",
          "name": "tokenPublishTime",
          "type": "uint64"
        },
        {
          "internalType": "uint64",
          "name": "cfxPublishTime",
          "type": "uint64"
        }
      ],
      "stateMutability": "view",
      "type": "function"
    },
    {
      "inputs": [],
      "name": "getSupportedTokens",
      "outputs": [
        {
          "components": [
            {
              "internalType": "address",
              "name": "tokenAddress",
              "type": "address"
            },
            {
              "internalType": "string",
              "name": "ticker",
              "type": "string"
            },
            {
              "internalType": "bytes32",
              "name": "feedId",
              "type": "bytes32"
            }
          ],
          "internalType": "struct GasTopUp.TokenInfo[]",
          "name": "",
          "type": "tuple[]"
        }
      ],
      "stateMutability": "view",
      "type": "function"
    },
    {
      "inputs": [],
      "name": "owner",
      "outputs": [
        {
          "internalType": "address",
          "name": "",
          "type": "address"
        }
      ],
      "stateMutability": "view",
      "type": "function"
    },
    {
      "inputs": [],
      "name": "pyth",
      "outputs": [
        {
          "internalType": "contract IPyth",
          "name": "",
          "type": "address"
        }
      ],
      "stateMutability": "view",
      "type": "function"
    },
    {
      "inputs": [],
      "name": "renounceOwnership",
      "outputs": [],
      "stateMutability": "nonpayable",
      "type": "function"
    },
    {
      "inputs": [
        {
          "internalType": "uint256",
          "name": "",
          "type": "uint256"
        }
      ],
      "name": "supportedTokens",
      "outputs": [
        {
          "internalType": "address",
          "name": "tokenAddress",
          "type": "address"
        },
        {
          "internalType": "string",
          "name": "ticker",
          "type": "string"
        },
        {
          "internalType": "bytes32",
          "name": "feedId",
          "type": "bytes32"
        }
      ],
      "stateMutability": "view",
      "type": "function"
    },
    {
      "inputs": [
        {
          "internalType": "address",
          "name": "tokenAddress",
          "type": "address"
        },
        {
          "internalType": "uint256",
          "name": "amount",
          "type": "uint256"
        },
        {
          "internalType": "bytes[]",
          "name": "updateData",
          "type": "bytes[]"
        },
        {
          "internalType": "uint32",
          "name": "maxAge",
          "type": "uint32"
        }
      ],
      "name": "swapToCfx",
      "outputs": [],
      "stateMutability": "payable",
      "type": "function"
    },
    {
      "inputs": [
        {
          "internalType": "address",
          "name": "",
          "type": "address"
        }
      ],
      "name": "tokenFeedIds",
      "outputs": [
        {
          "internalType": "bytes32",
          "name": "",
          "type": "bytes32"
        }
      ],
      "stateMutability": "view",
      "type": "function"
    },
    {
      "inputs": [
        {
          "internalType": "address",
          "name": "",
          "type": "address"
        }
      ],
      "name": "tokenTickers",
      "outputs": [
        {
          "internalType": "string",
          "name": "",
          "type": "string"
        }
      ],
      "stateMutability": "view",
      "type": "function"
    },
    {
      "inputs": [
        {
          "internalType": "address",
          "name": "newOwner",
          "type": "address"
        }
      ],
      "name": "transferOwnership",
      "outputs": [],
      "stateMutability": "nonpayable",
      "type": "function"
    },
    {
      "inputs": [
        {
          "internalType": "uint256",
          "name": "amount",
          "type": "uint256"
        }
      ],
      "name": "withdrawCfx",
      "outputs": [],
      "stateMutability": "nonpayable",
      "type": "function"
    },
    {
      "inputs": [
        {
          "internalType": "address",
          "name": "tokenAddress",
          "type": "address"
        },
        {
          "internalType": "uint256",
          "name": "amount",
          "type": "uint256"
        }
      ],
      "name": "withdrawToken",
      "outputs": [],
      "stateMutability": "nonpayable",
      "type": "function"
    },
    {
      "stateMutability": "payable",
      "type": "receive"
    }
  ],
  "bytecode": "0x60c06040523480156200001157600080fd5b5060405162003bfd38038062003bfd833981810160405281019062000037919062000213565b620000576200004b620000a260201b60201c565b620000aa60201b60201c565b600180819055508173ffffffffffffffffffffffffffffffffffffffff1660808173ffffffffffffffffffffffffffffffffffffffff16815250508060a0818152505050506200025a565b600033905090565b60008060009054906101000a900473ffffffffffffffffffffffffffffffffffffffff169050816000806101000a81548173ffffffffffffffffffffffffffffffffffffffff021916908373ffffffffffffffffffffffffffffffffffffffff1602179055508173ffffffffffffffffffffffffffffffffffffffff168173ffffffffffffffffffffffffffffffffffffffff167f8be0079c531659141344cd1fd0a4f28419497f9722a3daafe3b4186f6b6457e060405160405180910390a35050565b600080fd5b600073ffffffffffffffffffffffffffffffffffffffff82169050919050565b6000620001a08262000173565b9050919050565b620001b28162000193565b8114620001be57600080fd5b50565b600081519050620001d281620001a7565b92915050565b6000819050919050565b620001ed81620001d8565b8114620001f957600080fd5b50565b6000815190506200020d81620001e2565b92915050565b600080604083850312156200022d576200022c6200016e565b5b60006200023d85828601620001c1565b92505060206200025085828601620001fc565b9150509250929050565b60805160a051613945620002b86000396000818161069601528181610fb201526113930152600081816105bc0152818161065a01528181610d6501528181610e4601528181610ed601528181610f76015261143a01526139456000f3fe6080604052600436106100ec5760003560e01c80639e281a981161008a578063d3c7c2c711610059578063d3c7c2c7146102fc578063e83d086f14610327578063f2fde38b14610352578063f98d06f01461037b576100fb565b80639e281a981461023b578063bfe1d8f714610264578063c625562614610280578063c9325d6c146102bf576100fb565b8063715018a6116100c6578063715018a61461019357806378af1d55146101aa5780638da5cb5b146101d357806391f12218146101fe576100fb565b806311dfca5d1461010057806331e2a65c146101295780635f5443a514610154576100fb565b366100fb576100f96103a6565b005b600080fd5b34801561010c57600080fd5b5061012760048036038101906101229190611d33565b610424565b005b34801561013557600080fd5b5061013e61051f565b60405161014b9190611d6f565b60405180910390f35b34801561016057600080fd5b5061017b60048036038101906101769190611de8565b61052b565b60405161018a93929190611e4b565b60405180910390f35b34801561019f57600080fd5b506101a861097f565b005b3480156101b657600080fd5b506101d160048036038101906101cc9190611f1d565b610993565b005b3480156101df57600080fd5b506101e8610c58565b6040516101f59190611fa0565b60405180910390f35b34801561020a57600080fd5b5061022560048036038101906102209190611fbb565b610c81565b6040516102329190611ff7565b60405180910390f35b34801561024757600080fd5b50610262600480360381019061025d9190611de8565b610c99565b005b61027e600480360381019061027991906120a4565b610cd0565b005b34801561028c57600080fd5b506102a760048036038101906102a29190611d33565b6110be565b6040516102b6939291906121bc565b60405180910390f35b3480156102cb57600080fd5b506102e660048036038101906102e19190611fbb565b6111a0565b6040516102f391906121fa565b60405180910390f35b34801561030857600080fd5b50610311611240565b60405161031e9190612396565b60405180910390f35b34801561033357600080fd5b5061033c611391565b6040516103499190611ff7565b60405180910390f35b34801561035e57600080fd5b5061037960048036038101906103749190611fbb565b6113b5565b005b34801561038757600080fd5b50610390611438565b60405161039d9190612417565b60405180910390f35b6103ae61145c565b73ffffffffffffffffffffffffffffffffffffffff166103cc610c58565b73ffffffffffffffffffffffffffffffffffffffff1614610422576040517f08c379a00000000000000000000000000000000000000000000000000000000081526004016104199061247e565b60405180910390fd5b565b61042c6103a6565b8047101561046f576040517f08c379a0000000000000000000000000000000000000000000000000000000008152600401610466906124ea565b60405180910390fd5b60003373ffffffffffffffffffffffffffffffffffffffff16826040516104959061253b565b60006040518083038185875af1925050503d80600081146104d2576040519150601f19603f3d011682016040523d82523d6000602084013e6104d7565b606091505b505090508061051b576040517f08c379a00000000000000000000000000000000000000000000000000000000081526004016105129061259c565b60405180910390fd5b5050565b678ac7230489e8000081565b600080600080600360008773ffffffffffffffffffffffffffffffffffffffff1673ffffffffffffffffffffffffffffffffffffffff1681526020019081526020016000205490506000801b81036105b8576040517f08c379a00000000000000000000000000000000000000000000000000000000081526004016105af90612608565b60405180910390fd5b60007f000000000000000000000000000000000000000000000000000000000000000073ffffffffffffffffffffffffffffffffffffffff166396834ad3836040518263ffffffff1660e01b81526004016106139190611ff7565b608060405180830381865afa158015610630573d6000803e3d6000fd5b505050506040513d601f19601f8201168201806040525081019061065491906127d3565b905060007f000000000000000000000000000000000000000000000000000000000000000073ffffffffffffffffffffffffffffffffffffffff166396834ad37f00000000000000000000000000000000000000000000000000000000000000006040518263ffffffff1660e01b81526004016106d19190611ff7565b608060405180830381865afa1580156106ee573d6000803e3d6000fd5b505050506040513d601f19601f8201168201806040525081019061071291906127d3565b90506000826000015160070b1361075e576040517f08c379a00000000000000000000000000000000000000000000000000000000081526004016107559061284c565b60405180910390fd5b6000816000015160070b136107a8576040517f08c379a000000000000000000000000000000000000000000000000000000000815260040161079f906128b8565b60405180910390fd5b816060015194508060600151935060008873ffffffffffffffffffffffffffffffffffffffff1663313ce5676040518163ffffffff1660e01b8152600401602060405180830381865afa158015610803573d6000803e3d6000fd5b505050506040513d601f19601f820116820180604052508101906108279190612911565b905060008360400151905060008160030b12610878576040517f08c379a000000000000000000000000000000000000000000000000000000000815260040161086f9061298a565b60405180910390fd5b600082600a6108879190612b0c565b8261089190612b57565b600a61089d9190612b9f565b866000015167ffffffffffffffff168c6108b79190612bea565b6108c19190612bea565b6108cb9190612c5b565b905060008460400151905060008160030b1261091c576040517f08c379a00000000000000000000000000000000000000000000000000000000081526004016109139061298a565b60405180910390fd5b60008161092890612b57565b600a6109349190612b9f565b866000015167ffffffffffffffff1661094d9190612bea565b905080670de0b6b3a7640000846109649190612bea565b61096e9190612c5b565b9a5050505050505050509250925092565b6109876103a6565b6109916000611464565b565b61099b6103a6565b6000801b81036109e0576040517f08c379a00000000000000000000000000000000000000000000000000000000081526004016109d790612cd8565b60405180910390fd5b6000801b600360008673ffffffffffffffffffffffffffffffffffffffff1673ffffffffffffffffffffffffffffffffffffffff1681526020019081526020016000205414610a64576040517f08c379a0000000000000000000000000000000000000000000000000000000008152600401610a5b90612d44565b60405180910390fd5b600260405180606001604052808673ffffffffffffffffffffffffffffffffffffffff16815260200185858080601f016020809104026020016040519081016040528093929190818152602001838380828437600081840152601f19601f82011690508083019250505050505050815260200183815250908060018154018082558091505060019003906000526020600020906003020160009091909190915060008201518160000160006101000a81548173ffffffffffffffffffffffffffffffffffffffff021916908373ffffffffffffffffffffffffffffffffffffffff1602179055506020820151816001019081610b609190612f66565b5060408201518160020155505080600360008673ffffffffffffffffffffffffffffffffffffffff1673ffffffffffffffffffffffffffffffffffffffff168152602001908152602001600020819055508282600460008773ffffffffffffffffffffffffffffffffffffffff1673ffffffffffffffffffffffffffffffffffffffff1681526020019081526020016000209182610bff929190613043565b508373ffffffffffffffffffffffffffffffffffffffff167f7ee5b861ad236224c1fb776c839c3959f7a0903d4e4dcde63306821c6ff60aa2848484604051610c4a9392919061314f565b60405180910390a250505050565b60008060009054906101000a900473ffffffffffffffffffffffffffffffffffffffff16905090565b60036020528060005260406000206000915090505481565b610ca16103a6565b610ccc33828473ffffffffffffffffffffffffffffffffffffffff166115289092919063ffffffff16565b5050565b610cd86115ae565b6000600360008773ffffffffffffffffffffffffffffffffffffffff1673ffffffffffffffffffffffffffffffffffffffff1681526020019081526020016000205490506000801b8103610d61576040517f08c379a0000000000000000000000000000000000000000000000000000000008152600401610d5890612608565b60405180910390fd5b60007f000000000000000000000000000000000000000000000000000000000000000073ffffffffffffffffffffffffffffffffffffffff1663d47eed4586866040518363ffffffff1660e01b8152600401610dbe9291906132e5565b602060405180830381865afa158015610ddb573d6000803e3d6000fd5b505050506040513d601f19601f82011682018060405250810190610dff9190613309565b905080341015610e44576040517f08c379a0000000000000000000000000000000000000000000000000000000008152600401610e3b90613382565b60405180910390fd5b7f000000000000000000000000000000000000000000000000000000000000000073ffffffffffffffffffffffffffffffffffffffff1663ef9e5e288287876040518463ffffffff1660e01b8152600401610ea09291906132e5565b6000604051808303818588803b158015610eb957600080fd5b505af1158015610ecd573d6000803e3d6000fd5b505050505060007f000000000000000000000000000000000000000000000000000000000000000073ffffffffffffffffffffffffffffffffffffffff1663a4ae35e084866040518363ffffffff1660e01b8152600401610f2f9291906133d3565b608060405180830381865afa158015610f4c573d6000803e3d6000fd5b505050506040513d601f19601f82011682018060405250810190610f7091906127d3565b905060007f000000000000000000000000000000000000000000000000000000000000000073ffffffffffffffffffffffffffffffffffffffff1663a4ae35e07f0000000000000000000000000000000000000000000000000000000000000000876040518363ffffffff1660e01b8152600401610fef9291906133d3565b608060405180830381865afa15801561100c573d6000803e3d6000fd5b505050506040513d601f19601f8201168201806040525081019061103091906127d3565b90506000611041338b8b86866115fd565b90508973ffffffffffffffffffffffffffffffffffffffff163373ffffffffffffffffffffffffffffffffffffffff167fa078c4190abe07940190effc1846be0ccf03ad6007bc9e93f9697d0b460befbb8b846040516110a29291906133fc565b60405180910390a350505050506110b76119c2565b5050505050565b600281815481106110ce57600080fd5b90600052602060002090600302016000915090508060000160009054906101000a900473ffffffffffffffffffffffffffffffffffffffff169080600101805461111790612d93565b80601f016020809104026020016040519081016040528092919081815260200182805461114390612d93565b80156111905780601f1061116557610100808354040283529160200191611190565b820191906000526020600020905b81548152906001019060200180831161117357829003601f168201915b5050505050908060020154905083565b600460205280600052604060002060009150905080546111bf90612d93565b80601f01602080910402602001604051908101604052809291908181526020018280546111eb90612d93565b80156112385780601f1061120d57610100808354040283529160200191611238565b820191906000526020600020905b81548152906001019060200180831161121b57829003601f168201915b505050505081565b60606002805480602002602001604051908101604052809291908181526020016000905b8282101561138857838290600052602060002090600302016040518060600160405290816000820160009054906101000a900473ffffffffffffffffffffffffffffffffffffffff1673ffffffffffffffffffffffffffffffffffffffff1673ffffffffffffffffffffffffffffffffffffffff1681526020016001820180546112ed90612d93565b80601f016020809104026020016040519081016040528092919081815260200182805461131990612d93565b80156113665780601f1061133b57610100808354040283529160200191611366565b820191906000526020600020905b81548152906001019060200180831161134957829003601f168201915b5050505050815260200160028201548152505081526020019060010190611264565b50505050905090565b7f000000000000000000000000000000000000000000000000000000000000000081565b6113bd6103a6565b600073ffffffffffffffffffffffffffffffffffffffff168173ffffffffffffffffffffffffffffffffffffffff160361142c576040517f08c379a000000000000000000000000000000000000000000000000000000000815260040161142390613497565b60405180910390fd5b61143581611464565b50565b7f000000000000000000000000000000000000000000000000000000000000000081565b600033905090565b60008060009054906101000a900473ffffffffffffffffffffffffffffffffffffffff169050816000806101000a81548173ffffffffffffffffffffffffffffffffffffffff021916908373ffffffffffffffffffffffffffffffffffffffff1602179055508173ffffffffffffffffffffffffffffffffffffffff168173ffffffffffffffffffffffffffffffffffffffff167f8be0079c531659141344cd1fd0a4f28419497f9722a3daafe3b4186f6b6457e060405160405180910390a35050565b6115a98363a9059cbb60e01b84846040516024016115479291906134b7565b604051602081830303815290604052907bffffffffffffffffffffffffffffffffffffffffffffffffffffffff19166020820180517bffffffffffffffffffffffffffffffffffffffffffffffffffffffff83818316178352505050506119cb565b505050565b6002600154036115f3576040517f08c379a00000000000000000000000000000000000000000000000000000000081526004016115ea9061352c565b60405180910390fd5b6002600181905550565b600080836000015160070b13611648576040517f08c379a000000000000000000000000000000000000000000000000000000000815260040161163f9061284c565b60405180910390fd5b6000826000015160070b13611692576040517f08c379a0000000000000000000000000000000000000000000000000000000008152600401611689906128b8565b60405180910390fd5b6116bf8630868873ffffffffffffffffffffffffffffffffffffffff16611a93909392919063ffffffff16565b60008573ffffffffffffffffffffffffffffffffffffffff1663313ce5676040518163ffffffff1660e01b8152600401602060405180830381865afa15801561170c573d6000803e3d6000fd5b505050506040513d601f19601f820116820180604052508101906117309190612911565b905060008460400151905060008160030b12611781576040517f08c379a00000000000000000000000000000000000000000000000000000000081526004016117789061298a565b60405180910390fd5b600082600a6117909190612b0c565b8261179a90612b57565b600a6117a69190612b9f565b876000015167ffffffffffffffff16896117c09190612bea565b6117ca9190612bea565b6117d49190612c5b565b905060008560400151905060008160030b12611825576040517f08c379a000000000000000000000000000000000000000000000000000000000815260040161181c9061298a565b60405180910390fd5b60008161183190612b57565b600a61183d9190612b9f565b876000015167ffffffffffffffff166118569190612bea565b905080670de0b6b3a76400008461186d9190612bea565b6118779190612c5b565b9550678ac7230489e800008611156118c4576040517f08c379a00000000000000000000000000000000000000000000000000000000081526004016118bb90613598565b60405180910390fd5b85471015611907576040517f08c379a00000000000000000000000000000000000000000000000000000000081526004016118fe90613604565b60405180910390fd5b60008b73ffffffffffffffffffffffffffffffffffffffff168760405161192d9061253b565b60006040518083038185875af1925050503d806000811461196a576040519150601f19603f3d011682016040523d82523d6000602084013e61196f565b606091505b50509050806119b3576040517f08c379a00000000000000000000000000000000000000000000000000000000081526004016119aa90613670565b60405180910390fd5b50505050505095945050505050565b60018081905550565b6000611a2d826040518060400160405280602081526020017f5361666545524332303a206c6f772d6c6576656c2063616c6c206661696c65648152508573ffffffffffffffffffffffffffffffffffffffff16611b1c9092919063ffffffff16565b9050600081511480611a4f575080806020019051810190611a4e91906136c8565b5b611a8e576040517f08c379a0000000000000000000000000000000000000000000000000000000008152600401611a8590613767565b60405180910390fd5b505050565b611b16846323b872dd60e01b858585604051602401611ab493929190613787565b604051602081830303815290604052907bffffffffffffffffffffffffffffffffffffffffffffffffffffffff19166020820180517bffffffffffffffffffffffffffffffffffffffffffffffffffffffff83818316178352505050506119cb565b50505050565b6060611b2b8484600085611b34565b90509392505050565b606082471015611b79576040517f08c379a0000000000000000000000000000000000000000000000000000000008152600401611b7090613830565b60405180910390fd5b6000808673ffffffffffffffffffffffffffffffffffffffff168587604051611ba2919061388c565b60006040518083038185875af1925050503d8060008114611bdf576040519150601f19603f3d011682016040523d82523d6000602084013e611be4565b606091505b5091509150611bf587838387611c01565b92505050949350505050565b60608315611c63576000835103611c5b57611c1b85611c76565b611c5a576040517f08c379a0000000000000000000000000000000000000000000000000000000008152600401611c51906138ef565b60405180910390fd5b5b829050611c6e565b611c6d8383611c99565b5b949350505050565b6000808273ffffffffffffffffffffffffffffffffffffffff163b119050919050565b600082511115611cac5781518083602001fd5b806040517f08c379a0000000000000000000000000000000000000000000000000000000008152600401611ce091906121fa565b60405180910390fd5b6000604051905090565b600080fd5b600080fd5b6000819050919050565b611d1081611cfd565b8114611d1b57600080fd5b50565b600081359050611d2d81611d07565b92915050565b600060208284031215611d4957611d48611cf3565b5b6000611d5784828501611d1e565b91505092915050565b611d6981611cfd565b82525050565b6000602082019050611d846000830184611d60565b92915050565b600073ffffffffffffffffffffffffffffffffffffffff82169050919050565b6000611db582611d8a565b9050919050565b611dc581611daa565b8114611dd057600080fd5b50565b600081359050611de281611dbc565b92915050565b60008060408385031215611dff57611dfe611cf3565b5b6000611e0d85828601611dd3565b9250506020611e1e85828601611d1e565b9150509250929050565b600067ffffffffffffffff82169050919050565b611e4581611e28565b82525050565b6000606082019050611e606000830186611d60565b611e6d6020830185611e3c565b611e7a6040830184611e3c565b949350505050565b600080fd5b600080fd5b600080fd5b60008083601f840112611ea757611ea6611e82565b5b8235905067ffffffffffffffff811115611ec457611ec3611e87565b5b602083019150836001820283011115611ee057611edf611e8c565b5b9250929050565b6000819050919050565b611efa81611ee7565b8114611f0557600080fd5b50565b600081359050611f1781611ef1565b92915050565b60008060008060608587031215611f3757611f36611cf3565b5b6000611f4587828801611dd3565b945050602085013567ffffffffffffffff811115611f6657611f65611cf8565b5b611f7287828801611e91565b93509350506040611f8587828801611f08565b91505092959194509250565b611f9a81611daa565b82525050565b6000602082019050611fb56000830184611f91565b92915050565b600060208284031215611fd157611fd0611cf3565b5b6000611fdf84828501611dd3565b91505092915050565b611ff181611ee7565b82525050565b600060208201905061200c6000830184611fe8565b92915050565b60008083601f84011261202857612027611e82565b5b8235905067ffffffffffffffff81111561204557612044611e87565b5b60208301915083602082028301111561206157612060611e8c565b5b9250929050565b600063ffffffff82169050919050565b61208181612068565b811461208c57600080fd5b50565b60008135905061209e81612078565b92915050565b6000806000806000608086880312156120c0576120bf611cf3565b5b60006120ce88828901611dd3565b95505060206120df88828901611d1e565b945050604086013567ffffffffffffffff811115612100576120ff611cf8565b5b61210c88828901612012565b9350935050606061211f8882890161208f565b9150509295509295909350565b600081519050919050565b600082825260208201905092915050565b60005b8381101561216657808201518184015260208101905061214b565b60008484015250505050565b6000601f19601f8301169050919050565b600061218e8261212c565b6121988185612137565b93506121a8818560208601612148565b6121b181612172565b840191505092915050565b60006060820190506121d16000830186611f91565b81810360208301526121e38185612183565b90506121f26040830184611fe8565b949350505050565b600060208201905081810360008301526122148184612183565b905092915050565b600081519050919050565b600082825260208201905092915050565b6000819050602082019050919050565b61225181611daa565b82525050565b600082825260208201905092915050565b60006122738261212c565b61227d8185612257565b935061228d818560208601612148565b61229681612172565b840191505092915050565b6122aa81611ee7565b82525050565b60006060830160008301516122c86000860182612248565b50602083015184820360208601526122e08282612268565b91505060408301516122f560408601826122a1565b508091505092915050565b600061230c83836122b0565b905092915050565b6000602082019050919050565b600061232c8261221c565b6123368185612227565b93508360208202850161234885612238565b8060005b8581101561238457848403895281516123658582612300565b945061237083612314565b925060208a0199505060018101905061234c565b50829750879550505050505092915050565b600060208201905081810360008301526123b08184612321565b905092915050565b6000819050919050565b60006123dd6123d86123d384611d8a565b6123b8565b611d8a565b9050919050565b60006123ef826123c2565b9050919050565b6000612401826123e4565b9050919050565b612411816123f6565b82525050565b600060208201905061242c6000830184612408565b92915050565b7f4f776e61626c653a2063616c6c6572206973206e6f7420746865206f776e6572600082015250565b6000612468602083612137565b915061247382612432565b602082019050919050565b600060208201905081810360008301526124978161245b565b9050919050565b7f496e73756666696369656e742062616c616e6365000000000000000000000000600082015250565b60006124d4601483612137565b91506124df8261249e565b602082019050919050565b60006020820190508181036000830152612503816124c7565b9050919050565b600081905092915050565b50565b600061252560008361250a565b915061253082612515565b600082019050919050565b600061254682612518565b9150819050919050565b7f5769746864726177206661696c65640000000000000000000000000000000000600082015250565b6000612586600f83612137565b915061259182612550565b602082019050919050565b600060208201905081810360008301526125b581612579565b9050919050565b7f546f6b656e206e6f742077686974656c69737465640000000000000000000000600082015250565b60006125f2601583612137565b91506125fd826125bc565b602082019050919050565b60006020820190508181036000830152612621816125e5565b9050919050565b600080fd5b7f4e487b7100000000000000000000000000000000000000000000000000000000600052604160045260246000fd5b61266582612172565b810181811067ffffffffffffffff821117156126845761268361262d565b5b80604052505050565b6000612697611ce9565b90506126a3828261265c565b919050565b60008160070b9050919050565b6126be816126a8565b81146126c957600080fd5b50565b6000815190506126db816126b5565b92915050565b6126ea81611e28565b81146126f557600080fd5b50565b600081519050612707816126e1565b92915050565b60008160030b9050919050565b6127238161270d565b811461272e57600080fd5b50565b6000815190506127408161271a565b92915050565b60008151905061275581611d07565b92915050565b60006080828403121561277157612770612628565b5b61277b608061268d565b9050600061278b848285016126cc565b600083015250602061279f848285016126f8565b60208301525060406127b384828501612731565b60408301525060606127c784828501612746565b60608301525092915050565b6000608082840312156127e9576127e8611cf3565b5b60006127f78482850161275b565b91505092915050565b7f496e76616c696420746f6b656e20707269636500000000000000000000000000600082015250565b6000612836601383612137565b915061284182612800565b602082019050919050565b6000602082019050818103600083015261286581612829565b9050919050565b7f496e76616c696420434658207072696365000000000000000000000000000000600082015250565b60006128a2601183612137565b91506128ad8261286c565b602082019050919050565b600060208201905081810360008301526128d181612895565b9050919050565b600060ff82169050919050565b6128ee816128d8565b81146128f957600080fd5b50565b60008151905061290b816128e5565b92915050565b60006020828403121561292757612926611cf3565b5b6000612935848285016128fc565b91505092915050565b7f556e657870656374656420706f736974697665206578706f0000000000000000600082015250565b6000612974601883612137565b915061297f8261293e565b602082019050919050565b600060208201905081810360008301526129a381612967565b9050919050565b7f4e487b7100000000000000000000000000000000000000000000000000000000600052601160045260246000fd5b60008160011c9050919050565b6000808291508390505b6001851115612a3057808604811115612a0c57612a0b6129aa565b5b6001851615612a1b5780820291505b8081029050612a29856129d9565b94506129f0565b94509492505050565b600082612a495760019050612b05565b81612a575760009050612b05565b8160018114612a6d5760028114612a7757612aa6565b6001915050612b05565b60ff841115612a8957612a886129aa565b5b8360020a915084821115612aa057612a9f6129aa565b5b50612b05565b5060208310610133831016604e8410600b8410161715612adb5782820a905083811115612ad657612ad56129aa565b5b612b05565b612ae884848460016129e6565b92509050818404811115612aff57612afe6129aa565b5b81810290505b9392505050565b6000612b1782611cfd565b9150612b22836128d8565b9250612b4f7fffffffffffffffffffffffffffffffffffffffffffffffffffffffffffffffff8484612a39565b905092915050565b6000612b628261270d565b91507fffffffffffffffffffffffffffffffffffffffffffffffffffffffff800000008203612b9457612b936129aa565b5b816000039050919050565b6000612baa82611cfd565b9150612bb583612068565b9250612be27fffffffffffffffffffffffffffffffffffffffffffffffffffffffffffffffff8484612a39565b905092915050565b6000612bf582611cfd565b9150612c0083611cfd565b9250828202612c0e81611cfd565b91508282048414831517612c2557612c246129aa565b5b5092915050565b7f4e487b7100000000000000000000000000000000000000000000000000000000600052601260045260246000fd5b6000612c6682611cfd565b9150612c7183611cfd565b925082612c8157612c80612c2c565b5b828204905092915050565b7f496e76616c696420666565642049440000000000000000000000000000000000600082015250565b6000612cc2600f83612137565b9150612ccd82612c8c565b602082019050919050565b60006020820190508181036000830152612cf181612cb5565b9050919050565b7f546f6b656e20616c726561647920616464656400000000000000000000000000600082015250565b6000612d2e601383612137565b9150612d3982612cf8565b602082019050919050565b60006020820190508181036000830152612d5d81612d21565b9050919050565b7f4e487b7100000000000000000000000000000000000000000000000000000000600052602260045260246000fd5b60006002820490506001821680612dab57607f821691505b602082108103612dbe57612dbd612d64565b5b50919050565b60008190508160005260206000209050919050565b60006020601f8301049050919050565b600082821b905092915050565b600060088302612e267fffffffffffffffffffffffffffffffffffffffffffffffffffffffffffffffff82612de9565b612e308683612de9565b95508019841693508086168417925050509392505050565b6000612e63612e5e612e5984611cfd565b6123b8565b611cfd565b9050919050565b6000819050919050565b612e7d83612e48565b612e91612e8982612e6a565b848454612df6565b825550505050565b600090565b612ea6612e99565b612eb1818484612e74565b505050565b5b81811015612ed557612eca600082612e9e565b600181019050612eb7565b5050565b601f821115612f1a57612eeb81612dc4565b612ef484612dd9565b81016020851015612f03578190505b612f17612f0f85612dd9565b830182612eb6565b50505b505050565b600082821c905092915050565b6000612f3d60001984600802612f1f565b1980831691505092915050565b6000612f568383612f2c565b9150826002028217905092915050565b612f6f8261212c565b67ffffffffffffffff811115612f8857612f8761262d565b5b612f928254612d93565b612f9d828285612ed9565b600060209050601f831160018114612fd05760008415612fbe578287015190505b612fc88582612f4a565b865550613030565b601f198416612fde86612dc4565b60005b8281101561300657848901518255600182019150602085019450602081019050612fe1565b86831015613023578489015161301f601f891682612f2c565b8355505b6001600288020188555050505b505050505050565b600082905092915050565b61304d8383613038565b67ffffffffffffffff8111156130665761306561262d565b5b6130708254612d93565b61307b828285612ed9565b6000601f8311600181146130aa5760008415613098578287013590505b6130a28582612f4a565b86555061310a565b601f1984166130b886612dc4565b60005b828110156130e0578489013582556001820191506020850194506020810190506130bb565b868310156130fd57848901356130f9601f891682612f2c565b8355505b6001600288020188555050505b50505050505050565b82818337600083830152505050565b600061312e8385612137565b935061313b838584613113565b61314483612172565b840190509392505050565b6000604082019050818103600083015261316a818587613122565b90506131796020830184611fe8565b949350505050565b600082825260208201905092915050565b6000819050919050565b600082825260208201905092915050565b60006131b9838561319c565b93506131c6838584613113565b6131cf83612172565b840190509392505050565b60006131e78484846131ad565b90509392505050565b600080fd5b600080fd5b600080fd5b6000808335600160200384360303811261321c5761321b6131fa565b5b83810192508235915060208301925067ffffffffffffffff821115613244576132436131f0565b5b60018202360383131561325a576132596131f5565b5b509250929050565b6000602082019050919050565b600061327b8385613181565b93508360208402850161328d84613192565b8060005b878110156132d35784840389526132a882846131ff565b6132b38682846131da565b95506132be84613262565b935060208b019a505050600181019050613291565b50829750879450505050509392505050565b6000602082019050818103600083015261330081848661326f565b90509392505050565b60006020828403121561331f5761331e611cf3565b5b600061332d84828501612746565b91505092915050565b7f496e73756666696369656e742050797468207570646174652066656500000000600082015250565b600061336c601c83612137565b915061337782613336565b602082019050919050565b6000602082019050818103600083015261339b8161335f565b9050919050565b60006133bd6133b86133b384612068565b6123b8565b611cfd565b9050919050565b6133cd816133a2565b82525050565b60006040820190506133e86000830185611fe8565b6133f560208301846133c4565b9392505050565b60006040820190506134116000830185611d60565b61341e6020830184611d60565b9392505050565b7f4f776e61626c653a206e6577206f776e657220697320746865207a65726f206160008201527f6464726573730000000000000000000000000000000000000000000000000000602082015250565b6000613481602683612137565b915061348c82613425565b604082019050919050565b600060208201905081810360008301526134b081613474565b9050919050565b60006040820190506134cc6000830185611f91565b6134d96020830184611d60565b9392505050565b7f5265656e7472616e637947756172643a207265656e7472616e742063616c6c00600082015250565b6000613516601f83612137565b9150613521826134e0565b602082019050919050565b6000602082019050818103600083015261354581613509565b9050919050565b7f45786365656473206d6178204346582070657220737761700000000000000000600082015250565b6000613582601883612137565b915061358d8261354c565b602082019050919050565b600060208201905081810360008301526135b181613575565b9050919050565b7f496e73756666696369656e742043465820696e20636f6e747261637400000000600082015250565b60006135ee601c83612137565b91506135f9826135b8565b602082019050919050565b6000602082019050818103600083015261361d816135e1565b9050919050565b7f434658207472616e73666572206661696c656400000000000000000000000000600082015250565b600061365a601383612137565b915061366582613624565b602082019050919050565b600060208201905081810360008301526136898161364d565b9050919050565b60008115159050919050565b6136a581613690565b81146136b057600080fd5b50565b6000815190506136c28161369c565b92915050565b6000602082840312156136de576136dd611cf3565b5b60006136ec848285016136b3565b91505092915050565b7f5361666545524332303a204552433230206f7065726174696f6e20646964206e60008201527f6f74207375636365656400000000000000000000000000000000000000000000602082015250565b6000613751602a83612137565b915061375c826136f5565b604082019050919050565b6000602082019050818103600083015261378081613744565b9050919050565b600060608201905061379c6000830186611f91565b6137a96020830185611f91565b6137b66040830184611d60565b949350505050565b7f416464726573733a20696e73756666696369656e742062616c616e636520666f60008201527f722063616c6c0000000000000000000000000000000000000000000000000000602082015250565b600061381a602683612137565b9150613825826137be565b604082019050919050565b600060208201905081810360008301526138498161380d565b9050919050565b600081519050919050565b600061386682613850565b613870818561250a565b9350613880818560208601612148565b80840191505092915050565b6000613898828461385b565b915081905092915050565b7f416464726573733a2063616c6c20746f206e6f6e2d636f6e7472616374000000600082015250565b60006138d9601d83612137565b91506138e4826138a3565b602082019050919050565b60006020820190508181036000830152613908816138cc565b905091905056fea2646970667358221220a9c95b564f90021747aff00a367100ba3dae17c5c20fac41c2316b0ec5202e4564736f6c63430008140033",
  "linkReferences": {},
  "deployedLinkReferences": {}
}